:020000040800F2
:1000000000040020F1010008316C0008316C000888
:10001000316C0008316C0008316C0008316C00084C
:10002000316C0008316C0008316C0008097300085D
:10003000316C0008316C0008316C0008316C00082C
:10004000316C0008316C0008316C0008316C00081C
:10005000316C0008316C0008316C0008316C00080C
:10006000316C0008316C0008316C0008098200080E
:100070003D82000875820008AD820008E582000814
:100080001D83000855830008316C0008316C00089E
:10009000316C0008316C0008316C0008316C0008CC
:1000A000316C0008316C0008316C0008316C0008BC
:1000B00045870008316C0008316C0008316C00087D
:1000C000316C0008316C0008316C0008316C00089C
:1000D000316C0008316C0008316C0008316C00088C
:1000E000316C0008316C0008316C0008316C00087C
:1000F0001D890008316C0008316C0008316C000863
:10010000316C0008316C0008316C0008316C00085B
:10011000316C0008316C0008F58800080989000876
:100120008D830008C1830008F9830008318400082A
:1001300069840008316C0008316C0008316C0008DB
:10014000316C0008316C0008316C0008316C00081B
:10015000316C0008316C0008316C0008316C00080B
:10016000316C0008316C0008316C000869890008A6
:10017000316C0008316C0008316C0008316C0008EB
:10018000316C0008316C0008316C0008316C0008DB
:10019000316C0008316C0008316C0008316C0008CB
:0C01A000F1A00008D5010008B101000822
:1001B00010B5054C237833B9044B13B10448AFF3A1
:1001C00000800123237010BDC01500200000000036
:1001D00094BF000808B5034B1BB103490348AFF3B4
:1001E000008008BD00000000C415002094BF000876
:1001F00072B6374880F3098836484EF60851CEF279
:100200000001086040F20000CCF200004EF63471AC
:10021000CEF200010860BFF34F8FBFF36F8F40F243
:100220000000C0F2F0004EF68851CEF200010860E6
:10023000BFF34F8FBFF36F8F4FF00000E1EE100A56
:100240004EF63C71CEF200010860062080F314885F
:10025000BFF36F8F06F0CCFC08F03FFE4FF0553037
:100260001D491E4A91423CBF41F8040BFAE71C4964
:10027000174A91423CBF41F8040BFAE719491A4A60
:100280001A4B9A423EBF51F8040B42F8040BF8E7B0
:1002900000201749174A91423CBF41F8040BFAE786
:1002A00006F0AAFC06F0A5FC134C144DAC4203DA90
:1002B00054F8041B8847F9E706F088FA104C114DF2
:1002C000AC4203DA54F8041B8847F9E706F092BC05
:1002D000000C0020000000080000002000040020A6
:1002E0000004002094BF0008000C0020BC15002072
:1002F000C0150020E8240020A0010008A801000883
:10030000A8010008AC0100082DE9F04F2DED108A7E
:10031000C1F80CD0C3689D46BDEC108ABDE8F08FD3
:10032000002383F311882846A047002006F0DAFE58
:1003300006F070FE00DFFEE781F0004102E000BF42
:1003400083F0004330B54FEA41044FEA430594EA95
:10035000050F08BF90EA020F1FBF54EA000C55EAD0
:10036000020C7FEA645C7FEA655C00F0E2804FEAA1
:100370005454D4EB5555B8BF6D420CDD2C4480EA83
:10038000020281EA030382EA000083EA010180EAB3
:10039000020281EA0303362D88BF30BD11F0004F01
:1003A0004FEA01314FF4801C4CEA113102D0404237
:1003B00061EB410113F0004F4FEA03334CEA133372
:1003C00002D0524263EB430394EA050F00F0A7808A
:1003D000A4F10104D5F1200E0DDB02FA0EFC22FA85
:1003E00005F2801841F1000103FA0EF2801843FA79
:1003F00005F359410EE0A5F120050EF1200E012A6A
:1004000003FA0EFC28BF4CF0020C43FA05F3C018A7
:1004100051EBE37101F0004507D54FF0000EDCF120
:10042000000C7EEB00006EEB0101B1F5801F1BD3C9
:10043000B1F5001F0CD349085FEA30004FEA3C0CCD
:1004400004F101044FEA445212F5800F80F09A80C3
:10045000BCF1004F08BF5FEA500C50F1000041EBC7
:10046000045141EA050130BD5FEA4C0C404141EBCB
:10047000010111F4801FA4F10104E9D191F0000FF2
:1004800004BF01460020B1FA81F308BF2033A3F175
:100490000B03B3F120020CDA0C3208DD02F1140C6C
:1004A000C2F10C0201FA0CF021FA02F10CE002F1A7
:1004B0001402D8BFC2F1200C01FA02F120FA0CFCA0
:1004C000DCBF41EA0C019040E41AA2BF01EB0451E9
:1004D000294330BD6FEA04041F3C1CDA0C340EDCE7
:1004E00004F11404C4F1200220FA04F001FA02F32A
:1004F00040EA030021FA04F345EA030130BDC4F1E8
:100500000C04C4F1200220FA02F001FA04F340EADC
:100510000300294630BD21FA04F0294630BD94F08D
:10052000000F83F4801306BF81F480110134013D74
:100530004EE77FEA645C18BF7FEA655C29D094EAE5
:10054000050F08BF90EA020F05D054EA000C04BF63
:100550001946104630BD91EA030F1EBF002100204E
:1005600030BD5FEA545C05D14000494128BF41F0ED
:10057000004130BD14F580043CBF01F5801130BD51
:1005800001F0004545F0FE4141F470014FF00000DC
:1005900030BD7FEA645C1ABF194610467FEA655C8D
:1005A0001CBF0B46024650EA013406BF52EA03352F
:1005B00091EA030F41F4002130BD00BF90F0000F1D
:1005C00004BF0021704730B54FF4806404F1320459
:1005D0004FF000054FF0000150E700BF90F0000F12
:1005E00004BF0021704730B54FF4806404F1320439
:1005F00010F0004548BF40424FF000013EE700BF09
:1006000042004FEAE2014FEA31014FEA02701FBF98
:1006100012F07F4393F07F4F81F06051704732F0CA
:100620007F4208BF704793F07F4F04BF41F4002121
:10063000704730B54FF4607401F0004521F000417F
:100640001CE700BF50EA010208BF704730B54FF009
:1006500000050AE050EA010208BF704730B511F00A
:10066000004502D5404261EB41014FF4806404F142
:1006700032045FEA915C3FF4D8AE4FF003025FEAC8
:10068000DC0C18BF03325FEADC0C18BF033202EB4C
:10069000DC02C2F1200300FA03FC20FA02F001FAA6
:1006A00003FE40EA0E0021FA02F11444BDE600BF49
:1006B00070B54FF0FF0C4CF4E06C1CEA11541DBFF8
:1006C0001CEA135594EA0C0F95EA0C0F00F0DEF8C3
:1006D0002C4481EA030621EA4C5123EA4C5350EAA8
:1006E000013518BF52EA033541F4801143F48013F9
:1006F00038D0A0FB02CE4FF00005E1FB02E506F08A
:100700000042E0FB03E54FF00006E1FB03569CF0DE
:10071000000F18BF4EF0010EA4F1FF04B6F5007FE4
:1007200064F5407404D25FEA4E0E6D4146EB060656
:1007300042EAC62141EA55514FEAC52040EA5E50DF
:100740004FEACE2EB4F1FD0C88BFBCF5E06F1ED889
:10075000BEF1004F08BF5FEA500E50F1000041EBC0
:10076000045170BD06F0004646EA010140EA02006D
:1007700081EA0301B4EB5C04C2BFD4EB0C0541EA8F
:10078000045170BD41F480114FF0000E013C00F3A4
:10079000AB8014F1360FDEBF002001F0004170BDC8
:1007A000C4F10004203C35DA0C341BDC04F11404E1
:1007B000C4F1200500FA05F320FA04F001FA05F26D
:1007C00040EA020001F0004221F0004110EBD3703A
:1007D00021FA04F642EB06015EEA430E08BF20EA66
:1007E000D37070BDC4F10C04C4F1200500FA04F309
:1007F00020FA05F001FA04F240EA020001F000419B
:1008000010EBD37041F100015EEA430E08BF20EA0D
:10081000D37070BDC4F1200500FA05F24EEA020E55
:1008200020FA04F301FA05F243EA020321FA04F084
:1008300001F0004121FA04F220EA020000EBD3703B
:100840005EEA430E08BF20EAD37070BD94F0000F3B
:100850000FD101F00046400041EB010111F4801F6F
:1008600008BF013CF7D041EA060195F0000F18BF20
:10087000704703F00046520043EB030313F4801F5C
:1008800008BF013DF7D043EA0603704794EA0C0F16
:100890000CEA135518BF95EA0C0F0CD050EA41062C
:1008A00018BF52EA4306D1D181EA030101F00041A9
:1008B0004FF0000070BD50EA410606BF10461946D1
:1008C00052EA430619D094EA0C0F02D150EA0136DD
:1008D00013D195EA0C0F05D152EA03361CBF10461E
:1008E00019460AD181EA030101F0004141F0FE41BD
:1008F00041F470014FF0000070BD41F0FE4141F441
:10090000780170BD70B54FF0FF0C4CF4E06C1CEA40
:1009100011541DBF1CEA135594EA0C0F95EA0C0FF5
:1009200000F0A7F8A4EB050481EA030E52EA0335B0
:100930004FEA013100F088804FEA03334FF08055D1
:1009400045EA131343EA12634FEA022245EA1115FE
:1009500045EA10654FEA00260EF000419D4208BFAF
:10096000964244F1FD0404F5407402D25B084FEA5C
:100970003202B61A65EB03055B084FEA32024FF408
:1009800080104FF4002CB6EB020E75EB030E22BF65
:10099000B61A754640EA0C005B084FEA3202B6EB25
:1009A000020E75EB030E22BFB61A754640EA5C00D4
:1009B0005B084FEA3202B6EB020E75EB030E22BF64
:1009C000B61A754640EA9C005B084FEA3202B6EB65
:1009D000020E75EB030E22BFB61A754640EADC0024
:1009E00055EA060E18D04FEA051545EA16754FEA86
:1009F00006164FEAC30343EA52734FEAC2025FEAA4
:100A00001C1CC0D111F4801F0BD141EA00014FF032
:100A100000004FF0004CB6E711F4801F04BF014303
:100A20000020B4F1FD0C88BFBCF5E06F3FF6AFAE1F
:100A3000B5EB030C04BFB6EB020C5FEA500C50F1AF
:100A4000000041EB045170BD0EF0004E4EEA113132
:100A500014EB5C04C2BFD4EB0C0541EA045170BD39
:100A600041F480114FF0000E013C90E645EA060E7D
:100A70008DE60CEA135594EA0C0F08BF95EA0C0FAB
:100A80003FF43BAF94EA0C0F0AD150EA01347FF4F3
:100A900034AF95EA0C0F7FF425AF104619462CE7CA
:100AA00095EA0C0F06D152EA03353FF4FDAE10462D
:100AB000194622E750EA410618BF52EA43067FF47E
:100AC000C5AE50EA41047FF40DAF52EA43057FF40E
:100AD000EBAE12E74FF0FF3C06E000BF4FF0010C19
:100AE00002E000BF4FF0010C4DF804CD4FEA410C7D
:100AF0007FEA6C5C4FEA430C18BF7FEA6C5C1BD04A
:100B000001B050EA410C0CBF52EA430C91EA030FCA
:100B100002BF90EA020F0020704710F1000F91EA27
:100B2000030F58BF994208BF90422CBFD8176FEAF5
:100B3000E37040F0010070474FEA410C7FEA6C5CC3
:100B400002D150EA013C07D14FEA430C7FEA6C5CCA
:100B5000D6D152EA033CD3D05DF8040B704700BFF6
:100B60008446104662468C461946634600E000BF44
:100B700001B5FFF7B7FF002848BF10F1000F01BD16
:100B80004DF808EDFFF7F4FF0CBF012000205DF8E1
:100B900008FB00BF4DF808EDFFF7EAFF34BF012066
:100BA00000205DF808FB00BF4DF808EDFFF7E0FFFF
:100BB00094BF012000205DF808FB00BF4DF808ED50
:100BC000FFF7CEFF94BF012000205DF808FB00BFB7
:100BD0004DF808EDFFF7C4FF34BF012000205DF899
:100BE00008FB00BF4FEA410C7FEA6C5C02D150EA7F
:100BF000013C0AD14FEA430C7FEA6C5C02D152EA15
:100C0000033C02D14FF0000070474FF001007047E5
:100C10004FEA4102B2F1E04324BFB3F5001CDCF11E
:100C2000FE5C0DD901F0004C4FEAC0024CEA507056
:100C3000B2F1004F40EB830008BF20F00100704785
:100C400011F0804F21D113F13872BCBF01F0004088
:100C5000704741F480114FEA5252C2F11802C2F1BA
:100C6000200C10FA0CF320FA02F018BF40F001003B
:100C70004FEAC1234FEAD32303FA0CFC40EA0C00ED
:100C800023FA02F34FEA4303CCE77FEA625307D12A
:100C900050EA01331EBF4FF0FE4040F44000704761
:100CA00001F0004040F0FE4040F40000704700BFFB
:100CB00080F0004002E000BF81F0004142001FBF11
:100CC0005FEA410392EA030F7FEA226C7FEA236C1A
:100CD0006AD04FEA1262D2EB1363C1BFD21841400F
:100CE00048404140B8BF5B42192B88BF704710F0A5
:100CF000004F40F4000020F07F4018BF404211F048
:100D0000004F41F4000121F07F4118BF494292EAAF
:100D1000030F3FD0A2F1010241FA03FC10EB0C00DB
:100D2000C3F1200301FA03F100F0004302D5494268
:100D300060EB4000B0F5000F13D3B0F1807F06D315
:100D400040084FEA310102F10102FE2A51D2B1F10D
:100D5000004F40EBC25008BF20F0010040EA030002
:100D60007047490040EB000010F4000FA2F10102AF
:100D7000EDD1B0FA80FCACF1080CB2EB0C0200FA39
:100D80000CF0AABF00EBC25052421843BCBFD04087
:100D90001843704792F0000F81F4000106BF80F401
:100DA00000000132013BB5E74FEA41037FEA226CC4
:100DB00018BF7FEA236C21D092EA030F04D092F08F
:100DC000000F08BF0846704790EA010F1CBF0020C3
:100DD000704712F07F4F04D1400028BF40F0004020
:100DE000704712F100723CBF00F50000704700F040
:100DF000004343F0FE4040F4000070477FEA226267
:100E000016BF08467FEA23630146420206BF5FEA37
:100E1000412390EA010F40F4800070474FF0000337
:100E200004E000BF10F0004348BF40425FEA000CFE
:100E300008BF704743F0964301464FF000001CE0A6
:100E400050EA010208BF70474FF000030AE000BFFC
:100E500050EA010208BF704711F0004302D540423A
:100E600061EB41015FEA010C02BF844601460020AC
:100E700043F0B64308BFA3F18053A3F50003BCFAC7
:100E80008CF2083AA3EBC25310DB01FA02FC634474
:100E900000FA02FCC2F12002BCF1004F20FA02F27B
:100EA00043EB020008BF20F00100704702F120026E
:100EB00001FA02FCC2F1200250EA4C0021FA02F2CF
:100EC00043EB020008BF20EADC7070474FF0FF0CD4
:100ED0001CEAD0521EBF1CEAD15392EA0C0F93EACF
:100EE0000C0F6FD01A4480EA010C400218BF5FEA71
:100EF00041211ED04FF0006343EA501043EA5111E4
:100F0000A0FB01310CF00040B1F5000F3EBF4900DD
:100F100041EAD3715B0040EA010062F17F02FD2AE1
:100F20001DD8B3F1004F40EBC25008BF20F00100C4
:100F3000704790F0000F0CF0004C08BF49024CEADB
:100F4000502040EA51207F3AC2BFD2F1FF0340EA6D
:100F5000C250704740F400004FF00003013A5DDCDE
:100F600012F1190FDCBF00F000407047C2F100021F
:100F7000410021FA02F1C2F1200200FA02FC5FEA0C
:100F8000310040F1000053EA4C0308BF20EADC7056
:100F9000704792F0000F00F0004C02BF400010F4C8
:100FA000000F013AF9D040EA0C0093F0000F01F075
:100FB000004C02BF490011F4000F013BF9D041EA97
:100FC0000C018FE70CEAD15392EA0C0F18BF93EA99
:100FD0000C0F0AD030F0004C18BF31F0004CD8D1C3
:100FE00080EA010000F00040704790F0000F17BF4A
:100FF00090F0004F084691F0000F91F0004F14D090
:1010000092EA0C0F01D142020FD193EA0C0F03D1E7
:101010004B0218BF084608D180EA010000F00040EA
:1010200040F0FE4040F40000704740F0FE4040F4C5
:10103000400070474FF0FF0C1CEAD0521EBF1CEA64
:10104000D15392EA0C0F93EA0C0F69D0A2EB030282
:1010500080EA010C49024FEA402037D04FF080531C
:1010600043EA111143EA10130CF000408B4238BFE1
:101070005B0042F17D024FF4000C8B4224BF5B1AEF
:1010800040EA0C00B3EB510F24BFA3EB510340EA3D
:101090005C00B3EB910F24BFA3EB910340EA9C00EB
:1010A000B3EBD10F24BFA3EBD10340EADC001B015B
:1010B00018BF5FEA1C1CE0D1FD2A3FF650AF8B42FF
:1010C00040EBC25008BF20F0010070470CF0004C0C
:1010D0004CEA50207F32C2BFD2F1FF0340EAC25037
:1010E000704740F400004FF00003013A37E792F0F8
:1010F000000F00F0004C02BF400010F4000F013A56
:10110000F9D040EA0C0093F0000F01F0004C02BF50
:10111000490011F4000F013BF9D041EA0C0195E7B9
:101120000CEAD15392EA0C0F08D142027FF47DAF52
:1011300093EA0C0F7FF470AF084676E793EA0C0F42
:1011400004D14B023FF44CAF08466EE730F0004C40
:1011500018BF31F0004CCAD130F000427FF45CAFD0
:1011600031F000437FF43CAF5FE700BF4FF0FF3C3E
:1011700006E000BF4FF0010C02E000BF4FF0010C91
:101180004DF804CD4FEA40024FEA41037FEA226C5A
:1011900018BF7FEA236C11D001B052EA530C18BF7C
:1011A00090EA010F58BFB2EB030088BFC81738BFE1
:1011B0006FEAE17018BF40F0010070477FEA226CCF
:1011C00002D15FEA402C05D17FEA236CE4D15FEACB
:1011D000412CE1D05DF8040B704700BF84460846FF
:1011E0006146FFE70FB5FFF7C9FF002848BF10F1C0
:1011F000000F0FBD4DF808EDFFF7F4FF0CBF012005
:1012000000205DF808FB00BF4DF808EDFFF7EAFF8E
:1012100034BF012000205DF808FB00BF4DF808ED49
:10122000FFF7E0FF94BF012000205DF808FB00BF3E
:101230004DF808EDFFF7D2FF94BF012000205DF8C4
:1012400008FB00BF4DF808EDFFF7C8FF34BF0120D1
:1012500000205DF808FB00BF4FEA4002B2F1FE4FEC
:101260000FD34FF09E03B3EB12620DD94FEA002368
:1012700043F0004310F0004F23FA02F018BF404241
:1012800070474FF00000704712F1610F01D1420228
:1012900005D110F0004008BF6FF0004070474FF0DC
:1012A0000000704742000ED2B2F1FE4F0BD34FF058
:1012B0009E03B3EB126209D44FEA002343F00043CC
:1012C00023FA02F070474FF00000704712F1610FEF
:1012D00001D1420202D14FF0FF3070474FF00000C1
:1012E000704700BF844641EA000313F003036DD149
:1012F000403A41D351F8043B40F8043B51F8043BD9
:1013000040F8043B51F8043B40F8043B51F8043BDF
:1013100040F8043B51F8043B40F8043B51F8043BCF
:1013200040F8043B51F8043B40F8043B51F8043BBF
:1013300040F8043B51F8043B40F8043B51F8043BAF
:1013400040F8043B51F8043B40F8043B51F8043B9F
:1013500040F8043B51F8043B40F8043B51F8043B8F
:1013600040F8043B51F8043B40F8043B51F8043B7F
:1013700040F8043B403ABDD2303211D351F8043B1F
:1013800040F8043B51F8043B40F8043B51F8043B5F
:1013900040F8043B51F8043B40F8043B103AEDD2CE
:1013A0000C3205D351F8043B40F8043B043AF9D21F
:1013B000043208D0D2071CBF11F8013B00F8013BF2
:1013C00001D30B8803806046704700BF082A13D3FF
:1013D0008B078DD010F003038AD0C3F10403D21A17
:1013E000DB071CBF11F8013B00F8013B80D331F84B
:1013F000023B20F8023B7BE7043AD9D3013A11F8CB
:10140000013B00F8013BF9D20B7803704B78437035
:101410008B788370604670477047000010B5464C6B
:10142000464803F007FE204620224FF4804107F093
:1014300017F920224FF400414FF0904007F010F9C7
:1014400020224FF480614FF0904007F009F92046C8
:1014500020224FF4007107F003F9204601224FF4D7
:10146000006107F0FDF8204601224FF4806107F08B
:10147000F7F820460122042107F0F2F82046012265
:10148000022107F0EDF8012280214FF0904007F093
:10149000E7F801221146204607F0E2F840224FF417
:1014A00080614FF0904007F0DBF840224FF400716C
:1014B0004FF0904007F0D4F840224FF480714FF085
:1014C000904007F0CDF82046402204F580644FF4A8
:1014D000004107F0C5F8204640224FF4005107F0C4
:1014E000BFF8204640224FF4804107F0B9F820466B
:1014F00040224FF4004107F0B3F8402204214FF09E
:10150000904007F0ADF8402208214FF0904007F0DE
:10151000A7F8402211464FF0904007F0A1F8084A82
:101520000023136053601381064A13605360936075
:10153000BDE8104000F038BB0004004826A20008B7
:10154000E8150020F215002076490A692DE9F04FD0
:101550004FF09040744C754E6FEA923202F00102E7
:10156000227002696FEAD23202F0010262700269EF
:101570006FEA922202F00102A2700A696FEA522217
:1015800002F0010285B0E2700025A046374616F849
:10159000013B14F8011B8B4202D0284600F020FAD0
:1015A0000135EDB2042DF2D1D8F800303B605D4D2D
:1015B0005F4F4FF00008B9464FF090442E4608F1B7
:1015C000FF3ABAF1040F04D8DFE80AF0070A0C0E5C
:1015D0005C004FF400632B8308E04FF48063FAE76C
:1015E0000423F8E70223F6E780232383022005F093
:1015F0007EFDD4F810E0D4F810B022694D492B6973
:10160000D1F810C0086901904FEA1B2B92090BF02A
:10161000020B02F00402CEF3802E1B0B4BEA0202F7
:1016200042EA0E0203F0080E4FEA5C2342EA0E0281
:1016300003F01003096902911343019A2169039190
:101640004FEA522E029A206921690EF0200E520AAA
:1016500002F0400243EA0E031343039A520102F0E0
:1016600080024001134300F48070C900184301F464
:1016700000710143BAF1040F06D8DFE80AF0090C43
:101680000E1050000123A6E74FF40063738308E0B7
:101690004FF48063FAE70423F8E70223F6E7802398
:1016A0006383B9F800308B4208D0234BA9F80010AF
:1016B00001221A7003F044FB204B188008F1010846
:1016C000B8F1060F09F102097FF479AF1A4C2378BB
:1016D000FBB11A4B188803F038FB062819D90021F2
:1016E000174D8C46002205F801CB3E46104636F8D1
:1016F000023B0B4103F00103834001301A430628EB
:10170000D2B2F4D101310A2905F8012CEAD1002323
:10171000237000F059FA012005B0BDE8F08F0123D5
:10172000B4E700BF00040048E0150020E4150020E5
:10173000F215002000080048DC150020DE1500200E
:10174000E8150020014B185C704700BFE815002029
:101750002DE9F0471148124EDFF85090114FDFF895
:10176000508003F067FC00242146484603F062FCE9
:1017700016F801AB00254AFA05F3DB074CBF4046DB
:101780003846013503F056FC062DF4D106480134E5
:1017900003F050FC0A2CE7D1BDE8F08733A2000823
:1017A000E81500204AA20008E0B6000842A200089E
:1017B00048A20008082823D8DFE800F02D05070A12
:1017C0000F14191E200001207047144B1878704721
:1017D000134B187800F001007047114B1878C0F3D4
:1017E000400070470E4B1878C0F3800070470C4BD8
:1017F0001878C0F3C00070470A4BEAE7094BEDE7E1
:101800000123093803FA00F0074B1B68184214BF84
:101810000120002070470020704700BFFE15002007
:1018200008160020FF150020041600202A490A7817
:10183000F8B5002A33D1294C2078FFF7BBFF0746C3
:101840006078FFF7B7FF0646A078FFF7B3FF0546BD
:10185000E078FFF7AFFF224B3B4403EB460303EB7B
:101860008503204D13F830402B782BB91E4E30786D
:10187000013000F00300307001330320B3FBF0F0BF
:1018800000EB40001B1A19482B700378013303F05A
:101890000F030370164B186804EB40041C60013200
:1018A00002F001020A7013490878FFF783FF02462D
:1018B0004878FFF77FFF04468878FFF77BFF8000BA
:1018C00000EB44000244C878D2B2FFF773FF02EB8A
:1018D000C000C0B2F8BD00BFFE150020040C0020FF
:1018E000080C002000160020FF150020081600201C
:1018F00004160020000C0020FFF78EBD00F084B815
:10190000A0F5B940703810B5052834D8DFE800F0EC
:10191000030B1633212A8C781CB1002000F010F93B
:101920000024204610BD8C78012054B102F082FEC4
:1019300004220221012000F029F9F1E78C7802202D
:10194000F3E702F081FE04220221012000F01EF9DB
:10195000E7E78C78E52014B101F049FFE0E702F0F9
:101960002AF8DEE78C7834B1044800F0E7F8044840
:1019700000F0E4F8D5E70124D3E700BFE0A40008B5
:10198000E3A4000808B5124B1B789BB1114B1B68F0
:101990005B0707D5104A137811B10133137008BDE6
:1019A000013BFBE70D4A138811B101331380F6E7C1
:1019B000013BFBE739B14E2001F019FF4E20BDE895
:1019C000084001F0F8BF4B2001F011FF4B20F6E773
:1019D0000C1600202C170020180C00201A0C0020D8
:1019E00010B1012806D07047042009B102F022BED0
:1019F00002F02ABE034B09B118707047197001F04C
:101A000069B900BF0C16002070B51E4B1B788AB058
:101A1000002B34D01C4D2B8843BB1C4B01AA03F177
:101A2000200618685968144603C40833B342224696
:101A3000F7D119889B78A3702180FFF7F7FE0AABD6
:101A40001844134B10F8244C1B78124E1C44307869
:101A5000E4B2A0420AD000F099FC01F087F92046D8
:101A600000F094FC0F2101F0F5F934700A4A2B883C
:101A700011880133B3FBF1F201FB12332B800AB062
:101A800070BD00BF0C1600200A160020E0A100085F
:101A9000180C0020091600201A0C002001207047A5
:101AA00008B5FFF72DFF08BD10B50C4B1C5C0C4BA7
:101AB000C35C6BB1E12001F09AFE204601F097FE75
:101AC000204601F078FFE120BDE8104001F073BF2F
:101AD000204601F08CFE2046F6E700BFE6A4000891
:101AE00066A5000870B504460E46207810B301289C
:101AF00004F1010507D16478204601F078FE204604
:101B000001F059FF04E002280CD1607801F06FFE6B
:101B10006C1C3546013DEDB2FF2DE6D0642005F08A
:101B2000E6FAF7E7032801D16078E9E7FFF7BCFFA1
:101B30002546EDE770BD0021FFF7D4BFFFF7FBBFDF
:101B400038B505460848012400EBC510AC4000221A
:101B5000102100F0CDFFE0B202F054FF2046BDE8B6
:101B6000384002F032BD00BF4C0C002010B50124FB
:101B700004FA02F204FA01F1114304FA03F331EA20
:101B800000020CBF1843984310BD000008B513466F
:101B90000A46014603480068FFF7E8FFBDE8084031
:101BA00002F034BD2C17002008B502F017FF08B969
:101BB00002F084FF01F01EF801F07AFC01F0BAFB9C
:101BC000BDE80840FFF798BE08B501F03DFA01F006
:101BD0008DFCBDE80840FFF791BE10F00F0306D062
:101BE00098B2092B92BF1D30063880B2704727206B
:101BF0007047704708B5FFF7FCFF08BD08B5FFF751
:101C0000F9FF08BD7047000010B502F089F901F036
:101C1000DFF903F095F8002204460321094800F09B
:101C200067FFFFF7EFFF204603F08FF8F92805D98B
:101C300001F050F8BDE8104003F08EB8642005F0C4
:101C400056FAF0E7CC0D002037B50388ADF8043024
:101C50009D4B1B780446D3B9837801989BB102F061
:101C60006BFD05460146019802F01EFD01992846CC
:101C700000F076F921460546FFF712FF60B900240F
:101C8000204603B030BD02F035FD0546EEE7019871
:101C900002F052FD0199EBE72146284600F090FB47
:101CA0000028ECD02146284601F030FA0028E6D082
:101CB0002146284601F0D8FB0028E0D045F616431F
:101CC0009D4200F0288130D845F601439D425BD00B
:101CD0000BD8B5F5B84F50D07C4B01221A705A7012
:101CE0002046FFF7DBFE0446CAE745F614439D4253
:101CF000F2D8A378002BF3D002F070FE08B902F0FE
:101D0000DDFE02F083FE724CA5F5B845033D208050
:101D1000112D46D8DFE805F04A4E52565A5E6266EB
:101D2000777B7F83878B8F93979F45F6D8439D4220
:101D300000F0AB8012D845F6D7439D42CCD1A478B1
:101D4000624B002C00F08F8000241C7002F0F8FF22
:101D5000604B1880022001F094FE91E745F6D943CC
:101D60009D4200F0C18045F6DE439D42B4D1A37888
:101D7000002B84D002F0A2FE81E7A378002B3FF471
:101D80007EAFFFF741FF7AE7A378002B3FF477AFF0
:101D9000514A5248137843F00103137003F04AF993
:101DA0006DE7237843F00103237026E0237843F0A6
:101DB0000203F9E7237843F00403F5E7237843F0BF
:101DC0000803F1E7237843F01003EDE7237843F0AD
:101DD0002003E9E7237843F04003E5E7237843F065
:101DE0008003E1E723783E4823F00C0343F00C0323
:101DF00023700022042100F07BFE207802F009FE0F
:101E000002F08EF83BE723786FF30003CCE72378EA
:101E10006FF34103C8E723786FF38203C4E72378A5
:101E20006FF3C303C0E723786FF30413BCE7237891
:101E30006FF34513B8E723786FF38613B4E723787D
:101E40006FF3C713B0E72378264823F00C03237001
:101E500000220221CFE72378C3F3C01282F00102EF
:101E600062F3C713A0E71B785BB91A4B188802F01E
:101E70006CFFC72805D8262001F0B9FC262001F008
:101E80009AFD022001F006FEFAE6A37843B10F4B5B
:101E900000245C7002F054FF0E4B588020205AE75B
:101EA0000A4B5B785BB90B4B588802F04EFFC72892
:101EB00005D8272001F09BFC272001F07CFD202085
:101EC00001F0E8FDDBE600BFD71600201216002067
:101ED000941F00200E1600207D170020E6A50008A4
:101EE0002C0C00201C0C0020A378002BCFD1174B0A
:101EF0005C78002CE3D1164B588802F026FFC728E7
:101F0000DDD8202001F0C6FD282001F070FC28203B
:101F100001F051FDB4E602F091FCA2780D4B6AB1DC
:101F200000F0AA00002815BF012200223520292038
:101F30001A7002F053FC02F0F3FCA0E61B78002BB1
:101F400014BF3520292002F051FCF4E712160020BE
:101F50000E1600200D16002000207047704700006C
:101F60003C225043C1F30723062202FB030353FA2A
:101F700081F3034A32F8130082B002B0704700BF09
:101F800088A20008014B33F810007047F8A500083C
:101F900013B5ADF804100199FFF7E2FF00F058F90E
:101FA000B0F5A04F04462ED2B0F5804F80F0D4801B
:101FB000E72815D8E0280AD2A7280BD8A5286FD281
:101FC000012804D003B24BB1032898BF0024204657
:101FD00002B010BDBE286ED9C0285BD20024F6E73F
:101FE000B0F5005F08D2B0F5807F03D2F028F5D3BA
:101FF00040F4A044A4B2EAE7B0F5405F80F0A480CA
:10200000C0F30B0048E0B0F5AA4F1CD2B0F5A84FC2
:10201000C3B280F0C080B0F5A44F08D2B0F5A24F93
:10202000C0F09F804AF2F10040EA0324CFE7B0F508
:10203000A64F80F0A6809808012403F003039C407B
:1020400044EA40149AE0B0F5B24F0FD2B0F5B04F69
:1020500080F0A680B0F5AC4FC0D2C0B200F066F9F7
:10206000040204F4F85444F40054B0E7B0F5B44F5B
:10207000C0F09B80A0F5C0439BB2B3F5005FADD22A
:10208000C0F3042000F052F9000200F4F850E4B26A
:102090000443E8E7C03880B2FFF774FF044696E7D0
:1020A00000F0908044F2830244F28203A62814BF19
:1020B00014461C468BE7A82800F08780A92800F06A
:1020C0008780AA2800F08780AB2800F08780AC28A2
:1020D00000F08780BB2800F08780BC2800F0878054
:1020E000AD2800F08780B02800F08780AE2800F08F
:1020F0008780AF2800F08780B12800F08780B22861
:1021000000F08780B32800F08780B42800F0878033
:10211000B52800F08780B62800F08780B72800F047
:102120008780B82800F08780B92800F08780BD2814
:1021300000F08780BE2800F08780BA2844F22A6425
:1021400018BF4FF4884442E7C3B202054CBF43F4C2
:10215000484443F440443AE7C0F30B0444F42044B9
:1021600035E7C3F38104C0F30110640144EA00249D
:1021700003F00303012000FA03F31C4344F40C446E
:1021800038E79808012403F003039C4044EA401414
:1021900044F40A442EE74AF2F40444EA032416E71E
:1021A0004AF2F00040EA042424E700F00F0000F0B7
:1021B000BDF800F00F00C4F3031440F0E00040EA63
:1021C0000424CBE744F2810401E744F2E244FEE652
:1021D00044F2E944FBE644F2EA44F8E644F2B5444A
:1021E000F5E644F2B644F2E644F2B344EFE644F2D4
:1021F000B444ECE644F2B744E9E644F2CC44E6E603
:1022000044F2CD44E3E644F28354E0E644F28A54D7
:10221000DDE644F29254DAE644F29454D7E644F20E
:102220002164D4E644F22364D1E644F22464CEE689
:1022300044F22564CBE644F22664C8E644F22764FF
:10224000C5E644F26F44C2E644F27044BFE60000C3
:1022500082281AD00CD8312856D004D829284CD03E
:102260002A2858D07047352840D039280DD07047DB
:10227000E32822D004D8E0280ED0E22813D07047FB
:10228000E62823D0E7282BD07047274B1B7813F084
:10229000030F18BFE0207047234B1B7813F0010F8A
:1022A00018BF39207047204B1B7859071DD513F0F4
:1022B000100F14BF0020E32070471B4B1B785A07F8
:1022C00030D413F0100F18BF00207047164B1B7846
:1022D00019070AD513F0100F14BF0020E72070472C
:1022E000114B1B781A07ECD5E62070470E4B1B7874
:1022F00013F0200F18BF292070470B4B1B7813F0E9
:10230000200F18BF35207047074B1B7813F0400F84
:1023100018BF2A207047044B1B7813F0400F18BFDA
:1023200031207047E2207047941F0020164B1B7825
:10233000590707D500F01802082A12D100F0F7005B
:1023400040F004001A0707D500F01802182A11D12E
:1023500000F0E70040F01400DB0648BF00F0E700A3
:10236000704700F01402042A04BF00F0FB0040F0A4
:102370000800E7E700F01402142A04BF00F0EB00A5
:1023800040F01800E8E700BF941F002008B545386A
:10239000FEF724F90022084BFEF7B4FA02460B467A
:1023A00000204FF0804106F0A1FD0022034BFEF714
:1023B0007FF9FEF72DFC08BD0000284000807B401F
:1023C00008B545F61D43984205D18B7873B300F0EC
:1023D000BFFD002008BD45F61E43984204D18B780E
:1023E00023B300F0C3FDF4E745F61F43984206D13E
:1023F0008B78DBB100F0A4FD0028F2D1E7E745F6C9
:102400002A43984209D18B7883B100F0BFFD0022A6
:102410000421074800F06CFBDBE745F62B439842AC
:1024200004D18B7813B100F0B7FDF0E70120D1E7BC
:10243000E40D002008B5FFF7A9FF0F21BDE8084013
:1024400000F008BD08B5FFF7A1FFBDE8084000F0A7
:102450008DBC00F03FBC7047084B18680130186015
:10246000074B8B420BBF074B074919680B680BBF23
:1024700089189B1819600B60704700BF6416002014
:1024800004A600085C160020601600202DE9F04F1D
:10249000B74B87B01A780393002A00F00B81B54B35
:1024A0001C68002C9A4640F30581012CDFF810B31C
:1024B000B14D4FF0000800F09A804146DBF8000073
:1024C000FEF798FE002800F01582AC4B023C1B780A
:1024D00055F82460AA4C002B00F00A822768414678
:1024E0003846FEF787FE002840F0BA81314638466C
:1024F000FEF78AFE002800F0B3813146A148FEF7BE
:1025000099FDA149FEF796FD4FF07C51FEF7DEFCE8
:10251000FEF776F802460B4600204FF0804106F0A9
:10252000E5FC02460B463846CDE90423FEF768F881
:10253000CDE900013046FEF763F8DDE90423FEF73C
:10254000B7F802460B46DDE90001FEF723FB002841
:1025500000F08681D4F800908C484946FEF76AFD69
:102560008949FEF767FD4FF07C51FEF7AFFCFEF79F
:1025700047F802460B4600204FF0804106F0B6FCBB
:1025800006460F464846FEF73BF832463B46FEF706
:102590008FF8FEF73DFB206020687D490B884FF6E1
:1025A000FF7293421CBF01330B8000F0FBFC7949A2
:1025B0000646FEF729FE00B1774E784C3046FEF70E
:1025C00071FE236880B2834206D075493046FEF71B
:1025D0007DFCFEF767FE2060724805F020F9214679
:1025E000704805F0FCF802216E4805F00AF9DBF8A6
:1025F0000060DAF8007000213046FEF723FE002864
:1026000000F07A81012FDFF8BC9125DDDFF8B8A159
:10261000D9F80030DAF800B093FBF7F407FB143474
:102620004FF07E51C9F800405846FEF747FB31464F
:10263000CAF8000055F82400FEF7FCFC0146584695
:10264000FEF700FE40B1013494FBF7F307FB13449F
:10265000C9F80040CAF80080D9F8003055F82300C6
:102660004B490B884FF6FF7293421CBF01330B801E
:1026700000F098FC47490546FEF7C6FD00B1464DFF
:10268000494C2846FEF70EFE236880B2834206D0EE
:1026900043492846FEF71AFCFEF704FE2060434833
:1026A00005F0BDF82146414805F099F802213F4860
:1026B00005F0A7F83E4F3B78002B00F0C6803D4E5A
:1026C000394C356800212846FEF7BCFD002833D080
:1026D0002F4A13884FF6FF718B4218BF01332846EB
:1026E00018BF138000F05EFC0546FEF7DBFD236893
:1026F00080B2834220D02A492846FEF7E7FBFEF746
:10270000D1FD804620602948244D05F088F82649EF
:10271000264805F064F80221244805F072F82148A3
:10272000C5F8008005F07BF829461E4805F057F8EB
:1027300002211C4805F065F8DFF890801E4DB8F8BE
:102740000000013080B2A8F80000FEF76BFB4FF0EC
:10275000824181462868FEF7B9FB23680146002BB9
:1027600000F07481154B1B78002B40F06F812FE037
:102770006C160020781600201C160020040E002085
:10278000401600200000DCC3000040410000DC4394
:10279000181600200024F441F628F441180E0020F9
:1027A0000000344400240020080E0020F023002004
:1027B0006D16002044160020481600204E160020FA
:1027C0007016002074160020681600204C16002099
:1027D0004FF07E51FEF770FA4946FEF71FFD0030BC
:1027E00018BF0120002830D0AE4BAF491A880988A5
:1027F000013292B291421A8006D8AC4A1478002C69
:1028000000F0288100221A80A94A1C88D2F8009082
:10281000A84A1178002940F0298101211170621E17
:1028200092B21A8059F8324009EBC20320469968E7
:10283000FEF7E0FC4FF07E53002800F015810022E7
:1028400032602B600023A8F800309B4B1B78C3F349
:10285000000313F0FF0F02BF039A3B70137000E1F7
:10286000276800213846FEF7C5FC002839D1DAF880
:102870000030023B384655F823603146FEF7E2FC53
:1028800078B331468D48FEF7D5FB8D49FEF7D2FB74
:102890004FF07C51FEF71AFBFDF7B2FE02460B46E5
:1028A00000204FF0804106F021FB02460B463846DF
:1028B000CDE90423FDF7A4FECDE900013046FDF784
:1028C0009FFEDDE90423FDF7F3FE02460B46DDE93A
:1028D0000001FEF77DF920B1D4F80090794849460F
:1028E0003CE6DAF80030023B55F82330236053E62B
:1028F000266051E6404650E67B1E734C55F823B0E7
:10290000724B1B78002B00F09E8026680021304619
:10291000FEF770FC002851D159463046FEF774FC92
:1029200000284BD059466748FEF784FB6449FEF700
:1029300081FB4FF07C51FEF7C9FAFDF761FE0246BC
:102940000B4600204FF0804106F0D0FA804630461A
:102950008946FDF755FE064658460F46FDF750FEE0
:1029600042464B46FDF7A4FE02460B46304639462A
:10297000FEF710F910B3256850482946FEF75AFBB8
:102980004F49FEF757FB4FF07C51FEF79FFAFDF7DA
:1029900037FE02460B4600204FF0804106F0A6FAB3
:1029A00006460F462846FDF72BFE32463B46FDF70E
:1029B0007FFEFEF72DF92060206851E62668002191
:1029C0003046FEF717FC002836D1DAF80030013B1C
:1029D000304655F823B05946FEF734FC60B35946EB
:1029E0003648FEF727FB3649FEF724FB4FF07C51B3
:1029F000FEF76CFAFDF704FE02460B4600204FF08E
:102A0000804106F073FA804630468946FDF7F8FDAE
:102A1000064658460F46FDF7F3FD42464B46FDF786
:102A200047FE02460B4630463946FEF7D1F818B14C
:102A3000256824482946A1E7DAF80030013B55F81B
:102A400023302360B8E7C4F800B0B5E74846FEF786
:102A5000EFFBC4E61E4804F0E2FE1E4804F0DFFE71
:102A60003C7007B0BDE8F08F3460EAE600231370D5
:102A7000194A138059F834303360184B1878FEF730
:102A8000CDF91749FEF7D6FA09EBC40406464FF014
:102A90007A516068FEF71AFA01463046FEF716FAD8
:102AA0002860CFE616160020501600205816002089
:102AB000541600204E160020141600200000DC439F
:102AC000000040410000DCC33C160020040E002042
:102AD000F02300200024002018160020380E0020CB
:102AE0000000C842014804F0EFB800BF64B100081C
:102AF0002C4B1B7870B504460E4615460BB900F0FA
:102B000079F8294B1B78DB074BD5284B1B780BB189
:102B100000F0E0F8264B01221A70264B1C60264B71
:102B20001E80264B1D70264B00221A60254B226802
:102B300000251D80244B1A60244B1878FEF76EF98F
:102B40002349FEF777FA4FF07A5106466068FEF7A0
:102B5000BDF901463046FEF7B9F91E4B1E49186013
:102B60001E4B1F481D8004F03AFE02211C4804F051
:102B700048FE1C4804F053FE1B491A4804F02FFE7F
:102B80000221184804F03DFE184804F048FE184998
:102B9000164804F024FE02211448BDE8704004F0F9
:102BA00030BE70BD15160020141600206C160020D3
:102BB0006D160020541600205016002058160020D4
:102BC000681600201616002044160020380E00203B
:102BD0000000C84248160020280E00204C16002095
:102BE00010240020F0230020080E002000240020E4
:102BF000180E002038B5284C2278002A4AD101F05E
:102C0000EDFE08B901F05AFF01F007FF234D032242
:102C1000287010214FF0904005F022FD0322202162
:102C20004FF0904005F01CFD1D491E4804F0B3FD17
:102C30001D491E4804F0AFFD1D491E4804F0CFFD9C
:102C400002211C4804F0DDFD1B491C4804F0C7FDAF
:102C500002211A4804F0D5FD4FF43473184A19497B
:102C6000104804F0A6FD4FF43473174A17490F4873
:102C700004F09FFD012323702B78DB0706D500228B
:102C800004211348BDE83840FFF732BFBDE83840A3
:102C900000F020B838BD00BF151600201416002023
:102CA000F8A5000830230020FEA500085C230020C2
:102CB000080E0020F0230020180E00200024002021
:102CC00004A6000844B10008A4AB000854B10008F1
:102CD000400E0020174B1B78DB0710B502D51648B5
:102CE00002F0A8F9154B1B780BB9FFF783FF144BC3
:102CF000144800241C6004F092FD134804F08FFD7A
:102D0000124804F08CFD124B12481C70124B1349F0
:102D10001C70134B00221A60124B1A60124B1C607D
:102D20000823013B13F0FF0340F8042B41F8044B48
:102D3000F7D110BD7D1700208FB1000815160020B7
:102D400078160020F023002000240020102400200A
:102D50006D1600201C1600206C1600208016002026
:102D60003C160020401600207C160020F8B52B4BA6
:102D70001B78DB07074605D5FEF76EFA01462848A3
:102D800002F058F9274E3378002B38D0264B1B78A9
:102D90000BB9FFF72FFF254D0724394655F82400BE
:102DA000FEF728FA002835D0214A0021A70000208C
:102DB00045F8241042F82400EB193A44072C1FD19F
:102DC0001C4B1A68013A48BF00221A601C681A4B53
:102DD0001A68A242A4BF00221A6084B9174804F0FE
:102DE0001EFD174804F01BFD164804F018FD164A96
:102DF000347000231360154A1360154B1C60F8BD36
:102E00005D681D6055681560013443F8041F42F881
:102E1000040FD3E714F1FF34BFD2D1E77D170020B0
:102E2000A4B100086C160020151600201C16002006
:102E3000801600207816002074160020F023002051
:102E400000240020102400203C1600204016002002
:102E50007C1600202A4B1B78DA0770B506460D4613
:102E600006D5FEF7F9F92A460146264802F0E2F8AF
:102E7000254B1B780BB9FFF7BDFE244B1B78DB07F6
:102E80003CD5234C2368072B38DC224B1B780BB135
:102E9000FFF720FF204B01221A70204B00221A80DE
:102EA00000213046FEF7CEF940B123681C4A42F8B3
:102EB00023601C4A42F82350013323601A491B48FF
:102EC00004F08DFC0221194804F09BFC184804F022
:102ED000A6FC1849164804F082FC0221144804F0AC
:102EE00090FC154804F09BFC1449134804F077FC4F
:102EF00002211148BDE8704004F083BC70BD00BFE2
:102F00007D17002070B1000815160020141600204F
:102F1000781600206D1600206C1600201816002070
:102F20001C16002080160020280E002010240020EF
:102F3000F0230020080E002000240020180E00209E
:102F4000024B187800F00100704700BF14160020F3
:102F500008B5054B187840F00100187001F060FDCD
:102F6000BDE80840FFF777BA1416002008B5FFF750
:102F7000B1FE054B18786FF300001870C0B2BDE8C1
:102F8000084001F04DBD00BF14160020014B002287
:102F90001A707047A0160020014B00221A7070476B
:102FA000A0160020064B1B7843B9064A1370064B47
:102FB0004FF07C521A60054B00221A60704700BF28
:102FC000A0160020040E00203C0E002070160020E9
:102FD000024B1B780BB1FFF73CBA7047A2160020DA
:102FE00008B5FFF7F5FF044B044800221A700821CA
:102FF000BDE80840FFF77CBDA2160020840F00202A
:10300000034B0448002208211A70FFF771BD00BF6E
:10301000A1160020600E002010B5FFF7D9FF084A66
:1030200008481378013303F003031370282404FBCA
:10303000030000220521BDE81040FFF759BD00BF85
:10304000E00E0020E40E0020F8B5174B1B788BB182
:10305000164C208840B901F073FE2080144C154DA9
:10306000227842B1531E08E001F06FFE124B1B881C
:103070008342F0D3F8BD2B78013B104E317849B133
:103080000F49C85C8F5CFFF7DDF9337813B1384620
:10309000FFF7D0F9237829780133B3FBF1F201FB74
:1030A00012332370E6E700BFB4160020B8160020E4
:1030B000B5160020B316002008100020A21600202C
:1030C000A31600207047000008B5054B05480122F3
:1030D0001A7008210022FFF70BFDFFF7F3FF08BD70
:1030E000A2160020C80F00207047000008B5054B4D
:1030F000054801221A7008210022FFF7F9FCFFF7AA
:10310000F3FF08BDA1160020A00E00202DE9F0411C
:1031100045F6264398428AB0044606D18B78002BA8
:103120003ED0FFF7D1FF002053E045F627439842F9
:1031300005D18B78002B33D0FFF752FFF3E745F62C
:103140002843984206D1634B8A781B7842B3002B00
:10315000F2D1E6E745F62C43984204D18B78FBB1D7
:10316000FFF7C4FFDFE745F62D43984204D18B7883
:10317000B3B1FFF745FFD6E745F62E43984206D197
:103180008B786BB1544B1B78002BF2D1E8E745F6F6
:103190002943984204D18B7813B1FFF73DFFC2E772
:1031A0004C4B1A7822B94C4B1B78002B00F09080C6
:1031B0008E78002E3DD0E02C0ED1FFF709FF474B53
:1031C00001221A70464B00201870464B1870464B6F
:1031D00018700AB0BDE8F081E22C0BD1FFF7F8FEC1
:1031E0003E4B1A7812B13E4A01211170002018702E
:1031F0003C4BEDE7E32C0FD1394B1B78CBB1FFF7FC
:10320000E7FE364B00201870364B01221A70374B00
:103210001870374B1880DCE7522C04D1354A1388DC
:103220000A3B13807FE7512C03D1324A13880A33BB
:10323000F7E74B7830480978062505FB030313F8B8
:1032400001C02E4B1D782E4B1B6824351D442D4B81
:103250001B78EDB29BB96544EDB29EB312B128461E
:10326000FFF7E8F81D4B1B782BB11F4A264913784E
:10327000CD5401331370B4FA84F04009A9E7234B0D
:1032800001AF03F1200818685968BE46AEE8030094
:10329000083343457746F6D11988AEF800109B787D
:1032A0008EF802300C21BCFBF1F303EB430001FB71
:1032B00013C30AA951FA83F305EB800513F8243CE4
:1032C0001D44C9E7002AD6D02846FFF7BBF8D2E74D
:1032D00001207EE7A2160020A1160020B7160020CC
:1032E000B6160020B4160020B3160020B516002034
:1032F000B8160020081000204CA200080A10002078
:10330000C40F0020E00E0020A316002003A2000836
:10331000B0F5004F10B5044609D98B783BB100F0E9
:103320003FF8C4F30E0000F08FF800F073F80120AE
:1033300010BD000008B50C2001F0F2FE064B18602D
:10334000064B1B78DB07014604D50548BDE808405D
:1033500001F070BE08BD00BFBC1600207D17002024
:10336000DBB10008024B0C20197801F0E1BE00BF70
:10337000BC16002010B5074C2070FFF7F3FF064B7A
:103380001B78DB0705D521780448BDE8104001F023
:1033900051BE10BDBC1600207D170020BCB1000836
:1033A00008B501F04BFA194B187001F063FA184B8D
:1033B0001B78042B07D8DFE803F0030C1C0623005E
:1033C000E22000F014FA4FF47A70BDE8084003F0F0
:1033D0008EBEE02000F00BFAE12000F008FA182081
:1033E00000F046FBE12000F0E6FAE02000F0E3FA0E
:1033F000E9E7E22000F0FBF9572000F039FBE2E7B3
:10340000E62000F035FB1820F7E700BFBA160020D1
:10341000BC16002008B50A4B1B78012B0BD00BB152
:10342000022B02D1E22000F0C6FA064B1878BDE864
:10343000084001F019BA2C2000F01AFBF5E700BF94
:10344000BC160020BA16002038B505460C2445FAF3
:1034500004F000F00F00FEF7C0FB043CC0B200F027
:1034600007FB231DF3D138BD38B58B7804460D46D4
:1034700063B1A0F5B943613B042B07D8DFE803F043
:10348000030C0E1012000020FFF774FF294620469F
:10349000BDE83840FFF73CBF0120F5E70220F3E725
:1034A0000320F1E70420EFE708B5FEF76BFA08BD4B
:1034B00010B50C4C20224FF48051204605F0D0F876
:1034C00020224FF40051204605F0CAF822692369F2
:1034D0001B0BC2F3003203F002031343024A1370C2
:1034E00010BD00BF00040048C0160020184B1A6928
:1034F0001B6910B51B0BC2F3003203F00203134328
:10350000144A154C117843EA8103DBB21370134A55
:1035100003F00F03D35C227813445BB2032B2370B8
:1035200003DD00210846FFF7BFFF94F900300333A5
:1035300003DA01210020FFF7B7FF94F900305A4267
:1035400002F0030203F0030358BF5342237010BD7F
:1035500000040048C0160020C1160020FBB100087E
:10356000014B1860704700BFC4160020024B18685A
:1035700008B1036818477047C4160020F8B5194B06
:103580001B680546002B2BD0174A127842B1174A08
:1035900092F90020002ABFBF027842700522027013
:1035A000134C5B68284698472378580718D5D907E5
:1035B00002D5104801F03EFD0F4F00262378DA07B0
:1035C00003D5A95D384601F035FD0136082EF5D149
:1035D0002378DB0704D50948BDE8F84001F02ABD8F
:1035E000F8BD00BFC41600206C110020941F0020FD
:1035F0007D1700200BB200081DB20008E0B60008DD
:10360000034B1B681BB1022101709B681847704770
:10361000C4160020054B1988814205D01880044B40
:103620001B680BB1DB681847704700BFCA16002043
:10363000C4160020054B1988814205D01880044B20
:103640001B680BB11B691847704700BFC8160020E4
:10365000C41600207047704708B5FFF7FCFF08BD8F
:10366000704708B5FFF7FCFF08BD08B5FFF7F2FF8C
:10367000FFF7F2FF08BD0120704708B501F02CFBF1
:10368000FDF7CCFE01F074FEFFF7EBFF08BD000074
:1036900038B50E4C23780546580711D5D9070FD5F4
:1036A0000B4801F0C7FC2378DA0709D529460948F9
:1036B00001F0C0FC2378DB0702D5074801F0BAFC13
:1036C0002846BDE83840FEF799BA00BF7D170020B4
:1036D00023B2000836B20008E0B600082DE9FF4723
:1036E000FDF732FFFFF7C7FF00284ED0DFF8CC9080
:1036F000DFF8CC8000244E46E7B23846FEF722F8C9
:1037000019F8015B854282463CD098F80030980752
:1037100001D5FEF71DF885EA0A050023EDB245FA4A
:1037200003F1C907DAB22AD501259D401AEA050F2F
:1037300014BF012300238DF800208DF802308DF88E
:10374000017001F0FDFA40F001006B46ADF8040095
:1037500093E8030000F036F8335D6B403355164CA8
:1037600002F0E8F8FFF702FF2378834220D0FFF74A
:10377000FDFE207004B0BDE8F047FFF789BF0133BC
:10378000062BCCD101340A2CB6D14FF6FF73ADF81D
:10379000083000238DF80A3001F0D2FA40F0010021
:1037A000ADF80C0004AB13E9030000F00BF8D6E70A
:1037B00004B0BDE8F08700BFCC160020CD16002075
:1037C0007D17002084B06B4683E803000022ADF82B
:1037D0000E2093E8030004AB0290ADF80C1013E93F
:1037E000030004B000F01ABE008800F0C7BF10B597
:1037F0000446002800F0DE80822814D1FFF7B6FED0
:10380000810700F1D780392000F0E8FF01F088F847
:1038100042F2107003F06BFC392000F0E7FFBDE8C6
:10382000104001F07DB883280FD1FFF79FFEC2073B
:1038300000F1C080532000F0D1FF01F071F842F296
:10384000107003F054FC5320E7E784280FD1FFF7F2
:103850008DFE430700F1AE80472000F0BFFF01F06E
:103860005FF842F2107003F042FC4720D5E7031FD7
:10387000DBB2A02B08D802F0E9FB002840F09A80C8
:10388000204600F0ABFFCAE700F12003DBB2072BB4
:1038900007D800F007040120A040C0B200F0D4FF18
:1038A000BDE700F15B03DBB2022B0BD8A52807D0E4
:1038B000A6280CBF82208320BDE81040FFF7AABED7
:1038C0008120F9E700F15803DBB2162B6AD8A8284B
:1038D00032D0A92832D0AA2832D0AB2832D0AC2896
:1038E00032D0BB2832D0BC2832D0AD2832D0B0285C
:1038F00032D0AE2832D0AF2832D0B12833D0B2285F
:1039000034D0B32835D0B42836D0B52837D0B6282F
:1039100038D0B72839D0B8283AD0B9283BD0BD28FC
:103920003CD0BE283CD0BA2840F22A2018BF002044
:10393000BDE81040FFF77EBEE220F9E7E920F7E797
:10394000EA20F5E7B520F3E7B620F1E7B320EFE78B
:10395000B420EDE7B720EBE7CC20E9E7CD20E7E79F
:1039600040F28310E4E74FF4C570E1E74FF4C9700B
:10397000DEE74FF4CA70DBE740F22120D8E740F2DF
:103980002320D5E74FF40970D2E740F22520CFE796
:1039900040F22620CCE740F22720C9E76F20C7E796
:1039A0007020C5E7EF2805D901F068FEBDE810409A
:1039B00001F05CBF10BD08B5002858D082280FD197
:1039C000FFF7D4FD810752D5392000F007FF00F042
:1039D000A7FF392000F00AFFBDE8084000F0A0BFB3
:1039E00083280AD1FFF7C2FDC20740D5532000F05B
:1039F000F5FE00F095FF5320ECE784280AD1FFF78D
:103A0000B5FD430733D5472000F0E8FE00F088FFFE
:103A10004720DFE7021FD2B2A02ADBD900F1200243
:103A2000D2B2072A07D800F0070301209840C0B29D
:103A300000F012FFD0E700F15B02D2B2022A04D8F4
:103A40000020BDE80840FFF7E5BD00F15802D2B202
:103A5000162A04D80020BDE80840FFF7EBBDEF2888
:103A600005D901F07FFEBDE8084001F0FFBE08BDAA
:103A700010B50446FFF7BBFE2046BDE81040FFF737
:103A80009ABF08B528B100F0DFFEBDE8084000F09D
:103A900047BF08BD08B528B100F0DEFEBDE808400C
:103AA00000F03EBF08BD00002DE9F84390F80690F5
:103AB000857807460C464FEA19190DB100F0F0FE63
:103AC00000F0B2FE804670B11DB304F12003DBB2FA
:103AD000072B1ED9022000F069FF00F0A5FE80F040
:103AE00001005FFA80F8C4F303330F2B45D8DFE8F9
:103AF00013F0130013006D006D00B700CC004400FC
:103B00004400000144005A015A01C7014400440026
:103B1000D0014FF00008E6E7C4F30723C4F30326FF
:103B200013F0F00F18BF36015FFA84F9A5B166B142
:103B300009F12003DBB2072B304602D9B9F1000F9F
:103B400007D100F081FE00F0EBFE4846FFF74FFE84
:103B500013E000F095FEF6E74846FFF72CFF66B14C
:103B600009F12003DBB2072B304602D9B9F1000F6F
:103B700029D100F071FE00F0D3FEC4F303340B2C06
:103B800009D8012303FA04F414F4506F03D0FFF7AB
:103B9000EDFCFEF733F8B8F1000F00F0818100F082
:103BA0003BFE10F0010040F07B81B87000F02CFE6D
:103BB00000F040FD384600F077F900F025FEBDE842
:103BC000F84300F041BD00F063FED4E7C4F30723DF
:103BD00003F0F003C4F30326202BE0B218BF360134
:103BE00060B101282CD0ADB3B9F1000F2CD0BB7956
:103BF000D907ABD56FF30713BB7125E09DB1B9F1C0
:103C0000000F06D100F068FE3043C0B2FFF739FF65
:103C1000B3E7B9F1010FF5D100F05EFE3043C0B259
:103C200000F066FEA9E7B9F1000F05D100F06CFEC7
:103C30003046FFF72FFFA0E7B9F1010F9DD0F5E760
:103C400025B1B9F1050F98D83046DFE7B9F1040F77
:103C500093D8EDE7B9F1000FEAD0FFF7ACFE8CE79F
:103C6000C4F381233BB1012B87D165B1C4F30900B3
:103C7000FFF7E0FC81E725B1C4F30900FFF7CAFCB8
:103C80007BE72846FAE72846F2E7E0B2CDB1F5280F
:103C90000DD0F62810D0F42804D1824A136843F0DE
:103CA0000103136001F0EAFC01F0E0FD65E77D4AE5
:103CB000136843F00203F4E77A4A136843F00403FD
:103CC000EFE7F5280BD0F6280ED0F42804D1754A7A
:103CD000136823F00103136001F044FDE4E7714A27
:103CE000136823F00203F6E76E4A136823F0040317
:103CF000F1E714F4407F27D1002D7FF43EAFC4F3E9
:103D00004210E2064FEA800304F00F0000FA03F6C7
:103D100044BF0F209840C4F381234CBFC0432846C2
:103D2000022B07D00AD8012B40EA060009D000F088
:103D300057FC22E7304300F05BFC1EE700F050FC2C
:103D4000304600F045FC18E7C4F30122D3B2F5B1C8
:103D500002F00103002B3FF410AFC4F342108300C4
:103D600004F00F0000FA03F514F010001CBF0F2040
:103D70009840C4F3812318BFC043022B09D00CD84C
:103D8000012B40EA05000BD000F07CFCF5E65B0857
:103D9000E0E7284300F07EFCEFE600F073FC2846E5
:103DA00000F068FCE9E6E6B2A6F1E003142B50D877
:103DB000DFE803F00B0B0B0B0B0B0B0B0B0B0B0BC5
:103DC0000B0B0B0B16232930390006F00F06C4F33A
:103DD000042015B100F02EFC36E700F035FC27E793
:103DE00045B1B9F1040F3FF6C8AEC4F3042000F0AA
:103DF00037FCC2E6B9F1050FF5E7C4F3042035B18D
:103E000000F018FCB9E6C4F30420002DF8D000F04F
:103E10001BFCB2E625B1C4F3042000F006FCACE6BE
:103E200000F000FCA9E64DB1C4F30425284600F0DB
:103E300001FC0321284600F09FFD9EE6012000F0D2
:103E4000B5FDB9F1010F7FF698AE022000F0AEFD8E
:103E500093E63DB1B9F1000F01D0304676E6C4F3E8
:103E60000420CDE7B9F1000F07D0392E03D14FF46C
:103E7000FA5003F03CF93046EFE6C4F30420C6E7FD
:103E8000C4F30322E1B23846FEF766F800F032FBD5
:103E900073E6C4F30322E1B23846FEF75FF86CE63E
:103EA000BDE8F883D816002037B583880288ADF8BE
:103EB00004200446C3B1BDF804204FF6FF739A42B4
:103EC00012D0FDF7C1FE78B12188A07800F062FC25
:103ED000054600F0E7FB00F077FB2946204603B0DB
:103EE000BDE83040FFF7E0BD03B030BD08B500F0DD
:103EF000D7FC00F0EBFC00F013FD01F097FD01F0A2
:103F0000B5FC0020FFF786FB0020BDE80840FFF766
:103F100091BB08B500F072FCBDE80840FFF7E6BFB2
:103F200008B500F0A7FCBDE80840FFF7F2BFC0F3FA
:103F300003330E3303F00F020D2A10B522D80121EE
:103F400001FA02F313F4105FC4B218D140F2033245
:103F5000134203D113F010000DD110BDF02C13D07B
:103F600004D8DF2C8CBF00200120F6E7F42C14BF0E
:103F700000200120F1E7DF2C06D9F12CF7E7C0F390
:103F8000C020EAE70020E8E70846E6E707B5ADF815
:103F90000400019800F0F2FB03B05DF804EBFFF7BA
:103FA000C6BF82B002AB03E9030002B0704782B023
:103FB00002AB03E9030002B07047000070B5094B83
:103FC000094E1C78094D3378A34200D170BD05EB32
:103FD000C40355F8340059680134FFF7E8FF04F0D2
:103FE0000704F0E72517002024170020E41600201E
:103FF000024B18685968FFF7DABF00BFDC160020D3
:10400000F7B5274A937913F0F00F0AD1937843B1AB
:10401000244B254F1978254D4FF6FF763B788B4280
:1040200001D103B0F0BD93881088ADF80400002BD7
:1040300032D080B2B0422FD0C8002C1892F801E0E4
:1040400094F801C0E64527D192F800E015F831C098
:10405000E64521D194F802C0BCF1000F1CD1A48820
:10406000A3428ABFF31AE31A1B19C72BCCBF002344
:1040700001238BB19379012161F3071393712B18FD
:1040800007489A7961F307129A71FFF70DFF03B0A1
:10409000BDE8F040FFF792BF013101F00701BDE735
:1040A000DC1600202517002024170020E41600202D
:1040B0002DE9F043B84C06468FB0A58800682188EA
:1040C00008900DF1200C32787378B778B6F8048038
:1040D000ADF80010002D00F01D8188B24FF6FF7181
:1040E000884200F0178194F80290B9F1000F00F0B7
:1040F000118145458ABF4D1BA8EB05054544C72DD9
:10410000A179CCBF0025012501F0F00E002D00F0B3
:10411000BB8020884FF6FF7CBEF1000F77D1604551
:10412000B94618D08DF820208DF82130BDF820C078
:10413000844510D17FB9012363F30711A171FFF703
:1041400057FF9548FFF7B0FEA379B37100252846C5
:104150000FB0BDE8F0838DF820208DF82130BDF838
:104160002010ADF81810B8F1000F06D1002FEDD0D7
:10417000A37943F00103A371E8E79DF819109DF8B6
:1041800018008DF81D108DF81C00BDF81C004FF6AE
:10419000FF718842EAD0002FEAD180488049077831
:1041A00009788048B9420BD1089800F0E7FAC0F3CB
:1041B0000332C3B2032A1CD8DFE802F01313202015
:1041C00000EBC10494F801C09C4506D110F831C041
:1041D000944502D1A478002CB8D1013101F0070137
:1041E000E0E710F4706F00D07BB12033DBB2072B17
:1041F0000BD93046FFF758FEA94606E010F4706F61
:10420000F3D0B27912F0F00FEFD14D469FE7604541
:1042100013D08DF820208DF82130BDF820C08445C2
:104220000BD157B9B1713046FFF73EFE33682360BA
:1042300073686360FFF7DCFE89E78DF820208DF856
:1042400021300898FFF7A2FED0B1CFB1A3791F2B80
:104250000CD92288ADF8282000228DF82A20ADF84C
:104260002C808DF82E300AA8FFF71EFE33682360DD
:1042700073686360FFF7C4FEFFF7BAFE012566E7C7
:104280003046FFF711FEF9E7BEF1000F11D18DF8AE
:104290002270ADF824808DF820208DF821309CE824
:1042A0000300FFF77EFE3C48FFF7FEFD25606560DA
:1042B000C0E7B4F800C04FF6FF70844510D08DF809
:1042C00020208DF821306046BDF820C0844507D1FC
:1042D00037B9B1713046FFF7E7FD2560656094E7B7
:1042E0008DF820208DF821300898FFF74FFE002828
:1042F000C6D0002FC4D0A3791F2BB7D92288ADF820
:10430000302000228DF83220ADF834808DF8363020
:104310000CA8A9E72188ADF81010002D63D088B251
:104320004FF6FF7188425ED0A07800285BD14545EA
:104330008ABF4D1BA8EB05054544C72DCCBF002502
:104340000125002D42D03D46002F99D020884FF600
:10435000FF71884228D08DF820208DF82130014649
:10436000BDF8200088421FD1A379DA070ED413F0DC
:10437000F0020BD0F02AB3713FF455AFDBB2C3F3B8
:104380000312013262F30713B3714CE73368236001
:1043900073686360DBE600BFDC1600202417002092
:1043A00025170020E41600208DF820208DF82130FC
:1043B0000898FFF7EBFD00287FF458AFA37930464B
:1043C00043F00103A371FFF76FFDC0E68DF8227083
:1043D000ADF824808DF820208DF821309CE8030072
:1043E000FFF7DFFD62E7002F3FF44AAF8DF8202092
:1043F0008DF821300898FFF7C9FD054600283FF4E5
:104400003FAF33682360736803486360FFF7ECF9DC
:10441000FFF7F6FD0EE700BFDC160020F0B587B011
:104420006C4684E803002046FFF742FE2D4E2E4DD9
:10443000074688B1BDF80430BDF80020ADF8102063
:1044400043B192B24FF6FF739A4203D094E803004F
:10445000FFF7ADFD254C3EE094E8030004AB83E894
:104460000300BDF80420BDF81010ADF80C10002AB0
:10447000F0D089B24FF6FF729142EBD034782978B0
:10448000621C02F007028A420BD0184F327003CB35
:1044900007EBC40C47F83400CCF80410FFF78EFD8E
:1044A000D8E7FFF73DFD124B37702F701F605F603C
:1044B000D0E704EBC000FFF7FBFD80B12B7804EBE5
:1044C000C30254F833005168FFF771FD2B780133B4
:1044D00003F007032B70287833788342E9D107B0C3
:1044E000F0BD00BF2417002025170020E41600208F
:1044F000DC160020F8B5034660B1002501261C46F5
:1045000014F8010B732806D8042828D201280FD0EC
:10451000022827D0F8BD75283DD032D300F17C03A6
:10452000DBB26F2BF6D800F07F00FFF744FA0EE005
:104530009C1C5B7803F12002D2B2072A0ED803F04C
:1045400007039840C0B200F0B1F900F0E9F92F4636
:10455000013FFFB2FF2F21D12346D0E71846FFF7D6
:1045600046F9F4E758789C1C00F12003DBB2072BD6
:10457000DBD800F0070006FA00F0C0B200F09EF9A8
:10458000E3E75F789C1C013FFFB2FF2FDFD0642080
:1045900002F0ADFDF7E79C1C5D78D8E7642002F0DF
:1045A000A6FDD5E7704708B5FFF7FCFF08BD000082
:1045B00008B5FFF7F8FF034B1860BDE80840FFF7A8
:1045C00095BC00BF281700207047FFF7F1BF00001F
:1045D000024B1B681843FFF7EBBF00BF28170020F2
:1045E000024B1B681840FFF7E3BF00BF28170020ED
:1045F000024B1B685840FFF7DBBF00BF28170020A5
:10460000704708B5FFF7FCFF08BD000008B5FFF7CD
:10461000F8FF034B1860BDE80840FFF767BC00BF18
:104620002C1700200020FFF7F1BF012303FA00F050
:10463000FFF7ECBF012303FA00F0024B1B6818439D
:10464000FFF7E4BF2C170020012303FA00F0034B0F
:104650001B6823EA0000FFF7D9BF00BF2C1700201A
:10466000012303FA00F0024B1B685840FFF7CEBF4E
:104670002C170020024B1B681843FFF7C7BF00BF71
:104680002C170020024B1B681840FFF7BFBF00BF6C
:104690002C170020024B1B685840FFF7B7BF00BF24
:1046A0002C17002070470000C0F3072303EB4303DF
:1046B00037B500EB430000F0FF0000F007030122D4
:1046C0009A40C0080A4B00EB8000D2B21844002484
:1046D000057821FA04F343F300036B4013400134DF
:1046E0006B40052C00F8013BF2D103B030BD00BF98
:1046F00030170020C0F3072303EB430313B500EB8F
:10470000430000F0FF0000F007040A49C00800EB76
:10471000800000220144104611F8013BE34003F001
:104720000103934001321843052AC0B2F4D102B00C
:1047300010BD00BF301700200E4B73B51E680E4B26
:10474000ADF804001B681F241E4326FA04F3DB07A0
:10475000E5B206D414F1FF34F7D20025284602B0A2
:1047600070BD01992846FDF713FC80B20128F1D0F5
:10477000F4E700BF2C1700202817002007B5ADF87C
:1047800004000198FFF7D8FF019903B05DF804EB2E
:10479000FDF7FEBB13B5104BADF804101B782BB121
:1047A000019802B0BDE81040FFF7E8BF70B1019872
:1047B000FFF7C2FF044601460198FFF775FF019914
:1047C000204602B0BDE81040FDF7E2BB0198FFF7BC
:1047D00091FF0446F3E700BFD7160020024B0146C5
:1047E000186800F0E3B900BF0C100020024B01462E
:1047F000186800F0F3B900BF0C100020014B1868D6
:1048000000F004BA0C100020024B93F90000C0F332
:10481000C700704779170020024B187800F0070096
:10482000704700BF79170020034B187810F007007D
:1048300018BF0120704700BF79170020014B18787E
:10484000704700BF7B170020024A1378184310708E
:10485000704700BF7B170020024A137823EA00004C
:10486000107070477B170020014B1870704700BF15
:104870007B170020014B00221A7070477B17002025
:10488000024A137818431070704700BF7C1700204D
:10489000024A137823EA0000107070477C1700204A
:1048A000014B00221A7070477C170020024A1378CF
:1048B00018431070704700BF78170020024A137821
:1048C00023EA00001070704778170020014B002287
:1048D0001A70704778170020014B1878704700BF96
:1048E0007A170020704708B5FFF7FCFF08BD0000ED
:1048F00008B5044B1978814202D01870FFF7F3FF16
:1049000008BD00BF7A17002008B5044B1A781AB109
:1049100000201870FFF7E7FF08BD00BF7A170020DE
:1049200010B50D4B0D491B7809780D4C0B430D4903
:10493000206809780B430C490370097831B10B43A7
:10494000037000F0BDF808B1FFF7DEFF2068BDE896
:104950001040FEF713BE00BF7B1700207C1700201D
:104960000C100020781700207A170020704708B537
:10497000FFF7FCFF08BD000010B5064C41EAC0017E
:104980002170FFF757FE94F90000C0F3C700FFF74E
:10499000EEFF10BD7917002008B5034B00201870FA
:1049A000FFF7E5FF08BD00BF7917002008B50A4AE8
:1049B00092F9003023EA000040B2107042070AD199
:1049C000DBB2834207D0C0F3C700FFF73DFEBDE86E
:1049D0000840FFF7E1BF08BD7917002008B50020A7
:1049E00000F0A9FB4FF6ED63C31A5842584108BDC9
:1049F000022000F095BB0146022000F099BB032085
:104A000000F08EBB0146032000F092BB042000F0B2
:104A100087BB0146042000F08BBB072000F080BB61
:104A20000146072000F084BB01460F2000F0A5BB23
:104A30000146132000F0A1BB0020FFF7F9BF08B525
:104A40000020FFF7F1FFFFF7F7FF08BD10B500F0FA
:104A50000DFB4FF6ED61002000F08DFB00210220E0
:104A600000F066FB00210320002400F061FB124BE4
:104A7000214604201C6000F05BFB2146052000F06D
:104A800057FB2146062000F053FBFF21072000F0D2
:104A90004FFB2146082000F070FB21460D2000F05E
:104AA00047FB2146182000F068FB2146172000F044
:104AB0003FFBFFF7C4FF10BD28170020FFF7C6BF5C
:104AC0000C4B1B78821C63B10B4B93F90030002B0D
:104AD000ACBF06231E230020013BDBB2FF2B02D11B
:104AE00070470623F7E712F8011B0029F4D00130C4
:104AF000C0B2F1E76C110020941F002030B54FF0D8
:104B0000FF33851C002215F8014B8C420ED0B3F107
:104B1000FF3F02D1002C08BF13460132D4B2062C4D
:104B200062B2F0D15A1C01D01844817030BD10B56A
:104B3000831C0022083013F8014B8C4208BF03F895
:104B4000012C8342F7D110BDCA081D2A08D8104491
:104B500001F0070301219940837819438170704760
:104B6000034B1B78DB0702D5024800F063BA70479D
:104B70007D1700203BB20008CA081D2A09D810443E
:104B800001F0070301229A40837823EA020383702D
:104B90007047044B1B78DB0702D5034800F04ABA84
:104BA000704700BF7D17002059B2000810B4094CAF
:104BB000247803460A463CB1074C94F90040002C87
:104BC00002DA10BCFFF7C0BF1146184610BCFFF751
:104BD00095BF00BF6C110020941F002010B4094C39
:104BE000247803460A463CB1074C94F90040002C57
:104BF00002DA10BCFFF7C0BF1146184610BCFFF721
:104C000096BF00BF6C110020941F0020094A127843
:104C1000831C4AB1084A92F90020002A04DA1E22B5
:104C20000021184605F014BA0022C0F802209A802C
:104C3000704700BF6C110020941F0020704708B51A
:104C4000FFF7FCFF08BD08B5FFF7F9FF40F2A460CD
:104C5000BDE8084002F04BBA7047704710B5FFF747
:104C6000FBFFFCF771FCFFF7F8FF0024E0B2FCF754
:104C700069FD18B901340A2CF8D110BD0120FCE7F8
:104C800008B5FFF7DBFF08BD08B5FFF7F3FDFFF739
:104C900007FEFFF7B3FD00F0C9FE0020FEF7BAFCE7
:104CA0000020FEF7C7FCFFF7EBFF08BD202383F3CE
:104CB00011884FF08043596A002383F31188034A17
:104CC0001160034A1360034A136070478417002081
:104CD0008817002080170020FFF7E8BFF0B52023D9
:104CE00083F311884FF080435C6A002383F31188BB
:104CF0000F4D104E2B683268DFF840C034602344FB
:104D00009B1A4FF47A7707FB03F10B4ADCF800009B
:104D100001F5C3319F31B1FBF2F14A43084402F27D
:104D2000E732B2FBF7F29B1ACCF800002B60F0BD23
:104D30008817002084170020A0860100801700201B
:104D400008B5FFF7CBFF80B208BD10B50446FFF7EA
:104D5000C5FF001B80B210BD074B084A1A60BFF3A5
:104D60004F8F0749074BCA6802F4E0621343CB60D8
:104D7000BFF34F8F00BFFDE7FC9F0020EFBEADDE0D
:104D800000ED00E00400FA0580B50B4A0B4B52F829
:104D9000041C994200AF0DD1002342F8043C83F378
:104DA0001488074B1B6883F3088862B6054B1B68A1
:104DB0009847FEE780BD00BF00A00020EFBEADDE3B
:104DC00000D8FF1F04D8FF1FF0B50124B0FBF4F595
:104DD0008D4203D200261CB91C70F0BD4C43F5E790
:104DE000B0FBF4F5B4FBF1F704FB15002EB9002D70
:104DF00003DC8C420CD33C46EDE7092D08DD002A8C
:104E000014BF372457242C4403F8014B0136F2E732
:104E10003024F8E7F0B50124B0FBF4F58D4203D25D
:104E200000261CB91C70F0BD4C43F5E7B0FBF4F54F
:104E3000B4FBF1F704FB15002EB9002D03DC8C4206
:104E40000CD33C46EDE7092D08DD002A14BF3724BA
:104E500057242C4403F8014B0136F2E73024F8E7DD
:104E60002DE9F041069D002B06460F4614BF4FF07A
:104E700030084FF020082B4613F8010B511E08B1E3
:104E8000002A07DC1446002C06DC15F8011B41B98A
:104E9000BDE8F0810A46EFE741463046B847013C9D
:104EA000F1E73046B847F0E72DE9F04F87B081468B
:104EB0008A4615461C4603AF297821B3252903D01D
:104EC00001354846D047F7E76A78302A08BFAA7804
:104ED000A2F1300319BFAE1C4FF0000BEE1C4FF0D7
:104EE000010B092B4FF0000815D96C2A64D1354607
:104EF00015F8012B632A52D022D8252A5AD0582AD5
:104F00003FD0002AD8D107B0BDE8F08F0A2202FBBB
:104F1000083816F8012BA2F13003D9B20929F5D9C6
:104F2000A2F16103052B04D8A2F157030A2BEDD09F
:104F3000DBE7A2F14103052BD7D8A2F13703F5E750
:104F4000732A31D019D8642AB6D154F8040B00283A
:104F5000BFBF2D238DF80C3040420DF10D03A8BFCB
:104F60003B4600220A21FFF72FFF00975B4642468F
:104F700051464846FFF774FF9EE7752A08D0782A05
:104F80009AD1A2F1580042423B464241102102E030
:104F90003B4600220A2154F8040BE4E7354654F856
:104FA000041BC9B28DE7354654F8043B0093002337
:104FB000DDE73546252184E7632AEFD007D8252A87
:104FC000F7D0582A1ED0002A9DD0354674E7732AA0
:104FD000E9D013D8642AF8D154F8040B0028BFBFD5
:104FE0002D238DF80C3040420DF10D03A8BF3B4638
:104FF00000220A21FFF70EFF3546B6E7752A0AD0D0
:10500000782AE2D1A2F158014A424A413B46102196
:1050100054F8040BEEE73B4600220A21F8E70000B3
:10502000024B1960024B1860704700BF8C170020BC
:10503000901700200FB407B50749084809680068B1
:1050400004AB53F8042B0193FFF72EFF03B05DF878
:1050500004EB04B0704700BF8C17002090170020AD
:1050600008B500F047F940F6FF7008BD08B50748DD
:1050700000F0F8F8064800F0F5F8064800F0F2F8FD
:105080000548BDE8084000F0EDB800BF00E00308A7
:1050900000E8030800F0030800F80308B0F5805F9B
:1050A0002DE9F041884602D30020BDE8F08146009A
:1050B00006F1006505F578354FF6FF722B889A42A8
:1050C0004FEAA02404D1284600F0EEF880B2ECE7C5
:1050D000E402124F04F1006404F578344FF40062E6
:1050E00021463846FCF7FEF82B789845DCD040F294
:1050F000FE733340204607F8038000F0B3F8002524
:10510000795D61F0FF014B1C03D089B2601900F09A
:10511000CBF80235B5F5006FF2D1D7E79417002030
:1051200080B2400000F1006000F5783000787047F0
:1051300080B2FFF7B3BF83B25B0003F1006303F5F6
:1051400078331A78431C9BB25B0003F1006303F5CC
:105150007833187842EA0020704738B584B20D469B
:105160002046C9B2FFF79AFF601C290A80B2BDE849
:105170003840FFF793BFFFF7F0BF80B2F8B5471C88
:10518000BFB243007A0003F1006302F1006203F54D
:10519000783302F57832861CB6B20C46197892F84C
:1051A00000C0720002F1006202F57832C51CADB297
:1051B00013786A0002F1006202F578321B0412785B
:1051C00043EA0C230B4343EA0263A34212D0E1B249
:1051D000FFF764FFC4F307213846FFF75FFFC4F30E
:1051E00007413046FFF75AFF210E2846BDE8F84038
:1051F000FFF754BFF8BD00000B4BDA68D2070CD4A0
:10520000DA6851070BD4DA68D2060AD4DB6813F0E7
:10521000010F0CBF052004207047012070470220B9
:1052200070470320704700BF0020024073B504465A
:10523000FFF7E2FF0025FF2601280FD114B9062051
:1052400002B070BD01950196019B1BB9FFF7D4FF19
:10525000013CF1E7019B013B0193F5E7002C08BFFE
:105260000620EDE738B5054640F6FF70FFF7DEFF94
:10527000052815D10B4C236943F0020323616561B6
:10528000236943F04003236140F6FF70FFF7CEFF30
:1052900006281EBF236923F0020323613423E36041
:1052A00038BD00BF00200240104B00F178429A4206
:1052B00070B505460E4616D81F20FFF7B7FF052824
:1052C00010D10B4C236943F0010323611F202E8072
:1052D000FFF7ACFF06281EBF236923F001032361FB
:1052E0003423E36070BD0720FCE700BFFEFF07002A
:1052F00000200240034B044A5A6002F188325A608F
:10530000704700BF00200240230167452DE9F341AB
:1053100000250746EEB23046FCF714FA002480461A
:1053200048FA04F2D207E3B209D40134062CF7D1CB
:1053300001350A2DEED1002002B0BDE8F0818DF8D4
:1053400004308DF8056001990020FCF709FE8742C2
:10535000EBD10120F0E710B504462C20FFF7D6FF73
:1053600020B12046BDE81040FFF7D0BF10BD0000BF
:1053700010B5FFF733FB08B9FFF7A0FB8348FFF731
:1053800059FE6524013C14F0FF0440F0D2808048AF
:10539000FFF750FE2920FFF7DEFF002840F0F480E1
:1053A0002A20FFF7D8FF08B1FFF788FB0520FFF799
:1053B000D2FF08B1FFF7D0FCFFF71AFB754C207045
:1053C0000720FFF7C8FF68B11B20FFF7C4FF0028C4
:1053D00000F0B6802378C3F3400282F0010262F34A
:1053E0004103237020786C4CFFF705FBFFF70EFBA1
:1053F0002080E020FFF7AFFF38B12378C3F300022D
:1054000082F0010262F3000323703920FFF7A3FF4B
:1054100038B12378C3F3400282F0010262F3410302
:105420002370E220FFF797FF38B12378C3F380029F
:1054300082F0010262F382032370E620FFF78BFF04
:1054400038B12378C3F3C00282F0010262F3C303D0
:105450002370E320FFF77FFF38B12378C3F30012F6
:1054600082F0010262F3041323703520FFF773FF0B
:1054700038B12378C3F3401282F0010262F345137E
:1054800023703120FFF767FF38B12378C3F3801210
:1054900082F0010262F3861323701120FFF75BFF95
:1054A00038B12378C3F3C01282F0010262F3C7134C
:1054B00023702078FFF7ADFA2720FFF74CFF044652
:1054C0001E20FFF748FF10B144F00204E4B21F2091
:1054D000FFF741FF10B144F00404E4B22020FFF7CD
:1054E0003AFF10B144F00804E4B22120FFF733FF83
:1054F00010B144F01004E4B22220FFF72CFF10B1E9
:1055000044F02004E4B22320FFF725FF10B144F05B
:105510004004E4B22420FFF71EFF80B364F07F0450
:10552000E4B22046FFF76EFA2046BDE81040FFF7D0
:105530004CB8FCF709F84FF47A7001F0D8FD21E778
:105540000E20FFF708FF38B12378C3F3800282F002
:10555000010262F3820344E71020FFF7FCFE237888
:1055600030B1C3F3C00282F0010262F3C30338E733
:10557000C3F3000282F0010262F3000331E7002C62
:10558000CFD1FFF73CFAD0E710BD00BF77B20008DB
:105590008CB200087D170020941F0020194B1B7847
:1055A000D90709D5184B187800EB800080087F28B0
:1055B00024D828B3C0B270479A0705D5124B187883
:1055C00000EB80004008F2E75B0704D50E4B18782B
:1055D00000EB8000EBE70D4B1B786BB10C4A0A49DE
:1055E000127808789342F3D210FB03F000EB8000AE
:1055F000B0FBF2F080B2DAE70520DBE77F207047EE
:10560000012070479E1F0020121000209F1F0020C5
:1056100013100020154B1B78D90705D5144B1878AB
:10562000800800B3C0B270479A0703D5104B1878B2
:105630004008F6E75B0705D50D4B18787F28F0D9B1
:105640007F2070470B4B1B785BB10B4A08491278DF
:105650000878934236BF10FB03F080B2B0FBF2F043
:10566000ECE70120DEE70120704700BF9E1F00200D
:10567000141000209F1F002015100020F02808B5EE
:1056800005D1FFF78BFF4042344BD87008BDF1289D
:1056900002D1FFF783FFF7E7F22805D1FFF77EFF7E
:1056A00040422E4B9870F1E7F32802D1FFF776FFC6
:1056B000F7E7F92804D1FFF7ADFF284B1871E5E7AC
:1056C000FA2803D1FFF7A6FF4042F6E7FB2805D1F1
:1056D000FFF7A0FF4042214B5871D7E7FC2802D1C9
:1056E000FFF798FFF7E7F42805D11C4A537843F0F9
:1056F00001035370CAE7F52804D1184A537843F0E0
:105700000203F6E7F62804D1144A537843F0040361
:10571000EFE7F72804D1114A537843F00803E8E78C
:10572000F82804D10D4A537843F01003E1E7FD282F
:1057300005D10B4A137843F001031370A6E7FE2846
:1057400004D1074A137843F00203F6E7FF289DD1FE
:10575000034A137843F00403EFE700BF981F0020CB
:105760009E1F00203E4BF02893F9022007D193F9A9
:105770000310002901DA0021D9706AB17047F128BD
:1057800004D193F903100029F5DCF6E7F2280CD1D7
:10579000002AF2DA00229A70DA7819795B790A43E2
:1057A0001A43EBD12F4B1A707047F32802D1002A0D
:1057B000F0DCE2E7F92806D193F904100029DCDDDA
:1057C00000211971D9E7FA2804D193F904100029AE
:1057D000D3DAF5E7FB2806D193F905100029CCDAD6
:1057E00000215971C9E7FC2804D193F9051000295B
:1057F000F6DCC2E7F42804D1597821F00101597090
:10580000BBE7F52803D1597821F00201F7E7F62824
:1058100003D1597821F00401F1E7F72803D1597831
:1058200021F00801EBE7F82803D1597821F01001A5
:10583000E5E7FD2805D10C48017821F00101017050
:105840009BE7FE2804D10848017821F00201F6E721
:10585000FF2892D10448017821F00401EFE700BF4E
:10586000981F00209F1F00209E1F0020234B1B78A5
:105870001B0710B53AD5224C2248FFF7DBFB6178B5
:105880002148FFF7D7FB2148FFF7D4FB94F902101A
:105890001F48FFF7CFFB1F48FFF7CCFB94F903101D
:1058A0001B48FFF7C7FB1B48FFF7C4FB94F9041024
:1058B0001748FFF7BFFB1748FFF7BCFB94F905102B
:1058C0001348FFF7B7FB1448FFF7B4FB134B14481A
:1058D0001978FFF7AFFB1348FFF7ACFB124B1048EA
:1058E0001978FFF7A7FB1148FFF7A4FB0448FDF761
:1058F00087FEFFF725FA0E4B188010BD7D1700209C
:10590000981F002093B2000836B20008B6B2000813
:105910008CB100088AB20008B8B200089F1F0020AE
:10592000BBB20008BEB200089E1F0020DFB6000810
:10593000961F0020F8B5384B1888FFF706FA37494C
:105940000A7892B1364B1B7898420DDB354C94F9AE
:10595000023094F9037094F9046094F9055053B936
:1059600047EA0600284354D1F8BD2F4B1B7803EBC0
:1059700083035B00E8E7FF2A01D001320A70002BA5
:1059800002DDFFF70BFEA07094F90230002B03DA62
:10599000FFF704FE4042A070002F02DDFFF7FEFD7E
:1059A000E07094F90330002B03DAFFF7F7FD404273
:1059B000E07094F9022072B194F9031059B1B52343
:1059C0005A43121203FB01F308BF01221B1208BF46
:1059D0000123A270E370002E02DDFFF71BFE207191
:1059E00094F90430002B03DAFFF714FE40422071D3
:1059F000002D02DDFFF70EFE607194F90530002BDB
:105A000003DAFFF707FE40426071BDE8F840FFF798
:105A10002DBFFF2AB1D1BFE7961F00209F1F002096
:105A200011100020981F002010100020044A0023AD
:105A300013609380034A1370034A1370704700BFCA
:105A4000981F00209F1F00209E1F002008B50548BA
:105A5000FFF7F0FA012205210348BDE80840FFF7EF
:105A6000E9BA00BF69B8000864B900080138052820
:105A700041D8DFE800F0030E18222C361E4A1F48DA
:105A800013781944FE29D4BFC9B2FF211170FFF762
:105A9000D1BA1B4A1B4813781944FE29D4BFC9B296
:105AA000FF211170F3E7184A184813781944FE29AA
:105AB000D4BFC9B2FF211170E9E7154A1548137820
:105AC0001944FE29D4BFC9B2FF211170DFE7124A81
:105AD000124813781944FE29D4BFC9B2FF211170AE
