:020000040800F2
:1000000000040020F10100088967000889670008E2
:100010008967000889670008896700088967000800
:10002000896700088967000889670008616E000811
:1000300089670008896700088967000889670008E0
:1000400089670008896700088967000889670008D0
:1000500089670008896700088967000889670008C0
:10006000896700088967000889670008757D0008AE
:10007000A97D0008E17D0008197E0008517E000876
:10008000897E0008C17E000889670008896700082A
:100090008967000889670008896700088967000880
:1000A0008967000889670008896700088967000870
:1000B000E984000889670008896700081D83000833
:1000C0002984000889670008896700088967000893
:1000D0008967000889670008896700088967000840
:1000E0008967000889670008896700088967000830
:1000F000C1860008896700088967000889670008C9
:10010000896700088967000889670008896700080F
:10011000896700088967000899860008AD8600088D
:10012000F97E00082D7F0008657F00089D7F00088C
:10013000D57F00088967000889670008896700087B
:1001400089670008896700088967000889670008CF
:1001500089670008896700088967000889670008BF
:100160008967000889670008896700080D8700080B
:10017000896700088967000889670008896700089F
:10018000896700088967000889670008896700088F
:10019000896700088967000889670008896700087F
:0C01A000999E0008D5010008B10100087C
:1001B00010B5054C237833B9044B13B10448AFF3A1
:1001C00000800123237010BD2814002000000000CF
:1001D0003CB2000808B5034B1BB103490348AFF319
:1001E000008008BD000000002C1400203CB2000874
:1001F00072B6374880F3098836484EF60851CEF279
:100200000001086040F20000CCF200004EF63471AC
:10021000CEF200010860BFF34F8FBFF36F8F40F243
:100220000000C0F2F0004EF68851CEF200010860E6
:10023000BFF34F8FBFF36F8F4FF00000E1EE100A56
:100240004EF63C71CEF200010860062080F314885F
:10025000BFF36F8F06F078FA08F011FD4FF05530BC
:100260001D491E4A91423CBF41F8040BFAE71C4964
:10027000174A91423CBF41F8040BFAE719491A4A60
:100280001A4B9A423EBF51F8040B42F8040BF8E7B0
:1002900000201749174A91423CBF41F8040BFAE786
:1002A00006F056FA06F051FA134C144DAC4203DA3C
:1002B00054F8041B8847F9E706F034F8104C114D48
:1002C000AC4203DA54F8041B8847F9E706F03EBA5B
:1002D000000C0020000000080000002000040020A6
:1002E000000400203CB20008000C00202414002070
:1002F000281400206C230020A0010008A801000899
:10030000A8010008AC0100082DE9F04F2DED108A7E
:10031000C1F80CD0C3689D46BDEC108ABDE8F08FD3
:10032000002383F311882846A047002006F086FCAE
:1003300006F01CFC00DFFEE781F0004102E000BF98
:1003400083F0004330B54FEA41044FEA430594EA95
:10035000050F08BF90EA020F1FBF54EA000C55EAD0
:10036000020C7FEA645C7FEA655C00F0E2804FEAA1
:100370005454D4EB5555B8BF6D420CDD2C4480EA83
:10038000020281EA030382EA000083EA010180EAB3
:10039000020281EA0303362D88BF30BD11F0004F01
:1003A0004FEA01314FF4801C4CEA113102D0404237
:1003B00061EB410113F0004F4FEA03334CEA133372
:1003C00002D0524263EB430394EA050F00F0A7808A
:1003D000A4F10104D5F1200E0DDB02FA0EFC22FA85
:1003E00005F2801841F1000103FA0EF2801843FA79
:1003F00005F359410EE0A5F120050EF1200E012A6A
:1004000003FA0EFC28BF4CF0020C43FA05F3C018A7
:1004100051EBE37101F0004507D54FF0000EDCF120
:10042000000C7EEB00006EEB0101B1F5801F1BD3C9
:10043000B1F5001F0CD349085FEA30004FEA3C0CCD
:1004400004F101044FEA445212F5800F80F09A80C3
:10045000BCF1004F08BF5FEA500C50F1000041EBC7
:10046000045141EA050130BD5FEA4C0C404141EBCB
:10047000010111F4801FA4F10104E9D191F0000FF2
:1004800004BF01460020B1FA81F308BF2033A3F175
:100490000B03B3F120020CDA0C3208DD02F1140C6C
:1004A000C2F10C0201FA0CF021FA02F10CE002F1A7
:1004B0001402D8BFC2F1200C01FA02F120FA0CFCA0
:1004C000DCBF41EA0C019040E41AA2BF01EB0451E9
:1004D000294330BD6FEA04041F3C1CDA0C340EDCE7
:1004E00004F11404C4F1200220FA04F001FA02F32A
:1004F00040EA030021FA04F345EA030130BDC4F1E8
:100500000C04C4F1200220FA02F001FA04F340EADC
:100510000300294630BD21FA04F0294630BD94F08D
:10052000000F83F4801306BF81F480110134013D74
:100530004EE77FEA645C18BF7FEA655C29D094EAE5
:10054000050F08BF90EA020F05D054EA000C04BF63
:100550001946104630BD91EA030F1EBF002100204E
:1005600030BD5FEA545C05D14000494128BF41F0ED
:10057000004130BD14F580043CBF01F5801130BD51
:1005800001F0004545F0FE4141F470014FF00000DC
:1005900030BD7FEA645C1ABF194610467FEA655C8D
:1005A0001CBF0B46024650EA013406BF52EA03352F
:1005B00091EA030F41F4002130BD00BF90F0000F1D
:1005C00004BF0021704730B54FF4806404F1320459
:1005D0004FF000054FF0000150E700BF90F0000F12
:1005E00004BF0021704730B54FF4806404F1320439
:1005F00010F0004548BF40424FF000013EE700BF09
:1006000042004FEAE2014FEA31014FEA02701FBF98
:1006100012F07F4393F07F4F81F06051704732F0CA
:100620007F4208BF704793F07F4F04BF41F4002121
:10063000704730B54FF4607401F0004521F000417F
:100640001CE700BF50EA010208BF704730B54FF009
:1006500000050AE050EA010208BF704730B511F00A
:10066000004502D5404261EB41014FF4806404F142
:1006700032045FEA915C3FF4D8AE4FF003025FEAC8
:10068000DC0C18BF03325FEADC0C18BF033202EB4C
:10069000DC02C2F1200300FA03FC20FA02F001FAA6
:1006A00003FE40EA0E0021FA02F11444BDE600BF49
:1006B00070B54FF0FF0C4CF4E06C1CEA11541DBFF8
:1006C0001CEA135594EA0C0F95EA0C0F00F0DEF8C3
:1006D0002C4481EA030621EA4C5123EA4C5350EAA8
:1006E000013518BF52EA033541F4801143F48013F9
:1006F00038D0A0FB02CE4FF00005E1FB02E506F08A
:100700000042E0FB03E54FF00006E1FB03569CF0DE
:10071000000F18BF4EF0010EA4F1FF04B6F5007FE4
:1007200064F5407404D25FEA4E0E6D4146EB060656
:1007300042EAC62141EA55514FEAC52040EA5E50DF
:100740004FEACE2EB4F1FD0C88BFBCF5E06F1ED889
:10075000BEF1004F08BF5FEA500E50F1000041EBC0
:10076000045170BD06F0004646EA010140EA02006D
:1007700081EA0301B4EB5C04C2BFD4EB0C0541EA8F
:10078000045170BD41F480114FF0000E013C00F3A4
:10079000AB8014F1360FDEBF002001F0004170BDC8
:1007A000C4F10004203C35DA0C341BDC04F11404E1
:1007B000C4F1200500FA05F320FA04F001FA05F26D
:1007C00040EA020001F0004221F0004110EBD3703A
:1007D00021FA04F642EB06015EEA430E08BF20EA66
:1007E000D37070BDC4F10C04C4F1200500FA04F309
:1007F00020FA05F001FA04F240EA020001F000419B
:1008000010EBD37041F100015EEA430E08BF20EA0D
:10081000D37070BDC4F1200500FA05F24EEA020E55
:1008200020FA04F301FA05F243EA020321FA04F084
:1008300001F0004121FA04F220EA020000EBD3703B
:100840005EEA430E08BF20EAD37070BD94F0000F3B
:100850000FD101F00046400041EB010111F4801F6F
:1008600008BF013CF7D041EA060195F0000F18BF20
:10087000704703F00046520043EB030313F4801F5C
:1008800008BF013DF7D043EA0603704794EA0C0F16
:100890000CEA135518BF95EA0C0F0CD050EA41062C
:1008A00018BF52EA4306D1D181EA030101F00041A9
:1008B0004FF0000070BD50EA410606BF10461946D1
:1008C00052EA430619D094EA0C0F02D150EA0136DD
:1008D00013D195EA0C0F05D152EA03361CBF10461E
:1008E00019460AD181EA030101F0004141F0FE41BD
:1008F00041F470014FF0000070BD41F0FE4141F441
:10090000780170BD70B54FF0FF0C4CF4E06C1CEA40
:1009100011541DBF1CEA135594EA0C0F95EA0C0FF5
:1009200000F0A7F8A4EB050481EA030E52EA0335B0
:100930004FEA013100F088804FEA03334FF08055D1
:1009400045EA131343EA12634FEA022245EA1115FE
:1009500045EA10654FEA00260EF000419D4208BFAF
:10096000964244F1FD0404F5407402D25B084FEA5C
:100970003202B61A65EB03055B084FEA32024FF408
:1009800080104FF4002CB6EB020E75EB030E22BF65
:10099000B61A754640EA0C005B084FEA3202B6EB25
:1009A000020E75EB030E22BFB61A754640EA5C00D4
:1009B0005B084FEA3202B6EB020E75EB030E22BF64
:1009C000B61A754640EA9C005B084FEA3202B6EB65
:1009D000020E75EB030E22BFB61A754640EADC0024
:1009E00055EA060E18D04FEA051545EA16754FEA86
:1009F00006164FEAC30343EA52734FEAC2025FEAA4
:100A00001C1CC0D111F4801F0BD141EA00014FF032
:100A100000004FF0004CB6E711F4801F04BF014303
:100A20000020B4F1FD0C88BFBCF5E06F3FF6AFAE1F
:100A3000B5EB030C04BFB6EB020C5FEA500C50F1AF
:100A4000000041EB045170BD0EF0004E4EEA113132
:100A500014EB5C04C2BFD4EB0C0541EA045170BD39
:100A600041F480114FF0000E013C90E645EA060E7D
:100A70008DE60CEA135594EA0C0F08BF95EA0C0FAB
:100A80003FF43BAF94EA0C0F0AD150EA01347FF4F3
:100A900034AF95EA0C0F7FF425AF104619462CE7CA
:100AA00095EA0C0F06D152EA03353FF4FDAE10462D
:100AB000194622E750EA410618BF52EA43067FF47E
:100AC000C5AE50EA41047FF40DAF52EA43057FF40E
:100AD000EBAE12E74FF0FF3C06E000BF4FF0010C19
:100AE00002E000BF4FF0010C4DF804CD4FEA410C7D
:100AF0007FEA6C5C4FEA430C18BF7FEA6C5C1BD04A
:100B000001B050EA410C0CBF52EA430C91EA030FCA
:100B100002BF90EA020F0020704710F1000F91EA27
:100B2000030F58BF994208BF90422CBFD8176FEAF5
:100B3000E37040F0010070474FEA410C7FEA6C5CC3
:100B400002D150EA013C07D14FEA430C7FEA6C5CCA
:100B5000D6D152EA033CD3D05DF8040B704700BFF6
:100B60008446104662468C461946634600E000BF44
:100B700001B5FFF7B7FF002848BF10F1000F01BD16
:100B80004DF808EDFFF7F4FF0CBF012000205DF8E1
:100B900008FB00BF4DF808EDFFF7EAFF34BF012066
:100BA00000205DF808FB00BF4DF808EDFFF7E0FFFF
:100BB00094BF012000205DF808FB00BF4DF808ED50
:100BC000FFF7CEFF94BF012000205DF808FB00BFB7
:100BD0004DF808EDFFF7C4FF34BF012000205DF899
:100BE00008FB00BF4FEA410C7FEA6C5C02D150EA7F
:100BF000013C0AD14FEA430C7FEA6C5C02D152EA15
:100C0000033C02D14FF0000070474FF001007047E5
:100C10004FEA4102B2F1E04324BFB3F5001CDCF11E
:100C2000FE5C0DD901F0004C4FEAC0024CEA507056
:100C3000B2F1004F40EB830008BF20F00100704785
:100C400011F0804F21D113F13872BCBF01F0004088
:100C5000704741F480114FEA5252C2F11802C2F1BA
:100C6000200C10FA0CF320FA02F018BF40F001003B
:100C70004FEAC1234FEAD32303FA0CFC40EA0C00ED
:100C800023FA02F34FEA4303CCE77FEA625307D12A
:100C900050EA01331EBF4FF0FE4040F44000704761
:100CA00001F0004040F0FE4040F40000704700BFFB
:100CB00080F0004002E000BF81F0004142001FBF11
:100CC0005FEA410392EA030F7FEA226C7FEA236C1A
:100CD0006AD04FEA1262D2EB1363C1BFD21841400F
:100CE00048404140B8BF5B42192B88BF704710F0A5
:100CF000004F40F4000020F07F4018BF404211F048
:100D0000004F41F4000121F07F4118BF494292EAAF
:100D1000030F3FD0A2F1010241FA03FC10EB0C00DB
:100D2000C3F1200301FA03F100F0004302D5494268
:100D300060EB4000B0F5000F13D3B0F1807F06D315
:100D400040084FEA310102F10102FE2A51D2B1F10D
:100D5000004F40EBC25008BF20F0010040EA030002
:100D60007047490040EB000010F4000FA2F10102AF
:100D7000EDD1B0FA80FCACF1080CB2EB0C0200FA39
:100D80000CF0AABF00EBC25052421843BCBFD04087
:100D90001843704792F0000F81F4000106BF80F401
:100DA00000000132013BB5E74FEA41037FEA226CC4
:100DB00018BF7FEA236C21D092EA030F04D092F08F
:100DC000000F08BF0846704790EA010F1CBF0020C3
:100DD000704712F07F4F04D1400028BF40F0004020
:100DE000704712F100723CBF00F50000704700F040
:100DF000004343F0FE4040F4000070477FEA226267
:100E000016BF08467FEA23630146420206BF5FEA37
:100E1000412390EA010F40F4800070474FF0000337
:100E200004E000BF10F0004348BF40425FEA000CFE
:100E300008BF704743F0964301464FF000001CE0A6
:100E400050EA010208BF70474FF000030AE000BFFC
:100E500050EA010208BF704711F0004302D540423A
:100E600061EB41015FEA010C02BF844601460020AC
:100E700043F0B64308BFA3F18053A3F50003BCFAC7
:100E80008CF2083AA3EBC25310DB01FA02FC634474
:100E900000FA02FCC2F12002BCF1004F20FA02F27B
:100EA00043EB020008BF20F00100704702F120026E
:100EB00001FA02FCC2F1200250EA4C0021FA02F2CF
:100EC00043EB020008BF20EADC7070474FF0FF0CD4
:100ED0001CEAD0521EBF1CEAD15392EA0C0F93EACF
:100EE0000C0F6FD01A4480EA010C400218BF5FEA71
:100EF00041211ED04FF0006343EA501043EA5111E4
:100F0000A0FB01310CF00040B1F5000F3EBF4900DD
:100F100041EAD3715B0040EA010062F17F02FD2AE1
:100F20001DD8B3F1004F40EBC25008BF20F00100C4
:100F3000704790F0000F0CF0004C08BF49024CEADB
:100F4000502040EA51207F3AC2BFD2F1FF0340EA6D
:100F5000C250704740F400004FF00003013A5DDCDE
:100F600012F1190FDCBF00F000407047C2F100021F
:100F7000410021FA02F1C2F1200200FA02FC5FEA0C
:100F8000310040F1000053EA4C0308BF20EADC7056
:100F9000704792F0000F00F0004C02BF400010F4C8
:100FA000000F013AF9D040EA0C0093F0000F01F075
:100FB000004C02BF490011F4000F013BF9D041EA97
:100FC0000C018FE70CEAD15392EA0C0F18BF93EA99
:100FD0000C0F0AD030F0004C18BF31F0004CD8D1C3
:100FE00080EA010000F00040704790F0000F17BF4A
:100FF00090F0004F084691F0000F91F0004F14D090
:1010000092EA0C0F01D142020FD193EA0C0F03D1E7
:101010004B0218BF084608D180EA010000F00040EA
:1010200040F0FE4040F40000704740F0FE4040F4C5
:10103000400070474FF0FF0C1CEAD0521EBF1CEA64
:10104000D15392EA0C0F93EA0C0F69D0A2EB030282
:1010500080EA010C49024FEA402037D04FF080531C
:1010600043EA111143EA10130CF000408B4238BFE1
:101070005B0042F17D024FF4000C8B4224BF5B1AEF
:1010800040EA0C00B3EB510F24BFA3EB510340EA3D
:101090005C00B3EB910F24BFA3EB910340EA9C00EB
:1010A000B3EBD10F24BFA3EBD10340EADC001B015B
:1010B00018BF5FEA1C1CE0D1FD2A3FF650AF8B42FF
:1010C00040EBC25008BF20F0010070470CF0004C0C
:1010D0004CEA50207F32C2BFD2F1FF0340EAC25037
:1010E000704740F400004FF00003013A37E792F0F8
:1010F000000F00F0004C02BF400010F4000F013A56
:10110000F9D040EA0C0093F0000F01F0004C02BF50
:10111000490011F4000F013BF9D041EA0C0195E7B9
:101120000CEAD15392EA0C0F08D142027FF47DAF52
:1011300093EA0C0F7FF470AF084676E793EA0C0F42
:1011400004D14B023FF44CAF08466EE730F0004C40
:1011500018BF31F0004CCAD130F000427FF45CAFD0
:1011600031F000437FF43CAF5FE700BF4FF0FF3C3E
:1011700006E000BF4FF0010C02E000BF4FF0010C91
:101180004DF804CD4FEA40024FEA41037FEA226C5A
:1011900018BF7FEA236C11D001B052EA530C18BF7C
:1011A00090EA010F58BFB2EB030088BFC81738BFE1
:1011B0006FEAE17018BF40F0010070477FEA226CCF
:1011C00002D15FEA402C05D17FEA236CE4D15FEACB
:1011D000412CE1D05DF8040B704700BF84460846FF
:1011E0006146FFE70FB5FFF7C9FF002848BF10F1C0
:1011F000000F0FBD4DF808EDFFF7F4FF0CBF012005
:1012000000205DF808FB00BF4DF808EDFFF7EAFF8E
:1012100034BF012000205DF808FB00BF4DF808ED49
:10122000FFF7E0FF94BF012000205DF808FB00BF3E
:101230004DF808EDFFF7D2FF94BF012000205DF8C4
:1012400008FB00BF4DF808EDFFF7C8FF34BF0120D1
:1012500000205DF808FB00BF4FEA4002B2F1FE4FEC
:101260000FD34FF09E03B3EB12620DD94FEA002368
:1012700043F0004310F0004F23FA02F018BF404241
:1012800070474FF00000704712F1610F01D1420228
:1012900005D110F0004008BF6FF0004070474FF0DC
:1012A0000000704742000ED2B2F1FE4F0BD34FF058
:1012B0009E03B3EB126209D44FEA002343F00043CC
:1012C00023FA02F070474FF00000704712F1610FEF
:1012D00001D1420202D14FF0FF3070474FF00000C1
:1012E000704700BF844641EA000313F003036DD149
:1012F000403A41D351F8043B40F8043B51F8043BD9
:1013000040F8043B51F8043B40F8043B51F8043BDF
:1013100040F8043B51F8043B40F8043B51F8043BCF
:1013200040F8043B51F8043B40F8043B51F8043BBF
:1013300040F8043B51F8043B40F8043B51F8043BAF
:1013400040F8043B51F8043B40F8043B51F8043B9F
:1013500040F8043B51F8043B40F8043B51F8043B8F
:1013600040F8043B51F8043B40F8043B51F8043B7F
:1013700040F8043B403ABDD2303211D351F8043B1F
:1013800040F8043B51F8043B40F8043B51F8043B5F
:1013900040F8043B51F8043B40F8043B103AEDD2CE
:1013A0000C3205D351F8043B40F8043B043AF9D21F
:1013B000043208D0D2071CBF11F8013B00F8013BF2
:1013C00001D30B8803806046704700BF082A13D3FF
:1013D0008B078DD010F003038AD0C3F10403D21A17
:1013E000DB071CBF11F8013B00F8013B80D331F84B
:1013F000023B20F8023B7BE7043AD9D3013A11F8CB
:10140000013B00F8013BF9D20B7803704B78437035
:101410008B788370604670477047704710B5464CB4
:10142000464803F0B3FB204620224FF4804106F0EB
:10143000CDFE20224FF400414FF0904006F0C6FE52
:1014400020224FF480614FF0904006F0BFFE20460E
:1014500020224FF4007106F0B9FE204601224FF41D
:10146000006106F0B3FE204601224FF4806106F0D1
:10147000ADFE20460122042106F0A8FE20460122EE
:10148000022106F0A3FE012280214FF0904006F0D9
:101490009DFE01221146204606F098FE40224FF4A0
:1014A00080614FF0904006F091FE40224FF40071B1
:1014B0004FF0904006F08AFE40224FF480714FF0CA
:1014C000904006F083FE2046402204F580644FF4ED
:1014D000004106F07BFE204640224FF4005106F00A
:1014E00075FE204640224FF4804106F06FFE2046F4
:1014F00040224FF4004106F069FE402204214FF0E3
:10150000904006F063FE402208214FF0904006F024
:101510005DFE402211464FF0904006F057FE084A0B
:101520000023136053601381064A13605360936075
:10153000BDE8104000F075B900040048AB9F0008FA
:10154000501400205A1400207047000076490A69A0
:101550002DE9F04F4FF09040744C754E6FEA923287
:1015600002F00102227002696FEAD23202F0010237
:10157000627002696FEA922202F00102A2700A69A7
:101580006FEA522202F0010285B0E2700025A04607
:10159000374616F8013B14F8011B8B4202D028464F
:1015A000FFF7D2FF0135EDB2042DF2D1D8F80030AB
:1015B0003B605D4D5F4F4FF00008B9464FF09044DF
:1015C0002E4608F1FF3ABAF1040F04D8DFE80AF01A
:1015D000070A0C0E5C004FF400632B8308E04FF405
:1015E0008063FAE70423F8E70223F6E780232383E6
:1015F000022005F028FBD4F810E0D4F810B02269DE
:101600004D492B69D1F810C0086901904FEA1B2B96
:1016100092090BF0020B02F00402CEF3802E1B0B9A
:101620004BEA020242EA0E0203F0080E4FEA5C2384
:1016300042EA0E0203F01003096902911343019A72
:10164000216903914FEA522E029A206921690EF016
:10165000200E520A02F0400243EA0E031343039A9B
:10166000520102F080024001134300F48070C9006F
:10167000184301F400710143BAF1040F06D8DFE802
:101680000AF0090C0E1050000123A6E74FF4006386
:10169000738308E04FF48063FAE70423F8E702233A
:1016A000F6E780236383B9F800308B4208D0234BE0
:1016B000A9F8001001221A7003F0EEF8204B1880F0
:1016C00008F10108B8F1060F09F102097FF479AFBA
:1016D0001A4C2378FBB11A4B188803F0E2F806285D
:1016E00019D90021174D8C46002205F801CB3E4642
:1016F000104636F8023B0B4103F0010383400130F2
:101700001A430628D2B2F4D101310A2905F8012C76
:10171000EAD10023237000F092F8012005B0BDE863
:10172000F08F0123B4E700BF0004004848140020F4
:101730004C1400205A1400200008004844140020D3
:101740004614002050140020014B185C704700BF65
:10175000501400202DE9F0471148124EDFF8509048
:10176000114FDFF8508003F011FA0024214648465B
:1017700003F00CFA16F801AB00254AFA05F3DB0773
:101780004CBF40463846013503F000FA062DF4D12F
:101790000648013403F0FAF90A2CE7D1BDE8F087D6
:1017A000B89F000850140020CF9F000884A90008AB
:1017B000C79F0008CD9F0008FFF72EBEFFF72DBE84
:1017C000012070470120704708B5FFF7FBFF08BDF7
:1017D00013B502AB03E903000E4B1B78ABB99DF8C0
:1017E000023000986BB102F057FD044601460098A4
:1017F00002F00AFD0099204602B0BDE8104000F05A
:1018000055B902F027FD0446F4E7009802F044FDC4
:101810000099F1E727150020034600689988FFF733
:10182000D7BF08B502F084FE08B902F0F1FE00F05F
:10183000B7FF01F047FBBDE80840FFF7BDBF08B5A3
:1018400001F0D6F901F05CFBBDE80840FFF7B6BF38
:10185000704708B5FFF7FCFF08BD08B5FFF7F9FFB3
:1018600008BD704710B502F00BF901F085F903F0DF
:1018700013F8002204460321094800F00FFFFFF788
:10188000F0FF204603F00DF8F92805D900F0F6FF27
:10189000BDE8104003F00CB8642005F0D4F9F0E77F
:1018A000300C002038B50446FFF7B6FF2146054648
:1018B000FFF78AFF08B9002038BD2146284600F00E
:1018C00025FB0028F7D02146284601F0F3F900282F
:1018D000F1D02146284601F0A9FB0028EBD045F6BF
:1018E00014439D420ED845F602439D4232D2B5F5CF
:1018F000B84F16D045F601439D4218D02046FFF759
:101900005FFFD9E745F616439D4200F0A18045F6FA
:10191000DE439D42F2D1A378002BCCD002F078FEBA
:10192000C9E7A378002BC6D0FFF79CFFC3E7A378D5
:10193000002BC0D054490B78C3F3000282F001029F
:1019400062F300030B70DB074CBF5048504803F0B4
:101950001DF9B0E7A378002BD0D002F0E9FD08B95B
:1019600002F056FE02F0FCFD4A4CA5F5B845033DD9
:101970002080112D0AD8DFE805F00E12161A1E225B
:10198000262A3B3F43474B4F53575B63237843F033
:101990000103237026E0237843F00203F9E723785C
:1019A00043F00403F5E7237843F00803F1E72378D5
:1019B00043F01003EDE7237843F02003E9E72378B1
:1019C00043F04003E5E7237843F08003E1E7237821
:1019D000314823F00C0343F00C0323700022042150
:1019E00000F05CFE207802F0BEFD02F049F862E7EC
:1019F00023786FF30003CCE723786FF34103C8E744
:101A000023786FF38203C4E723786FF3C303C0E73F
:101A100023786FF30413BCE723786FF34513B8E71B
:101A200023786FF38613B4E723786FF3C713B0E717
:101A300023781A4823F00C03237000220221CFE7F9
:101A40002378C3F3C01282F0010262F3C713A0E748
:101A500002F0A4FCA278124B6AB100F0AA000028A0
:101A600015BF01220022352029201A7002F066FCE1
:101A700002F000FD1FE71B78002B14BF3520292042
:101A800002F064FCF4E700BFCD15002066A2000858
:101A900077A20008E41D0020100C0020000C00209C
:101AA0006614002000207047704700003C2250431D
:101AB000C1F30723062202FB030353FA81F3034A0F
:101AC00032F8130082B002B0704700BF0EA00008C9
:101AD000014B33F8100070478AA2000813B5ADF827
:101AE00004100199FFF7E2FF00F058F9B0F5A04F9C
:101AF00004462ED2B0F5804F80F0D480E72815D868
:101B0000E0280AD2A7280BD8A5286FD2012804D034
:101B100003B24BB1032898BF0024204602B010BD89
:101B2000BE286ED9C0285BD20024F6E7B0F5005F6E
:101B300008D2B0F5807F03D2F028F5D340F4A0445A
:101B4000A4B2EAE7B0F5405F80F0A480C0F30B00D8
:101B500048E0B0F5AA4F1CD2B0F5A84FC3B280F050
:101B6000C080B0F5A44F08D2B0F5A24FC0F09F805E
:101B70004AF2F10040EA0324CFE7B0F5A64F80F027
:101B8000A6809808012403F003039C4044EA401413
:101B90009AE0B0F5B24F0FD2B0F5B04F80F0A6800A
:101BA000B0F5AC4FC0D2C0B200F066F9040204F444
:101BB000F85444F40054B0E7B0F5B44FC0F09B8043
:101BC000A0F5C0439BB2B3F5005FADD2C0F30420D3
:101BD00000F052F9000200F4F850E4B20443E8E7E0
:101BE000C03880B2FFF774FF044696E700F090809B
:101BF00044F2830244F28203A62814BF14461C4612
:101C00008BE7A82800F08780A92800F08780AA2801
:101C100000F08780AB2800F08780AC2800F0878038
:101C2000BB2800F08780BC2800F08780AD2800F03A
:101C30008780B02800F08780AE2800F08780AF282A
:101C400000F08780B12800F08780B22800F08780FC
:101C5000B32800F08780B42800F08780B52800F012
:101C60008780B62800F08780B72800F08780B828E2
:101C700000F08780B92800F08780BD2800F08780B9
:101C8000BE2800F08780BA2844F22A6418BF4FF4B7
:101C9000884442E7C3B202054CBF43F4484443F4CE
:101CA00040443AE7C0F30B0444F4204435E7C3F35F
:101CB0008104C0F30110640144EA002403F003032B
:101CC000012000FA03F31C4344F40C4438E798085D
:101CD000012403F003039C4044EA401444F40A4402
:101CE0002EE74AF2F40444EA032416E74AF2F0002D
:101CF00040EA042424E700F00F0000F0BDF800F0F3
:101D00000F00C4F3031440F0E00040EA0424CBE7E2
:101D100044F2810401E744F2E244FEE644F2E9447D
:101D2000FBE644F2EA44F8E644F2B544F5E644F250
:101D3000B644F2E644F2B344EFE644F2B444ECE6CF
:101D400044F2B744E9E644F2CC44E6E644F2CD443A
:101D5000E3E644F28354E0E644F28A54DDE644F2DA
:101D60009254DAE644F29454D7E644F22164D4E67D
:101D700044F22364D1E644F22464CEE644F22564BE
:101D8000CBE644F22664C8E644F22764C5E644F292
:101D90006F44C2E644F27044BFE6000082281AD0C5
:101DA0000CD8312856D004D829284CD02A2858D00D
:101DB0007047352840D039280DD07047E32822D00D
:101DC00004D8E0280ED0E22813D07047E62823D0AC
:101DD000E7282BD07047274B1B7813F0030F18BF51
:101DE000E0207047234B1B7813F0010F18BF3920F8
:101DF0007047204B1B7859071DD513F0100F14BFE7
:101E00000020E32070471B4B1B785A0730D413F097
:101E1000100F18BF00207047164B1B7819070AD502
:101E200013F0100F14BF0020E7207047114B1B78F0
:101E30001A07ECD5E62070470E4B1B7813F0200FE5
:101E400018BF292070470B4B1B7813F0200F18BFC9
:101E500035207047074B1B7813F0400F18BF2A201E
:101E60007047044B1B7813F0400F18BF31207047A8
:101E7000E2207047E41D0020164B1B78590707D558
:101E800000F01802082A12D100F0F70040F0040018
:101E90001A0707D500F01802182A11D100F0E70040
:101EA00040F01400DB0648BF00F0E700704700F088
:101EB0001402042A04BF00F0FB0040F00800E7E72A
:101EC00000F01402142A04BF00F0EB0040F01800E8
:101ED000E8E700BFE41D002008B54538FEF77EFBAB
:101EE0000022084BFEF70EFD02460B4600204FF085
:101EF000804106F0CDFE0022034BFEF7D9FBFEF732
:101F000087FE08BD0000284000807B4008B545F6EC
:101F10001D43984205D18B7873B300F0EDFD00208E
:101F200008BD45F61E43984204D18B7823B300F0D8
:101F3000F1FDF4E745F61F43984206D18B78DBB1FB
:101F400000F0D2FD0028F2D1E7E745F62A43984297
:101F500009D18B7883B100F0EDFD00220421074800
:101F600000F09CFBDBE745F62B43984204D18B78CD
:101F700013B100F0E5FDF0E70120D1E7480C0020A7
:101F800008B5FFF7A9FF0F21BDE8084000F036BDF6
:101F900008B5FFF7A1FFBDE8084000F0BBBC00F0AA
:101FA0006DBC7047084B186801301860074B8B42B6
:101FB0000BBF074B074919680B680BBF89189B18A3
:101FC00019600B60704700BFB814002096A200088B
:101FD000B0140020B41400202DE9F04FBF4B87B09F
:101FE0001A780393002A00F01B81BD4B1C68002C5B
:101FF0009A4640F31581012CDFF82CB3B94D4FF010
:10200000000800F0A2804146DBF80000FFF7F2F87C
:10201000002800F03182B44B023C1B7855F8246054
:10202000B24C002B00F02682276841463846FFF765
:10203000E1F8002840F0D68131463846FFF7E4F851
:10204000002800F0CF813146A948FEF7F3FFA949E7
:10205000FEF7F0FF4FF07C51FEF738FFFEF7D0FAA5
:1020600002460B4600204FF0804106F011FE02466A
:102070000B463846CDE90423FEF7C2FACDE900014C
:102080003046FEF7BDFADDE90423FEF711FB0246F8
:102090000B46DDE90001FEF77DFD002800F0A2817E
:1020A000D4F8009094484946FEF7C4FF9149FEF7E2
:1020B000C1FF4FF07C51FEF709FFFEF7A1FA02467F
:1020C0000B4600204FF0804106F0E2FD06460F4629
:1020D0004846FEF795FA32463B46FEF7E9FAFEF728
:1020E00097FD206020688549854C0B884FF6FF726C
:1020F00093421CBF01330B8000F028FD8149064646
:10210000FFF782F8002840F0B981236803EB8303CE
:1021100003EB830330469F00FFF7C4F8BFB280B2E1
:10212000B84200F0AD8178493046FEF7CFFEFFF7A8
:10213000B9F82060754805F020F97149734805F039
:10214000FCF80221714805F00AF9DBF80060DAF8C2
:10215000007000213046FFF775F8002800F09581E7
:10216000012FDFF8C89125DDDFF8C4A1D9F80030D0
:10217000DAF800B093FBF7F407FB14344FF07E510C
:10218000C9F800405846FEF799FD3146CAF80000EC
:1021900055F82400FEF74EFF01465846FFF752F867
:1021A00040B1013494FBF7F307FB1344C9F8004036
:1021B000CAF80080D9F8003055F823004F49544D33
:1021C0000B884FF6FF7293421CBF01330B8000F067
:1021D000BDFC4C490646FFF717F8002840F0FF8188
:1021E0002B6803EB830303EB830330469C00FFF76C
:1021F00059F8A4B280B2A04200F0F38142493046BF
:10220000FEF764FEFFF74EF82860424805F0B5F887
:102210003F49404805F091F802213E4805F09FF8FB
:102220003D4E3378002B00F0D2803C4DDFF8E0903B
:102230002C6800212046FFF705F800283AD02F4AE5
:1022400013884FF6FF718B4218BF0133204618BF29
:10225000138000F07BFCD9F8003003EB830303EB21
:1022600083039C000746FFF71DF8A4B280B2A0428A
:1022700020D02549224C3846FEF728FEFFF712F8F9
:102280000746C9F80000234805F077F8204921489F
:1022900005F053F802211F4805F061F81B4827603C
:1022A00005F06BF82146194805F047F80221174858
:1022B00005F055F81A4F1B4C3888013080B2388031
:1022C000FEF7B0FD4FF0824180462068FEF7FEFD2C
:1022D000D9F8003003EB83032CE000BFC0140020CA
:1022E000CC14002070140020680C002094140020EE
:1022F0000000DCC3000040410000DC436C140020FF
:102300007C0C00200024F4410000C84284220020FC
:102310006C0C002074220020C114002098140020AE
:10232000A01400209C140020C4140020C814002015
:10233000BC14002003EB83039B009BB20146002BDF
:1023400000F05481B24B1B78002B40F04F814FF0CE
:102350007E51FEF7B1FC4146FEF760FF003018BF2A
:102360000120002833D0AB4BAB491A8809880132D1
:1023700092B291421A8008D8A84A92F80080B8F127
:10238000000F00F0378100221A80A54AB3F80080C0
:10239000D2F800909E4A1178002940F05581012121
:1023A000117008F1FF3292B21A8059F8328009EBAD
:1023B000C20340469968FEF71DFF4FF07E53002888
:1023C00000F0238100222A60236000233B80954B8C
:1023D0001B78C3F3000313F0FF0F02BF039A33709F
:1023E00013700FE1276800213846FEF703FF00282D
:1023F00039D1DAF80030023B384655F823603146CF
:10240000FEF720FF78B331468748FEF713FE874971
:10241000FEF710FE4FF07C51FEF758FDFEF7F0F886
:1024200002460B4600204FF0804106F031FC024688
:102430000B463846CDE90423FEF7E2F8CDE900016A
:102440003046FEF7DDF8DDE90423FEF731F90246F8
:102450000B46DDE90001FEF7BBFB20B1D4F800908C
:102460007348494620E6DAF80030023B55F823303D
:10247000236037E6266035E6404634E66D4E52E688
:102480006D4804F07AFF214658E67B1E6B4C55F8E8
:1024900023B06B4B1B78002B00F09E802668002138
:1024A0003046FEF7A7FE002851D159463046FEF7C8
:1024B000ABFE00284BD059465D48FEF7BBFD5B499B
:1024C000FEF7B8FD4FF07C51FEF700FDFEF798F8DF
:1024D00002460B4600204FF0804106F0D9FB8046B3
:1024E00030468946FEF78CF8064658460F46FEF7FA
:1024F00087F842464B46FEF7DBF802460B4630466D
:102500003946FEF747FB10B3256847482946FEF7D2
:1025100091FD4649FEF78EFD4FF07C51FEF7D6FC4B
:10252000FEF76EF802460B4600204FF0804106F0A1
:10253000AFFB06460F462846FEF762F832463B469A
:10254000FEF7B6F8FEF764FB2060206836E62668E2
:1025500000213046FEF74EFE002836D1DAF8003072
:10256000013B304655F823B05946FEF76BFE60B389
:1025700059462D48FEF75EFD2C49FEF75BFD4FF0F6
:102580007C51FEF7A3FCFEF73BF802460B46002009
:102590004FF0804106F07CFB804630468946FEF7CE
:1025A0002FF8064658460F46FEF72AF842464B4695
:1025B000FEF77EF802460B4630463946FEF708FB2A
:1025C00018B125681A482946A1E7DAF80030013B1E
:1025D00055F823302360B8E7C4F800B0B5E7154ECE
:1025E0000CE6184804F0C9FE294612E64046FEF7FC
:1025F0001FFEB3E6134804F0C0FE0F4804F0BDFE12
:1026000086F8008007B0BDE8F08FC5F80080DBE6F3
:10261000A21400206A140020A4140020AC1400208E
:10262000A8140020671400200000DC430000404193
:102630000000DCC3F628F44184220020901400201E
:10264000680C002074220020002313700D4A1380B0
:1026500059F838302B600C4B1878FEF7DFFB0B492C
:10266000FEF7E8FC09EBC80805464FF07A51D8F8A8
:102670000400FEF72BFC01462846FEF727FC2060ED
:10268000A3E600BF6C1400209C0C00200000C84290
:10269000014804F0C5B800BF48A400082C4B1B78C3
:1026A00070B504460E4615460BB900F079F8294B73
:1026B0001B78DB074BD5284B1B780BB100F0DEF8FD
:1026C000264B01221A70264B1C60264B1E80264B7F
:1026D0001D70264B00221A60254B226800251D80A4
:1026E000244B1A60244B1878FEF798FB2349FEF719
:1026F000A1FC4FF07A5106466068FEF7E7FB014601
:102700003046FEF7E3FB1E4B1E4918601E4B1F4868
:102710001D8004F012FE02211C4804F020FE1C481B
:1027200004F02BFE1B491A4804F007FE022118484A
:1027300004F015FE184804F020FE1849164804F06D
:10274000FCFD02211448BDE8704004F008BE70BDD5
:102750006814002067140020C0140020C114002059
:10276000A8140020A4140020AC140020BC140020E5
:102770006A140020981400209C0C00200000C8421D
:102780009C1400208C0C0020A01400209422002017
:10279000742200206C0C0020842200207C0C00207D
:1027A00038B5274C2278002A48D101F0C1FE08B97B
:1027B00001F02EFF01F0DBFE224D032228701021D4
:1027C0004FF0904005F002FD032220214FF0904091
:1027D00005F0FCFC1C491D4804F08BFD1C491D48FC
:1027E00004F087FD1C491D4804F0A7FD02211B4889
:1027F00004F0B5FD1A491B4804F09FFD0221194859
:1028000004F0ADFD6423184A1849104804F07FFD18
:102810006423174A17490F4804F079FD01232370F8
:102820002B78DB0706D5002204211348BDE8384089
:10283000FFF734BFBDE8384000F020B838BD00BF16
:1028400068140020671400208AA20008802100205C
:1028500090A20008AC2100206C0C00207422002003
:102860007C0C00208422002096A2000828A40008E6
:102870005EA3000838A40008A40C0020174B1B78A6
:10288000DB0710B502D5164802F080F9154B1B780E
:102890000BB9FFF785FF144B144800241C6004F0AB
:1028A0006CFD134804F069FD124804F066FD124BFC
:1028B00012481C70124B13491C70134B00221A60F3
:1028C000124B1A60124B1C600823013B13F0FF03EC
:1028D00040F8042B41F8044BF7D110BDCD15002072
:1028E00073A4000868140020CC1400207422002077
:1028F0008422002094220020C114002070140020A3
:10290000C0140020D414002090140020941400203F
:10291000D0140020F8B52B4B1B78DB07074605D5F4
:10292000FEF79AFC0146284802F030F9274E33782A
:10293000002B38D0264B1B780BB9FFF731FF254D04
:102940000724394655F82400FEF754FC002835D0FA
:10295000214A0021A700002045F8241042F8240055
:10296000EB193A44072C1FD11C4B1A68013A48BF97
:1029700000221A601C681A4B1A68A242A4BF0022E7
:102980001A6084B9174804F0F8FC174804F0F5FC05
:10299000164804F0F2FC164A347000231360154AFE
:1029A0001360154B1C60F8BD5D681D6055681560AF
:1029B000013443F8041F42F8040FD3E714F1FF3445
:1029C000BFD2D1E7CD15002088A40008C014002094
:1029D0006814002070140020D4140020CC140020AF
:1029E000C814002074220020842200209422002099
:1029F0009014002094140020D01400202A4B1B783F
:102A0000DA0770B506460D4606D5FEF725FC2A46C0
:102A10000146264802F0BAF8254B1B780BB9FFF7A0
:102A2000BFFE244B1B78DB073CD5234C2368072BC8
:102A300038DC224B1B780BB1FFF720FF204B012223
:102A40001A70204B00221A8000213046FEF7FAFB54
:102A500040B123681C4A42F823601C4A42F82350C4
:102A6000013323601A491B4804F067FC022119480E
:102A700004F075FC184804F080FC1849164804F06E
:102A80005CFC0221144804F06AFC154804F075FC53
:102A90001449134804F051FC02211148BDE870406C
:102AA00004F05DBC70BD00BFCD15002054A400082B
:102AB0006814002067140020CC140020C1140020EA
:102AC000C01400206C14002070140020D4140020C6
:102AD0008C0C002094220020742200206C0C00201A
:102AE000842200207C0C0020024B187800F00100AA
:102AF000704700BF6714002008B5054B187840F0F8
:102B00000100187001F036FDBDE80840FFF749BA32
:102B10006714002008B5FFF7B1FE054B18786FF376
:102B200000001870C0B2BDE8084001F023BD00BF2E
:102B300067140020014B00221A707047F414002023
:102B4000014B00221A707047F4140020064B1B78CA
:102B500043B9064A1370064B4FF07C521A60054B7E
:102B600000221A60704700BFF4140020680C002097
:102B7000A00C0020C4140020024B1B780BB1FFF7FF
:102B80000EBA7047F614002008B5FFF7F5FF044BA6
:102B9000044800221A700821BDE80840FFF77EBDF6
:102BA000F6140020E80D0020034B04480022082101
:102BB0001A70FFF773BD00BFF5140020C40C00208D
:102BC00010B5FFF7D9FF084A08481378013303F01E
:102BD00003031370282404FB030000220521BDE831
:102BE0001040FFF75BBD00BF440D0020480D0020E2
:102BF000F8B5174B1B788BB1164C208840B901F003
:102C00004BFE2080144C154D227842B1531E08E033
:102C100001F047FE124B1B888342F0D3F8BD2B789E
:102C2000013B104E317849B10F49C85C8F5CFFF70A
:102C3000AFF9337813B13846FFF7A2F92378297832
:102C40000133B3FBF1F201FB12332370E6E700BF5F
:102C5000081500200C15002009150020071500207C
:102C60006C0E0020F6140020F714002070470000BE
:102C700008B5054B054801221A7008210022FFF70C
:102C80000DFDFFF7F3FF08BDF61400202C0E002009
:102C90007047000008B5054B054801221A7008214D
:102CA0000022FFF7FBFCFFF7F3FF08BDF51400203F
:102CB000040D00202DE9F04145F6264398428AB0E4
:102CC000044606D18B78002B3ED0FFF7D1FF0020C1
:102CD00053E045F62743984205D18B78002B33D03B
:102CE000FFF752FFF3E745F62843984206D1634BBE
:102CF0008A781B7842B3002BF2D1E6E745F62C43E5
:102D0000984204D18B78FBB1FFF7C4FFDFE745F6AB
:102D10002D43984204D18B78B3B1FFF745FFD6E736
:102D200045F62E43984206D18B786BB1544B1B78F5
:102D3000002BF2D1E8E745F62943984204D18B787D
:102D400013B1FFF73DFFC2E74C4B1A7822B94C4B49
:102D50001B78002B00F090808E78002E3DD0E02C68
:102D60000ED1FFF709FF474B01221A70464B002096
:102D70001870464B1870464B18700AB0BDE8F081C9
:102D8000E22C0BD1FFF7F8FE3E4B1A7812B13E4A07
:102D900001211170002018703C4BEDE7E32C0FD19E
:102DA000394B1B78CBB1FFF7E7FE364B002018708C
:102DB000364B01221A70374B1870374B1880DCE7FE
:102DC000522C04D1354A13880A3B13807FE7512CDB
:102DD00003D1324A13880A33F7E74B783048097831
:102DE000062505FB030313F801C02E4B1D782E4B5F
:102DF0001B6824351D442D4B1B78EDB29BB96544EF
:102E0000EDB29EB312B12846FFF7BAF81D4B1B78FE
:102E10002BB11F4A26491378CD5401331370B4FAED
:102E200084F04009A9E7234B01AF03F1200818689B
:102E30005968BE46AEE80300083343457746F6D1ED
:102E40001988AEF800109B788EF802300C21BCFB7C
:102E5000F1F303EB430001FB13C30AA951FA83F317
:102E600005EB800513F8243C1D44C9E7002AD6D0A1
:102E70002846FFF78DF8D2E701207EE7F614002000
:102E8000F51400200B1500200A150020081500205D
:102E900007150020091500200C1500206C0E0020DD
:102EA000D19F00086E0E0020280E0020440D002047
:102EB000F7140020889F0008704708B5FFF7FCFF53
:102EC00008BD000010B50C4C20224FF48051204664
:102ED00005F07CF920224FF40051204605F076F9E8
:102EE000226923691B0BC2F3003203F00203134370
:102EF000024A137010BD00BF000400480E150020E8
:102F0000184B1A691B6910B51B0BC2F3003203F092
:102F100002031343144A154C117843EA8103DBB2D0
:102F20001370134A03F00F03D35C227813445BB28F
:102F3000032B237003DD00210846FFF7BEFF94F941
:102F40000030033303DA01210020FFF7B6FF94F9C4
:102F500000305A4202F0030203F0030358BF534209
:102F6000237010BD000400480E1500200F1500202E
:102F7000A0A40008F8B5154682781F460C46294BD8
:102F800092B1197001F088FC274B188004F12003DE
:102F9000DBB2072B44D804F007040120A040C0B2E4
:102FA000BDE8F84000F01FBB1E788E422ED11E4BAC
:102FB000188801F076FCC72828D8AE4205F1200415
:102FC00015D006F12003DBB2072B06D806F0070662
:102FD0000120B040C0B200F00FFBE3B2072B06D8CF
:102FE00005F0070301209840C0B200F0FCFA384613
:102FF000E4B200F0E9FA072C12D805F00705012029
:10300000A840C0B2BDE8F84000F0F6BA04F12003D1
:10301000DBB2072B04D804F007040120A040F0E73E
:10302000F8BD00BF101500201215002008B545F6A8
:10303000F04203469342084626D012D845F6D842BD
:1030400093421DD045F6D94293422DD045F6D74242
:1030500093420FD1E12226231146FFF78BFF002078
:1030600008BD45F6F242934216D011D345F6F3421D
:10307000934215D08078D0B10E4B00221A70EFE742
:103080002723E522E521E8E72623E122E021E4E702
:103090002723E522E421E0E72623E122E221DCE701
:1030A0002723E522E621D8E728230122EAE70120A9
:1030B000D6E700BF10150020014B1860704700BF15
:1030C00014150020024B186808B1036818477047B0
:1030D00014150020F8B5194B1B680546002B2BD0A2
:1030E000174A127842B1174A92F90020002ABFBF4E
:1030F0000278427005220270134C5B68284698479C
:103100002378580718D5D90702D5104801F03EFD9D
:103110000F4F00262378DA0703D5A95D384601F062
:1031200035FD0136082EF5D12378DB0704D5094893
:10313000BDE8F84001F02ABDF8BD00BF141500201D
:10314000D00F0020E41D0020CD150020B0A4000801
:10315000C2A4000884A90008034B1B681BB102210C
:1031600001709B681847704714150020054B19889B
:10317000814205D01880044B1B680BB1DB681847EF
:10318000704700BF1A15002014150020054B198840
:10319000814205D01880044B1B680BB11B6918478E
:1031A000704700BF181500201415002070477047A5
:1031B00008B5FFF7FCFF08BD704708B5FFF7FCFF37
:1031C00008BD08B5FFF7F2FFFFF7F2FF08BD0120C9
:1031D000704708B501F02CFBFEF720F901F074FEF2
:1031E000FFF7EBFF08BD000038B50E4C237805460D
:1031F000580711D5D9070FD50B4801F0C7FC237824
:10320000DA0709D52946094801F0C0FC2378DB0715
:1032100002D5074801F0BAFC2846BDE83840FEF761
:103220001CBB00BFCD150020C8A40008DBA400080B
:1032300084A900082DE9FF47FEF788F9FFF7C7FFCB
:1032400000284ED0DFF8CC90DFF8CC8000244E462A
:10325000E7B23846FEF778FA19F8015B85428246F4
:103260003CD098F80030980701D5FEF773FA85EA4C
:103270000A050023EDB245FA03F1C907DAB22AD5EF
:1032800001259D401AEA050F14BF012300238DF884
:1032900000208DF802308DF8017001F0FDFA40F049
:1032A00001006B46ADF8040093E8030000F036F827
:1032B000335D6B403355164C02F0E8F8FFF702FF20
:1032C0002378834220D0FFF7FDFE207004B0BDE8D4
:1032D000F047FFF789BF0133062BCCD101340A2C0C
:1032E000B6D14FF6FF73ADF8083000238DF80A30E1
:1032F00001F0D2FA40F00100ADF80C0004AB13E984
:10330000030000F00BF8D6E704B0BDE8F08700BF7B
:103310001C1500201D150020CD15002084B06B4623
:1033200083E803000022ADF80E2093E8030004AB0D
:103330000290ADF80C1013E9030004B000F01EBEBB
:10334000008800F0CBBF10B50446002800F0DE80F6
:10335000822814D1FFF7B6FE810700F1D78039200B
:1033600000F0ECFF01F086F842F2107003F06BFC05
:10337000392000F0EBFFBDE8104001F07BB8832856
:103380000FD1FFF79FFEC20700F1C080532000F06D
:10339000D5FF01F06FF842F2107003F054FC532097
:1033A000E7E784280FD1FFF78DFE430700F1AE80D9
:1033B000472000F0C3FF01F05DF842F2107003F007
:1033C00042FC4720D5E7031FDBB2A02B08D802F050
:1033D000E9FB002840F09A80204600F0AFFFCAE7E2
:1033E00000F12003DBB2072B07D800F0070401200F
:1033F000A040C0B200F0D8FFBDE700F15B03DBB234
:10340000022B0BD8A52807D0A6280CBF822083202A
:10341000BDE81040FFF7AABE8120F9E700F158038C
:10342000DBB2162B6AD8A82832D0A92832D0AA2815
:1034300032D0AB2832D0AC2832D0BB2832D0BC2816
:1034400032D0AD2832D0B02832D0AE2832D0AF281A
:1034500032D0B12833D0B22834D0B32835D0B428F4
:1034600036D0B52837D0B62838D0B72839D0B828C4
:103470003AD0B9283BD0BD283CD0BE283CD0BA2891
:1034800040F22A2018BF0020BDE81040FFF77EBEA2
:10349000E220F9E7E920F7E7EA20F5E7B520F3E7CE
:1034A000B620F1E7B320EFE7B420EDE7B720EBE774
:1034B000CC20E9E7CD20E7E740F28310E4E74FF4C2
:1034C000C570E1E74FF4C970DEE74FF4CA70DBE77F
:1034D00040F22120D8E740F22320D5E74FF40970CD
:1034E000D2E740F22520CFE740F22620CCE740F299
:1034F0002720C9E76F20C7E77020C5E7EF2805D967
:1035000001F068FEBDE8104001F05CBF10BD08B5D9
:10351000002858D082280FD1FFF7D4FD810752D55B
:10352000392000F00BFF00F0A5FF392000F00EFF5E
:10353000BDE8084000F09EBF83280AD1FFF7C2FD16
:10354000C20740D5532000F0F9FE00F093FF53204E
:10355000ECE784280AD1FFF7B5FD430733D54720B0
:1035600000F0ECFE00F086FF4720DFE7021FD2B23A
:10357000A02ADBD900F12002D2B2072A07D800F036
:10358000070301209840C0B200F016FFD0E700F119
:103590005B02D2B2022A04D80020BDE80840FFF73F
:1035A000E5BD00F15802D2B2162A04D80020BDE8C9
:1035B0000840FFF7EBBDEF2805D901F07FFEBDE81D
:1035C000084001F0FFBE08BD10B50446FFF7BBFE82
:1035D000392C03D144F6206003F035FB2046BDE8CA
:1035E0001040FFF794BF08B528B100F0DDFEBDE83C
:1035F000084000F03FBF08BD08B528B100F0DCFE70
:10360000BDE8084000F036BF08BD00002DE9F843D2
:1036100090F80690857807460C464FEA19190DB1C7
:1036200000F0E8FE00F0B0FE804670B11DB304F17A
:103630002003DBB2072B1ED9022000F061FF00F04F
:10364000A3FE80F001005FFA80F8C4F303330F2B70
:1036500045D8DFE813F0130013006D006D00B700CC
:10366000CC00440044000001440057015701C4014C
:1036700044004400CD014FF00008E6E7C4F30723FF
:10368000C4F3032613F0F00F18BF36015FFA84F974
:10369000A5B166B109F12003DBB2072B304602D990
:1036A000B9F1000F07D100F07FFE00F0E3FE4846BD
:1036B000FFF749FE13E000F08DFEF6E74846FFF7FE
:1036C00026FF66B109F12003DBB2072B304602D991
:1036D000B9F1000F29D100F06FFE00F0CBFEC4F36A
:1036E00003340B2C09D8012303FA04F414F4506FAB
:1036F00003D0FFF7E7FCFEF7B0F8B8F1000F00F0D9
:103700007E8100F039FE10F0010040F07881B87041
:1037100000F02AFE00F03EFD384600F075F900F09A
:1037200023FEBDE8F84300F03FBD00F05BFED4E7A8
:10373000C4F3072303F0F003C4F30326202BE0B205
:1037400018BF360160B101282CD0ADB3B9F1000F1C
:103750002CD0BB79D907ABD56FF30713BB7125E02C
:103760009DB1B9F1000F06D100F060FE3043C0B248
:10377000FFF739FFB3E7B9F1010FF5D100F056FEBD
:103780003043C0B200F05EFEA9E7B9F1000F05D1E9
:1037900000F064FE3046FFF72FFFA0E7B9F1010FFC
:1037A0009DD0F5E725B1B9F1050F98D83046DFE790
:1037B000B9F1040F93D8EDE7B9F1000FEAD0FFF7A4
:1037C000A6FE8CE7C4F381233BB1012B87D165B101
:1037D000C4F30900FFF7DAFC81E725B1C4F309005F
:1037E000FFF7C4FC7BE72846FAE72846F2E7E0B299
:1037F000CDB1F5280DD0F62810D0F42804D1814A97
:10380000136843F00103136001F0E4FC01F0DAFDFA
:1038100065E77C4A136843F00203F4E7794A1368CA
:1038200043F00403EFE7F5280BD0F6280ED0F42878
:1038300004D1744A136823F00103136001F03EFDC4
:10384000E4E7704A136823F00203F6E76D4A136851
:1038500023F00403F1E714F4407F25D1002D7FF419
:103860003EAFE206C4F3421048BF0F254FEA800086
:1038700048BF854004F00F03C4F3812248BFED43E5
:103880008340022A45EA030008D00AD8012A02D060
:1038900000F056FC23E700F04BFC20E700F058FC5A
:1038A0001DE700F042FC1AE7C4F30122D3B2F5B1E0
:1038B00002F00103002B3FF412AFC4F34210830067
:1038C00004F00F0000FA03F214F010001CBF0F20E8
:1038D0009840C4F3812318BFC043022B40EA020082
:1038E0000AD00CD8012B04D000F07CFCF7E65B0872
:1038F000E0E700F06FFCF2E600F07CFCEFE600F0A1
:1039000035FCECE6E6B2A6F1E003142B50D8DFE874
:1039100003F00B0B0B0B0B0B0B0B0B0B0B0B0B0B1A
:103920000B0B16232930390006F00F06C4F30420D0
:1039300015B100F02FFC39E700F036FC2AE745B15D
:10394000B9F1040F3FF6CBAEC4F3042000F038FC0D
:10395000C5E6B9F1050FF5E7C4F3042035B100F071
:1039600019FCBCE6C4F30420002DF8D000F01CFCC8
:10397000B5E625B1C4F3042000F007FCAFE600F083
:1039800001FCACE64DB1C4F30425284600F002FC6E
:103990000321284600F09AFDA1E6012000F0B0FDC9
:1039A000B9F1010F7FF69BAE022000F0A9FD96E66B
:1039B0003DB1B9F1000F01D0304679E6C4F30420DF
:1039C000CDE7B9F1000F07D0392E03D144F62060BE
:1039D00003F039F93046F2E6C4F30420C6E7C4F335
:1039E0000322E1B23846FEF75DF800F033FB76E6DD
:1039F000C4F30322E1B23846FEF756F86FE6BDE89D
:103A0000F88300BF2815002037B583880288ADF8F9
:103A100004200446C3B1BDF804204FF6FF739A4258
:103A200012D0FDF73FFF78B12188A07800F062FC4A
:103A3000054600F0E7FB00F077FB2946204603B07F
:103A4000BDE83040FFF7E2BD03B030BD08B500F07F
:103A5000D1FC00F0E5FC00F00DFD01F093FD01F05C
:103A6000B1FC0020FFF782FB0020BDE80840FFF713
:103A70008DBB08B500F072FCBDE80840FFF7E6BF5B
:103A800008B500F0A1FCBDE80840FFF7F2BFC0F3A5
:103A900003330E3303F00F020D2A10B522D8012193
:103AA00001FA02F313F4105FC4B218D140F20332EA
:103AB000134203D113F010000DD110BDF02C13D020
:103AC00004D8DF2C8CBF00200120F6E7F42C14BFB3
:103AD00000200120F1E7DF2C06D9F12CF7E7C0F335
:103AE000C020EAE70020E8E70846E6E707B5ADF8BA
:103AF0000400019800F0F2FB03B05DF804EBFFF75F
:103B0000C6BF82B002AB03E9030002B0704782B0C7
:103B100002AB03E9030002B07047000070B5094B27
:103B2000094E1C78094D3378A34200D170BD05EBD6
:103B3000C40355F8340059680134FFF7E8FF04F076
:103B40000704F0E7751500207415002034150020D7
:103B5000024B18685968FFF7DABF00BF2C15002028
:103B6000F7B5274A937913F0F00F0AD1937843B150
:103B7000244B254F1978254D4FF6FF763B788B4225
:103B800001D103B0F0BD93881088ADF80400002B7C
:103B900032D080B2B0422FD0C8002C1892F801E089
:103BA00094F801C0E64527D192F800E015F831C03D
:103BB000E64521D194F802C0BCF1000F1CD1A488C5
:103BC000A3428ABFF31AE31A1B19C72BCCBF0023E9
:103BD00001238BB19379012161F3071393712B18A2
:103BE00007489A7961F307129A71FFF70DFF03B046
:103BF000BDE8F040FFF792BF013101F00701BDE7DA
:103C00002C15002075150020741500203415002097
:103C10002DE9F043B84C06468FB0A588006821888E
:103C200008900DF1200C32787378B778B6F80480DC
:103C3000ADF80010002D00F01D8188B24FF6FF7125
:103C4000884200F0178194F80290B9F1000F00F05B
:103C5000118145458ABF4D1BA8EB05054544C72D7D
:103C6000A179CCBF0025012501F0F00E002D00F058
:103C7000BB8020884FF6FF7CBEF1000F77D16045F6
:103C8000B94618D08DF820208DF82130BDF820C01D
:103C9000844510D17FB9012363F30711A171FFF7A8
:103CA00057FF9548FFF7B0FEA379B371002528466A
:103CB0000FB0BDE8F0838DF820208DF82130BDF8DD
:103CC0002010ADF81810B8F1000F06D1002FEDD07C
:103CD000A37943F00103A371E8E79DF819109DF85B
:103CE00018008DF81D108DF81C00BDF81C004FF653
:103CF000FF718842EAD0002FEAD1804880490778D6
:103D000009788048B9420BD1089800F0E7FAC0F36F
:103D10000332C3B2032A1CD8DFE802F013132020B9
:103D200000EBC10494F801C09C4506D110F831C0E5
:103D3000944502D1A478002CB8D1013101F00701DB
:103D4000E0E710F4706F00D07BB12033DBB2072BBB
:103D50000BD93046FFF758FEA94606E010F4706F05
:103D6000F3D0B27912F0F00FEFD14D469FE76045E6
:103D700013D08DF820208DF82130BDF820C0844567
:103D80000BD157B9B1713046FFF73EFE336823605F
:103D900073686360FFF7DCFE89E78DF820208DF8FB
:103DA00021300898FFF7A2FED0B1CFB1A3791F2B25
:103DB0000CD92288ADF8282000228DF82A20ADF8F1
:103DC0002C808DF82E300AA8FFF71EFE3368236082
:103DD00073686360FFF7C4FEFFF7BAFE012566E76C
:103DE0003046FFF711FEF9E7BEF1000F11D18DF853
:103DF0002270ADF824808DF820208DF821309CE8C9
:103E00000300FFF77EFE3C48FFF7FEFD256065607E
:103E1000C0E7B4F800C04FF6FF70844510D08DF8AD
:103E200020208DF821306046BDF820C0844507D1A0
:103E300037B9B1713046FFF7E7FD2560656094E75B
:103E40008DF820208DF821300898FFF74FFE0028CC
:103E5000C6D0002FC4D0A3791F2BB7D92288ADF8C4
:103E6000302000228DF83220ADF834808DF83630C5
:103E70000CA8A9E72188ADF81010002D63D088B2F6
:103E80004FF6FF7188425ED0A07800285BD145458F
:103E90008ABF4D1BA8EB05054544C72DCCBF0025A7
:103EA0000125002D42D03D46002F99D020884FF6A5
:103EB000FF71884228D08DF820208DF821300146EE
:103EC000BDF8200088421FD1A379DA070ED413F081
:103ED000F0020BD0F02AB3713FF455AFDBB2C3F35D
:103EE0000312013262F30713B3714CE733682360A6
:103EF00073686360DBE600BF2C150020741500209A
:103F000075150020341500208DF820208DF8213003
:103F10000898FFF7EBFD00287FF458AFA3793046EF
:103F200043F00103A371FFF76FFDC0E68DF8227027
:103F3000ADF824808DF820208DF821309CE8030016
:103F4000FFF7DFFD62E7002F3FF44AAF8DF8202036
:103F50008DF821300898FFF7C9FD054600283FF489
:103F60003FAF33682360736803486360FFF7E8F985
:103F7000FFF7F6FD0EE700BF2C150020F0B587B067
:103F80006C4684E803002046FFF742FE2D4E2E4D7E
:103F9000074688B1BDF80430BDF80020ADF8102008
:103FA00043B192B24FF6FF739A4203D094E80300F4
:103FB000FFF7ADFD254C3EE094E8030004AB83E839
:103FC0000300BDF80420BDF81010ADF80C10002A55
:103FD000F0D089B24FF6FF729142EBD03478297855
:103FE000621C02F007028A420BD0184F327003CBDA
:103FF00007EBC40C47F83400CCF80410FFF78EFD33
:10400000D8E7FFF73DFD124B37702F701F605F60E0
:10401000D0E704EBC000FFF7FBFD80B12B7804EB89
:10402000C30254F833005168FFF771FD2B78013358
:1040300003F007032B70287833788342E9D107B067
:10404000F0BD00BF74150020751500203415002048
:104050002C150020F8B5034660B1002501261C464A
:1040600014F8010B732806D8042828D201280FD091
:10407000022827D0F8BD75283DD032D300F17C034B
:10408000DBB26F2BF6D800F07F00FFF740FA0EE0AE
:104090009C1C5B7803F12002D2B2072A0ED803F0F1
:1040A00007039840C0B200F0ABF900F0E3F92F46E7
:1040B000013FFFB2FF2F21D12346D0E71846FFF77B
:1040C00042F9F4E758789C1C00F12003DBB2072B7F
:1040D000DBD800F0070006FA00F0C0B200F098F953
:1040E000E3E75F789C1C013FFFB2FF2FDFD0642025
:1040F00002F0A9FDF7E79C1C5D78D8E7642002F088
:10410000A2FDD5E7704708B5FFF7FCFF08BD00002A
:1041100008B5FFF7F8FF034B1860BDE80840FFF74C
:1041200095BC00BF781500207047FFF7F1BF000075
:10413000024B1B681843FFF7EBBF00BF7815002048
:10414000024B1B681840FFF7E3BF00BF7815002043
:10415000024B1B685840FFF7DBBF00BF78150020FB
:10416000704708B5FFF7FCFF08BD000008B5FFF772
:10417000F8FF034B1860BDE80840FFF767BC00BFBD
:104180007C1500200020FFF7F1BF012303FA00F0A7
:10419000FFF7ECBF012303FA00F0024B1B68184342
:1041A000FFF7E4BF7C150020012303FA00F0034B66
:1041B0001B6823EA0000FFF7D9BF00BF7C15002071
:1041C000012303FA00F0024B1B685840FFF7CEBFF3
:1041D0007C150020024B1B681843FFF7C7BF00BFC8
:1041E0007C150020024B1B681840FFF7BFBF00BFC3
:1041F0007C150020024B1B685840FFF7B7BF00BF7B
:104200007C15002070470000C0F3072303EB430335
:1042100037B500EB430000F0FF0000F00703012278
:104220009A40C0080A4B00EB8000D2B21844002428
:10423000057821FA04F343F300036B401340013483
:104240006B40052C00F8013BF2D103B030BD00BF3C
:1042500080150020C0F3072303EB430313B500EBE5
:10426000430000F0FF0000F007040A49C00800EB1B
:10427000800000220144104611F8013BE34003F0A6
:104280000103934001321843052AC0B2F4D102B0B1
:1042900010BD00BF801500200E4B73B51E680E4B7D
:1042A000ADF804001B681F241E4326FA04F3DB0745
:1042B000E5B206D414F1FF34F7D20025284602B047
:1042C00070BD01992846FDF709FC80B20128F1D0A4
:1042D000F4E700BF7C1500207815002007B5ADF885
:1042E00004000198FFF7D8FF019903B05DF804EBD3
:1042F000FDF7F4BB13B5104BADF804101B782BB1D0
:10430000019802B0BDE81040FFF7E8BF70B1019816
:10431000FFF7C2FF044601460198FFF775FF0199B8
:10432000204602B0BDE81040FDF7D8BB0198FFF76A
:1043300091FF0446F3E700BF27150020024B01461A
:10434000186800F0DDB900BF700E0020024B014676
:10435000186800F0EDB900BF700E0020014B18681E
:1043600000F0FEB9700E0020024B93F90000C0F37C
:10437000C7007047C9150020024B187800F00700ED
:10438000704700BFC9150020034B187810F00700D4
:1043900018BF0120704700BFC9150020014B1878D5
:1043A000704700BFCB150020024A137818431070E5
:1043B000704700BFCB150020024A137823EA0000A3
:1043C00010707047CB150020014B00221A70704707
:1043D000CB150020024A137818431070704700BFB5
:1043E000CC150020024A137823EA000010707047B1
:1043F000CC150020014B00221A707047CC1500200C
:10440000024A137818431070704700BFC815002087
:10441000024A137823EA000010707047C815002084
:10442000014B00221A707047C8150020014B187804
:10443000704700BFCA150020704708B5FFF7FCFFA2
:1044400008BD000008B5044B1978814202D01870ED
:10445000FFF7F3FF08BD00BFCA15002008B5044BE5
:104460001A781AB100201870FFF7E7FF08BD00BFE7
:10447000CA15002010B50D4B0D491B7809780D4C5D
:104480000B430D49206809780B430C4903700978E8
:1044900031B10B43037000F0BDF808B1FFF7DEFF48
:1044A0002068BDE81040FEF715BE00BFCB15002008
:1044B000CC150020700E0020C8150020CA15002061
:1044C000704708B5FFF7FCFF08BD000010B5064CAB
:1044D00041EAC0012170FFF75DFE94F90000C0F3CE
:1044E000C700FFF7EEFF10BDC915002008B5034B4C
:1044F00000201870FFF7E5FF08BD00BFC9150020B8
:1045000008B50A4A92F9003023EA000040B2107060
:1045100042070AD1DBB2834207D0C0F3C700FFF7DE
:1045200043FEBDE80840FFF7E1BF08BDC915002004
:1045300008B5002000F0ABFB4FF6ED63C31A5842FC
:10454000584108BD022000F097BB0146022000F050
:104550009BBB032000F090BB0146032000F094BBFE
:10456000042000F089BB0146042000F08DBB072029
:1045700000F082BB0146072000F086BB01460F20F9
:1045800000F0A7BB0146132000F0A3BB0020FFF7FB
:10459000F9BF08B50020FFF7F1FFFFF7F7FF08BDEF
:1045A00010B500F00FFB4FF6ED61002000F08FFB1F
:1045B0000021022000F068FB00210320002400F00D
:1045C00063FB124B214604201C6000F05DFB21467A
:1045D000052000F059FB2146062000F055FBFF2185
:1045E000072000F051FB2146082000F072FB214615
:1045F0000D2000F049FB2146182000F06AFB2146FF
:10460000172000F041FBFFF7C4FF10BD7815002014
:10461000FFF7C6BF0C4B1B78821C63B10B4B93F9A1
:104620000030002BACBF06231E230020013BDBB271
:10463000FF2B02D170470623F7E712F8011B002970
:10464000F4D00130C0B2F1E7D00F0020E41D00200B
:1046500030B54FF0FF33851C002215F8014B8C421A
:104660000ED0B3F1FF3F02D1002C08BF1346013238
:10467000D4B2062C62B2F0D15A1C01D01844817019
:1046800030BD10B5831C0022083013F8014B8C425A
:1046900008BF03F8012C8342F7D110BDCA081D2AB8
:1046A00008D8104401F00703012199408378194389
:1046B00081707047034B1B78DB0702D5024800F07E
:1046C00065BA7047CD150020E0A40008CA081D2A6D
:1046D00009D8104401F0070301229A40837823EAA5
:1046E000020383707047044B1B78DB0702D5034835
:1046F00000F04CBA704700BFCD150020FEA40008A2
:1047000010B4094C247803460A463CB1074C94F98E
:104710000040002C02DA10BCFFF7C0BF114618465B
:1047200010BCFFF795BF00BFD00F0020E41D002094
:1047300010B4094C247803460A463CB1074C94F95E
:104740000040002C02DA10BCFFF7C0BF114618462B
:1047500010BCFFF796BF00BFD00F0020E41D002063
:10476000094A1278831C4AB1084A92F90020002AAB
:1047700004DA1E220021184605F03EBB0022C0F8D4
:1047800002209A80704700BFD00F0020E41D002057
:10479000704708B5FFF7FCFF08BD08B5FFF7F9FF44
:1047A00040F2A460BDE8084002F04DBA704770477F
:1047B00010B5FFF7FBFFFCF7C9FEFFF7F8FF002479
:1047C000E0B2FCF7C1FF18B901340A2CF8D110BDD2
:1047D0000120FCE7704708B5FFF7FCFF08BD08B5EE
:1047E000FFF7F2FDFFF706FEFFF7B8FD00F0CAFE87
:1047F0000020FEF7BBFC0020FEF7C8FCFFF7EBFF34
:1048000008BD0000202383F311884FF08043596ACC
:10481000002383F31188034A1160034A1360034A9B
:1048200013607047D4150020D8150020D015002043
:10483000FFF7E8BFF0B5202383F311884FF08043E2
:104840005C6A002383F311880F4D104E2B68326889
:10485000DFF840C0346023449B1A4FF47A7707FB9B
:1048600003F10B4ADCF8000001F5C3319F31B1FBC5
:10487000F2F14A43084402F2E732B2FBF7F29B1A24
:10488000CCF800002B60F0BDD8150020D415002016
:10489000A0860100D015002008B5FFF7CBFF80B23D
:1048A00008BD10B50446FFF7C5FF001B80B210BD60
:1048B000074B084A1A60BFF34F8F0749074BCA6876
:1048C00002F4E0621343CB60BFF34F8F00BFFDE7FC
:1048D000FC9F0020EFBEADDE00ED00E00400FA0515
:1048E00080B50B4A0B4B52F8041C994200AF0DD116
:1048F000002342F8043C83F31488074B1B6883F3BE
:10490000088862B6054B1B689847FEE780BD00BF6C
:1049100000A00020EFBEADDE00D8FF1F04D8FF1FAF
:10492000F0B50124B0FBF4F58D4203D200261CB98A
:104930001C70F0BD4C43F5E7B0FBF4F5B4FBF1F7A8
:1049400004FB15002EB9002D03DC8C420CD33C4631
:10495000EDE7092D08DD002A14BF372457242C4425
:1049600003F8014B0136F2E73024F8E7F0B50124F3
:10497000B0FBF4F58D4203D200261CB91C70F0BDCB
:104980004C43F5E7B0FBF4F5B4FBF1F704FB15007D
:104990002EB9002D03DC8C420CD33C46EDE7092DEB
:1049A00008DD002A14BF372457242C4403F8014B98
:1049B0000136F2E73024F8E72DE9F041069D002B9F
:1049C00006460F4614BF4FF030084FF020082B4624
:1049D00013F8010B511E08B1002A07DC1446002C05
:1049E00006DC15F8011B41B9BDE8F0810A46EFE786
:1049F00041463046B847013CF1E73046B847F0E75A
:104A00002DE9F04F87B081468A4615461C4603AF14
:104A1000297821B3252903D001354846D047F7E747
:104A20006A78302A08BFAA78A2F1300319BFAE1CF9
:104A30004FF0000BEE1C4FF0010B092B4FF000085C
:104A400015D96C2A64D1354615F8012B632A52D04A
:104A500022D8252A5AD0582A3FD0002AD8D107B0C8
:104A6000BDE8F08F0A2202FB083816F8012BA2F1EC
:104A70003003D9B20929F5D9A2F16103052B04D875
:104A8000A2F157030A2BEDD0DBE7A2F14103052B7E
:104A9000D7D8A2F13703F5E7732A31D019D8642AA1
:104AA000B6D154F8040B0028BFBF2D238DF80C306D
:104AB00040420DF10D03A8BF3B4600220A21FFF73B
:104AC0002FFF00975B46424651464846FFF774FF6A
:104AD0009EE7752A08D0782A9AD1A2F1580042425E
:104AE0003B464241102102E03B4600220A2154F895
:104AF000040BE4E7354654F8041BC9B28DE735468C
:104B000054F8043B00930023DDE73546252184E774
:104B1000632AEFD007D8252AF7D0582A1ED0002ABA
:104B20009DD0354674E7732AE9D013D8642AF8D1AA
:104B300054F8040B0028BFBF2D238DF80C304042E1
:104B40000DF10D03A8BF3B4600220A21FFF70EFF1F
:104B50003546B6E7752A0AD0782AE2D1A2F1580183
:104B60004A424A413B46102154F8040BEEE73B46CB
:104B700000220A21F8E70000024B1960024B18607E
:104B8000704700BFDC150020E01500200FB407B50A
:104B9000074908480968006804AB53F8042B0193DF
:104BA000FFF72EFF03B05DF804EB04B0704700BFC1
:104BB000DC150020E015002008B500F047F940F6AC
:104BC000FF7008BD08B5074800F0F8F8064800F087
:104BD000F5F8064800F0F2F80548BDE8084000F096
:104BE000EDB800BF00E0030800E8030800F0030888
:104BF00000F80308B0F5805F2DE9F041884602D344
:104C00000020BDE8F081460006F1006505F5783525
:104C10004FF6FF722B889A424FEAA02404D128460F
:104C200000F0EEF880B2ECE7E402124F04F1006409
:104C300004F578344FF4006221463846FCF752FB05
:104C40002B789845DCD040F2FE733340204607F8BD
:104C5000038000F0B3F80025795D61F0FF014B1C83
:104C600003D089B2601900F0CBF80235B5F5006FBA
:104C7000F2D1D7E7E415002080B2400000F10060D7
:104C800000F578300078704780B2FFF7B3BF83B289
:104C90005B0003F1006303F578331A78431C9BB281
:104CA0005B0003F1006303F57833187842EA0020D3
:104CB000704738B584B20D462046C9B2FFF79AFF57
:104CC000601C290A80B2BDE83840FFF793BFFFF7A8
:104CD000F0BF80B2F8B5471CBFB243007A0003F1C1
:104CE000006302F1006203F5783302F57832861C26
:104CF000B6B20C46197892F800C0720002F1006258
:104D000002F57832C51CADB213786A0002F1006278
:104D100002F578321B04127843EA0C230B4343EA72
:104D20000263A34212D0E1B2FFF764FFC4F307218C
:104D30003846FFF75FFFC4F307413046FFF75AFFDD
:104D4000210E2846BDE8F840FFF754BFF8BD00002B
:104D50000B4BDA68D2070CD4DA6851070BD4DA6847
:104D6000D2060AD4DB6813F0010F0CBF0520042023
:104D7000704701207047022070470320704700BF32
:104D80000020024073B50446FFF7E2FF0025FF262E
:104D900001280FD114B9062002B070BD019501960B
:104DA000019B1BB9FFF7D4FF013CF1E7019B013BDD
:104DB0000193F5E7002C08BF0620EDE738B505465E
:104DC00040F6FF70FFF7DEFF052815D10B4C236975
:104DD00043F0020323616561236943F040032361CB
:104DE00040F6FF70FFF7CEFF06281EBF236923F0B1
:104DF000020323613423E36038BD00BF002002407A
:104E0000104B00F178429A4270B505460E4616D80E
:104E10001F20FFF7B7FF052810D10B4C236943F083
:104E2000010323611F202E80FFF7ACFF06281EBF61
:104E3000236923F0010323613423E36070BD07205D
:104E4000FCE700BFFEFF070000200240034B044ABE
:104E50005A6002F188325A60704700BF0020024059
:104E6000230167452DE9F34100250746EEB23046A0
:104E7000FCF76AFC0024804648FA04F2D207E3B249
:104E800009D40134062CF7D101350A2DEED10020CA
:104E900002B0BDE8F0818DF804308DF8056001990D
:104EA0000020FCF703FE8742EBD10120F0E710B5AC
:104EB00004462C20FFF7D6FF20B12046BDE8104065
:104EC000FFF7D0BF10BD000010B5FFF731FB08B9E8
:104ED000FFF79EFB8348FFF759FE6524013C14F061
:104EE000FF0440F0D2808048FFF750FE2920FFF7F2
:104EF000DEFF002840F0F4802A20FFF7D8FF08B139
:104F0000FFF786FB0520FFF7D2FF08B1FFF7D0FCC3
:104F1000FFF718FB754C20700720FFF7C8FF68B13A
:104F20001B20FFF7C4FF002800F0B6802378C3F3EE
:104F3000400282F0010262F34103237020786C4C3E
:104F4000FFF703FBFFF70CFB2080E020FFF7AFFF2C
:104F500038B12378C3F3000282F0010262F3000348
:104F600023703920FFF7A3FF38B12378C3F3400241
:104F700082F0010262F341032370E220FFF797FF02
:104F800038B12378C3F3800282F0010262F3820316
:104F90002370E620FFF78BFF38B12378C3F3C002FC
:104FA00082F0010262F3C3032370E320FFF77FFF67
:104FB00038B12378C3F3001282F0010262F30413C4
:104FC00023703520FFF773FF38B12378C3F3401205
:104FD00082F0010262F3451323703120FFF767FF6F
:104FE00038B12378C3F3801282F0010262F3861392
:104FF00023701120FFF75BFF38B12378C3F3C01291
:1050000082F0010262F3C71323702078FFF7ABFA36
:105010002720FFF74CFF04461E20FFF748FF10B182
:1050200044F00204E4B21F20FFF741FF10B144F046
:105030000404E4B22020FFF73AFF10B144F0080462
:10504000E4B22120FFF733FF10B144F01004E4B2C2
:105050002220FFF72CFF10B144F02004E4B22320FB
:10506000FFF725FF10B144F04004E4B22420FFF71D
:105070001EFF80B364F07F04E4B22046FFF76CFAB1
:105080002046BDE81040FFF750B8FCF75FFA4FF438
:105090007A7001F0D8FD21E70E20FFF708FF38B144
:1050A0002378C3F3800282F0010262F3820344E7B3
:1050B0001020FFF7FCFE237830B1C3F3C00282F06A
:1050C000010262F3C30338E7C3F3000282F0010276
:1050D00062F3000331E7002CCFD1FFF73AFAD0E7B3
:1050E00010BD00BF1CA5000831A50008CD1500208B
:1050F000E41D0020194B1B78D90709D5184B1878E7
:1051000000EB800080087F2824D828B3C0B2704705
:105110009A0705D5124B187800EB80004008F2E79B
:105120005B0704D50E4B187800EB8000EBE70D4BC6
:105130001B786BB10C4A0A49127808789342F3D273
:1051400010FB03F000EB8000B0FBF2F080B2DAE776
:105150000520DBE77F20704701207047EE1D00200F
:10516000760E0020EF1D0020770E0020154B1B78D7
:10517000D90705D5144B1878800800B3C0B2704722
:105180009A0703D5104B18784008F6E75B0705D55A
:105190000D4B18787F28F0D97F2070470B4B1B7878
:1051A0005BB10B4A084912780878934236BF10FB6E
:1051B00003F080B2B0FBF2F0ECE70120DEE7012063
:1051C000704700BFEE1D0020780E0020EF1D00206C
:1051D000790E0020F02808B505D1FFF78BFF40427B
:1051E000344BD87008BDF12802D1FFF783FFF7E7F1
:1051F000F22805D1FFF77EFF40422E4B9870F1E771
:10520000F32802D1FFF776FFF7E7F92804D1FFF77B
:10521000ADFF284B1871E5E7FA2803D1FFF7A6FF89
:105220004042F6E7FB2805D1FFF7A0FF4042214BA3
:105230005871D7E7FC2802D1FFF798FFF7E7F42869
:1052400005D11C4A537843F001035370CAE7F5288F
:1052500004D1184A537843F00203F6E7F62804D144
:10526000144A537843F00403EFE7F72804D1114AB6
:10527000537843F00803E8E7F82804D10D4A53783F
:1052800043F01003E1E7FD2805D10B4A137843F002
:1052900001031370A6E7FE2804D1074A137843F0F0
:1052A0000203F6E7FF289DD1034A137843F0040375
:1052B000EFE700BFE81D0020EE1D00203E4BF02868
:1052C00093F9022007D193F90310002901DA002194
:1052D000D9706AB17047F12804D193F903100029FD
:1052E000F5DCF6E7F2280CD1002AF2DA00229A70F7
:1052F000DA7819795B790A431A43EBD12F4B1A708C
:105300007047F32802D1002AF0DCE2E7F92806D141
:1053100093F904100029DCDD00211971D9E7FA287E
:1053200004D193F904100029D3DAF5E7FB2806D15C
:1053300093F905100029CCDA00215971C9E7FC283E
:1053400004D193F905100029F6DCC2E7F42804D152
:10535000597821F001015970BBE7F52803D159783C
:1053600021F00201F7E7F62803D1597821F0040172
:10537000F1E7F72803D1597821F00801EBE7F82885
:1053800003D1597821F01001E5E7FD2805D10C483B
:10539000017821F0010101709BE7FE2804D1084843
:1053A000017821F00201F6E7FF2892D10448017844
:1053B00021F00401EFE700BFE81D0020EF1D0020F1
:1053C000EE1D0020234B1B781B0710B53AD5224C4D
:1053D0002248FFF7DBFB61782148FFF7D7FB214824
:1053E000FFF7D4FB94F902101F48FFF7CFFB1F48CB
:1053F000FFF7CCFB94F903101B48FFF7C7FB1B48D2
:10540000FFF7C4FB94F904101748FFF7BFFB1748D8
:10541000FFF7BCFB94F905101348FFF7B7FB1448DE
:10542000FFF7B4FB134B14481978FFF7AFFB134891
:10543000FFF7ACFB124B10481978FFF7A7FB114898
:10544000FFF7A4FB0448FDF787FEFFF725FA0E4B94
:10545000188010BDCD150020E81D002038A50008DB
:10546000DBA400085BA5000870A400082FA50008B5
:105470005DA50008EF1D002060A5000863A50008D9
:10548000EE1D002083A90008E61D0020F8B5384B6A
:105490001888FFF706FA37490A7892B1364B1B781D
:1054A00098420DDB354C94F9023094F9037094F96D
:1054B000045094F9056053B947EA0500304354D1CC
:1054C000F8BD2F4B1B7803EB83035B00E8E7FF2A53
:1054D00001D001320A70002B02DDFFF70BFEA07035
:1054E00094F90230002B03DAFFF704FE4042A0706B
:1054F000002F02DDFFF7FEFDE07094F90330002B72
:1055000003DAFFF7F7FD4042E07094F9022072B130
:1055100094F9031059B1B5235A43121203FB01F356
:1055200008BF01221B1208BF0123A270E370002DE7
:1055300002DDFFF71BFE207194F90430002B03DA23
:10554000FFF714FE40422071002E02DDFFF70EFE31
:10555000607194F90530002B03DAFFF707FE404233
:105560006071BDE8F840FFF72DBFFF2AB1D1BFE75A
:10557000E61D0020EF1D0020750E0020E81D002014
:10558000740E0020044A002313609380034A1370B2
:10559000034A1370704700BFE81D0020EF1D002074
:1055A000EE1D002008B50548FFF7F0FA012205219D
:1055B0000348BDE80840FFF7E9BA00BF0DAB00089B
:1055C00008AC00080138052841D8DFE800F0030ED8
:1055D00018222C361E4A1F4813781944FE29D4BFBE
:1055E000C9B2FF211170FFF7D1BA1B4A1B481378CB
:1055F0001944FE29D4BFC9B2FF211170F3E7184A3C
:10560000184813781944FE29D4BFC9B2FF2111707C
:10561000E9E7154A154813781944FE29D4BFC9B2E1
:10562000FF211170DFE7124A124813781944FE294E
:10563000D4BFC9B2FF211170D5E70F4A0F481378C4
:105640001944FE29D4BFC9B2FF211170CBE77047BE
:10565000740E002056AC0008750E002065AC0008E2
:10566000760E002077AC0008770E00208AAC000888
:10567000780E00209FAC0008790E0020B8AC00081E
:105680000138052841D8DFE800F0030E18222C3637
:105690001E4A1F4813788B4286BF591AC9B200218F
:1056A0001170FFF773BA1B4A1B4813788B4286BFF1
:1056B000591AC9B200211170F3E7184A1848137833
:1056C0008B4286BF591AC9B200211170E9E7154A09
:1056D000154813788B4286BF591AC9B20021117040
:1056E000DFE7124A124813788B4286BF591AC9B2B3
:1056F00000211170D5E70F4A0F4813788B4286BFFF
:10570000591AC9B200211170CBE77047740E0020FE
:1057100056AC0008750E002065AC0008760E00201F
:1057200077AC0008770E00208AAC0008780E0020C5
:105730009FAC0008790E0020B8AC000810B50146F7
:1057400004460548FFF722FA0120A040FEF7EDFCD1
:10575000BDE81040FEF794B9D3AC0008431F10B564
:105760003E2B00F2A481DFE813F00501F6001101E1
:105770003F00A201A201F400A201A2013A01A2018C
:1057800049018901A201A201A201A2016901A201AC
:10579000A2015801A2012601A201A201A001A001BB
:1057A000A001A001A001A001A001A001A0019901F8
:1057B000A2010501ED00A201A201A201A201A20124
:1057C000A201A201A201A201A2019901A201A201CA
:1057D000F400A2019D019D019D019D019D019D017E
:1057E0009D019D019D019901B348FFF7CFF9B34891
:1057F000FFF7CCF9FEF7ADFE0146B148FFF7C6F959
:10580000B048FFF7C3F9FEF79DFE0446AE48FFF728
:10581000BDF92146AD48FFF7B9F9AA48FFF7B6F937
:10582000AB48FFF7B3F904F00101A548FFF7AEF963
:10583000A448FFF7ABF9A748FFF7A8F9C4F3400164
:105840009F48FFF7A3F99F48FFF7A0F9A248FFF789
:105850009DF9C4F380019A48FFF798F99948FFF73A
:1058600095F99E48FFF792F9C4F3C0019448FFF7F9
:105870008DF99448FFF78AF9FEF772FE04469848BE
:10588000FFF784F921469148FFF780F98D48FFF72B
:105890007DF99448FFF77AF904F001018848FFF791
:1058A00075F98848FFF772F98F48FFF76FF9C4F36D
:1058B00040018348FFF76AF98248FFF767F98B4890
:1058C000FFF764F9C4F380017D48FFF75FF97D4875
:1058D000FFF75CF98648FFF759F9C4F3C00178482F
:1058E000FFF754F97748FFF751F98248FFF74EF96F
:1058F000C4F300117248FFF749F97248FFF746F9FF
:105900007D48FFF743F9C4F340116D48FFF73EF9B6
:105910006C48FFF73BF97948FFF738F9C4F3801179
:105920006748FFF733F96748FFF730F97448FFF726
:105930002DF96348C4F3C011FFF728F96148FFF758
:1059400025F904E06F48FFF721F9FEF761FE012019
:105950000FE06D48F3E76D4A6D48137823F00F03AD
:105960001370FFF713F96B48FFF710F96A4B01202A
:10597000187010BDFEF784F86848FFF707F9FCF7C8
:105980007DFFFBF76EFFFEF793FFE0E75F4C2378A8
:10599000C3F3000282F0010262F300032370DB070D
:1059A00001D55F48CBE75F48FFF7F0F8237823F095
:1059B0000E032370CBE7554C2378C3F3400282F0EB
:1059C000010262F341039807237006D55648FFF79A
:1059D000DDF8237843F00103EBE75448AFE74B4C85
:1059E0002378C3F3800282F0010262F38203590735
:1059F000237001D54E48EAE74E48A0E7434C237890
:105A0000C3F3C00282F0010262F3C3031A072370DA
:105A100001D54948DBE7494891E74948FFF7B6F81F
:105A20004848FFF7B3F84848FFF7B0F84748FFF792
:105A3000ADF84748FFF7AAF8464880E74648FFF721
:105A4000A5F8FDF73FFB01464448FFF79FF8444B9C
:105A500044481978FFF79AF8434B44481978FFF700
:105A600095F8434B43481978C909FFF78FF8FEF7BB
:105A7000E1FE01464048FFF789F868E7FEF700F8C5
:105A80003B490B78C3F3C01282F0010262F3C713E3
:105A90000B701B064CBF3948394850E70020FFF710
:105AA0004DFE54E73938C0B2F9E71D38FBE73548F9
:105AB000FFF76CF800205CE76FA500087AA50008E6
:105AC00060A5000884A900088AA50008DBA40008D6
:105AD0009DA50008A7A50008B1A50008BDA5000860
