:100000000C94C8030C940F040C940F040C940F046C
:100010000C940F040C940F040C940F040C940F0414
:100020000C940F040C940F040C94392C0C940C2D8C
:100030000C949B220C940F040C940F040C940F044A
:100040000C940F040C940F040C940F040C940F04E4
:100050000C9406120C94E6220C940F040C940F04DA
:100060000C940F040C940F040C940F040C940F04C4
:100070000C940F040C940F040C940F040C940F04B4
:100080000C940F040C940F040C940F040C940F04A4
:100090000C940F040C940F040C940F040C940F0494
:1000A0000C940F040C940F040C940F0435001E00E4
:1000B0001F0020002100220023002400250026002C
:1000C00027002D002E0031002B0014001A0008001C
:1000D000150017001C0018000C00120013002F0060
:1000E00030002A00296104001600070009000A00F8
:1000F0000B000D000E000F00330034002900280013
:10010000E10000001D001B000600190005001100A1
:100110001000360037003800E5000451E20000000E
:10012000E3000000000000002C420000000000007E
:10013000035103510000045135001E001F00200030
:1001400021002200230024002500260027002D0086
:100150002E0031002B0014001A00080015001700B3
:100160001C0018000C00120013002F0030002A00A1
:10017000E00004001600070009000A000B000D0053
:100180000E000F003300340029002800E1000000B9
:100190001D001B00060019000500110010003600AC
:1001A00037003800E5000451E2000000E3000000E1
:1001B000000000002C00000000000000035103516B
:1001C0000000045135003A003B003C003D003E0079
:1001D0003F004000410042004300440045002A0027
:1001E0002B00000052000000000000000000000092
:1001F000000000004600AA00A9004C00E0005000EA
:1002000051004F00000000005000510052004F000C
:100210000000000029000000E100000000000000D4
:100220000000000000000000A800AC00AB00AE0021
:1002300000000000E2000000E300000000000000F9
:1002400001000000000000000000000000000000AD
:100250001114000000000000000000000C14000059
:100260000000000000002D08000000000000000059
:10027000000008140000000000000000000012143C
:100280000000000000000000000004140000000056
:100290000000000000000000000000000000081442
:1002A00000000000E1000000000000000614000053
:1002B000000000000000000000000000000000003E
:1002C000E20000000000000000000000000000004C
:1002D000000000000100010000000000005C0000C0
:1002E000000000000000000000000000000000000E
:1002F0000000000000000000C25CC55CC75CC95C77
:1003000000000000000000000000000000000000ED
:1003100000000000C35CC65CC85CCA5C0000000052
:100320000000000000000000000000000153000079
:1003300000000000000000000000000000000000BD
:1003400000000000000000000000010000000000AC
:10035000000000000000000000000000000000009D
:10036000000000000000010032190A00047F3F1F56
:10037000643214643214783C1E1E140A05222325AC
:100380002628292A2C2D2F3032333536383A3B3D5A
:100390003E4042434547494A4C4E505153555759A8
:1003A0005A5C5E6062646668696B6D6F71737577C5
:1003B000797B7D7F81838587898A8C8E90929496C4
:1003C000989A9C9E9FA1A3A5A7A8AAACAEAFB1B3D3
:1003D000B4B6B8B9BBBCBEBFC1C2C3C5C6C7C9CA23
:1003E000CBCCCDCED0D1D2D2D3D4D5D6D7D7D8D9E5
:1003F000D9DADADBDBDBDCDCDCDCDCDDDDDDDDDC43
:10040000DCDCDCDCDBDBDBDADAD9D9D8D7D7D6D554
:10041000D4D3D2D2D1D0CECDCCCBCAC9C7C6C5C316
:10042000C2C1BFBEBCBBB9B8B6B4B3B1AFAEACAA63
:10043000A8A7A5A3A19F9E9C9A98969492908E8C13
:100440008A89878583817F7D7B79777573716F6DED
:100450006B6968666462605E5C5A595755535150C7
:100460004E4C4A4947454342403E3D3B3A3836357B
:100470003332302F2D2C2A292826252322FFAA7F2C
:1004800055400000000000000000000000010102D3
:1004900003040506080A0C0F1114181C2024292E29
:1004A00033393F464C535B626A7179818A929AA2D2
:1004B000AAB2B9C1C8CFD5DCE1E7EBF0F4F7FAFC9A
:1004C000FDFEFFFEFDFCFAF7F4F0EBE7E1DCD5CF33
:1004D000C8C1B9B2AAA29A928A8179716A625B5341
:1004E0004C463F39332E2924201C1814110F0C0AB6
:1004F00008060504030201010000000000000000DE
:1005000000000001010101010101010102020202DA
:1005100002020202020303030303030303040404AD
:100520000404040405050505050606060606070776
:1005300007070708080808090909090A0A0A0B0B2E
:100540000B0C0C0C0D0D0D0E0E0E0F0F0F101011CD
:100550001111121213131414151516161717181853
:1005600019191A1A1B1B1C1D1D1E1E1F20202122BB
:1005700022232424252626272829292A2B2C2D2D01
:100580002E2F30313232333435363738393A3B3C1E
:100590003D3E3F404142434445464748494A4C4D11
:1005A0004E4F50515354555658595A5B5D5E5F61DA
:1005B0006264656668696B6C6D6F7072737577786D
:1005C0007A7B7D7E8082838587888A8C8E8F9193CB
:1005D0009596989A9C9EA0A2A3A5A7A9ABADAFB1F2
:1005E000B3B5B7BABCBEC0C2C4C6C9CBCDCFD1D4D7
:1005F000D6D8DBDDDFE2E4E7E9EBEEF0F3F5F8FA7D
:10060000FDFF040330000000100350006F006C0079
:100610006100720069007300000026036100690038
:10062000300033002000440065007300690067005B
:100630006E002000530074007500640069006F00B4
:1006400000000403090409023B00020100A0FA09AA
:1006500004000001030101000921110100012240F1
:10066000000705810308000A0904010001030000D6
:100670000009211101000122BC00070582032000AE
:100680000A120110010000000803A102000100018C
:1006900002030105010902A10185020901A100056A
:1006A0000919012905150025019505750181029596
:1006B00001750381010501093009311581257F95F7
:1006C000027508810609381581257F950175088115
:1006D00006050C0A38021581257F950175088106EB
:1006E000C0C005010980A101850319012AB70015C1
:1006F0000126B700950175108100C0050C0901A104
:1007000001850419012AA002150126A00295017590
:10071000108100C005010906A1018505050719E042
:1007200029E71500250195087501810205071900C3
:1007300029EF1500250195F07501810205081901C1
:100740002905950575019102950175039101C00573
:10075000010906A101050719E029E7150025019502
:1007600008750181029501750881010507190029A5
:10077000FF150026FF009506750881000508190180
:100780002905950575019102950175039101C00038
:1007900011241FBECFEFDAE0DEBFCDBF04B603FEEB
:1007A00027C080915E0390915F03A0916003B09198
:1007B00061038730904BA740B04BD1F410925E0399
:1007C00010925F03109260031092610314BE84B70D
:1007D000877F84BF0FB6F894A895809160008861E8
:1007E00080936000109260000FBEE0E0F8E309958E
:1007F00011E0A0E0B1E0ECECF1E602C005900D9252
:10080000A23DB107D9F723E0A2EDB1E001C01D92EE
:10081000AE35B207E1F70E947E290C9454300C9457
:10082000000081E0089581E008950C941304089578
:100830000C9417041F93CF93DF9300D000D00F9236
:10084000CDB7DEB749835A836B83309183028981A8
:100850009A8131111DC06623B9F02223A9F00E94AC
:10086000651F182F682F89819A810E940E1F698148
:100870007A81812F0F900F900F900F900F90DF9142
:10088000CF911F910C94DC040E943C1F182FEFCFD6
:100890000E94651F69817A81EDCFFC01262F40817E
:1008A00051816281738184810C941A04CF93DF9308
:1008B000D82FC92F60E00E944D046D2F7C2FDF914F
:1008C000CF910C9418040E9430230E94BA20811109
:1008D00002C00E9460210E9474120C94E6060C94DF
:1008E000E90608950C94710481E008950C94740451
:1008F000CF93C82F0E9472048C2FCF910C94760452
:1009000008950E94BD190E9480042FEF84E39CE0AB
:10091000215080409040E1F700C000000C940A2371
:100920000F931F93CF93DF93EC0161E00E944D047E
:100930008C01BE010E941504882389F1BE01C80103
:100940000E944011882359F1BE01C8010E9443133F
:10095000882329F1BE01C8010E9498138823F9F069
:10096000BE01C8010E946B148823C9F0BE01C801F2
:100970000E94DA0F882399F08A81882339F00115C3
:100980008CE5180751F00E3D1C4579F0CE01DF9142
:10099000CF911F910F910C9411040E94810480E06B
:1009A000DF91CF911F910F9108950E946021F7CFA1
:1009B00090E080E008950895972F70E02EE0929FD8
:1009C000600D711D1124FB0196E4899FE00DF11D5E
:1009D0001124EE0FFF1FE455FF4F85919491089568
:1009E000FC01EE0FFF1FE859FC4F8591949108958B
:1009F000CF93DF930E94DC040E940A06EC0181156C
:100A000020E5920708F04BC0811530E4930708F009
:100A1000B2C0803E910518F5803C910508F09FC05A
:100A2000883A910570F4853A910508F095C08130B7
:100A3000910529F10497813A910508F1D0E0C0E0D1
:100A40001EC08F3B9105D1F3C85AD0E0CC0FDD1FFB
:100A5000C35DDE4F0990D881C02DD46410C08115CC
:100A600040E2940780F48F3F910509F040F4883EFE
:100A7000910528F0805F9109D0654097F8F6CE0186
:100A8000DF91CF910895C11580E3D80708F46DC0B8
:100A9000CE019927D3FD6CC0EC01D06CF0CFC1150D
:100AA00095E5D90760F5C11524E5D20708F094C093
:100AB000C11533E5D30778F4C11542E5D40708F032
:100AC0007AC0C11581E5D80708F458C0DC2FCC27BF
:100AD000C16FD06AD4CFCE018370992721E030E076
:100AE00002C0220F331F8A95E2F7C695C69590E2A1
:100AF000C99FE0011124C22BD32BDA68C0CFC115E6
:100B00002AE5D207B0F4C11539E5D30708F074C05F
:100B1000C11546E5D40708F464C0CE0198558F3F4F
:100B2000910511F008F08ACFDC2FCC27C06FD06A76
:100B3000A6CFCE0190568115904208F07FCF8D2F21
:100B40008F710E94A20690E0982F882788279F71B6
:100B50009C012C2BE9014EC0A497D06490CF805CFF
:100B600091090E94F004EC018ACFCE019F70F9CF69
:100B7000EC01D86C84CFDF70D06A81CFCE0174E0F5
:100B8000969587957A95E1F783702C2F2695269573
:100B9000237040E2249F90011124382B8C2F837006
:100BA000C1E0D0E002C0CC0FDD1F8A95E2F7C22B76
:100BB000D32BDC6864CFCE018370992721E030E02D
:100BC00002C0220F331F8A95E2F7C695C69580E2D0
:100BD000C89FE0011124EBCFDC2FCC27C46FD06A73
:100BE0004ECF8C2F0E94A206C82FD0E0DC2FCC273E
:100BF000CC27DF71D06243CF8C2F8F700E94A2066A
:100C000034E0D695C7953A95E1F7CF70DC2FC82F21
:100C1000D06935CF803E910599F1C8F481339105B3
:100C200009F476C048F48932910509F46AC08A3221
:100C3000910509F474C0089589339105D1F0823883
:100C40009105B9F08533910509F454C00895843EA7
:100C5000910599F138F4823E9105F9F0833E9105B2
:100C600009F10895863E910599F1873E9105B9F104
:100C7000089520911E032370A1F080EE90E0089566
:100C800020911E0320FD52C030911F0330FF09C088
:100C900024FF4FC090E080E004C020911E0322FD9D
:100CA000F7CF089520911E0322FD46C030911F0307
:100CB00030FDE3CF24FFF5CFEDCF20911F0321FFBF
:100CC000F0CF80911E0384FDE5CF87EE90E008957C
:100CD00020911E0323FFE5CF24FDDCCFF6CF20912A
:100CE0001E0323FD2CC030911F0331FFE3CF84EEA0
:100CF00090E0089520911E0325FFD3CF89E290E074
:100D0000089520911E0325FFCCCF85E390E0089540
:100D100020911E0326FFC5CF8AE290E0089520911E
:100D20001E0326FFBECF81E390E0089589E390E0A3
:100D3000089583EE90E0089582EE90E0089586EEA7
:100D400090E0089590911E0392FF06C0282F28710D
:100D50002830F9F4877F846093FF06C0282F28711C
:100D60002831F1F4877E846120911F0320FF06C0A3
:100D7000382F38713830D9F4877F816021FF06C061
:100D8000282F28712831D1F4877E816194FD877ED8
:100D90000895282F24712430F9F68B7F8860DCCFEA
:100DA000282F2471243101F78B7E8861DDCF382F05
:100DB0003171313019F78E7F8860E0CF282F217193
:100DC000213121F78E7E8861E1CF08950C94E506EC
:100DD00008950C94E806E82FF0E0EE0FFF1FEE52A6
:100DE000FE4F808191810895089580EA8A95F1F7F8
:100DF0000895CF93DF93C9E6D1E02EE631E041E0DC
:100E000050E08991E82FE295EF70A1E2AE0FB0E0DB
:100E1000FC918F70BA0101C0660F8A95EAF7962F90
:100E200090959F239C93EE5DF0E08081862B8083DC
:100E30002C173D0731F7CBE5D1E029E631E041E061
:100E400050E08991E82FE295EF70A1E2AE0FB0E09B
:100E5000FC918F70BA0101C0660F8A95EAF7962F50
:100E600090959F239C93EE5DF0E08081862B80839C
:100E70002C173D0731F78AE0ECEDF1E0DF01982F08
:100E80001D929A95E9F7E2EDF1E0DF011D928A9556
:100E9000E9F785E00E94E407DF91CF910C946304A9
:100EA0006F927F928F929F92AF92BF92CF92DF927A
:100EB000EF92FF920F931F93CF93DF9389E6C82E93
:100EC00081E0D82E9CEDE92E91E0F92E712C88243A
:100ED0008394912CF60181916F01C82FC295CF7038
:100EE00001E20C0F10E0F80190818F70540101C0F5
:100EF000AA0C8A95EAF7892F8A298083CE5DD0E0F3
:100F000088816A2C6094862188830E94F506EBE52F
:100F1000F1E050E040E030E020E06191A62FA295A2
:100F2000AF70A05EB0E08C9190E06F7002C09595BC
:100F300087956A95E2F780FD42C0C401042E02C085
:100F4000880F991F0A94E2F7282B392B4F5F5F4FC8
:100F50004E30510511F7F801808168226082888146
:100F6000A82AA882F701808191812817390751F1B9
:100F70003183208381E0782AF2E0EF0EF11C8EE6C7
:100F8000C81681E0D80609F0A5CF272D45E062ED0F
:100F900071E08CED91E00E94E5070E946F04872DBF
:100FA000DF91CF911F910F91FF90EF90DF90CF9045
:100FB000BF90AF909F908F907F906F90089580E04A
:100FC00090E0C2CF80E0D7CF0895FF920F931F9398
:100FD000CF93DF93F82E092F162FD72FC42F22235C
:100FE00049F081E08093E8010E94CB229093E701D1
:100FF0008093E6018091E8018823A1F08091E601C9
:101000009091E7010E94D722069760F0EF2DF02F14
:10101000A12FBD2F90E080E0D0E08C179D0744F019
:101020001092E801DF91CF911F910F91FF900895E9
:10103000219131912D933D930196EFCFCF92DF9285
:10104000EF92FF920F931F93CF93DF93D62FC72F6B
:10105000982F711113C0442329F0E82FF0E0EE5FC0
:10106000FA4F9491692F792F892FDF91CF911F919A
:101070000F91FF90EF90DF90CF900895272F30E0F1
:10108000E82FF0E0442321F0EE5FFA4FE491F0E026
:1010900086E0D89F700111240FEF10E0C701B8015E
:1010A0000E94E72E8D2F90E0880F991FA5E5A69F3F
:1010B000A001A79F500D1124841B950BD82EDD0C89
:1010C000D80EC801821B930B8E9FA0018F9F500DDD
:1010D0009E9F500D1124952FDC9EE0011124CD2FF1
:1010E000DD27D801AC1BBD0BED01CE9FD001CF9FFA
:1010F000B00DDE9FB00D11248B2FE801CD19D10961
:101100006E01C29EE001C39ED00DD29ED00D11246F
:10111000CD2FDD270C1B1D0B0E9FE0010F9FD00D67
:101120001E9FD00D11242E2F63307105D9F03CEF96
:10113000E31633E0F30668F461307105B9F062300C
:101140007105C1F0AFEFEA16F10448F4852F9D2F29
:1011500006C06430710589F066307105B9F3692FF6
:10116000722F83CF9B2F8E2F252FF9CF9E2F2B2FC2
:10117000852FF5CF8D2F9E2FF7CF8E2F2D2FEFCFD1
:1011800041E00C941E080895CF93DF93982F762F9B
:10119000842FE901692F0E94C008798368838A83BC
:1011A000DF91CF910895493C08F048EC0C94C408B5
:1011B00080916502982F9E7F61F481708260809398
:1011C000650280916802893C18F088EC809368027F
:1011D00008958635B0F381708465F1CF88E090E0A2
:1011E0000C94F52F0F931F93CF93DF938B01D82F80
:1011F000C92F0E94D808A8016D2F7C2F88E090E0AD
:10120000DF91CF911F910F910C941330E5E6F2E03E
:1012100083E0808311828FEF828388EC8383148242
:1012200063E070E08FEF98EC0C94F2088091650217
:1012300080FF02C08695089580E00895CF93DF93E4
:1012400000D000D0CDB7DEB790916902933018F48A
:101250009F5F909369028823B1F08091650290911D
:101260006602A0916702B091680289839A83AB837A
:10127000BC83BC01CD010F900F900F900F90DF91B8
:10128000CF910C94F2080F900F900F900F90DF9178
:10129000CF91089581E00C941E09CF93DF9300D085
:1012A00000D0CDB7DEB790916902992319F0915023
:1012B000909369028823B1F0809165029091660253
:1012C000A0916702B091680289839A83AB83BC8343
:1012D000BC01CD010F900F900F900F90DF91CF9137
:1012E0000C94F2080F900F900F900F90DF91CF9118
:1012F000089581E00C944D0970E00C948A1260917D
:1013000008018091650280FF0AC08091070123E0F7
:10131000829FC00111248E5C9D4F0C947C098091AA
:10132000090190910A0123E0829FF0011124EE5CF3
:10133000FD4F891750F71182108212828F5F33960A
:10134000F8CF9091650290FF14C09091090120910F
:101350000A0133E0939FF0011124EE5CFD4F9217D8
:1013600010F00C947F098183608342839F5F3396E2
:10137000F6CF0895CF93DF9300D00F92CDB7DEB7AD
:101380009091650290FF0AC09E012F5F3F4F0E941F
:10139000D3084B8169818A810E94A1090F900F9027
:1013A0000F90DF91CF910895CF93DF93EC01EC8103
:1013B000F0E0E358FC4F4491E5E6F2E06281818180
:1013C0000E94BA098C818F5F8C83DF91CF91089541
:1013D000CF93DF93EC01E5E6F2E0438162818C81FB
:1013E0000E94BA098C818F5F8C83DF91CF91089521
:1013F0000F931F93CF93DF9300D00F92CDB7DEB73B
:101400008C018091E90181110AC09E012F5F3F4F3D
:1014100048EC6FEF0E94D3088A818093E901F801BC
:101420006481613049F06230F1F08091E90140E07F
:10143000662331F040E019C06091E90140E080E0AE
:101440000E94A109F801848190E0019663E070E0B8
:101450000E94FB2E84830F900F900F90DF91CF910D
:101460001F910F9108954091E90180E060E0E8CF7D
:10147000AF92BF92CF92DF92EF92FF920F931F93A2
:10148000CF93DF9300D000D000D00F92CDB7DEB75E
:10149000182FF62E042FD22E9091650290FF83C054
:1014A000E92FE695AE2FB0E0A259BE4F8C91809304
:1014B00063029E7F9230A1F59E012F5F3F4F812FE7
:1014C0000E94D3084B8169818A810E94A1091093EF
:1014D0006602F092670200936802DD2009F463C09F
:1014E0008091650290916602A0916702B0916802B6
:1014F0008C839D83AE83BF83BC01CD0127960FB63D
:10150000F894DEBF0FBECDBFDF91CF911F910F9139
:10151000FF90EF90DF90CF90BF90AF900C94F208C7
:10152000823019F400916802D2CF863019F41091FC
:101530006602CDCF8930D9F3893149F6E9518E2F32
:101540008170C82EE695F0E0E358FB4FA590B4906B
:10155000E12CBB2460910B01E61618F00E947F0974
:10156000B6CF2E2D30E0EA9CC001EB9C900D1124EB
:1015700070E00E94E72E812FC11013C0860F90915A
:101580000901A901490F511D9A01220F331F240F90
:10159000351F2E5C3D4F402F6F2D0E94D308E394E2
:1015A000D9CF861BECCF27960FB6F894DEBF0FBEBF
:1015B000CDBFDF91CF911F910F91FF90EF90DF9002
:1015C000CF90BF90AF900895282FE5E6F2E081819B
:1015D00043816281885F0C94380A81E00C94E40AAC
:1015E000282FE5E6F2E081814381628188500C94E6
:1015F000380A81E00C94F00A282FE5E6F2E06281D7
:1016000038E0630F08F46FEF438181810C94380A4E
:1016100081E00C94FC0A282FE5E6F2E0628138E0D4
:10162000631B08F460E0438181810C94380A81E0F7
:101630000C940B0B282FE5E6F2E0438138E0430FD2
:1016400008F44FEF628181810C94380A81E00C9498
:101650001A0B282FE5E6F2E0438138E0431B08F43B
:1016600040E0628181810C94380A81E00C94290B5E
:1016700020E00C94380AEF92FF921F93CF93DF93F0
:10168000EC0110E0EE24EA94F12C60910B011617A6
:1016900070F00E947F099A818C8190FF27C08F5F34
:1016A0008C83DF91CF911F91FF90EF90089520914F
:1016B0000901422F410F5527551FCA019A01220FD8
:1016C000331F280F391F2E5C3D4F70E0C7010E9469
:1016D000FB2E962F8C814091680260916702199FC2
:1016E000800D11240E94D3081F5FCFCF8150D8CF27
:1016F000BF92CF92DF92EF92FF920F931F93CF93FF
:10170000DF93FC0182810FEF80FF01E010E0809108
:101710000B011817C0F00E947F098091EB01013086
:1017200009F054C0811102C080910B018150809357
:10173000EB01DF91CF911F910F91FF90EF90DF9020
:10174000CF90BF90089580910901C12ED12C8C0DAE
:101750009D2D911DEC01CC0FDD1FC80FD91FCE5C54
:10176000DD4F198218821A8234E0E32EF12CB12C5D
:101770008091EB018B0D8F301CF16EE00E94D92E11
:10178000892F082E000C990BC816D90691F4809168
:1017900068028E9DA0018F9D500D1124559547958F
:1017A000559547959E0160916702809166020E945F
:1017B000D308B00EF1E0EF1AF108D1F61F5FA7CF02
:1017C00087FFDFCF90910B01890FDBCF90E001966F
:1017D00060910B0170E00E94FB2EA9CF0F931F9325
:1017E000CF93DF938091090190910A0123E0829FBA
:1017F000F0011124EE5CFD4F891740F1C0E0D3E009
:1018000060910B01C61740F10E947F0920910501EC
:101810008091EA01820F8093EA0190910601920F74
:1018200090930601191654F4082E000C990B409160
:101830000B014150550B841795071CF021952093FF
:101840000501DF91CF911F910F91089511821082B0
:1018500012828F5F3396D0CF0C2F10E070E0C8015A
:101860000E94FB2E20910901820F482F50E0209109
:10187000EA01022E000C330B02171307BCF0209173
:101880000601022E000C330B201731077CF08D9FD0
:10189000900111242E5C3D4F4091680260916702D7
:1018A000809166020E94D308CF5FAACFFA01EE0FA3
:1018B000FF1FE40FF51FEE5CFD4F118210821282B4
:1018C000F3CFEF92FF920F931F93CF93DF93CDB798
:1018D000DEB72E970FB6F894DEBF0FBECDBF8D8753
:1018E0009E87AD85BE8514961C91212F30E0D901CD
:1018F0000E943F2F9B01AC010E94552F69837A8380
:101900008B839C83E0E2F0E0E11BF109A5E5B0E008
:101910009B01AC010E94552F69877A878B879C8732
:101920009F01DF010E94372F6D837E838F8398870D
:101930009B01AC010E94602F9B01AC0169817A81FF
:101940008B819C81260F371F481F591F69857A8517
:101950008B859C850E940F2FF22E822F90E079E2DA
:10196000721788F183E0289F9001112435952795FF
:10197000122F109500E085E5E82EEF1880910B01FD
:10198000081780F10E947F09AD85BE8514969C9151
:1019900081E0992319F0903219F48FEF80930401BC
:1019A00080910401890FED85FE8584832E960FB604
:1019B000F894DEBF0FBECDBFDF91CF911F910F9185
:1019C000FF90EF90089525E530E0D901A81BB90BF1
:1019D0009D01220F331F2A0F3B1F37FFC7CF2F5FF9
:1019E0003F4FC4CF8E2D01FD8F2D20910901E22F95
:1019F000E00FFF27FF1F9F01220F331F2E0F3F1FF6
:101A00002E5C3D4F412F609167020E94D3080F5F0B
:101A1000B5CF0F931F93CF93DF93EC0110E000E05D
:101A200090910B019017110609F06CF40E947F0948
:101A30008C8190E00196817099278C83DF91CF9102
:101A40001F910F91089580910901A801480F511D20
:101A50009A01220F331F240F351F2E5C3D4F4C81FE
:101A6000609167028091660296959017110651F079
:101A70004CF0442349F0409168020E94D3080F5F64
:101A80001F4FCECF4423B9F340E0F7CF8F929F9200
:101A9000AF92BF92CF92DF92EF92FF920F931F937C
:101AA000CF93DF93FC01B280948081E0848300E0D7
:101AB00015E05BE4A52E88248394EE24EA94F12CAF
:101AC0007BE4C72ED12C80910B01081770F0DF91B9
:101AD000CF911F910F91FF90EF90DF90CF90BF902B
:101AE000AF909F908F900C947F09C02FD0E01C9FE7
:101AF000F0011D9FF00D1124E451FE4F91101CC008
:101B000013821282809109018C0F9D2F911D9C01DF
:101B1000220F331F280F391F2E5C3D4F1C9FF001F1
:101B20001D9FF00D1124E451FE4F4281618180819F
:101B30000E94D3080F5FC7CF2381222379F1215060
:101B4000238334818A2D821B311101C0822F1C9F77
:101B5000F0011D9FF00D1124E451FE4F9091680299
:101B6000899FC0011124B6010E94E72E62832111D2
:101B700004C0332311F01482A38222E02B1510F24B
:101B80001C9FF0011D9FF00D1124E451FE4F809128
:101B900066028083809167028183B4CF0E94D02F38
:101BA000823091400CF0AECF82E08B1530F50E9470
:101BB000D02FB7010E94FB2E1C9FF0011D9FF00D3E
:101BC0001124E451FE4F808322E02B15C8F40E94BB
:101BD000D02F209167022695622F70E00E94FB2E85
:101BE000280F1C9FF0011D9FF00D1124E451FE4FA2
:101BF00021831282A382848285CF80916602DCCF0A
:101C000020916702EECFCF93DF9300D000D0CDB705
:101C1000DEB7E5E6F2E080818E7F8083808191816E
:101C2000A281B38189839A83AB83BC83BC01CD013C
:101C30000E94F208109264029FEFA0E7B2E0915078
:101C4000A040B040E1F700C000000F900F900F904F
:101C50000F90DF91CF910C947F09E5E6F2E080814F
:101C60008E7F8083109264022FEF80E792E02150F4
:101C700080409040E1F700C000000C947F09609123
:101C80006502669570E04BE050E08CE091E00E94C8
:101C9000E02F892B19F481E0809364020E94CB220B
:101CA00090935D0280935C020895CF93DF9300D000
:101CB00000D0CDB7DEB79091650290FF41C0917022
:101CC000811134C0926090936502662381F0809107
:101CD000650290916602A0916702B09168028983C3
:101CE0009A83AB83BC83BC01CD010E94F208609152
:101CF0006502669570E04BE050E08CE091E00E9458
:101D0000E02F892BD1F01092640281E080935F0272
:101D10004091680260916702809166020F900F9077
:101D20000F900F90DF91CF910C94380B8B3210F005
:101D30009465C9CF880F982BC6CF0E943F0EE5CF80
:101D40000F900F900F900F90DF91CF910895682F13
:101D50008091650286958F5F8B3208F081E00C944C
:101D6000550E81E00C94A70E682F90916502969510
:101D70008FEF890F913009F48AE20C94550E81E0BF
:101D80000C94B40E61E00C94550EE5E6F2E080810F
:101D90008160808386950C94C20E8091650280FDDF
:101DA0000C94030E0C94C50E60E00C94550E8091BB
:101DB000620281112EC00E94BA20811104C00E94CB
:101DC00060210E9406090E94EE08609365027093EC
:101DD000660280936702909368026E7F61F40E94AE
:101DE00006090E94EE086093650270936602809374
:101DF0006702909368020E94D80810926402809152
:101E0000650280FF03C086950E94D40E81E0809316
:101E100062020895E5E6F2E0808181608083869524
:101E20000C94D40E1092640208950F931F93CF93D5
:101E3000DF9380916402882309F49DC0809163023E
:101E4000E0916502E695E81BE0935E028230C9F5F9
:101E5000F0E0E758FC4FE491CE2FD0E004ED19E01C
:101E600080915F02882389F010925F020E94CB224A
:101E70009E0120953095280F391F30935D022093E5
:101E80005C02109261021092600280915C0290915B
:101E90005D020E94D7228C179D0708F46CC0E09168
:101EA0005C02F0915D02CE0FDF1FD0935D02C09304
:101EB0005C028CE592E0F801DF91CF911F910F91C8
:101EC0000994863049F4F0E0EA58FC4FE491CE2FB3
:101ED000D0E008EE19E0C4CF893051F4E695F0E087
:101EE000ED58FC4FE491CE2FD0E00BE31BE0B8CFD0
:101EF0008F3051F4E695F0E0E059FC4FE491CE2F9D
:101F0000D0E008E71BE0ACCF853149F4F0E0E359BD
:101F1000FC4FE491CE2FD0E00EEE1BE0A1CFC8E243
:101F2000D0E001E61CE0883109F49ACF833239F41D
:101F3000EBE6F3E0C591D49108EF19E091CFC4EF3F
:101F4000D1E009E01DE0843209F48ACFC0EDD7E08A
:101F500003EC18E0853209F083CF8E2F63E00E94F6
:101F6000CD2EE92FF0E0E859FC4FE491CE2FD0E0E0
:101F700006E41DE075CFDF91CF911F910F91089579
:101F8000FA0181110994FB01FDCFCF93DF93C82F94
:101F9000D62F0E9416098C1740F00E9416098D1743
:101FA00020F4DF91CF910C94B10E8C2FDF91CF9163
:101FB0000C94C20E0F931F93CF938C01FB01C2812F
:101FC000CC2309F465C00E9402208272F801E25C11
:101FD000FC45E431F10538F4EA5AFF4C0C94312FFA
:101FE0000E94CD0EC0E08C2FCF911F910F910895CC
:101FF0004FEB5EE061EB7EE00E94C00FF3CF41EB60
:102000005EE06FEB7EE0F8CF49EF5AE06DEE7AE0EC
:10201000F3CF4DEE5AE069EF7AE0EECF47E15BE0B7
:1020200068E07BE0E9CF48E05BE067E17BE0E4CF9C
:1020300045E35BE066E27BE0DFCF46E25BE065E341
:102040007BE0DACF49E759E06AE479E0D5CF4AE4AA
:1020500059E069E779E0D0CF81E00E94C20EC2CF9B
:1020600065E082E00E94C50FBDCF68E086E0FACF50
:102070006EE089E0F7CF64E18FE0F4CF67E185E1BE
:10208000F1CF88E1EACF62E289E1ECCF83E2E5CFEC
:10209000C1E0A9CF80916A028695869586950895BC
:1020A00080916A0281FD07C0826080936A020E946B
:1020B000EC200C94F111089580916A0281FF07C011
:1020C0008D7F80936A020E94EC200C94FD1108958C
:1020D00080916A0281FD0C945C100C9450108091E8
:1020E0006A028695817008958091170108950E9473
:1020F000BA20811102C00E9460210E94E8208093D2
:102100006A02803320F08770886280936A0290911F
:102110006A02892F817090FF04C0892F8695869569
:1021200086950C94B71180916A02982F9695969592
:102130009695883240F49F5F990F990F990F877099
:10214000892B80936A0280916A02816080936A027F
:102150000E94EC2080916A028695869586950C9463
:10216000B71180916A02982F987F79F088508093F8
:102170006A02887F91E009F490E080916A0290FB06
:1021800080F980936A020E94EC2080916A02869511
:10219000869586950C94B71180916A0280FD13C0D4
:1021A000816080936A02813019F489E080936A0229
:1021B00080916A020E94EC2080916A028695869541
:1021C00086950C94B711089580916A0280FF08C02B
:1021D0008E7F80936A020E94EC2080E00C94B711FD
:1021E000089580916A0280FD0C94E4100C94CC1048
:1021F00090916A02892F8695869586958F5F8F715B
:1022000097708630D8F4880F880F880F892B8093B9
:102210006A0280916A02887F91E009F490E08091DF
:102220006A0290FB80F980936A020E94EC20809100
:102230006A028695869586950C94B71190936A02EA
:10224000E8CF863008F085E090916A029770282FD9
:10225000220F220F220F922B90936A02987F21E087
:1022600009F420E090916A0220FB90F990936A02B1
:102270000C94B7110E94211180916A020C94EC20F9
:10228000FC01DB0112968C918823F9F0EB5BFC4595
:10229000E730F105D8F4E659FF4C0C94312F85E076
:1022A0000E943A1180E0089580E0FACF0E94B110B8
:1022B000F9CF0E949310F6CF0E94F110F3CF0E9445
:1022C000F810F0CF0E946810EDCF81E00895279AB2
:1022D0002F9808952F980895CF93DF93CDB7DEB749
:1022E00028970FB6F894DEBF0FBECDBF8C3724E120
:1022F000920770F469E070E00E94E72ECB01289607
:102300000FB6F894DEBF0FBECDBFDF91CF91089519
:10231000B0E0A0E08A50974DAF4FBF4F2227382F33
:10232000492F5A2FCA01B90125EF38E241E050E0A8
:102330000E940F2F29833A834B835C83CA01B90122
:102340000E94BD2E9B01AC0169817A818B819C81A9
:102350000E94BD2E472F582F692F7727CA0141159C
:1023600051056140710559F68FEF9FEFC8CFCF93AC
:10237000DF9300D000D0CDB7DEB78983863040F53B
:10238000811128C080918000877F809380000E9407
:102390006A118981282F30E0AFEFBFEF0E943F2FF5
:1023A00069837A838B839C8325E030E040E050E0B2
:1023B0000E940F2FC9010E946C1190938D00809391
:1023C0008C000F900F900F900F90DF91CF91089598
:1023D00085E0898380918000886080938000D9CFD8
:1023E000089510926C0210926B0210926D02EFE64B
:1023F000F0E08081816080830895EFE6F0E08081E5
:102400008E7F80830E944A100C94B7111F920F9206
:102410000FB60F9211242F933F934F935F936F93B7
:102420007F938F939F93AF93BF93CF93EF93FF933C
:102430000E947410282F80916B0290916C0201967B
:1024400044EF249F90011124B9010E94E72E90933C
:102450006C0280936B02B901660F672F661F770BC2
:1024600071950E94E72E6F7780916D02823041F462
:10247000603451F480916F008E7F80936F0004C0B0
:10248000813011F46F37B1F3E62FF0E0EE57FB4FD8
:10249000C4910E944A10282F41E051E0C49FC0011E
:1024A000C59F900D112465E070E00E94E72E269FE5
:1024B000C001279F900D11240E946C1190938D00F4
:1024C00080938C00FF91EF91CF91BF91AF919F913D
:1024D0008F917F916F915F914F913F912F910F90CD
:1024E0000FBE0F901F9018950E9467118AE080938D
:1024F000800089E1809381008FEF9FEF90938700A8
:10250000809386000E9477100E946F1081110C94B6
:10251000F11108959C01AB01529A6BB16B7F7BB1B5
:102520007460EFB7F894CA01880F991F840F951F44
:10253000820F931F8217930741F4EFBF8FE594E05A
:102540000197F1F700C000000895D9014D919D0158
:1025500058E07BB9000000C047FF6BB9440F000092
:1025600000C000C000C06BB900C05A9591F7E2CF1F
:10257000AF92BF92CF92DF92EF92FF920F931F9391
:10258000CF93DF937C015B01C42FD22FFC018281AA
:102590008823F9F0409370020E94CB2290936F023F
:1025A00080936E0280E28C0F883008F061C0C770A3
:1025B00081E001C0880FCA95EAF7DF91CF911F91A2
:1025C0000F91FF90EF90DF90CF90BF90AF900C9461
:1025D000F91610917002141340C080916E02909110
:1025E0006F020E94D7226C01B701C5010E941F1C17
:1025F000C816D90690F5C0E2CD0F1D17B9F080E2DC
:10260000810F883040F4177081E001C0880F1A955F
:10261000EAF70E940017C83048F481E09D2F9770B8
:1026200001C0880F9A95EAF70E94F916802F0E9440
:10263000E616C830E8F4D77081E001C0880FDA955B
:10264000EAF7DF91CF911F910F91FF90EF90DF900C
:10265000CF90BF90AF900C94001780E28C0F883021
:1026600038F4C77081E001C0880FCA95EAF7E9CF56
:10267000DF91CF911F910F91FF90EF90DF90CF905E
:10268000BF90AF9008950F939C01CB01233F4CE581
:102690003407A1F190F4283DFCE53F0749F1293DBD
:1026A0004CE53407E9F1273D3C45C1F0FC0182814E
:1026B0008823E1F11092700219C0253FFCE53F0725
:1026C00019F1263F4CE5340729F1243F3C4571F7C9
:1026D00007E225EE44EE64EF7CE505C006E221EE5C
:1026E00041EE67ED7CE50E94B81280E00F910895FD
:1026F00007E225EE45EE68ED7CE5F5CF06E221EE3A
:1027000040EE63EF7CE5EFCF06E221EE42EE65EFAF
:102710007CE5E9CF07E225EE46EE66EF7CE5E3CF08
:1027200008E221E045EE69ED7CE5DDCF81E0DECF1A
:10273000CF93DF93EC01FB018281882309F4C9C0A8
:10274000C631FCE5DF07E0F4C2309CE5D907F0F0C4
:102750000E94CD2090931F0380931E03C631ECE5A9
:10276000DE0720F5C230FCE5DF0798F480911E03F8
:1027700090911F030E94DB200E94BD1980E006C0DB
:102780009E012A5F3C452930310510F3DF91CF913E
:102790000895FE01E350FC4580911E038160E33102
:1027A000F10588F4EF58FF4C0C94312FCA5FDC45DB
:1027B000C930D105D8F6CC57DF4CFE010C94312F2F
:1027C00080911E03826080931E03D0CF80911E03F0
:1027D0008460F9CF80911E038860F5CF80911F033C
:1027E000816080931F03C2CF80911F038260F9CF65
:1027F00080911E038061E7CF80911E038062E3CF4A
:1028000080911E038064DFCF0E94BD1980911E035A
:102810008068D9CF80911E038C60D5CF80911F0333
:102820008360DFCF80911E038E7FCDCF80911E030A
:102830008D7FC9CF80911E038B7FC5CF80911E03F2
:10284000877FC1CF80911F038E7FCBCF80911F03E5
:102850008D7FC7CF80911E038F7EB5CF80911E03E1
:102860008F7DB1CF80911E038F7BADCF0E94BD19AC
:1028700080911E038F77A7CF80911E03837FA3CF04
:1028800080911F038C7FADCF80911E0382FB99271F
:1028900090F921E0922790FB82F990FB83F993CF86
:1028A00080911F03982F909591708E7F892B90FBBC
:1028B00081F997CF0E94BD1990911E03892F97FB34
:1028C00087F9805880CF81E00E9462214FCF80E05D
:1028D000FBCF81E05BCFCF93DF93EB0186319C454B
:1028E00011F50E9402209A81992399F08A7A91E049
:1028F00009F490E090937102811109C089E20E946D
:10290000DD1F0E94512080E0DF91CF91089585E383
:10291000F6CF80917102811104C089E20E94E41F08
:10292000F0CF85E3FBCF81E0EFCF909377028093E8
:1029300076020895E0917602F0917702309721F0C7
:102940000190F081E02D099480E00895DC01E09190
:102950007602F0917702309799F080912C018823CC
:1029600051F080911E0387FF06C08C9111968C93C5
:10297000119785E08C930280F381E02DCD010994BD
:102980000895DC01E0917602F0917702309739F0FA
:1029900082E08C930480F581E02DCD0109940895A7
:1029A00020917402309175022817390771F09093C5
:1029B000750280937402E0917602F091770230976D
:1029C00021F00680F781E02D09940895209172028C
:1029D000309173022817390771F090937302809336
:1029E0007202E0917602F0917702309721F0008434
:1029F000F185E02D0994089585B7806885BF85B776
:102A0000806885BF0895089508950C94031508956E
:102A10000C9407150E94FC140E9404150C940515D3
:102A200081E008950C9410150E94C2220E94F906BC
:102A30000E9444230E9477100E94D70E0C94081520
:102A40009F92AF92BF92CF92DF92EF92FF920F933D
:102A50001F93CF93DF9300D000D00F92CDB7DEB796
:102A60000E9450070E941215882309F473C059E789
:102A7000A52E52E0B52E10E000E0902E802F0E948F
:102A8000EB067C01F501C190D1905F01C816D90613
:102A900009F45AC08091160381FD0E94F406960144
:102AA0002E253F2580E0CC24C394D12CA9014C21B4
:102AB0005D21452B09F442C089839A82EC20FD20D8
:102AC00081E0EF2809F480E08B830E94CB228160B3
:102AD000782F9D838C8349815A816B818D810E94DF
:102AE000CC15000F111FF801E758FD4F808191812F
:102AF000C826D926D182C0820E94150F0E94F011EB
:102B00000E9402250E949A1490917802891799F1E7
:102B10000E949A14809378020F900F900F900F905C
:102B20000F90DF91CF911F910F91FF90EF90DF9069
:102B3000CF90BF90AF909F900C9478048F5FCC0C97
:102B4000DD1C8E3009F0B2CF0F5F1F4F053011052D
:102B500009F093CF8FEF89838A831B820E94CB2257
:102B60008160782F9D838C8349815A816B818D810F
:102B70000E94CC15C1CF0F900F900F900F900F9027
:102B8000DF91CF911F910F91FF90EF90DF90CF9049
:102B9000BF90AF909F900895CF93DF93CDB7DEB7EE
:102BA0002B970FB6F894DEBF0FBECDBF4F8358876B
:102BB00069877A878B871E8285E0FE013796DE0162
:102BC000119601900D928A95E1F749815A816B81A6
:102BD0007C818D819E812B960FB6F894DEBF0FBE4F
:102BE000CDBFDF91CF910C94221CFC01808191819B
:102BF0000C94A71FCF93C82F882309F48FC0823865
:102C0000C1F40E949A1481FD89C089E30E94DD1FEE
:102C10000E9451202FEF31EE84E02150304080405F
:102C2000E1F700C0000089E30E94E41FCF910C94FB
:102C300051208338A1F40E949A1480FD6FC083E56F
:102C40000E94DD1F0E9451209FEF21EE34E0915041
:102C500020403040E1F700C0000083E5E5CF843834
:102C6000A1F40E949A1482FD59C087E40E94DD1FDE
:102C70000E9451208FEF91EE24E08150904020403F
:102C8000E1F700C0000087E4CFCF8CEF8C0F813AD2
:102C9000B8F48C2F0E948127811140C06C2F809145
:102CA0001801909119010E947B21882329F08C2F13
:102CB0000E94E41F0E9451208C2F0E94DD1FB6CF7E
:102CC00080E28C0F883048F4C77081E001C0880F23
:102CD000CA95EAF70E940520A9CF8BE58C0F8330B7
:102CE00038F42C2F2452330BC901CF910C94D014FB
:102CF000E8E5EC0FE73150F4F0E0EE0FFF1FE75688
:102D0000FE4F80819181CF910C94E614C03F30F04A
:102D10008C2F0E94FD23CF910C94E824CF9108952D
:102D2000882309F452C0823871F40E949A1481FFFA
:102D30004CC089E30E94DD1F0E94512089E30E945C
:102D4000E41F0C945120833859F40E949A1480FF98
:102D50003CC083E50E94DD1F0E94512083E5EFCF38
:102D6000843859F40E949A1482FF2FC087E40E948D
:102D7000DD1F0E94512087E4E2CF9CEF980F913A2B
:102D8000F0F290E2980F983050F4877091E001C013
:102D9000990F8A95EAF7892F0E940B20D2CF9BE5E5
:102DA000980F933020F490E080E00C94D01498E5D4
:102DB000980F973120F490E080E00C94E614803F67
:102DC00020F00E9465240C94E8240895CF93C82F26
:102DD0000E94FA15C93349F42FEF87EE93E0215092
:102DE00080409040E1F700C000008C2FCF910C9400
:102DF0009016882321F00E9405200C9451200895FC
:102E0000882321F00E940B200C9451200895AF924A
:102E1000BF92CF92DF92EF92FF920F931F93CF93C7
:102E2000DF9300D000D00F92CDB7DEB76C016D8379
:102E30007983FC01058102950F70128111110E94A6
:102E400024200E94FB1FE82E882391F01123D1F04B
:102E50008981807F803421F08D81805E883090F080
:102E600082E00E949C200E94FB1F91E0E82EE92650
:102E7000A980A2949FE0A922B12CF501E357FF4C51
:102E80000C94312FE12CF4CF09810F70F981F07F80
:102E900011F00295007F1123B1F0002361F08D81C4
:102EA000805E883018F02D81211109C0802F0E948A
:102EB00005200E9451208D810E94FA1515C0802F97
:102EC0000E941620F6CF8D810E949016002361F09B
:102ED0008D81805E883018F04D81411133C0802F84
:102EE0000E940B200E94512048E0A41AB10854E02F
:102EF000A516B10420F40E949A140E947804EE20D2
:102F000009F4D6C10E94F71F80FDD2C1F6011282DA
:102F10000E94F11F0E94FE1DC6010E947F190E949F
:102F2000F11F0F900F900F900F900F90DF91CF91A6
:102F30001F910F91FF90EF90DF90CF90BF90AF90D7
:102F40000C942F1E802F0E941C20CCCF59815F70C3
:102F5000F52E6981607F603219F0F29480EFF822DB
:102F60007D81772369F0713049F1112391F10023BC
:102F700051F1F601858180FF9ECF8F70858323C03C
:102F8000112381F0011106C00E9438208F290E9470
:102F9000F916AACF0130C1F70E9438208F290E946C
:102FA0003E20A2CF011106C00E9447208F2D0E9413
:102FB00000179ACF013009F497CFF6CF112329F0EB
:102FC000063008F091CF8F2DE2CF053008F08CCF7E
:102FD000EDCF002359F3FD81F93349F42FEF47EE8C
:102FE00053E0215040405040E1F700C000008D8187
:102FF0000E94901679CF898186958695837069F0B5
:10300000813009F071CF8D8199819370111102C0C7
:1030100090E080E00E94E61467CF8D8199819370E3
:10302000111102C090E080E00E94D0145DCF8D812C
:10303000112329F00E94FD230E94E82455CF0E940D
:103040006524FACF8981837009F050C011114CCFEB
:103050004D81429546954770440F440F8D818F7086
:1030600090E0B0E0A0E0042E04C0880F991FAA1FD2
:10307000BB1F0A94D2F76D8100E010E0980164FF55
:103080000FC00FE010E020E030E004C0000F111F7F
:10309000221F331F4A95D2F7009510952095309541
:1030A00079817695769573707D83B901A801482B57
:1030B000592B6A2B7B2B49835A836B837C835D81DD
:1030C00069817A818B819C81523051F0533059F063
:1030D000513019F00E94741D07CF0E944C1D04CF7F
:1030E0000E949C1D01CF0E944A1DFECE112309F4AF
:1030F00045C0698160FFF8CE4D8142954695477085
:10310000440F440F8D818F7090E0B0E0A0E0042E5A
:1031100004C0880F991FAA1FBB1F0A94D2F7ED8124
:1031200000E010E09801E4FF0FC00FE010E020E0A5
:1031300030E004C0000F111F221F331F4A95D2F741
:103140000095109520953095F981F695F695F370D8
:10315000FD83B901A801482B592B6A2B7B2B49838E
:103160005A836B837C83F230A1F0F330C9F0F130E5
:1031700049F0CB01BA010E94BD1EB6CE798171FF24
:10318000B3CEBACF69817A818B819C810E94951ED2
:10319000ABCE69817A818B819C810E94E51EA4CE91
:1031A00069817A818B819C810E94C81D9DCE598145
:1031B0005F705983112329F0852F0E94FE1D8D8198
:1031C000E6CE8D810E94001789810E942F1E8CCE31
:1031D0006D81623F99F160F4603FD9F0613F39F150
:1031E000112309F444C0011166CE89818F7123C077
:1031F0007D81733F41F1743F99F7112371F189810A
:103200008F7189830E94FE1D63E089810E9487205F
:103210006BCE112341F0053008F066CE89818F71A5
:103220000E94641E61CE063008F05ECEF7CF898121
:103230008F71112351F20E94FE1D56CE89818F712C
:103240001123C9F3C2CF112329F089818F710E9404
:10325000D91D4ACE0E94D41D47CE81E00E949C20F9
:10326000023008F441CE82E00E949C203DCE002333
:1032700061F09D81993309F0BACEEFEFF7EE23E0CC
:10328000E150F0402040E1F7B0CE89818F719DCFB1
:1032900049814F706D81C6010E94D8040E94BC1CF8
:1032A00023CE49814F706D81C6010E94DB041CCE84
:1032B0000F900F900F900F900F90DF91CF911F9173
:1032C0000F91FF90EF90DF90CF90BF90AF90089557
:1032D0000F931F93CF93DF93EC01688179818A81EB
:1032E0000E94B31F8C010E940D1F0E94491DB8014E
:1032F000CE01DF91CF911F910F910C940717CF93BF
:10330000DF93EC018B819C81892B29F08981988145
:1033100089238F3F59F4DF91CF910895CE010E9408
:103320006819CE01DF91CF910C945604CE010E9412
:1033300090048111F3CF0E94FB1F882361F38A81DF
:10334000882349F382E0DF91CF910C949C200E9466
:1033500024200E9435200E9451200E9413260E94A2
:10336000E82490E080E00E94D01490E080E00C948B
:10337000E6140E94EB1F0C94A7190E9413200C94D2
:10338000B919282F892F82958F70903C80F48A304C
:10339000B0F4843020F4823090F480E008958630D8
:1033A000E1F781E0283E88F0213FB9F70EC08C306C
:1033B00011F08F3091F793FB882780F9089581E011
:1033C000203F39F018F4283E40F70895243F29F7AC
:1033D000FCCF08950E94A71F0C94C119CF93DF93CF
:1033E00000D000D00F92CDB7DEB70F900F900F90A6
:1033F0000F900F90DF91CF910895CF93DF9300D07E
:1034000000D000D0CDB7DEB726960FB6F894DEBF59
:103410000FBECDBFDF91CF9108951F93CF93DF9360
:10342000E091840216E0809185028E1304C0DF9142
:10343000CF911F910895CE2FD0E01E9FF00111244F
:10344000EA57FD4F4081518162817381848195816A
:103450000E94FD19FE013196E770E5CF4091B6025A
:103460005091B7026091B8027091B9028091BA028E
:103470009091BB020C94FD191F93CF93DF93809121
:10348000BB02807FA9F48091B802882389F08091E3
:103490008402C09185027091B6026091B702A0913A
:1034A000B902B091BA02D62FD72316E0C81304C0D0
:1034B000DF91CF911F91089590E0109711F0DF3FB9
:1034C00019F401968770F2CF189F9001199F300D63
:1034D0001124F901EA57FD4F41816413F2CF408175
:1034E0004713EFCF42814111ECCF438154814A1BF6
:1034F0005B0B483C510528F78091BB028F708061BF
:103500008093BB02F901E557FD4F80818F70806188
:10351000808386EB92E00E947F19DF91CF911F910B
:103520000C940D1AAF92BF92CF92DF92EF92FF925E
:103530000F931F93CF93DF93CDB7DEB72B970FB6C3
:10354000F894DEBF0FBECDBF8C0185E0F801DE012F
:10355000179601900D928A95E1F7F801408151810B
:10356000E28086EBA82E82E0B82E6091B9027091BD
:10357000BA026115710549F09091B6022091B70227
:10358000892F82238F3F09F045C1EE2009F453C1F2
:103590004F8358878F8198850E94EA19F82E8823D7
:1035A00009F449C186E0F801A6EBB2E001900D9262
:1035B0008A95E1F786EB92E00E94F5150E943C1A8D
:1035C00026C18091BB02382F307F683C710508F01E
:1035D0007CC03111B5C0FE2C251324C0941322C029
:1035E000E11020C08F7080618093BB020E942E1A70
:1035F00086EB92E00E947F198091BB02F8018583DF
:103600008F2D2B960FB6F894DEBF0FBECDBFDF9186
:10361000CF911F910F91FF90EF90DF90CF90BF90CF
:10362000AF900895CD2829F0842F85238F3F09F08E
:1036300084C080E0F82FF170DF2EE09184022091A9
:10364000850236E080FD1CC0EE20D1F28091BB02E5
:1036500081608093BB02F12CD3CF8E2F90E03E9FF0
:10366000F0011124EA57FD4F6181651306C06081A6
:10367000641303C062816E11E7CFFC013196E770DD
:10368000E213EBCF4F8358878F8198850E94A71F45
:10369000292F22952F70903260F0225F2F702230F8
:1036A00078F49F7051F0F8019581907F31F4D12C1E
:1036B0000AC09F7011F08823D1F3805E8830B8F380
:1036C000C8010E947F19FD2C9BCF31116EC06E2D59
:1036D0007A858B850E94EE1986EB92E00E947F1915
:1036E00086E0F50111928A95E9F70E942E1AB3CF70
:1036F00086E0F801A6EBB2E001900D928A95E1F721
:103700007FCF4F8358878F8198850E94EA19811156
:103710003DC08091BB0281608093BB02C8010E94C2
:103720007F196ECF6E2D7A858B850E94EE1986E00B
:10373000F50111928A95E9F76AC081E08E257ACF6A
:10374000251306C0941304C0F801EE2009F453C0F9
:103750004F8358878F8198850E94EA19882309F43E
:103760006AC0EE2009F467C08091BB02803270F01D
:103770002091B6023091B7023A8329831B82DD8201
:10378000CC828E83CE0101960E947F1986E0F801DB
:10379000A6EBB2E001900D928A95E1F70E943C1AE7
:1037A0000E942E1AFF24F3942BCF2513D1CF94130C
:1037B000CFCFE110CDCFF8018583C8010E947F19DA
:1037C00086E0F50111928A95E9F71ACF251399CF72
:1037D000941397CF8091BB0280FD8ACF982F907F62
:1037E00009F486CFF8018583903F31F0982F907FC0
:1037F000905F8F70892B8583C8010E947F1986E0B6
:10380000F801A6EBB2E001900D928A95E1F70E94D3
:103810002E1AF6CEC380D480F090B802F601E61BD3
:10382000F70BBF01F110CDCE683C710508F07ACFDF
:10383000FE2CE110CBCFC8010E947F19B3CF88ECDA
:1038400090E008951F93CF93DF93CDB7DEB72C9709
:103850000FB6F894DEBF0FBECDBF4F835887698780
:103860007A878B879C87CE0107960E94921A8823BD
:1038700069F08A859B85892B39F058854F81852F82
:1038800084238F3F09F071C016E05FC086E0FE011F
:103890003796DE01119601900D928A95E1F78A859F
:1038A0009B85892B89F38F81988589238F3F61F3CD
:1038B0002091850230E0C9010196877099274091D7
:1038C00084024817190671F40E94BD1910928502EE
:1038D0001092840286E0E6EBF2E0DF011D928A9509
:1038E000E9F7D2CF96E0929FD001939FB00D1124BB
:1038F000AA57BD4FFE01319601900D929A95E1F7BE
:10390000809385020E940D1ABFCF819FC0011124B0
:103910008A579D4F0E94921A8823E9F0E091840211
:103920001E9FF0011124EA57FD4F408151816281B1
:103930007381848195810E94FD198091840290E0B9
:1039400001968770992780938402809184029091D8
:1039500085028913DACF2C960FB6F894DEBF0FBE1E
:10396000CDBFDF91CF911F91089569857A858B85B1
:103970009C850E94FD1988CFEF92FF920F931F93B1
:10398000CF93DF938C01892B89F0F12CEE24E39403
:10399000E8012196F8018491843709F458C0A0F415
:1039A000823009F43FC048F48130D1F0DF91CF91EB
:1039B0001F910F91FF90EF9008959CEF980F903713
:1039C000A8F70E94FA150AC0853709F44EC09CE793
:1039D000980F903758F78F770E9490168E0116C077
:1039E0000E5F1F4FFE01849190E2980F983060F4B3
:1039F0008770FE2D01C0FF0F8A95EAF78F2F0E9476
:103A000027200E94512002C00E94FA158F2D882382
:103A100009F4BECFEFE9FFE03197F1F700C00000F5
:103A20008150F5CF0E5F1F4FFE01849190E2980FF9
:103A3000983050F48770FE2D01C0FF0F8A95EAF789
:103A40008F2F0E942D20DDCF0E949016DFCF0E5FBA
:103A50001F4FFE01C491CC23C9F28FE99FE001976B
:103A6000F1F700C00000C150F6CF0E5F1F4FFE01FE
:103A7000F490CCCF08950C943A1D0E943B1D6093A6
:103A8000ED027093EE028093EF029093F0020C949B
:103A9000A71908950C943D1DCF93DF9300D000D05B
:103AA000CDB7DEB769837A838B839C838091ED02E7
:103AB0009091EE02A091EF02B091F00229813A813B
:103AC0004B815C81282B392B4A2B5B2B29833A8332
:103AD0004B835C83CA01B9010F900F900F900F9038
:103AE000DF91CF910C943D1DCF93DF9300D000D098
:103AF000CDB7DEB769837A838B839C838091ED0297
:103B00009091EE02A091EF02B091F00229813A81EA
:103B10004B815C81282339234A235B2329833A8301
:103B20004B835C83CA01B9010F900F900F900F90E7
:103B3000DF91CF910C943D1DCF93DF9300D000D047
:103B4000CDB7DEB769837A838B839C838091ED0246
:103B50009091EE02A091EF02B091F00229813A819A
:103B60004B815C81282739274A275B2729833A83A1
:103B70004B835C83CA01B9010F900F900F900F9097
:103B8000DF91CF910C943D1D0C943A1D0C94C41DF3
:103B90000E94C61D6093E9027093EA028093EB02D3
:103BA0009093EC020C94A71960E070E0CB010C94A8
:103BB000C81D0F931F93CF93DF9300D000D0CDB7D4
:103BC000DEB741E050E060E070E08A019B0104C094
:103BD000000F111F221F331F8A95D2F709831A8302
:103BE0002B833C83C901B8010F900F900F900F9069
:103BF000DF91CF911F910F910C94C81D0F931F93CC
:103C0000CF93DF9300D000D0CDB7DEB741E050E0D6
:103C100060E070E004C0440F551F661F771F8A954F
:103C2000D2F78091E9029091EA02A091EB02B09163
:103C3000EC028A019B01082B192B2A2B3B2B0983B1
:103C40001A832B833C83C901B8010F900F900F900A
:103C50000F90DF91CF911F910F910C94C81D0F937E
:103C60001F93CF93DF9300D000D0CDB7DEB741E0F4
:103C700050E060E070E004C0440F551F661F771FDE
:103C80008A95D2F740955095609570958091E9029C
:103C90009091EA02A091EB02B091EC028A019B01A3
:103CA000082319232A233B2309831A832B833C836C
:103CB000C901B8010F900F900F900F90DF91CF9135
:103CC0001F910F910C94C81D0F931F93CF93DF93F7
:103CD00000D000D0CDB7DEB741E050E060E070E04A
:103CE00004C0440F551F661F771F8A95D2F7809135
:103CF000E9029091EA02A091EB02B091EC028A01F4
:103D00009B01082719272A273B2709831A832B831E
:103D10003C83C901B8010F900F900F900F90DF9175
:103D2000CF911F910F910C94C81DCF93DF9300D0BA
:103D300000D0CDB7DEB769837A838B839C83809173
:103D4000E9029091EA02A091EB02B091EC02298184
:103D50003A814B815C81282B392B4A2B5B2B2983A1
:103D60003A834B835C83CA01B9010F900F900F9087
:103D70000F90DF91CF910C94C81DCF93DF9300D0AB
:103D800000D0CDB7DEB769837A838B839C83809123
:103D9000E9029091EA02A091EB02B091EC02298134
:103DA0003A814B815C81282339234A235B23298371
:103DB0003A834B835C83CA01B9010F900F900F9037
:103DC0000F90DF91CF910C94C81DCF93DF9300D05B
:103DD00000D0CDB7DEB769837A838B839C838091D3
:103DE000E9029091EA02A091EB02B091EC022981E4
:103DF0003A814B815C81282739274A275B27298311
:103E00003A834B835C83CA01B9010F900F900F90E6
:103E10000F90DF91CF910C94C81D0895E82F2EE0EC
:103E2000929FE00D11248E2F877041E001C0440F56
:103E30008A95EAF7E695E695E69585E0E89FF00134
:103E40001124E454FD4F30E020E070E05191DF0197
:103E50001197CB01022E02C0969587950A94E2F73E
:103E6000817081958527842385278C932F5F3F4F11
:103E70002530310559F70895E82F2EE0929FE00D87
:103E800011249E2F9770E695E695E69585E0E89FCC
:103E9000F0011124E454FD4F50E040E080E0219116
:103EA00030E0092E02C0369527950A94E2F721707A
:103EB0003327042E01C0220F0A94EAF7822B4F5FAA
:103EC0005F4F4530510559F70895BF92CF92DF9269
:103ED000EF92FF920F931F93CF93DF938C01C090CB
:103EE000E902D090EA02E090EB02F090EC028091BF
:103EF000ED029091EE02A091EF02B091F002C82A7B
:103F0000D92AEA2AFB2ACFE1D0E0BC2ED701C6018C
:103F10000C2E04C0B695A795979587950A94D2F76D
:103F200080FD0EC0219788F7B12C8B2DDF91CF91AA
:103F30001F910F91FF90EF90DF90CF90BF90089569
:103F4000B8018C2F0E94F804019761F3EECFCF9354
:103F5000DF93D82FC92F0E94651F6D2F7C2FDF9113
:103F6000CF910C94F8041F93CF93DF93162FD72F84
:103F700090918302992339F0862F972FDF91CF916B
:103F80001F910C94A71F882391F0862F972F0E94D2
:103F9000651FC82F682F812F9D2F0E940E1F612F34
:103FA0007D2F8C2FDF91CF911F910C94F804862FD9
:103FB000972F0E943C1FC82FF2CF682F80911801C5
:103FC000909119010C94FF21682F80911801909114
:103FD00019010C940A2280911801909119010C94F6
:103FE00015228091F102859585958595089580919A
:103FF000F102877008959091F102977081E009F4C1
:1040000080E0089580911503089590911503982BF1
:10401000909315030895982F909580911503892307
:104020008093150308951092150308959091140339
:10403000982B909314030895982F909580911403D2
:104040008923809314030895109214030895909186
:104050001303982B909313030895982F90958091B4
:104060001303892380931303089510921303089573
:104070008091F202089508950C943B209091F202F1
:10408000981721F08093F2020C943C2008958091BF
:10409000F202882329F01092F20280E00C943C2076
:1040A0000895E0911801F091190180911503808322
:1040B000E0911801F0911901808190911403892BEE
:1040C0008083E0911801F091190180819091130390
:1040D000892B80839091F202992381F0E09118015D
:1040E000F09119018081892B808380911801909132
:1040F00019010E94672181110E94472080911801B7
:10410000909119010C94A61408950C94842098E0C1
:10411000899F90011124622B6093F1020E94FE1D81
:104120008091F1028595859585950C948520109256
:10413000F10280E00C9485209091F1028095892312
:104140008093F102282F277071F4282F082E000C7D
:10415000330B9217130639F08595859585950E9446
:104160002F1E0C94972008956FEF7FEF90E080E072
:104170000C941F3090E080E00E94FB2F9C0181E0B6
:104180002C3E3E4F09F080E0089582E090E00C94D0
:10419000ED2F83E090E00C94ED2FCF9384E090E03E
:1041A0000E94ED2FC82F81E290E00E94ED2F982F02
:1041B0008C2FCF910895CF93682FC92F84E090E082
:1041C0000E9401306C2F81E290E0CF910C9401307D
:1041D00086E090E00C94ED2F682F86E090E00C9440
:1041E0000130AB01BC018FE090E00C941330AB01C7
:1041F000BC0183E190E00C94133060E070E0CB01EF
:104200000C94F72060E070E0CB010E94F1200C9448
:10421000FD206CEE7EEF90E080E00E941F3060E0B9
:1042200082E090E00E94013060E083E090E00E9434
:1042300001301092ED021092EE021092EF021092F5
:10424000F00260E084E090E00E94013060E081E2F2
:1042500090E00E94013060E085E090E00E94013033
:1042600060E086E090E00E9401306FEF87E090E030
:104270000E94013040E050E0BA0188E090E00E94E6
:10428000133060E08DE090E00E94013040E050E0AB
:10429000BA0188E190E00E94133060E087E190E08D
:1042A0000E94013040E050E0BA018CE190E00E94B1
:1042B000133060E080E290E00E9401300C94022113
:1042C0000C940921682F8EE090E00C940130FC01E1
:1042D000329680912C01882321F080911E039EE16B
:1042E00087FF96E080E0915008F408952191222301
:1042F000D1F38F5FF8CF9C01662301F180912C01EF
:104300008823F1F080911E0387FF1AC0462F46953F
:1043100046954695603F90F4677081E090E002C05A
:10432000880F991F6A95E2F7240F311DF901228148
:1043300030E02823392381E0232B71F480E00895B5
:10434000F9013296285F3F4F8191861721F0E217DD
:10435000F307D1F7F3CF81E008959C01FC01329679
:104360008FEF90E04191461751F08F3F19F44111C2
:1043700001C0892F9F5F9630A9F78F3F09F40895F8
:10438000280F311D87FD3A95F901628308959C013C
:10439000FC013296285F3F4F8191861303C0DF01F5
:1043A00011971C92E217F307B9F70895FC01862FC5
:1043B000869586958695603F60F4E80FF11D6770DD
:1043C00021E030E001C0220F6A95EAF78281822B5A
:1043D00082830895FC01862F869586958695603F99
:1043E00068F4E80FF11D677081E090E001C0880F6C
:1043F0006A95EAF7809592818923828308952091B6
:104400002C01222329F020911E0327FD0C94D62194
:104410000C94AD2120912C01222329F020911E0320
:1044200027FD0C94EA210C94C721FC01329680915F
:104430002C01882351F080911E0387FF06C08EE176
:10444000DF011D928A95E9F7089586E0F9CF089576
:1044500008950C9428220E942922809154038430CC
:1044600009F43CC01092170388E190E020E40FB6F5
:10447000F894A895809360000FBE2093600080E0C0
:104480000E94B71180E00E9478040E94120F809170
:10449000180381110AC081E080931803809165029E
:1044A0008170809319030E942D0E0E94292283B7E8
:1044B000817F846083BF83B7816083BF7894889550
:1044C00083B78E7F83BF0FB6F894A8958091600064
:1044D000886180936000109260000FBE0895089577
:1044E000CF930E9427220E9450070E946F22C0E0B3
:1044F0008C2F0E94EB06892B31F4CF5FC530C1F7BA
:1045000080E0CF91089581E0FCCF08950C9485223E
:104510000E94BD190E9477100E949A140E9478048C
:10452000109218038091190381110E940A0F0E94B2
:104530003F0E0C9486221F921FB61F9211248F9358
:104540009F93AF93BF9380911703811113C0809104
:104550001A0390911B03A0911C03B0911D03419677
:10456000A11DB11D80931A0390931B03A0931C03FC
:10457000B0931D03BF91AF919F918F911F901FBE6C
:104580001F90189582E084BD93E095BD9AEF97BD8A
:1045900080936E0008952FB7F89480911A0390913C
:1045A0001B03A0911C03B0911D032FBF08959C0114
:1045B0004FB7F89480911A0390911B03A0911C03AC
:1045C000B0911D034FBF821B930B089578941F92E7
:1045D0001FB61F9211248F939F93AF93BF93809127
:1045E0001A0390911B03A0911C03B0911D03019627
:1045F000A11DB11D80931A0390931B03A0931C036C
:10460000B0931D03BF91AF919F918F911F901FBEDB
:104610001F90189581E08093E00080E28093D8009D
:104620001092C9008FE19EE40197F1F700C00000ED
:1046300087E090EBDC0180935E0390935F03A0938F
:104640006003B093610388E19CE00FB6F894A895ED
:10465000809360000FBE90936000FFCF0C94B42055
:104660000E9450078FE39CE90197F1F700C000001A
:104670000E94500780E00E94EB0680FF04C00E9469
:104680002E230C940A230895CF93DF9300D000D0FB
:10469000CDB7DEB70E94BA20811102C00E9460210E
:1046A0000E94C520809316030E94CD2090931F0383
:1046B00080931E030E94C920282F30E050E040E084
:1046C000CA01B9010E944A1D8091E9029091EA0253
:1046D000A091EB02B091EC0289839A83AB83BC83F7
:1046E000BC01CD010F900F900F900F90DF91CF91F3
:1046F0000C94C61D8091260380FF12C060911F019B
:1047000085E0689FB001112475956795759567954B
:1047100060387105A8F561157105A1F1862F08951E
:1047200081FF09C060911F0185E0689FB0011124DD
:1047300075956795EDCF60911F0182FD0AC080914C
:1047400025038823D1F090911E0160911F018917E4
:1047500028F085E0689FB0011124DACF869FB00170
:10476000112485E0869F9001879F300D1124692FC9
:1047700070E0C9010E94FB2ECBCF65E070E0CECF88
:104780008FE7089581E008958091260380FF0CC093
:1047900060911B0170E0759567957595679561153A
:1047A000710549F1862F089581FF06C060911B01B4
:1047B00070E075956795F3CF60911B0182FD0BC08A
:1047C000909124039923A1F060911A0180911B011B
:1047D000961738F0682F70E06038710500F38FE7A6
:1047E0000895899FC001112470E00E94FB2EF4CF30
:1047F00061E070E0D7CF81E00895803F31F40E94FE
:104800007A23819580932A030895813F19F40E94A9
:104810007A23F8CF823F31F40E947A2381958093E6
:1048200029030895833F19F40E947A23F8CF893F22
:1048300029F40E94C42380932B0308958A3F21F416
:104840000E94C4238195F7CF8B3F31F40E94C4238B
:10485000819580932C0308958C3F19F40E94C42302
:10486000F8CF843F31F4809128038160809328033E
:104870000895853F21F4809128038260F7CF863F19
:1048800021F4809128038460F1CF873F21F4809147
:1048900028038860EBCF883F21F480912803806152
:1048A000E5CF8D3F31F4809126038160809326030C
:1048B00008958E3F21F4809126038260F7CF8F3FC9
:1048C000B9F7809126038460F1CF90912903803F4E
:1048D00059F480912A0387FF0DC010922A03911189
:1048E0000BC01092250308C0813F81F480912A03F8
:1048F00018169CF3992381F080912B0390912C033F
:10490000892B09F064C0109224030895823F49F472
:1049100097FFF0CF1092290380912A038111ECCFE9
:10492000E0CF833F19F41916ACF3E4CF20912B03A9
:10493000893F29F41216F4F610922B03DBCF8A3F3D
:1049400019F427FFD7CFF8CF20912C038B3F29F400
:1049500027FFD0CF10922C03CDCF8C3F19F4121625
:10496000CCF3C8CF843F31F4809128038E7F8093AD
:104970002803C0CF853F21F4809128038D7FF7CF96
:10498000863F21F4809128038B7FF1CF873F21F46C
:1049900080912803877FEBCF883F21F48091280303
:1049A0008F7EE5CF8D3F31F4809126038E7F8093FB
:1049B0002603A0CF8E3F21F4809126038D7FF7CF71
:1049C0008F3F09F097CF809126038B7FF0CF08951A
:1049D0000E94CB222091290330912A03232B21F01E
:1049E000809322039093230320912B0330912C0377
:1049F000232B21F0809320039093210387E293E0FF
:104A00000C94C114CF92DF92EF92FF920F931F93F9
:104A1000CF93DF9300D000D000D0CDB7DEB726E033
:104A2000E7E2F3E0CE010196DC0101900D922A95B8
:104A3000E1F7C0902903D0902A03E0902B03F09077
:104A40002C031092290310922A0310922B03109228
:104A50002C032C2D2D298C0191F080912203909113
:104A600023030E94D7229C0180912503882309F407
:104A700040C0909120019217130608F448C08E2D73
:104A80008F2991F080912003909121030E94D722D9
:104A90009C0180912403882309F478C090911C0123
:104AA0009217130608F480C08091290390912A037D
:104AB000892B90912B03892B90912C03892B11F03A
:104AC0000E94E82486E0F801A7E2B3E001900D928D
:104AD0008A95E1F726960FB6F894DEBF0FBECDBFDC
:104AE000DF91CF911F910F91FF90EF90DF90CF90CA
:104AF0000895409121019AE0499FA0011124421795
:104B0000530708F0BCCF8F5F8093250302C08F3F0F
:104B1000D1F7CC2059F00E947A239FEF1C140CF49B
:104B200091E0899F802D112480932903DD2059F085
:104B30000E947A239FEF1D140CF491E0899F802D31
:104B4000112480932A0330912903332309F497CF4A
:104B500020912A03222309F492CF45EB3403C001AC
:104B60001124992359F09093290345EB24039001D4
:104B70001124332339F030932A0381CF81E08093CD
:104B80002903F3CF81E080932A0379CF40911D015F
:104B90009AE0499FA00111244217530708F084CFDF
:104BA0008F5F8093240302C08F3FD1F7EE2059F02E
:104BB0000E94C4239FEF1E140CF491E0899F802D66
:104BC000112480932B03FF2059F00E94C4239FEFF0
:104BD0001F140CF491E0899F802D112480932C03E5
:104BE00030912B03332309F45FCF20912C03222330
:104BF00009F45ACF45EB3403C0011124992359F02D
:104C000090932B0345EB240390011124332339F0B7
:104C100030932C0349CF81E080932B03F3CF81E0C5
:104C200080932C0341CF86E0E7E2F3E0DF011D92A1
:104C30008A95E9F710922503109224031092260317
:104C40000895843009F442C038F48230E9F08330AA
:104C500061F1813041F00895853009F448C0863013
:104C600009F456C0089580912101482F460F552719
:104C7000551F4F3F510524F4680F6093210108959B
:104C80008FEF80932101089580912001482F460FD6
:104C90005527551F4F3F510524F4680F609320019D
:104CA00008958FEF80932001089580911F01482F70
:104CB000460F5527551F4F3F510524F4680F609349
:104CC0001F0108958FEF80931F01089580911E01A9
:104CD000482F460F5527551F4F3F510524F4680FA5
:104CE00060931E0108958FEF80931E0108958091B7
:104CF0001B01482F460F5527551F4F3F510524F4E0
:104D0000680F60931B0108958FEF80931B01089536
:104D100080911A01482F460F5527551F4F3F5105C7
:104D200024F4680F60931A0108958FEF80931A019D
:104D30000895843071F138F48230A9F08330F1F0B5
:104D4000813031F00895853079F18630C1F10895D0
:104D500080912101681720F4861B8093210108951A
:104D600010922101089580912001681720F4861B7C
:104D700080932001089510922001089580911F01D1
:104D8000681720F4861B80931F01089510921F015D
:104D9000089580911E01681720F4861B80931E01E0
:104DA000089510921E01089580911B01681720F448
:104DB000861B80931B01089510921B01089580911A
:104DC0001A01681720F4861B80931A010895109227
:104DD0001A0108950F931F93CF93DF9300D000D053
:104DE000CDB7DEB741E050E060E070E08A019B01A2
:104DF00004C0000F111F221F331F8A95D2F70983A9
:104E00001A832B833C83C901B8010E944A1D0F906D
:104E10000F900F900F90DF91CF911F910F910C94F5
:104E2000BD19EBEFE80FEF3308F05AC0F0E0E3569E
:104E3000FF4C0C94312F0E94602181E008958091F5
:104E40001603807F8093160381E080932E030895DC
:104E50000E948104F2CF90911603892F8E7F90FFDC
:104E600081608093160380FDE8CF817F80931603D5
:104E7000E4CF90911603892F8D7F91FF82608093FC
:104E8000160381FFDACF809116038160EFCF9091F6
:104E90001603892F8B7F92FF84608093160382FD17
:104EA000F2CFCBCF90911603892F877F93FF886035
:104EB0008093160383FDE7CFC0CF0E94BD19909168
:104EC0001E03892F97FB87F9805880931E03B5CF67
:104ED00080E00E94EA26B1CF8953FBCF8D51F9CFF4
:104EE00080E0089580E008950C9472278E518A30F6
:104EF00030F4E82FF0E0E953FE4F8081089580E020
:104F00000895CF93C82F80912E038130A1F0823075
:104F1000A1F181117AC00E940220823209F077C08B
:104F20008C2F0E94722781111BC08C2F0E94112789
:104F30008170CF9108950E940220823289F38C2FD4
:104F40000E94742781110AC0C431A1F060F4CB30F3
:104F500029F0C03169F782E080932E0381E0E8CF29
:104F600081E090E0E5CFC93229F081E0C83301F358
:104F700080E0DECF10922E03FBCFCB3469F198F4A2
:104F8000C43240F4CE3100F5C73061F1C43121F0B4
:104F900081E0CFCFC932E1F780912D03882381F0E2
:104FA00010922D03F5CFC135A9F061E0C235A9F00B
:104FB0006AE0CE3469F780912D030E949926E8CFEC
:104FC00081E080932E03B5CF8C2F0E9476278093AB
:104FD0002D03DECF61E0EFCF6AE080912D030E94C8
:104FE0002126D6CF8EE18093210182E38093200198
:104FF0008AE080931F0184E180931E0188E0809302
:105000001B0188E280931A01C3CF10922E0380E027
:1050100090CF80914F030895CF93DF9300D00F92EC
:10502000CDB7DEB790915403943019F589836A8324
:105030007B8382E08093E9008FEF9091E8008150BC
:1050400095FD06C095ED9A95F1F700008111F5CF19
:105050008091E80085FF0DC050E040E063E070E023
:10506000CE0101960E94362A8091E8008E778093C7
:10507000E8000F900F900F90DF91CF910895BC0141
:1050800084E00C940C28BC0183E00C940C2822E0F2
:105090002093E9002FEF3091E800215035FD06C044
:1050A00035ED3A95F1F700002111F5CF2091E80098
:1050B00025FF0BC050E040E066E070E00E94362A19
:1050C0008091E8008E778093E8000895CF93DF9376
:1050D000D82FC92F80912C018823C1F180911E0304
:1050E00087FF34C060E282E08093E9008FEF909107
:1050F000E800815095FD06C095ED9A95F1F7000006
:105100008111F5CF8091E80085FF1DC080912C01B1
:1051100070E050E040E0811104C050E040E068E001
:1051200070E08D2F9C2F0E94362A8091E8008E77A8
:105130008093E80080E2ED2FFC2FAFE2B3E0019016
:105140000D928A95E1F7DF91CF91089568E081E0B3
:10515000CBCF80915D03811109C00E94BE2B0E94BC
:105160001B2C8091E20084608093E20008951092ED
:105170005D030895089508950C94882242E061EC3F
:1051800081E00E943A2B42E261EC82E00C943A2BDF
:1051900080915603893089F148F4823009F49DC02A
:1051A000833009F458C0813041F008958A3009F401
:1051B00084C08B3009F46AC0089580915503813A08
:1051C00009F048C08091E800877F8093E8008091D3
:1051D000590390915A03892B61F460E28FE293E0C6
:1051E00070E00E94852A8091E8008B778093E80028
:1051F000089560E090E080E0F3CF80915503813224
:1052000049F58091590390915A03029718F58091BE
:10521000E800877F8093E8008091E80082FF16C055
:105220009091F3008091F200029729F48091F100AF
:105230008B7F813021F48091F10080934F03809126
:10524000E8008B778093E8000C946E2B80915403D8
:105250008111E2CF089580915503813AD9F7809169
:10526000590390915A03892BA9F78091E800877F11
:105270008093E8008091E80080FFFCCF80912C01B2
:105280008093F1008091E8008E77DCCF8091550308
:10529000813201F78091590390915A03892BD1F6FD
:1052A0008091E800877F8093E8000E946E2B8091B8
:1052B000570380932C010C94BD19809155038132C2
:1052C00049F68091E800877F8093E8000E946E2B6A
:1052D0008091580380935003089580915503813A3B
:1052E00009F0B8CF8091E800877F8093E800809133
:1052F000E80080FFFCCF80915003C2CF84B7877F46
:1053000084BF0FB6F894A89580916000886180935F
:105310006000109260000FBE80E890E00FB6F89435
:1053200080936100909361000FBE0E940A150E9455
:10533000BE2B0E941B2C8091E20084608093E200CF
:1053400078940E94A22E0E94141582E291E00E949D
:10535000951480915403853019F00E942015F9CFDF
:105360000E942B2280915103882399F30E9470227E
:10537000882379F30E94202AECCF0C94BF29FC01EA
:10538000CB01DA012F2F332723303105D1F070F410
:105390002130310509F445C02230310569F48BE331
:1053A00090E026E436E02D933C93089521323105B8
:1053B00021F12232310559F190E080E030E020E027
:1053C000F2CFCF019927E230A9F08330910550F454
:1053D000009769F0EAE1F6E0019771F7849190E0B7
:1053E0009F01E1CFE2E0F6E00397C1F3E5CFE2E40D
:1053F000F6E0F4CFE8E0F6E0F1CF892BB9F06130C8
:105400007105D1F689E090E021E736E0CCCF892B19
:1054100091F06130710581F68CEB90E023E936E084
:10542000C2CF82E190E021E836E0BDCF89E090E094
:1054300028E536E0B8CF80E490E02FE437E0B3CF42
:1054400080E189BD82E189BD09B400FEFDCF809174
:10545000D8008F7D8093D8008091E0008260809397
:10546000E0008091E00081FDFCCF0895AF92BF92F3
:10547000CF92DF92FF920F931F93CF93DF936C0134
:10548000EB018A010E948D2BF82E811123C001159A
:10549000110539F0F80180819181C81BD90BC80E24
:1054A000D91EB12CA12C2097A9F08091E80085FD90
:1054B00022C08091E8008E778093E80001151105E5
:1054C000A1F0F80180819181A80EB91EB182A0825D
:1054D00085E0F82E8F2DDF91CF911F910F91FF90D6
:1054E000DF90CF90BF90AF9008950E948D2B8823BE
:1054F000D1F2F82EEFCFF60181916F018093F10088
:105500002197FFEFAF1ABF0ACECFFC01CB0120914C
:105510005B0330915C032617370790F0009729F45E
:105520002091E8002E772093E80040E0009751F4A6
:10553000411108C08091E80082FF31C080E00895E9
:10554000C901F3CF209154032223A9F12530A9F1F9
:105550002091E80023FD2DC02091E80022FDEACF34
:105560002091E80020FFE2CF3091F3002091F2007B
:10557000009719F02830310558F041E02830310506
:1055800009F040E02091E8002E772093E800CECF8C
:1055900041914093F10001972F5F3F4FE9CF8091F8
:1055A0005403882341F0853041F08091E80083FF67
:1055B000C1CF81E0089582E0089583E00895FC0161
:1055C000CB0120915B0330915C032617370790F0E5
:1055D000009729F42091E8002E772093E80040E01E
:1055E000009751F4411108C08091E80082FF32C059
:1055F00080E00895C901F3CF209154032223B1F133
:105600002530B1F12091E80023FD2EC02091E80063
:1056100022FDEACF2091E80020FFE2CF3091F30095
:105620002091F200009719F02830310558F041E040
:105630002830310509F040E02091E8002E772093D2
:10564000E800CECF44914093F100319601972F5F4F
:105650003F4FE8CF80915403882341F0853041F0DB
:105660008091E80083FFC0CF81E0089582E0089533
:1056700083E00895982F973028F08F708093E90089
:1056800081E008959093E900242F762F50E0981739
:1056900031F07091EC002091ED005091F00021FD6F
:1056A00002C09F5FE8CF3091EB003E7F3093EB006C
:1056B0003091ED003D7F3093ED003091EB00316093
:1056C0003093EB007093EC002093ED005093F000CA
:1056D0002091EE0027FDE5CF80E0089580915503ED
:1056E00087FF13C08091E80082FF06C08091E80028
:1056F0008B778093E80004C0809154038111F2CF2E
:105700000895809154038823D9F38091E80080FFA5
:10571000F8CF8091E8008E77ECCF2091E4003091B3
:10572000E50095E6A9012091EC00822F817020FF11
:1057300006C08091E80080FF06C080E008952091B7
:10574000E80022FD1AC080915403882389F0853037
:1057500089F08091EB0085FD0FC02091E40030912D
:10576000E50042175307F9F29150E1F684E00895FD
:1057700082E0089583E0089581E008950E942C2C32
:105780000E94342CE0EEF0E0808181608083E8EDBF
:10579000F0E080818F77808319BCA7EDB0E08C9119
:1057A0008E7F8C9380818F7E808310925D0308951D
:1057B0000F931F93CF93DF930E942C2C0E94342CC5
:1057C000C8EDD0E088818F7788838881806888835E
:1057D00088818F7D888319BC1092540310925303E3
:1057E000109251031092520300EE10E0F8018081F4
:1057F0008B7F808388818160888342E060E080E0E5
:105800000E943A2BE1EEF0E080818E7F8083E2EE11
:10581000F0E0808181608083808188608083F801EE
:1058200080818E7F8083888180618883DF91CF91A2
:105830001F910F910895E8EDF0E080818F7E8083C5
:10584000E7EDF0E080818160808384E082BF81E0C9
:1058500080935D030C94D82BE8EDF0E080818E7F7F
:1058600080831092E20008951092DA001092E10015
:1058700008951F920F920FB60F9211242F933F930A
:105880004F935F936F937F938F939F93AF93BF9348
:10589000EF93FF938091E10082FF0BC08091E200C3
:1058A00082FF07C08091E1008B7F8093E1000E941E
:1058B000A12E8091DA0080FF19C08091D80080FF6E
:1058C00015C08091DA008E7F8093DA008091D90034
:1058D00080FF94C080E189BD82E189BD09B400FEEA
:1058E000FDCF81E0809354030E94A9288091E100BC
:1058F00080FF19C08091E20080FF15C08091E20016
:105900008E7F8093E2008091E20080618093E200CC
:105910008091D80080628093D80019BC85E0809384
:1059200054030E94BB288091E10084FF29C080912C
:10593000E20084FF25C080E189BD82E189BD09B410
:1059400000FEFDCF8091D8008F7D8093D80080919C
:10595000E1008F7E8093E1008091E2008F7E809352
:10596000E2008091E20081608093E2008091530325
:10597000882309F449C084E0809354030E94BC2822
:105980008091E10083FF29C08091E20083FF25C060
:105990008091E100877F8093E10082E0809354034F
:1059A000109253038091E1008E7F8093E1008091FB
:1059B000E2008E7F8093E2008091E200806180931C
:1059C000E20042E060E080E00E943A2B8091F0002B
:1059D00088608093F0000E94BA28FF91EF91BF91F8
:1059E000AF919F918F917F916F915F914F913F9177
:1059F0002F910F900FBE0F901F90189519BC109209
:105A000054030E94B72872CF8091E30087FD02C043
:105A100081E0B2CF83E0B0CF1F920F920FB60F920A
:105A200011242F933F934F935F936F937F938F93A3
:105A30009F93AF93BF93CF93DF93EF93FF93D09157
:105A4000E900DF708091EC00C82FC17080FDC0E8D4
:105A50001092E9008091F000877F8093F0007894A5
:105A60000E94502D1092E9008091F0008860809390
:105A7000F000CD2BCF70C093E900FF91EF91DF9143
:105A8000CF91BF91AF919F918F917F916F915F91D6
:105A90004F913F912F910F900FBE0F901F9018952F
:105AA0001F93CF93DF93CDB7DEB7AA970FB6F894C5
:105AB000DEBF0FBECDBF85E593E0FC0101962091CE
:105AC000F100208323E08D359207B9F70E94C828A2
:105AD0008091E80083FF1DC180915503909156038A
