:100000000C9489030C94D0030C94D0030C94D0036B
:100010000C94D0030C94D0030C94D0030C94D00314
:100020000C94D0030C94D0030C94EC250C94BF26B4
:100030000C941A220C94D0030C94D0030C94D0038B
:100040000C94D0030C94D0030C94D0030C94D003E4
:100050000C94D0030C9441220C94D0030C94D00344
:100060000C94D0030C94D0030C94D0030C94D003C4
:100070000C94D0030C94D0030C94D0030C94D003B4
:100080000C94D0030C94D0030C94D0030C94D003A4
:100090000C94D0030C94D0030C94D0030C94D00394
:1000A0000C94D0030C94D0030C94D00305010902E6
:1000B000A10185020901A1000509190129081500FE
:1000C0002501950875018102050109300931158165
:1000D000257F95027508810609381581257F9501D0
:1000E00075088106050C0A38021581257F95017572
:1000F000088106C0C005010980A101850319012AF4
:10010000B700150126B700950175108100C0050CD8
:100110000901A101850419012AA002150126A002E6
:10012000950175108100C005010906A1018505052D
:100130000719E029E71500250195087501810205D9
:1001400007190029EF1500250195F07501810205B9
:10015000081901290595057501910295017503910D
:1001600001C005010906A101050719E029E71500ED
:100170002501950875018102950175088101050722
:10018000190029FF150026FF009506750881000556
:1001900008190129059505750191029501750391CD
:1001A00001C009023B00020100A0FA09040000019D
:1001B000030101000921110100012240000705810E
:1001C0000308000A090401000103000000092111CD
:1001D00001000122B6000705820320000A12011067
:1001E0000100000008836580600100010200011A1F
:1001F00003420049004F004900200047003600300C
:1002000000200042004C00450000002A034200612B
:1002100000730069006300200049004F002000497E
:10022000006E0073007400720075006D0065006E52
:1002300000740073000000040309041E0F0500048D
:100240007F3F1F643214643214783C1E1E140A056A
:100250002223252628292A2C2D2F303233353638D3
:100260003A3B3D3E4042434547494A4C4E5051532C
:100270005557595A5C5E6062646668696B6D6F7150
:10028000737577797B7D7F81838587898A8C8E9052
:10029000929496989A9C9E9FA1A3A5A7A8AAACAE5B
:1002A000AFB1B3B4B6B8B9BBBCBEBFC1C2C3C5C69B
:1002B000C7C9CACBCCCDCED0D1D2D2D3D4D5D6D744
:1002C000D7D8D9D9DADADBDBDBDCDCDCDCDCDDDD82
:1002D000DDDDDCDCDCDCDCDBDBDBDADAD9D9D8D772
:1002E000D7D6D5D4D3D2D2D1D0CECDCCCBCAC9C714
:1002F000C6C5C3C2C1BFBEBCBBB9B8B6B4B3B1AF4B
:10030000AEACAAA8A7A5A3A19F9E9C9A98969492EA
:10031000908E8C8A89878583817F7D7B79777573C1
:10032000716F6D6B6968666462605E5C5A5957559F
:100330005351504E4C4A4947454342403E3D3B3A5B
:100340003836353332302F2D2C2A292826252322E2
:10035000FFAA7F55400001010101010101010102D5
:100360000202020202020202030303030303030365
:100370000404040404040405050505050606060630
:1003800006070707070708080808090909090A0AEC
:100390000A0B0B0B0C0C0C0D0D0D0E0E0E0F0F0F90
:1003A000101011111112121313141415151616171B
:1003B00017181819191A1A1B1B1C1D1D1E1E1F2089
:1003C00020212222232424252626272829292A2BD6
:1003D0002C2D2D2E2F3031323233343536373839FB
:1003E0003A3B3C3D3E3F40414243444546474849F5
:1003F0004A4C4D4E4F50515354555658595A5B5DC7
:100400005E5F616264656668696B6C6D6F70727364
:100410007577787A7B7D7E8082838587888A8C8ECB
:100420008F91939596989A9C9EA0A2A3A5A7A9ABFD
:10043000ADAFB1B3B5B7BABCBEC0C2C4C6C9CBCDEF
:10044000CFD1D4D6D8DBDDDFE2E4E7E9EBEEF0F3A1
:10045000F5F8FAFDFF35001E001F002000210022E4
:1004600000230024002500260027002D002E003147
:10047000002B0014001A000800150017001C0018BB
:10048000000C00120013002F0030002A0029610424
:10049000001600070009000A000B000D000E000FF7
:1004A000003300340031002800E10000001D001B73
:1004B0000006001900050011001000360037003852
:1004C000000451E500E200E200E300000000002C1F
:1004D000420000E50065002900E6000351045104D4
:1004E00051010001000100010001000100010001B3
:1004F00000010001000100010001000100010001F4
:1005000000010001000100010001000100010001E3
:10051000000100010001000100E0000100010001F4
:1005200000010001000100010001000100010001C3
:1005300000010001000100010001000100010001B3
:1005400000010001000100010001000100010001A3
:1005500000010001000100000000002C000000016B
:100560000001000100010001000100010001003A4A
:10057000003B003C003D003E003F00400041004287
:100580000043004400450031000100010052000119
:10059000000100010001000100010001004600010E
:1005A0000001004C000100500051004F000100010B
:1005B000005000510052004F0001000100010001F5
:1005C0000001000100010001000100010001000123
:1005D000000100AC00AB00AE000100010001000111
:1005E00000010000000000010000000100010029DE
:1005F00000010001000100010011140100010001CF
:1006000000010001000C1401000100010001002D97
:100610000801000100010001000100341401000183
:10062000000100010001001214010001000100019D
:10063000000100041401000100010001000100019B
:100640000001000100010008140100010001000187
:100650000001000100061401000100010001000179
:100660000001000100010001000100010001000083
:100670000000000100000001000100290801000144
:100680000001000100005C0000000000000000000C
:10069000000000000000000000000000000000005A
:1006A00000C35CC65CC85CCA5CBF5C0000000000A4
:1006B00000000000000000000000000000C45CC753
:1006C0005CC95CCB5CBE5C00000000000000000068
:1006D000000000000000000000C05C0000000000FE
:1006E000000000000000000000000000000000000A
:1006F00000010000000000000000000000000000F9
:100700000000000000010001530000000001000192
:10071000000011241FBECFEFDAE0DEBFCDBF04B66C
:1007200003FE27C08091D4039091D503A091D603F6
:10073000B091D7038730904BA740B04BD1F41092C3
:10074000D4031092D5031092D6031092D70314BE8F
:1007500084B7877F84BF0FB6F894A8958091600016
:10076000886180936000109260000FBEE0E0F8E3C3
:10077000099523E0AAE9B1E001C01D92A43DB207AA
:10078000E1F711E0A0E0B1E0E0E7F2E502C005909A
:100790000D92AA39B107D9F70E9465220C949F28BF
:1007A0000C9400009091D20392FF06C0282F28716C
:1007B0002830F9F4877F846093FF06C0282F2871C2
:1007C0002831F1F4877E84612091D30320FF06C095
:1007D000382F38713830D9F4877F816021FF06C007
:1007E000282F28712831D1F4877E816194FD877E7E
:1007F0000895282F24712430F9F68B7F8860DCCF90
:10080000282F2471243101F78B7E8861DDCF382FAA
:100810003171313019F78E7F8860E0CF282F217138
:10082000213121F78E7E8861E1CF0F931F93CF9303
:10083000DF93972F70E02EE0929F600D711D1124C1
:10084000FB0196E4899FE00DF11D1124EE0FFF1FBF
:10085000EB5AFB4F05911491E801003E110509F494
:1008600064C070F50133110509F4ACC098F4093285
:10087000110509F4A0C00A32110509F4AAC001301B
:10088000110509F465C004501109013A110508F079
:1008900058C05EC00933110509F440C00238110583
:1008A000E9F10533110509F47FC0083A110508F094
:1008B00097C0053A110518F3E801A497D06448C021
:1008C000043E110509F455C068F4023E1105E1F13A
:1008D000033E110509F442C0005E110908301105FC
:1008E00080F536C0063E110509F44EC0073E1105DD
:1008F00009F44FC0011523E5120708F09CC001154B
:1009000082E5180708F001C10F3F110511F008F04A
:1009100076C00D3E110548F2D0651AC08091D20311
:100920008370B1F0C0EED0E013C08091D20380FD9F
:1009300015C19091D30390FF0BC0C3EED0E084FFAC
:1009400007C0D0E0C0E004C08091D20382FDF5CFA3
:10095000CE01DF91CF911F910F9108958091D20325
:1009600082FDFFC09091D30390FDDCCF84FFF0CFD8
:10097000E8CF8091D30381FFEBCF8091D203C7EE04
:10098000D0E084FDDECFE4CF8091D20383FDF7CFAA
:10099000DFCF8091D20383FDE7C09091D30391FF15
:1009A000E5CFC4EED0E0D4CF8091D20385FFD0CF85
:1009B000C9E2D0E0CDCF8091D20385FFC9CFC5E396
:1009C000D0E0C6CF8091D20386FFC2CFCAE2D0E08A
:1009D000BFCF8091D20386FFBBCFC1E3D0E0B8CFB9
:1009E0000F3B110508F078CF085AE02FF0E0EE0F2A
:1009F000FF1FE559FE4FC081D181D464A9CF0115F5
:100A000091E5190798F4011520E5120708F062C076
:100A1000011580E2180708F49BCFC8019054811596
:100A2000904108F08ECFDF70D06A92CFD02FCC27C4
:100A3000C16FD06A8DCF011589E51807A0F50115A2
:100A400098E5190708F077C0011525E51207C8F4E5
:100A5000011584E5180708F069C0C801837099275B
:100A6000C1E0D0E002C0CC0FDD1F8A95E2F7069509
:100A7000069590E2099F80011124C02BD12BDA68E2
:100A800067CFC80195558F3F910511F008F059CFF8
:100A9000802F0E94D203C82FD0E0DC2FCC27CC2798
:100AA000DF71D06255CF01152AE5120708F448C05E
:100AB000C80190568115904208F043CF812F8F7165
:100AC0000E94D203C82FD0E0DC2FCC27CC27DF71C7
:100AD000C02BE7CFC80154E0969587955A95E1F76A
:100AE0008370C695C695C37090E2C99FE00111243A
:100AF000D82B037081E090E002C0880F991F0A95FF
:100B0000E2F7C82BD92BDC6823CF98012370332759
:100B100081E090E002C0880F991F2A95E2F7C69500
:100B2000C69520E2C29FE0011124EBCFD02FCC2745
:100B3000C46FD06A0DCFD02FCC27C06FD06A08CF3A
:100B4000802F8F700E94D20394E0D695C7959A9516
:100B5000E1F7CF709C2FEC01D069FACEC9E3D0E069
:100B6000F7CEC2EED0E0F4CEC6EED0E0F1CEF894EF
:100B7000E82FE295EF70F0E041A18F7021E030E0C6
:100B8000B90102C0660F771F8A95E2F7CB01962F55
:100B90009095942391A392A1892B82A37894089590
:100BA0008430C1F138F48230C9F0833029F18130CA
:100BB00039F008958530E1F1863009F447C0089591
:100BC00080912201482F460F5527551F860F4F3F12
:100BD00051050CF08FEF809322010895809121013F
:100BE000482F460F5527551F860F4F3F51050CF0D4
:100BF0008FEF80932101089580912001482F460FA7
:100C00005527551F860F4F3F51050CF08FEF8093EE
:100C10002001089580911F01482F460F5527551F29
:100C2000860F4F3F51050CF08FEF80931F01089501
:100C300080911E01482F460F5527551F860F4F3FA5
:100C400051050CF08FEF80931E01089580911D01D6
:100C5000482F460F5527551F860F4F3F51050CF063
:100C60008FEF80931D010895843071F138F4823044
:100C7000A9F08330F1F0813031F00895853079F1B9
:100C80008630C1F1089580912201681720F4861BF7
:100C900080932201089510922201089580912101EC
:100CA000681720F4861B809321010895109221017A
:100CB000089580912001681720F4861B80932001FD
:100CC000089510922001089580911F01681720F463
:100CD000861B80931F01089510921F010895809133
:100CE0001E01681720F4861B80931E010895109240
:100CF0001E01089580911D01681720F4861B8093C2
:100D00001D01089510921D0108958091B40380FF84
:100D100012C06091200185E0689FB0011124759593
:100D200067957595679560387105A8F5611571052A
:100D3000A1F1862F089581FF09C06091200185E00F
:100D4000689FB001112475956795EDCF60912001E2
:100D500082FD0AC02091B3032223D1F090911F019C
:100D600060912001291728F085E0689FB0011124C7
:100D7000DACF269F9001112485E0829FA001839FF6
:100D8000500D1124692F70E0CA010E944627CBCF75
:100D900065E070E0CECF8FE7089581E008958091FF
:100DA000B40380FF0CC060911E0170E075956795DB
:100DB000759567956115710549F1862F089581FF35
:100DC00006C060911E0170E075956795F3CF609144
:100DD0001E0182FD0BC09091B2039923A1F0609196
:100DE0001D0180911E01961738F0682F70E0603861
:100DF000710500F38FE70895899FC001112470E009
:100E00000E944627F4CF61E070E0D7CF81E00895DB
:100E1000E3E1E80FE331E0F5F0E0EF55F74D0C9436
:100E20005A270E94850681958093AF0308950E94FA
:100E30008506FACF0E94850681958093AE030895BA
:100E40000E948506FACF0E94CF068093B0030895D2
:100E50000E94CF068195F9CF0E94CF06819580939D
:100E6000B10308950E94CF06FACF815F990B21E06C
:100E700030E001C0220F8A95EAF78091AD03822B02
:100E80008093AD0308958091B40381608093B4038F
:100E900008958091B4038260F9CF8091B403846097
:100EA000F5CF4091AE038D3E59F48091AF0387FF9B
:100EB0000DC01092AF0341110BC01092B30308C0D4
:100EC0008E3E81F48091AF0318169CF3442381F089
:100ED0008091B0039091B103892B09F05AC0109210
:100EE000B20308958F3E49F447FFF0CF1092AE034E
:100EF0008091AF038111ECCFE0CF803F19F414163D
:100F0000ACF3E4CF9091B003893F29F41916F4F6BD
:100F10001092B003DBCF8A3F19F497FFD7CFF8CFF9
:100F20009091B1038B3F29F497FFD0CF1092B1037A
:100F3000CDCF8C3F19F41916CCF3C8CF9FE0980F92
:100F4000983090F4815F990B21E030E0B90102C044
:100F5000660F771F8A95E2F7CB0180959091AD03DC
:100F600089238093AD03B2CF8D3F31F48091B403D8
:100F70008E7F8093B403AACF8E3F21F48091B40377
:100F80008D7FF7CF8F3F09F0A1CF8091B4038B7F86
:100F9000F0CF08956F927F928F929F92AF92BF92FF
:100FA000CF92DF92EF92FF920F931F93CF93DF9335
:100FB000B82EA62E8901E42FF0E0EB5AFC4F611108
:100FC00019C0E4918E2F2E2FD80111962C931197D2
:100FD000EC9312968C93DF91CF911F910F91FF901C
:100FE000EF90DF90CF90BF90AF909F908F907F90C9
:100FF0006F900895E62EF12C249186E0B89E600152
:101000001124CFEFD0E0C601BE010E9432278B2D04
:1010100090E0880F991F35E5369FA001379F500D4E
:101020001124841B950B982F990F980FAE014E1920
:101030005F09249FD001259FB00D1124EB2FA99E9D
:1010400050011124AB2CBB24AE014A195B09249F2B
:101050005001259FB00C11248B2D3E01691A710897
:101060006E9C40016F9C900C7E9C900C1124892CEE
:101070009924C819D9092C9FA0012D9F500D112426
:1010800063307105D1F09CEFC91693E0D90670F476
:1010900061307105B1F062307105B9F0FFEFCF1624
:1010A000D10408F091CF8B2FE52F8ECF64307105DE
:1010B00079F066307105B9F387CFEB2D822F2B2F96
:1010C00083CFE22F2B2D8B2F7FCF852FE22FF7CFD2
:1010D000822F252F79CF8091A303982F9E7F29F40B
:1010E000817082608093A30308958635E8F3817050
:1010F0008465F8CF0895FA0181110994FB01FDCFB1
:10110000CF93DF93CDB7DEB728970FB6F894DEBF45
:101110000FBECDBF893068F581112CC09091800041
:10112000977F909380002F98282F30E0AFEFBFEF8C
:101130000E949028AB01BC0133E0769567955795E6
:1011400047953A95D1F7CA014C3724E15207C0F4CC
:1011500069E070E00E94322770938D0060938C00EC
:1011600028960FB6F894DEBF0FBECDBFDF91CF91AA
:10117000089588E090918000986090938000D4CF8B
:101180004A50574D6F4F7F4FB62FA52F942F88276A
:10119000BC01CD0125EF38E241E050E00E946E280D
:1011A00029833A834B835C83CA01B9010E940827D3
:1011B0009B01AC0169817A818B819C810E94082707
:1011C000BB27A92F982F872FBC010097A140B105FD
:1011D00019F66FEF7FEFC0CFE091B503F091B60342
:1011E000309721F00190F081E02D099480E008957E
:1011F00020917502309176022817390771F090938B
:10120000760280937502E091B503F091B6033097B2
:1012100021F00680F781E02D099408952091730252
:10122000309174022817390771F0909374028093FB
:101230007302E091B503F091B603309721F000847A
:10124000F185E02D0994089580913C0290913B0234
:10125000981301C008958F5F8770FACFE82F2EE0B2
:10126000929FE00D11248E2F877041E001C0440F42
:101270008A95EAF7E695E695E69585E0E89FF00120
:101280001124E250FE4F30E020E070E05191DF0188
:101290001197CB01022E02C0969587950A94E2F72A
:1012A000817081958527842385278C932F5F3F4FFD
:1012B0002530310559F70895E82F2EE0929FE00D73
:1012C00011249E2F9770E695E695E69585E0E89FB8
:1012D000F0011124E250FE4F50E040E080E0219107
:1012E00030E0092E02C0369527950A94E2F7217066
:1012F0003327042E01C0220F0A94EAF7822B4F5F96
:101300005F4F4530510559F70895BF92CF92DF9254
:10131000EF92FF920F931F93CF93DF938C01C090B6
:101320003502D0903602E0903702F090380280917A
:10133000310290913202A0913302B0913402C82A56
:10134000D92AEA2AFB2ACFE1D0E0BC2ED701C60178
:101350000C2E04C0B695A795979587950A94D2F759
:1013600080FD0EC0219788F7B12C8B2DDF91CF9196
:101370001F910F91FF90EF90DF90CF90BF90089555
:10138000B8018C2F0E941504019761F3EECFFF92F4
:101390000F931F93CF93DF93FC0182810081118112
:1013A000C081F180882311F1662301F1C8010E94F8
:1013B0008509D82F682FC8010E942E09EC2FF0E074
:1013C0008EE0F89EE00DF11D112486E4D89FE00D1B
:1013D000F11D1124EE0FFF1FEB5AFB4F85919491E5
:1013E000DF91CF911F910F91FF900895C8010E9446
:1013F0005C09D82FE3CFCF93DF93D82FC92F0E945A
:1014000085096D2F7C2FDF91CF910C9415040E94DC
:10141000FB09282F892F8F70392F32953F70903C10
:1014200080F43A30B0F4343020F4323090F480E07C
:1014300008953630E1F781E0283E88F0213FB9F782
:101440000EC03C3011F03F3091F786958695869519
:10145000089581E0203F39F018F4283E40F70895C0
:10146000243F29F7FCCF089590910E019923C1F0F4
:101470009091D20397FF14C0E82FE695E695E69584
:10148000803FF8F4F0E0E456FE4F877021E030E052
:1014900001C0220F8A95EAF78281822B8283089508
:1014A000AEE9B1E0EFEF90E02D91821751F0EF3F00
:1014B00019F4211101C0E92F9F5F9630A9F7EF3F82
:1014C00009F408950E2E000CFF0BE456FE4FE6CFF4
:1014D00090910E019923E1F09091D20397FF18C0EB
:1014E000E82FE695E695E695803FF0F4F0E0E456C7
:1014F000FE4F877021E030E0A90102C0440F551F64
:101500008A95E2F7CA0180959281892382830895A2
:10151000EEE9F1E09191891303C0DF0111971C926C
:1015200051E0E43AF507B1F7089580913002811156
:1015300010923002089580912F0290913A02892BE7
:1015400090912B02892B80939C01909130029923DA
:10155000A1F0892B80939C0180910E01882341F199
:101560008091D20387FF24C08EE1EEE9F1E090E0A4
:10157000815000F591110E94950AE091B503F09118
:10158000B6033097E1F080910E01882359F08091E5
:10159000D20387FF07C080919C0180939D0185E065
:1015A00080939C010280F381E02D8CE991E0099405
:1015B00086E0DBCF21912223D9F29F5FD9CF089516
:1015C000882339F090912F02892B80932F020C945D
:1015D0009B0A0895882341F0809590912F028923DA
:1015E00080932F020C949B0A089580E008952FB7F2
:1015F000F8948091F9019091FA01A091FB01B091CA
:10160000FC012FBF08950E94F70A2091AE0330918C
:10161000AF03232B21F08093AA039093AB03209177
:10162000B0033091B103232B21F08093A803909352
:10163000A903E091B503F091B603309749F082E039
:101640008093AC030480F581E02D8CEA93E009944B
:101650000895882309F459C0823871F40E94EC0877
:1016600081FF53C089E30E94340A0E949B0A89E3E8
:101670000E94680A0C949B0A833859F40E94EC0873
:1016800080FF43C083E50E94340A0E949B0A83E5E1
:10169000EFCF843859F40E94EC0882FF36C087E40B
:1016A0000E94340A0E949B0A87E4E2CF9CEF980FC5
:1016B000913AF0F290E2980F983088F4877021E028
:1016C00030E0A90102C0440F551F8A95E2F7CA0114
:1016D000809590912F02892380932F02CBCF9BE599
:1016E000980F933020F490E080E00C94F80898E58F
:1016F000980F973120F490E080E00C940E098D3E15
:1017000020F00E9451070C94030B089590E080E0B4
:101710000E94F80890E080E00E940E0910923A02C0
:1017200010922B020E949B0A86E0ECEAF3E0DF01B4
:101730001D928A95E9F71092B3031092B2031092AA
:10174000B4030C94030B60933102709332028093C4
:101750003302909334020C94860B6093350270939D
:10176000360280933702909338020C94860B0F93C5
:101770001F93CF93DF9300D000D0CDB7DEB741E009
:1017800050E060E070E004C0440F551F661F771FF3
:101790008A95D2F78091350290913602A091370256
:1017A000B09138028A019B01082B192B2A2B3B2B65
:1017B00009831A832B833C83C901B8010F900F90D2
:1017C0000F900F90DF91CF911F910F910C94AD0B63
:1017D0000F931F93CF93DF9300D000D0CDB7DEB728
:1017E00041E050E060E070E004C0440F551F661F08
:1017F000771F8A95D2F740955095609570958091A6
:10180000350290913602A0913702B09138028A01D8
:101810009B01082319232A233B2309831A832B8343
:101820003C83C901B8010F900F900F900F90DF918A
:10183000CF911F910F910C94AD0B9091390280952F
:10184000892380933902282F277071F4282F082EBE
:10185000000C330B9217130639F085958595859505
:101860000E94E80B1092390208959C014FB7F8943A
:101870008091F9019091FA01A091FB01B091FC01D6
:101880004FBF821B930B08958091F8010895FC01CE
:10189000CB012091C8013091C9012617370790F07C
:1018A000009729F42091E8002E772093E80040E08B
:1018B000009751F4411108C08091E80082FF31C0C7
:1018C00080E00895C901F3CF2091D7012223A9F127
:1018D0002530A9F12091E80023FD2DC02091E800DA
:1018E00022FDEACF2091E80020FFE2CF3091F30003
:1018F0002091F200009719F02830310558F041E0AE
:101900002830310509F040E02091E8002E7720933F
:10191000E800CECF41914093F10001972F5F3F4FF8
:10192000E9CF8091D701882341F0853041F0809143
:10193000E80083FFC1CF81E0089582E0089583E04D
:1019400008958091C20187FF13C08091E80082FF53
:1019500006C08091E8008B778093E80004C08091F6
:10196000D7018111F2CF08958091D7018823D9F34F
:101970008091E80080FFF8CF8091E8008E77ECCF6F
:101980002091E4003091E50095E6A9012091EC005A
:10199000822F817020FF06C08091E80080FF06C082
:1019A00080E008952091E80022FD1AC08091D701BF
:1019B000882389F0853089F08091EB0085FD0FC088
:1019C0002091E4003091E50042175307F9F291505D
:1019D000E1F684E0089582E0089583E0089581E0CF
:1019E0000895E8EDF0E080818E7F80831092E20020
:1019F0001092DA001092E100A0EEB0E08C918160CC
:101A00008C9380818F77808319BCA7EDB0E08C9197
:101A10008E7F8C9380818F7E80831092C101089588
:101A2000EF92FF920F931F93CF937C018B010E9443
:101A3000C00CC82F811117C08091E80085FD0BC034
:101A40008091E8008E778093E8000E94C00C882384
:101A500099F3C82F08C0F70181917F018093F100AD
:101A60000150110949F78C2FCF911F910F91FF90D1
:101A7000EF900895982F9093E900242F762F50E04F
:101A8000891731F07091EC002091ED005091F00039
:101A900021FD06C09F5F973071F78093E90008959C
:101AA0003091EB003E7F3093EB003091ED003D7FB5
:101AB0003093ED003091EB0031603093EB00709388
:101AC000EC002093ED005093F0002091EE0027FDF4
:101AD000E1CF0895CF92DF92EF92FF920F931F9381
:101AE000CF93DF93C8EDD0E088818F7E8883E7EDC8
:101AF000F0E080818160808384E082BF81E0809318
:101B0000C10188818E7F888302EE10E0F801108287
:101B10001092DA0081EEC82ED12CF6011082888155
:101B20008F77888388818068888388818F7D888388
:101B300019BC1092D7011092C0011092D6011092D8
:101B4000BF0190EEE92EF12CF70180818B7F80831D
:101B500088818160888342E060E080E00E943A0DE5
:101B6000F60180818E7F8083F8018081816080838F
:101B7000808188608083F70180818E7F8083888167
:101B800080618883DF91CF911F910F91FF90EF903B
:101B9000DF90CF900895AF92BF92CF92DF92EF92F5
:101BA000FF920F931F93CF93DF93C8E5D1E008EC2A
:101BB00013E0C12CD12CEE24E394F12C8991F894FC
:101BC000E82FE295EF70F0E021A18F70A70102C02D
:101BD000440F551F8A95E2F7CA01922F982B91A3C3
:101BE00092A18095892382A3789400C0EDE5F1E06D
:101BF00030E020E0B12CA12C4191A42FA295AF7030
:101C0000A05EB0E08C9190E04F7002C095958795F2
:101C10004A95E2F780FD48C0C701022E02C0880F36
:101C2000991F0A94E2F7A82AB92A2F5F3F4F2E3056
:101C3000310511F7FE01319780810E94B70554E00C
:101C4000C51619F080E58A95F1F7F8018191919117
:101C50008F01A816B90659F13297B182A08281E0AE
:101C6000D82AC394F5E0CF12A9CFDD2011F181E08D
:101C70008093BD030E94F70A9093BC038093BB033B
:101C80008091BB039091BC030E94350C0697A8F08D
:101C90008AE0E8ECF3E0AEEBB3E001900D928A95B8
:101CA000E1F71092BD0309C080E090E0BCCF80E076
:101CB000D7CF8091BD038111E3CF8D2DDF91CF91DF
:101CC0001F910F91FF90EF90DF90CF90BF90AF905A
:101CD00008958091A30380FD0AC0EFE2F3E0118232
:101CE00010821282339653E0EB39F507C1F7219A3F
:101CF00035B13D7F25B122604FB7F8948FE293E074
:101D0000FC010196508168E025B957FF35B9550FA0
:101D1000000000C035B96A95B9F753E08B399507D3
:101D200079F74FBF8FE292E00197F1F700C0000012
:101D300008959091A30390FF0CC0EFE2F3E081833C
:101D400060834283339693E0EB39F907C1F70C9433
:101D5000690E0895CF93DF9300D00F92CDB7DEB711
:101D60009091A30390FF0FC09E012F5F3F4F0E94F1
:101D7000CA074B8169818A810F900F900F90DF9184
:101D8000CF910C94990E0F900F900F90DF91CF91FF
:101D90000895CF93DF93EC01EC81F0E0E05BFD4F21
:101DA0004491E3EAF3E0628181810E94AA0E8C8172
:101DB0008F5F8C83DF91CF910895CF93DF93EC01F8
:101DC000E3EAF3E0438162818C810E94AA0E8C8158
:101DD0008F5F8C83DF91CF9108950F931F93CF93E3
:101DE000DF9300D00F92CDB7DEB78C0180912C032A
:101DF00081110AC09E012F5F3F4F4FEF6FEF0E948E
:101E0000CA078A8180932C03F8016481613049F00C
:101E10006230F1F080912C0340E0662331F040E025
:101E200019C060912C0340E080E00E94990EF801F7
:101E3000848190E0019663E070E00E9446278483ED
:101E40000F900F900F90DF91CF911F910F910895F8
:101E500040912C0380E060E0E8CFEF92FF921F9367
:101E6000CF93DF93EC018FE2E82E83E0F82E10E0B1
:101E70008C8197014091A6036091A503810F0E9478
:101E8000CA07195F83E0E80EF11C1C3F89F70E9426
:101E9000690E9A818C8190FF08C08F5F8C83DF91DF
:101EA000CF911F91FF90EF9008958150F7CFCF927F
:101EB000DF92EF92FF920F931F93CF93DF93FC017A
:101EC0008281DD24DA9480FD02C0DD24D3940FE208
:101ED00013E0D0E0C0E0F80111821082128294E099
:101EE000E92EF12CC12C80912E038C0D8532E4F16A
:101EF00064E20E942427892F082E000C990B8C176E
:101F00009D0791F48091A6038E9DA0018F9D500D99
:101F10001124559547955595479598016091A503CE
:101F20008091A4030E94CA07CD0CF1E0EF1AF108DA
:101F3000D1F621960D5F1F4FC432D10561F60E9484
:101F4000690E80912E0391E0D91212C08823B1F05E
:101F5000815080932E03DF91CF911F910F91FF90BD
:101F6000EF90DF90CF90089587FFC6CF8C5DC4CFF0
:101F700090E00196BE010E944627EBCF83E2E9CFB5
:101F80000F931F93CF93DF93CFE2D3E0FE01118233
:101F900010821282339683E0EB39F807C1F710E024
:101FA00000E080912D03082E000C990B08171907EB
:101FB0008CF180911101082E000C990B801791076C
:101FC0004CF19E014091A6036091A5038091A4036A
:101FD0000E94CA070F5F1F4F23960432110509F7AD
:101FE0000E94690E8091100190912D03980F90939B
:101FF0002D0320911101280F20931101121614F4C2
:1020000093321CF0819580931001DF91CF911F9145
:102010000F910895198218821A82DCCFCF92DF9235
:10202000EF92FF920F931F93CF93DF93CDB7DEB75D
:102030002E970FB6F894DEBF0FBECDBF8D879E875B
:10204000AD85BE8514961C91212F30E0D9010E94E8
:1020500090289B01AC010E945B2869837A838B8363
:102060009C83E0E2F0E0E11BF109A5E5B0E09B0113
:10207000AC010E945B2869877A878B879C879F01C8
:10208000DF010E9460279B01AC010E9466286D83DE
:102090007E838F8398879B01AC0189819A81AB8174
:1020A000BC81280F391F4A1F5B1F69857A858B8584
:1020B0009C850E946E28F22E422F50E099E29F15D7
:1020C00008F442C0A3E02A9F90011124359527957A
:1020D000122F10959FE2C92E93E0D92E00E085E5DE
:1020E000E82EEF188E2D01FD8F2D9601412F609166
:1020F000A5030E94CA070F5FB3E0CB0ED11C0432C8
:1021000089F70E94690EED85FE85948181E099230F
:1021100019F0903219F48FEF80930F0180910F0125
:10212000890FAD85BE8514968C932E960FB6F894C4
:10213000DEBF0FBECDBFDF91CF911F910F91FF90FA
:10214000EF90DF90CF90089585E590E0841B950B8C
:102150009C01220F331F280F391F37FFB7CF2F5F86
:102160003F4FB4CFEF92FF920F931F93CF93DF9324
:10217000EC010FE213E0F12CE12C9C816091A503AE
:102180008091A40322E1E216F104FCF49923F9F012
:1021900098014091A6030E94CA078FEFE81AF80A37
:1021A0000D5F1F4F24E2E216F10439F70E94690E19
:1021B0008C8190E00196817099278C83DF91CF917B
:1021C0001F910F91FF90EF900895992309F39801C3
:1021D00040E0E1CF81E08093E00080E28093D8008E
:1021E0001092C9008FE097E20197F1F700C000005C
:1021F00087E090EBDC018093D4039093D503A09308
:10220000D603B093D70388E19CE00FB6F894A89565
:10221000809360000FBE90936000FFCFCF93DF9359
:10222000D82FC92F80910E018823C1F18091D2034C
:1022300087FF34C060E282E08093E9008FEF9091E5
:10224000E800815095FD06C09AE69A95F1F700C026
:102250008111F5CF8091E80085FF1DC080910E01AE
:1022600070E050E040E0811104C050E040E068E0E0
:1022700070E08D2F9C2F0E94100D8091E8008E77CA
:102280008093E80080E2ED2FFC2FA8EDB1E00190F3
:102290000D928A95E1F7DF91CF91089568E081E092
:1022A000CBCF22E02093E9002FEF3091E8002150BE
:1022B00035FD06C03AE63A95F1F700C02111F5CF99
:1022C0002091E80025FF0BC050E040E066E070E0A0
:1022D0000E94100D8091E8008E778093E8000895A9
:1022E000CF93DF9300D00F92CDB7DEB79091D70197
:1022F000943019F589836A837B8382E08093E900B7
:102300008FEF9091E800815095FD06C09AE69A956E
:10231000F1F700C08111F5CF8091E80085FF0DC075
:1023200050E040E063E070E0CE0101960E94100DA5
:102330008091E8008E778093E8000F900F900F90C7
:10234000DF91CF910895BC0183E00C947011BC0122
:1023500084E00C9470110F931F93CF93DF938B0144
:10236000D82FC92F0E946B08A8016D2F7C2F88E001
:1023700090E0DF91CF911F910F910C941A28E3EA1E
:10238000F3E083E0808311828FEF82838383148262
:1023900063E070E08FEF9FEF0C94AB11CF93DF936E
:1023A00000D000D0CDB7DEB78091A703833018F4FA
:1023B0008F5F8093A7038091A3039091A403A091C2
:1023C000A503B091A60389839A83AB83BC83BC0128
:1023D000CD010F900F900F900F90DF91CF910C9443
:1023E000AB11CF93DF9300D000D0CDB7DEB7809193
:1023F000A703882319F081508093A7038091A3033A
:102400009091A403A091A503B091A60389839A8318
:10241000AB83BC83BC01CD010F900F900F900F9048
:10242000DF91CF910C94AB115F926F927F928F925C
:102430009F92AF92BF92CF92DF92EF92FF920F9353
:102440001F93CF93DF9300D000D000D00F92CDB771
:10245000DEB7182F762E042F622E9091A30390FFE3
:1024600083C0E92FE695AE2FB0E0A35DBE4F8C91FF
:1024700080939B039E7F9230C9F59E012F5F3F4F53
:10248000812F0E94CA074B8169818A810E94990E1F
:102490001093A4037092A5030093A603662009F489
:1024A00063C08091A3039091A403A091A503B09170
:1024B000A6038C839D83AE83BF83BC01CD01279689
:1024C0000FB6F894DEBF0FBECDBFDF91CF911F9145
:1024D0000F91FF90EF90DF90CF90BF90AF909F90C3
:1024E0008F907F906F905F900C94AB11823019F4B5
:1024F0000091A603CDCF863019F41091A403C8CF64
:102500008930D9F3893121F6E9518E2F8170582E07
:10251000E695F0E0E05BFC4FA590B490BB248FE221
:10252000E82E83E0F82ED12CC12C94E2892E912C38
:10253000C601B4010E943227812F511013C0860FAB
:102540009701402F672D0E94CA07CA0CDB1C93E03D
:10255000E90EF11CABE9EA16A3E0FA0649F70E947E
:10256000690E96CF861BECCF27960FB6F894DEBF88
:102570000FBECDBFDF91CF911F910F91FF90EF90D4
:10258000DF90CF90BF90AF909F908F907F906F9093
:102590005F900895E3EAF3E0818121E04381628165
:1025A000885F0C941412E3EAF3E0818121E0438117
:1025B000628188500C941412E3EAF3E0628128E00F
:1025C000620F08F46FEF21E0438181810C941412B3
:1025D000E3EAF3E0628128E0621B08F460E021E0B6
:1025E000438181810C941412E3EAF3E0438128E0F3
:1025F000420F08F44FEF21E0628181810C941412A4
:10260000E3EAF3E0438128E0421B08F440E021E0E4
:10261000628181810C941412CF93DF9300D000D09B
:10262000CDB7DEB79091A30390FF4CC08823E1F1B2
:102630008B32E0F58F77880F9091A3039170892BEF
:102640008093A303662381F08091A3039091A40358
:10265000A091A503B091A60389839A83AB83BC8321
:10266000BC01CD010E94AB116091A303669570E09F
:102670004BE050E082E191E00E94E727892BC1F016
:1026800010929C0381E08093A00320E04091A60378
:102690006091A5038091A4030F900F900F900F906D
:1026A000DF91CF910C94141281E0C5CF8AE2C3CFA1
:1026B00081E080939C030E94F70A90939E0380938D
:1026C0009D03E0CF0F900F900F900F90DF91CF916F
:1026D00008958091A30386958F5F8B3208F081E087
:1026E00061E00C940C139091A30396958FEF890FE2
:1026F000913009F48AE261E00C940C139091A303E9
:1027000090FF07C09695981720F0961710F40C9438
:10271000691361E00C940C134F925F926F927F9259
:102720008F929F92AF92BF92CF92DF92EF92FF92E1
:102730000F931F93CF93DF93FC016280448081E06D
:102740008483E0E5F2E07490EFECF2E0E491C8E716
:10275000D2E09FE2E92E93E0F92E2CE2C22E23E094
:10276000D22E32E0A32EBB24B39488248A94912CD9
:1027700055245A94E7190E2F10E082E0861530F0A8
:102780008091A40388838091A5038983411021C08F
:102790001B821A8297014A81698188810E94CA0737
:1027A000259683E0E80EF11CCC16DD0631F7DF91AB
:1027B000CF911F910F91FF90EF90DF90CF90BF903E
:1027C000AF909F908F907F906F905F904F900C9400
:1027D000690E8B818823E9F081508B83859DC00130
:1027E00011246C8170E00E943227FB01FF27E05B1F
:1027F000FD4F8491E82FE719E59DC0011124B80130
:102800000E9432278091A603689FB00111247A8329
:10281000C1CF0E94D727AC019091A60396959158FD
:102820009A9D90019B9D300D1124232F3327421731
:1028300053070CF0AFCF82E0861588F40E94D727AB
:10284000B4010E94462788830E94D7272091A503C0
:102850002695622F70E00E944627280F29831A824E
:102860008091A603893C20F088EC8C838B8392CFE7
:102870008431D8F784E1F9CFCF9384E090E00E94CF
:10288000F427C82F81E290E00E94F427982F8C2F24
:10289000CF91089510922F0280910E01EEE9F1E0A0
:1028A000882359F08091D20387FF07C08EE1DF01B2
:1028B0001D928A95E9F70C94860B86E0F8CF0F936A
:1028C0001F93CF93DF9300D000D0CDB7DEB741E0A8
:1028D00050E060E070E08A019B0104C0000F111F0E
:1028E000221F331F8A95D2F709831A832B833C83D7
:1028F000C901B8010E94A30B0F900F900F900F9089
:10290000DF91CF911F910F910C944A141F93CF9395
:10291000DF93CDB7DEB7AA970FB6F894DEBF0FBE30
:10292000CDBF82EC91E0FC0101962091F100208363
:1029300021E08A3C9207B9F78091C301893009F4FC
:1029400056C0C8F4823009F4B1C0833009F480C0A5
:10295000813071F18091E80083FF78C28091C201DB
:102960009091C3019A3008F071C2E92FF0E0EC5465
:10297000F74D0C945A278A3009F487C08B3051F7F1
:102980008091C201813231F78091C6019091C701D7
:10299000892B01F78091E800877F8093E8000E94EF
:1029A000A10C8091C40180930E010E944A14D2CFE1
:1029B0008091C201813A71F68091E800877F80930F
:1029C000E8008091C6019091C701892B61F460E213
:1029D00088ED91E070E00E94470C8091E8008B77D1
:1029E0008093E800B7CF60E090E080E0F3CF809183
:1029F000C201813209F0AECF8091C6019091C7012A
:102A0000029708F0A7CF8091E800877F8093E800C5
:102A10008091E80082FF17C09091F3008091F2004E
:102A2000029729F48091F1008B7F813021F480910D
:102A3000F1008093F8018091E8008B778093E800A3
:102A40000E94A10C87CF8091D7018111E1CF82CF65
:102A50008091C201813A09F07DCF8091C6019091A9
:102A6000C701892B09F076CF8091E800877F80939A
:102A7000E8008091E80080FFFCCF80910E018093F8
:102A8000F1008091E8008E77D9CF8091C201813228
:102A900009F060CF8091E800877F8093E8000E9472
:102AA000A10C8091C5018093BE0154CF8091C201D9
:102AB000813A09F04FCF8091E800877F8093E8004A
:102AC0008091E80080FFFCCF8091BE01D8CF803894
:102AD00099F0823809F0BAC18091C6018F708730B1
:102AE00008F0B4C18093E9008091EB0085FB882752
:102AF00080F91092E90006C08091BF019091D60143
:102B0000911182609091E800977F9093E800809304
:102B1000F1001092F1008091E8008E7793C1882334
:102B200009F481C1823009F091C18091C401811101
:102B300084C18091C6018F702FEF280F263008F0D6
:102B400085C18093E9002091EB0020FF76C193308E
:102B500031F48091EB0080628093EB006EC1909124
:102B6000EB0090619093EB0021E030E001C0220F78
:102B70008A95EAF72093EA001092EA008091EB0030
:102B80008860EACF811162C11091C4011F778091E2
:102B9000E3008078812B8093E3008091E800877FB9
:102BA0008093E8000E94A10C8091E80080FFFCCF98
:102BB0008091E30080688093E30082E0111183E05C
:102BC0008093D70143C18058823008F03FC14091C3
:102BD000C4015091C5014C3D83E0580799F583E04D
:102BE0008A838AE289834FB7F894DE01139620E046
:102BF0003EE051E2E32FF0E050935700849120FF34
:102C000003C082958F703F5F8F708A30C8F0895CF7
:102C100090E08D939D932F5F243161F74FBF80919A
:102C2000E800877F8093E8006AE270E0CE010196B9
:102C30000E94470C8091E8008B778093E80006C1E2
:102C4000805DE6CF2091C6013091C701852F99277D
:102C50008330910509F160F48130910509F472C067
:102C6000029709F0F3C08BE390E0E2EAF1E029C0BB
:102C70008132910509F45AC0829709F0E7C0211505
:102C8000310509F469C02130310509F0DFC086EB58
:102C900090E0ECEAF0E015C0CA0199274130B1F1AB
:102CA0008230910509F43AC0892B09F0CFC0E7E3DF
:102CB000F2E0E4918E2F90E0E7E3F2E0009709F470
:102CC000C5C02091E800277F2093E8002091C8012B
:102CD0003091C9018217930708F49C0140E0211547
:102CE000310509F03EC041113CC08091E80082FDF1
:102CF000A1CF8091D701882309F49CCF853009F4B6
:102D000099CF8091E80083FFF0CF94CFEBE0F2E021
:102D1000E4918E2F90E0EBE0F2E0D0CFEFEEF1E027
:102D2000E4918E2F90E0EFEEF1E0C8CF2115310550
:102D300071F02130310509F089C089E090E0EDECB7
:102D4000F1E0BFCF82E190E0EDEDF1E0BACF89E0B4
:102D500090E0E4EBF1E0B5CF80E490E0E2E6F1E072
:102D6000B0CF8091D701882309F464CF853009F46E
:102D700061CF8091E80083FD5DCF8091E80082FD06
:102D8000B4CF8091E80080FFAACF9091F3008091AA
:102D9000F2002115310519F08830910550F041E01D
:102DA000089709F040E08091E8008E778093E80072
:102DB00096CF44914093F10031962150310901960C
:102DC000E8CF803809F042C08091E800877F809387
:102DD000E8008091C0018093F1009DCE811136C042
:102DE0001091C401123090F58091E800877F8093A4
:102DF000E8001093C0010E94A10C112311F084E09F
:102E000005C08091E30087FDFACF81E08093D70170
:102E100042E061EC81E00E943A0D42E261EC82E026
:102E20000E943A0D13C08091C401813079F481E091
:102E3000933009F080E08093D6011092E9008091F0
:102E4000E800877F8093E8000E94A10C8091E80051
:102E500083FF0AC08091E800877F8093E80080911B
:102E6000EB0080628093EB00AA960FB6F894DEBF69
:102E70000FBECDBFDF91CF911F9108956BEE7EEF16
:102E800090E080E00E94262860E082E090E00E94CE
:102E9000082860E083E090E00E9408281092310248
:102EA00010923202109233021092340260E084E0F9
:102EB00090E00E94082860E081E290E00E940828EB
:102EC00060E085E090E00E94082860E086E090E005
:102ED0000E9408286FEF87E090E00E94082840E0F9
:102EE00050E0BA0188E090E00E941A2860E08DE08E
:102EF00090E00E94082840E050E0BA0188E190E0AC
:102F00000E941A2860E087E190E00E94082840E0D3
:102F100050E0BA018CE190E00E941A2860E080E263
:102F200090E00E94082840E050E0BA0188E190E07B
:102F30000E941A2840E050E0BA018FE090E00E9421
:102F40001A2840E050E0BA0183E190E00C941A287E
:102F5000EBEFE80FEF3308F07EC0F0E0E254F74DFE
:102F60000C945A270E943E1781E008958091B50382
:102F70009091B603009759F09093BA038093B903E8
:102F80000E944A141092B6031092B503EDCF8091BF
:102F9000B9039091BA039093B6038093B503E4CF3D
:102FA0008091B803807F8093B80381E08093B7035A
:102FB00008950E944A142FE78AE196E0215080404C
:102FC0009040E1F700C000000E94EA109091B80321
:102FD000892F8E7F90FF81608093B80380FDC4CFDE
:102FE000817F8093B803C0CF9091B803892F8D7FE4
:102FF00091FF82608093B80381FFB6CF8091B803C0
:103000008160EFCF9091B803892F8B7F92FF84600E
:103010008093B80382FDF2CFA7CF9091B803892F98
:10302000877F93FF88608093B80383FDE7CF9CCFB1
:103030000E944A149091D203892F97FB87F98058F8
:103040008093D20391CF80E00E945F148DCF89538B
:10305000FBCF8D51F9CF80E00895CF93C82F8823FF
:1030600009F486C08238C1F40E94EC0881FD80C05A
:1030700089E30E94340A0E949B0A2FEF30E782E026
:10308000215030408040E1F700C0000089E30E94F9
:10309000680ACF910C949B0A8338A1F40E94EC0833
:1030A00080FD66C083E50E94340A0E949B0A9FEF60
:1030B00020E732E0915020403040E1F700C00000AE
:1030C00083E5E5CF8438A1F40E94EC0882FD50C06E
:1030D00087E40E94340A0E949B0A8FEF90E722E067
:1030E000815090402040E1F700C0000087E4CFCF3E
:1030F0008CEF8C0F813A08F0AFC08091B70381301C
:1031000081F0823051F1811173C080912F0282329F
:1031100009F070C08C2F0E94A817982F911128C019
:1031200069C080912F028232A9F3C43171F030F46A
:10313000CB3089F0C03161F090E005C0C93229F090
:1031400091E0C833C9F79170E9CF1092B703F4CF7B
:1031500082E08093B70391E0F6CFCB3481F198F40D
:10316000C43240F4CE3100F5C73079F1C43121F0DA
:10317000CF910895C932E1F780912C02882381F024
:1031800010922C02F5CFC135C1F061E0C235C1F01B
:103190006AE0CE3469F780912C02CF910C9434060A
:1031A00081E08093B703E4CFCE51EC2FF0E0ED5DEA
:1031B000FE4F808180932C02DBCF61E0ECCF6AE090
:1031C00080912C02CF910C94D0058EE18093220146
:1031D00082E3809321018AE08093200184E180933F
:1031E0001F0188E080931E0188E280931D01C0CFFB
:1031F0001092B70380910E01882301F18091D203D0
:1032000087FF1CC0EC2FE695E695E695F0E0E456C6
:10321000FE4F228130E04C2F477081E090E002C0E9
:10322000880F991F4A95E2F728233923232B81F031
:103230008C2F0E94680A0E949B0A0AC0EEE9F1E006
:1032400084EA91E02191C21799F38E179F07D1F775
:103250008C2F0E94340A1DCF80E28C0F883068F4D6
:10326000C77021E030E001C0220FCA95EAF78091D3
:103270002F02822B80932F020CCF8BE58C0F833093
:1032800038F42C2F2452330BC901CF910C94F80839
:10329000E8E5EC0FE73150F4F0E0EE0FFF1FE559E1
:1032A000FE4F80819181CF910C940E09CD3E08F4A0
:1032B0005FCF8C2F0E940807CF910C94030BFF92D5
:1032C0000F931F93CF93DF93C62FD42F122F8823F2
:1032D000A9F060932D020E94F70A9093BD0180939C
:1032E000BC01C77081E001C0880FCA95EAF7DF9181
:1032F000CF911F910F91FF900C94E00A80912D02C5
:10330000681337C08091BC019091BD010E94350CBB
:10331000883C910570F500E20D0FCD17A9F0C7703C
:10332000FF24F3948F2D01C0880FCA95EAF70E94FD
:10333000EA0A083048F48D2F877001C0FF0C8A9587
:10334000EAF78F2D0E94E00A812F0E942D18812F0D
:103350000E94290B0830A0F4D77081E001C0880FCB
:10336000DA95EAF7DF91CF911F910F91FF900C94BE
:10337000EA0AC77081E001C0880FCA95EAF7F2CF68
:10338000DF91CF911F910F91FF9008958F929F929F
:10339000AF92BF92CF92DF92EF92FF920F931F9363
:1033A000CF93DF9300D000D00F92CDB7DEB78C0162
:1033B000DC019C9111968C91119713962D913C9163
:1033C000232B21F089238F3F09F064C50F900F90C4
:1033D0000F900F900F90DF91CF911F910F91FF9061
:1033E000EF90DF90CF90BF90AF909F908F90089517
:1033F00089809A8020EC82162CE5920609F4ABC0F5
:1034000031EC83163CE5930609F4BDC089809A80AF
:1034100024EF82162CE5920609F4E6C008F0C7C036
:1034200049ED84164CE5940609F4DAC028E241E03F
:103430005AED85165CE5950609F4D4C026E241EE06
:1034400061EE88ED88168CE5980609F4D0C09111DC
:1034500048C5A980BA8026E1A2162CE5B20609F07B
:103460008EC180912F02992309F47FC18A7A91E05D
:1034700009F490E090932E02811175C189E20E94B7
:10348000340A0E949B0A0FC0809177028670816483
:103490008093770288E00E9480086091770286E03E
:1034A00090E00E94082880913902877009F48ECF3D
:1034B000D80112968C91882309F488CF82E00F906E
:1034C0000F900F900F900F90DF91CF911F910F9160
:1034D000FF90EF90DF90CF90BF90AF909F908F9034
:1034E0000C941D0C8091770286708093770280E0A7
:1034F000D2CF80917702982F987F89F0885080935F
:103500007702887F91E009F490E06091770290FB68
:1035100060F96093770286E090E00E94082880912D
:1035200077028695869586950E948008BCCF80910B
:103530007702982F969596959695803440F49F5FE4
:10354000990F990F990F8770892B8093770260915B
:1035500077026160DECF6091770260FF09C06E7F05
:103560006093770286E090E00E94082880E0DCCF3C
:10357000616060937702613019F489E0809377028B
:1035800060917702C8CF90917702892F86958695B2
:1035900086958F5F8F719770893020F4880F880F20
:1035A000880F982B9093770280917702AACF898019
:1035B0009A8026EF82162CE59206E9F027E245EE86
:1035C00066EE37EF83163CE5930689F045EF8416E7
:1035D0004CE5940609F03BCF27E245EE64EE07C0C8
:1035E00027E245EE65EE03C026E241EE60EE892F4C
:1035F0000E945F1958CF26E241EE62EEF8CF298192
:103600003A812B5F3C452930310508F022CF79C43F
:10361000E981FA81E350FC458091D2038160E33176
:10362000F105C8F4E350F74D0C945A2789819A812B
:103630008B5F9C45099708F078C4E981FA81EC5FBB
:10364000FC45E830F10590F4E05FF64D0C945A2704
:103650008091D20382608093D20367C48091D203A9
:103660008460F9CF8091D2038860F5CF8091D30335
:1036700081608093D30359C48091D3038260F9CFD2
:103680008091D2038061E7CF8091D2038062E3CF43
:103690008091D2038064DFCF0E944A148091D203CC
:1036A0008068D9CF8091D2038C60D5CF8091D3032D
:1036B0008360DFCF8091D2038E7FCDCF8091D20304
:1036C0008D7FC9CF8091D2038B7FC5CF8091D203EC
:1036D000877FC1CF8091D3038E7FCBCF8091D303DF
:1036E0008D7FC7CF8091D2038F7EB5CF8091D203DB
:1036F0008F7DB1CF8091D2038F7BADCF0E944A14D2
:103700008091D2038F77A7CF8091D203837FA3CFFD
:103710008091D3038C7FADCF8091D20382FB992718
:1037200090F921E0922790FB82F990FB83F993CFE7
:103730008091D303982F909591708E7F892B90FB69
:1037400081F997CF0E944A149091D203892F97FB59
:1037500087F9805880CF61E08EE090E00E940828D1
:10376000E4C360E0F9CF85E38ACE80912E02811117
:1037700004C089E20E94680A84CE85E3FBCF9923C6
:1037800009F49CC080912F028272E981FA81E35C86
:10379000FC45E431F10508F082C0E85EF64D0C947A
:1037A0005A278091A30380FF21C08E7F8093A303BB
:1037B0008091A3039091A403A091A503B091A603C7
:1037C00089839A83AB83BC83BC01CD010E94AB117A
:1037D00010929C039FE7A8E3B1E09150A040B04055
:1037E000E1F700C000000E94690E5DCE8160809309
:1037F000A30361E086950E940C1355CE43E753E185
:1038000069E673E10E947B084ECE49E653E163E727
:1038100073E1F8CF43ED52E16AEC72E1F3CF4AEC89
:1038200052E163ED72E1EECF48EE52E16CED72E1F0
:10383000E9CF4CED52E168EE72E1E4CF40E053E1B4
:1038400064EF72E1DFCF44EF52E160E073E1DACF81
:1038500041EF51E16EEC71E1D5CF4EEC51E161EFFA
:1038600071E1D0CF61E081E0C6CF65E082E00E94E7
:103870007E1319CE68E086E0FACF6EE089E0F7CFDC
:1038800064E18FE0F4CF67E185E1F1CF61E088E1A9
:10389000B2CF62E289E1EBCF61E083E2ACCF992362
:1038A00069F089809A8081142CE5920609F449C058
:1038B0003FED83163CE5930609F450C0F801E08023
:1038C000F180992309F44DC0C7010E9485098983BD
:1038D000682FC7010E942E09B70189810E94150433
:1038E0008D839983D8011296AC90129715969C906F
:1038F00092943FE09322809139028770A1F0CA2C04
:10390000AA2091F0892F807F803421F08D81805E04
:10391000883048F082E00E941D0C80913902877047
:10392000CC24C3948111C12C898182958F70E82E9B
:10393000F12C8C3008F053C0F701E45DF64D0C9487
:103940005A270E944A144FE75AE186E041505040FE
:103950008040E1F700C000000E94EA100E943E177C
:10396000A2CDC7010E945C098983B6CFB981BF701F
:10397000DB2EE981E07F19F0D29420EFD222AA2039
:10398000D1F0DD2071F08D81805E883018F08D805F
:1039900081100BC080912F028D2980932F020E94ED
:1039A0009B0A8D810E942D181AC080913A028D29A0
:1039B00080933A02F4CF8D810E94290BDD2079F0AB
:1039C000D0948D81805E883018F09D8091103DC02C
:1039D00080912F028D2180932F020E949B0A88E004
:1039E000E81AF10894E0E916F10410F40E94EC08DA
:1039F000CC20B1F08091390280FD12C0D80112961E
:103A00001C928595859585950E94B70BC8010E94EB
:103A1000C619809139028595859585950E94E80B98
:103A200060E0C8010F900F900F900F900F90DF9102
:103A3000CF911F910F91FF90EF90DF90CF90BF90AB
:103A4000AF909F908F900C94C70980913A028D217E
:103A500080933A02C2CF29812F70D22E3981307FD4
:103A6000303219F0D29490EFD9228D80882089F0DD
:103A7000282D213079F1AA20D1F1992089F1D8019E
:103A800015968C91159780FF8CCF8F7015968C931F
:103A900027C0AA2091F0909130028D2D892B911092
:103AA00003C00E94E00A9BCF31E09312FACF98172F
:103AB00009F495CF8093300292CF911006C00E94F6
:103AC000950A8D2D0E94EA0A8ACF41E0941609F4E6
:103AD00086CFF5CFAA2031F055E0591508F47FCFF5
:103AE0008D2DDFCF84E0891508F479CFEACF9920B6
:103AF00041F3BD81B93349F4EFEFF3EF21E0E15039
:103B0000F0402040E1F700C000008D810E94290BA9
:103B100066CF898186958695837069F0813009F03A
:103B20005ECF8D8199819370A11002C090E080E0FA
:103B30000E940E0954CF8D8199819370A11002C00B
:103B400090E080E00E94F8084ACF8D81AA2029F0F9
:103B50000E9408070E94030B42CF0E945107FACF30
:103B60008981837009F07CC0A11039CF2D81229505
:103B700026952770220F220F4D814F7050E070E084
:103B800060E0022E04C0440F551F661F771F0A9481
:103B9000D2F78D8080E090E0DC0184FE0FC08FE0E2
:103BA00090E0A0E0B0E004C0880F991FAA1FBB1FDF
:103BB0002A95D2F780959095A095B0959980969486
:103BC0009694292D2370223059F1233009F441C0F5
:103BD0008090310290903202A0903302B090340273
:103BE000213099F0842B952BA62BB72B9C01AD018E
:103BF000282139214A215B2129833A834B835C8325
:103C0000CA01B9010E94A30BEACE842A952AA62AEA
:103C1000B72AA5019401282B392B4A2B5B2BECCF1B
:103C2000842B952BA62BB72B409131025091320259
:103C300060913302709134024C015D018426952617
:103C4000A626B72689829A82AB82BC82C501B401BE
:103C5000D9CF4A015B01882A992AAA2ABB2AF2CF26
:103C6000AA2009F452C0998090FEB9CE2D812295E8
:103C700026952770220F220F4D814F7050E070E083
:103C800060E0022E04C0440F551F661F771F0A9480
:103C9000D2F7BD8080E090E0DC01B4FE0FC08FE081
:103CA00090E0A0E0B0E004C0880F991FAA1FBB1FDE
:103CB0002A95D2F780959095A095B09589808694A5
:103CC0008694282D2370223079F1233009F43FC0E7
:103CD0008090350290903602A0903702B090380262
:103CE0002130B9F0842B952BA62BB72B9C01AD016D
:103CF000282139214A215B2129833A834B835C8324
:103D0000CA01B9010E94AD0B6ACEA980A1FE67CE9F
:103D1000ADCF842A952AA62AB72AA5019401282B7B
:103D2000392B4A2B5B2BE8CF842B952BA62BB72B5B
:103D300040913502509136026091370270913802FD
:103D40004C015D0184269526A626B72606C04A01A9
:103D50005B01882A992AAA2ABB2A89829A82AB8285
:103D6000BC82C501B401CECF29812F702983AA203E
:103D700029F0822F0E94B70B8D8193CE8D810E94F6
:103D8000EA0A89810E94E80B2ACE3D81323F09F47C
:103D900049C060F4303F11F1313FE1F1AA2009F44C
:103DA00068C09110FECD89818F7139C04D81433F2C
:103DB000F1F1443F99F7AA2009F44FC029812F71EE
:103DC0002983822F0E94B70B898038E0839EC0012F
:103DD0001124836080933902882D21C0AA20A1F08C
:103DE00054E0591508F4FBCD89818F71898381E0F6
:103DF00090E0A0E0B0E0098004C0880F991FAA1FDE
:103E0000BB1F0A94D2F794CF85E0A82EA91408F41A
:103E1000E6CDEACF89818F71AA2009F4B3CF0E9441
:103E2000B70BDDCD89818F71AA20C9F3ABCF60E0DC
:103E300070E0CB01AA2009F465CF29812F7181E0C0
:103E400090E0A0E0B0E04C015D0104C0880C991C3A
:103E5000AA1CBB1C2A95D2F780CF81E00E941D0CC2
:103E6000AA24A394A91408F0BACD82E00E941D0CE4
:103E7000B6CD992061F02D81293309F046CE3FEF70
:103E800043EF51E0315040405040E1F73CCE898152
:103E90008F7178CF61E0C8010E94C70989839A8336
:103EA000F8019281992309F4B1CA89809A802FEB95
:103EB00082162CE5920609F43ACB08F099CA4DEB2C
:103EC00084164CE5940609F40DCB5EEB85165CE593
:103ED000950609F40ECB8CEB88168CE5980609F450
:103EE000D3CA10922D0289809A8026E182162CE591
:103EF000920608F084CB32E083163CE5930608F482
:103F000041CC0E943C149093D3038093D2038980C8
:103F10009A8026E182162CE5920608F087CB32E0E3
:103F200083163CE5930608F073CB6091D203809032
:103F3000D303898284E090E00E940828698181E2AD
:103F400090E00E9408280E944A14ADCA1F93CF93A4
:103F5000DF9380917202807FA9F480916F028823A1
:103F600089F080913C02C0913B0270916D0260919A
:103F70006E02A0917002B0917102D62FD72316E085
:103F8000C81304C0DF91CF911F91089590E010975E
:103F900011F0DF3F19F401968770F2CF189F90015E
:103FA000199F300D1124F901E35CFD4F4181641329
:103FB000F2CF40814713EFCF42814111ECCF4381D3
:103FC00054814A1B5B0B483C510528F780917202D3
:103FD0008F70806180937202F901EE5BFD4F8081EA
:103FE0008F70806180838DE692E00E94C619DF9118
:103FF000CF911F910C942409AF92BF92CF92DF9280
:10400000EF92FF920F931F93CF93DF93CDB7DEB75D
:104010002B970FB6F894DEBF0FBECDBF8C0185E0A5
:10402000F801DE01179601900D928A95E1F7F801EB
:10403000E28030812181C380D4808DE6A82E82E089
:10404000B82E90916D0240916E0260917002709155
:1040500071026115710529F0892F84238F3F09F0C2
:104060001DC1EE2009F428C18F8198850E94070A9E
:10407000F82E882309F420C186E0F801ADE6B2E00D
:1040800001900D928A95E1F780916D0290916E02F8
:104090000E94FB090E94A61F1DC080917202582F2A
:1040A000507F683C710508F078C0511194C0FE2C17
:1040B000241322C0931320C0E1101EC08F708061B2
:1040C000809372028DE692E00E94C619809172027E
:1040D000F80185838F2D2B960FB6F894DEBF0FBEA7
:1040E000CDBFDF91CF911F910F91FF90EF90DF90A7
:1040F000CF90BF90AF900895CD2829F0822F8323D1
:104100008F3F09F065C080E0F82FF170DF2EE0915D
:104110003C0240913B0256E080FD1CC0EE20D1F2F3
:1041200080917202816080937202F12CD3CF8E2F26
:1041300090E05E9FF0011124E35CFD4F6181261346
:1041400006C06081361303C062816E11E7CF01960D
:10415000E82FE770E413EBCF8F8198850E94FB096D
:10416000292F22952F70903260F0225F2F7022301D
:1041700078F49F7051F0F8019581907F31F4D12C43
:104180000AC09F7011F08823D1F3805E8830B8F3A5
:10419000C8010E94C619FD2C9DCF51114DC08DE65E
:1041A00092E00E94C61986E0F50111928A95E9F71E
:1041B000BCCF8F8198850E94070A811130C0809101
:1041C0007202816080937202C8010E94C61982CF78
:1041D00081E08E2599CF241306C0931304C0F80103
:1041E000EE2009F44EC08F8198850E94070A88232B
:1041F00009F462C0EE2009F45FC08091720280323F
:1042000070F020916D0230916E023A8329831B82F7
:10421000DD82CC828E83CE0101960E94C61986E093
:10422000F801ADE6B2E001900D928A95E1F70E94A7
:10423000A61FFF24F3944ECF2413D5CF9313D3CFCF
:10424000E110D1CFF8018583C8010E94C61986E02C
:10425000F50111928A95E9F73DCF2413AACF931364
:10426000A8CF8091720280FD10C0982F907F69F0D6
:10427000F8018583903F31F0982F907F905F8F7089
:10428000892B8583C8010E94C61986E0F801ADE636
:10429000B2E001900D928A95E1F71CCFF0906F0289
:1042A000F601E61BF70BBF01F110F7CE683C710574
:1042B00070F6FE2CE110D1CFC8010E94C619B9CF0B
:1042C0001F93CF93DF93CDB7DEB767970FB6F89400
:1042D000DEBF0FBECDBF4B8B5C8B962F6D8B7E8B65
:1042E0008F8B611110923A021A8A85E0FE01739653
:1042F000DE011D9601900D928A95E1F79F8786E079
:10430000FE013D96DE01179601900D928A95E1F728
:10431000CE0107960E94FC1F882389F016E0809149
:104320003C0290913B02891349C067960FB6F894FE
:10433000DEBF0FBECDBFDF91CF911F91089586E004
:10434000FE013796DE01119601900D928A95E1F7F4
:104350008F81988520913B0240913C026A857B8544
:10436000672BE1F289238F3FC9F230E0C901019642
:10437000877099274817190671F40E944A14109201
:104380003B0210923C0286E0EDE6F2E0DF011D9276
:104390008A95E9F7C3CF96E0929FD001939FB00D25
:1043A0001124A35CBD4FFE01319601900D929A95A8
:1043B000E1F780933B020E942409B0CF819FC001A6
:1043C0001124835C9D4F0E94FC1F882309F4ADCF0C
:1043D00080913C0290E001968770992780933C027F
:1043E0009ECF90E080E00E9402289C0181E02B3E5D
:1043F0003E4F09F080E008950E94F121811102C032
:104400000E943E1786E090E00E94F4278093770296
:10441000883420F0877080648093770290917702CF
:10442000892F817090FF04C0892F86958695869587
:104430000C9480081F921FB61F9211248F939F9394
:10444000AF93BF938091FD01811113C08091F90159
:104450009091FA01A091FB01B091FC014196A11D40
:10446000B11D8093F9019093FA01A093FB01B093E1
:10447000FC01BF91AF919F918F911F901FBE1F9024
:10448000189578941F921FB61F9211248F939F93B3
:10449000AF93BF938091F9019091FA01A091FB0134
:1044A000B091FC010196A11DB11D8093F90190937B
:1044B000FA01A093FB01B093FC01BF91AF919F91D2
:1044C0008F911F901FBE1F901895CDB7DEB72F9705
:1044D0000FB6F894DEBF0FBECDBF84B7877F84BF11
:1044E0000FB6F894A8958091600088618093600071
:1044F000109260000FBE80E890E00FB6F8948093B1
:104500006100909361000FBE85B7806885BF85B755
:10451000806885BF85EF9AE090939B0180939A0114
:104520000E94F10C0E946A0D8091E20084608093E9
:10453000E20078948091D701882399F08091E90076
:104540001091EC001795112717958F70182B10926A
:10455000E9008091E80083FD0E9486141F7010938B
:10456000E90082E084BD93E095BD9DE797BD80930F
:104570006E0086EC0E94B70580E30E94B70581EFCC
:104580000E94B70585EF0E94B70584EF0E94B7052A
:104590000DE511E0EBE6EE2EE1E0FE2ED8018D9167
:1045A0008D010E94B705E016F106C1F78AE0E8EC3C
:1045B000F3E0DF01282F1D922A95E9F7EEEBF3E0F7
:1045C000DF011D928A95E9F70E94CB0DEFE1FEE431
:1045D0003197F1F700C000000E94CB0D8091BE031F
:1045E00080FF08C06FEF7FEF90E080E00E942628F8
:1045F0000E94EA100E94F121811102C00E943E1720
:10460000279A2F988AE08093800089E18093810027
:104610008FEF9FEF90938700809386000E94FC218C
:104620000E94F121811102C00E943E1782E090E0B9
:104630000E94F4278093B8030E943C149093D30304
:104640008093D20383E090E00E94F427282F30E08B
:1046500050E040E02C873D874E875F87CA01B90153
:104660000E94A30B0E94FC218091CA01811133C0DA
:104670000E94F121811104C00E943E170E94BF11C7
:1046800088E090E00E94FC276093A3037093A4034A
:104690008093A5039093A6036E7F71F40E94BF11CF
:1046A00088E090E00E94FC276093A3037093A4032A
:1046B0008093A5039093A6030E946B0810929C031D
:1046C0008091A30380FF04C060E086950E940C13D4
:1046D00081E08093CA0184E091E09093B6038093D7
:1046E000B50358E1852E912C60E4762E78ECA72E48
:1046F00073E0B72EAE014F5F5F4F6A018091D70123
:1047000012E0853009F42DC10E94CB0D882359F0A9
:104710008FB7F8944091F9015091FA016091FB0133
:104720007091FC018FBFEEEBF3E0ACECB1E010E078
:1047300000E0702F819191912D913D9128173907BB
:1047400009F421C12827392760E0EE24E394F12CF5
:10475000A70142235323452B09F40FC169837A83B0
:1047600097012823392391E0232B09F490E09B83C0
:104770000E94F70A8160782F9D838C8349815A813A
:104780006B81892F0E946021000F111FF801E453F3
:10479000FE4F808191818E259F259183808380911A
:1047A0009C038823D1F180919B03E091A303E695BC
:1047B000E81BE0939F03823009F0FCC0F0E0E45B6B
:1047C000FD4FE4910E2F10E0F9ECEF2EFEE0FF2EEE
:1047D0008091A003882361F01092A0030E94F70A41
:1047E00090939E0380939D031092A2031092A103C5
:1047F0000E94F70A20919D0330919E03821B930B28
:104800008F3F9F4750F4200F311F30939E0320931A
:104810009D038DE993E0F701099586E0ECEAF3E06A
:10482000D60101900D928A95E1F75090AE03609009
:10483000AF03E090B003F090B1031092AE0310927A
:10484000AF031092B0031092B103852D86291C2D61
:104850000D2D09F429C18091AA039091AB030E9408
:10486000350C9C018091B303882309F413C1909106
:1048700021019217130608F017C18F3F19F08F5FBF
:104880008093B303552059F00E9485069FEF1514BD
:104890000CF491E0899F802D11248093AE03662053
:1048A00059F00E9485069FEF16140CF491E0899F41
:1048B000802D11248093AF033091AE03332309F48C
:1048C000F3C02091AF03222309F4EEC045EB34037B
:1048D000C0011124992309F454C19093AE0355EB00
:1048E000250390011124332309F44FC13093AF0302
:1048F000DBC08091D701843021F180E00E948008E4
:104900001092FD010FB6F894A895809260000FBE3A
:104910007092600083B7817F846083BF83B78160BA
:1049200083BF7894889583B78E7F83BF0FB6F89442
:10493000A89580916000886180936000109260006B
:104940000FBE8091D601882361F00E94CB0DEEEB63
:10495000F3E081919191892B09F023C1AE16BF0636
:10496000C1F78091D701853009F4C3CF0E944A1462
:104970000E94FC210E94EC08C7CE6F5FEE0CFF1C6A
:104980006E3009F0E5CE0F5F1F4F0530110509F0BD
:10499000D0CE8FEF8F83888719860E94F70A8160B7
:1049A000782F9B878A874F8158856985892F0E9438
:1049B0006021F5CE08E210E09EE0E92E90E1F92EAC
:1049C000883109F405CFE0F48F3009F440C058F481
:1049D000863031F1893079F100ED17E0EAE7EE2E0B
:1049E000E8E0FE2EF5CE8531B9F7F0E0E05CFD4F52
:1049F000E4910E2F10E040ECE42E4FE0F42EE8CED0
:104A0000843209F440C0853271F1833229F7EEE334
:104A1000F2E0059114913DEEE32E3EE0F32ED8CE68
:104A2000F0E0E75BFD4FE4910E2F10E07DEDE72E07
:104A30007EE0F72ECDCEE695F0E0EA5BFD4FE49107
:104A40000E2F10E06DE2E62E6FE0F62EC1CEE69559
:104A5000F0E0ED5BFD4FE4910E2F10E057E5E52E01
:104A60005FE0F52EB5CE8E2F63E00E941827E92F68
:104A7000F0E0E55CFD4FE4910E2F10E02CE8E22E13
:104A800023E1F22EA5CE04EF11E082EBE82E80E1C7
:104A9000F82E9ECE40912201FAE04F9FA0011124F2
:104AA0004217530708F4EBCE8E2D8F2909F446C028
:104AB0008091A8039091A9030E94350C9C018091DC
:104AC000B203882309F483C025363105B8F18F3F3E
:104AD00019F08F5F8093B203EE2059F00E94CF0649
:104AE0009FEF1E140CF491E0899F802D1124809378
:104AF000B003FF2059F00E94CF069FEF1F140CF463
:104B000091E0899F802D11248093B1033091B003EF
:104B10002091B103332391F0222381F045EB34033C
:104B2000C00111249923A9F19093B00355EB2503FB
:104B300090011124332389F13093B1038091AE03A6
:104B40009091AF03892B9091B003892B9091B10381
:104B5000892B11F00E94030B86E0E12FF02FACEAC5
:104B6000B3E001900D928A95E1F70E94EC089091D4
:104B7000CB01891709F4C2CD0E94EC088093CB01C8
:104B8000BDCD81E08093AE03AACE81E08093AF03D8
:104B90008BCF81E08093B003C9CF81E08093B103D4
:104BA000CDCF19BC19BD09B400FEFDCF8091D8004E
:104BB0008F7D8093D8008091E00082608093E00038
:104BC0008091E00081FDFCCF0E944A14CACE2D32B4
:104BD000314008F07ECFB2CF1F920F920FB60F92E6
:104BE00011242F933F934F935F936F937F938F93F2
:104BF0009F93AF93BF93EF93FF938091E10082FF68
:104C000009C08091E20082FF05C08091E1008B7FA6
:104C10008093E1008091DA0080FF23C08091D8006A
:104C200080FF1FC08091DA008E7F8093DA00809130
:104C3000D90019BC80FF96C082E089BD09B400FE8E
:104C4000FDCF81E08093D7018091C101811109C01E
:104C50000E94F10C0E946A0D8091E20084608093B2
:104C6000E2008091E10080FF17C08091E20080FFA8
:104C700013C08091E2008E7F8093E2008091E20079
:104C800080618093E2008091D80080628093D80098
:104C900019BC85E08093D7018091E10084FF26C094
:104CA0008091E20084FF22C019BC82E089BD09B472
:104CB00000FEFDCF8091D8008F7D8093D800809139
:104CC000E1008F7E8093E1008091E2008F7E8093EF
:104CD000E2008091E20081608093E2008091C00157
:104CE000882309F444C084E08093D7018091E100D7
:104CF00083FF27C08091E20083FF23C08091E10001
:104D0000877F8093E10082E08093D7011092C001F9
:104D10008091E1008E7F8093E1008091E2008E7FA0
:104D20008093E2008091E20080618093E20042E0A3
:104D300060E080E00E943A0D8091F00088608093EE
:104D4000F000FF91EF91BF91AF919F918F917F9173
:104D50006F915F914F913F912F910F900FBE0F90E8
:104D60001F9018951092D7011092C1017ACF8091AF
:104D7000E30087FD02C081E0B7CF83E0B5CF1F928B
:104D80000F920FB60F921124FF920F931F932F9340
:104D90003F934F935F936F937F938F939F93AF93C3
:104DA000BF93CF93DF93EF93FF9309EE10E0F801E9
:104DB0008081C091EC00C795CC27C7958F70FC2EE1
:104DC000F82A1082C0EFD0E08881877F88837894AA
:104DD0000E948614F8011082888188608883CF2D14
:104DE000CF70C083FF91EF91DF91CF91BF91AF91D1
:104DF0009F918F917F916F915F914F913F912F91F3
:104E00001F910F91FF900F900FBE0F901F9018955C
:104E1000DB018F939F930E945B28BF91AF91A29F6C
:104E2000800D911DA39F900DB29F900D11240895A8
:104E3000991B79E004C0991F961708F0961B881FEC
:104E40007A95C9F78095089587FB082E062687FD79
:104E5000819567FD61950E9418270EF4919507FCD6
:104E600081950895AA1BBB1B51E107C0AA1FBB1F58
:104E7000A617B70710F0A61BB70B881F991F5A95E6
:104E8000A9F780959095BC01CD01089597FB072E59
:104E900016F4009407D077FD09D00E94322707FC52
:104EA00005D03EF4909581959F4F0895709561953A
:104EB0007F4F0895EE0FFF1F0590F491E02D0994A8
:104EC0000E949028332312F48A1B9B0B0C946A27B0
:104ED0000E949028B7FF0895821B930B0895CF92EC
:104EE000DF92EF92FF92CF93DF93CDB7DEB72A9791
:104EF0000FB6F894DEBF0FBECDBF89879A87A9850C
:104F0000BA852D913D914D915C9129833A834B83D4
:104F10005C83232B242B252B41F424E239ED4BE534
:104F200057E029833A834B835C8369817A818B8143
:104F30009C812DE133EF41E050E00E943C28690163
:104F40007A01A7EAB1E49B01AC010E945B28698366
:104F50007A838B839C83ACEEB4EFA70196010E9409
:104F600069289B01AC0189819A81AB81BC81820F48
:104F7000931FA41FB51FB7FF03C00197A109B04835
:104F8000E985FA8580839183A283B3839F772A96EC
:104F90000FB6F894DEBF0FBECDBFDF91CF91FF906B
:104FA000EF90DF90CF9008950E946F27089580E0E2
:104FB00091E00E946F270895B0E0A0E08093000187
:104FC00090930101A0930201B09303010895FC01A5
:104FD0004150504030F001900616D1F73197CF0183
:104FE0000895882799270895F999FECF92BD81BD2C
:104FF000F89A992780B50895A6E1B0E044E050E022
:105000000C942E28A8E1B0E042E050E00C942E2849
:10501000262FF999FECF92BD81BDF89A019700B471
:10502000021639F01FBA20BD0FB6F894FA9AF99A11
:105030000FBE08950396272F0E9409280E94082872
:10504000252F0E940928242F0C9409280196272F28
:105050000E9409280C940828DC01CB01FC01F99975
:10506000FECF06C0F2BDE1BDF89A319600B40D92B4
:1050700041505040B8F70895052E97FB1EF4009458
:105080000E94532857FD07D00E946E2807FC03D0CA
:105090004EF40C94532850954095309521953F4FF0
:1050A0004F4F5F4F089590958095709561957F4F14
:1050B0008F4F9F4F08950E949028A59F900DB49FF9
:1050C000900DA49F800D911D11240895B7FF0C949D
:1050D0005B280E945B28821B930B0895A1E21A2E85
:1050E000AA1BBB1BFD010DC0AA1FBB1FEE1FFF1F8C
:1050F000A217B307E407F50720F0A21BB30BE40BDC
:10510000F50B661F771F881F991F1A9469F7609522
:105110007095809590959B01AC01BD01CF010895DC
:10512000A29FB001B39FC001A39F700D811D1124E8
:10513000911DB29F700D811D1124911D0895F89449
:10514000FFCF110717071A0720073507350735075F
:1051500035073507350735073507230728072C0797
:105160003207430749074D0767158F1526178F1517
:105170002617C215E3152617E116EE16D917D01714
:10518000E617B4172B182B18B4172B182B18021866
:10519000B6170D1818182B182B182B182B18B41716
:1051A0002B182B18B4172B18F4172B182B18291899
:1051B00029182918291829182918291829182918E7
:1051C00023182B18D917B2172B182B182B182B189C
:1051D0002B182B182B182B182B182B1823182B18BF
:1051E0002B18B4172B182718271827182718271833
:1051F00027182718271827182318281B2E1B321B9F
:10520000401B441B481B4C1B521B5A1B5E1B621B42
:10521000661B721B761B7A1B7E1B841BA21B8C1BBE
:105220003C1B6A1B6E1B561B881B981BAB1BB11BC0
:10523000D11BFE1B051C0A1C0F1C141C191C1E1C58
:10524000231C281C2D1C321C351C3A1C3D1C401CE8
:10525000431C461C491C4C1CB61CB61C2B1D2B1D8C
:10526000891DA51DEF1CEF1CB01DB41EC51EC51E5B
:1052700001000000440C0E115111A311A7110101EE
:10528000010201191A1B1C1D1E1F202122280814AF
:105290000A321E0102030405060708090000010284
:1052A0000202020606060909090909090F0F0F0F74
:1052B0000F0F15151518191919191919191919197F
:1052C0002324252525252525C630F1F5F4F6F733C9
:1052D0006766363595349796949190E200E900EA36
:1052E00000B500B600B700CD008301CC008A019262
:1052F0000194012102230224022502260227022A08
:0A53000002B300B4006F007000005B
:00000001FF
