:100000000C94BB020C9402030C9402030C940203A4
:100010000C9402030C9402030C9402030C9402034C
:100020000C9402030C9402030C9424210C94F421EC
:100030000C94001C0C9402030C9402030C94020315
:100040000C9402030C9402030C9402030C9402031C
:100050000C9402030C946B1C0C9402030C9402038A
:100060000C9402030C9402030C9402030C940203FC
:100070000C9402030C9402030C9402030C940203EC
:100080000C9402030C9402030C9402030C940203DC
:100090000C9402030C9402030C9402030C940203CC
:1000A0000C9402030C9402030C94020335001E000E
:1000B0001F0020002100220023002400250026002C
:1000C00027002D002E0031004A002B0014001A00DA
:1000D0000800150017001C0018000C001200130087
:1000E0002F0030002A004B00296104001600070091
:1000F00009000A000B000D000E000F003300340051
:10010000280029004E00E10000001D001B00060031
:100110001900050011001000360037003800E50016
:1001200052004D00E200E200E3002C00000000005D
:100130002C4200002C0003510451000050005100DB
:100140004F00010001000100010001000100010059
:10015000010001000100010001000100290001006F
:100160000100010001000100010001000100010087
:100170000100010001000100010001000100E00098
:100180000100010001000100010001000100010067
:100190000100010001000100010001000100010057
:1001A0000100010001000100010001000100010047
:1001B0000100010001000100010001000100010037
:1001C0000100000000002C000000010001000100FF
:1001D000000001000100010001003A003B003C006A
:1001E0003D003E003F00400041004200430044000B
:1001F0004500010001000100010052000100010062
:1002000001000100010001000100460001000100A1
:100210004C0001000100500051004F00010001009E
:100220005000510052004F00010001000100010088
:1002300001000100010001000100010001000100B6
:1002400001000100AC00AB00AE00010001000100A4
:100250000100010001000100000000000100000099
:100260000100010001000000010001000100111463
:10027000010001000100010001000C140100010057
:10028000010001002D080100010001000100010032
:100290000100341401002A5D010001000100010089
:1002A000010001000100010001000100041401002F
:1002B0000100010001002B5D0100010001000100AF
:1002C000081401000100010001000100010001000B
:1002D0000614010001000100295D01000100010078
:1002E0000100010001000100010001000100000007
:1002F00000000100000001000100010000000100F9
:1003000001000100005C010001000100010001008A
:1003100001000100010001000100010001000100D5
:100320000153010001000100010001000100010072
:1003300001000100010001000100010001000100B5
:1003400001000100010001000100010001000100A5
:100350000100010001000100010001000100010095
:100360000100010001000100010001000100010085
:100370000100010001000100010001000100010075
:100380000100010000000000010000000100010068
:100390000100000001000100010000000000000059
:1003A00000002A2B280000000000000000000000D0
:1003B000000000000029000000002C1E3420212233
:1003C00024342627252E362D3738271E1F2021229C
:1003D000232425263333362E37381F040506070815
:1003E000090A0B0C0D0E0F10111213141516171805
:1003F000191A1B1C1D2F3130232D35040506070843
:10040000090A0B0C0D0E0F101112131415161718E4
:10041000191A1B1C1D2F3130354C00000000000044
:1004200000000000000000000000000000000000CC
:1004300000000000000000000000000000007E0F2F
:1004400000D4FFFFFFC700000078100350006800D1
:1004500061006E0074006F006D0000000C034C0022
:1004600075006300690064000000040309040902C8
:100470003B00020100A0FA09040000010301010091
:100480000921110100012240000705810308000A2B
:1004900009040100010300000009211101000122EB
:1004A0007B000705820320000A12011001000000F2
:1004B000086776020001000102000105010902A19E
:1004C0000185020901A10005091901290815002566
:1004D0000195087501810205010930093115812551
:1004E0007F95027508810609381581257F9501756C
:1004F000088106050C0A38021581257F95017508CB
:100500008106C0C005010980A101850319012AB730
:1005100000150126B700950175108100C0050C0972
:1005200001A101850419012AA002150126A0029546
:100530000175108100C005010906A101050719E038
:1005400029E71500250195087501810295017508B7
:1005500081010507190029FF150026FF0095067582
:100560000881000508190129059505750191029575
:100570000175039101C011241FBECFEFDAE0DEBF89
:10058000CDBF04B603FE27C08091C4029091C5027E
:10059000A091C602B091C7028730904BA740B04BE4
:1005A000D1F41092C4021092C5021092C6021092A9
:1005B000C70214BE84B7877F84BF0FB6F894A8958E
:1005C00080916000886180936000109260000FBE8F
:1005D000E0E0F8E3099511E0A0E0B1E0EAE0F9E439
:1005E00002C005900D92AC3DB107D9F722E0ACED09
:1005F000B1E001C01D92A43CB207E1F70E94651E64
:100600000C943F240C94000081E00C94E90A9C01B6
:10061000FB012A328DE5380779F02B328DE538075A
:10062000A1F029323D4579F48281882361F081E58A
:1006300091E00E94780C07C08281882321F085E137
:1006400091E00E94040C81E0089582818823D9F30F
:100650008FE591E00E940F05F6CF9C01FB019A9572
:1006600081159F4118F5D901AA27B270832F817097
:10067000B90166277470A9014427587034FF0CC073
:100680008295807FAB2B09F08062672B09F0806434
:10069000452B09F080680994AB2B09F08260672B29
:1006A00009F08460452BB9F38860F5CF0895CF93A6
:1006B000DF93EC01805E9109089720F062E274E11B
:1006C000209711F46DE871E1CE010E942D038C2F6B
:1006D000DF91CF910C948710CF93DF93EC010E94B0
:1006E0001811CE01805E9109089720F069E274E14B
:1006F000209711F464E971E1CE01DF91CF910C9460
:100700002D03CF93DF93D82FC92F0E9457038D2F2E
:100710009C2FDF91CF910C946C0381E008950C9491
:10072000070308950C9491031F93CF93DF9300D098
:1007300000D00F92CDB7DEB749835A836B833091D7
:100740000B0289819A8131111DC06623B9F02223E1
:10075000A9F00E946919182F682F89819A810E9437
:10076000121969817A81812F0F900F900F900F904D
:100770000F90DF91CF911F910C9439050E94401981
:10078000182FEFCF0E94691969817A81EDCFFC01A2
:10079000262F408151816281738184810C9494035E
:1007A000CF93DF93D82FC92F60E00E94C7036D2F2E
:1007B0007C2FDF91CF910C9492030E94BA1C0E946F
:1007C000B51A811102C00E944E1B0E942E050E9484
:1007D000D30A0C941E070C94210708950E94461416
:1007E0000E94ED032FE78AE196E02150804090407F
:1007F000E1F700C000000C948F1C0F931F93CF9360
:10080000DF93EC0161E00E94C7038C01BE010E94EE
:100810008F03882359F1BE01C8010E94270D882348
:1008200029F1BE01C8010E94B10D8823F9F0BE0173
:10083000C8010E94060E8823C9F0BE01C8010E94AB
:10084000DE0E882399F08A81882339F001158CE522
:10085000180751F00F3D1C4579F0CE01DF91CF9183
:100860001F910F910C948D030E94EE0380E0DF91A5
:10087000CF911F910F9108950E944E1BF7CFDF92E9
:10088000EF92FF920F931F93CF93DF93E82FF0E047
:10089000E656FC4FD490282F26952695269530E0D5
:1008A000F901E65CFB4F0491877010E0082E02C04E
:1008B000159507950A94E2F701701127F901E65D95
:1008C000FB4FE490F12C082E02C0F594E7940A94B3
:1008D000E2F791E0E922FF24F901E65EFB4FC491C3
:1008E000D0E002C0D595C7958A95E2F7C170DD27A3
:1008F0000115110519F081EE0E948710E114F10431
:1009000019F086EE0E9487108D2D0E948511EF2828
:1009100019F086EE0E941811012B19F081EE0E9449
:100920001811CD2B51F08CE2DF91CF911F910F91D7
:10093000FF90EF90DF900C948511DF91CF911F9184
:100940000F91FF90EF90DF900895EF92FF920F9339
:100950001F93CF93DF93EC01162F0AE08881882341
:1009600009F456C0813009F050C089818130A1F46A
:100970007E0182E0E80EF11C8A810E948511E70168
:100980002196812F882351F3EFECF7E03197F1F7AF
:1009900000C000008150F6CF823041F47E01E2E0D9
:1009A000EE0EF11C8A810E948710E9CF833041F45A
:1009B0007E01F2E0EF0EF11C8A810E941811DFCF58
:1009C000843011F02196DCCF2A81229680E090E0DD
:1009D000AE014F5F5F4F2053330B2A30310550F08B
:1009E000009771F2EFECF7E03197F1F700C00000EB
:1009F0000197F6CF089FB001099F700D1124C9011E
:100A0000860F971F2981EA01E3CF0E943F04B8CFE8
:100A1000DF91CF911F910F91FF90EF90089560E0CB
:100A20000C94A504982F9F709A50963018F0805D12
:100A30000C943F04895AFCCF08950C941C0581E066
:100A40000895CF93C82F0E941F05882319F0C1FF76
:100A500003C0479ACF9108954798FCCF3F9A479893
:100A60000895CF93C82F0E941D058C2FCF910C9411
:100A70002105972F70E02FE0929F600D711D1124CA
:100A8000FB019BE4899FE00DF11D1124EE0FFF1F78
:100A9000E455FF4F859194910895CF93DF930E9481
:100AA00039050E944206EC01811522E5920708F003
:100AB0005AC0811531E5930708F0B7C0883E91050B
:100AC000E8F4803E910570F4883A910578F4853A0F
:100AD000910508F099C08130910521F00497813A81
:100AE000910548F4CE01DF91CF910895885A91097C
:100AF000479708F48CC0D0E0C0E0F4CFC11580E582
:100B0000D807A0F4C11590E4D90708F08BC0CF3FF7
:100B1000D10509F028F4CD3ED10568F3D065E2CFC8
:100B2000CE019A9581159F41E8F2E5CF9E01F4E050
:100B300036952795FA95E1F723708C2F8695869543
:100B4000837030E2839FC0011124922BC37021E097
:100B500030E002C0220F331FCA95E2F7822B932B9D
:100B6000EC01DC68BFCFC11586E5D80730F5C115AB
:100B700095E5D90708F06DC0C11524E5D207C0F48A
:100B80008C2F869586959E0123703327C115D345FA
:100B900008F050C0C1E0D0E002C0CC0FDD1F2A95A4
:100BA000E2F720E2829FC0011124C82BD92BD9CFB4
:100BB000DC2FCC27C46FD06A95CFC1153AE5D30797
:100BC00088F4C11589E5D80708F04EC0CE019855C4
:100BD0008F3F910511F008F08ECFDC2FCC27C06F2E
:100BE000D06A80CFCE0190568115904208F083CF15
:100BF0008D2F8F710E94DA0690E0982F8827882722
:100C00009F718C2BEC012EC0A497D0646BCFC85A77
:100C1000D0E0CC0FDD1FC759DE4F0990D881C02D21
:100C2000D46460CFDF70D06A5DCFD82FCC27C16F7E
:100C3000D06A58CFC1E0D0E002C0CC0FDD1F2A95AA
:100C4000E2F730E2839FC0011124C82BD92BDA6868
:100C500049CF8C2F0E94DA06C82FD0E0DC2FCC279A
:100C6000CC27DF71D0623ECF8C2F8F700E94DA06C6
:100C700034E0D695C7953A95E1F7CF709C2FEC01FB
:100C8000D06930CF803E910599F1C8F48133910548
:100C900009F476C048F48932910509F46AC08A32B1
:100CA000910509F474C0089589339105D1F0823813
:100CB0009105B9F08533910509F454C00895843E37
:100CC000910599F138F4823E9105F9F0833E910542
:100CD00009F10895863E910599F1873E9105B9F194
:100CE00008952091B5022370A1F080EE90E0089560
:100CF0002091B50220FD52C03091B60230FF09C0EC
:100D000024FF4FC090E080E004C02091B50222FD96
:100D1000F7CF08952091B50222FD46C03091B6026A
:100D200030FDE3CF24FFF5CFEDCF2091B60221FFB8
:100D3000F0CF8091B50284FDE5CF87EE90E0089575
:100D40002091B50223FFE5CF24FDDCCFF6CF209123
:100D5000B50223FD2CC03091B60231FFE3CF84EE03
:100D600090E008952091B50225FFD3CF89E290E06D
:100D700008952091B50225FFCCCF85E390E008953A
:100D80002091B50226FFC5CF8AE290E00895209118
:100D9000B50226FFBECF81E390E0089589E390E09D
:100DA000089583EE90E0089582EE90E0089586EE37
:100DB00090E008959091B50292FF06C0282F287107
:100DC0002830F9F4877F846093FF06C0282F2871AC
:100DD0002831F1F4877E84612091B60220FF06C09D
:100DE000382F38713830D9F4877F816021FF06C0F1
:100DF000282F28712831D1F4877E816194FD877E68
:100E00000895282F24712430F9F68B7F8860DCCF79
:100E1000282F2471243101F78B7E8861DDCF382F94
:100E20003171313019F78E7F8860E0CF282F217122
:100E3000213121F78E7E8861E1CF08950C941D0742
:100E400008950C942007E82FF0E0EE0FFF1FEF55F8
:100E5000FD4F808191810895089580E58A95F1F78D
:100E6000089500C008950C942D07F894E82FE2959A
:100E7000EF70F0E041A18F7021E030E0B90102C0D5
:100E8000660F771F8A95E2F7CB01962F90959423F2
:100E900091A392A1892B82A3789408950F931F9315
:100EA000CF93DF9384EF0E94350781EF0E943507CF
:100EB00087EF0E94350786EF0E94350785EF0E9475
:100EC0003507C7E9D1E006EA11E089910E943507AC
:100ED0000C171D07D1F78AE0E7E9F2E0DF01982F50
:100EE0001D929A95E9F7E1EAF2E0DF011D928A95F9
:100EF000E9F785E00E940608DF91CF911F910F91DD
:100F00000C94DD03AF92BF92CF92DF92EF92FF92EB
:100F10000F931F93CF93DF9306EA11E0C7E9D2E066
:100F2000C12CD12CEE24E394F12CF80181918F0196
:100F3000F894E82FE295EF70F0E021A18F70A701FF
:100F400002C0440F551F8A95E2F7CA01922F982BD1
:100F500091A392A18095892382A378940E9431075E
:100F6000E7E9F1E030E020E0B12CA12C4191A42F81
:100F7000A295AF70A05EB0E08C9190E04F7002C07F
:100F8000959587954A95E2F780FD3BC0C701022EF3
:100F900002C0880F991F0A94E2F7A82AB92A2F5F86
:100FA0003F4F2F30310511F7F801319780810E94B2
:100FB000350754E0C5120E94330788819981A8162D
:100FC000B90611F1B982A88281E0D82AC394229689
:100FD00085E0C812AACF2D2D45E061EA72E087E9CD
:100FE00092E00E9407080E94EB038D2DDF91CF91C4
:100FF0001F910F91FF90EF90DF90CF90BF90AF9037
:10100000089580E090E0C9CF80E0DFCF0895FF929F
:101010000F931F93CF93DF93F82E092F162FD72FFF
:10102000C42F222349F081E08093E0010E94301C0C
:101030009093DF018093DE018091E0018823A1F08D
:101040008091DE019091DF010E945C1C069760F0A8
:10105000EF2DF02FA12FBD2F90E080E0D0E08C1776
:101060009D0744F01092E001DF91CF911F910F9105
:10107000FF900895219131912D933D930196EFCFEB
:101080008091E70180FF12C06091050185E0689FB3
:10109000B001112475956795759567956038710550
:1010A000A8F561157105A1F1862F089581FF09C08A
:1010B0006091050185E0689FB001112475956795E1
:1010C000EDCF6091050182FD0AC02091E601222347
:1010D000D1F09091040160910501291728F085E075
:1010E000689FB0011124DACF269F9001112485E07A
:1010F000829FA001839F500D1124692F70E0CA01C7
:101100000E94A923CBCF65E070E0CECF8FE7089592
:1011100081E008958091E70180FF0CC0609101019A
:1011200070E075956795759567956115710549F13D
:10113000862F089581FF06C06091010170E07595CA
:101140006795F3CF6091010182FD0BC09091E5019D
:101150009923A1F06091000180910101961738F068
:10116000682F70E06038710500F38FE70895899F5C
:10117000C001112470E00E94A923F4CF61E070E067
:10118000D7CF81E00895E3E1E80FE331E0F5F0E047
:10119000EF5BFB4D0C94BD230E944008819580932A
:1011A000EB0108950E944008FACF0E944008819503
:1011B0008093EA0108950E944008FACF0E948A08AD
:1011C0008093EC0108950E948A088195F9CF0E94CE
:1011D0008A0881958093ED0108950E948A08FACFCC
:1011E000815F990B21E030E001C0220F8A95EAF778
:1011F0008091E901822B8093E90108958091E701B4
:1012000081608093E70108958091E7018260F9CFC2
:101210008091E7018460F5CF4091EA018D3E59F459
:101220008091EB0187FF0DC01092EB0141110BC0C3
:101230001092E60108C08E3E81F48091EB011816F1
:101240009CF3442381F08091EC019091ED01892B76
:1012500009F05AC01092E50108958F3E49F447FF06
:10126000F0CF1092EA018091EB018111ECCFE0CF39
:10127000803F19F41416ACF3E4CF9091EC01893F50
:1012800029F41916F4F61092EC01DBCF8A3F19F419
:1012900097FFD7CFF8CF9091ED018B3F29F497FFBF
:1012A000D0CF1092ED01CDCF8C3F19F41916CCF3AD
:1012B000C8CF9FE0980F983090F4815F990B21E0A0
:1012C00030E0B90102C0660F771F8A95E2F7CB01C3
:1012D00080959091E90189238093E901B2CF8D3FF8
:1012E00031F48091E7018E7F8093E701AACF8E3F92
:1012F00021F48091E7018D7FF7CF8F3F09F0A1CFD7
:101300008091E7018B7FF0CF08950E94301C2091DF
:10131000EA013091EB01232B21F08093E3019093BC
:10132000E4012091EC013091ED01232B21F0809319
:10133000E1019093E20188EE91E00C94310FCF929D
:10134000DF92EF92FF920F931F93CF93DF9300D022
:1013500000D000D0CDB7DEB726E0E8EEF1E0CE0158
:101360000196DC0101900D922A95E1F7C090EA0107
:10137000D090EB01E090EC01F090ED011092EA01C9
:101380001092EB011092EC011092ED012C2D2D2901
:101390008C0191F08091E3019091E4010E945C1C2A
:1013A0009C018091E601882309F440C090910601D8
:1013B0009217130608F448C08E2D8F2991F0809162
:1013C000E1019091E2010E945C1C9C018091E50189
:1013D000882309F478C0909102019217130608F44B
:1013E00080C08091EA019091EB01892B9091EC01F2
:1013F000892B9091ED01892B11F00E94850986E0DF
:10140000F801A8EEB1E001900D928A95E1F72696D9
:101410000FB6F894DEBF0FBECDBFDF91CF911F9105
:101420000F91FF90EF90DF90CF90089540910701CA
:101430009AE0499FA00111244217530708F0BCCF3E
:101440008F5F8093E60102C08F3FD1F7CC2059F027
:101450000E9440089FEF1C140CF491E0899F802D9E
:1014600011248093EA01DD2059F00E9440089FEF8B
:101470001D140CF491E0899F802D11248093EB01C1
:101480003091EA01332309F497CF2091EB01222315
:1014900009F492CF45EB3403C0011124992359F08C
:1014A0009093EA0145EB240390011124332339F092
:1014B0003093EB0181CF81E08093EA01F3CF81E0AB
:1014C0008093EB0179CF409103019AE0499FA001FD
:1014D00011244217530708F084CF8F5F8093E501F2
:1014E00002C08F3FD1F7EE2059F00E948A089FEF8B
:1014F0001E140CF491E0899F802D11248093EC013F
:10150000FF2059F00E948A089FEF1F140CF491E00D
:10151000899F802D11248093ED013091EC01209161
:10152000ED01332309F45DCF222309F45ACF45EBB3
:101530003403C0011124992359F09093EC0145EB39
:10154000240390011124332339F03093ED0149CF66
:1015500081E08093EC01F3CF81E08093ED0141CFF6
:1015600086E0E8EEF1E0DF011D928A95E9F710923E
:10157000E6011092E5011092E7010895CF93DF9301
:10158000EC01FB0197FF0BC08281882341F00E9490
:10159000ED0ACE019F770E94450B0E94270B81E048
:1015A000DF91CF9108958CE090E00E94FD2390E0C0
:1015B000B0E0A0E08093AB029093AC02A093AD02A8
:1015C000B093AE0208956091AB028CE090E00C9471
:1015D0000B248093AB020C94E30A0E94190F8695AA
:1015E00081708093B0029091AB02913029F48823EE
:1015F00019F089E30E9485110E94061A8093AF02B8
:101600000E941A1A8091AB028230A9F030F4811145
:101610000DC082EE0E94871002C0843099F08FE1E5
:101620009EE40197F1F700C00000089588E193E07F
:101630000E948103F4CF82EE0E94871087E50E940A
:101640008511EDCF86EE0E94851188E1F8CF80915B
:10165000AB02823019F030F481110AC082EE0E9490
:10166000181102C0843079F08091AF020C94171ADF
:101670008CE20E9485118091B0028823A9F389E34E
:101680000E948511F1CF88E2FBCF0F931F93CF9378
:10169000DF938C01CCE0D0E0C8010C2E02C09695FF
:1016A00087950A94E2F78F700E9412052497CC3F29
:1016B0008FEFD80789F7DF91CF911F910F91089590
:1016C000BF92CF92DF92EF92FF920F931F93CF932F
:1016D000DF936B017C01C7E0D0E00CE110E0BB249C
:1016E000B394D701C601002E04C0B695A79597956F
:1016F00087950A94D2F78F70C9F4B11002C00E9486
:101700001205219704501109CF3FDC0751F4DF91F6
:10171000CF911F910F91FF90EF90DF90CF90BF90EE
:101720000895C430D105ECF6B12CDBCF0E94120530
:10173000B12CE7CFCF92DF92EF92FF92CF93DF935E
:1017400000D000D0CDB7DEB76B017C01C114D1044D
:1017500021E1E206F10408F04CC0C114D10431E0EB
:10176000E306F10428F08091AB02823009F441C015
:101770000E94ED0AC114D10441E0E406F104B0F185
:101780008091AB02811132C051E0E51AF108D70116
:10179000C6012AE0B695A795979587952A95D1F722
:1017A0009C01AD0138524F4F5F4FCA01B9010E94F1
:1017B000600B33E0D322EE24FF24D701C6019452FC
:1017C000AF4FBF4F89839A83AB83BC83BC01CD01EC
:1017D0000E94600B0F900F900F900F90DF91CF91B0
:1017E000FF90EF90DF90CF900C94270BC701B601CC
:1017F000EFCF0F900F900F900F90DF91CF91FF9050
:10180000EF90DF90CF900895AF92BF92CF92DF928A
:10181000EF92FF920F931F93CF93DF9300D000D0EE
:10182000CDB7DEB7FC012DB73EB73C832B83892BA8
:1018300009F053C08B819C810FB6F8949EBF0FBEF8
:101840008DBF0F900F900F900F90DF91CF911F9150
:101850000F91FF90EF90DF90CF90BF90AF900895E1
:101860008DB79EB79A8389838F0181918032E1F38E
:101870006BEA71E0C8010E94DF237C010196EDB79D
:10188000FEB7E81BF90B0FB6F894FEBF0FBEEDBF15
:101890002DB73EB72F5F3F4F6901A701B801C901BE
:1018A0000E94EE23F601EE0DFF1D10825601F50198
:1018B00081915F01811115C00E94ED0AC6010E944D
:1018C0000F050E94270BF801EE0DFF1D29813A81BB
:1018D0000FB6F8943EBF0FBE2DBF80818111C0CFDF
:1018E000A9CF90E00E94D723F50131978083DFCF05
:1018F0000F931F93CF93DF93EC01892BF1F4DF91CA
:10190000CF911F910F91089507FD1BC0602F70E0CC
:1019100090E080E021968B019C01185D210931093E
:10192000011518402105310540F06F3F2FEF720778
:101930008207920711F00E949A0B08810111E4CFEF
:10194000DECF802F807E803CA9F410E030E020E0E4
:10195000C901B801A6E0660F771F881F991FAA95D5
:10196000D1F7607C77708827992729812F73622BA4
:101970002296D1CF802F807F803E21F5698170E053
:1019800090E080E0E6E0660F771F881F991FEA95D8
:10199000D1F7607C7F708827992710E030E020E045
:1019A000FCE0000F111F221F331FFA95D1F72227E9
:1019B0003327602B712B822B932B2A812F73622B61
:1019C0002396A9CF802F887F803FD9F5053FC8F5A2
:1019D000698170E090E080E02CE0660F771F881F3F
:1019E000991F2A95D1F76627707F8370992710E099
:1019F00030E020E042E1000F111F221F331F4A9503
:101A0000D1F7002711272C713327602B712B822BE4
:101A1000932B2B812F73622B0A8110E030E020E0A2
:101A200056E0000F111F221F331F5A95D1F7007C7B
:101A30001F7022273327602B712B822B932B249628
:101A40006ACF21966FEF7FEF8FEF9FEF64CF0F93F9
:101A50001F93CF93DF93EC018B01FB0182818823DD
:101A600061F00E94061ACE01825E9C458530910588
:101A700020F48093AB020E94E30AB801CE01DF910B
:101A8000CF911F910F910C94BE0A0F931F93CF9388
:101A9000DF93C42FD22FFC0182818823C9F04093A9
:101AA000F0010E94301C9093EF018093EE0180E2E0
:101AB0008C0F883008F050C0C77081E001C0880FDB
:101AC000CA95EAF7DF91CF911F910F910C948D1178
:101AD0001091F001141335C08091EE019091EF0147
:101AE0000E945C1C883C910560F5C0E2CD0F1D177B
:101AF000B9F080E2810F883040F4177081E001C0B6
:101B0000880F1A95EAF70E949411C83048F481E0D2
:101B10009D2F977001C0880F9A95EAF70E948D114A
:101B2000802F0E948511C830B8F4D77081E001C0C1
:101B3000880FDA95EAF7DF91CF911F910F910C94FE
:101B4000941180E28C0F883038F4C77081E001C0B6
:101B5000880FCA95EAF7EFCFDF91CF911F910F91D0
:101B600008950F939C01CB01243F4CE53407A1F16C
:101B700090F4293DFCE53F0749F12A3D4CE5340747
:101B8000E9F1283D3C45C1F0FC0182818823E1F167
:101B90001092F00119C0263FFCE53F0719F1273FDD
:101BA0004CE5340729F1253F3C4571F707E225EE66
:101BB00044EE65EF7CE505C006E221EE41EE68EDFE
:101BC0007CE50E94450D80E00F91089507E225EE27
:101BD00045EE69ED7CE5F5CF06E221EE40EE64EFDF
:101BE0007CE5EFCF06E221EE42EE66EF7CE5E9CF41
:101BF00007E225EE46EE67EF7CE5E3CF08E221E061
:101C000045EE6AED7CE5DDCF81E0DECFCF93DF935B
:101C1000EC01FB018281882309F4CEC0C631FCE5CA
:101C2000DF07E0F4C2309CE5D907F0F00E94C81A43
:101C30009093B6028093B502C631ECE5DE0720F53D
:101C4000C230FCE5DF0798F48091B5029091B602AE
:101C50000E94D61A0E94461480E006C09E012B5FA7
:101C60003C452930310510F3DF91CF910895FE01F5
:101C7000E350FC458091B5028160E331F105B0F499
:101C8000EC5AFB4D0C94BD23CE018B5F9C4509970C
:101C9000D8F6FE01EC5FFC45E830F10590F4E95917
:101CA000FB4D0C94BD238091B50282608093B502F8
:101CB000CBCF8091B5028460F9CF8091B502886066
:101CC000F5CF8091B60281608093B602BDCF80913E
:101CD000B6028260F9CF8091B5028061E7CF809132
:101CE000B5028062E3CF8091B5028064DFCF0E94AD
:101CF00046148091B5028068D9CF8091B5028C607E
:101D0000D5CF8091B6028360DFCF8091B5028E7F00
:101D1000CDCF8091B5028D7FC9CF8091B5028B7FE9
:101D2000C5CF8091B502877FC1CF8091B6028E7FEB
:101D3000CBCF8091B6028D7FC7CF8091B5028F7EC9
:101D4000B5CF8091B5028F7DB1CF8091B5028F7BE9
:101D5000ADCF0E9446148091B5028F77A7CF8091B6
:101D6000B502837FA3CF8091B6028C7FADCF8091E7
:101D7000B50282FB992790F921E0922790FB82F926
:101D800090FB83F993CF8091B602982F9095917034
:101D90008E7F892B90FB81F997CF0E9446149091FA
:101DA000B502892F97FB87F9805880CF81E00E9488
:101DB000501B4ACF80E0FBCF81E056CFCF93DF931B
:101DC000EB0186319C4511F50E94061A9A819923F0
:101DD00099F08A7A91E009F490E09093F1018111F1
:101DE00009C089E20E94E1190E944A1A80E0DF914D
:101DF000CF91089585E3F6CF8091F101811104C060
:101E000089E20E94E819F0CF85E3FBCF81E0EFCFB4
:101E10009093F7018093F6010895E091F601F09117
:101E2000F701309721F00190F081E02D099480E0D6
:101E30000895E091F601F091F701309729F00190B3
:101E4000F081E02D0995089580E00895E091F60174
:101E5000F091F701309721F00280F381E02D099491
:101E60000895DC01E091F601F091F701309739F027
:101E700082E08C930480F581E02DCD0109940895D2
:101E80002091F4013091F5012817390771F09093F2
:101E9000F5018093F401E091F601F091F70130979C
:101EA00021F00680F781E02D099408952091F20138
:101EB0003091F3012817390771F09093F301809363
:101EC000F201E091F601F091F701309721F00084E2
:101ED000F185E02D099408950E943C1C609307024F
:101EE000709308028093090290930A0260930302A0
:101EF000709304028093050290930602089585B7BB
:101F0000806885BF85B7806885BF08950895089566
:101F10000C94860F08950C948A0F0E947F0F8DEA0F
:101F20009AE10E94B31C0E94870F0C94880F81E0F5
:101F300008950C94970F089508950E94271C0E94FD
:101F40004E070E94CE1C0C948B0F8F929F92AF92E3
:101F5000BF92CF92DF92EF92FF920F931F93CF9396
:101F6000DF9300D000D00F92CDB7DEB70E949B0F59
:101F70000E949C0F0E94820781110E946C0F59EFF2
:101F8000852E51E0952E10E000E0A02E802F0E94BB
:101F900023077C01F401C190D1904F01C816D906E6
:101FA00009F45BC080918B0281FD0E942C07C60161
:101FB0008E259F25B12CCC24C394D12C9C012C219F
:101FC0003D21232B09F443C00E94990F8823A9F0D7
:101FD000B982AA82EC20FD2081E0EF2809F480E09C
:101FE0008B830E94301C8160782F9D838C83498174
:101FF0005A816B81892F0E945610000F111FF80122
:10200000E750FE4F808191818C259D2591838083AF
:102010000E949F090E940D0F9091F8018917A1F16C
:102020000E940D0F8093F8010F900F900F900F906A
:102030000F90DF91CF911F910F91FF90EF90DF9064
:10204000CF90BF90AF909F908F900C943105B39438
:10205000CC0CDD1CFFE0BF12B1CF0F5F1F4F05306E
:10206000110509F092CF8FEF89838A831B820E942A
:10207000301C8160782F9D838C8349815A816B81CC
:10208000892F0E945610C4CF0F900F900F900F9081
:102090000F90DF91CF911F910F91FF90EF90DF9004
:1020A000CF90BF90AF909F908F900895CF93DF9384
:1020B000CDB7DEB72B970FB6F894DEBF0FBECDBFFE
:1020C0004F83588769877A878B8761110E942B1A03
:1020D0001E8285E0FE013796DE01119601900D9279
:1020E0008A95E1F749815A816B817C818D819E813E
:1020F0002B960FB6F894DEBF0FBECDBFDF91CF9108
:102100000C94A416FC01808191810C94AB19CF939F
:10211000C82F882309F48AC08238C1F40E940D0FA9
:1021200081FD84C089E30E94E1190E944A1A2FEFC1
:1021300030E782E0215030408040E1F700C00000ED
:1021400089E30E94E819CF910C944A1A8338A1F4CC
:102150000E940D0F80FD6AC083E50E94E1190E9474
:102160004A1A9FEF20E732E0915020403040E1F7DB
:1021700000C0000083E5E5CF8438A1F40E940D0F74
:1021800082FD54C087E40E94E1190E944A1A8FEF31
:1021900090E722E0815090402040E1F700C000002D
:1021A00087E4CFCF8CEF8C0F813A90F46C2F809125
:1021B0000801909109010E94671B882329F08C2F48
:1021C0000E94E8190E944A1A8C2F0E94E119BBCF85
:1021D00080E28C0F883048F4C77081E001C0880F1E
:1021E000CA95EAF70E94091AAECF8BE58C0F8330AF
:1021F00038F42C2F2452330BC901CF910C94400F8B
:10220000E8E5EC0FE73150F4F0E0EE0FFF1FE35587
:10221000FE4F80819181CF910C94560FCD3E30F0CE
:102220008C2F0E94C308CF910C948509CF910895FB
:10223000882309F452C0823871F40E940D0F81FF87
:102240004CC089E30E94E1190E944A1A89E30E9466
:10225000E8190C944A1A833859F40E940D0F80FF34
:102260003CC083E50E94E1190E944A1A83E5EFCF42
:10227000843859F40E940D0F82FF2FC087E40E941A
:10228000E1190E944A1A87E4E2CF9CEF980F913A35
:10229000F0F290E2980F983050F4877091E001C00E
:1022A000990F8A95EAF7892F0E940F1AD2CF9BE5E2
:1022B000980F933020F490E080E00C94400F98E564
:1022C000980F973120F490E080E00C94560F8D3EEB
:1022D00020F00E940C090C94850908951F93CF9358
:1022E000DF93182FEB010E948710209731F4812F84
:1022F000DF91CF911F910C9418118FEC97E001970B
:10230000F1F700C000002197F0CF70E060E0893362
:1023100011F460E570E00C946E11882321F00E94A6
:10232000091A0C944A1A0895882321F00E940F1A62
:102330000C944A1A0895AF92BF92CF92DF92EF9217
:10234000FF920F931F93CF93DF9300D000D00F9293
:10235000CDB7DEB76C016D837983FC0112810581F5
:1023600002950F700E94FF19E82E8823A1F0E12E3C
:10237000112389F08981807F803429F08D81805EEE
:10238000E12C883040F082E00E94951A0E94FF19EB
:1023900091E0E82EE926898182958F70A82EB12CD4
:1023A0008C30A8F5F501E159FB4D0C94BD23098152
:1023B0000F70F981F07F11F00295007F1123B1F0C9
:1023C000002361F08D81805E883018F01D8111112D
:1023D00009C0802F0E94091A0E944A1A8D810E940A
:1023E000871015C0802F0E941D1AF6CF8D810E9484
:1023F0001811002361F08D81805E883018F01D81F6
:10240000111133C0802F0E940F1A0E944A1A98E0BF
:10241000A91AB108E4E0AE16B10420F40E940D0F31
:102420000E943105EE2009F4BEC10E94FB1980FD17
:10243000BAC1F60112820E94F5190E940218C60163
:102440000E94FA130E94F5190F900F900F900F90B1
:102450000F90DF91CF911F910F91FF90EF90DF9040
:10246000CF90BF90AF900C943318802F0E94231A06
:10247000CCCF29812F70F22E3981307F303219F084
:10248000F29480EFF8228D81882369F0813049F140
:10249000112391F1002351F1F601858180FF9ECF38
:1024A0008F70858323C0112381F0011106C00E9423
:1024B000311A8F290E948D11AACF0130C1F70E94D5
:1024C000311A8F290E94371AA2CF011106C00E942B
:1024D000401A8F2D0E9494119ACF013009F497CFA2
:1024E000F6CF112329F0063008F091CF8F2DE2CFDF
:1024F000053008F08CCFEDCF002359F30D8109335F
:1025000049F41FEF23EF31E0115020403040E1F754
:1025100000C000008D810E94181179CF89818695B5
:102520008695837069F0813009F071CF8D81998132
:102530009370111102C090E080E00E94560F67CFA7
:102540008D8199819370111102C090E080E00E940A
:10255000400F5DCF8D81112329F00E94C3080E9496
:10256000850955CF0E940C09FACF8981837009F043
:1025700050C011114CCF2D81229526952770220F26
:10258000220F4D814F7050E070E060E0022E04C0D9
:10259000440F551F661F771F0A94D2F70D8180E004
:1025A00090E0DC0104FF0FC08FE090E0A0E0B0E01D
:1025B00004C0880F991FAA1FBB1F2A95D2F78095C8
:1025C0009095A095B09519811695169513701D8359
:1025D0008C019D01042B152B262B372B09831A8385
:1025E0002B833C831D8169817A818B819C81123090
:1025F00051F0133059F0113019F00E94781707CFBD
:102600000E94501704CF0E94A01701CF0E944E17BE
:10261000FECE112309F448C0098100FFF8CE2D81B8
:10262000229526952770220F220F4D814F7050E082
:1026300070E060E0022E04C0440F551F661F771F34
:102640000A94D2F70D8180E090E0DC0104FF0FC016
:102650008FE090E0A0E0B0E004C0880F991FAA1FAF
:10266000BB1F2A95D2F780959095A095B0951981BA
:102670001695169513701D838C019D01042B152B47
:10268000262B372B09831A832B833C831D81698179
:102690007A818B819C81123071F0133079F0113086
:1026A00039F00E94C118B3CE198111FFB0CEB7CF57
:1026B0000E949918ACCE0E94E918A9CE0E94CC17AE
:1026C000A6CE09810F700983112329F0802F0E9463
:1026D00002188D81EFCE8D810E94941189810E9414
:1026E000331895CE2D81223FA1F160F4203FE1F017
:1026F000213F41F1112309F445C001116FCE8981B9
:102700008F7124C03D81333F49F1343F99F7112344
:1027100079F109810F710983802F0E94021863E00B
:1027200089810E94801A73CE112341F0053008F090
:102730006ECE89818F710E94681869CE063008F0CC
:1027400066CEF7CF89818F71112349F20E9402185A
:102750005ECE89818F711123C9F3C1CF112329F076
:1027600089818F710E94DD1752CE0E94D8174FCEFB
:1027700081E00E94951A023008F449CE82E00E945E
:10278000951A45CE002361F01D81193309F0C2CEA0
:102790002FEF33EF81E0215030408040E1F7B8CE99
:1027A00089818F719CCF0F900F900F900F900F9099
:1027B000DF91CF911F910F91FF90EF90DF90CF901D
:1027C000BF90AF9008950F931F93CF93DF93EC01C9
:1027D000688179818A810E94B7198C010E94111940
:1027E0000E944D17B801CE01DF91CF911F910F913B
:1027F0000C949B11CF93DF93EC01988189812B81FD
:102800003C81232B19F089238F3F59F4DF91CF911D
:102810000895CE010E94E313CE01DF91CF910C9475
:10282000D003CE010E94FD038111F3CF0E94FF1956
:10283000882361F38A81882349F382E0DF91CF9175
:102840000C94951A882321F00E941D1A0C944A1AA0
:102850000895882321F00E94231A0C944A1A08959F
:1028600090E080E00E94400F90E080E00E94560FD0
:102870000E942B1A0E942E1A0E944A1A0E94B00A25
:102880000C9485090E94EF190C9430140E941A1AB6
:102890000C944214282F892F82958F70903C80F4DD
:1028A0008A30B0F4843020F4823090F480E00895CF
:1028B0008630E1F781E0283E88F0213FB9F70EC06D
:1028C0008C3011F08F3091F793FB882780F90895B1
:1028D00081E0203F39F018F4283E40F70895243F66
:1028E00029F7FCCF08950E94AB190C944A14CF939A
:1028F000DF9300D000D00F92CDB7DEB70F900F90CE
:102900000F900F900F90DF91CF910895CF93DF93A9
:1029100000D000D000D0CDB7DEB726960FB6F89421
:10292000DEBF0FBECDBFDF91CF9108951F93CF9330
:10293000DF93E0910C0216E080910D028E1304C02B
:10294000DF91CF911F910895CE2FD0E01E9FF0010F
:102950001124E25FFD4F4081518162817381848146
:1029600095810E9486142196EC2FE770E5CF409167
:102970003E0250913F02609140027091410280916D
:102980004202909143020C9486141F93CF93DF93DD
:1029900080914302807FA9F480914002882389F0CE
:1029A00080910C02C0910D0270913E0260913F0235
:1029B000A0914102B0914202D62FD72316E0C8134E
:1029C00004C0DF91CF911F91089590E0109711F00E
:1029D000DF3F19F401968770F2CF189F9001199F7D
:1029E000300D1124F901E25FFD4F41816413F2CFF4
:1029F00040814713EFCF42814111ECCF4381548195
:102A00004A1B5B0B483C510528F7809143028F70AD
:102A1000806180934302F901ED5EFD4F80818F70EC
:102A2000806180838EE392E00E94FA13DF91CF9160
:102A30001F910C949614AF92BF92CF92DF92EF92B7
:102A4000FF920F931F93CF93DF93CDB7DEB72B97F2
:102A50000FB6F894DEBF0FBECDBF8C0185E0F80144
:102A6000DE01179601900D928A95E1F7F801E28058
:102A700030812181C380D4808EE3A82E82E0B82EDD
:102A800090913E0240913F0260914102709142025A
:102A90006115710529F0892F84238F3F09F041C109
:102AA000EE2009F44DC18F8198850E947314F82E91
:102AB000882309F445C186E0F801AEE3B2E0019055
:102AC0000D928A95E1F78EE392E00E9482100E94B7
:102AD000C51424C180914302582F507F683C710572
:102AE00008F07AC05111B5C0FE2C241324C09313F2
:102AF00022C0E11020C08F708061809343020E9449
:102B0000B7148EE392E00E94FA1380914302F80119
:102B100085838F2D2B960FB6F894DEBF0FBECDBFE9
:102B2000DF91CF911F910F91FF90EF90DF90CF90A9
:102B3000BF90AF900895CD2829F0822F83238F3F37
:102B400009F084C080E0F82FF170DF2EE0910C02D4
:102B500040910D0256E080FD1CC0EE20D1F2809124
:102B60004302816080934302F12CD3CF8E2F90E0FB
:102B70005E9FF0011124E25FFD4F6181261306C0C4
:102B80006081361303C062816E11E7CF0196E82F92
:102B9000E770E413EBCF8F8198850E94AB19292F42
:102BA00022952F70903260F0225F2F70223078F4DF
:102BB0009F7051F0F8019581907F31F4D12C0AC0BB
:102BC0009F7011F08823D1F3805E8830B8F3C8017C
:102BD0000E94FA13FD2C9DCF51116EC04F81588574
:102BE00069857A858B850E9477148EE392E00E9436
:102BF000FA1386E0F50111928A95E9F70E94B7145D
:102C0000B3CF86E0F801AEE3B2E001900D928A9571
:102C1000E1F77FCF8F8198850E94731481113DC0A9
:102C200080914302816080934302C8010E94FA139D
:102C300070CF4F81588569857A858B850E9477147E
:102C400086E0F50111928A95E9F768C081E08E254A
:102C50007ACF241306C0931304C0F801EE2009F4C0
:102C600051C08F8198850E947314882309F468C02D
:102C7000EE2009F465C080914302803270F020910B
:102C80003E0230913F023A8329831B82DD82CC824F
:102C90008E83CE0101960E94FA1386E0F801AEE31E
:102CA000B2E001900D928A95E1F70E94C5140E944E
:102CB000B714FF24F3942DCF2413D3CF9313D1CF84
:102CC000E110CFCFF8018583C8010E94FA1386E096
:102CD000F50111928A95E9F71CCF24139BCF93132A
:102CE00099CF8091430280FD8CCF982F907F09F47B
:102CF00088CFF8018583903F31F0982F907F905FC7
:102D00008F70892B8583C8010E94FA1386E0F80131
:102D1000AEE3B2E001900D928A95E1F70E94B714FC
:102D2000F8CEF0904002F601E61BF70BBF01F11060
:102D3000D1CE683C710508F07CCFFE2CE110CDCFE0
:102D4000C8010E94FA13B5CF1F93CF93DF93CDB77D
:102D5000DEB72C970FB6F894DEBF0FBECDBF4F8302
:102D6000588769877A878B879C87CE0107960E9450
:102D70001B15882369F08A859B85892B39F0588536
:102D80004F81852F84238F3F09F071C016E05FC00B
:102D900086E0FE013796DE01119601900D928A952C
:102DA000E1F78F81988520910D0240910C026A8590
:102DB0007B85672B59F389238F3F41F330E0C901AD
:102DC0000196877099274817190671F40E944614D6
:102DD00010920D0210920C0286E0EEE3F2E0DF01A9
:102DE0001D928A95E9F7D2CF96E0929FD001939FEA
:102DF000B00D1124A25FBD4FFE01319601900D92DE
:102E00009A95E1F780930D020E949614BFCF819F9F
:102E1000C0011124825F9D4F0E941B158823E9F099
:102E2000E0910C021E9FF0011124E25FFD4F4081F2
:102E3000518162817381848195810E948614809181
:102E40000C0290E001968770992780930C02809184
:102E50000C0290910D028913DACF2C960FB6F894DC
:102E6000DEBF0FBECDBFDF91CF911F910895698561
:102E70007A858B859C850E94861488CF08950C9452
:102E80003E170E943F1760937A0270937B028093F3
:102E90007C0290937D020C94301408950C94411799
:102EA000CF93DF9300D000D0CDB7DEB769837A83AC
:102EB0008B839C8380917A0290917B02A0917C020B
:102EC000B0917D0229813A814B815C81282B392B7D
:102ED0004A2B5B2B29833A834B835C83CA01B9015C
:102EE0000F900F900F900F90DF91CF910C9441179E
:102EF000CF93DF9300D000D0CDB7DEB769837A835C
:102F00008B839C8380917A0290917B02A0917C02BA
:102F1000B0917D0229813A814B815C81282339233C
:102F20004A235B2329833A834B835C83CA01B9011B
:102F30000F900F900F900F90DF91CF910C9441174D
:102F4000CF93DF9300D000D0CDB7DEB769837A830B
:102F50008B839C8380917A0290917B02A0917C026A
:102F6000B0917D0229813A814B815C8128273927E4
:102F70004A275B2729833A834B835C83CA01B901C3
:102F80000F900F900F900F90DF91CF910C944117FD
:102F90000C943E170C94C8170E94CA1760937602CF
:102FA0007093770280937802909379020C94301496
:102FB00060E070E0CB010C94CC170F931F93CF937C
:102FC000DF9300D000D0CDB7DEB741E050E060E045
:102FD00070E08A019B0104C0000F111F221F331FE4
:102FE0008A95D2F709831A832B833C83C901B801E0
:102FF0000F900F900F900F90DF91CF911F910F9135
:103000000C94CC170F931F93CF93DF9300D000D075
:10301000CDB7DEB741E050E060E070E004C0440F9F
:10302000551F661F771F8A95D2F78091760290917F
:103030007702A0917802B09179028A019B01082B56
:10304000192B2A2B3B2B09831A832B833C83C90121
:10305000B8010F900F900F900F90DF91CF911F91BB
:103060000F910C94CC170F931F93CF93DF9300D045
:1030700000D0CDB7DEB741E050E060E070E004C0C2
:10308000440F551F661F771F8A95D2F740955095BC
:10309000609570958091760290917702A091780268
:1030A000B09179028A019B01082319232A233B232B
:1030B00009831A832B833C83C901B8010F900F90B9
:1030C0000F900F90DF91CF911F910F910C94CC171F
:1030D0000F931F93CF93DF9300D000D0CDB7DEB70F
:1030E00041E050E060E070E004C0440F551F661FEF
:1030F000771F8A95D2F78091760290917702A091FE
:103100007802B09179028A019B01082719272A27A2
:103110003B2709831A832B833C83C901B8010F9095
:103120000F900F900F90DF91CF911F910F910C9402
:10313000CC17CF93DF9300D000D0CDB7DEB7698333
:103140007A838B839C838091760290917702A09101
:103150007802B091790229813A814B815C81282BD8
:10316000392B4A2B5B2B29833A834B835C83CA011F
:10317000B9010F900F900F900F90DF91CF910C94A9
:10318000CC17CF93DF9300D000D0CDB7DEB76983E3
:103190007A838B839C838091760290917702A091B1
:1031A0007802B091790229813A814B815C81282390
:1031B00039234A235B2329833A834B835C83CA01E7
:1031C000B9010F900F900F900F90DF91CF910C9459
:1031D000CC17CF93DF9300D000D0CDB7DEB7698393
:1031E0007A838B839C838091760290917702A09161
:1031F0007802B091790229813A814B815C8128273C
:1032000039274A275B2729833A834B835C83CA018A
:10321000B9010F900F900F900F90DF91CF910C9408
:10322000CC170895E82F2FE0929FE00D11248E2FE8
:10323000877041E001C0440F8A95EAF7E695E6956C
:10324000E69585E0E89FF0011124EC5BFD4F30E04E
:1032500020E070E05191DF011197CB01022E02C0F6
:10326000969587950A94E2F7817081958527842346
:1032700085278C932F5F3F4F2530310559F70895EF
:10328000E82F2FE0929FE00D11249E2F9770E69576
:10329000E695E69585E0E89FF0011124EC5BFD4F93
:1032A00050E040E080E0219130E0092E02C03695E8
:1032B00027950A94E2F721703327042E01C0220FCC
:1032C0000A94EAF7822B4F5F5F4F4530510559F75B
:1032D0000895BF92CF92DF92EF92FF920F931F93C8
:1032E000CF93DF938C01C0907602D0907702E0906C
:1032F0007802F090790280917A0290917B02A091FD
:103300007C02B0917D02C82AD92AEA2AFB2ACFE1A1
:10331000D0E0BC2ED701C6010C2E04C0B695A795EF
:10332000979587950A94D2F780FD0EC0219788F76C
:10333000B12C8B2DDF91CF911F910F91FF90EF90CA
:10334000DF90CF90BF900895B8018C2F0E944D055B
:10335000019761F3EECFCF93DF93D82FC92F0E944F
:1033600069196D2F7C2FDF91CF910C944D051F9320
:10337000CF93DF93162FD72F90910B02992339F01B
:10338000862F972FDF91CF911F910C94AB19882333
:1033900091F0862F972F0E946919C82F682F812FCF
:1033A0009D2F0E941219612F7D2F8C2FDF91CF91BD
:1033B0001F910C944D05862F972F0E944019C82FFE
:1033C000F2CF682F80910801909109010C94A11B04
:1033D000682F80910801909109010C94A31B8091A2
:1033E0000801909109010C94A51B80917E0285959E
:1033F00085958595089580917E02877008959091B6
:103400007E02977081E009F480E0089580918A023D
:10341000089590918A02982B90938A020895982F8C
:10342000909580918A02892380938A0208958093DF
:103430008A02089510928A02089590918902982B29
:10344000909389020895982F9095809189028923FD
:10345000809389020895109289020895109288023B
:10346000089580917F02089508950C94341A9091E4
:103470007F02981721F080937F020C94351A0895EB
:1034800080917F02882329F010927F0280E00C94C3
:10349000351A0895E0910801F091090180918A029E
:1034A0008083E0910801F091090180819091890267
:1034B000892B8083E0910801F0910901808190912E
:1034C0008802892B808390917F02992381F0E0917B
:1034D0000801F09109018081892B80838091080186
:1034E000909109010E94551B81110E94401A809100
:1034F0000801909109010C94260F08950C947D1AEF
:1035000098E0899F90011124622B60937E020E94B3
:10351000021880917E028595859585950C947E1A7A
:1035200010927E0280E00C947E1A90917E0280952B
:10353000892380937E02282F277071F4282F082E6C
:10354000000C330B9217130639F0859585958595F8
:103550000E9433180C94901A089580E008956FEF3C
:103560007FEF90E080E00C94292490E080E00E94BE
:1035700005249C0181E02B3E3E4F09F080E0089538
:1035800082E090E00C94FD2383E090E00C94FD2316
:10359000CF9384E090E00E94FD23C82F81E290E069
:1035A0000E94FD23982F8C2FCF910895CF93682FE1
:1035B000C92F84E090E00E940B246C2F81E290E000
:1035C000CF910C940B24AB01BC018FE090E00C94E4
:1035D0001D2460E070E0CB010E94E31A0C94040308
:1035E0006BEE7EEF90E080E00E94292460E082E0B4
:1035F00090E00E940B2460E083E090E00E940B24A6
:1036000010927A0210927B0210927C0210927D023C
:1036100060E084E090E00E940B2460E081E290E0B2
:103620000E940B2460E085E090E00E940B2460E0A3
:1036300086E090E00E940B246FEF87E090E00E940C
:103640000B2440E050E0BA0188E090E00E941D2485
:1036500060E08DE090E00E940B2440E050E0BA0171
:1036600088E190E00E941D2460E087E190E00E94E4
:103670000B2440E050E0BA018CE190E00E941D2450
:1036800060E080E290E00E940B2440E050E0BA014C
:1036900088E190E00E941D240C94E91A0C94F01A21
:1036A000682F8EE090E00C940B24AC019C012E5FFF
:1036B0003F4F485F5F4F80E02417350709F40895B6
:1036C000F90191919F019923B9F38F5FF5CF9C0187
:1036D000662351F0FC013296285F3F4F8191861797
:1036E00029F0E217F307D1F780E0089581E008950B
:1036F0009C01FC0132968FEF90E04191461751F00A
:103700008F3F19F4411101C0892F9F5F9630A9F7AF
:103710008F3F09F40895280F311D87FD3A95F9016F
:10372000628308959C01FC013296285F3F4F81918E
:10373000861303C0DF0111971C92E217F307B9F754
:1037400008950C94781B0C94921BFC01329686E031
:10375000DF011D928A95E9F70895089508950C9464
:10376000AE1B8091BB02843049F10E94AF1B80E008
:103770000E94310510928C0288E190E020E40FB69F
:10378000F894A895809360000FBE2093600083B7E3
:10379000817F846083BF83B7816083BF789488957D
:1037A00083B78E7F83BF0FB6F894A8958091600091
:1037B000886180936000109260000FBE08950895A4
:1037C000CF930E94AD1B0E9482070E94DF1BC0E0C6
:1037D0008C2F0E942307892B31F4CF5FC530C1F7AE
:1037E00080E0CF91089581E0FCCF08950C94F51B03
:1037F0000E9446140E940D0F0E9431050C94F61B86
:103800001F921FB61F9211248F939F93AF93BF9364
:1038100080918C02811113C08091B1029091B2020B
:10382000A091B302B091B4024196A11DB11D809345
:10383000B1029093B202A093B302B093B402BF91CD
:10384000AF919F918F911F901FBE1F90189582E09E
:1038500084BD93E095BD9DE797BD80936E0008956C
:103860002FB7F8948091B1029091B202A091B30267
:10387000B091B4022FBF0895CF93DF9300D000D052
:10388000CDB7DEB78FB7F8942091B1023091B20274
:103890004091B3025091B40229833A834B835C83F5
:1038A0008FBF69817A818B819C810F900F900F90DF
:1038B0000F90DF91CF9108959C014FB7F8948091BC
:1038C000B1029091B202A091B302B091B4024FBF85
:1038D000821B930B089578941F921FB61F92112498
:1038E0008F939F93AF93BF938091B1029091B20257
:1038F000A091B302B091B4020196A11DB11D8093B5
:10390000B1029093B202A093B302B093B402BF91FC
:10391000AF919F918F911F901FBE1F90189581E0CE
:103920008093E00080E28093D8001092C9008FE07D
:1039300097E20197F1F700C0000087E090EBDC010F
:103940008093C4029093C502A093C602B093C702AD
:1039500088E19CE00FB6F894A895809360000FBEB4
:1039600090936000FFCF9093DD018093DC01089578
:103970000C94AF1A0E9482078FE19EE40197F1F741
:1039800000C000000E94820780E00E94230780FFA1
:1039900004C00E94B81C0C948F1C0895CF93DF9331
:1039A00000D000D0CDB7DEB70E94B51A811102C099
:1039B0000E944E1B0E94C01A80938B020E94C81A5C
:1039C0009093B6028093B5020E94C41A282F30E06B
:1039D00050E040E0CA01B9010E944E178091760282
:1039E00090917702A0917802B091790289839A83AD
:1039F000AB83BC83BC01CD010F900F900F900F9053
:103A0000DF91CF910C94CA17809195020895CF93BE
:103A1000DF9300D00F92CDB7DEB79091BB02943008
:103A200019F589836A837B8382E08093E9008FEFB5
:103A30009091E800815095FD06C09AE69A95F1F7BD
:103A400000C08111F5CF8091E80085FF0DC050E0E6
:103A500040E063E070E0CE0101960E94211F80915A
:103A6000E8008E778093E8000F900F900F90DF9121
:103A7000CF910895BC0184E00C94071DBC0183E044
:103A80000C94071D22E02093E9002FEF3091E8000D
:103A9000215035FD06C03AE63A95F1F700C02111F4
:103AA000F5CF2091E80025FF0BC050E040E066E034
:103AB00070E00E94211F8091E8008E778093E800DB
:103AC0000895CF93DF93D82FC92F81E08093E90029
:103AD0008FEF9091E800815095FD06C09AE69A9587
:103AE000F1F700C08111F5CF8091E80085FF16C085
:103AF00050E040E068E070E08D2F9C2F0E94211F75
:103B00008091E8008E778093E80088E0ED2FFC2F0D
:103B1000ADE8B2E001900D928A95E1F7DF91CF9187
:103B200008958091BA02811109C00E94A9200E94C3
:103B300006218091E20084608093E2000895109253
:103B4000BA02089508950895089542E061EC81E075
:103B50000E94252042E261EC82E00C9425208091B5
:103B6000BD02893089F148F4823009F49DC0833068
:103B700009F458C0813041F008958A3009F484C0B6
:103B80008B3009F46AC008958091BC02813A09F033
:103B900048C08091E800877F8093E8008091C00250
:103BA0009091C102892B61F468E08DE892E070E0A9
:103BB0000E94701F8091E8008B778093E800089541
:103BC00060E090E080E0F3CF8091BC02813249F563
:103BD0008091C0029091C102029718F58091E8008F
:103BE000877F8093E8008091E80082FF16C0909163
:103BF000F3008091F200029729F48091F1008B7F0D
:103C0000813021F48091F100809395028091E80049
:103C10008B778093E8000C9459208091BB0281112E
:103C2000E2CF08958091BC02813AD9F78091C00219
:103C30009091C102892BA9F78091E800877F80933A
:103C4000E8008091E80080FFFCCF80911401809310
:103C5000F1008091E8008E77DCCF8091BC02813248
:103C600001F78091C0029091C102892BD1F6809119
:103C7000E800877F8093E8000E9459208091BE026F
:103C8000809314010C9446148091BC02813249F651
:103C90008091E800877F8093E8000E9459208091FE
:103CA000BF028093960208958091BC02813A09F088
:103CB000B8CF8091E800877F8093E8008091E8008A
:103CC00080FFFCCF80919602C2CF84B7877F84BFEC
:103CD0000FB6F894A8958091600088618093600089
:103CE000109260000FBE80E890E00FB6F8948093C9
:103CF0006100909361000FBE0E948D0F0E94A92069
:103D00000E9406218091E20084608093E200789412
:103D10000E948F230E949D0F8AE091E00E94080F6D
:103D20008091BB028530A9F00E94A50F0E949B0FD5
:103D30000E949C0FF5CF0E94B11B8091B90288238D
:103D400041F00E94E01B882321F00E940C1F0E947A
:103D500046148091BB02853071F30E94F81BE4CFBA
:103D60000C94B21EFC01CB01DA012F2F3327233034
:103D70003105D1F070F42130310509F43EC0223014
:103D8000310569F48BE390E02EE634E02D933C930B
:103D9000089521323105E9F02232310521F190E018
:103DA00080E030E020E0F2CFCF019927E13059F0F8
:103DB0008230910559F0EAE6F4E0892B81F784918D
:103DC00090E09F01E3CFECE5F4E0F9CFEAE4F4E022
:103DD000F6CF892BB9F06130710509F789E090E0E1
:103DE00029E934E0D3CF892B91F061307105B9F620
:103DF0008BE790E02BEB34E0C9CF82E190E029EA39
:103E000034E0C4CF89E090E020E834E0BFCF80E424
:103E100090E026E335E0BACF19BC82E089BD09B451
:103E200000FEFDCF8091D8008F7D8093D8008091D7
:103E3000E00082608093E0008091E00081FDFCCF93
:103E40000895AF92BF92CF92DF92FF920F931F938C
:103E5000CF93DF936C01EB018A010E947820F82E4A
:103E6000811123C00115110539F0F801808191817C
:103E7000C81BD90BC80ED91EB12CA12C2097A9F0B4
:103E80008091E80085FD22C08091E8008E778093C4
:103E9000E80001151105A1F0F801808191818A0DDA
:103EA0009B1D9183808385E0F82E8F2DDF91CF912C
:103EB0001F910F91FF90DF90CF90BF90AF9008952A
:103EC0000E9478208823D1F2F82EEFCFF60181915D
:103ED0006F018093F1002197FFEFAF1ABF0ACECF99
:103EE000FC01CB012091C2023091C3022617370793
:103EF00090F0009729F42091E8002E772093E800B5
:103F000040E0009751F4411108C08091E80082FF21
:103F100031C080E00895C901F3CF2091BB02222374
:103F2000A9F12530A9F12091E80023FD2DC02091B1
:103F3000E80022FDEACF2091E80020FFE2CF309197
:103F4000F3002091F200009719F02830310558F065
:103F500041E02830310509F040E02091E8002E775B
:103F60002093E800CECF41914093F10001972F5F5D
:103F70003F4FE9CF8091BB02882341F0853041F06B
:103F80008091E80083FFC1CF81E0089582E0089529
:103F900083E00895FC01CB012091C2023091C3025D
:103FA0002617370790F0009729F42091E8002E7724
:103FB0002093E80040E0009751F4411108C080913F
:103FC000E80082FF32C080E00895C901F3CF20915C
:103FD000BB022223B1F12530B1F12091E80023FD8D
:103FE0002EC02091E80022FDEACF2091E80020FFBA
:103FF000E2CF3091F3002091F200009719F02830C1
:10400000310558F041E02830310509F040E02091B9
:10401000E8002E772093E800CECF44914093F10042
:10402000319601972F5F3F4FE8CF8091BB028823E5
:1040300041F0853041F08091E80083FFC0CF81E0FE
:10404000089582E0089583E00895982F973028F02E
:104050008F708093E90081E008959093E900242F08
:10406000762F50E0981731F07091EC002091ED0020
:104070005091F00021FD02C09F5FE8CF3091EB002E
:104080003E7F3093EB003091ED003D7F3093ED00AB
:104090003091EB0031603093EB007093EC00209393
:1040A000ED005093F0002091EE0027FDE5CF80E079
:1040B00008958091BC0287FF13C08091E80082FFC1
:1040C00006C08091E8008B778093E80004C080915F
:1040D000BB028111F2CF08958091BB028823D9F3EE
:1040E0008091E80080FFF8CF8091E8008E77ECCFD8
:1040F0002091E4003091E50095E6A9012091EC00C3
:10410000822F817020FF06C08091E80080FF06C0EA
:1041100080E008952091E80022FD1AC08091BB0242
:10412000882389F0853089F08091EB0085FD0FC0F0
:104130002091E4003091E50042175307F9F29150C5
:10414000E1F684E0089582E0089583E0089581E037
:1041500008950E9417210E941F21E0EEF0E0808167
:1041600081608083E8EDF0E080818F77808319BCE7
:10417000A7EDB0E08C918E7F8C9380818F7E8083C1
:104180001092BA0208950F931F93CF93DF930E946A
:1041900017210E941F21C8EDD0E088818F77888386
:1041A00088818068888388818F7D888319BC10927C
:1041B000BB021092B7021092B9021092B80200EE40
:1041C00010E0F80180818B7F808388818160888303
:1041D00042E060E080E00E942520E1EEF0E0808196
:1041E0008E7F8083E2EEF0E0808181608083808139
:1041F00088608083F80180818E7F808388818061E0
:104200008883DF91CF911F910F910895E8EDF0E041
:1042100080818F7E8083E7EDF0E080818160808304
:1042200084E082BF81E08093BA020C94C320E8ED61
:10423000F0E080818E7F80831092E20008951092DA
:10424000DA001092E10008951F920F920FB60F92BC
:1042500011242F933F934F935F936F937F938F938B
:104260009F93AF93BF93EF93FF938091E10082FF01
:104270000BC08091E20082FF07C08091E1008B7F3C
:104280008093E1000E948E238091DA0080FF18C0A5
:104290008091D80080FF14C08091DA008E7F8093D7
:1042A000DA008091D90019BC80FF91C082E089BDFD
:1042B00009B400FEFDCF81E08093BB020E94911DF6
:1042C0008091E10080FF19C08091E20080FF15C05D
:1042D0008091E2008E7F8093E2008091E200806115
:1042E0008093E2008091D80080628093D80019BC4E
:1042F00085E08093BB020E94A31D8091E10084FFB2
:1043000028C08091E20084FF24C019BC82E089BDEE
:1043100009B400FEFDCF8091D8008F7D8093D80036
:104320008091E1008F7E8093E1008091E2008F7E9A
:104330008093E2008091E20081608093E2008091AE
:10434000B702882309F448C084E08093BB020E942E
:10435000A41D8091E10083FF29C08091E20083FFCA
:1043600025C08091E100877F8093E10082E0809307
:10437000BB021092B7028091E1008E7F8093E10032
:104380008091E2008E7F8093E2008091E200806164
:104390008093E20042E060E080E00E94252080916E
:1043A000F00088608093F0000E94A21DFF91EF91C1
:1043B000BF91AF919F918F917F916F915F914F913D
:1043C0003F912F910F900FBE0F901F901895109254
:1043D000BB020E949F1D74CF8091E30087FD02C045
:1043E00081E0B3CF83E0B1CF1F920F920FB60F924F
:1043F0001124FF920F931F932F933F934F935F933B
:104400006F937F938F939F93AF93BF93CF93DF93DC
:10441000EF93FF9309EE10E0F8018081C091EC006A
:10442000C795CC27C7958F70FC2EF82A1082C0EF55
:10443000D0E08881877F888378940E943D22F801AC
:104440001082888188608883CF2DCF70C083FF91D0
:10445000EF91DF91CF91BF91AF919F918F917F911C
:104460006F915F914F913F912F911F910F91FF900D
:104470000F900FBE0F901F9018951F93CF93DF934F
:10448000CDB7DEB7AA970FB6F894DEBF0FBECDBF8B
:104490008CEB92E0FC0101962091F100208322E058
:1044A000843C9207B9F70E94AF1D8091E80083FF1A
:1044B0001DC18091BC029091BD029A3008F016C1D6
:1044C000E92FF0E0E558FB4D0C94BD23803899F0BE
:1044D000823809F00BC18091C0028F70873008F0DC
:1044E00005C18093E9008091EB0085FB882780F966
:1044F0001092E90006C08091B8029091B902911122
:1045000082609091E800977F9093E8008093F1009B
:104510001092F1008091E8008E77E4C0882309F4BE
:10452000D2C0823009F0E2C08091BE028111D5C0B4
:104530008091C0028F702FEF280F263008F0D6C070
:104540008093E9002091EB0020FFC7C0933031F445
:104550008091EB0080628093EB00BFC09091EB00F4
:1045600090619093EB0021E030E001C0220F8A952A
:10457000EAF72093EA001092EA008091EB0088604D
:10458000EACF8111B3C01091BE021F778091E30082
:104590008078812B8093E3008091E800877F80936F
:1045A000E8000E9459208091E80080FFFCCF8091B4
:1045B000E30080688093E30082E0111183E0809340
:1045C000BB0294C08058823008F090C08091BE0237
:1045D0009091BF028C3D23E0920799F583E08A8396
:1045E0008AE289834FB7F894DE01139620E03EE01B
:1045F00051E2E32FF0E050935700849120FF03C075
:1046000082958F703F5F8F708A30C8F0895C90E030
:104610008D939D932F5F243161F74FBF8091E80008
:10462000877F8093E8006AE270E0CE0101960E94E5
:10463000701F8091E8008B778093E80057C0805D01
:10464000E6CF6091C0027091C102AE014F5F5F4F33
:104650000E94B01EBC01892B09F448C08091E8007B
:10466000877F8093E80089819A810E94CA1FE1CFE9
:104670008038E1F58091E800877F8093E8008091A1
:10468000B7028093F10046CF811130C09091BE02F5
:10469000923060F58091E800877F8093E8009093E6
:1046A000B7020E9459208091B702882311F084E05C
:1046B00005C08091E30087FDFACF81E08093BB02C3
:1046C0000E94A51D13C08091BE02813079F481E063
:1046D000933009F080E08093B9021092E900809154
:1046E000E800877F8093E8000E9459208091E800CD
:1046F00083FF0AC08091E800877F8093E800809163
:10470000EB0080628093EB00AA960FB6F894DEBFB0
:104710000FBECDBFDF91CF911F9108950895CF9324
:104720008091BB02882399F08091E900C091EC0050
:10473000C795CC27C7958F70C82B1092E900809140
:10474000E80083FD0E943D22CF70C093E900CF9125
:10475000089597FB072E16F4009407D077FD09D033
:104760000E94C32307FC05D03EF4909581959F4F8E
:104770000895709561957F4F0895EE0FFF1F059086
:10478000F491E02D0994AA1BBB1B51E107C0AA1F9D
:10479000BB1FA617B70710F0A61BB70B881F991FE2
:1047A0005A95A9F780959095BC01CD010895911176
:1047B000089581548A5108F4805E855A0895DC0179
:1047C0005D91552331F0FB01019005160110E1F7D1
:1047D000B9F7809590958A0F9B1F0895FB01DC0126
:1047E0004150504048F001900D920020C9F701C09F
:1047F0001D9241505040E0F70895F999FECF92BDC7
:1048000081BDF89A992780B50895A8E1B0E042E00B
:1048100050E00C943124262FF999FECF92BD81BD32
:10482000F89A019700B4021639F01FBA20BD0FB6EE
:10483000F894FA9AF99A0FBE08950396272F0E94CA
:104840000C240E940B24252F0E940C24242F0C944E
:104850000C240196272F0E940C240C940B24DC01BD
:10486000CB01FC01F999FECF06C0F2BDE1BDF89A7B
:10487000319600B40D9241505040B8F70895F89425
:10488000FFCFCC08D208D508DB08F008F008F00804
:10489000F008F008F008F008F008DE08E308E70880
:1048A000ED08FE0804090809530E590E5D0E6B0E43
:1048B0006F0E730E770E7D0E850E890E8D0E910E86
:1048C0009D0EA10EA50EA90EAF0ECD0EB70E670E52
:1048D000950E990E810EB30EC30ED60EDA0ED711B9
:1048E000D711391239128E12AA1207120712B512F5
:1048F00061137213721366228E2276238E22762320
:0A490000C122E2227623382344236B
:10490A002808641E140A321E8002041D611D421DFD
:10491A003E1D3A1D013030323820323536462030BD
:10492A003042302037364341203030423020303058
:10493A003239203235364620354636312032353343
:10494A004220323530312032353342203030304146
:10495A0000C2AF5C5F28E38384295F2FC2AF00489F
:10496A00754568556548754500E200E900EA00B5F5
:10497A0000B600B700CD008301CC008A01920194F1
:10498A00012102230224022502260227022A02B357
:10499A0000B4006F007000F0313233379091929377
:1049AA00959734353666F4F1F7F6F52000E200E91A
:1049BA0000EA00B500B600B700CD008301CC008A3A
:1049CA0001920194012102230224022502260227D0
:0C49DA00022A02B300B4006F007000005D
:00000001FF
