:100000000C9443030C948A030C948A030C948A0383
:100010000C948A030C948A030C948A030C948A032C
:100020000C948A030C948A030C948F260C946227F8
:100030000C94B91E0C948A030C948A030C948A03C2
:100040000C948A030C948A030C948A030C948A03FC
:100050000C948A030C94041F0C948A030C948A0356
:100060000C948A030C948A030C948A030C948A03DC
:100070000C948A030C948A030C948A030C948A03CC
:100080000C948A030C948A030C948A030C948A03BC
:100090000C948A030C948A030C948A030C948A03AC
:1000A0000C948A030C948A030C948A032B0014008A
:1000B0001A000800150017001C0018000C001200A0
:1000C00013002A00296104001600070009000A0035
:1000D0000B000D000E000F0000003300E1000000D7
:1000E0001D001B000600190005001100100036005D
:1000F000370038430000E200E3002C00000000005D
:100100000000000028420000045105512B0014009B
:100110001A000800150017001C0018000C0012003F
:1001200013002A00E00004001600070009000A007E
:100130000B000D000E000F0000003300E100000076
:100140001D001B00060019000500110010003600FC
:10015000370003510000E200E3002C000000000023
:1001600000000000284200000451055135001E0027
:100170001F0020002100220023002300250026006C
:1001800027004C00E000000000000000000000001C
:100190005000510052004F0000003400E100000008
:1001A0000000000000000000000000000000AC00A3
:1001B000AB00AE000000E200E3002C0000000000F5
:1001C0000000000001000000045105513A003B000E
:1001D0003C003D003E003F00400041004200430023
:1001E00044004500E00000000000000000000000A6
:1001F0002D002E002F00300000003100E100000033
:1002000000000000000000000000000000000000EE
:1002100000000100000000000000000000000000DD
:1002200000000000000000000000000011140000A9
:100230000000341400000C14000000000000121430
:1002400000000000E00004140000000000000000B6
:10025000000000000000000000000814E1000000A1
:100260000000000006140000000000000000000074
:10027000000001000000000000000000000000007D
:10028000000000000000000001000000005C000011
:10029000000000000000000000000000000000005E
:1002A00000000153000000000000000000000000FA
:1002B000000000000000000000000000000000003E
:1002C000000000000000000000000000000000002E
:1002D000000000000000000000000000000000001E
:1002E00000000000000000000000010032190A00B8
:1002F000047F3F1F643214643214783C1E1E140ABB
:10030000052223252628292A2C2D2F303233353655
:10031000383A3B3D3E4042434547494A4C4E505196
:10032000535557595A5C5E6062646668696B6D6FBD
:1003300071737577797B7D7F81838587898A8C8EC0
:1003400090929496989A9C9E9FA1A3A5A7A8AAACC8
:10035000AEAFB1B3B4B6B8B9BBBCBEBFC1C2C3C502
:10036000C6C7C9CACBCCCDCED0D1D2D2D3D4D5D6A4
:10037000D7D7D8D9D9DADADBDBDBDCDCDCDCDCDDD7
:10038000DDDDDDDCDCDCDCDCDBDBDBDADAD9D9D8BB
:10039000D7D7D6D5D4D3D2D2D1D0CECDCCCBCAC953
:1003A000C7C6C5C3C2C1BFBEBCBBB9B8B6B4B3B182
:1003B000AFAEACAAA8A7A5A3A19F9E9C9A9896941D
:1003C00092908E8C8A89878583817F7D7B797775F2
:1003D00073716F6D6B6968666462605E5C5A5957D1
:1003E000555351504E4C4A4947454342403E3D3B90
:1003F0003A3836353332302F2D2C2A29282625231A
:1004000022FFAA7F55400001010101010101010104
:1004100002020202020202020203030303030303B5
:100420000304040404040404050505050506060682
:100430000606070707070708080808090909090A3F
:100440000A0A0B0B0B0C0C0C0D0D0D0E0E0E0F0FE4
:100450000F10101111111212131314141515161672
:100460001717181819191A1A1B1B1C1D1D1E1E1FE1
:100470002020212222232424252626272829292A30
:100480002B2C2D2D2E2F3031323233343536373858
:10049000393A3B3C3D3E3F40414243444546474854
:1004A000494A4C4D4E4F50515354555658595A5B2A
:1004B0005D5E5F616264656668696B6C6D6F7072CA
:1004C000737577787A7B7D7E8082838587888A8C36
:1004D0008E8F91939596989A9C9EA0A2A3A5A7A96A
:1004E000ABADAFB1B3B5B7BABCBEC0C2C4C6C9CB61
:1004F000CDCFD1D4D6D8DBDDDFE2E4E7E9EBEEF017
:10050000F3F5F8FAFDFF0403300000000E034E007F
:100510006500750072006F006E0000001A0357003E
:1005200061006C006C006500740062007500720070
:100530006E006500720000000403090409023B001C
:10054000020100A0FA0904000001030101000921D1
:10055000110100012240000705810308000A090477
:100560000100010300000009211101000122BC006B
:100570000705820320000A12011001000000084252
:1005800057756E01000102030105010902A10185F1
:10059000020901A100050919012905150025019588
:1005A0000575018102950175038101050109300975
:1005B000311581257F950275088106093815812539
:1005C0007F950175088106050C0A38021581257F83
:1005D000950175088106C0C005010980A101850348
:1005E00019012AB700150126B70095017510810081
:1005F000C0050C0901A101850419012AA0021501F9
:1006000026A002950175108100C005010906A1010F
:100610008505050719E029E71500250195087501ED
:1006200081020507190029EF1500250195F07501D4
:1006300081020508190129059505750191029501A9
:1006400075039101C005010906A101050719E029FB
:10065000E71500250195087501810295017508814E
:10066000010507190029FF150026FF0095067508EA
:10067000810005081901290595057501910295016B
:1006800075039101C00011241FBECFEFDAE0DEBF79
:10069000CDBF04B603FE27C08091CB029091CC025F
:1006A000A091CD02B091CE028730904BA740B04BC5
:1006B000D1F41092CB021092CC021092CD02109283
:1006C000CE0214BE84B7877F84BF0FB6F894A89576
:1006D00080916000886180936000109260000FBE7E
:1006E000E0E0F8E3099511E0A0E0B1E0E2E9F5E52A
:1006F00002C005900D92A23CB107D9F722E0A2EC0E
:10070000B1E001C01D92AB3CB207E1F70E94C523E6
:100710000C947D2A0C94000081E0089581E00895F6
:100720000C948E0308950C9492031F93CF93DF9340
:1007300000D000D00F92CDB7DEB749835A836B83C8
:100740003091010289819A8131111DC06623B9F06F
:100750002223A9F00E94AB1B182F682F89819A8150
:100760000E94541B69817A81812F0F900F900F9006
:100770000F900F90DF91CF911F910C944F040E9426
:10078000821B182FEFCF0E94AB1B69817A81EDCFBE
:10079000FC01262F408151816281738184810C94F8
:1007A0009503CF93DF93D82FC92F60E00E94C80331
:1007B0006D2F7C2FDF91CF910C9493030E944E1FDD
:1007C0000E94001D811102C00E949D1D0C945906BB
:1007D0000C945C0608950C94EA0381E008950C944F
:1007E000ED03CF93C82F0E94EB038C2FCF910C9475
:1007F000EF0308950E9406160E94F9032FEF84E389
:100800009CE0215080409040E1F700C000000C9433
:10081000281F0F931F93CF93DF93EC0161E00E9499
:10082000C8038C01BE010E949003882359F1BE01C8
:10083000C8010E94A60F882329F1BE01C8010E94A9
:10084000EA0F8823F9F0BE01C8010E94BD10882379
:10085000C9F0BE01C8010E949B0E882399F08A81CD
:10086000882339F001158CE5180751F00E3D1C4521
:1008700079F0CE01DF91CF911F910F910C948C03F1
:100880000E94FA0380E0DF91CF911F910F910895AC
:100890000E949D1DF7CF90E080E008950895972F66
:1008A00070E02CE0929F600D711D1124FB0190E31C
:1008B000899FE00DF11D1124EE0FFF1FE455FF4F3E
:1008C000859194910895FC01EE0FFF1FE451FD4FB7
:1008D000859194910895CF93DF930E944F040E94D5
:1008E0007D05EC01811520E5920708F04BC08115CC
:1008F00030E4930708F0B2C0803E910518F5803CC3
:10090000910508F09FC0883A910570F4853A9105E9
:1009100008F095C08130910529F10497813A91053D
:1009200008F1D0E0C0E01EC08F3B9105D1F3C85A5A
:10093000D0E0CC0FDD1FC55DDE4F0990D881C02D02
:10094000D46410C0811540E2940780F48F3F910574
:1009500009F040F4883E910528F0805F9109D06548
:100960004097F8F6CE01DF91CF910895C11580E34D
:10097000D80708F46DC0CE019927D3FD6CC0EC01F7
:10098000D06CF0CFC11595E5D90760F5C11524E508
:10099000D20708F094C0C11533E5D30778F4C11528
:1009A00042E5D40708F07AC0C11581E5D80708F4FC
:1009B00058C0DC2FCC27C16FD06AD4CFCE01837052
:1009C000992721E030E002C0220F331F8A95E2F719
:1009D000C695C69590E2C99FE0011124C22BD32B86
:1009E000DA68C0CFC1152AE5D207B0F4C11539E5E0
:1009F000D30708F074C0C11546E5D40708F464C0F5
:100A0000CE0198558F3F910511F008F08ACFDC2F69
:100A1000CC27C06FD06AA6CFCE01905681159042E8
:100A200008F07FCF8D2F8F710E94150690E0982FD0
:100A3000882788279F719C012C2BE9014EC0A49721
:100A4000D06490CF805C91090E946304EC018ACF4E
:100A5000CE019F70F9CFEC01D86C84CFDF70D06AE3
:100A600081CFCE0174E0969587957A95E1F78370F2
:100A70002C2F26952695237040E2249F9001112467
:100A8000382B8C2F8370C1E0D0E002C0CC0FDD1F6B
:100A90008A95E2F7C22BD32BDC6864CFCE0183703A
:100AA000992721E030E002C0220F331F8A95E2F738
:100AB000C695C69580E2C89FE0011124EBCFDC2FDC
:100AC000CC27C46FD06A4ECF8C2F0E941506C82F3A
:100AD000D0E0DC2FCC27CC27DF71D06243CF8C2F26
:100AE0008F700E94150634E0D695C7953A95E1F7C8
:100AF000CF70DC2FC82FD06935CF803E910599F19A
:100B0000C8F48133910509F476C048F4893291051F
:100B100009F46AC08A32910509F474C008958933D2
:100B20009105D1F082389105B9F08533910509F42A
:100B300054C00895843E910599F138F4823E9105A0
:100B4000F9F0833E910509F10895863E910599F1EA
:100B5000873E9105B9F1089520918B022370A1F091
:100B600080EE90E0089520918B0220FD52C03091DC
:100B70008C0230FF09C024FF4FC090E080E004C029
:100B800020918B0222FDF7CF089520918B0222FD48
:100B900046C030918C0230FDE3CF24FFF5CFEDCF7E
:100BA00020918C0221FFF0CF80918B0284FDE5CF54
:100BB00087EE90E0089520918B0223FFE5CF24FD7E
:100BC000DCCFF6CF20918B0223FD2CC030918C021C
:100BD00031FFE3CF84EE90E0089520918B0225FF52
:100BE000D3CF89E290E0089520918B0225FFCCCFEE
:100BF00085E390E0089520918B0226FFC5CF8AE21D
:100C000090E0089520918B0226FFBECF81E390E013
:100C1000089589E390E0089583EE90E0089582EED0
:100C200090E0089586EE90E0089590918B0292FFF7
:100C300006C0282F28712830F9F4877F846093FF3D
:100C400006C0282F28712831F1F4877E8461209115
:100C50008C0220FF06C0382F38713830D9F4877FD6
:100C6000816021FF06C0282F28712831D1F4877EAA
:100C7000816194FD877E0895282F24712430F9F630
:100C80008B7F8860DCCF282F2471243101F78B7E85
:100C90008861DDCF382F3171313019F78E7F886050
:100CA000E0CF282F2171213121F78E7E8861E1CF9D
:100CB00008950C94580608950C945B06E82FF0E014
:100CC000EE0FFF1FEE53FE4F80819181089508952E
:100CD00080EA8A95F1F70895CF93DF93C5E6D1E0D6
:100CE00029E631E041E050E08991E82FE295EF708C
:100CF000A1E2AE0FB0E0FC918F70BA0101C0660FA7
:100D00008A95EAF7962F90959F239C93EE5DF0E0ED
:100D10008081862B80832C173D0731F7C9E5D1E010
:100D200025E631E041E050E08991E82FE295EF704F
:100D3000A1E2AE0FB0E0FC918F70BA0101C0660F66
:100D40008A95EAF7962F90959F239C93EE5DF0E0AD
:100D50008081862B80832C173D0731F71092CB01C1
:100D60001092CA011092C3011092C2011092CD01DB
:100D70001092CC011092C5011092C4011092CF01C3
:100D80001092CE011092C7011092C6011092D101AB
:100D90001092D0011092C9011092C80184E00E9403
:100DA0006907DF91CF910C94DE036F927F928F924F
:100DB0009F92AF92BF92CF92DF92EF92FF920F93EA
:100DC0001F93CF93DF9385E6C82E81E0D82E9AEC4F
:100DD000E92E91E0F92E712C88248394912CF60150
:100DE00081916F01C82FC295CF7001E20C0F10E006
:100DF000F80190818F70540101C0AA0C8A95EAF71E
:100E0000892F8A298083CE5DD0E088816A2C609406
:100E1000862188830E946806E9E5F1E050E040E021
:100E200030E020E06191A62FA295AF70A05EB0E007
:100E30008C9190E06F7002C0959587956A95E2F766
:100E400080FD42C0C401042E02C0880F991F0A947D
:100E5000E2F7282B392B4F5F5F4F4C30510511F7CC
:100E6000F8018081682260828881A82AA882F7011F
:100E7000808191812817390751F13183208381E0E6
:100E8000782AF2E0EF0EF11C89E6C81681E0D80658
:100E900009F0A5CF272D44E062EC71E08AEC91E0E7
:100EA0000E946A070E94E803872DDF91CF911F916E
:100EB0000F91FF90EF90DF90CF90BF90AF909F90F9
:100EC0008F907F906F90089580E090E0C2CF80E097
:100ED000D7CF0895FF920F931F93CF93DF93F82EF0
:100EE000092F162FD72FC42F222349F081E080939A
:100EF000D4010E94E91E9093D3018093D201809186
:100F0000D4018823A1F08091D2019091D3010E9455
:100F1000F51E069760F0EF2DF02FA12FBD2F90E06A
:100F200080E0D0E08C179D0744F01092D401DF914F
:100F3000CF911F910F91FF900895219131912D93A1
:100F40003D930196EFCFAF92BF92CF92DF92EF9297
:100F5000FF920F931F93CF93DF93362F472FE82FE6
:100F6000F0E0EA5FFB4F71110EC06491762F862F7F
:100F7000DF91CF911F910F91FF90EF90DF90CF9075
:100F8000BF90AF900895C72FD0E0249186E0689F6E
:100F9000700111240FEF10E0C701B8010E941F2952
:100FA000832F90E0880F991F35E5369FF001379F1A
:100FB000F00D11248E1B9F0B982F990F980FF8019D
:100FC000EC1BFD0B2E9FD0012F9FB00D1124EB2F9A
:100FD000949FA0011124452F55276801C41AD50AF2
:100FE000A601249F6001259FD00C11248D2D58014E
:100FF000A91AB108AC9EA001AD9E500DBC9E500D2B
:101000001124452F5527041B150B209FA001219F5C
:10101000500D112463307105D9F09CEFE91693E06F
:10102000F90668F461307105B9F062307105C1F0FC
:101030009FEFE916F10448F48B2FE52F06C06430CA
:10104000710589F066307105B9F36E2F722F90CF5C
:10105000ED2D822F2B2FF9CFE22F2D2D8B2FF5CFBA
:10106000852FE22FF7CF822F252FEFCF0895CF9333
:10107000DF93982F762F842FE901692F0E94A30711
:10108000798368838A83DF91CF9108958091E90104
:10109000982F9E7F29F4817082608093E9010895E2
:1010A0008635E8F381708465F8CF88E090E00C9491
:1010B000DA290F931F93CF93DF938B01D82FC92F7A
:1010C0000E944608A8016D2F7C2F88E090E0DF91F8
:1010D000CF911F910F910C94F829E9EEF1E083E094
:1010E000808311828FEF82838383148263E070E0B8
:1010F0008FEF9FEF0C9459088091E90180FF02C0A7
:101100008695089580E00895CF93DF9300D000D0B6
:10111000CDB7DEB78091ED01833018F48F5F8093F7
:10112000ED018091E9019091EA01A091EB01B0916C
:10113000EC0189839A83AB83BC83BC01CD010F9002
:101140000F900F900F90DF91CF910C945908CF938F
:10115000DF9300D000D0CDB7DEB78091ED018823BA
:1011600019F081508093ED018091E9019091EA019D
:10117000A091EB01B091EC0189839A83AB83BC838E
:10118000BC01CD010F900F900F900F90DF91CF9188
:101190000C94590870E00C940B0F6091070180913A
:1011A000E90180FF0AC08091060123E0829FC0010F
:1011B000112483529E4F0C94CA08E091080180913B
:1011C0000901E81780F78E2F90E0FC01EE0FFF1F5A
:1011D000E80FF91FE352FE4F118210821282E3CF13
:1011E0009091E90190FF14C0E091080190910901EC
:1011F000E91760F42E2F30E0F901EE0FFF1FE20F28
:10120000F31FE352FE4F8183608342830C94CD0829
:101210000895CF93DF9300D00F92CDB7DEB79091B2
:10122000E90190FF0AC09E012F5F3F4F0E943708DF
:101230004B8169818A810E94F0080F900F900F9076
:10124000DF91CF910895CF93DF93EC01EC81F0E033
:10125000EF5FFC4F4491E9EEF1E0628181810E94F1
:1012600009098C818F5F8C83DF91CF910895CF9393
:10127000DF93EC01E9EEF1E0438162818C810E9411
:1012800009098C818F5F8C83DF91CF9108950F9333
:101290001F93CF93DF9300D00F92CDB7DEB78C01B1
:1012A0008091D50181110AC09E012F5F3F4F4FEF02
:1012B0006FEF0E9437088A818093D501F80164811D
:1012C000613049F06230F1F08091D50140E0662351
:1012D00031F040E019C06091D50140E080E00E940B
:1012E000F008F801848190E0019663E070E00E94CC
:1012F000332984830F900F900F90DF91CF911F912E
:101300000F9108954091D50180E060E0E8CFAF9261
:10131000BF92CF92DF92EF92FF920F931F93CF93E2
:10132000DF9300D000D000D00F92CDB7DEB7182FDA
:10133000F62E042FD22E9091E90190FF83C0E92F61
:10134000E695AE2FB0E0A759BE4F8C918093E70190
:101350009E7F9230A1F59E012F5F3F4F812F0E940B
:1013600037084B8169818A810E94F0081093EA0155
:10137000F092EB010093EC01DD2009F463C0809151
:10138000E9019091EA01A091EB01B091EC018C830D
:101390009D83AE83BF83BC01CD0127960FB6F89421
:1013A000DEBF0FBECDBFDF91CF911F910F91FF9098
:1013B000EF90DF90CF90BF90AF900C94590882309F
:1013C00019F40091EC01D2CF863019F41091EA01A2
:1013D000CDCF8930D9F3893149F6E9518E2F81700B
:1013E000C82EE695F0E0EF5FFB4FA590B490E12C9E
:1013F000BB2460910A01E61618F00E94CD08B6CF12
:101400002E2D30E0EA9CC001EB9C900D112470E081
:101410000E941F29812FC11013C0860F90910801CF
:10142000A901490F511D9A01220F331F240F351FA7
:1014300023523E4F402F6F2D0E943708E394D9CF9F
:10144000861BECCF27960FB6F894DEBF0FBECDBF3C
:10145000DF91CF911F910F91FF90EF90DF90CF9090
:10146000BF90AF900895282FE9EEF1E0818143818C
:101470006281885F0C94870981E00C94330A282FDD
:10148000E9EEF1E081814381628188500C94870903
:1014900081E00C943F0A282FE9EEF1E0628138E008
:1014A000630F08F46FEF438181810C94870981E019
:1014B0000C944B0A282FE9EEF1E0628138E0631BBF
:1014C00008F460E0438181810C94870981E00C94E9
:1014D0005A0A282FE9EEF1E0438138E0430F08F47F
:1014E0004FEF628181810C94870981E00C94690A35
:1014F000282FE9EEF1E0438138E0431B08F440E097
:10150000628181810C94870981E00C94780A20E043
:101510000C948709EF92FF921F93CF93DF93EC0116
:1015200010E0EE24EA94F12C60910A01161770F095
:101530000E94CD089A818C8190FF27C08F5F8C8399
:10154000DF91CF911F91FF90EF90089520910801B6
:10155000422F410F5527551FCA019A01220F331FF1
:10156000280F391F23523E4F70E0C7010E943329D4
:10157000962F8C814091EC016091EB01199F800DB9
:1015800011240E9437081F5FCFCF8150D8CFBF9260
:10159000CF92DF92EF92FF920F931F93CF93DF933F
:1015A000FC0182810FEF80FF01E010E080910A01D1
:1015B0001817C0F00E94CD088091D701013009F0C2
:1015C00051C0811102C080910A0181508093D701DE
:1015D000DF91CF911F910F91FF90EF90DF90CF900F
:1015E000BF90089580910801C12ED12C8C0D9D2DA6
:1015F000911DEC01CC0FDD1FC80FD91FC352DE4F68
:10160000198218821A8234E0E32EF12CB12C8091D9
:10161000D7018B0D823024F587FF03C090910A011A
:10162000890F082E000C990BC816D90691F48091E9
:10163000EC018E9DA0018F9D500D1124559547956D
:10164000559547959E016091EB018091EA010E94BA
:101650003708B00EF1E0EF1AF108C9F61F5FA6CF08
:1016600080E0DFCF90E0019660910A0170E00E9477
:101670003329ACCF0F931F93CF93DF93E0910801F1
:1016800080910901E81760F48E2F90E0FC01EE0FC5
:10169000FF1FE80FF91FE352FE4F118210821282E2
:1016A000C0E0D3E060910A01C61710F10E94CD0896
:1016B000209104018091D601820F8093D6019091F0
:1016C0000501920F90930501191654F4082E000C91
:1016D000990B40910A014150550B841795071CF056
:1016E000219520930401DF91CF911F910F910895CF
:1016F0000C2F10E070E0C8010E94332920910801EE
:10170000820F482F50E02091D601022E000C330B9F
:1017100002171307BCF020910501022E000C330BB9
:10172000201731077CF08D9F9001112423523E4FEA
:101730004091EC016091EB018091EA010E94370831
:10174000CF5FB0CFFA01EE0FFF1FE40FF51FE3529A
:10175000FE4F118210821282F3CF0F931F93CF930B
:10176000DF938C01FC01848195810196817099271A
:1017700095838483C0E0D5E580910A01C81730F0D5
:10178000DF91CF911F910F910C94CD08209108010A
:10179000422F4C0F5527551FCA019A01220F331FA4
:1017A000280F391F23523E4F4C2F4695F801848154
:1017B0009581840F911D81704091EC016091EB0146
:1017C0008D9F802D11240E943708CF5FD5CF0F93B6
:1017D0001F93CF93DF93EC0110E000E090910A019A
:1017E0009017110609F06CF40E94CD088C8190E0EE
:1017F0000196817099278C83DF91CF911F910F9172
:10180000089580910801A801480F511D9A01220FE7
:10181000331F240F351F23523E4F4C816091EB0143
:101820008091EA0196959017110651F04CF04423EF
:1018300049F04091EC010E9437080F5F1F4FCECF57
:101840004423B9F340E0F7CF8F929F92AF92BF92BB
:10185000CF92DF92EF92FF920F931F93CF93DF937C
:10186000FC01B280948081E0848300E015E05BE4B9
:10187000A52E88248394EE24EA94F12C7BE4C72ED1
:10188000D12C80910A01081770F0DF91CF911F9140
:101890000F91FF90EF90DF90CF90BF90AF909F900F
:1018A0008F900C94CD08C02FD0E01C9FF0011D9F9D
:1018B000F00D1124E852FE4F91101CC013821282C9
:1018C000809108018C0F9D2F911D9C01220F331FC9
:1018D000280F391F23523E4F1C9FF0011D9FF00D12
:1018E0001124E852FE4F4281618180810E943708B5
:1018F0000F5FC7CF2381222379F1215023833481C5
:101900008A2D821B311101C0822F1C9FF0011D9F67
:10191000F00D1124E852FE4F9091EC01899FC00117
:101920001124B6010E941F296283211104C03323B0
:1019300011F01482A38222E02B1510F21C9FF001FB
:101940001D9FF00D1124E852FE4F8091EA01808323
:101950008091EB018183B4CF0E94B5298230914000
:101960000CF0AECF82E08B1530F50E94B529B7019F
:101970000E9433291C9FF0011D9FF00D1124E85295
:10198000FE4F808322E02B15C8F40E94B5292091D8
:10199000EB012695622F70E00E943329280F1C9FCF
:1019A000F0011D9FF00D1124E852FE4F2183128299
:1019B000A382848285CF8091EA01DCCF2091EB0164
:1019C000EECFCF93DF9300D000D0CDB7DEB7E9EEF6
:1019D000F1E080818E7F808380819181A281B381BB
:1019E00089839A83AB83BC83BC01CD010E945908D3
:1019F0001092E8019FEFA0E7B2E09150A040B04004
:101A0000E1F700C000000F900F900F900F90DF9152
:101A1000CF910C94CD086091E901669570E04BE0A0
:101A200050E08BE091E00E94C529892B19F481E0F8
:101A30008093E8010E94E91E9093E1018093E00108
:101A40000895CF93DF9300D000D0CDB7DEB790914B
:101A5000E90190FF41C09170811134C09260909370
:101A6000E901662381F08091E9019091EA01A0915A
:101A7000EB01B091EC0189839A83AB83BC83BC01F9
:101A8000CD010E9459086091E901669570E04BE034
:101A900050E08BE091E00E94C529892BD1F0109293
:101AA000E80181E08093E3014091EC016091EB015A
:101AB0008091EA010F900F900F900F90DF91CF91DE
:101AC0000C94870A8B3210F09465C9CF880F982B3D
:101AD000C6CF0E940B0DE5CF0F900F900F900F9087
:101AE000DF91CF910895682F8091E90186958F5FEE
:101AF0008B3208F081E00C94210D81E00C94730D81
:101B0000682F9091E90196958FEF890F913009F434
:101B10008AE20C94210D81E00C94800D61E00C941C
:101B2000210DE9EEF1E080818160808386950C943F
:101B30008E0D8091E90180FD0C94E10C0C94910DC7
:101B400060E00C94210D8091E60181112EC00E946D
:101B5000001D811104C00E949D1D0E946D080E94FD
:101B600055086093E9017093EA018093EB0190932B
:101B7000EC016E7F61F40E946D080E94550860932D
:101B8000E9017093EA018093EB019093EC010E94CC
:101B900046081092E8018091E90180FF03C0869514
:101BA0000E94A00D81E08093E60108950F931F939A
:101BB000CF93DF938091E801882309F49DC0809141
:101BC000E701E091E901E695E81BE093E20182304C
:101BD000C9F5F0E0E350FD4FE491CE2FD0E003E2F1
:101BE00019E08091E301882389F01092E3010E94BB
:101BF000E91E9E0120953095280F391F3093E10191
:101C00002093E0011092E5011092E4018091E0013F
:101C10009091E1010E94F51E8C179D0708F46CC09D
:101C2000E091E001F091E101CE0FDF1FD093E101DF
:101C3000C093E00180EE91E0F801DF91CF911F9118
:101C40000F910994863049F4F0E0E650FD4FE4919D
:101C5000CE2FD0E007E319E0C4CF893051F4E695E8
:101C6000F0E0E950FD4FE491CE2FD0E00AE81AE011
:101C7000B8CF8F3051F4E695F0E0EC50FD4FE49191
:101C8000CE2FD0E007EC1AE0ACCF853149F4F0E07C
:101C9000EF50FD4FE491CE2FD0E00AE31BE0A1CF3F
:101CA000C8EED3E00DEA1BE0883109F49ACF833205
:101CB00039F4EFEEF2E0C591D49107E419E091CF49
:101CC000C4EFD1E007EE1BE0843209F48ACFC0ED07
:101CD000D7E006E318E0853209F083CF8E2F63E06A
:101CE0000E941329E92FF0E0E451FD4FE491CE2F3B
:101CF000D0E004E21CE075CFDF91CF911F910F91EE
:101D00000895FA0181110994FB01FDCFCF93DF9370
:101D1000C82FD62F0E947C088C1740F00E947C08A8
:101D20008D1720F4DF91CF910C947D0D8C2FDF91D6
:101D3000CF910C948E0D0F931F93CF938C01FB01C9
:101D4000C281CC2309F465C00E94481C8272F8014C
:101D5000E25CFC45E431F10538F4E158F54D0C94B2
:101D600047290E94990DC0E08C2FCF911F910F91B0
:101D700008954BE85DE06DE77DE00E94810EF3CFB2
:101D80004DE75DE06BE87DE0F8CF48E45AE06CE3B6
:101D90007AE0F3CF4CE35AE068E47AE0EECF46E62F
:101DA0005AE067E57AE0E9CF47E55AE066E67AE08F
:101DB000E4CF44E85AE065E77AE0DFCF45E75AE050
:101DC00064E87AE0DACF47EA58E064E878E0D5CF13
:101DD00044E858E067EA78E0D0CF81E00E948E0DB9
:101DE000C2CF65E082E00E94860EBDCF68E086E04B
:101DF000FACF6EE089E0F7CF64E18FE0F4CF67E1DE
:101E000085E1F1CF88E1EACF62E289E1ECCF83E2BC
:101E1000E5CFC1E0A9CF9C01AB01219A65B16D7FEF
:101E200075B17260EFB7F894CA01880F991F840FDB
:101E3000951F820F931F8217930741F4EFBF8FE521
:101E400094E00197F1F700C000000895D9014D9189
:101E50009D0158E075B9000000C047FF65B9440F07
:101E6000000000C000C000C065B900C05A9591F7DD
:101E7000E2CF0F931F93CF93DF93C62FD42F022F60
:101E8000FC0182818823C9F06093F0010E94E91E61
:101E90009093EF018093EE0180E28C0F883008F080
:101EA00050C0C77081E001C0880FCA95EAF7DF9182
:101EB000CF911F910F910C9442131091F0011613C2
:101EC00035C08091EE019091EF010E94F51E883C93
:101ED000910560F5C0E2CD0F1D17B9F080E2810FCA
:101EE000883040F4177081E001C0880F1A95EAF736
:101EF0000E944913C83048F481E09D2F977001C0BB
:101F0000880F9A95EAF70E944213802F0E942F13A0
:101F1000C830B8F4D77081E001C0880FDA95EAF7CD
:101F2000DF91CF911F910F910C94491380E28C0F98
:101F3000883038F4C77081E001C0880FCA95EAF78D
:101F4000EFCFDF91CF911F910F9108959C01CB01AD
:101F5000233F4CE5340769F190F4283DFCE53F0749
:101F600021F1293D4CE5340781F1273D3C45B1F095
:101F7000FC018281882361F11092F0010895253FD0
:101F8000FCE53F07D1F0263F4CE53407D1F0243F74
:101F90003C4571F727E245EE64EE03C026E241EED0
:101FA00061EE0E94390F80E0089527E245EE65EE6C
:101FB000F8CF26E241EE60EEF4CF26E241EE62EE8B
:101FC000F0CF27E245EE66EEECCF28E241E0EFCF1E
:101FD00081E00895CF93DF93EC01FB018281882398
:101FE00009F4C9C0C631FCE5DF07E0F4C2309CE566
:101FF000D907F0F00E94131D90938C0280938B02FE
:10200000C631ECE5DE0720F5C230FCE5DF0798F4C9
:1020100080918B0290918C020E94211D0E940616D5
:1020200080E006C09E012A5F3C452930310510F34F
:10203000DF91CF910895FE01E350FC4580918B0222
:102040008160E331F10588F4ED56F54D0C94472994
:10205000CA5FDC45C930D105D8F6CA55D54DFE0159
:102060000C94472980918B02826080938B02D0CFA1
:1020700080918B028460F9CF80918B028860F5CFCC
:1020800080918C02816080938C02C2CF80918C02FF
:102090008260F9CF80918B028061E7CF80918B02C3
:1020A0008062E3CF80918B028064DFCF0E940616AE
:1020B00080918B028068D9CF80918B028C60D5CFC4
:1020C00080918C028360DFCF80918B028E7FCDCF99
:1020D00080918B028D7FC9CF80918B028B7FC5CF82
:1020E00080918B02877FC1CF80918C028E7FCBCF76
:1020F00080918C028D7FC7CF80918B028F7EB5CF70
:1021000080918B028F7DB1CF80918B028F7BADCF81
:102110000E94061680918B028F77A7CF80918B0249
:10212000837FA3CF80918C028C7FADCF80918B0277
:1021300082FB992790F921E0922790FB82F990FB8E
:1021400083F993CF80918C02982F909591708E7F18
:10215000892B90FB81F997CF0E94061690918B02F4
:10216000892F97FB87F9805880CF81E00E949F1DBF
:102170004FCF80E0FBCF81E05BCFCF93DF93EB01CC
:1021800086319C4511F50E94481C9A81992399F04B
:102190008A7A91E009F490E09093F101811109C0ED
:1021A00089E20E94231C0E94971C80E0DF91CF915E
:1021B000089585E3F6CF8091F101811104C089E291
:1021C0000E942A1CF0CF85E3FBCF81E0EFCF9093F4
:1021D000F7018093F6010895E091F601F091F7017F
:1021E000309721F00190F081E02D099480E008956E
:1021F000DC01E091F601F091F701309799F08091C0
:102200002A01882351F080918B0287FF06C08C91B0
:1022100011968C93119785E08C930280F381E02DC9
:10222000CD0109940895DC01E091F601F091F701E8
:10223000309739F082E08C930480F581E02DCD0158
:10224000099408952091F4013091F5012817390778
:1022500071F09093F5018093F401E091F601F09113
:10226000F701309721F00680F781E02D0994089559
:102270002091F2013091F3012817390771F0909302
:10228000F3018093F201E091F601F091F7013097AC
:1022900021F00084F185E02D0994089585B78068C8
:1022A00085BF85B7806885BF0895089508950C940B
:1022B000551108950C9459110E944E110E94561107
:1022C0000C94571181E008950C9462110E94E01E55
:1022D0000E946C060E94621F0E94A30D0C945A116A
:1022E0009F92AF92BF92CF92DF92EF92FF920F93A5
:1022F0001F93CF93DF9300D000D00F92CDB7DEB7FE
:102300000E94D5060E946411882309F471C059EF18
:10231000A52E51E0B52E10E000E0902E802F0E94F7
:102320005E067C01F501C190D1905F01C816D90607
:1023300009F458C08091850281FD0E9467069601CC
:102340002E253F2580E0CC24C394D12CA9014C211B
:102350005D21452B09F440C089839A82EC20FD2041
:1023600081E0EF2809F480E08B830E94E91E816000
:10237000782F9D838C8349815A816B818D810E9446
:102380001A12000F111FF801E750FE4F8081918152
:10239000C826D926D182C0820E94D60D0E94012172
:1023A0000E94EC109091F801891799F10E94EC10AD
:1023B0008093F8010F900F900F900F900F90DF9186
:1023C000CF911F910F91FF90EF90DF90CF90BF9032
:1023D000AF909F900C94F1038F5FCC0CDD1C8C3080
:1023E00009F0B4CF0F5F1F4F0430110509F095CFEE
:1023F0008FEF89838A831B820E94E91E8160782F78
:102400009D838C8349815A816B818D810E941A1230
:10241000C3CF0F900F900F900F900F90DF91CF913F
:102420001F910F91FF90EF90DF90CF90BF90AF90F2
:102430009F900895CF93DF93CDB7DEB72B970FB65C
:10244000F894DEBF0FBECDBF4F83588769877A8768
:102450008B871E8285E0FE013796DE011196019082
:102460000D928A95E1F749815A816B817C818D813A
:102470009E812B960FB6F894DEBF0FBECDBFDF91C5
:10248000CF910C946818FC01808191810C94ED1B14
:10249000CF93C82F882309F48AC08238C1F40E94E0
:1024A000EC1081FD84C089E30E94231C0E94971CCC
:1024B0002FEF31EE84E0215030408040E1F700C042
:1024C000000089E30E942A1CCF910C94971C83384A
:1024D000A1F40E94EC1080FD6AC083E50E94231CD9
:1024E0000E94971C9FEF21EE34E091502040304035
:1024F000E1F700C0000083E5E5CF8438A1F40E9435
:10250000EC1082FD54C087E40E94231C0E94971C9B
:102510008FEF91EE24E0815090402040E1F700C021
:10252000000087E4CFCF8CEF8C0F813A90F46C2FB2
:1025300080911601909117010E94B81D882329F0FF
:102540008C2F0E942A1C0E94971C8C2F0E94231CF7
:10255000BBCF80E28C0F883048F4C77081E001C0A7
:10256000880FCA95EAF70E944B1CAECF8BE58C0F03
:10257000833038F42C2F2452330BC901CF910C94A3
:102580002211E8E5EC0FE73150F4F0E0EE0FFF1F09
:10259000EC56FE4F80819181CF910C943811C03F51
:1025A00030F08C2F0E940F20CF910C94F620CF9109
:1025B0000895882309F452C0823871F40E94EC1007
:1025C00081FF4CC089E30E94231C0E94971C89E371
:1025D0000E942A1C0C94971C833859F40E94EC101A
:1025E00080FF3CC083E50E94231C0E94971C83E56A
:1025F000EFCF843859F40E94EC1082FF2FC087E49B
:102600000E94231C0E94971C87E4E2CF9CEF980F46
:10261000913AF0F290E2980F983050F4877091E080
:1026200001C0990F8A95EAF7892F0E94511CD2CFD9
:102630009BE5980F933020F490E080E00C942211F9
:1026400098E5980F973120F490E080E00C943811D1
:10265000803F20F00E9477200C94F6200895CF93BD
:10266000C82F0E944812C93349F42FEF87EE93E038
:10267000215080409040E1F700C000008C2FCF91A6
:102680000C94D912882321F00E944B1C0C94971CA7
:102690000895882321F00E94511C0C94971C0895E2
:1026A000AF92BF92CF92DF92EF92FF920F931F9360
:1026B000CF93DF9300D000D00F92CDB7DEB76C017F
:1026C0006D837983FC01058102950F7012811111D0
:1026D0000E946A1C0E94411CE82E882391F011235D
:1026E000D1F08981807F803421F08D81805E8830B7
:1026F00090F082E00E94E21C0E94411C91E0E82ED2
:10270000E926A980A2949FE0A922B12CF501E15508
:10271000F54D0C944729E12CF4CF09810F70F98114
:10272000F07F11F00295007F1123B1F0002361F0DA
:102730008D81805E883018F02D81211109C0802F95
:102740000E944B1C0E94971C8D810E94481215C04C
:10275000802F0E945C1CF6CF8D810E94D91200232D
:1027600061F08D81805E883018F04D81411133C059
:10277000802F0E94511C0E94971C48E0A41AB108A7
:1027800054E0A516B10420F40E94EC100E94F1035D
:10279000EE2009F4D6C10E943D1C80FDD2C1F60195
:1027A00012820E94371C0E94441AC6010E94C8155A
:1027B0000E94371C0F900F900F900F900F90DF9199
:1027C000CF911F910F91FF90EF90DF90CF90BF902E
:1027D000AF900C94751A802F0E94621CCCCF598147
:1027E0005F70F52E6981607F603219F0F29480EF9E
:1027F000F8227D81772369F0713049F1112391F13D
:10280000002351F1F601858180FF9ECF8F70858373
:1028100023C0112381F0011106C00E947E1C8F2964
:102820000E944213AACF0130C1F70E947E1C8F295B
:102830000E94841CA2CF011106C00E948D1C8F2D06
:102840000E9449139ACF013009F497CFF6CF112394
:1028500029F0063008F091CF8F2DE2CF053008F037
:102860008CCFEDCF002359F3FD81F93349F42FEFDD
:1028700047EE53E0215040405040E1F700C00000D7
:102880008D810E94D91279CF898186958695837032
:1028900069F0813009F071CF8D81998193701111A8
:1028A00002C090E080E00E94381167CF8D8199814D
:1028B0009370111102C090E080E00E9422115DCF60
:1028C0008D81112329F00E940F200E94F62055CF00
:1028D0000E947720FACF8981837009F050C01111CE
:1028E0004CCF4D81429546954770440F440F8D81E2
:1028F0008F7090E0B0E0A0E0042E04C0880F991F14
:10290000AA1FBB1F0A94D2F76D8100E010E0980166
:1029100064FF0FC00FE010E020E030E004C0000FC3
:10292000111F221F331F4A95D2F70095109520954D
:10293000309579817695769573707D83B901A8017C
:10294000482B592B6A2B7B2B49835A836B837C83BF
:102950005D8169817A818B819C81523051F0533045
:1029600059F0513019F00E94BA1907CF0E949219FC
:1029700004CF0E94E21901CF0E949019FECE1123CC
:1029800009F445C0698160FFF8CE4D8142954695B6
:102990004770440F440F8D818F7090E0B0E0A0E04D
:1029A000042E04C0880F991FAA1FBB1F0A94D2F7D8
:1029B000ED8100E010E09801E4FF0FC00FE010E0AF
:1029C00020E030E004C0000F111F221F331F4A9582
:1029D000D2F70095109520953095F981F695F695EA
:1029E000F370FD83B901A801482B592B6A2B7B2B6F
:1029F00049835A836B837C83F230A1F0F330C9F0B2
:102A0000F13049F0CB01BA010E94031BB6CE7981A7
:102A100071FFB3CEBACF69817A818B819C810E948C
:102A2000DB1AABCE69817A818B819C810E942B1B42
:102A3000A4CE69817A818B819C810E940E1A9DCEE1
:102A400059815F705983112329F0852F0E94441A00
:102A50008D81E6CE8D810E94491389810E94751A6D
:102A60008CCE6D81623F99F160F4603FD9F0613F97
:102A700039F1112309F444C0011166CE89818F71A7
:102A800023C07D81733F41F1743F99F7112371F1A8
:102A900089818F7189830E94441A63E089810E9431
:102AA000CD1C6BCE112341F0053008F066CE898134
:102AB0008F710E94AA1A61CE063008F05ECEF7CF61
:102AC00089818F71112351F20E94441A56CE898157
:102AD0008F711123C9F3C2CF112329F089818F711E
:102AE0000E941F1A4ACE0E941A1A47CE81E00E9405
:102AF000E21C023008F441CE82E00E94E21C3DCE8E
:102B0000002361F09D81993309F0BACEEFEFF7EE23
:102B100023E0E150F0402040E1F7B0CE89818F7191
:102B20009DCF49814F706D81C6010E944B040E9468
:102B3000021923CE49814F706D81C6010E944E0457
:102B40001CCE0F900F900F900F900F90DF91CF91B0
:102B50001F910F91FF90EF90DF90CF90BF90AF90BB
:102B600008950F931F93CF93DF93EC0168817981D0
:102B70008A810E94F91B8C010E94531B0E948F19AD
:102B8000B801CE01DF91CF911F910F910C9450139A
:102B9000CF93DF93EC018B819C81892B29F0898174
:102BA000988189238F3F59F4DF91CF910895CE0109
:102BB0000E94B115CE01DF91CF910C94D103CE01CB
:102BC0000E9409048111F3CF0E94411C882361F304
:102BD0008A81882349F382E0DF91CF910C94E21C33
:102BE0000E946A1C0E947B1C0E94971C0E9420224B
:102BF0000E94F62090E080E00E94221190E080E0A8
:102C00000C9438110E94311C0C94F0150E94591C30
:102C10000C940216282F892F82958F70903C80F497
:102C20008A30B0F4843020F4823090F480E008954B
:102C30008630E1F781E0283E88F0213FB9F70EC0E9
:102C40008C3011F08F3091F793FB882780F908952D
:102C500081E0203F39F018F4283E40F70895243FE2
:102C600029F7FCCF08950E94ED1B0C940A16CF9310
:102C7000DF9300D000D00F92CDB7DEB70F900F904A
:102C80000F900F900F90DF91CF910895CF93DF9326
:102C900000D000D000D0CDB7DEB726960FB6F8949E
:102CA000DEBF0FBECDBFDF91CF9108951F93CF93AD
:102CB000DF93E091020216E0809103028E1304C0BC
:102CC000DF91CF911F910895CE2FD0E01E9FF0018C
:102CD0001124EC5FFD4F40815181628173818481B9
:102CE00095810E944616FE013196E770E5CF40912E
:102CF0003402509135026091360270913702809112
:102D00003802909139020C9446161F93CF93DF93AB
:102D100080913902807FA9F480913602882389F05E
:102D200080910202C09103027091340260913502D9
:102D3000A0913702B0913802D62FD72316E0C813DE
:102D400004C0DF91CF911F91089590E0109711F08A
:102D5000DF3F19F401968770F2CF189F9001199FF9
:102D6000300D1124F901EC5FFD4F41816413F2CF66
:102D700040814713EFCF42814111ECCF4381548111
:102D80004A1B5B0B483C510528F7809139028F7034
:102D9000806180933902F901E75FFD4F80818F7078
:102DA0008061808384E392E00E94C815DF91CF9117
:102DB0001F910C945616AF92BF92CF92DF92EF9272
:102DC000FF920F931F93CF93DF93CDB7DEB72B976F
:102DD0000FB6F894DEBF0FBECDBF8C0185E0F801C1
:102DE000DE01179601900D928A95E1F7F801408176
:102DF0005181E28084E3A82E82E0B82E60913702F0
:102E0000709138026115710549F09091340220915A
:102E10003502892F82238F3F09F045C1EE2009F446
:102E200053C14F8358878F8198850E943316F82E9F
:102E3000882309F449C186E0F801A4E3B2E00190D7
:102E40000D928A95E1F784E392E00E9443120E947A
:102E5000851626C180913902382F307F683C710574
:102E600008F07CC03111B5C0FE2C251324C094138A
:102E700022C0E11020C08F708061809339020E94CF
:102E8000771684E392E00E94C81580913902F80118
:102E900085838F2D2B960FB6F894DEBF0FBECDBF66
:102EA000DF91CF911F910F91FF90EF90DF90CF9026
:102EB000BF90AF900895CD2829F0842F85238F3FB0
:102EC00009F084C080E0F82FF170DF2EE09102025B
:102ED0002091030236E080FD1CC0EE20D1F28091EB
:102EE0003902816080933902F12CD3CF8E2F90E08C
:102EF0003E9FF0011124EC5FFD4F6181651306C018
:102F00006081641303C062816E11E7CFFC013196CA
:102F1000E770E213EBCF4F8358878F8198850E942B
:102F2000ED1B292F22952F70903260F0225F2F70B9
:102F3000223078F49F7051F0F8019581907F31F440
:102F4000D12C0AC09F7011F08823D1F3805E8830A5
:102F5000B8F3C8010E94C815FD2C9BCF31116EC07B
:102F60006E2D7A858B850E94371684E392E00E944D
:102F7000C81586E0F50111928A95E9F70E94771647
:102F8000B3CF86E0F801A4E3B2E001900D928A95F8
:102F9000E1F77FCF4F8358878F8198850E94331642
:102FA00081113DC080913902816080933902C8014E
:102FB0000E94C8156ECF6E2D7A858B850E943716BC
:102FC00086E0F50111928A95E9F76AC081E08E25C5
:102FD0007ACF251306C0941304C0F801EE2009F43B
:102FE00053C04F8358878F8198850E94331688235A
:102FF00009F46AC0EE2009F467C08091390280327A
:1030000070F020913402309135023A8329831B827B
:10301000DD82CC828E83CE0101960E94C81586E0A7
:10302000F801A4E3B2E001900D928A95E1F70E94C5
:1030300085160E947716FF24F3942BCF2513D1CF4A
:103040009413CFCFE110CDCFF8018583C8010E9442
:10305000C81586E0F50111928A95E9F71ACF251374
:1030600099CF941397CF8091390280FD8ACF982F02
:10307000907F09F486CFF8018583903F31F0982F37
:10308000907F905F8F70892B8583C8010E94C8153F
:1030900086E0F801A4E3B2E001900D928A95E1F791
:1030A0000E947716F6CEC380D480F0903602F601E7
:1030B000E61BF70BBF01F110CDCE683C710508F09F
:1030C0007ACFFE2CE110CBCFC8010E94C815B3CF38
:1030D0001F93CF93DF93CDB7DEB72C970FB6F8943D
:1030E000DEBF0FBECDBF4F83588769877A878B8736
:1030F0009C87CE0107960E94DB16882369F08A859B
:103100009B85892B39F058854F81852F84238F3FEC
:1031100009F071C016E05FC086E0FE013796DE015F
:10312000119601900D928A95E1F78A859B85892BEE
:1031300089F38F81988589238F3F61F32091030262
:1031400030E0C90101968770992740910202481723
:10315000190671F40E9406161092030210920202E0
:1031600086E0E4E3F2E0DF011D928A95E9F7D2CF31
:1031700096E0929FD001939FB00D1124AC5FBD4F9C
:10318000FE01319601900D929A95E1F7809303022A
:103190000E945616BFCF819FC00111248C5F9D4FA6
:1031A0000E94DB168823E9F0E09102021E9FF001E5
:1031B0001124EC5FFD4F40815181628173818481D4
:1031C00095810E9446168091020290E001968770D8
:1031D0009927809302028091020290910302891341
:1031E000DACF2C960FB6F894DEBF0FBECDBFDF91BD
:1031F000CF911F91089569857A858B859C850E9462
:10320000461688CFEF92FF920F931F93CF93DF93D1
:103210008C01892B89F0F12CEE24E394E8012196AE
:10322000F8018491843709F458C0A0F4823009F47D
:103230003FC048F48130D1F0DF91CF911F910F91C1
:10324000FF90EF9008959CEF980F9037A8F70E9499
:1032500048120AC0853709F44EC09CE7980F903792
:1032600058F78F770E94D9128E0116C00E5F1F4F3C
:10327000FE01849190E2980F983060F48770FE2DE3
:1032800001C0FF0F8A95EAF78F2F0E946D1C0E94E4
:10329000971C02C00E9448128F2D882309F4BECFCC
:1032A000EFE9FFE03197F1F700C000008150F5CF62
:1032B0000E5F1F4FFE01849190E2980F983050F4FA
:1032C0008770FE2D01C0FF0F8A95EAF78F2F0E94AD
:1032D000731CDDCF0E94D912DFCF0E5F1F4FFE019E
:1032E000C491CC23C9F28FE99FE00197F1F700C0A8
:1032F0000000C150F6CF0E5F1F4FFE01F490CCCFFF
:1033000008950C9480190E94811960935C02709357
:103310005D0280935E0290935F020C94F015089515
:103320000C948319CF93DF9300D000D0CDB7DEB7D4
:1033300069837A838B839C8380915C0290915D0288
:10334000A0915E02B0915F0229813A814B815C813C
:10335000282B392B4A2B5B2B29833A834B835C83A5
:10336000CA01B9010F900F900F900F90DF91CF918C
:103370000C948319CF93DF9300D000D0CDB7DEB784
:1033800069837A838B839C8380915C0290915D0238
:10339000A0915E02B0915F0229813A814B815C81EC
:1033A000282339234A235B2329833A834B835C8375
:1033B000CA01B9010F900F900F900F90DF91CF913C
:1033C0000C948319CF93DF9300D000D0CDB7DEB734
:1033D00069837A838B839C8380915C0290915D02E8
:1033E000A0915E02B0915F0229813A814B815C819C
:1033F000282739274A275B2729833A834B835C8315
:10340000CA01B9010F900F900F900F90DF91CF91EB
:103410000C9483190C9480190C940A1A0E940C1AAB
:10342000609358027093590280935A0290935B0202
:103430000C94F01560E070E0CB010C940E1A0F9321
:103440001F93CF93DF9300D000D0CDB7DEB741E01C
:1034500050E060E070E08A019B0104C0000F111F82
:10346000221F331F8A95D2F709831A832B833C834B
:10347000C901B8010F900F900F900F90DF91CF917D
:103480001F910F910C940E1A0F931F93CF93DF93FC
:1034900000D000D0CDB7DEB741E050E060E070E092
:1034A00004C0440F551F661F771F8A95D2F780917D
:1034B000580290915902A0915A02B0915B028A0180
:1034C0009B01082B192B2A2B3B2B09831A832B8357
:1034D0003C83C901B8010F900F900F900F90DF91BE
:1034E000CF911F910F910C940E1A0F931F93CF93AE
:1034F000DF9300D000D0CDB7DEB741E050E060E010
:1035000070E004C0440F551F661F771F8A95D2F7DD
:103510004095509560957095809158029091590210
:10352000A0915A02B0915B028A019B0108231923E2
:103530002A233B2309831A832B833C83C901B801C7
:103540000F900F900F900F90DF91CF911F910F91DF
:103550000C940E1A0F931F93CF93DF9300D000D0DB
:10356000CDB7DEB741E050E060E070E004C0440F4A
:10357000551F661F771F8A95D2F780915802909148
:103580005902A0915A02B0915B028A019B0108275F
:1035900019272A273B2709831A832B833C83C901D8
:1035A000B8010F900F900F900F90DF91CF911F9166
:1035B0000F910C940E1ACF93DF9300D000D0CDB7AB
:1035C000DEB769837A838B839C83809158029091C4
:1035D0005902A0915A02B0915B0229813A814B8134
:1035E0005C81282B392B4A2B5B2B29833A834B8315
:1035F0005C83CA01B9010F900F900F900F90DF917B
:10360000CF910C940E1ACF93DF9300D000D0CDB79A
:10361000DEB769837A838B839C8380915802909173
:103620005902A0915A02B0915B0229813A814B81E3
:103630005C81282339234A235B2329833A834B83E4
:103640005C83CA01B9010F900F900F900F90DF912A
:10365000CF910C940E1ACF93DF9300D000D0CDB74A
:10366000DEB769837A838B839C8380915802909123
:103670005902A0915A02B0915B0229813A814B8193
:103680005C81282739274A275B2729833A834B8384
:103690005C83CA01B9010F900F900F900F90DF91DA
:1036A000CF910C940E1A0895E82F2CE0929FE00D14
:1036B00011248E2F877041E001C0440F8A95EAF7EC
:1036C000E695E695E69585E0E89FF0011124E65C35
:1036D000FD4F30E020E070E05191DF011197CB0108
:1036E000022E02C0969587950A94E2F78170819523
:1036F0008527842385278C932F5F3F4F2530310505
:1037000059F70895E82F2CE0929FE00D11249E2F89
:103710009770E695E695E69585E0E89FF00111241F
:10372000E65CFD4F50E040E080E0219130E0092E62
:1037300002C0369527950A94E2F721703327042EAC
:1037400001C0220F0A94EAF7822B4F5F5F4F45308A
:10375000510559F70895BF92CF92DF92EF92FF92F1
:103760000F931F93CF93DF938C01C0905802D0909A
:103770005902E0905A02F0905B0280915C029091B5
:103780005D02A0915E02B0915F02C82AD92AEA2A9E
:10379000FB2ACFE1D0E0BC2ED701C6010C2E04C01D
:1037A000B695A795979587950A94D2F780FD0EC098
:1037B000219788F7B12C8B2DDF91CF911F910F911D
:1037C000FF90EF90DF90CF90BF900895B8018C2FBD
:1037D0000E946B04019761F3EECFCF93DF93D82F54
:1037E000C92F0E94AB1B6D2F7C2FDF91CF910C94C2
:1037F0006B041F93CF93DF93162FD72F9091010265
:10380000992339F0862F972FDF91CF911F910C9438
:10381000ED1B882391F0862F972F0E94AB1BC82F9A
:10382000682F812F9D2F0E94541B612F7D2F8C2F7D
:10383000DF91CF911F910C946B04862F972F0E94DC
:10384000821BC82FF2CF682F80911601909117012B
:103850000C943C1E682F80911601909117010C94D6
:10386000471E80911601909117010C94521E809171
:103870006002859585958595089580916002877091
:10388000089590916002977081E009F480E00895B6
:1038900080918402089590918402982B90938402E1
:1038A0000895982F909580918402892380938402B3
:1038B000089510928402089590918302982B90931A
:1038C00083020895982F9095809183028923809395
:1038D0008302089510928302089590918202982B9A
:1038E000909382020895982F909580918202892367
:1038F000809382020895109282020895809161025D
:10390000089508950C94811C90916102981721F0FC
:10391000809361020C94821C089580916102882337
:1039200029F01092610280E00C94821C0895E091CD
:103930001601F0911701809184028083E0911601B5
:10394000F0911701808190918302892B8083E0910F
:103950001601F0911701808190918202892B80835A
:1039600090916102992381F0E0911601F091170185
:103970008081892B808380911601909117010E948C
:10398000A41D81110E948D1C809116019091170138
:103990000C94F81008950C94CA1C98E0899F90012B
:1039A0001124622B609360020E94441A809160028D
:1039B0008595859585950C94CB1C1092600280E0CE
:1039C0000C94CB1C909160028095892380936002B7
:1039D000282F277071F4282F082E000C330B921714
:1039E000130639F08595859585950E94751A0C9476
:1039F000DD1C08956FEF7FEF90E080E00C94042AC7
:103A000090E080E00E94E0299C0181E02C3E3E4F46
:103A100009F080E0089582E090E00C94D22983E0E0
:103A200090E00C94D229CF9384E090E00E94D229B8
:103A3000C82F81E290E00E94D229982F8C2FCF913D
:103A40000895CF93682FC92F84E090E00E94E62963
:103A50006C2F81E290E0CF910C94E629AB01BC0180
:103A60008FE090E00C94F829AB01BC0183E190E079
:103A70000C94F82960E070E0CB010C94341D60E0F8
:103A800070E0CB010E942E1D0C943A1D6CEE7EEF6F
:103A900090E080E00E94042A60E082E090E00E94D2
:103AA000E62960E083E090E00E94E62910925C0243
:103AB00010925D0210925E0210925F0260E084E05C
:103AC00090E00E94E62960E081E290E00E94E62911
:103AD00060E085E090E00E94E62960E086E090E00A
:103AE0000E94E6296FEF87E090E00E94E62940E01F
:103AF00050E0BA0188E090E00E94F82960E08DE093
:103B000090E00E94E62940E050E0BA0188E190E0B0
:103B10000E94F82960E087E190E00E94E62940E0F9
:103B200050E0BA018CE190E00E94F82960E080E268
:103B300090E00E94E6290C943F1D0C94461D682FCE
:103B40008EE090E00C94E629FC01329680912A01E7
:103B5000882321F080918B029EE187FF96E080E030
:103B6000915008F4089521912223D1F38F5FF8CF6B
:103B70009C01662301F180912A018823F1F0809154
:103B80008B0287FF1AC0462F469546954695603FA3
:103B900090F4677081E090E002C0880F991F6A95E9
:103BA000E2F7240F311DF901228130E02823392367
:103BB00081E0232B71F480E00895F9013296285FAB
:103BC0003F4F8191861721F0E217F307D1F7F3CF2A
:103BD00081E008959C01FC0132968FEF90E04191C5
:103BE000461751F08F3F19F4411101C0892F9F5F93
:103BF0009630A9F78F3F09F40895280F311D87FDEE
:103C00003A95F901628308959C01FC013296285F80
:103C10003F4F8191861303C0DF0111971C92E21779
:103C2000F307B9F70895FC01862F8695869586954A
:103C3000603F60F4E80FF11D677021E030E001C0E3
:103C4000220F6A95EAF78281822B82830895FC0114
:103C5000862F869586958695603F68F4E80FF11D5E
:103C6000677081E090E001C0880F6A95EAF780955F
:103C7000928189238283089520912A01222329F0A9
:103C800020918B0227FD0C94131E0C94EA1D2091A9
:103C90002A01222329F020918B0227FD0C94271E54
:103CA0000C94041EFC01329680912A01882351F065
:103CB00080918B0287FF06C08EE1DF011D928A95FD
:103CC000E9F7089586E0F9CF089508950C94651EEC
:103CD0000E94661E8091C102843049F110928602D2
:103CE00088E190E020E40FB6F894A89580936000F6
:103CF0000FBE2093600080E00E94F1030E94661EC8
:103D000083B7817F846083BF83B7816083BF7894EA
:103D1000889583B78E7F83BF0FB6F894A89580915E
:103D20006000886180936000109260000FBE08956B
:103D30000895CF930E94641E0E94D5060E94981E8B
:103D4000C0E08C2F0E945E06892B31F4CF5FC43017
:103D5000C1F780E0CF91089581E0FCCF08950C94E5
:103D6000AE1E0E9406160E94EC100E94F1030C94F5
:103D7000AF1E1F921FB61F9211248F939F93AF9374
:103D8000BF9380918602811113C080918702909128
:103D90008802A0918902B0918A024196A11DB11DAD
:103DA0008093870290938802A0938902B0938A023D
:103DB000BF91AF919F918F911F901FBE1F9018953B
:103DC00082E084BD93E095BD9AEF97BD80936E002D
:103DD00008952FB7F8948091870290918802A0915E
:103DE0008902B0918A022FBF08959C014FB7F894C1
:103DF0008091870290918802A0918902B0918A02F5
:103E00004FBF821B930B089578941F921FB61F9289
:103E100011248F939F93AF93BF93809187029091CA
:103E20008802A0918902B0918A020196A11DB11D5C
:103E30008093870290938802A0938902B0938A02AC
:103E4000BF91AF919F918F911F901FBE1F901895AA
:103E500081E08093E00080E28093D8001092C90056
:103E60008FE19EE40197F1F700C0000087E090EB3E
:103E7000DC018093CB029093CC02A093CD02B0934F
:103E8000CE0288E19CE00FB6F894A895809360007C
:103E90000FBE90936000FFCF0C94FA1C0E94D506D1
:103EA0008FE39CE90197F1F700C000000E94D5065E
:103EB00080E00E945E0680FF04C00E944C1F0C94AC
:103EC000281F0895CF93DF9300D000D0CDB7DEB781
:103ED0000E94001D811102C00E949D1D0E940B1DA9
:103EE000809385020E94131D90938C0280938B0215
:103EF0000E940F1D282F30E050E040E029833A83D4
:103F00004B835C83CA01B9010F900F900F900F9003
:103F1000DF91CF910C9490198091940280FF12C090
:103F200060911D0185E0689FB0011124759567952A
:103F30007595679560387105A8F561157105A1F152
:103F4000862F089581FF09C060911D0185E0689F5B
:103F5000B001112475956795EDCF60911D0182FD2B
:103F60000AC0809193028823D1F090911C01609146
:103F70001D01891728F085E0689FB0011124DACF70
:103F8000869FB001112485E0869F9001879F300DA8
:103F90001124692F70E0C9010E943329CBCF65E05D
:103FA00070E0CECF8FE7089581E00895809194026C
:103FB00080FF0CC06091190170E07595679575954B
:103FC00067956115710549F1862F089581FF06C037
:103FD0006091190170E075956795F3CF60911901B3
:103FE00082FD0BC0909193029923A1F0609118017A
:103FF00080911901961738F0682F70E060387105CC
:1040000000F38FE70895899FC001112470E00E949A
:104010003329F4CF61E070E0D7CF81E00895803F8D
:1040200031F40E948C1F8195809398020895813FFE
:1040300019F40E948C1FF8CF823F31F40E948C1F2C
:104040008195809397020895833F19F40E948C1FF5
:10405000F8CF893F29F40E94D61F809399020895D2
:104060008A3F21F40E94D61F8195F7CF8B3F31F410
:104070000E94D61F819580939A0208958C3F19F46F
:104080000E94D61FF8CF843F31F480919602816060
:10409000809396020895853F21F480919602826074
:1040A000F7CF863F21F4809196028460F1CF873F5D
:1040B00021F4809196028860EBCF883F21F48091B3
:1040C00096028061E5CF8D3F31F48091940281604A
:1040D0008093940208958E3F21F48091940282602F
:1040E000F7CF8F3FB9F7809194028460F1CF909120
:1040F0009702803F41F48091980287FD10929802C8
:10410000992371F00895813F29F48091980218163F
:10411000ACF3F6CF823F81F497FFF2CF1092970273
:104120008091980290919902892B90919A02892B03
:1041300049F7109293020895833F19F4191674F306
:10414000DFCF893F39F4809199021816CCF610928E
:104150009902D6CF8A3F29F48091990287FFD0CF68
:10416000F6CF8B3F39F480919A0287FFC9CF109226
:104170009A02C6CF8C3F29F480919A021816BCF39C
:10418000BFCF843F31F4809196028E7F8093960258
:10419000B7CF853F21F4809196028D7FF7CF863F80
:1041A00021F4809196028B7FF1CF873F21F480919B
:1041B0009602877FEBCF883F21F4809196028F7E15
:1041C000E5CF8D3F31F4809194028E7F80939402ED
:1041D00097CF8E3F21F4809194028D7FF7CF8F3F50
:1041E00009F08ECF809194028B7FF0CF85E992E029
:1041F0000E9413110E94E91E9093920280939102F3
:1042000008950F931F93CF93DF9300D000D000D079
:10421000CDB7DEB786E0E5E9F2E09E012F5F3F4FC4
:10422000D90101900D928A95E1F7809197029091C2
:104230009802892B890181F080918F0290919002E0
:104240000E94F51E9C0180919302882341F1909178
:104250001E019217130680F18091990290919A02A3
:10426000892B91F080918D0290918E020E94F51E13
:104270009C0180919302882309F479C090911A01DE
:104280009217130608F481C026960FB6F894DEBF85
:104290000FBECDBFDF91CF911F910F910895409137
:1042A0001F019AE0499FA001112442175307A0F66D
:1042B0008F5F8093930202C08F3FD1F710929902D3
:1042C00010929A0280919702181624F40E948C1F73
:1042D000809397028091970287FF05C00E948C1FF0
:1042E00081958093970280919802181624F40E9479
:1042F0008C1F809398028091980287FF05C00E94CE
:104300008C1F819580939802309197023323A1F0FE
:1043100020919802222381F045EB3403C00111243F
:104320009923E9F09093970245EB2403900111241F
:104330003323C9F0309398020E94F62080919102B5
:10434000909192029093900280938F0286E0F80100
:10435000A5E9B2E001900D928A95E1F77DCF81E069
:1043600080939702E1CF81E080939802E5CF40915E
:104370001B019AE0499FA00111244217530708F03E
:1043800083CF8F5F8093930202C08F3FD1F710924B
:1043900097021092980280919902181624F40E94B4
:1043A000D61F809399028091990287FF05C00E94D1
:1043B000D61F81958093990280919A02181624F451
:1043C0000E94D61F80939A0280919A0287FF05C0AF
:1043D0000E94D61F819580939A02309199023323CF
:1043E000A1F020919A02222381F045EB3403C00111
:1043F00011249923E9F09093990245EB240390014D
:1044000011243323C9F030939A020E94F620809140
:1044100091029091920290938E0280938D0286E099
:10442000F801A5E9B2E001900D928A95E1F72CCF51
:1044300081E080939902E1CF81E080939A02E5CFF9
:1044400086E0E5E9F2E0DF011D928A95E9F7109236
:1044500093021092940208958091BB020895CF9325
:10446000DF9300D00F92CDB7DEB79091C1029430A8
:1044700019F589836A837B8382E08093E9008FEF5B
:104480009091E800815095FD06C095ED9A95F1F761
:1044900000008111F5CF8091E80085FF0DC050E04C
:1044A00040E063E070E0CE0101960E948C24809190
:1044B000E8008E778093E8000F900F900F90DF91C7
:1044C000CF910895CF93DF93D82FC92F0E946F24E7
:1044D000823011F0843039F46D2F7C2F84E0DF912D
:1044E000CF910C942F22DF91CF910895BC0183E0EE
:1044F0000C942F22CF93DF93D82FC92F0E946F24C3
:10450000823011F0843001F582E08093E9008FEF72
:104510009091E800815095FD06C095ED9A95F1F7D0
:1045200000008111F5CF8091E80085FF0DC050E0BB
:1045300040E066E070E08D2F9C2F0E948C248091DB
:10454000E8008E778093E800DF91CF910895CF93B4
:10455000DF93D82FC92F0E946F24823011F084304E
:10456000C9F580912A018823C1F180918B0287FFD0
:1045700034C060E282E08093E9008FEF9091E80020
:10458000815095FD06C095ED9A95F1F700008111D7
:10459000F5CF8091E80085FF1DC080912A0170E071
:1045A00050E040E0811104C050E040E068E070E07D
:1045B0008D2F9C2F0E948C248091E8008E77809311
:1045C000E80080E2ED2FFC2FABE9B2E001900D9204
:1045D0008A95E1F7DF91CF91089568E081E0CBCF34
:1045E0008091CA02811109C00E9414260E9471267E
:1045F0008091E20084608093E20008951092CA02E4
:104600000895089508950C94B11E42E061EC81E094
:104610000E94902542E261EC82E00C94902580910A
:10462000C302893089F148F4823009F49DC0833097
:1046300009F458C0813041F008958A3009F484C0EB
:104640008B3009F46AC008958091C202813A09F062
:1046500048C08091E800877F8093E8008091C6027F
:104660009091C702892B61F460E28BE992E070E0DF
:104670000E94DB248091E8008B778093E800089506
:1046800060E090E080E0F3CF8091C202813249F592
:104690008091C6029091C702029718F58091E800B8
:1046A000877F8093E8008091E80082FF16C0909198
:1046B000F3008091F200029729F48091F1008B7F42
:1046C000813021F48091F1008093BB028091E80059
:1046D0008B778093E8000C94C4258091C1028111EE
:1046E000E2CF08958091C202813AD9F78091C60243
:1046F0009091C702892BA9F78091E800877F80936A
:10470000E8008091E80080FFFCCF80912A0180932F
:10471000F1008091E8008E77DCCF8091C202813277
:1047200001F78091C6029091C702892BD1F6809142
:10473000E800877F8093E8000E94C4258091C4022E
:1047400080932A010C9406168091C202813249F6A8
:104750008091E800877F8093E8000E94C4258091C3
:10476000C5028093BC0208958091C202813A09F08B
:10477000B8CF8091E800877F8093E8008091E800BF
:1047800080FFFCCF8091BC02C2CF84B7877F84BFFB
:104790000FB6F894A89580916000886180936000BE
:1047A000109260000FBE80E890E00FB6F8948093FE
:1047B0006100909361000FBE0E945C110E9414265C
:1047C0000E9471268091E20084608093E2007894D8
:1047D0000E94F8280E94661180E291E00E94E71092
:1047E0008091C102853019F00E947011F9CF0E94AA
:1047F000681E8091BE02882399F30E94991E882327
:1048000079F30E947624ECCF0C940624FC01CB01B2
:10481000DA012F2F332723303105D1F070F4213006
:10482000310509F445C02230310569F48BE390E08D
:104830002CE335E02D933C9308952132310521F18D
:104840002232310559F190E080E030E020E0F2CFF3
:10485000CF019927E230A9F08330910550F40097F9
:1048600069F0ECE1F5E0019771F7849190E09F0128
:10487000E1CFE6E0F5E00397C1F3E5CFE8E3F5E04B
:10488000F4CFECE0F5E0F1CF892BB9F061307105A0
:10489000D1F689E090E027E635E0CCCF892B91F086
:1048A0006130710581F68CEB90E029E835E0C2CFEC
:1048B00082E190E027E735E0BDCF89E090E02EE48B
:1048C00035E0B8CF80E490E025E436E0B3CF8091C6
:1048D000C102843011F482E0089581E0089580914E
:1048E000BD02811102C00C946724089580E189BD46
:1048F00082E189BD09B400FEFDCF8091D8008F7D93
:104900008093D8008091E00082608093E0008091E5
:10491000E00081FDFCCF0895AF92BF92CF92DF926D
:10492000FF920F931F93CF93DF936C01EB018A01EA
:104930000E94E325F82E811123C00115110539F0DD
:10494000F80180819181C81BD90BC80ED91EB12CEA
:10495000A12C2097A9F08091E80085FD22C08091CC
:10496000E8008E778093E80001151105A1F0F801A9
:1049700080819181A80EB91EB182A08285E0F82EB7
:104980008F2DDF91CF911F910F91FF90DF90CF90EE
:10499000BF90AF9008950E94E3258823D1F2F82EAE
:1049A000EFCFF60181916F018093F1002197FFEF26
:1049B000AF1ABF0ACECFFC01CB012091C8023091C3
:1049C000C9022617370790F0009729F42091E800D4
:1049D0002E772093E80040E0009751F4411108C081
:1049E0008091E80082FF31C080E00895C901F3CFD3
:1049F0002091C1022223A9F12530A9F12091E800DC
:104A000023FD2DC02091E80022FDEACF2091E8008F
:104A100020FFE2CF3091F3002091F200009719F0CF
:104A20002830310558F041E02830310509F040E0E8
:104A30002091E8002E772093E800CECF419140935B
:104A4000F10001972F5F3F4FE9CF8091C10288238A
:104A500041F0853041F08091E80083FFC1CF81E0D3
:104A6000089582E0089583E00895FC01CB01209130
:104A7000C8023091C9022617370790F0009729F431
:104A80002091E8002E772093E80040E0009751F451
:104A9000411108C08091E80082FF32C080E0089593
:104AA000C901F3CF2091C1022223B1F12530B1F128
:104AB0002091E80023FD2EC02091E80022FDEACFDE
:104AC0002091E80020FFE2CF3091F3002091F20026
:104AD000009719F02830310558F041E028303105B1
:104AE00009F040E02091E8002E772093E800CECF37
:104AF00044914093F100319601972F5F3F4FE8CFEB
:104B00008091C102882341F0853041F08091E80016
:104B100083FFC0CF81E0089582E0089583E0089587
:104B2000982F973028F08F708093E90081E00895E6
:104B30009093E900242F762F50E0981731F0709170
:104B4000EC002091ED005091F00021FD02C09F5F2C
:104B5000E8CF3091EB003E7F3093EB003091ED00D9
:104B60003D7F3093ED003091EB0031603093EB00EE
:104B70007093EC002093ED005093F0002091EE0034
:104B800027FDE5CF80E008958091C20287FF13C022
:104B90008091E80082FF06C08091E8008B778093C7
:104BA000E80004C08091C1028111F2CF0895809184
:104BB000C1028823D9F38091E80080FFF8CF80916B
:104BC000E8008E77ECCF2091E4003091E50095E687
:104BD000A9012091EC00822F817020FF06C08091F6
:104BE000E80080FF06C080E008952091E80022FDE3
:104BF0001AC08091C102882389F0853089F08091A4
:104C0000EB0085FD0FC02091E4003091E5004217D4
:104C10005307F9F29150E1F684E0089582E0089597
:104C200083E0089581E008950E9482260E948A26EA
:104C3000E0EEF0E0808181608083E8EDF0E080814B
:104C40008F77808319BCA7EDB0E08C918E7F8C9319
:104C500080818F7E80831092CA0208950F931F93E4
:104C6000CF93DF930E9482260E948A26C8EDD0E06F
:104C700088818F77888388818068888388818F7D09
:104C8000888319BC1092C1021092C0021092BE0219
:104C90001092BF0200EE10E0F80180818B7F8083CC
:104CA00088818160888342E060E080E00E949025F6
:104CB000E1EEF0E080818E7F8083E2EEF0E08081A3
:104CC00081608083808188608083F80180818E7F0D
:104CD0008083888180618883DF91CF911F910F91BC
:104CE0000895E8EDF0E080818F7E8083E7EDF0E0CD
:104CF00080818160808384E082BF81E08093CA02EA
:104D00000C942E26E8EDF0E080818E7F8083109257
:104D1000E20008951092DA001092E10008951F92C7
:104D20000F920FB60F9211242F933F934F935F93DF
:104D30006F937F938F939F93AF93BF93EF93FF9363
:104D40008091E10082FF0BC08091E20082FF07C0EA
:104D50008091E1008B7F8093E1000E94F728809191
:104D6000DA0080FF19C08091D80080FF15C08091C3
:104D7000DA008E7F8093DA008091D90080FF94C0A2
:104D800080E189BD82E189BD09B400FEFDCF81E0EB
:104D90008093C1020E94F0228091E10080FF19C03F
:104DA0008091E20080FF15C08091E2008E7F8093A9
:104DB000E2008091E20080618093E2008091D8005F
:104DC00080628093D80019BC85E08093C1020E9464
:104DD00002238091E10084FF29C08091E20084FFDA
:104DE00025C080E189BD82E189BD09B400FEFDCF07
:104DF0008091D8008F7D8093D8008091E1008F7ED4
:104E00008093E1008091E2008F7E8093E2008091A8
:104E1000E20081608093E2008091C002882309F45F
:104E200049C084E08093C1020E9403238091E10085
:104E300083FF29C08091E20083FF25C08091E100BB
:104E4000877F8093E10082E08093C1021092C002CC
:104E50008091E1008E7F8093E1008091E2008E7F5F
:104E60008093E2008091E20080618093E20042E062
:104E700060E080E00E9490258091F000886080933F
:104E8000F0000E940123FF91EF91BF91AF919F919C
:104E90008F917F916F915F914F913F912F910F90E3
:104EA0000FBE0F901F90189519BC1092C1020E945E
:104EB000FE2272CF8091E30087FD02C081E0B2CF75
:104EC00083E0B0CF1F920F920FB60F9211242F9351
:104ED0003F934F935F936F937F938F939F93AF9382
:104EE000BF93CF93DF93EF93FF93D091E900DF70EF
:104EF0008091EC00C82FC17080FDC0E81092E900DD
:104F00008091F000877F8093F00078940E94A6271C
:104F10001092E9008091F00088608093F000CD2B22
:104F2000CF70C093E900FF91EF91DF91CF91BF91D6
:104F3000AF919F918F917F916F915F914F913F9131
:104F40002F910F900FBE0F901F9018951F93CF9326
:104F5000DF93CDB7DEB7AA970FB6F894DEBF0FBECA
:104F6000CDBF82EC92E0FC0101962091F1002083FC
:104F700022E08A3C9207B9F70E940F238091E80053
:104F800083FF1DC18091C2029091C3029A3008F044
:104F900016C1E92FF0E0E154F54D0C944729803813
:104FA00099F0823809F00BC18091C6028F7087306A
:104FB00008F005C18093E9008091EB0085FB88270C
:104FC00080F91092E90006C08091BF029091BE0264
:104FD000911182609091E800977F9093E800809310
:104FE000F1001092F1008091E8008E77E4C08823F0
:104FF00009F4D2C0823009F0E2C08091C40281116C
:10500000D5C08091C6028F702FEF280F263008F090
:10501000D6C08093E9002091EB0020FFC7C09330F9
:1050200031F48091EB0080628093EB00BFC09091DF
:10503000EB0090619093EB0021E030E001C0220F83
:105040008A95EAF72093EA001092EA008091EB003B
:105050008860EACF8111B3C01091C4021F7780919C
:10506000E3008078812B8093E3008091E800877FC4
:105070008093E8000E94C4258091E80080FFFCCF67
:105080008091E30080688093E30082E0111183E067
:105090008093C10294C08058823008F090C0809103
:1050A000C4029091C5028C3D23E0920799F583E0FC
:1050B0008A838AE289834FB7F894DE01139620E051
:1050C0003EE051E2E32FF0E050935700849120FF3F
:1050D00003C082958F703F5F8F708A30C8F0895C03
:1050E00090E08D939D932F5F243161F74FBF8091A6
:1050F000E800877F8093E8006AE270E0CE010196C5
:105100000E94DB248091E8008B778093E80057C0F1
:10511000805DE6CF6091C6027091C702AE014F5F1D
:105120005F4F0E940424BC01892B09F448C0809180
:10513000E800877F8093E80089819A810E94352565
:10514000E1CF8038E1F58091E800877F8093E80027
:105150008091C0028093F10046CF811130C09091C0
:10516000C402923060F58091E800877F8093E80068
:105170009093C0020E94C4258091C002882311F040
:1051800084E005C08091E30087FDFACF81E0809341
:10519000C1020E94052313C08091C402813079F4BA
:1051A00081E0933009F080E08093BE021092E90024
:1051B0008091E800877F8093E8000E94C425809159
:1051C000E80083FF0AC08091E800877F8093E800B1
:1051D0008091EB0080628093EB00AA960FB6F89462
:1051E000DEBF0FBECDBFDF91CF911F91089508950F
:1051F000CF938091C1028823A1F0C091E900CF70C4
:105200009091EC00892F817090FD80E8C82B10925E
:10521000E9008091E80083FD0E94A627CF70C0932B
:10522000E900CF910895991B79E004C0991F961762
:1052300008F0961B881F7A95C9F780950895AA1BD8
:10524000BB1B51E107C0AA1FBB1FA617B70710F071
:10525000A61BB70B881F991F5A95A9F780959095A3
:10526000BC01CD01089597FB072E16F4009407D0DA
:1052700077FD09D00E941F2907FC05D03EF49095C8
:1052800081959F4F0895709561957F4F0895EE0F1A
:10529000FF1F0590F491E02D0994CF92DF92EF92D9
:1052A000FF92CF93DF93CDB7DEB72A970FB6F8946E
:1052B000DEBF0FBECDBF89879A87A985BA852D919C
:1052C0003D914D915C9129833A834B835C83232BE1
:1052D000242B252B41F424E239ED4BE557E02983BB
:1052E0003A834B835C8369817A818B819C812DE138
:1052F00033EF41E050E00E941A2A69017A01A7EADF
:10530000B1E49B01AC010E94392A69837A838B83C3
:105310009C83ACEEB4EFA70196010E94472A9B0143
:10532000AC0189819A81AB81BC81820F931FA41F3C
:10533000B51FB7FF03C00197A109B048E985FA85F9
:1053400080839183A283B3839F772A960FB6F894C4
:10535000DEBF0FBECDBFDF91CF91FF90EF90DF900A
:10536000CF9008950E944D29089580E091E00E9419
:105370004D290895B0E0A0E08093000190930101D1
:10538000A0930201B09303010895FC0141505040E5
:1053900030F001900616D1F73197CF010895882794
:1053A00099270895F999FECF92BD81BDF89A992762
:1053B00080B50895A6E1B0E044E050E00C940C2ADA
:1053C000A8E1B0E042E050E00C940C2A262FF999B5
:1053D000FECF92BD81BDF89A019700B4021639F054
:1053E0001FBA20BD0FB6F894FA9AF99A0FBE089525
:1053F0000396272F0E94E7290E94E629252F0E9465
:10540000E729242F0C94E7290196272F0E94E729EA
:105410000C94E629DC01CB01FC01F999FECF06C012
:10542000F2BDE1BDF89A319600B40D924150504062
:10543000B8F70895052E97FB1EF400940E94312AB8
:1054400057FD07D00E944C2A07FC03D04EF40C9461
:10545000312A50954095309521953F4F4F4F5F4FE2
:10546000089590958095709561957F4F8F4F9F4FD0
:1054700008950E946E2AA59F900DB49F900DA49F41
:10548000800D911D11240895B7FF0C94392A0E94B4
:10549000392A821B930B0895A1E21A2EAA1BBB1B6B
:1054A000FD010DC0AA1FBB1FEE1FFF1FA217B307F0
:1054B000E407F50720F0A21BB30BE40BF50B661F06
:1054C000771F881F991F1A9469F7609570958095CA
:1054D00090959B01AC01BD01CF010895A29FB00141
:1054E000B39FC001A39F700D811D1124911DB29F18
:1054F000700D811D1124911D0895F894FFCFB10EF8
:10550000B90EC00EC50ECA0ECF0ED40ED90EDE0EC9
:10551000E30EE80EED0EF10EF60EF90EFC0EFF0E88
:10552000020F040F070F321038103C104A104E10B3
:10553000521056105C10641068106C1070107C10C3
:105540008010841088108E10AC10961040104610F9
:105550007410781060109210A210B510B9108D134D
:105560008D13EF13EF1344146014BD13BD136B14AC
:105570002015311531159115BD13BD139A15CF277F
:10558000F727DF28F727DF282A284B28DF28A1283C
:02559000AD2844
:10559200010000000102000100010101191A1B1C97
:1055A2001D1E1F20212262022808641E140A321EB8
:1055B2002C22A7227A227622622201E200E900EA64
:1055C20000B500B600B700CD008301CC008A01927D
:1055D2000194012102230224022502260227022A23
:1055E20002B300B4006F007000F0F7F6F4F1C69653
:1055F2009234973695909193F500010202020206C9
:1056020006060909090909090F0F0F0F0F0F1515D2
:1056120015181919191919191919191923242525D0
:1056220025252525E200E900EA00B500B600B7000D
:10563200CD008301CC008A01920194012102230250
:1056420024022502260227022A02B300B4006F00B8
:025652007000E6
:00000001FF
