:100000000C9497010C94DE010C94DE010C94DE013B
:100010000C94DE010C94DE010C94DE010C94DE01E4
:100020000C94DE010C94DE010C948B160C947A1760
:100030000C94F0260C94DE010C94DE010C94DE018D
:100040000C94DE010C948C2B0C94DE010C94DE01DC
:100050000C94DE010C94A8260C94DE010C94DE01B5
:100060000C94DE010C94540D0C94DE010C94DE0112
:100070000C94DE010C94DE010C94DE010C94DE0184
:100080000C94DE010C94DE010C94DE010C94DE0174
:100090000C94DE010C94DE010C94DE010C94DE0164
:1000A0000C94DE010C94DE010C94DE01A302B80274
:1000B000E602E602E602E602E602E602C602CE0238
:1000C000D102D402D702DA02DD022A032C032E0366
:1000D00032033403360338033A033F0345034A032C
:1000E00053095D095D09660966098509850999094C
:1000F0009909DC0CDC0CDC0CDC0CDF0CDF0CDF0CFD
:10010000E20CE20CE20CE20CE20CE20CE50CE50C79
:10011000E50CE50CE50CE50CE80CE80CE80CE21746
:100120000518C0180518C0184A186D18C0188F187F
:10013000A218811C811CAE1CAE1C091D691DEC1F80
:10014000EC1F8B1DEC1F881E881E531F691FEC1FA0
:10015000D81F014E024E00014D024D00014B024BD3
:1001600000014A024A0029141A0815171C180C121B
:100170002A7C041607090A0B0D0E0F28791D1B0691
:100180001905111036377D787B7A7E80802C1350CC
:10019000514FFFDC8000000000000101010202035A
:1001A0000405050607090A0B0C0E0F11121415178A
:1001B000191B1D1F212325282A2C2F313436393BAA
:1001C0003E414346494C4F5255585A5D6164676AF7
:1001D0006D707376797C7F8386898C8F9295989BDE
:1001E0009EA2A5A7AAADB0B3B6B9BCBEC1C4C6C9CC
:1001F000CBCED0D3D5D7DADCDEE0E2E4E6E8EAEB3A
:10020000EDEEF0F1F3F4F5F6F8F9FAFAFBFCFDFD8A
:10021000FEFEFEFFFFFF0162026201620262000158
:100220002802280001E30115021502E30000000086
:1002300000000000000000010101020202030304AB
:100240000405050606070808090A0B0B0C0D0E0F1E
:1002500010111213151617191A1B1D1E2022232503
:1002600027292B2D2F313335383A3D3F4244474A19
:100270004D505356595C5F6266696C7074777B7E33
:1002800082868A8E9195999DA1A5A9ADB0B4B8BC7E
:10029000C0C3C7CBCED2D5D8DBDFE2E4E7EAECEFD0
:1002A000F1F3F5F7F8FAFBFCFDFEFFFFFFFFFFFFA0
:1002B000FFFEFDFCFBFAF8F7F5F3F1EFECEAE7E4FB
:1002C000E2DFDBD8D5D2CECBC7C3C0BCB8B4B0ADAB
:1002D000A9A5A19D9995918E8A86827E7B7774705F
:1002E0006C6966625F5C595653504D4A4744423FC1
:1002F0003D3A383533312F2D2B2927252322201E37
:100300001D1B1A19171615131211100F0E0D0C0BB9
:100310000B0A090808070606050504040303020280
:100320000201010100000000000000000000112493
:100330001FBECFEFDAE0DEBFCDBF04B603FE27C09D
:100340008091020890910308A0910408B0910508DB
:100350008730904BA740B04BD1F410920208109216
:100360000308109204081092050814BE84B7877F12
:1003700084BF0FB6F894A89580916000886180933F
:100380006000109260000FBEE0E0FEE3099515E00A
:10039000A0E0B1E0E8E9F2E602C005900D92A831D4
:1003A000B107D9F728E0A8E1B5E001C01D92A2305D
:1003B000B207E1F70E94E3110C944A310C9400005B
:1003C000CF93C82FCB010E945327282F30E080E124
:1003D000989FA0011124422B532B4038510519F44A
:1003E00080E090E021C09770E92FF0E088E0C89F9E
:1003F000E00DF11D112484E0EE0FFF1F8A95E1F757
:10040000E20FF31FEE0FFF1FE050FC4825913491DF
:10041000C9018B7F833E910531F480911D058823AE
:1004200011F020E030E0C901CF910895EF92FF92E2
:100430000F931F93CF937C01062FC42F613029F0B7
:10044000A8F0643009F45CC06EC0FC01828188238E
:1004500009F453C00E94CC2581FF06C00E94CC2520
:1004600080FD02C085E342C089E240C0423009F10C
:1004700048F4442389F0413061F584E380931A0500
:1004800088E225C04430F9F0C8F0453011F581E329
:1004900080931A058AE21BC00E94CC2582FF02C00D
:1004A0008DE301C089E280931B0585E380931A05E3
:1004B00010C088E380931A0587E309C088E380931E
:1004C0001A0582E504C083E380931A058FE08093C8
:1004D0001B05F7018281882381F00E94CC2585FFCE
:1004E00003C080911A0502C080911B0580931C05F2
:1004F00080911C050E94231B14C080911C050FC015
:10050000FC018281882351F00E94CC2581FD0BC023
:100510000E94CC2585FD07C08CE2ECCF8CE20E94C6
:10052000951B0E940926F7018281882309F44EC099
:1005300010E0F8013297EF30F10508F047C0EA5AB1
:10054000FF4F0C94052E0E94CC2580FF04C085E04F
:1005500090E00E9487118FEF0E94C11B8FEF0E94D5
:10056000C81BCF911F910F91FF90EF900C94E11B4E
:1005700090911D0581E0892780931D0590E0CF9122
:100580001F910F91FF90EF900C9460068C2FCF91EC
:100590001F910F91FF90EF900C94200988E190E05B
:1005A0000EC083E190E00BC082E190E008C08CE0D7
:1005B00090E005C085E190E002C080EC90E0CF9132
:1005C0001F910F91FF90EF900C948711CF911F9185
:1005D0000F91FF90EF900895662319F06130C1F0FC
:1005E00027C0FC018281882339F00E943A2690932B
:1005F0001905809318051CC0809118059091190564
:100600000E945226893C9105B4F48CE591E008954E
:10061000FC0182818111E9CF809118059091190523
:100620000E945226893C91054CF482E591E00895A0
:1006300080E090E0089581E691E0089587E591E0FB
:10064000089590E08B30910560F5FC01EB59FF4F68
:100650000C94052E89B11AC089B112C083B182955C
:1006600081701CC083B117C083B110C086B10EC0A9
:1006700086B106C08CB182FB882780F90FC08FB18C
:100680008095881F8827881F08958FB186FB88274B
:1006900080F904C08FB185FB882780F991E0892714
:1006A000089580E00895E82FF0E0EE0FFF1FEF5A65
:1006B000FA4F808191810895089580B38C7E80BB2C
:1006C0006E9808950F931F93CF93DF9385B780683B
:1006D00085BF85B7806885BF0E94CD0880919D0742
:1006E000816080939D0787E787BD0E9431268FEC4C
:1006F00097E00197F1F700C000000E943A2690931E
:100700002105809320050E945D0380B38F7180BB1B
:1007100081B3806E81BB729A6A988AB18F738AB9ED
:100720008BB1806C8BB987B18F7387B988B1806CBE
:1007300088B984B18F7884B985B1806785B9C1E5FE
:10074000D5E002E215E019921992109250050E942C
:100750003A2690934F0580934E0580E090E0F80193
:10076000E80FF91F108201968B309105C1F7055FE4
:100770001F4F95E0C935D90731F7DF91CF911F9110
:100780000F910895CF92DF92EF92FF920F931F93F4
:10079000CF93DF938091500581110AC080914E055F
:1007A00090914F050E94522690931F0580931E053D
:1007B00080911E0590911F05892B09F48EC08091B0
:1007C0005005811106C00E943A2690934F058093F0
:1007D0004E0500E010E02BE0C22EEE24E394F12C55
:1007E000D0905005CD2DD0E0802F0E942103209184
:1007F0001E05CC9EF001CD9EF00D1124E00FF11FDF
:10080000EE5DFA4F9081990F982B2150E1F7CC9E25
:10081000F001CD9EF00D1124E00FF11FEE5DFA4FB7
:1008200090839701002E02C0220F331F0A94E2F733
:100830009F3099F040F4913081F0E8F0933069F006
:10084000973051F50AC09F3341F018F49F3121F5DC
:1008500004C09F3711F09F3FF9F4CC0FDD1FCF5A32
:10086000DA4F88819981A90148235923452BA1F4A6
:10087000282B392B0FC0CC0FDD1FCF5ADA4F8881C0
:100880009981A90148235923452B31F020953095B2
:1008900028233923398328830F5F1F4F0B3011051D
:1008A00009F09ECF0E945D0381E08D0D843018F425
:1008B0008093500502C01092500580915005813000
:1008C00049F030F0823041F0833039F46E9A05C03F
:1008D000849A03C0819A01C0809A81E0DF91CF9110
:1008E0001F910F91FF90EF90DF90CF90089580B30C
:1008F000836180BB6E9A08950F931F93CF93DF930C
:1009000080910E018A30A1F5819800E010E0C0E0EE
:10091000D0E0802F0E94210390E0002E02C0880FBB
:10092000991F0A94E2F7C82BD92B0F5F1F4F0B308A
:10093000110579F72097D1F40E945D03819A00E0B8
:1009400010E0802F0E94210390E0002E02C0880F4B
:10095000991F0A94E2F7C82BD92B0F5F1F4F0B305A
:10096000110579F781E0C039D10569F080E00BC04D
:10097000C0E08C2F0E942103811104C0CF5FCB30D7
:10098000C1F7F4CF81E0DF91CF911F910F910895CE
:10099000279A2F98AAE5B5E080E0E82FE695F0E0E9
:1009A000EA58FF4FFE2FEE27282F217030E0E20F8C
:1009B000F31F459154914D938F5F883071F70895DF
:1009C000CF93C82F8091B40780FD28C0CC2341F17C
:1009D000C43038F55C9880E8C23029F0C33031F07B
:1009E0008093D80705C08093D70702C08093D907AA
:1009F000ECEBF7E08091D7079091D807A091D90749
:100A000081939193A19387E0E43DF80799F768E01B
:100A100070E08CEB97E00E946F0703C0C11101C02A
:100A20002F9A81E090E001C0880FCA95EAF7909173
:100A30005905892B80935905CF910895CF93C82FDD
:100A40008091B40780FD26C0CC2331F1C43028F555
:100A5000C23029F0C33031F01092D80705C010928F
:100A6000D70702C01092D907ECEBF7E08091D707C7
:100A70009091D807A091D90781939193A19387E092
:100A8000E43DF80799F768E070E08CEB97E00E948E
:100A90006F0703C0C11101C02F9881E090E001C031
:100AA000880FCA95EAF7809590915905892380931C
:100AB00059059091B40790FD03C0811101C05C9A63
:100AC000CF910895CF93DF93C0E0D0E08091590596
:100AD00090E00C2E02C0959587950A94E2F780FF6E
:100AE00004C08C2F0E94E00403C08C2F0E941E05BE
:100AF0002196C830D10551F7DF91CF910895CF925B
:100B0000DF92EF92FF920F931F93CF93DF931F9289
:100B1000CDB7DEB70AE515E0C12CD12CEE24E39465
:100B2000F12CF80191918F0198130FC09091590504
:100B300097010C2C01C0220F0A94EAF72927209371
:100B4000590589830E9462058981FFEFCF1ADF0A68
:100B500044E0C416D10429F70F90DF91CF911F9183
:100B60000F91FF90EF90DF90CF900895EF92FF925A
:100B70000F931F93CF939AE5E92E95E0F92EC0E0ED
:100B8000082F10E0F70191917F0180EF890F8330EA
:100B900078F4980102C0359527958A95E2F720FFF1
:100BA00004C08C2F0E94E00403C08C2F0E941E05FD
:100BB000CF5FC83039F7CF911F910F91FF90EF9021
:100BC00008958F929F92AF92BF92EF92FF920F93F0
:100BD0001F93CF934B015C010AE515E0C0E0EE24C2
:100BE000E394F12CF80181918F019FEF980F9730DA
:100BF000D0F4970102C0220F331F8A95E2F7C90192
:100C0000092E000CAA0BBB0B88219921AA21BB211C
:100C1000892B8A2B8B2B21F08C2F0E94E00403C0A0
:100C20008C2F0E941E05CF5FC830E1F6CF911F9137
:100C30000F91FF90EF90BF90AF909F908F9008958D
:100C40008F929F92AF92BF92EF92FF920F931F935A
:100C5000CF934B015C010AE515E0C0E0EE24E3947C
:100C6000F12CF80181918F0197EF980F9730D8F40C
:100C70008850970102C0220F331F8A95E2F7C901FD
:100C8000092E000CAA0BBB0B88219921AA21BB219C
:100C9000892B8A2B8B2B21F08C2F0E94E00403C020
:100CA0008C2F0E941E05CF5FC830D9F6CF911F91BF
:100CB0000F91FF90EF90BF90AF909F908F9008950D
:100CC000EF92FF920F931F93CF939AE5E92E95E051
:100CD000F92EC0E0082F10E0F70191917F018BEE13
:100CE000890F883078F4980102C0359527958A9548
:100CF000E2F720FF04C08C2F0E94E00403C08C2F79
:100D00000E941E05CF5FC83039F7CF911F910F9118
:100D1000FF90EF900895F894509A84B5836284BD53
:100D200085B58B6085BD789487E787BD0895509819
:100D300018BC0895CF93C82F0E94832BC73090F41E
:100D4000C430D0F4C13020F11092B3071092650581
:100D50000E948B06EC2FF0E0EE56FE4FE491E695F4
:100D6000E8BD19C0C930A0F40E948B061092B307E9
:100D700081E0809365050FC081E08093B3071092F6
:100D800065050E948B0687E08C1BCF910C94892B04
:100D9000CF910C949706CF910895869588BD0895BC
:100DA000CF93DF9300D000D01F92CDB7DEB766237C
:100DB00049F18091010880FF14C08E7F8E3039F494
:100DC000809164058A508A3050F48AE008C08031EE
:100DD00041F480916405865F873708F086E7809349
:100DE00064058091B40780FF0DC08E738A3211F0C4
:100DF000823341F4809163058F5F8C3108F08BE181
:100E0000809363050F900F900F900F900F90DF91DC
:100E1000CF91089580916505882329F1809162051D
:100E20008F5F863018F480936205089510926205F2
:100E3000E0916405F0E0E35DFD4FE491E695E8BDE7
:100E4000809101088E7F8E3039F4809164058F5F28
:100E5000813838F080E805C0803129F4809164053C
:100E600081508093640508952BB1342F309523234E
:100E70003BB1432B3FB7F894FC01680F791FE6178D
:100E8000F707E1F0819198E04BB987FF2BB9880F04
:100E9000000000C02BB9000000C000C000C000C0AE
:100EA00000C000C000C000C000C000C000C000C042
:100EB00000C000C000C09A9539F7E1CF3FBF089548
:100EC0002AB1242B2AB99B01220F331F620F731FF3
:100ED0000E94340785E88A95F1F70000089542E002
:100EE0000C9460070F931F93CF93C82FE62F862F84
:100EF00090E08C0F911D840F911D83329240D4F0AD
:100F0000A5E0CA9FC001112407E010E0B8010E94CB
:100F1000F12DC62FB5E0EB9FC0011124B8010E944E
:100F2000F12DE62FF5E04F9FC0011124B8010E947A
:100F3000F12D462FD9011196CC931197EC9312966F
:100F40004C93CF911F910F9108950F931F93CF93BF
:100F5000DF9300D000D01F92CDB7DEB770E0869F40
:100F6000F001879FF00D1124EF2FFF27042F10E0D1
:100F7000E09FD001E19FB00DF09FB00D1124E0E0A3
:100F8000F1E0E61BF70BE09FB001E19F700DF09FD1
:100F9000700D11247C837983872F8B0F8D838A8337
:100FA0004B1B4B83892F90E063E070E00E94DD2DA6
:100FB000DE01A80FB91FFD0111964C91628183815A
:100FC0000F900F900F900F900F90DF91CF911F9186
:100FD0000F910C9472078AE090E00C94D330AB012F
:100FE000BC018AE090E00C94F130E4EBF7E081E1A1
:100FF000808380EA8093B5078FEF8283838360913B
:10100000B4077091B5078091B6079091B7070C941B
:10101000EF0788E1ECEBF7E0DF011D928A95E9F735
:1010200008958091B40780FF0E94090868E070E08D
:101030008CEB97E00C946F072091B40720FF15C04C
:1010400024ED37E00E94A507ECEBF7E08091D40790
:101050009091D507A091D60781939193A19387E0B2
:10106000E43DF80799F70C94110808950F931F9326
:10107000CF93DF93D82FC92F062F142F9091B40749
:1010800090FF4DC0892F8E73823029F48D2F9C2FB5
:101090000E941C081EC0892F86958F712EE1280F93
:1010A0002F71243018F41091B70713C0865E8F712A
:1010B000893078F4D92FD295D695D695D370C09132
:1010C000B5078C2F880F880FD82BC295C695C6956B
:1010D000C3709D2F9295990F990F907C8091B407C2
:1010E0008F73892B8093B407C295CC0FCC0FC07C33
:1010F000D695D695CD2BC093B5070093B607109320
:10110000B7076091B4077091B5078091B6079091C9
:10111000B707DF91CF911F910F910C94EF07DF91EB
:10112000CF911F910F9108959091B40790FF34C013
:10113000917C811102C09E6207C0883110F09260DC
:1011400003C08F71880F982B9093B4076091B407F8
:101150007091B5078091B6079091B7070E94EF078D
:101160008091B40786958F7109F05C988091B407DF
:1011700082958695869583709091B507292F220FC9
:10118000220F4091B7076091B607822B92959695F2
:10119000969593700C94360808950E94EB2B81115C
:1011A00004C00E94CC2B0E94F5070E94EB076093BD
:1011B000B4077093B5078093B6079093B7076E7323
:1011C00011F06E3361F40E94F5070E94EB07609303
:1011D000B4077093B5078093B6079093B707549AF6
:1011E0008091B40780FF04C086958F710C94940899
:1011F0000E9411085C9A08958091B407982F9095E9
:1012000090FB80F98093B4076091B4077091B507A3
:101210008091B6079091B7070E94EF078091B407BD
:1012200080FF04C086958F710C9494080E94090871
:101230000E9411088091F807843009F05C9A0895A3
:10124000CF92DF92EF92FF920F931F93CF93DF9392
:10125000C82ED091B407D295D695D695D370D0909C
:10126000B5078D2D880F880FD82BD294D694D6949D
:1012700093E0D922E090B6074091B707042FC0FE53
:1012800002C0CFEF01C0C1E00E94CC2581FDC19515
:101290004C2D50E04930510508F05EC0FA01E0598C
:1012A000FF4F0C94052EDF91CF911F910F91FF906E
:1012B000EF90DF90CF900C94FC089091B407969536
:1012C000892F8F718C0F0E94940846C02091B4071B
:1012D00022952695269523703091B507432F440F0C
:1012E000440F842F822B932F929596959695937009
:1012F0009D5F24E1C202800D911D112460E073E026
:101300000E94F12DD82FD92E2AC08091B60791E1E5
:10131000C90270011124E80EF11C2FEFE216F1044E
:1013200009F01CF4F7FC29C01AC0EE24EA94F12C51
:1013300016C08091B70791E1C902A00111248A016A
:10134000080F111D0F3F110509F01CF417FD18C0FF
:1013500006C00FEF10E003C022E02C15A0F4402FD0
:101360006E2D8D2F9D2DDF91CF911F910F91FF90AD
:10137000EF90DF90CF900C943608E12CF12CEFCF5A
:1013800000E010E0ECCFDF91CF911F910F91FF9023
:10139000EF90DF90CF900895CF93DF93E82F262F23
:1013A000862F90E08E0F911D840F911D8332924005
:1013B000D4F035E0E39FC0011124C7E0D0E0BE01C6
:1013C0000E94F12DE62F35E0239FC0011124BE01BC
:1013D0000E94F12D262F35E0439FC0011124BE014C
:1013E0000E94F12D462F80E090E0DC01A454B84F1C
:1013F0001196EC9311972C9312964C930396883187
:10140000910599F7DF91CF910C941108BF92CF927B
:10141000DF92EF92FF920F931F93CF93DF93CDB79D
:10142000DEB729970FB6F894DEBF0FBECDBFE22F0F
:101430002983F32F3A834B835C836D837E838F8371
:1014400098879F010B811C81203309F0B2C0313095
:1014500009F042C0D8018C918A3010F40E94200912
:10146000F80180818932B1F08A3229F1883209F09D
:10147000F6C029960FB6F894DEBF0FBECDBFDF9140
:10148000CF911F910F91FF90EF90DF90CF90BF9081
:101490000C94522C29960FB6F894DEBF0FBECDBF28
:1014A000DF91CF911F910F91FF90EF90DF90CF9040
:1014B000BF900C942F2C29960FB6F894DEBF0FBE68
:1014C000CDBFDF91CF911F910F91FF90EF90DF90F3
:1014D000CF90BF900C94142C323099F4D8018C9199
:1014E00029960FB6F894DEBF0FBECDBFDF91CF9126
:1014F0001F910F91FF90EF90DF90CF90BF900C94D1
:1015000094083330A9F4F8014281618180812996E1
:101510000FB6F894DEBF0FBECDBFDF91CF911F9104
:101520000F91FF90EF90DF90CF90BF900C94CC097B
:10153000343009F094C0D8018C91883048F5119668
:101540002C91119790E0FC01EE0FFF1F8E0F9F1F53
:10155000FC01E454F84F218312962C9112978C9140
:1015600090E0FC01EE0FFF1F8E0F9F1FFC01E45463
:10157000F84F208313962C9113978C9190E0FC01E7
:10158000EE0FFF1F8E0F9F1FFC01E454F84F2283C4
:1015900029960FB6F894DEBF0FBECDBFDF91CF9175
:1015A0001F910F91FF90EF90DF90CF90BF900C9420
:1015B0001108213309F053C0332309F450C065E208
:1015C00071E083E795E039870E94232EB02E7801E1
:1015D00003E715E084E3C82E81E0D82E39858E2DEF
:1015E0008B198317F8F4F80101900020E9F731977F
:1015F000E357F540E0937205D7018D917D011F926D
:101600008F93DF92CF92FF27ED58FA4FFF93EF931E
:1016100039870E942A2E0F900F900F900F900F90F5
:101620000F90DCCF67ED72E083E795E00E94182E03
:1016300083E795E00E94DC0D84E690E029960FB6E2
:10164000F894DEBF0FBECDBFDF91CF911F910F91F8
:10165000FF90EF90DF90CF90BF900C94A10D299652
:101660000FB6F894DEBF0FBECDBFDF91CF911F91B3
:101670000F91FF90EF90DF90CF90BF900895CF93A0
:10168000C82FE0917105F0E0EA56FE4F4491809139
:10169000B40782958695869583709091B507292F1A
:1016A000220F220F6091B607822B92959695969500
:1016B00093700E941C083091030120917105C39F13
:1016C000200D1124209371052C1738F08C2F90E0F9
:1016D000820F911D8F3791051CF0319530930301D6
:1016E000CF910895CF93C82FE4EBF7E04381628157
:1016F00080916F05909170050E941C0820916F05E4
:1017000030917005C90143E0C49F800D911D1124E3
:1017100060E073E00E94DD2D9093700580936F056B
:10172000CF910895AF92BF92CF92DF92EF92FF9246
:101730000F931F93CF93DF93082F182F16955CEB11
:10174000C52E57E0D52EE12CF12CA12C63E0B62E4E
:1017500020916D0530916E05C701820F931FC0E087
:10176000D3E0B5010E94DD2D96014091B70760914D
:10177000B6070E94A50780E3E80EF11C83E0C80EBF
:10178000D11C80E8E81681E0F80611F70E941108E4
:1017900020916D0530916E05412F50E000FF09C08A
:1017A000CA0144E0880F991F4A95E1F7820F931F01
:1017B00009C0C9019D5F24E0440F551F2A95E1F738
:1017C000841B950BBE010E94DD2D90936E058093C6
:1017D0006D05DF91CF911F910F91FF90EF90DF90FA
:1017E000CF90BF90AF900895CF92DF92EF92FF928B
:1017F0000F931F93CF93DF9390916C059F5F282FDA
:101800002695291758F090936C05DF91CF911F9181
:101810000F91FF90EF90DF90CF900895C82F109216
:101820006C050E940908C0FF02C01FEF01C011E053
:1018300054E0D52E00E068E0E62EF12CC0E0D3E0C5
:10184000C09002011003C00111248C0D911DC7FC32
:101850009A950896B7010E94F12D9C01220F331F23
:10186000820F931F9C012454384F4091B407429536
:101870004695469543705091B507652F660F660FE4
:10188000862F842B952F929596959695937042E38B
:10189000049F800D911D1124BE010E94F12D4091E5
:1018A000B7076091B6070E94A5070F5FDA94D110C1
:1018B000C7CF1C0D19301CF01092020108C017FD93
:1018C00003C01093020103C088E080930201DF91FE
:1018D000CF911F910F91FF90EF90DF90CF900C94DC
:1018E000110890916B059F5F891718F090936B0515
:1018F000089510926B050E94090820E030E090E006
:1019000080910101A901480F511D87FD5A9548306A
:101910005105A8F4820F877090E0FC01EE0FFF1FC5
:101920008E0F9F1FFC01E454F84F8091D4079091D3
:10193000D507A091D60780839183A28391E02F5F82
:101940003F4F24303105E1F691110E94110890912A
:10195000000180910101890F809301018D5F8B301F
:10196000C0F09195909300018091690590916A056E
:10197000889660E073E00E94DD2D90936A05809365
:10198000690524ED37E04091B7076091B6070C94E4
:10199000A50708958091B40780FF1DC05C991BC006
:1019A00086958F71E82FF0E03297E631F10598F4D3
:1019B000E758FF4F0C94052E81500C943F0B855037
:1019C0000C94720B87500C94920B8E500C94F40B69
:1019D00084510C94710C08952F980E9497065C9A7C
:1019E00008958091A806811106C00E94FF2B0E94D5
:1019F000CD080C94620508955C9914C08091B407D9
:101A000080FF10C0809168058F5F813518F4809346
:101A1000680508C0109268058091A806811102C06F
:101A20000E94CA0C80916605909167050196813DE0
:101A300027E0920728F4909367058093660517C006
:101A400010926705109266058091A806882379F0A8
:101A50008091F807843039F00E9497065C9A85B12E
:101A6000805885B904C01092A8060E94F10C0C940D
:101A7000950F2091910580919205821759F030E0E1
:101A8000F901ED56FA4F80812F5F3F4F209391056A
:101A900090E008958FEF9FEF08959091C80095FF13
:101AA000FCCF8093CE0008951F920F920FB60F9235
:101AB00011242F933F934F938F939F93EF93FF9313
:101AC0008091920590E09C012F5F3F4F40919105DE
:101AD000421741F03091CE00FC01ED56FA4F3083B1
:101AE00020939205FF91EF919F918F914F913F919C
:101AF0002F910F900FBE0F901F9018958091A20606
:101B000008950895F89487E68093CC001092CD0054
:101B1000E9ECF0E080818069808380818860808347
:101B2000EAECF0E080818083E8ECF0E08081826084
:101B3000808378940895F8948CE08093CC00789416
:101B40000895EF92FF920F931F93CF938C010E9401
:101B50003A267C01C0E0C7010E94522680179107F7
:101B6000F0F40E94390D9C012F3F8FEF3807A9F048
:101B70002D3099F04C2F50E02A3051F4C23030F023
:101B8000FA01EE56F94F80818F3449F02FE530E0AD
:101B9000FA01EC56F94F2083CF5FCD30E0F2EC2F05
:101BA000F0E0EC56F94F108284E996E0CF911F9156
:101BB0000F91FF90EF900895CF93DF93EC018991FF
:101BC000882319F00E944D0DFACFDF91CF9108952F
:101BD0000E94DC0D84E690E00C94A10D2FEF32E51D
:101BE00047E0215030404040E1F700C000000C9435
:101BF000E80DCF93DF93EC018F5691098230910568
:101C000020F08A579109029788F48091A506909157
:101C1000A606892B31F489E792E09093A60680937B
:101C2000A506D093A406C093A30604C01092A606EE
:101C30001092A5068091A706811128C087E391E044
:101C40000E94DC0DDF93CF9389E691E09F938F9301
:101C500087ED97E09F938F930E942A2E87ED97E060
:101C60000E94E80D42E050E06AE871E00E940B2E0D
:101C70000F900F900F900F900F900F90892B19F4E9
:101C80001092A70603C081E08093A706DF91CF9151
:101C90000895CF93DF93EC018091A706811145C091
:101CA0008CE491E00E94DC0D8C81282F082E000C22
:101CB000330B3F938F938B81282F082E000C330B0F
:101CC0003F938F938A81282F082E000C330B3F936C
:101CD0008F938981282F082E000C330B3F938F930D
:101CE00080E691E09F938F9387ED97E09F938F938A
:101CF0000E942A2E87ED97E00E94E80D42E050E016
:101D00006AE871E00E940B2E2DB73EB7245F3F4F6B
:101D10000FB6F8943EBF0FBE2DBF892B19F4109259
:101D2000A70603C081E08093A7068091A7068111D2
:101D300029C08DE691E00E94DC0D88811F928F936F
:101D400089E691E09F938F9387ED97E09F938F9320
:101D50000E942A2E87ED97E00E94E80D42E050E0B5
:101D60006AE871E00E940B2E0F900F900F900F9079
:101D70000F900F90892B19F41092A70603C081E0F1
:101D80008093A706DF91CF910895CF93DF93559A63
:101D90005D980E9431260E94820D83E891E00E94A6
:101DA000EE0D83E891E00E94DC0D84E690E00E9455
:101DB000A10DEC0142E050E067E871E00E940B2EBB
:101DC000892B71F142E050E06AE871E0CE010E9497
:101DD0000B2E892B29F10E949B0D83E891E00E9434
:101DE000EE0D2FEF80E792E0215080409040E1F728
:101DF00000C000008DE891E00E94E80D45E050E051
:101E00006CE971E00E940B2E892B89F582EA91E042
:101E10000E94EE0D81EC91E0DF91CF910C94EE0DDC
:101E200081E092E00E94EE0D83E891E00E94EE0DC9
:101E300082E192E00E94EE0D85E291E00E94DC0DCD
:101E400089E192E00E94EE0D86E292E00E94EE0DA2
:101E500086E392E00E94EE0D86E492E00E94EE0D91
:101E600086E592E00E94EE0D0E94CE26B4CFDF916F
:101E7000CF910895CF93DF932091A706211152C0EF
:101E8000EC0189E692E00E94DC0D8F811F928F9316
:101E90008E811F928F938D811F928F938C811F92C1
:101EA0008F938B811F928F938A811F928F9388814A
:101EB0001F928F938DE792E09F938F9387ED97E02A
:101EC0009F938F930E942A2E87ED97E00E94E80D42
:101ED00045E050E06CE971E00E940B2E2DB73EB753
:101EE0002E5E3F4F0FB6F8943EBF0FBE2DBF892B1D
:101EF00021F481E08093A70602C01092A7068A8190
:101F0000988191110FC0833531F0893331F08734D6
:101F100049F482E103C080E101C081E1DF91CF910A
:101F20000C947F05DF91CF9108958091A506909143
:101F3000A6060097F1F08230910530F0019790935A
:101F4000A6068093A5060895209193062F5F2093FF
:101F500093068091A3069091A40630E043EF50E0F1
:101F6000481B590B2417350720F0109293060C9448
:101F7000F90D0895CF935C9B93C0C82F84EA92E03B
:101F80000E94E80DFC01418180ED840F8A3020F031
:101F900081E08093B50632C082818A3378F5608112
:101FA00070E06053710994E6969FF001979FF00DE1
:101FB000112450E0405351099AE0949F9001959F5D
:101FC000300D11242E0F3F1F280F311D83E0220FEB
:101FD000331F8A95E1F72A54324030931001209341
:101FE0000F0120318EE0380720F481E08093A806AD
:101FF00005C023343E4010F01092A806C23009F00C
:102000004FC080910F0190911001833D2FE0920706
:10201000E8F48F362FE09207D8F48D332FE0920743
:10202000C8F4893D2EE09207B8F4873A2EE0920773
:10203000A8F485372EE0920798F483342EE09207B7
:1020400088F481319E4080F0C4E10FC0CAE50DC024
:10205000C0E50BC0C6E409C0CCE307C0C2E305C0BD
:10206000C8E203C0CEE101C0CAE080EB92E00E946A
:10207000DC0D1F92CF9389E691E09F938F9387EDBC
:1020800097E09F938F930E942A2E0F900F900F90AE
:102090000F900F900F9087ED97E0CF910C94E80D83
:1020A000CF9108950E9446266093AE067093AF06C6
:1020B0008093B0069093B1060895CF93DF935D9916
:1020C000E5C08091A7068823B1F083E891E00E94E3
:1020D000E80D42E050E06AE871E00E940B2E892B87
:1020E00039F48FEB92E00E94E80D1092A70603C02E
:1020F00081E08093B5068091B5068823C1F084E61F
:1021000090E00E94A10DEC0142E050E06AE871E02D
:102110000E940B2E892B59F045E050E06CE971E0EC
:10212000CE010E940B2E892B11F01092B5068091E2
:10213000B506811151C08091B2069091B3060E94FC
:1021400052268938934108F447C00E943A2690935A
:10215000B3068093B20689ED92E00E94E80DFC017F
:102160008081813351F48091AB06811118C081E0E8
:102170008093AB061092B40612C0803369F480914C
:10218000AB06882319F01092AB0609C08091B40603
:102190008F5F8093B40603C081E08093B506809181
:1021A000B606811112C080910E01882371F08091D2
:1021B000B406823150F08091F807843021F05D9AA6
:1021C00084E080930E011092B40680910E0182305B
:1021D00018F481E00E94BA0F8091F807843099F1D9
:1021E00080910E01823021F40E94BA0F83E012C068
:1021F000813091F46091AE067091AF068091B00687
:102200009091B1060E947C2669397A438105910537
:1022100018F082E080930E0180910E01833099F4D2
:102220006091AE067091AF068091B0069091B106B4
:102230000E947C26613474458948910520F084E031
:1022400080930E015D9A8091A9068823F9F08C3065
:1022500011F0823191F488EE92E00E94DC0D8091C1
:10226000A906823119F481E093E002C08DEA92E080
:102270000E94E80D1092A90609C0853139F486E460
:1022800092E00E94E80D8CE08093A9068091B6064A
:1022900081111EC00E94F0198450914059F00E9493
:1022A000E11B80911C018093AD0610921C0184E01B
:1022B00091E01EC08091AC06811126C08091F80784
:1022C000843011F581E08093B6068093AC061CC083
:1022D0000E94F0198151914079F081E08093AC0621
:1022E0000E94E11B8091AD0680931C0181E191E089
:1022F000DF91CF910C94EB198091F807843021F095
:102300001092B6061092AC06DF91CF9108958331FA
:10231000A1F190F48C3019F1823109F18530D9F5B1
:102320000E94E11B2FEF89E698E121508040904008
:10233000E1F700C0000011C08631A1F018F485312A
:1023400071F029C0883119F0803CE1F024C09091EF
:10235000B60681E089278093B60681E008958093D0
:10236000A906FBCF9091AA0681E089278093AA064F
:102370008111F3CF0E946205F0CF90910E0181E0B0
:10238000892706C08091AC068111E7CF5D9A8AE06B
:1023900080930E01E2CF80E008950FB6F894A895DF
:1023A00080916000886180936000109260000FBE91
:1023B0009DE088E10FB6F894A895809360000FBE69
:1023C000909360000895CF9390E080E80FB6F89462
:1023D00080936100909361000FBE0E9412160E94CC
:1023E0006D168091E20084608093E20078948FEF14
:1023F0009091F8078150943041F0EFE3FFE131977D
:10240000F1F700C000008111F3CF8091F80784300C
:1024100019F481E08093B6060E94C50E0E94521006
:102420000E94431A81E08093B7060E94CD11C1E05B
:1024300080910E018230F8F00E9477040E941927E3
:102440000E947C048823B9F00E945D030E94462606
:102450006093AE067093AF068093B0069093B1067A
:102460000E94CD110E94512780910E01843008F006
:102470005D98C0930E0180910E018430C8F6A89536
:10248000823010F40E944D1A0E945D10D1CF8091CD
:10249000C9060895CF93DF9300D01F92CDB7DEB762
:1024A0009C018091F807843019F593E099833B8370
:1024B0002A839093E9008FEF9091E800815095FD79
:1024C00006C09AE69A95F1F700C08111F5CF809188
:1024D000E80085FF0DC040E050E063E070E0CE0111
:1024E00001960E94B4148091E8008E778093E800F2
:1024F0000F900F900F90DF91CF910895CF93DF93BE
:1025000000D01F92CDB7DEB72091F807243021F517
:1025100022E029839B838A8383E08093E9008FEF05
:102520009091E800815095FD06C09AE69A95F1F7E2
:1025300000C08111F5CF8091E80085FF0DC040E01B
:1025400050E063E070E0CE0101960E94B4148091E7
:10255000E8008E778093E8000F900F900F90DF9146
:10256000CF9108952091F8072430F1F422E02093D0
:10257000E9002FEF3091E800215035FD06C03AE622
:102580003A95F1F700C02111F5CF2091E80025FF21
:102590000BC040E050E065E070E00E94B414809110
:1025A000E8008E778093E8000895CF93DF93209121
:1025B000F807243009F048C0EC0180911B01882302
:1025C000E1F080911C018823C1F086E08093E9004E
:1025D0008FEF9091E800815095FD06C095E19A95A6
:1025E000F1F700008111F5CF8091E80085FF2CC044
:1025F00040E050E060E170E017C081E08093E900C6
:102600008FEF9091E800815095FD06C09AE69A956B
:10261000F1F700C08111F5CF8091E80085FF14C06B
:1026200040E050E068E070E0CE010E94B414809178
:10263000E8008E778093E80080E1FE01A9EBB6E028
:1026400001900D928A95E1F7DF91CF9108958091E5
:10265000F707811109C00E9412160E946D16809121
:10266000E20084608093E20008951092F7070895D5
:1026700008951F93CF93DF93CDB7DEB7A0970FB622
:10268000F894DEBF0FBECDBF8091F807843049F5C6
:102690001091E9001F709091EC00892F817090FDDE
:1026A00080E8182B85E08093E9008091E80082FFA4
:1026B00015C08091E80085FF0CC040E050E060E26A
:1026C00070E0CE0101960E94FF14CE0101960E9497
:1026D000D4188091E8008B778093E8001F701093E6
:1026E000E900A0960FB6F894DEBF0FBECDBFDF9114
:1026F000CF911F91089542E061EC81E00E94AD15F9
:1027000042E061EC82E00E94AD1542E061EC83E0C2
:102710000E94AD1542E261EC84E00E94AD1542E2F8
:1027200060EC85E00E94AD1542E161EC86E00C941E
:10273000AD158091FA07833009F455C030F481302B
:1027400071F0823009F48EC008958A3009F47AC09D
:102750008B3009F460C0893009F09CC020C08091A2
:10276000F907813A09F096C08091E800877F80934D
:10277000E8008091FD079091FE07892B21F460E12C
:1027800089EB96E003C060E080E090E070E00E949A
:102790004A158091E8008B778093E8000895809136
:1027A000F907813209F076C08091FD079091FE070C
:1027B000009719F0049709F06DC08091E800877FB9
:1027C0008093E8008091E80082FD05C08091F807C1
:1027D0008111F8CF5FC08091F1008093C90680918C
:1027E000E8008B7753C08091F907813A09F052C015
:1027F0008091FD079091FE07892B09F04BC08091D5
:10280000E800877F8093E8008091E80080FFFCCF9C
:1028100080911B0136C08091F9078132D9F58091F2
:10282000FD079091FE07892BA9F58091E800877F2D
:102830008093E8000E94C1158091FB0780931B01E3
:102840000C94E11B8091F907813221F58091E80019
:10285000877F8093E8000E94C1158091FC078093D8
:10286000CA0608958091F907813AA1F48091E800A1
:10287000877F8093E8008091E80080FFFCCF809103
:10288000CA068093F1008091E8008E778093E8007B
:102890000C94C11508958091C9068093B8061092D2
:1028A000C90680E00E94B6050E94F41A0C94E11B50
:1028B0000C944B140E9451278091B8068093C9064E
:1028C00008950C945A14292F332723303105C1F071
:1028D0005CF42130310579F022303105E9F58DE8DD
:1028E00090E02AE533E03CC021323105C1F02232CC
:1028F000310511F131C082E190E027EE33E030C0C4
:1029000099278330910540F5FC01EE0FFF1FE05E33
:10291000FC4F20813181FC01E35EFC4F1AC0653021
:10292000D8F4E62FF0E0EE0FFF1FED5EFC4F2081A4
:10293000318189E090E014C0653070F470E0FB01F3
:10294000EE0FFF1FE75FFC4F20813181FB01EC5F41
:10295000FC4F808190E004C080E090E020E030E017
:10296000FA01318320830895CF92DF92EF92FF9294
:102970000F931F93CF93DF93EC018B016A010E94A9
:10298000E015811133C0C114D10439F0F601808102
:102990009181081B190BC80FD91FE12CF12C0115CF
:1029A000110519F18091E80085FD16C08091E800BD
:1029B0008E778093E800C114D10449F0F60180813C
:1029C0009181E80EF91EF182E08285E00FC00E943D
:1029D000E015882321F30AC089918093F10001500A
:1029E0001109FFEFEF1AFF0ADACF80E0DF91CF91F4
:1029F0001F910F91FF90EF90DF90CF900895CF92AD
:102A0000DF92EF92FF920F931F93CF93DF93EC012E
:102A10008B016A010E94E015811133C0C114D104F9
:102A200039F0F60180819181081B190BC80FD91F5D
:102A3000E12CF12C0115110519F18091E80085FDBB
:102A400016C08091E8008B778093E800C114D10410
:102A500049F0F60180819181E80EF91EF182E08251
:102A600085E00FC00E94E015882321F30AC0809101
:102A7000F100899301501109FFEFEF1AFF0ADACF35
:102A800080E0DF91CF911F910F91FF90EF90DF9049
:102A9000CF9008952091FF0730910008261737073F
:102AA00048F06115710539F42091E8002E772093E4
:102AB000E80001C0B90140E061157105A9F120915C
:102AC000F807222309F443C0253009F442C02091BD
:102AD000E80023FD40C02091E80022FD32C0209193
:102AE000E80020FFE9CF4091F3002091F20030E0B0
:102AF000342BFC01CF016115710559F028303105E7
:102B000040F481918093F100615071092F5F3F4F34
:102B1000F1CF41E02830310509F040E02091E80094
:102B20002E772093E800C8CF4111C9CF0AC0809109
:102B3000F807882361F0853061F08091E80083FD1B
:102B40000AC08091E80082FFF2CF80E0089582E021
:102B5000089583E0089581E008958F708093E900DF
:102B6000EBEEF0E0808181608083EDEEF0E010829A
:102B70006093EC0040838091EE00881F8827881FB7
:102B800008958091F90787FF11C08091E80082FDC8
:102B900005C08091F8078111F8CF11C08091E8003D
:102BA0008B770BC08091F807882349F08091E8006B
:102BB00080FFF8CF8091E8008E778093E800089539
:102BC0002091E4003091E50095E64091EC00842FDF
:102BD000817040FF22C08091E80080FD1CC0809180
:102BE000F807882391F0853091F08091EB0085FD06
:102BF00010C04091E4005091E5004217530729F3BB
:102C00009A01915011F784E0089582E0089583E0DD
:102C1000089581E0089580E008954091E80042FF22
:102C2000DECF08950E947E160E948616E0EEF0E048
:102C3000808181608083E8EDF0E080818F77808300
:102C400019BCA7EDB0E08C918E7F8C9380818F7E34
:102C500080831092F70708950F931F93CF93DF930C
:102C60000E947E160E948616C8EDD0E088818F777C
:102C7000888388818068888388818F7D888319BC58
:102C80001092F8071092F5071092F60700EE10E088
:102C9000F80180818B7F808388818160888342E016
:102CA00060E080E00E94AD15E1EEF0E080818E7F73
:102CB0008083E2EEF0E080818160808380818860A3
:102CC0008083F80180818E7F808388818061888302
:102CD000DF91CF911F910F910895E8EDF0E0808191
:102CE0008F7E8083E7EDF0E080818160808384E0E7
:102CF00082BF81E08093F7070C942C16E8EDF0E09A
:102D000080818E7F80831092E20008951092DA0015
:102D10001092E10008951F920F920FB60F921124A6
:102D20002F933F934F935F936F937F938F939F93D3
:102D3000AF93BF93EF93FF938091E10082FF0BC0AD
:102D40008091E20082FF07C08091E1008B7F809339
:102D5000E1000E9439138091DA0080FF1DC080914C
:102D6000D80080FF19C08091DA008E7F8093DA004E
:102D70008091D90019BC80FF0BC082E089BD09B4E5
:102D800000FEFDCF81E08093F8070E94271304C066
:102D90001092F8070E9435138091E10080FF19C05E
:102DA0008091E20080FF15C08091E2008E7F8093C9
:102DB000E2008091E20080618093E2008091D8007F
:102DC00080628093D80019BC85E08093F8070E9448
:102DD00058148091E10084FF4FC08091E20084FF8D
:102DE0004BC019BC82E089BD09B400FEFDCF8091C3
:102DF000D8008F7D8093D8008091E10084FF1CC0B3
:102E00008091B7068823C1F00FB6F894A8958091F9
:102E10006000886180936000109260000FBE9CE0AB
:102E200088E10FB6F894A895809360000FBE909348
:102E300060000E94E11BFFCF8091E1008F7E8093B4
:102E4000E1008091E2008F7E8093E2008091E200B9
:102E500081608093E2008091F507882311F084E07F
:102E600007C08091E30087FD02C081E001C083E0DC
:102E70008093F8070E9461148091E10083FF29C0CC
:102E80008091E20083FF25C08091E100877F8093DD
:102E9000E10082E08093F8071092F5078091E1004D
:102EA0008E7F8093E1008091E2008E7F8093E2002C
:102EB0008091E20080618093E20042E060E080E087
:102EC0000E94AD158091F00088608093F0000E9410
:102ED0003813FF91EF91BF91AF919F918F917F91A7
:102EE0006F915F914F913F912F910F900FBE0F9077
:102EF0001F9018951F920F920FB60F9211242F93C7
:102F00003F934F935F936F937F938F939F93AF9371
:102F1000BF93CF93DF93EF93FF93C091E900CF70FE
:102F20008091EC00D82FD17080FDD0E81092E9009C
:102F30008091F000877F8093F00078940E94BE1704
:102F40001092E9008091F00088608093F000CD2B12
:102F5000CF70C093E900FF91EF91DF91CF91BF91C6
:102F6000AF919F918F917F916F915F914F913F9121
:102F70002F910F900FBE0F901F9018951F93CF9316
:102F8000DF9300D0CDB7DEB7E9EFF7E088E08E0F32
:102F90009091F10091938E13FBCF0E949913809131
:102FA000E80083FFEDC08091F9079091FA07492F5F
:102FB00050E04A30510508F0E3C0FA01E157FF4FF5
:102FC0000C94052E803881F0823809F0D9C08091A8
:102FD000FD078F708093E9008091EB0085FB8827C7
:102FE00080F91092E90007C08091F607882311F05C
:102FF00082E001C080E09091E800977F9093E80024
:103000008093F1001092F10095C0282F2D7F09F0D8
:10301000B7C0882319F0823061F0B2C08091FB07FD
:10302000813009F0ADC0933009F080E08093F6075D
:103030002BC08091FB07811127C08091FD078F7005
:1030400009F49EC08093E9002091EB0020FF1CC092
:10305000933021F48091EB00806214C09091EB00DA
:1030600090619093EB0021E030E0A90102C0440F91
:10307000551F8A95E2F74093EA001092EA0080918A
:10308000EB0088608093EB001092E9008091E800EB
:10309000877F53C0811174C01091FB071F77809107
:1030A000E3008078812B8093E3008091E800877FA4
:1030B0008093E8000E94C1158091E80080FFFCCF5A
:1030C0008091E30080688093E300111102C082E0E8
:1030D00001C083E08093F80753C08058823008F025
:1030E0004FC0AE014F5F5F4F6091FD078091FB07BE
:1030F0009091FC070E946314BC01892B09F440C025
:103100009091E800977F9093E80089819A810E94CE
:103110004A158091E8008B778093E80031C08038B1
:1031200079F58091E800877F8093E8008091F5072A
:103130008093F1008091E8008E778093E8000E94F0
:10314000C1151EC081111CC09091FB079230C0F4C4
:103150008091E800877F8093E8009093F5070E94B4
:10316000C1158091F507811106C08091E30087FDAC
:1031700002C081E001C084E08093F8070E947B13C5
:103180008091E80083FF0AC08091E800877F8093E8
:10319000E8008091EB0080628093EB000F900F902D
:1031A000DF91CF911F910895AF92BF92DF92EF927E
:1031B000FF920F931F93CF93DF93CDB7DEB728977E
:1031C0000FB6F894DEBF0FBECDBF0DB71EB7DC0142
:1031D0002C9111963C91EDB7FEB7E31BF1090FB6A8
:1031E000F894FEBF0FBEEDBF4DB75EB74F5F5F4FA8
:1031F0005A01722F771F7727771F632F661F662765
:10320000661F2F773F77772379F0AC01430F511D6D
:10321000FA01A281EA2FF0E0BE2FAA27FA0143812A
:10322000FD01E40FF11D02C0E0E0F0E0029675013F
:10323000AC01D42ED81AD31638F4DA01DD90AD01E2
:10324000D701DD927D01F5CF29836D833A834A2D25
:10325000BC82AB827E83F887EF835C818E2F98855A
:103260000E94C21981E00FB6F8941EBF0FBE0DBFB9
:1032700028960FB6F894DEBF0FBECDBFDF91CF9179
:103280001F910F91FF90EF90DF90BF90AF90089546
:10329000DF92EF92FF920F931F93CF93DF93CDB7FF
:1032A000DEB728970FB6F894DEBF0FBECDBF2983D7
:1032B0003A834B835C836D837E838F839887EB8017
:1032C000FC808091CD06662391F0811123C0F70127
:1032D000818190E0982F88272081820F911D909303
:1032E000CC068093CB0681E08093CD0611C0882365
:1032F00019F01092CD060EC0F701818190E0982F51
:1033000088272081820F911D9093CC068093CB0655
:1033100002E001C000E0D12C10E02D2D30E08A81C8
:1033200090E0801B910B28173907ECF48091CB06B5
:103330009091CC06AC0148505109483F534040F4AD
:103340002E0D3F1DF901E00FF11F60810E94DF305B
:103350008091CB069091CC0601969093CC068093F9
:10336000CB06D394DACF81E028960FB6F894DEBF6F
:103370000FBECDBFDF91CF911F910F91FF90EF90C6
:10338000DF900895CF93DF93CDB7DEB728970FB6C0
:10339000F894DEBF0FBECDBF3A834B835C836D8351
:1033A0007E838F839887203119F40E94481909C0C1
:1033B0003A814B815C816D817E818F8198850E94ED
:1033C000060A81E028960FB6F894DEBF0FBECDBF87
:1033D000DF91CF9108959093D3068093D2060895FC
:1033E0008091D2069091D3060895E091D206F09193
:1033F000D306309721F00190F081E02D099480E010
:103400000895E091D206F091D306309721F0028022
:10341000F381E02D09940895E091D206F091D3064E
:10342000309721F00480F581E02D099408952091D2
:10343000D0063091D1068217930771F09093D10690
:103440008093D006E091D206F091D306309721F018
:103450000680F781E02D099408952091CE063091E1
:10346000CF068217930771F09093CF068093CE0614
:10347000E091D206F091D306309721F00084F185D7
:10348000E02D099408950E9431260E9462030E9453
:10349000C8040E94712B0C94FF2B8F929F92AF92C5
:1034A000BF92CF92DF92EF92FF920F931F93CF9331
:1034B000DF9300D000D01F92CDB7DEB70E94C203C9
:1034C00005ED16E0F12C8F2D0E9453034C01F801FD
:1034D000A080B180A826B926A114B10439F4F394D0
:1034E0000E5F1F4FF4E0FF12EECF39C080919D07B1
:1034F00081FD0E945C03E12CCC24C394D12CC60135
:103500008A219B21892B21F1E982FA8221E0C601DF
:1035100088219921892B09F420E02B830E943A26E7
:103520008160782F9D838C8349815A816B818D8145
:103530000E94F51A49815A816B817C818D810E949C
:10354000D006F801808191818C259D25918380830F
:10355000E394CC0CDD1CFBE0EF12D1CFC0CF8FEF9A
:1035600089838A831B820E943A268160782F9D83FB
:103570008C8349815A816B818D810E94F51A0E944A
:10358000FC0C0E94DB281091D4060E94F519181734
:10359000B9F00E94F5198093D4060F900F900F9008
:1035A0000F900F90DF91CF911F910F91FF90EF90AF
:1035B000DF90CF90BF90AF909F908F900C942F266C
:1035C0000F900F900F900F900F90DF91CF911F9160
:1035D0000F91FF90EF90DF90CF90BF90AF909F90B2
:1035E0008F9008950C94B6050895CF93DF93CDB7CF
:1035F000DEB72B970FB6F894DEBF0FBECDBF4F835B
:10360000588769877A878B87DE01119686E0FD01EE
:1036100011928A95E9F785E0FE01379601900D92A7
:103620008A95E1F749815A816B817C818D819E81E8
:103630000E947D222B960FB6F894DEBF0FBECDBF41
:10364000DF91CF910895CF93882309F46CC0803B1C
:1036500029F486E192E0CF910C942123C82F8CEFBE
:103660008C0F813A20F080E58C0F8E3248F48C2F3D
:103670000E94DC2A811157C08C2F0E9446250CC065
:1036800080E28C0F883058F4C77081E001C0880F49
:10369000CA95EAF70E94CF25CF910C9409268BE5B5
:1036A0008C0F833078F4C53A29F0C63A31F083E8BC
:1036B00090E005C081E890E002C082E890E0CF9100
:1036C0000C94171A88E58C0F873168F5C83A89F091
:1036D000C93A91F0CA3A99F0CB3AA1F0CC3AA9F0A4
:1036E000CD3AB1F0CE3AB9F0CF3AC1F080E090E0F7
:1036F00017C082EE90E014C089EE90E011C08AEE0F
:1037000090E00EC085EB90E00BC086EB90E008C027
:1037100083EB90E005C084EB90E002C087EB90E083
:10372000CF910C942D1ACF910895882349F19CEFE5
:10373000980F913A20F090E5980F9E3218F40E946D
:1037400088250DC090E2980F983058F4877091E06A
:1037500001C0990F8A95EAF7892F0E94D5250C940C
:1037600009269BE5980F933020F480E090E00C94BC
:10377000171A885A873120F480E090E00C942D1AB3
:103780000895882321F00E94CF250C9409260895DE
:10379000882321F00E94D5250C94092608950E94C3
:1037A000EF250E94BE250E9409260E94C0290E9482
:1037B000D02880E090E00E94171A80E090E00C94FE
:1037C0002D1A0E94DF250C94CF1BCF93DF9300D0DE
:1037D00000D01F92CDB7DEB70E94D924292F2295A1
:1037E0002F7030E02C3031054CF42A303105C4F410
:1037F000225031092230310540F023C02C303105F0
:10380000D1F02F303105B9F01CC0853A28F484304E
:10381000B0F4823028F413C090E2980F983078F01A
:10382000883E30F4803E58F48450813A50F407C00A
:10383000803F39F404C093FB882780F903C081E0FE
:1038400001C080E00F900F900F900F900F90DF91CC
:10385000CF910895CF93882329F08A3020F4CDE1C9
:10386000C80F01C0C7E28C2F0E94231B8C2FCF9161
:103870000C94951BCF92DF92EF92FF920F931F93C0
:10388000CF93DF93CDB7DEB727970FB6F894DEBF9F
:103890000FBECDBF25E0FC01DE01119601900D9217
:1038A0002A95E1F7FC014081518102816381748195
:1038B000258122952F706115710509F48DC35F3F35
:1038C00019F44F3F09F488C36C0149835A830B8371
:1038D000862F7D836C83602F782F8D812F830E94AC
:1038E000D924182F9E830E94D8240E94C8239E8129
:1038F000E92FE295EF70F0E0E756FF4F2F810C942F
:10390000052E892F807F9F70F92E882319F0F2945D
:1039100040EFF422002349F0FF2009F476C28F2DF6
:103920000E94E2250E94092670C2812F0E94951BE9
:10393000FF2009F451C38F2D0E94E82527960FB66A
:10394000F894DEBF0FBECDBFDF91CF911F910F91D5
:10395000FF90EF90DF90CF900C940926892F807F05
:103960009F70F92E803219F0F29430EFF322112378
:1039700019F0113001F129C00023A9F08F2D222365
:1039800049F1213039F527960FB6F894DEBF0FBE06
:10399000CDBFDF91CF911F910F91FF90EF90DF90FE
:1039A000CF900C94F225222319F0213009F414C38E
:1039B0000E94F5252CC00023E9F0233008F00CC349
:1039C0000E94CC258F2129F022C00023F1F0211183
:1039D00015C08F2D27960FB6F894DEBF0FBECDBF52
:1039E000DF91CF911F910F91FF90EF90DF90CF90DB
:1039F0000C94C11B223008F0EFC209C0F60185818A
:103A000080FF03C28F708583E4CF211129C28F2DDF
:103A100099C1292F26952695237030E0211531056F
:103A200021F021303105C1F0D7C2002319F0812FD8
:103A3000937002C080E090E027960FB6F894DEBF46
:103A40000FBECDBFDF91CF911F910F91FF90EF90EF
:103A5000DF90CF900C942D1A002349F1E12E937042
:103A6000F92EE114F3E0FF0604F184E292E00E94F3
:103A700021232FEF80E792E0215080409040E1F732
:103A800000C00000A895C701807F992724E0969583
:103A900087952A95E1F70E942A1CC7018F70992704
:103AA0000E942A1C8FE192E004C2C70102C080E09C
:103AB00090E027960FB6F894DEBF0FBECDBFDF9122
:103AC000CF911F910F91FF90EF90DF90CF900C94CA
:103AD000171A812F002381F00E94E3270E94D0282B
:103AE000163408F079C2E12FF0E0E252F94F81E09C
:103AF00080838093DD0670C20E944B280E94D028EC
:103B0000163408F069C2E12FF0E0E252F94F10825A
:103B10001092DD0661C2892F837009F079C001110E
:103B20005BC2812F829586958770880F880F212F21
:103B30002F70C22ED12CE12CF12C082E04C0CC0CFD
:103B4000DD1CEE1CFF1C0A94D2F714FF12C04FE0DC
:103B500050E060E070E004C0440F551F661F771FFF
:103B60008A95D2F78A019B01009510952095309592
:103B700003C000E010E09801969596959370492F48
:103B800050E0C901B80142305105D1F04330510530
:103B900059F16C297D298E299F294130510541F128
:103BA00027960FB6F894DEBF0FBECDBFDF91CF9141
:103BB0001F910F91FF90EF90DF90CF900C94ED2329
:103BC0006C297D298E299F2927960FB6F894DEBF90
:103BD0000FBECDBFDF91CF911F910F91FF90EF905E
:103BE000DF90CF900C9407240E94ED23C701B6010B
:103BF00027960FB6F894DEBF0FBECDBFDF91CF91F1
:103C00001F910F91FF90EF90DF90CF900C94D323F2
:103C1000002319F0892F817001C08695882309F44B
:103C2000DBC1812F829586958770880F880F212FA1
:103C30002F70C22ED12CE12CF12C082E04C0CC0CFC
:103C4000DD1CEE1CFF1C0A94D2F714FF12C04FE0DB
:103C500050E060E070E004C0440F551F661F771FFE
:103C60008A95D2F78A019B01009510952095309591
:103C700003C000E010E09801969596959370492F47
:103C800050E0C901B80142305105D1F0433051052F
:103C900059F16C297D298E299F294130510541F127
:103CA00027960FB6F894DEBF0FBECDBFDF91CF9140
:103CB0001F910F91FF90EF90DF90CF900C94B42460
:103CC0006C297D298E299F2927960FB6F894DEBF8F
:103CD0000FBECDBFDF91CF911F910F91FF90EF905D
:103CE000DF90CF900C94C6240E94B424C701B60183
:103CF00027960FB6F894DEBF0FBECDBFDF91CF91F0
:103D00001F910F91FF90EF90DF90CF900C94A22421
:103D1000103F41F118F4103E48F46DC0123F09F411
:103D200041C0D8F1133F09F442C065C01F70892F0C
:103D30008F71002321F00E943B24812F4BCE0E94E3
:103D40005C24812F27960FB6F894DEBF0FBECDBF3F
:103D5000DF91CF911F910F91FF90EF90DF90CF9067
:103D60000C94C81B0023A9F0223008F035C1892F1C
:103D70008F7127960FB6F894DEBF0FBECDBFDF91CF
:103D8000CF911F910F91FF90EF90DF90CF900C9407
:103D90008124233008F020C1EACF002329F0892FA5
:103DA0008F7146C00023D9F3892F8F716CC0002317
:103DB00091F0892F8F7127960FB6F894DEBF0FBE52
:103DC000CDBFDF91CF911F910F91FF90EF90DF90CA
:103DD000CF900C94262427960FB6F894DEBF0FBE22
:103DE000CDBFDF91CF911F910F91FF90EF90DF90AA
:103DF000CF900C942124002359F12223B9F093FF92
:103E000004C0F601858180FD11C0812F27960FB671
:103E1000F894DEBF0FBECDBFDF91CF911F910F9100
:103E2000FF90EF90DF90CF900C94231B892F877029
:103E300027960FB6F894DEBF0FBECDBFDF91CF91AE
:103E40001F910F91FF90EF90DF90CF900C943B2447
:103E50002223B9F093FF04C0F601858180FD11C0D3
:103E6000812F27960FB6F894DEBF0FBECDBFDF912E
:103E7000CF911F910F91FF90EF90DF90CF900C9416
:103E8000951B892F877027960FB6F894DEBF0FBE5B
:103E9000CDBFDF91CF911F910F91FF90EF90DF90F9
:103EA000CF900C945C24492F4F70612FC6010E9463
:103EB000EC0227960FB6F894DEBF0FBECDBFDF91A0
:103EC000CF911F910F91FF90EF90DF90CF900C94C6
:103ED0002123011181C0112341F0892F8F7084307B
:103EE00021F0907F212F2F70922B9F70892F90E0CF
:103EF00082309105E9F1ACF4009751F1019709F096
:103F00006BC027960FB6F894DEBF0FBECDBFDF9112
:103F1000CF911F910F91FF90EF90DF90CF900C9475
:103F20002F2C83309105A1F1049709F055C0812F02
:103F300027960FB6F894DEBF0FBECDBFDF91CF91AD
:103F40001F910F91FF90EF90DF90CF900C94942CE5
:103F500027960FB6F894DEBF0FBECDBFDF91CF918D
:103F60001F910F91FF90EF90DF90CF900C94142C45
:103F700027960FB6F894DEBF0FBECDBFDF91CF916D
:103F80001F910F91FF90EF90DF90CF900C94522CE7
:103F900027960FB6F894DEBF0FBECDBFDF91CF914D
:103FA0001F910F91FF90EF90DF90CF900C94712CA8
:103FB000492F4F70612FC60127960FB6F894DEBFC8
:103FC0000FBECDBFDF91CF911F910F91FF90EF906A
:103FD000DF90CF900C94160227960FB6F894DEBFB0
:103FE0000FBECDBFDF91CF911F910F91FF90EF904A
:103FF000DF90CF900895CF93DF9300D000D01F9231
:10400000CDB7DEB70F900F900F900F900F90DF910C
:10401000CF910895CF93DF9300D000D000D0CDB7DB
:10402000DEB726960FB6F894DEBF0FBECDBFDF9188
:10403000CF9108951F93CF93DF93C0911E0716E091
:1040400080911F07C81799F0D0E01C9FF0011D9FB9
:10405000F00D1124E05EF84F40815181628173813F
:10406000848195810E940A202196C770E9CFDF9153
:10407000CF911F9108954091500750915107609141
:1040800052077091530780915407909155070C94F3
:104090000A208091550782958F7009F054C0809155
:1040A0005207882309F44FC080911E07A0911F0773
:1040B00060915007709151074091530750915407F8
:1040C000B6E08A1709F43FC090E041155105C1F1EF
:1040D0007F3F11F46F3FA1F1B89FF001B99FF00D40
:1040E0001124E05EF84F218172132AC020816213EF
:1040F00027C02281211124C0238134812417350750
:1041000010F421503109241B350B283C3105C0F433
:10411000209155072F7020612093550726E0289F96
:10412000F001299FF00D1124EB5DF84F80818F7015
:104130008061808380E597E00E943A1C0C941A20ED
:1041400001968770BECF0895BF92CF92DF92EF9213
:10415000FF920F931F93CF93DF93CDB7DEB7619795
:104160000FB6F894DEBF0FBECDBF7C0185E0F7012E
:10417000DE011D9601900D928A95E1F7D7014C91D1
:1041800011965C9111971296DC90129713960D91EF
:104190001C911497309150076091510780915307FB
:1041A00090915407009709F477C16F3F19F43F3F8E
:1041B00009F472C1B0905207BB2009F4C5C0209128
:1041C00055070817190728F0F801E81BF90BCF016C
:1041D00004C080959095800F911FCC24C394883C97
:1041E000910580F0C12C207F09F0CCC0702F198B75
:1041F000088B6D2D89890E94FB1F80E597E00E9446
:104200003A1CB6C0822F807F09F047C0651314C0E6
:10421000341312C0D11010C02F70206120935507A5
:104220000E943B2080E597E00E943A1C8091550750
:10423000D70115968C932FC00115110519F15F3F19
:1042400011F44F3FF9F0CD2CD1101CC080911E0706
:1042500020911F0736E0821709F45CC090E0389F78
:10426000F001399FF00D1124E05EF84F6181561383
:1042700006C06081461303C06281611103C00196CC
:104280008770E9CFCD2CDD2009F426C18091550738
:10429000816080935507C12C1FC1651308C034137A
:1042A00006C0D11004C080915507D701C9C04D8701
:1042B0005E87DF86702F198B088B6D2D89890E9490
:1042C000E51B8823E9F1DD20D9F120915507822FE4
:1042D00082958F7090E0029774F0809150079091D2
:1042E000510798878F8319861B870A872C87CE01F1
:1042F00007960E943A1C86E0F701A0E5B7E001901E
:104300000D928A95E1F70E9449200E943B20CC241F
:10431000C394E2C0702F198B088B60E089890E94DA
:10432000D924292F22952F7030E0223031050CF04E
:10433000C7C09F7009F0C1C0805E883008F4CCC04F
:10434000C7010E943A1CE3CF0817190708F456C0AA
:10435000F801E81BF90BCF01883C910508F453C024
:10436000C12C702F198B088B6D2D89890E94FB1F22
:10437000E0E5F7E086E0DF011D928A95E9F70E940B
:104380003B20AAC0651314C0341312C0D11010C052
:1043900080915507F7018583C7010E943A1C86E08A
:1043A000E0E5F7E0DF011D928A95E9F7CB2C94C098
:1043B0004D875E87DF86702F198B088B6D2D89895D
:1043C0000E94E51B882309F4BBCFDD2009F4B8CF98
:1043D00020915507822F82958F7090E002970CF400
:1043E0008ACF80915007909151079A8389831B82CD
:1043F0001D830C832E83CE0101967BCF80959095F3
:10440000800F911FA9CFCD2CDD2009F499CF651322
:104410002EC034132CC02091550720FD1FC0822FC1
:1044200082958F70D9F0D70115962C9315978F3000
:1044300049F08F5F982F9295907F822F8F70892BF4
:1044400015968C93C7010E943A1C86E0F701A0E5FF
:10445000B7E001900D928A95E1F791CF86E0F701E0
:10446000A0E5B7E001900D928A95E1F735C04D8740
:104470005E87DF86702F198B088B6D2D89890E94CE
:10448000E51B811138CF80915507816080935507D6
:10449000C7010E943A1C20C0DD2009F451CF4D878E
:1044A0005E87DF86702F198B088B6D2D89890E949E
:1044B000E51B882309F444CF1ECF81113DCF0CC0EA
:1044C000243031050CF03CCF9F7009F435CFF70153
:1044D0009581907F09F030CF8C2D61960FB6F894BE
:1044E000DEBF0FBECDBFDF91CF911F910F91FF9027
:1044F000EF90DF90CF90BF9008951F93CF93DF93FD
:10450000CDB7DEB72C970FB6F894DEBF0FBECDBF88
:104510004F83588769877A878B879C87CE01079658
:104520000E94A420882369F08F8198852A853B8585
:10453000232BF1F19F3F09F063C08F3F09F060C06A
:1045400037C086E0FE013796DE01119601900D928C
:104550008A95E1F76F817885EA85FB85309741F18F
:104560007F3F11F46F3F21F120911F0730E0C90117
:1045700001968770992740911E0750E08417950790
:1045800009F447C069837A83FD83EC8396E0929FA8
:10459000D001939FB00D1124A05EB84FFE0131965B
:1045A00001900D929A95E1F780931F070E941A20BF
:1045B00016E080911E0790911F078917C1F1189F7F
:1045C000C0011124805E984F0E94A420882379F1B5
:1045D000E0911E071E9FF0011124E05EF84F40811C
:1045E000518162817381848195810E940A2080912A
:1045F0001E0790E001968770992780931E07D9CFF8
:104600004F81588569857A858B859C850E940A2013
:10461000CFCF0E94E11B10921F0710921E07E0E50A
:10462000F7E086E0DF011D928A95E9F7C1CF2C966D
:104630000FB6F894DEBF0FBECDBFDF91CF911F91B3
:104640000895DF92EF92FF920F931F93CF93DF9322
:10465000FC01892B09F48AC0E12CF12CDD24D394D0
:10466000EF0121968491853709F461C058F48437AD
:1046700008F04EC0843008F06AC08130D1F082303A
:1046800071F174C0883709F45DC050F4863709F4BD
:1046900055C0873709F06AC08E2D0E94DC2554C0B2
:1046A0009CE7980F903708F061C08F770E94951BA8
:1046B00050C08F010E5F1F4FFE01849190E2980F52
:1046C000983050F48770FD2D01C0FF0F8A95EAF7EE
:1046D0008F2F0E94E22514C00E94231B13C08F015C
:1046E0000E5F1F4FFE01C49180E28C0F883060F492
:1046F000C7708D2D01C0880FCA95EAF70E94E82582
:104700000E940926E80125C08C2F0E94951BFACF34
:104710009F012E5F3F4FFE01C491CC2369F08FECC7
:1047200097E00197F1F700C00000C150F6CF9F015C
:104730002E5F3F4FFE01F490E9010BC00E94CC2593
:10474000E82E07C00E94DF250E94092602C00E94B1
:10475000231B8F2D882341F0EFECF7E03197F1F721
:1047600000C000008150F6CFFE017ACFDF91CF91DB
:104770001F910F91FF90EF90DF9008956093820753
:104780007093830780938407909385070C94E105C9
:1047900008956093860770938707809388079093A6
:1047A00089070C9420060F931F93009186071091A0
:1047B00087072091880730918907602B712B822B06
:1047C000932B609386077093870780938807909355
:1047D00089071F910F910C9420060F931F9300914E
:1047E00086071091870720918807309189076023F9
:1047F00071238223932360938607709387078093A6
:104800008807909389071F910F910C9420060F93AE
:104810001F93009186071091870720918807309198
:1048200089076027712782279327609386077093F3
:10483000870780938807909389071F910F910C94A5
:10484000200660E070E0CB010C94BE230F931F9311
:1048500041E050E060E070E08A019B0104C0000F7D
:10486000111F221F331F8A95D2F7C901B8011F916A
:104870000F910C94BE230F931F9341E050E060E032
:1048800070E004C0440F551F661F771F8A95D2F74A
:104890008091820790918307A0918407B09185074A
:1048A0008A019B01082B192B2A2B3B2BC901B8012C
:1048B0001F910F910C94BE230F931F9341E050E082
:1048C00060E070E004C0440F551F661F771F8A9593
:1048D000D2F74095509560957095809182079091A0
:1048E0008307A0918407B09185078A019B01082363
:1048F00019232A233B23C901B8011F910F910C945E
:10490000BE230F931F9341E050E060E070E004C0CD
:10491000440F551F661F771F8A95D2F78091820733
:1049200090918307A0918407B09185078A019B012C
:10493000082719272A273B27C901B8011F910F9182
:104940000C94BE230F931F9300918207109183074D
:104950002091840730918507602B712B822B932B3C
:104960001F910F910C94BE230F931F930091820708
:10497000109183072091840730918507602371236C
:10498000822393231F910F910C94BE230F931F93A7
:104990000091820710918307209184073091850749
:1049A00060277127822793271F910F910C94BE23B4
:1049B00008958F929F92AF92BF92DF92EF92FF92F3
:1049C0000F931F93CF93DF9300D000D01F92CDB7EA
:1049D000DEB78A016623C9F1809086079090870729
:1049E000A0908807B09089078091820790918307F3
:1049F000A0918407B0918507882A992AAA2ABB2A00
:104A00008FE1E82EF12CD501C4010E2C04C0B6951F
:104A1000A795979587950A94D2F780FF07C0DE2C5B
:104A2000B8018E2D0E94E001019729F481E0E81A77
:104A3000F10848F7D12C8BE0189FF0011124E00F0A
:104A4000F11DEA5AF84FD08209C08BE0189FF0019F
:104A50001124E40FF11DEA5AF84FD08009831A831C
:104A600069817A818D2D0E94E0010F900F900F9047
:104A70000F900F90DF91CF911F910F91FF90EF90CA
:104A8000DF90BF90AF909F908F90089590911B0101
:104A9000992321F090911C01911109C020911D01D1
:104AA00030911E01F90132969FEF40E01FC0982F10
:104AB0009695969596959F3050F5E0911D01F09151
:104AC0001E01E90FF11D877021E030E0A90102C04D
:104AD000440F551F8A95E2F7CA019181892B818382
:104AE00008959F3F39F04F5F4E3041F05191581378
:104AF000F8CF0DC05111F7CF942FF5CF9F3F39F06C
:104B0000F901E90FF11D97FDFA9582830895089543
:104B100090911B01992321F090911C01911109C0E2
:104B200020911D0130911E01F9013296205F3F4F07
:104B30001FC0982F9695969596959F30F0F4E0912A
:104B40001D01F0911E01E90FF11D877021E030E099
:104B5000A90102C0440F551F8A95E2F7CA0180954A
:104B600091818923818308953196E217F30729F013
:104B700090819813F9CF1082F7CF089581E090E0EB
:104B8000E0911D01F0911E01E80FF91F10820196BE
:104B900080319105A9F7089580919C07089590911F
:104BA0009C07892B80939C070895809590919C0782
:104BB000892380939C07089580939C070895109201
:104BC0009C07089590919B07892B80939B070895DC
:104BD000809590919B07892380939B07089510925D
:104BE0009B07089580938A07089510928A07089575
:104BF00080911D0190911E01FC0131969C01205F66
:104C00003F4F80E0919191118F5FE217F307D1F749
:104C10000895E0911D01F0911E0180919C07808311
:104C2000E0911D01F0911E01908180919B07892BDD
:104C3000808380918A07882361F0E0911D01F091C3
:104C40001E019081892B80830E94F825811110928A
:104C50008A0780911D0190911E010C94011A0C94F9
:104C6000F21A82E084BD93E095BD9DE797BD8093E5
:104C70006E0008952FB7F89480919E0790919F073A
:104C8000A091A007B091A1072FBF08952FB7F89466
:104C900060919E0770919F078091A0079091A10756
:104CA0002FBF0895CF92DF92EF92FF920F931F9341
:104CB0002FB7F89440919E0750919F076091A007ED
:104CC0007091A1072FBF6A017B01EE24FF248C01A4
:104CD00020E030E0C016D106E206F30610F44150A1
:104CE00051099A01281B390BC9011F910F91FF909F
:104CF000EF90DF90CF900895CF92DF92EF92FF92E6
:104D00000F931F932FB7F894C0909E07D0909F07E2
:104D1000E090A007F090A1072FBF97018601061B26
:104D2000170B280B390BC616D706E806F90618F03C
:104D3000C901B80106C0C901B801615071098109F2
:104D400091091F910F91FF90EF90DF90CF90089500
:104D500078941F920F920FB60F9211248F939F9306
:104D6000AF93BF9380919E0790919F07A091A0075A
:104D7000B091A1070196A11DB11D80939E0790934C
:104D80009F07A093A007B093A107BF91AF919F91F8
:104D90008F910F900FBE0F901F9018950E941216C2
:104DA000F8942FEF83ED90E3215080409040E1F79D
:104DB00000C0000087E090EBDC0180930208909334
:104DC0000308A0930408B09305089CE088E10FB69F
:104DD000F894A895809360000FBE90936000FFCF79
:104DE0001F920F920FB60F9211248F939F93AF9340
:104DF000BF938091A207813099F480919E07909192
:104E00009F07A091A007B091A1078096A11DB11D99
:104E100080939E0790939F07A093A007B093A1074C
:104E2000BF91AF919F918F910F900FBE0F901F90E8
:104E300018958091F807843009F432C00FB6F894C1
:104E4000A895809160008861809360001092600056
:104E50000FBE81E08093A20721E488E190E00FB6C5
:104E6000F894A895809360000FBE209360000E9484
:104E7000EC0C83B7817F846083BF83B7816083BF7D
:104E80007894889583B78E7F83BF0FB6F894A895E2
:104E900080916000886180936000109260000FBE76
:104EA00008950C94F10C2BE0929FF0011124E80F6F
:104EB000F11DEA59FE4F9491892F8F7092959F7042
:104EC00008958091A70780FF0BC06091220185E0C3
:104ED000689FB001112475956795759567952BC0EE
:104EE00081FF09C06091220185E0689FB001112413
:104EF0007595679520C082FF07C06091220185E00B
:104F0000689FB001112417C09091A8079923D1F090
:104F100060912101961788F72091220185E0289F52
:104F200090011124929FA001939F500D112470E0D5
:104F3000CA010E94F12D6038710540F461157105B8
:104F400039F002C065E070E0862F08958FE708957C
:104F500081E008958091A70780FF08C0609120013B
:104F600070E0759567957595679521C081FF06C0BE
:104F70006091200170E07595679519C082FF04C0AB
:104F80006091200170E010C09091A8079923C1F0B2
:104F900060911F019617A0F780912001899FC001A1
:104FA000112470E00E94F12D6038710528F461151C
:104FB000710521F0862F08958FE7089581E0089507
:104FC00061E070E0F4CF803F21F40E946127819579
:104FD00004C0813F29F40E9461278093AB070895A4
:104FE000823F21F40E946127819504C0833F29F408
:104FF0000E9461278093AA070895893F19F40E94AF
:10500000AA2705C08A3F31F40E94AA278195809380
:10501000AC0708958B3F21F40E94AA27819504C014
:105020008C3F29F40E94AA278093AD070895843FFE
:1050300021F48091A907816017C0853F21F48091F8
:10504000A907826011C0863F21F48091A90784607E
:105050000BC0873F21F48091A907886005C0883F75
:1050600031F48091A90780618093A90708958D3F4D
:1050700021F48091A70781600BC08E3F21F48091BD
:10508000A707826005C08F3F29F48091A70784603D
:105090008093A7070895803F39F48091AB0787FF7D
:1050A0006CC01092AB0769C0813F29F48091AB07B7
:1050B0001816BCF362C09091AA07823F29F497FFAB
:1050C0005CC01092AA0759C0833F19F41916CCF39B
:1050D00054C0893F41F48091AC0718160CF04DC0C4
:1050E0001092AC074AC08A3F29F48091AC0787FF31
:1050F00044C0F6CF8B3F39F48091AD0787FF3DC0A8
:105100001092AD073AC08C3F29F48091AD07181674
:10511000BCF333C0843F21F48091A9078E7F17C070
:10512000853F21F48091A9078D7F11C0863F21F42E
:105130008091A9078B7F0BC0873F21F48091A9073D
:10514000877F05C0883F31F48091A9078F7E8093C7
:10515000A90713C08D3F21F48091A7078E7F0BC054
:105160008E3F21F48091A7078D7F05C08F3F29F4E2
:105170008091A7078B7F8093A7078091AA07811151
:105180000EC08091AB0781110AC08091AC078111DC
:1051900006C08091AD07811102C01092A807089542
:1051A00089EA97E00E940C1A0E943A269093A4077D
:1051B0008093A30708950F931F93CF93DF9380915C
:1051C000DD068823C9F18091A5079091A6070E946A
:1051D00052260B9788F102EE16E0C4E0F8018191A7
:1051E0008F01882351F08C2F0E9446250E940926AA
:1051F0008C2F0E9488250E940926CF5FC63471F744
:105200008091DE06882391F08091A90781608093C8
:10521000A90789EA97E00E940C1A8091A9078E7F5E
:105220008093A90789EA97E00E940C1A0E943A2607
:105230009093A6078093A5078091A3079091A40758
:105240000E945226AC019091A807992321F0209149
:10525000230130E006C020912401FAE02F9F900145
:1052600011244217530708F486C08091AA07C09101
:10527000AB07D091AC071091AD07811107C0C111E8
:1052800076C0D11174C0111172C075C09F3F19F062
:105290009F5F9093A807181624F40E9461278093BB
:1052A000AA078091AA0787FF05C00E946127819500
:1052B0008093AA071C1624F40E9461278093AB07F1
:1052C0008091AB0787FF05C00E946127819580937D
:1052D000AB076091AA07662331F1C091AB07CC23DD
:1052E00011F1062E000C770B880B990B0E94E42C11
:1052F00023E333E343E35FE30E94482D0E94AC2C99
:105300006093AA076C2FCC0F770B880B990B0E9428
:10531000E42C23E333E343E35FE30E94482D0E9440
:10532000AC2C6093AB071D1624F40E94AA2780932F
:10533000AC078091AC0787FF05C00E94AA27819522
:105340008093AC07111624F40E94AA278093AD071E
:105350008091AD0787FF05C00E94AA2781958093A1
:10536000AD07DF91CF911F910F910C94D0289F3FF3
:1053700009F08ECF96CFDF91CF911F910F910895B5
:10538000E9EAF7E085E0DF011D928A95E9F71092DE
:10539000A8071092A7070895833081F128F481307F
:1053A00059F08230D1F00895853009F449C0B8F140
:1053B000863009F456C0089580912401262F30E0EC
:1053C000280F311D2F3F310524F4680F609324010D
:1053D00008958FEF80932401089580912301262F53
:1053E00030E0280F311D2F3F310524F4680F609302
:1053F000230108958FEF8093230108958091220166
:10540000262F30E0280F311D2F3F310524F4680F7F
:105410006093220108958FEF809322010895809177
:105420002101262F30E0280F311D2F3F310524F4B4
:10543000680F6093210108958FEF809321010895F3
:1054400080912001262F30E0280F311D2F3F31059C
:1054500024F4680F6093200108958FEF809320015A
:10546000089580911F01262F30E0280F311D2F3F16
:10547000310524F4680F60931F0108958FEF809326
:105480001F010895833011F128F4813049F08230F2
:1054900091F00895853081F120F18630C1F10895B1
:1054A00080912401681720F4861B809324010895BD
:1054B00010922401089580912301681720F4861B1F
:1054C0008093230108951092230108958091220171
:1054D000681720F4861B8093220108951092220100
:1054E000089580912101681720F4861B8093210183
:1054F000089510922101089580912001681720F4E9
:10550000861B8093200108951092200108958091B8
:105510001F01681720F4861B80931F0108951092C5
:105520001F0108950F931F938932E1F028F4813110
:1055300059F0E0F192EE04C08533A1F0B8F196EC99
:10554000980F9A3098F50EC00E94E11B0E94F01946
:105550008151914049F590911C0181E08927809308
:105560001C0122C092EE980F993010F48D5105C0A5
:1055700096EC980F993020F489538830A8F401C034
:1055800080E041E050E060E070E08A019B0104C0EF
:10559000000F111F221F331F8A95D2F7C901B801CE
:1055A0000E94C9230E94E11B81E001C080E01F919D
:1055B0000F91089580E00895CF93C82F8091AF0791
:1055C000813069F018F08230C9F181C0E0911D018D
:1055D000F0911E018081823209F07BC007C0E0910A
:1055E0001D01F0911E018081823261F48C2F0E9496
:1055F0008711811104C08C2F0E94922A1DC081E066
:1056000090E01AC08C2F0E94DA2A811114C0C43194
:1056100079F048F4CB3079F0C03109F05EC082E017
:105620008093AF0708C0C93219F0C83321F055C0C4
:105630001092AF0752C081E0817051C0C93279F138
:1056400008F5C43161F1B0F4C73009F044C08EE10F
:105650008093240182E3809323018AE080932201D6
:1056600084E18093210188E08093200188E2809387
:105670001F0131C082EE8C0F863068F5CD51C0938A
:10568000AE0729C0CE34E9F020F4CB3421F56AE02E
:1056900013C0C13579F0C235F1F461E00DC08091DD
:1056A000AE07882319F01092AE0715C081E08093F1
:1056B000AF0715C061E006C08091AE070E94CC29FB
:1056C0000AC06AE08091AE070E94422A04C010928C
:1056D000AF0780E004C081E002C080E0ADCFCF9191
:1056E0000895E1E8F0E080818860808380818160B6
:1056F00080838FB7F8949AE79093890092E1909312
:1057000088008FBF0895EFE6F0E08081826080839B
:1057100008958093B20708951F920F920FB60F92CB
:1057200011242F933F934F935F936F937F938F93A6
:105730009F93AF93BF93EF93FF938091B307882319
:10574000C1F08091B1078F5F8093B1079091B2074C
:10575000981778F41092B107E091B007F0E0E35D9C
:10576000FD4F84910E94CD068091B0078F5F80939A
:10577000B0070E940A07FF91EF91BF91AF919F91EF
:105780008F917F916F915F914F913F912F910F90EA
:105790000FBE0F901F9018956DEE7EEF80E090E0A9
:1057A0000E94FD3060E082E090E00E94DF3060E027
:1057B00083E090E00E94DF3060E084E090E00E94AF
:1057C000DF3060E085E090E00E94DF3060E086E05E
:1057D00090E00C94DF3080E090E00E94D93021E02E
:1057E0008D3E9E4F09F020E0822F089586E090E0E4
:1057F0000C94CB30682F86E090E00C94DF300E9450
:10580000EB2B811102C00E94CC2B0E94F62B8093BF
:105810000108811102C081E005C080FF02C08695A9
:1058200001C080E00C949A0680910108982F96950B
:10583000292F30E08170283031054CF49F5F990F9B
:10584000892B8160809301080E94FA2B03C080613C
:10585000809301088091010886950C949A068091A6
:10586000010880FF1EC0982F9695292F30E0223026
:10587000310594F09158990F8170892B809301081C
:105880008E7F91E009F490E08091010890FB80F90F
:10589000809301080E94FA2B8091010886950C9450
:1058A0009A06089580910108982F9095917090FB29
:1058B00080F980930108992339F0982F9E7F21F475
:1058C0008170826080930108809101080E94FA2B08
:1058D0008091010880FF02C0869501C080E00C9491
:1058E0009A0690910108892F86958F5F8F77917026
:1058F000893028F4880F892B8093010802C0909387
:105900000108809101088E7F91E009F490E0809178
:10591000010890FB80F9809301080E94FA2B809186
:10592000010886950C949A06880F90910108917051
:10593000892B809301088E7F91E009F490E080919B
:10594000010890FB80F9809301080E94FA2B809156
:10595000010886950C949A060E94B32C6894B111A4
:105960000C94422D08950E94272D88F09F5798F09F
:10597000B92F9927B751B0F0E1F0660F771F881F54
:10598000991F1AF0BA95C9F714C0B13091F00E946E
:10599000412DB1E008950C94412D672F782F882771
:1059A000B85F39F0B93FCCF3869577956795B39595
:1059B000D9F73EF490958095709561957F4F8F4F04
:1059C0009F4F0895E89409C097FB3EF49095809509
:1059D000709561957F4F8F4F9F4F9923A9F0F92FB5
:1059E00096E9BB279395F695879577956795B79533
:1059F000F111F8CFFAF4BB0F11F460FF1BC06F5F19
:105A00007F4F8F4F9F4F16C0882311F096E911C02A
:105A1000772321F09EE8872F762F05C0662371F04B
:105A200096E8862F70E060E02AF09A95660F771F5F
:105A3000881FDAF7880F9695879597F9089557FD8F
:105A40009058440F551F59F05F3F71F04795880FEC
:105A500097FB991F61F09F3F79F087950895121683
:105A600013061406551FF2CF4695F1DF08C016162F
:105A700017061806991FF1CF8695710561050894E0
:105A80000895E894BB2766277727CB0197F90895F7
:105A90000E945B2D0C94CC2D0E94BE2D38F00E94EC
:105AA000C52D20F0952311F00C94B52D0C94BB2D31
:105AB00011240C94422D0E941F2D70F3959FC1F369
:105AC000950F50E0551F629FF001729FBB27F00DAC
:105AD000B11D639FAA27F00DB11DAA1F649F662701
