:100000000C9478020C94BF020C94BF020C94BF02B3
:100010000C94BF020C94BF020C94BF020C94BF025C
:100020000C94BF020C94BF020C94F5190C94C81ADE
:100030000C9417150C94BF020C94BF020C94BF02D1
:100040000C94BF020C94BF020C94BF020C94BF022C
:100050000C94BF020C9462150C94BF020C94BF0266
:100060000C94BF020C94BF020C94BF020C94BF020C
:100070000C94BF020C94BF020C94BF020C94BF02FC
:100080000C94BF020C94BF020C94BF020C94BF02EC
:100090000C94BF020C94BF020C94BF020C94BF02DC
:1000A0000C94BF020C94BF020C94BF0229003A00CA
:1000B0003B003C003D003E003F004000410042004C
:1000C000430044004500015335001E001F0020007E
:1000D00021002200230024002500260027002D00F7
:1000E0002E0031002B0014001A0008001500170024
:1000F0001C0018000C00120013002F0030002A0012
:10010000296104001600070009000A000B000D0019
:100110000E000F003300340029002800E100000029
:100120001D001B000600190005001100100036001C
:1001300037003800E5000451E2000000E200E3006F
:100140000000000000002C420000000000000351ED
:10015000E700045129003A003B003C003D003E000E
:100160003F0040004100420043004400450001536D
:1001700035001E001F002000210022002300240063
:100180002500260027002D002E0031002B00140032
:100190001A000800150017001C0018000C001200BF
:1001A00013002F0030002A00E000040016000700B2
:1001B00009000A000B000D000E000F003300340090
:1001C00029002800E10000001D001B0006001900A6
:1001D000050011001000360037003800E50004511A
:1001E000E2000000E200E3000000000000002C003C
:1001F0000000000000000351E70004512900000046
:1002000000000000000000000000000000000000EE
:1002100000000000000000003500000000000000A9
:1002200000000000000000000000000000000000CE
:10023000000000002B000000520000000000000041
:1002400000000000000000004600AA00A9004C00C9
:10025000E000500051004F0000000000500051002D
:1002600052004F000000000000000000E10000000C
:100270000000000000000000000000000000AC00D2
:10028000AB00AE0000000000E2000000E200E3006E
:10029000000000000000010000000000000000005D
:1002A000000000000000000000000000000000004E
:1002B000000000000000000000000000000000003E
:1002C0001114000000000000000000000C140000E9
:1002D0000000000000002D080000000000000000E9
:1002E000000000000000000000000000000000000E
:1002F00000000000000000000000000000000000FE
:1003000000000000000000000000000000000814D1
:1003100000000000000000000000000006140000C3
:1003200000000000000000000000000000000000CD
:1003300000000000000000000000000000000000BD
:10034000000000000000010000000000005C000050
:10035000000000000000000000000000000000009D
:100360000000000000000000005C00000000000031
:10037000000000000000000000000000000000007D
:10038000000000000000000000000000000000006D
:10039000000000000000000000000000000000005D
:1003A000000000000000000000000000000000004D
:1003B00000000000000000000153000000000000E9
:1003C000000000000000000000000000000000002D
:1003D000000000000000010000000000000000001C
:1003E000000000000000000000000000000000000D
:1003F000000001000403300000000E034D00430024
:100400002D00370036004B00000020035900690022
:1004100061006E006300610072002D004400650001
:100420007300690067006E00730000000403090494
:1004300009023B00020100A0FA09040000010301C7
:100440000100092111010001224000070581030874
:10045000000A090401000103000000092111010044
:10046000012232000705820320000A120110010058
:100470000000086889434D010001020301050109DC
:1004800080A101850319012AB700150126B700953F
:100490000175108100C0050C0901A1018504190135
:1004A0002AA002150126A002950175108100C00541
:1004B000010906A101050719E029E71500250195A5
:1004C0000875018102950175088101050719002948
:1004D000FF150026FF009506750881000508190123
:1004E0002905950575019102950175039101C000DB
:1004F00011241FBECFEFDAE0DEBFCDBF04B603FE8E
:1005000027C08091540290915502A0915602B0915B
:1005100057028730904BA740B04BD1F41092540251
:1005200010925502109256021092570214BE84B7D0
:10053000877F84BF0FB6F894A8958091600088618A
:1005400080936000109260000FBEE0E0F8E3099530
:1005500011E0A0E0B1E0E2EDF9E302C005900D92F8
:10056000AE37B107D9F722E0AEE7B1E001C01D9286
:10057000A435B207E1F70E943A170C94C11C0C9401
:100580000000529A0895CF93C82F0E943103882308
:1005900019F0C1FD03C05A9ACF9108955A98FCCF23
:1005A00081E0089581E008950C94D20208950C949E
:1005B000D6021F93CF93DF9300D000D00F92CDB718
:1005C000DEB749835A836B833091B00189819A8168
:1005D00031111DC06623B9F02223A9F00E947F12B9
:1005E000182F682F89819A810E94281269817A8147
:1005F000812F0F900F900F900F900F90DF91CF9160
:100600001F910C9487030E945612182FEFCF0E945F
:100610007F1269817A81EDCFFC01262F40815181C3
:100620006281738184810C94D902CF93DF93D82F98
:10063000C92F60E00E940C036D2F7C2FDF91CF91BA
:100640000C94D7020E94AC150E94C613811102C0FF
:100650000E9463140C9464050C94670508950C942F
:100660002E0381E00895CF93C82F0E942F038C2F73
:10067000CF910C94C30208950E94550D0E943B0334
:100680002FEF84E39CE0215080409040E1F700C0D0
:1006900000000C9486150F931F93CF93DF93EC010A
:1006A00061E00E940C038C01BE010E94D4028823E9
:1006B00029F1BE01C8010E9427078823F9F0BE0175
:1006C000C8010E947C078823C9F0BE01C8010E94AE
:1006D0004F08882399F08A81882339F001158CE529
:1006E000180751F00E3D1C4579F0CE01DF91CF91F6
:1006F0001F910F910C94D0020E943C0380E0DF9187
:10070000CF911F910F9108950E946314F7CF972FF7
:1007100070E02EE0929F600D711D1124FB0194E5A5
:10072000899FE00DF11D1124EE0FFF1FE455FF4FCF
:10073000859194910895CF93DF930E9487030E943F
:100740008804EC01811522E5920708F054C0811558
:1007500031E5930708F0AFC08F3B9105B8F4883AB4
:10076000910508F09AC0853A910568F4049738F429
:1007700081E0219709F080E0C82F40E0D42FCE011E
:10078000DF91CF910895A497D064F9CFC11580E58A
:10079000D807A0F4C11590E4D90708F089C0C83E75
:1007A000D10530F4C03ED10550F7D0E0C0E0E7CF2E
:1007B000CE019A9581159F4110F3F7CFCE01F4E059
:1007C00096958795FA95E1F783702C2F26952695B7
:1007D000237040E2249F90011124382B8C2F8370CA
:1007E000C1E0D0E002C0CC0FDD1F8A95E2F7C22B3A
:1007F000D32BDC68C4CFC11586E5D80730F5C11509
:1008000095E5D90708F06BC0C11524E5D207C0F4FF
:100810008C2F869586959E0123703327C115D3456D
:1008200008F04EC0C1E0D0E002C0CC0FDD1F2A9519
:10083000E2F720E2829FC0011124C82BD92BD9CF27
:10084000DC2FCC27C46FD06A9ACFC1153AE5D30705
:1008500088F4C11549E5D40708F04CC0CE0198557D
:100860008F3F910511F008F0A0CFDC2FCC27C06F8F
:10087000D06A85CFCE0190568115904208F095CF71
:100880008D2F8F710E94200590E0982F8827882750
:100890009F719C012C2BE9012BC0C85AD0E0CC0FD2
:1008A000DD1FC35FDE4F0990D881C02DD46467CFB0
:1008B000DF70D06A64CFD82FCC27C16FD06A5FCFEA
:1008C000C1E0D0E002C0CC0FDD1F2A95E2F730E294
:1008D000839FC0011124C82BD92BDA6850CF8C2FED
:1008E0000E942005C82FD0E0DC2FCC27CC27DF7159
:1008F000D06245CF8C2F8F700E94200534E0D695B2
:10090000C7953A95E1F7CF70DC2FC82FD06937CF64
:10091000803E910599F1C8F48133910509F476C0C0
:1009200048F48932910509F46AC08A32910509F4C4
:1009300074C0089589339105D1F082389105B9F0DA
:100940008533910509F454C00895843E910599F1C9
:1009500038F4823E9105F9F0833E910509F108953E
:10096000863E910599F1873E9105B9F10895209150
:100970003B022370A1F080EE90E0089520913B02AD
:1009800020FD52C030913C0230FF09C024FF4FC00F
:1009900090E080E004C020913B0222FDF7CF089553
:1009A00020913B0222FD46C030913C0230FDE3CF56
:1009B00024FFF5CFEDCF20913C0221FFF0CF8091B5
:1009C0003B0284FDE5CF87EE90E0089520913B0245
:1009D00023FFE5CF24FDDCCFF6CF20913B0223FDA2
:1009E0002CC030913C0231FFE3CF84EE90E00895BB
:1009F00020913B0225FFD3CF89E290E0089520911A
:100A00003B0225FFCCCF85E390E0089520913B0287
:100A100026FFC5CF8AE290E0089520913B0226FF91
:100A2000BECF81E390E0089589E390E0089583EEDE
:100A300090E0089582EE90E0089586EE90E00895AB
:100A400090913B0292FF06C0282F28712830F9F4BC
:100A5000877F846093FF06C0282F28712831F1F426
:100A6000877E846120913C0220FF06C0382F3871B8
:100A70003830D9F4877F816021FF06C0282F287184
:100A80002831D1F4877E816194FD877E0895282FD7
:100A900024712430F9F68B7F8860DCCF282F2471F5
:100AA000243101F78B7E8861DDCF382F31713130F1
:100AB00019F78E7F8860E0CF282F2171213121F72F
:100AC0008E7E8861E1CF08950C94630508950C949F
:100AD0006605E82FF0E0EE0FFF1FE258FE4F808121
:100AE00091810895089580EA8A95F1F70895CF934A
:100AF000DF93C9E4D1E02FE431E041E050E0899197
:100B0000E82FE295EF70A1E2AE0FB0E0FC918F709C
:100B1000BA0101C0660F8A95EAF7962F90959F2338
:100B20009C93EE5DF0E08081862B80832C173D073F
:100B300031F7CBE3D1E029E431E041E050E08991A5
:100B4000E82FE295EF70A1E2AE0FB0E0FC918F705C
:100B5000BA0101C0660F8A95EAF7962F90959F23F8
:100B60009C93EE5DF0E08081862B80832C173D07FF
:100B700031F78CE0EAE8F1E0DF01982F1D929A95B9
:100B8000E9F7EEE7F1E0DF011D928A95E9F786E0EB
:100B90000E946206DF91CF910C9422036F927F92A4
:100BA0008F929F92AF92BF92CF92DF92EF92FF927D
:100BB0000F931F93CF93DF9389E4C82E81E0D82E43
:100BC0009AE8E92E91E0F92E712C88248394912CD7
:100BD000F60181916F01C82FC295CF7001E20C0F11
:100BE00010E0F80190818F70540101C0AA0C8A9521
:100BF000EAF7892F8A298083CE5DD0E088816A2C2C
:100C00006094862188830E947305EBE3F1E050E055
:100C100040E030E020E06191A62FA295AF70A05E89
:100C2000B0E08C9190E06F7002C0959587956A95C1
:100C3000E2F780FD42C0C401042E02C0880F991F54
:100C40000A94E2F7282B392B4F5F5F4F4E30510546
:100C500011F7F8018081682260828881A82AA88221
:100C6000F701808191812817390751F13183208361
:100C700081E0782AF2E0EF0EF11C8FE4C81681E0E3
:100C8000D80609F0A5CF272D46E06EE771E08AE887
:100C900091E00E9463060E942C03872DDF91CF9183
:100CA0001F910F91FF90EF90DF90CF90BF90AF908A
:100CB0009F908F907F906F90089580E090E0C2CFDA
:100CC00080E0D7CF0895FF920F931F93CF93DF93C8
:100CD000F82E092F162FD72FC42F222349F081E099
:100CE000809398010E9447159093970180939601F5
:100CF000809198018823A1F08091960190919701AD
:100D00000E945315069760F0EF2DF02FA12FBD2FF5
:100D100090E080E0D0E08C179D0744F0109298019D
:100D2000DF91CF911F910F91FF9008952191319103
:100D30002D933D930196EFCFAF92BF92CF92DF926A
:100D4000EF92FF920F931F93CF93DF937C015B0190
:100D5000C42FD22FFC0182818823F9F040939B019C
:100D60000E94471590939A018093990180E28C0F1D
:100D7000883008F061C0C77081E001C0880FCA9553
:100D8000EAF7DF91CF911F910F91FF90EF90DF90E5
:100D9000CF90BF90AF900C949C0A10919B011413BC
:100DA00040C08091990190919A010E9453156C0165
:100DB000B701C5010E94B70FC816D90690F5C0E269
:100DC000CD0F1D17B9F080E2810F883040F4177005
:100DD00081E001C0880F1A95EAF70E94A30AC83083
:100DE00048F481E09D2F977001C0880F9A95EAF72B
:100DF0000E949C0A802F0E94890AC830E8F4D770AC
:100E000081E001C0880FDA95EAF7DF91CF911F9159
:100E10000F91FF90EF90DF90CF90BF90AF900C9428
:100E2000A30A80E28C0F883038F4C77081E001C0DB
:100E3000880FCA95EAF7E9CFDF91CF911F910F9103
:100E4000FF90EF90DF90CF90BF90AF9008950F93F9
:100E50009C01CB01233F4CE53407A1F190F4283DE0
:100E6000FCE53F0749F1293D4CE53407E9F1273D11
:100E70003C45C1F0FC0182818823E1F110929B0185
:100E800019C0253FFCE53F0719F1263F4CE5340723
:100E900029F1243F3C4571F707E225EE44EE64EF6B
:100EA0007CE505C006E221EE41EE67ED7CE50E949F
:100EB0009C0680E00F91089507E225EE45EE68ED6F
:100EC0007CE5F5CF06E221EE40EE63EF7CE5EFCF67
:100ED00006E221EE42EE65EF7CE5E9CF07E225EE82
:100EE00046EE66EF7CE5E3CF08E221E045EE69EDF2
:100EF0007CE5DDCF81E0DECFCF93DF93EC01FB011A
:100F00008281882309F4C9C0C631FCE5DF07E0F41B
:100F1000C2309CE5D907F0F00E94D91390933C02AF
:100F200080933B02C631ECE5DE0720F5C230FCE5DC
:100F3000DF0798F480913B0290913C020E94E713F6
:100F40000E94550D80E006C09E012A5F3C45293075
:100F5000310510F3DF91CF910895FE01E350FC4578
:100F600080913B028160E331F10588F4ED53F34E4B
:100F70000C94791CCA5FDC45C930D105D8F6CA5239
:100F8000D34EFE010C94791C80913B0282608093C9
:100F90003B02D0CF80913B028460F9CF80913B022D
:100FA0008860F5CF80913C02816080933C02C2CF83
:100FB00080913C028260F9CF80913B028061E7CF53
:100FC00080913B028062E3CF80913B028064DFCF5F
:100FD0000E94550D80913B028068D9CF80913B02E1
:100FE0008C60D5CF80913C028360DFCF80913B0243
:100FF0008E7FCDCF80913B028D7FC9CF80913B0208
:101000008B7FC5CF80913B02877FC1CF80913C020F
:101010008E7FCBCF80913C028D7FC7CF80913B02EA
:101020008F7EB5CF80913B028F7DB1CF80913B0207
:101030008F7BADCF0E94550D80913B028F77A7CF5C
:1010400080913B02837FA3CF80913C028C7FADCF08
:1010500080913B0282FB992790F921E0922790FB37
:1010600082F990FB83F993CF80913C02982F909561
:1010700091708E7F892B90FB81F997CF0E94550D3F
:1010800090913B02892F97FB87F9805880CF81E0B0
:101090000E9465144FCF80E0FBCF81E05BCFCF9300
:1010A000DF93EB0186319C4511F50E941C139A8158
:1010B000992399F08A7A91E009F490E090939C0149
:1010C000811109C089E20E94F7120E945D1380E03D
:1010D000DF91CF91089585E3F6CF80919C01811136
:1010E00004C089E20E94FE12F0CF85E3FBCF81E0CD
:1010F000EFCF9093A2018093A1010895E091A10107
:10110000F091A201309721F00190F081E02D099437
:1011100080E00895E091A101F091A201309721F0C3
:101120000280F381E02D0994089520919F01309170
:10113000A0012817390771F09093A00180939F01B7
:10114000E091A101F091A201309721F00680F78192
:10115000E02D0994089520919D0130919E0128175A
:10116000390771F090939E0180939D01E091A10158
:10117000F091A201309721F00084F185E02D0994CF
:10118000089585B7806885BF85B7806885BF089555
:10119000089508950C94C9080E94C1080E94C808C7
:1011A0000C94C10281E008950C94D2080E943E156F
:1011B0000E9477050E94C0150C94CA089F92AF92B6
:1011C000BF92CF92DF92EF92FF920F931F93CF9334
:1011D000DF9300D000D00F92CDB7DEB70E94CE05CE
:1011E0000E94D408882309F46CC054EAA52E51E06B
:1011F000B52E10E000E0902E802F0E9469057C0142
:10120000F501C190D1905F01C816D90609F453C009
:101210008091350281FD0E94720596012E253F25A1
:1012200080E0CC24C394D12CA9014C215D21452B15
:10123000E1F189839A82EC20FD2081E0EF2809F416
:1012400080E08B830E9447158160782F9D838C837B
:1012500049815A816B818D810E948309000F111F82
:10126000F801EC55FE4F80819181C826D926D182A4
:10127000C0820E947E089091A301891799F10E9473
:101280007E088093A3010F900F900F900F900F9006
:10129000DF91CF911F910F91FF90EF90DF90CF9052
:1012A000BF90AF909F900C9433038F5FCC0CDD1CEC
:1012B0008E3009F0B9CF0F5F1F4F0630110509F0CE
:1012C0009ACF8FEF89838A831B820E9447158160A2
:1012D000782F9D838C8349815A816B818D810E94F7
:1012E0008309C7CF0F900F900F900F900F90DF9151
:1012F000CF911F910F91FF90EF90DF90CF90BF9013
:10130000AF909F900895CF93DF93CDB7DEB72B9723
:101310000FB6F894DEBF0FBECDBF4F8358876987E5
:101320007A878B871E8285E0FE013796DE01119653
:1013300001900D928A95E1F749815A816B817C81F8
:101340008D819E812B960FB6F894DEBF0FBECDBF68
:10135000DF91CF910C94BA0FFC01808191810C94A4
:10136000C112CF93C82F882309F482C08238C1F4F8
:101370000E947E0881FD7CC089E30E94F7120E94D2
:101380005D132FEF31EE84E0215030408040E1F7D3
:1013900000C0000089E30E94FE12CF910C945D13FF
:1013A0008338A1F40E947E0880FD62C083E50E941C
:1013B000F7120E945D139FEF21EE34E09150204020
:1013C0003040E1F700C0000083E5E5CF8438A1F4A8
:1013D0000E947E0882FD4CC087E40E94F7120E94A2
:1013E0005D138FEF91EE24E0815090402040E1F7B3
:1013F00000C0000087E4CFCF8CEF8C0F813A90F4CF
:101400006C2F80910001909101010E947C1488232F
:1014100029F08C2F0E94FE120E945D138C2F0E94D7
:10142000F712BBCF80E28C0F883048F4C77081E0A0
:1014300001C0880FCA95EAF70E941F13AECF8BE553
:101440008C0F833038F42C2F2452330BC901CF91E9
:101450000C949508C85AC73158F4EC2FF0E0EE0F01
:10146000FF1FE15BFE4F80819181CF910C94AB080F
:10147000CF910895882309F44BC0823871F40E94FB
:101480007E0881FF45C089E30E94F7120E945D1328
:1014900089E30E94FE120C945D13833859F40E9474
:1014A0007E0880FF35C083E50E94F7120E945D131D
:1014B00083E5EFCF843859F40E947E0882FF28C06C
:1014C00087E40E94F7120E945D1387E4E2CF9CEF4D
:1014D000980F913AF0F290E2980F983050F487709C
:1014E00091E001C0990F8A95EAF7892F0E94251390
:1014F000D2CF9BE5980F933020F490E080E00C94DD
:101500009508885A873120F490E080E00C94AB086D
:101510000895CF93C82F0E94B109C93349F42FEF22
:1015200087EE93E0215080409040E1F700C000003A
:101530008C2FCF910C943A0A882321F00E941F131C
:101540000C945D130895882321F00E9425130C94B8
:101550005D130895CF92DF92EF92FF920F931F9346
:10156000CF93DF9300D000D00F92CDB7DEB77C01D0
:101570006D837983FC01058102950F701281111131
:101580000E943E130E941513C82E882399F0112340
:1015900009F441C08981807F803421F08D81805E93
:1015A0008830C8F182E00E94A8130E94151391E0D0
:1015B000C82EC926D980D2948FE0D822F8E0DF1651
:1015C00009F4FCC0FD1508F456C023E02D1528F1E0
:1015D0008981807F39813F70398391E09D1508F0C2
:1015E0005DC0803221F029812295207F29833D81B1
:1015F000332309F48AC0313009F4A7C0112309F458
:10160000AFC0002309F4A6C0F701858180FF5DC04B
:101610008F7085839FC0C12CCDCFE4E0DE1609F426
:10162000B1C0ED2DE850FF0B349720F40E947E08E6
:101630000E943303CC2009F4D9C10E94111380FD0C
:10164000D5C1F70112820E940B130E941811C70125
:101650000E941B0D0E940B130F900F900F900F9084
:101660000F90DF91CF911F910F91FF90EF90DF903E
:10167000CF900C944911F9E0DF1609F44BC186E0D4
:101680008D0D8F70823068F62D81223F09F053C195
:1016900089818F71112309F481C14AC1882321F006
:1016A00009810295007F09831123B9F01981112363
:1016B00061F08D81805E883018F00D81011109C0C4
:1016C00089810E941F130E945D138D810E94B109C0
:1016D000A8CF89810E943013F6CF8D810E943A0AEB
:1016E0001981112309F49DCF8D81805E883018F017
:1016F0000D81011106C089810E9425130E945D138E
:1017000090CF89810E943613F9CF112391F00111F6
:1017100007C00E9444130981802B0E949C0A81CF3C
:101720000130B9F70E9444131981812B0E944A139A
:1017300078CF011106C00E94531389810E94A30A29
:1017400070CF013009F46DCFF6CF112329F00630A8
:1017500008F067CF8981E1CF053008F062CFEDCF87
:10176000002359F30D81093349F41FEF27EE33E0CD
:10177000115020403040E1F700C000008D810E94F0
:101780003A0A4FCF898186958695837069F08130BA
:1017900009F047CF8D8199819370111102C090E0BB
:1017A00080E00E94AB083DCF8D819981937011112B
:1017B00002C090E080E00E94950833CF8981837059
:1017C00009F050C011112DCF2D812295269527703B
:1017D000220F220F8D818F7090E0B0E0A0E0022EEA
:1017E00004C0880F991FAA1FBB1F0A94D2F70D814E
:1017F00040E050E0BA0104FF0FC04FE050E060E06D
:1018000070E004C0440F551F661F771F2A95D2F75A
:1018100040955095609570951981169516951370A1
:101820001D838A019B01082B192B2A2B3B2B098333
:101830001A832B833C831D8169817A818B819C81F2
:10184000123051F0133059F0113019F00E948E10FF
:10185000E8CE0E946610E5CE0E94B610E2CE0E944D
:101860006410DFCE112309F448C0098100FFD9CEEE
:101870002D81229526952770220F220F8D818F7042
:1018800090E0B0E0A0E0022E04C0880F991FAA1FCC
:10189000BB1F0A94D2F70D8140E050E0BA0104FF6B
:1018A0000FC04FE050E060E070E004C0440F551FEF
:1018B000661F771F2A95D2F74095509560957095D1
:1018C00019811695169513701D838A019B01082BAB
:1018D000192B2A2B3B2B09831A832B833C831D81D5
:1018E00069817A818B819C81123071F0133079F09B
:1018F000113039F00E94D71194CE198111FF91CE89
:10190000B7CF0E94AF118DCE0E94FF118ACE0E94E8
:10191000E21087CE09810F700983112329F0802FEF
:101920000E9418118D81F9CE8D810E94A30A8981B0
:101930000E94491176CE2D81233F60F4203FE1F0D3
:10194000213F41F1112309F440C00111BECE89812C
:101950008F7124C03D81333F21F1343F99F711232A
:1019600051F109810F710983802F0E94181163E0E2
:1019700089810E94931355CE112341F0053008F060
:1019800050CE89818F710E947E114BCE063008F0B7
:1019900048CEF7CF89818F71112351F20E9418111F
:1019A00040CE112329F089818F710E94F31039CE26
:1019B0000E94EE1036CE81E00E94A813023008F497
:1019C00030CE82E00E94A8132CCE002361F01D814E
:1019D000193309F0D3CE2FEF37EE83E0215030409A
:1019E0008040E1F7C9CE89818F71A2CF0F900F900F
:1019F0000F900F900F90DF91CF911F910F91FF905B
:101A0000EF90DF90CF9008950F931F93CF93DF93C4
:101A1000EC01688179818A810E94CD128C010E943B
:101A200027120E946310B801CE01DF91CF911F9160
:101A30000F910C94AA0ACF93DF93EC018B819C81C8
:101A4000892B29F08981988189238F3F59F4DF916F
:101A5000CF910895CE010E94040DCE01DF91CF9168
:101A60000C941503CE010E944B038111F3CF0E9409
:101A70001513882361F38A81882349F382E0DF917B
:101A8000CF910C94A8130E943E130E9441130E9410
:101A90005D1390E080E00E94950890E080E00C9457
:101AA000AB080E9405130C94430D0E942D130C9457
:101AB000510D282F892F82958F70903C80F48A30A9
:101AC000B0F4843020F4823090F480E008958630C1
:101AD000E1F781E0283E88F0213FB9F70EC08C3055
:101AE00011F08F3091F793FB882780F9089581E0FA
:101AF000203F39F018F4283E40F70895243F29F795
:101B0000FCCF08950E94C1120C94590DCF93DF931E
:101B100000D000D00F92CDB7DEB70F900F900F908E
:101B20000F900F90DF91CF910895CF93DF9300D066
:101B300000D000D0CDB7DEB726960FB6F894DEBF42
:101B40000FBECDBFDF91CF9108951F93CF93DF9349
:101B5000E091B10116E08091B2018E1304C0DF91D3
:101B6000CF911F910895CE2FD0E01E9FF001112438
:101B7000ED54FE4F40815181628173818481958152
:101B80000E94950DFE013196E770E5CF4091E3018B
:101B90005091E4016091E5017091E6018091E701C7
:101BA0009091E8010C94950D1F93CF93DF93809152
:101BB000E801807FA9F48091E501882389F0809174
:101BC000B101C091B2017091E3016091E401A09173
:101BD000E601B091E701D62FD72316E0C81304C061
:101BE000DF91CF911F91089590E0109711F0DF3FA2
:101BF00019F401968770F2CF189F9001199F300D4C
:101C00001124F901ED54FE4F41816413F2CF40815C
:101C10004713EFCF42814111ECCF438154814A1BDE
:101C20005B0B483C510528F78091E8018F7080617B
:101C30008093E801F901E854FE4F80818F70806144
:101C4000808383EE91E00E941B0DDF91CF911F9165
:101C50000C94A50DAF92BF92CF92DF92EF92FF92BC
:101C60000F931F93CF93DF93CDB7DEB72B970FB6AC
:101C7000F894DEBF0FBECDBF8C0185E0F801DE0118
:101C8000179601900D928A95E1F7F80140815181F4
:101C9000E28083EEA82E81E0B82E6091E60170917B
:101CA000E7016115710549F09091E3012091E4018C
:101CB000892F82238F3F09F045C1EE2009F453C1DB
:101CC0004F8358878F8198850E94820DF82E882334
:101CD00009F449C186E0F801A3EEB1E001900D924C
:101CE0008A95E1F783EE91E00E94AC090E94D40D41
:101CF00026C18091E801382F307F683C710508F0DB
:101D00007CC03111B5C0FE2C251324C0941322C011
:101D1000E11020C08F7080618093E8010E94C60DA1
:101D200083EE91E00E941B0D8091E801F80185830C
:101D30008F2D2B960FB6F894DEBF0FBECDBFDF916F
:101D4000CF911F910F91FF90EF90DF90CF90BF90B8
:101D5000AF900895CD2829F0842F85238F3F09F077
:101D600084C080E0F82FF170DF2EE091B101209166
:101D7000B20136E080FD1CC0EE20D1F28091E80176
:101D800081608093E801F12CD3CF8E2F90E03E9FAD
:101D9000F0011124ED54FE4F6181651306C060818E
:101DA000641303C062816E11E7CFFC013196E770C6
:101DB000E213EBCF4F8358878F8198850E94C11221
:101DC000292F22952F70903260F0225F2F702230E1
:101DD00078F49F7051F0F8019581907F31F4D12C07
:101DE0000AC09F7011F08823D1F3805E8830B8F369
:101DF000C8010E941B0DFD2C9BCF31116EC06E2DB2
:101E00007A858B850E94860D83EE91E00E941B0DE2
:101E100086E0F50111928A95E9F70E94C60DB3CFCD
:101E200086E0F801A3EEB1E001900D928A95E1F70A
:101E30007FCF4F8358878F8198850E94820D8111B3
:101E40003DC08091E80181608093E801C8010E9453
:101E50001B0D6ECF6E2D7A858B850E94860D86E0D8
:101E6000F50111928A95E9F76AC081E08E257ACF53
:101E7000251306C0941304C0F801EE2009F453C0E2
:101E80004F8358878F8198850E94820D882309F49B
:101E90006AC0EE2009F467C08091E801803270F0DA
:101EA0002091E3013091E4013A8329831B82DD8292
:101EB000CC828E83CE0101960E941B0D86E0F80134
:101EC000A3EEB1E001900D928A95E1F70E94D40D46
:101ED0000E94C60DFF24F3942BCF2513D1CF94136A
:101EE000CFCFE110CDCFF8018583C8010E941B0D33
:101EF00086E0F50111928A95E9F71ACF251399CF5B
:101F0000941397CF8091E80180FD8ACF982F907F1E
:101F100009F486CFF8018583903F31F0982F907FA8
:101F2000905F8F70892B8583C8010E941B0D86E00E
:101F3000F801A3EEB1E001900D928A95E1F70E94BD
:101F4000C60DF6CEC380D480F090E501F601E61B05
:101F5000F70BBF01F110CDCE683C710508F07ACFC8
:101F6000FE2CE110CBCFC8010E941B0DB3CF88EC33
:101F700090E008951F93CF93DF93CDB7DEB72C97F2
:101F80000FB6F894DEBF0FBECDBF4F835887698769
:101F90007A878B879C87CE0107960E942A0E88231A
:101FA00069F08A859B85892B39F058854F81852F6B
:101FB00084238F3F09F071C016E05FC086E0FE0108
:101FC0003796DE01119601900D928A95E1F78A8588
:101FD0009B85892B89F38F81988589238F3F61F3B6
:101FE0002091B20130E0C901019687709927409194
:101FF000B1014817190671F40E94550D1092B201F3
:102000001092B10186E0E3EEF1E0DF011D928A95C6
:10201000E9F7D2CF96E0929FD001939FB00D1124A3
:10202000AD54BE4FFE01319601900D929A95E1F7A5
:102030008093B2010E94A50DBFCF819FC0011124E2
:102040008D549E4F0E942A0E8823E9F0E091B10141
:102050001E9FF0011124ED54FE4F40815181628199
:102060007381848195810E94950D8091B10190E0EA
:102070000196877099278093B1018091B101909169
:10208000B2018913DACF2C960FB6F894DEBF0FBEDB
:10209000CDBFDF91CF911F91089569857A858B859A
:1020A0009C850E94950D88CF08950C9454100E9431
:1020B000551060932402709325028093260290931A
:1020C00027020C94430D08950C945710CF93DF937F
:1020D00000D000D0CDB7DEB769837A838B839C8331
:1020E0008091240290912502A0912602B0912702AE
:1020F00029813A814B815C81282B392B4A2B5B2B20
:1021000029833A834B835C83CA01B9010F900F90F6
:102110000F900F90DF91CF910C945710CF93DF93D6
:1021200000D000D0CDB7DEB769837A838B839C83E0
:102130008091240290912502A0912602B09127025D
:1021400029813A814B815C81282339234A235B23EF
:1021500029833A834B835C83CA01B9010F900F90A6
:102160000F900F90DF91CF910C945710CF93DF9386
:1021700000D000D0CDB7DEB769837A838B839C8390
:102180008091240290912502A0912602B09127020D
:1021900029813A814B815C81282739274A275B278F
:1021A00029833A834B835C83CA01B9010F900F9056
:1021B0000F900F90DF91CF910C9457100C94541006
:1021C0000C94DE100E94E0106093200270932102B4
:1021D00080932202909323020C94430D60E070E000
:1021E000CB010C94E2100F931F93CF93DF9300D099
:1021F00000D0CDB7DEB741E050E060E070E08A018A
:102200009B0104C0000F111F221F331F8A95D2F7B4
:1022100009831A832B833C83C901B8010F900F9067
:102220000F900F90DF91CF911F910F910C94E210BE
:102230000F931F93CF93DF9300D000D0CDB7DEB7BD
:1022400041E050E060E070E004C0440F551F661F9D
:10225000771F8A95D2F78091200290912102A09158
:102260002202B09123028A019B01082B192B2A2BF1
:102270003B2B09831A832B833C83C901B8010F9040
:102280000F900F900F90DF91CF911F910F910C94B1
:10229000E2100F931F93CF93DF9300D000D0CDB700
:1022A000DEB741E050E060E070E004C0440F551F2D
:1022B000661F771F8A95D2F7409550956095709567
:1022C0008091200290912102A0912202B0912302DC
:1022D0008A019B01082319232A233B2309831A839C
:1022E0002B833C83C901B8010F900F900F900F9082
:1022F000DF91CF911F910F910C94E2100F931F93D8
:10230000CF93DF9300D000D0CDB7DEB741E050E0EF
:1023100060E070E004C0440F551F661F771F8A9568
:10232000D2F78091200290912102A0912202B091D7
:1023300023028A019B01082719272A273B270983A3
:102340001A832B833C83C901B8010F900F900F9023
:102350000F90DF91CF911F910F910C94E210CF93CA
:10236000DF9300D000D0CDB7DEB769837A838B834B
:102370009C838091200290912102A0912202B09131
:10238000230229813A814B815C81282B392B4A2BEE
:102390005B2B29833A834B835C83CA01B9010F907D
:1023A0000F900F900F90DF91CF910C94E210CF938C
:1023B000DF9300D000D0CDB7DEB769837A838B83FB
:1023C0009C838091200290912102A0912202B091E1
:1023D000230229813A814B815C81282339234A23B6
:1023E0005B2329833A834B835C83CA01B9010F9035
:1023F0000F900F900F90DF91CF910C94E210CF933C
:10240000DF9300D000D0CDB7DEB769837A838B83AA
:102410009C838091200290912102A0912202B09190
:10242000230229813A814B815C81282739274A2759
:102430005B2729833A834B835C83CA01B9010F90E0
:102440000F900F900F90DF91CF910C94E2100895B0
:10245000E82F2EE0929FE00D11248E2F877041E02F
:1024600001C0440F8A95EAF7E695E695E69585E082
:10247000E89FF0011124E751FE4F30E020E070E0CA
:102480005191DF011197CB01022E02C096958795DD
:102490000A94E2F7817081958527842385278C93A0
:1024A0002F5F3F4F2530310559F70895E82F2EE073
:1024B000929FE00D11249E2F9770E695E695E69584
:1024C00085E0E89FF0011124E751FE4F50E040E025
:1024D00080E0219130E0092E02C0369527950A94BC
:1024E000E2F721703327042E01C0220F0A94EAF785
:1024F000822B4F5F5F4F4530510559F70895BF92CA
:10250000CF92DF92EF92FF920F931F93CF93DF93BF
:102510008C01C0902002D0902102E0902202F09025
:1025200023028091240290912502A0912602B0916D
:102530002702C82AD92AEA2AFB2ACFE1D0E0BC2EFA
:10254000D701C6010C2E04C0B695A795979587951F
:102550000A94D2F780FD0EC0219788F7B12C8B2DFD
:10256000DF91CF911F910F91FF90EF90DF90CF906F
:10257000BF900895B8018C2F0E949B03019761F3CF
:10258000EECFCF93DF93D82FC92F0E947F126D2FEC
:102590007C2FDF91CF910C949B031F93CF93DF93FC
:1025A000162FD72F9091B001992339F0862F972FAE
:1025B000DF91CF911F910C94C112882391F0862F47
:1025C000972F0E947F12C82F682F812F9D2F0E9466
:1025D0002812612F7D2F8C2FDF91CF911F910C94AA
:1025E0009B03862F972F0E945612C82FF2CF682F79
:1025F00080910001909101010C94B614682F809194
:102600000001909101010C94B81480910001909107
:1026100001010C94BA1480912802859585958595C1
:1026200008958091280287700895909128029770EC
:1026300081E009F480E0089580913402089590913A
:102640003402982B909334020895982F909580919E
:10265000340289238093340208951092340208953D
:1026600090913302982B909333020895982F909570
:1026700080913302892380933302089510923302AC
:1026800008951092320208958091290208950895C4
:102690000C94471390912902981721F080932902F6
:1026A0000C944813089580912902882329F01092F0
:1026B000290280E00C9448130895E0910001F09104
:1026C0000101809134028083E0910001F0910101C9
:1026D000808190913302892B8083E0910001F091F9
:1026E0000101808190913202892B8083909129028F
:1026F000992381F0E0910001F09101018081892B03
:10270000808380910001909101010E946A148111DF
:102710000E94531380910001909101010C948A084A
:1027200008950C94901398E0899F90011124622BD6
:10273000609328020E941811809128028595859542
:1027400085950C9491131092280280E00C949113BB
:10275000909128028095892380932802282F277042
:1027600071F4282F082E000C330B9217130639F042
:102770008595859585950E9449110C94A31308951C
:102780006FEF7FEF90E080E00C94AB1C90E080E076
:102790000E94871C9C0181E02C3E3E4F09F080E0A6
:1027A000089582E090E00C947F1C83E090E00C940C
:1027B0007F1CCF9384E090E00E947F1CC82F81E2B1
:1027C00090E00E947F1C982F8C2FCF910895CF937B
:1027D000682FC92F84E090E00E948D1C6C2F81E24D
:1027E00090E0CF910C948D1CAB01BC018FE090E088
:1027F0000C949F1CAB01BC0183E190E00C949F1CE6
:1028000060E070E0CB010C94FA1360E070E0CB0163
:102810000E94F4130C9400146CEE7EEF90E080E0C4
:102820000E94AB1C60E082E090E00E948D1C60E0A2
:1028300083E090E00E948D1C1092240210922502E9
:10284000109226021092270260E084E090E00E943D
:102850008D1C60E081E290E00E948D1C60E085E0CC
:1028600090E00E948D1C60E086E090E00E948D1C4C
:102870006FEF87E090E00E948D1C40E050E0BA01CD
:1028800088E090E00E949F1C60E08DE090E00E9454
:102890008D1C40E050E0BA0188E190E00E949F1C4E
:1028A00060E087E190E00E948D1C40E050E0BA01BA
:1028B0008CE190E00E949F1C60E080E290E00E942A
:1028C0008D1C0C9405140C940C14682F8EE090E071
:1028D0000C948D1CAC019C012E5F3F4F485F5F4FF5
:1028E00080E02417350709F40895F90191919F01BB
:1028F0009923B9F38F5FF5CF9C01662351F0FC015A
:102900003296285F3F4F8191861729F0E217F3072F
:10291000D1F780E0089581E008959C01FC01329692
:102920008FEF90E04191461751F08F3F19F441111C
:1029300001C0892F9F5F9630A9F78F3F09F4089552
:10294000280F311D87FD3A95F901628308959C0196
:10295000FC013296285F3F4F8191861303C0DF014F
:1029600011971C92E217F307B9F708950C948D1490
:102970000C94A714FC01329686E0DF011D928A9523
:10298000E9F70895089508950C94C3140E94C4149F
:1029900080914A02843049F11092360288E190E039
:1029A00020E40FB6F894A895809360000FBE2093A2
:1029B000600080E00E9433030E94C41483B7817FCB
:1029C000846083BF83B7816083BF7894889583B721
:1029D0008E7F83BF0FB6F894A895809160008861C0
:1029E00080936000109260000FBE08950895CF9309
:1029F0000E94C2140E94CE050E94F614C0E08C2FE3
:102A00000E946905892B31F4CF5FC630C1F780E0A1
:102A1000CF91089581E0FCCF08950C940C150E948D
:102A2000550D0E947E080E9433030C940D151F92D1
:102A30001FB61F9211248F939F93AF93BF938091E2
:102A40003602811113C08091370290913802A09113
:102A50003902B0913A024196A11DB11D809337020F
:102A600090933802A0933902B0933A02BF91AF918C
:102A70009F918F911F901FBE1F90189582E084BD7B
:102A800093E095BD9AEF97BD80936E0008952FB7A0
:102A9000F8948091370290913802A0913902B09158
:102AA0003A022FBF08959C014FB7F89480913702E6
:102AB00090913802A0913902B0913A024FBF821B27
:102AC000930B089578941F921FB61F9211248F9331
:102AD0009F93AF93BF938091370290913802A0915A
:102AE0003902B0913A020196A11DB11D80933702BF
:102AF00090933802A0933902B0933A02BF91AF91FC
:102B00009F918F911F901FBE1F90189581E0809319
:102B1000E00080E28093D8001092C9008FE19EE42B
:102B20000197F1F700C0000087E090EBDC01809393
:102B3000540290935502A0935602B093570288E135
:102B40009CE00FB6F894A895809360000FBE909318
:102B50006000FFCF0C94C0130E94CE058FE39CE968
:102B60000197F1F700C000000E94CE0580E00E94AE
:102B7000690580FF04C00E94AA150C94861508956B
:102B8000CF93DF9300D000D0CDB7DEB70E94C6133D
:102B9000811102C00E9463140E94D11380933502F8
:102BA0000E94D91390933C0280933B020E94D5135C
:102BB000282F30E050E040E0CA01B9010E946410C3
:102BC0008091200290912102A0912202B0912302D3
:102BD00089839A83AB83BC83BC01CD010F900F9096
:102BE0000F900F90DF91CF910C94E01080914502EF
:102BF00008950895CF93DF9300D00F92CDB7DEB73D
:102C000090914A02943019F589836A837B8382E02C
:102C10008093E9008FEF9091E800815095FD06C008
:102C200095ED9A95F1F700008111F5CF8091E800BC
:102C300085FF0DC050E040E063E070E0CE010196FA
:102C40000E94F2178091E8008E778093E8000F9041
:102C50000F900F90DF91CF910895BC0184E00C9408
:102C6000FA15BC0183E00C94FA15CF93DF93D82FAB
:102C7000C92F81E08093E9008FEF9091E8008150A7
:102C800095FD06C095ED9A95F1F700008111F5CFFD
:102C90008091E80085FF16C050E040E068E070E0F9
:102CA0008D2F9C2F0E94F2178091E8008E778093E1
:102CB000E80088E0ED2FFC2FADE3B2E001900D922B
:102CC0008A95E1F7DF91CF910895809153028111A8
:102CD00009C00E947A190E94D7198091E20084608D
:102CE0008093E20008951092530208950895089584
:102CF0000C940F1542E061EC81E00E94F61842E26C
:102D000061EC82E00C94F61880914C02893089F1D4
:102D100048F4823009F49DC0833009F458C08130F2
:102D200041F008958A3009F484C08B3009F46AC0F8
:102D3000089580914B02813A09F048C08091E800E3
:102D4000877F8093E80080914F0290915002892BF9
:102D500061F468E08DE392E070E00E944118809198
:102D6000E8008B778093E800089560E090E080E0D1
:102D7000F3CF80914B02813249F580914F029091BF
:102D80005002029718F58091E800877F8093E80051
:102D90008091E80082FF16C09091F3008091F200CC
:102DA000029729F48091F1008B7F813021F480918A
:102DB000F100809345028091E8008B778093E800D2
:102DC0000C942A1980914A028111E2CF08958091D2
:102DD0004B02813AD9F780914F0290915002892B92
:102DE000A9F78091E800877F8093E8008091E80050
:102DF00080FFFCCF80910C018093F1008091E8006E
:102E00008E77DCCF80914B02813201F780914F02A7
:102E100090915002892BD1F68091E800877F8093B2
:102E2000E8000E942A1980914D0280930C010C94B5
:102E3000550D80914B02813249F68091E800877FE1
:102E40008093E8000E942A1980914E0280934602E6
:102E5000089580914B02813A09F0B8CF8091E80043
:102E6000877F8093E8008091E80080FFFCCF80910D
:102E70004602C2CF84B7877F84BF0FB6F894A89567
:102E800080916000886180936000109260000FBEA6
:102E900080E890E00FB6F894809361009093610011
:102EA0000FBE0E94CC080E947A190E94D719809107
:102EB000E20084608093E20078940E945E1C0E948D
:102EC000D60882E091E00E94790880914A0285301C
:102ED00019F00E94DE08F9CF0E94C61480914702C3
:102EE000882399F30E94F714882379F30E94DC1752
:102EF000ECCF0C947B17FC01CB01DA012F2F332789
:102F000023303105D1F070F42130310509F445C08A
:102F10002230310569F48BE390E020E334E02D9317
:102F20003C9308952132310521F12232310559F1C6
:102F300090E080E030E020E0F2CFCF019927E2304E
:102F4000A9F08330910550F4009769F0EAE0F4E0CD
:102F5000019771F7849190E09F01E1CFE4EFF3E0F6
:102F60000397C1F3E5CFECE2F4E0F4CFEAEFF3E04E
:102F7000F1CF892BB9F061307105D1F689E090E08D
:102F80002BE534E0CCCF892B91F06130710581F6CF
:102F900082E390E02DE734E0C2CF82E190E02BE6BF
:102FA00034E0BDCF89E090E022E434E0B8CF80E4A3
:102FB00090E02FEA34E0B3CF80E189BD82E189BDA2
:102FC00009B400FEFDCF8091D8008F7D8093D8009A
:102FD0008091E00082608093E0008091E00081FDBC
:102FE000FCCF0895AF92BF92CF92DF92FF920F93E2
:102FF0001F93CF93DF936C01EB018A010E94491963
:10300000F82E811123C00115110539F0F8018081D6
:103010009181C81BD90BC80ED91EB12CA12C2097A9
:10302000A9F08091E80085FD22C08091E8008E77AC
:103030008093E80001151105A1F0F80180819181CC
:10304000A80EB91EB182A08285E0F82E8F2DDF91E7
:10305000CF911F910F91FF90DF90CF90BF90AF90D5
:1030600008950E9449198823D1F2F82EEFCFF60176
:1030700081916F018093F1002197FFEFAF1ABF0A92
:10308000CECFFC01CB012091510230915202261784
:10309000370790F0009729F42091E8002E772093CD
:1030A000E80040E0009751F4411108C08091E80029
:1030B00082FF31C080E00895C901F3CF20914A0218
:1030C0002223A9F12530A9F12091E80023FD2DC08C
:1030D0002091E80022FDEACF2091E80020FFE2CF16
:1030E0003091F3002091F200009719F0283031055B
:1030F00058F041E02830310509F040E02091E80027
:103100002E772093E800CECF41914093F1000197B4
:103110002F5F3F4FE9CF80914A02882341F08530ED
:1031200041F08091E80083FFC1CF81E0089582E003
:10313000089583E00895FC01CB0120915102309164
:1031400052022617370790F0009729F42091E800E3
:103150002E772093E80040E0009751F4411108C019
:103160008091E80082FF32C080E00895C901F3CF6A
:1031700020914A022223B1F12530B1F12091E800DB
:1031800023FD2EC02091E80022FDEACF2091E80027
:1031900020FFE2CF3091F3002091F200009719F068
:1031A0002830310558F041E02830310509F040E081
:1031B0002091E8002E772093E800CECF44914093F1
:1031C000F100319601972F5F3F4FE8CF80914A027F
:1031D000882341F0853041F08091E80083FFC0CF23
:1031E00081E0089582E0089583E00895982F973054
:1031F00028F08F708093E90081E008959093E900B2
:10320000242F762F50E0981731F07091EC00209128
:10321000ED005091F00021FD02C09F5FE8CF30919A
:10322000EB003E7F3093EB003091ED003D7F30931B
:10323000ED003091EB0031603093EB007093EC00C7
:103240002093ED005093F0002091EE0027FDE5CF94
:1032500080E0089580914B0287FF13C08091E800C1
:1032600082FF06C08091E8008B778093E80004C05D
:1032700080914A028111F2CF089580914A028823F9
:10328000D9F38091E80080FFF8CF8091E8008E7735
:10329000ECCF2091E4003091E50095E6A901209162
:1032A000EC00822F817020FF06C08091E80080FF33
:1032B00006C080E008952091E80022FD1AC08091A8
:1032C0004A02882389F0853089F08091EB0085FDE2
:1032D0000FC02091E4003091E50042175307F9F246
:1032E0009150E1F684E0089582E0089583E0089526
:1032F00081E008950E94E8190E94F019E0EEF0E0E4
:10330000808181608083E8EDF0E080818F77808329
:1033100019BCA7EDB0E08C918E7F8C9380818F7E5D
:1033200080831092530208950F931F93CF93DF93DE
:103330000E94E8190E94F019C8EDD0E088818F77CB
:10334000888388818068888388818F7D888319BC81
:1033500010924A02109249021092470210924802BB
:1033600000EE10E0F80180818B7F8083888181608E
:10337000888342E060E080E00E94F618E1EEF0E031
:1033800080818E7F8083E2EEF0E0808181608083A7
:10339000808188608083F80180818E7F808388812E
:1033A00080618883DF91CF911F910F910895E8ED9F
:1033B000F0E080818F7E8083E7EDF0E080818160A6
:1033C000808384E082BF81E0809353020C9494193F
:1033D000E8EDF0E080818E7F80831092E200089516
:1033E0001092DA001092E10008951F920F920FB62A
:1033F0000F9211242F933F934F935F936F937F937B
:103400008F939F93AF93BF93EF93FF938091E100CE
:1034100082FF0BC08091E20082FF07C08091E10033
:103420008B7F8093E1000E945D1C8091DA0080FF19
:1034300019C08091D80080FF15C08091DA008E7F7E
:103440008093DA008091D90080FF94C080E189BD2B
:1034500082E189BD09B400FEFDCF81E080934A027C
:103460000E9465168091E10080FF19C08091E20002
:1034700080FF15C08091E2008E7F8093E2008091F2
:10348000E20080618093E2008091D80080628093A6
:10349000D80019BC85E080934A020E94771680917B
:1034A000E10084FF29C08091E20084FF25C080E113
:1034B00089BD82E189BD09B400FEFDCF8091D800AD
:1034C0008F7D8093D8008091E1008F7E8093E10012
:1034D0008091E2008F7E8093E2008091E200816023
:1034E0008093E20080914902882309F449C084E076
:1034F00080934A020E9478168091E10083FF29C0E0
:103500008091E20083FF25C08091E100877F809356
:10351000E10082E080934A02109249028091E1002A
:103520008E7F8093E1008091E2008E7F8093E200A5
:103530008091E20080618093E20042E060E080E000
:103540000E94F6188091F00088608093F0000E943D
:103550007616FF91EF91BF91AF919F918F917F91DF
:103560006F915F914F913F912F910F900FBE0F90F0
:103570001F90189519BC10924A020E94731672CFC0
:103580008091E30087FD02C081E0B2CF83E0B0CF3D
:103590001F920F920FB60F9211242F933F934F93C8
:1035A0005F936F937F938F939F93AF93BF93CF93CB
:1035B000DF93EF93FF93D091E900DF708091EC00EF
:1035C000C82FC17080FDC0E81092E9008091F00022
:1035D000877F8093F00078940E940C1B1092E90082
:1035E0008091F00088608093F000CD2BCF70C09365
:1035F000E900FF91EF91DF91CF91BF91AF919F9142
:103600008F917F916F915F914F913F912F910F908B
:103610000FBE0F901F9018951F93CF93DF93CDB7D8
:10362000DEB7AA970FB6F894DEBF0FBECDBF8BE40E
:1036300092E0FC0101962091F100208322E0833585
:103640009207B9F70E9484168091E80083FF1DC19C
:1036500080914B0290914C029A3008F016C1E92FEC
:10366000F0E0E152F34E0C94791C803899F08238E6
:1036700009F00BC180914F028F70873008F005C1AF
:103680008093E9008091EB0085FB882780F91092F8
:10369000E90006C080914802909147029111826032
:1036A0009091E800977F9093E8008093F10010924A
:1036B000F1008091E8008E77E4C0882309F4D2C03D
:1036C000823009F0E2C080914D028111D5C0809115
:1036D0004F028F702FEF280F263008F0D6C080934E
:1036E000E9002091EB0020FFC7C0933031F48091B6
:1036F000EB0080628093EB00BFC09091EB00906183
:103700009093EB0021E030E001C0220F8A95EAF7A8
:103710002093EA001092EA008091EB008860EACFE3
:103720008111B3C010914D021F778091E300807822
:10373000812B8093E3008091E800877F8093E800ED
:103740000E942A198091E80080FFFCCF8091E3005D
:1037500080688093E30082E0111183E080934A0245
:1037600094C08058823008F090C080914D029091B2
:103770004E028C3D23E0920799F583E08A838AE22A
:1037800089834FB7F894DE01139620E03EE051E2C2
:10379000E32FF0E050935700849120FF03C08295FF
:1037A0008F703F5F8F708A30C8F0895C90E08D9396
:1037B0009D932F5F243161F74FBF8091E800877F91
:1037C0008093E8006AE270E0CE0101960E94411801
:1037D0008091E8008B778093E80057C0805DE6CF4A
:1037E00060914F0270915002AE014F5F5F4F0E9497
:1037F0007917BC01892B09F448C08091E800877FC4
:103800008093E80089819A810E949B18E1CF8038DB
:10381000E1F58091E800877F8093E800809149027C
:103820008093F10046CF811130C090914D029230CB
:1038300060F58091E800877F8093E80090934902CB
:103840000E942A1980914902882311F084E005C062
:103850008091E30087FDFACF81E080934A020E94C5
:103860007A1613C080914D02813079F481E0933053
:1038700009F080E0809347021092E9008091E8000F
:10388000877F8093E8000E942A198091E80083FFD7
:103890000AC08091E800877F8093E8008091EB0068
:1038A00080628093EB00AA960FB6F894DEBF0FBE3D
:1038B000CDBFDF91CF911F9108950895CF9380914F
:1038C0004A028823A1F0C091E900CF709091EC00EA
:1038D000892F817090FD80E8C82B1092E9008091BB
:1038E000E80083FD0E940C1BCF70C093E900CF91CC
:1038F0000895EE0FFF1F0590F491E02D0994F999BA
:10390000FECF92BD81BDF89A992780B50895A8E1B0
:10391000B0E042E050E00C94B31C262FF999FECFA2
:1039200092BD81BDF89A019700B4021639F01FBA12
:1039300020BD0FB6F894FA9AF99A0FBE089503962F
:10394000272F0E948E1C0E948D1C252F0E948E1CEA
:10395000242F0C948E1C0196272F0E948E1C0C94F1
:103960008D1CDC01CB01FC01F999FECF06C0F2BD34
:10397000E1BDF89A319600B40D9241505040B8F72D
:103980000895F894FFCFC407CA07CE07DC07E00705
:10399000E407E807EE07F607FA07FE0702080E0835
:1039A000120816081A0820083E082808D207D80767
:1039B00006080A08F2072408340847084B08351B94
:1039C0005D1B451C5D1B451C901BB11B451C071C4A
:0239D000131CC6
:1039D2002A02F6153516F91531162D1601E200E9FF
:1039E20000EA00B500B600B700CD008301CC008A22
:1039F20001920194012102230224022502260227B8
:103A0200022A02B300B4006F0070009593943196BD
:103A1200973435F7F6F5F4F1F0676636309190E2B7
:103A220000E900EA00B500B600B700CD008301CC82
:103A3200008A019201940121022302240225022616
:0E3A42000227022A02B300B4006F00700000D9
:00000001FF
