:100000000C9480020C94C4020C94DF020C94C40281
:100010000C94C4020C94C4020C94C4020C94C40248
:100020000C94C4020C94C4020C94AF180C94C40237
:100030000C94C4020C94C4020C94C4020C94C40228
:100040000C94C4020C94C4020C94C4020C94C40218
:100050000C94C402290045003A003B003C003D00DE
:1000600000003E003F0040004100420044004300C9
:1000700035001E001F002000210022002300240064
:100080002500260027002D002A002E002B0014003A
:100090001A000800150017001C0018000C001200C0
:1000A00013002F0031003000296104001600070002
:1000B00009000A000B000D000E000F003300340091
:1000C00000002800E1001D001B00060019000500CB
:1000D00011001000360037003800E5005200000023
:1000E000E2000000E30000002C42000000004F008E
:1000F0000100035100000451510050000000AC0009
:10010000AE0000004B004A0049004E004D000000C8
:10011000000000004C00AB000100010001000100E4
:1001200001000100000001000100010001000100C8
:1001300001000100010001000100010001000100B7
:1001400001000100010001000100010001000100A7
:100150000100010001000100010001000100010097
:10016000010001000100010001000100E0000100A8
:100170000100010001000100010001000100010077
:100180000100010000000100010001000100010068
:100190000100010001000100010001000100010057
:1001A0000100000001000100010000002C0000001F
:1001B0000000010001000100010001000100010038
:1001C0000000010001000000010001000100010029
:1001D000010000000000000001000100010001001A
:1001E0000100010001000100000001000100010008
:1001F00001000100010001000100010001000100F7
:1002000001000100010001000100010001000100E6
:100210000100010001000100520001000100010085
:100220000100010001000100460001000100010081
:100230000100500051004F0001000100500051002A
:1002400052004F0001000100000001000100010008
:10025000010001000100010001000100AC00AB0041
:10026000AE000100010000000100010001000000DB
:100270000100000000000100010001000100010078
:100280000100010000000100010000000100010068
:100290000100010001000000000000000100010059
:1002A0000100010001000100010001000000010047
:1002B0000100010001000100010001001114010012
:1002C00001000100010001000C1401000100010007
:1002D00001002D080100010001000100010034149B
:1002E00001000100010001000100121401000100E1
:1002F00001000100010004140100010001000100DF
:1003000001000100010001000100081400000100CB
:1003100001000100010006140100010001000100BC
:1003200001000100010001000100000001000100C6
:1003300001000000010000000000010001000100B8
:1003400001000100010001000000010001000000A7
:100350000100010001000100010000000000000098
:1003600001000100005C000000000000000000002F
:10037000000000000000000000000000000000007D
:10038000000000000000000000000000000000006D
:10039000000000000000000000000000000000005D
:1003A000000000000000000000000000000000004D
:1003B000000000000000000000000000000000003D
:1003C000000000000000000000000000000000002D
:1003D000000000000000000000000000000000001D
:1003E000000000000000000000000000000000000D
:1003F00000000000000000000000000000000000FD
:1004000000000000000001000000000000000000EB
:1004100000000000000000000000000000000000DC
:10042000000000000000015309023B00020100A08F
:10043000FA09040000010301010009210101000182
:10044000224000070581030800010904010001039F
:100450000000000921010100012232000705830389
:100460000800011201100100000008A0202D420127
:10047000000102000108034A0038003000000008B3
:10048000034A004500520000000403090405010965
:1004900080A101850319012AB700150126B700952F
:1004A0000175108100C0050C0901A1018504190125
:1004B0002AA002150126A002950175108100C00531
:1004C000010906A101050719E029E7150025019595
:1004D0000875018102950175088103050719002936
:1004E000FF150026FF009506750881000508190113
:1004F0002905950575019102950175039103C000C9
:1005000011241FBECFE5D8E0DEBFCDBF04B603FE89
:1005100024C080919D0290919E02A0919F02B09173
:10052000A0028730904BA740B04BB9F410929D02C7
:1005300010929E0210929F021092A00214BE84B7E5
:10054000877F84BF0FB6F894A89581B5886181BD77
:1005500011BC0FBEE0E0F8E3099510E0A0E6B0E0C2
:10056000E4E7FAE302C005900D92A03EB107D9F787
:1005700022E0A0EEB0E001C01D92AD39B207E1F774
:100580000E943D190C94F61C0C940000A82FB92F62
:1005900080E090E041E050EA609530E009C02D91A4
:1005A00082279795879510F084279527305EC8F3AA
:1005B0006F5FA8F30895EADF8D939D930895CF931D
:1005C000CFB7CF93C395839BE9F7839B0EC0839BE3
:1005D0000CC0839B0AC0839B08C0839B06C0C0914C
:1005E0007402C395C0937402A6C0DF93C0917302D6
:1005F000DD27C558DD4F839B02C0DF91E6CF2F93E7
:100600000F931F9300B32FEF03FB20F94F933F93FA
:1006100010B34FEF012703FB21F93BE031C04E7FC0
:10062000012F10B3216028C0102F4D7F22600000E1
:1006300000B329C04B7F2460012F000010B32BC0F2
:1006400010B3477F28602AC04F7E00B320612CC0C2
:100650004F7D10B320622FC04F7B00B3206432C0A7
:10066000422700B349934FEF0000102713FB20F9F6
:1006700010B31C70C9F1297F91F2012703FB21F906
:1006800000B3237F89F2315058F1102713FB22F970
:1006900010B3277E79F2012703FB23F92F7C81F227
:1006A00000B3102713FB24F92F7971F200C010B3A7
:1006B000012703FB25F92F7359F200C000B310275F
:1006C00013FB26F9223040F200C010B3012703FBD0
:1006D00027F9243028F64F77206810B30000F9CFAF
:1006E00010E81ABF00271CC03B503195C31BD040F7
:1006F00010E81ABF0881033C11F10B3401F120917D
:1007000070021981110F1213EDCF4A81441F09366F
:1007100069F10D3211F0013E29F74F7009F0042FF5
:10072000009379023F914F911F910F912F91DF918B
:10073000CAB7C7FD47CFCF91CFBFCF9118952091B2
:100740007902222379F310917702112309F044C032
:1007500034300AF443C03093770220937202109130
:1007600073023BE0311B3093730238C00091770273
:10077000013094F50AE54F7049F430916D0034FD75
:100780002FC000936D00CDE4D2E02EC0433059F06D
:10079000443091F03091580234FD22C00093580249
:1007A000C9E5D2E021C03091910234FD19C0009317
:1007B0009102C2E9D2E018C03091640234FD10C049
:1007C00000936402C5E6D2E00FC02795A8F451500B
:1007D000A9F4220F0000F9CF4AE503C042ED01C0A1
:1007E000432FC4E1D0E032E011B31C60939A11BBF7
:1007F00002B320E41CE05F93012756E002BB27957B
:1008000020F4515021F4220FF9CF012756E00000C7
:100810003B5A02BBD0F2279528F4515029F4220FFD
:100820000000F9CF012756E0279502BB20F4515074
:1008300021F4220FF9CF012756E02991332302BB7F
:1008400021F6037F10917802110FC651D04002BBF0
:1008500011F01093700210E81ABF086011B3137FF3
:10086000402F437F5F9100C000C002BB11BB42BB61
:1008700059CF81E0089581E008950C943B040895D8
:100880000C943F041F93CF93DF9300D000D00F92BE
:10089000CDB7DEB749835A836B83309107018981D5
:1008A0009A8131111DC06623B9F02223A9F00E945C
:1008B000E415182F682F89819A810E948D1569810E
:1008C0007A81812F0F900F900F900F900F90DF91F2
:1008D000CF911F910C9418050E94BB15182FEFCFD4
:1008E0000E94E41569817A81EDCFFC01262F4081B9
:1008F00051816281738184810C944204CF93DF9390
:10090000D82FC92F60E00E9475046D2F7C2FDF91D6
:10091000CF910C9440040E94F3180E942D1781116E
:1009200002C00E94DA170E9409050E944C0A0C942A
:10093000F5060C94F80608950E94C1100E949B04CD
:100940002FEB87E299E0215080409040E1F700C012
:1009500000000C94D3180F931F93CF93DF93EC01F7
:1009600061E00E9475048C01BE010E943D04882351
:1009700059F1BE01C8010E94AC09882329F1BE01CA
:10098000C8010E94C40A8823F9F0BE01C8010E9470
:10099000190B8823C9F0BE01C8010E94EC0B882303
:1009A00099F08A81882339F001158CE5180751F0F8
:1009B0000F3D1C4579F0CE01DF91CF911F910F9132
:1009C0000C9439040E949C0480E0DF91CF911F9128
:1009D0000F9108950E94DA17F7CF08950C94ED0453
:1009E00081E00895CF93C82F0E94F004882349F036
:1009F000C0FF09C0909AC1FF08C0919AC2FF07C00A
:100A0000969ACF9108959098F6CF9198F7CF9698AF
:100A1000F8CF889A9098899A91988E9A9698089586
:100A2000CF93C82F0E94EE048C2FCF910C94F20428
:100A3000972F70E02EE0929F600D711D1124FB0135
:100A400092E6899FE00DF11D1124EE0FFF1FEC5A75
:100A5000FF4F859194910895CF93DF930E941805DD
:100A60000E941906EC01811522E5920708F054C096
:100A7000811531E5930708F0AFC08F3B9105B8F4BD
:100A8000883A910508F09AC0853A910568F4049770
:100A900038F481E0219709F080E0C82F40E0D42F9E
:100AA000CE01DF91CF910895A497D064F9CFC115FD
:100AB00080E5D807A0F4C11590E4D90708F089C0F3
:100AC000C83ED10530F4C03ED10550F7D0E0C0E0BB
:100AD000E7CFCE019A9581159F4110F3F7CFCE0154
:100AE000F4E096958795FA95E1F783702C2F26957B
:100AF0002695237040E2249F90011124382B8C2FDF
:100B00008370C1E0D0E002C0CC0FDD1F8A95E2F710
:100B1000C22BD32BDC68C4CFC11586E5D80730F5CE
:100B2000C11595E5D90708F06BC0C11524E5D207BA
:100B3000C0F48C2F869586959E0123703327C115AE
:100B4000D34508F04EC0C1E0D0E002C0CC0FDD1F9D
:100B50002A95E2F720E2829FC0011124C82BD92BED
:100B6000D9CFDC2FCC27C46FD06A9ACFC1153AE514
:100B7000D30788F4C11549E5D40708F04CC0CE016D
:100B800098558F3F910511F008F0A0CFDC2FCC27AE
:100B9000C06FD06A85CFCE0190568115904208F083
:100BA00095CF8D2F8F710E94B10690E0982F8827E6
:100BB00088279F719C012C2BE9012BC0C85AD0E0DB
:100BC000CC0FDD1FC259DF4F0990D881C02DD464EE
:100BD00067CFDF70D06A64CFD82FCC27C16FD06ABF
:100BE0005FCFC1E0D0E002C0CC0FDD1F2A95E2F755
:100BF00030E2839FC0011124C82BD92BDA6850CF73
:100C00008C2F0E94B106C82FD0E0DC2FCC27CC2738
:100C1000DF71D06245CF8C2F8F700E94B10634E017
:100C2000D695C7953A95E1F7CF70DC2FC82FD069DC
:100C300037CF803E910599F1C8F48133910509F4CD
:100C400076C048F48932910509F46AC08A32910568
:100C500009F474C0089589339105D1F08238910563
:100C6000B9F08533910509F454C00895843E910587
:100C700099F138F4823E9105F9F0833E910509F12E
:100C80000895863E910599F1873E9105B9F1089541
:100C900020914B022370A1F080EE90E00895209106
:100CA0004B0220FD52C030914C0230FF09C024FF9E
:100CB0004FC090E080E004C020914B0222FDF7CFAE
:100CC000089520914B0222FD46C030914C0230FD28
:100CD000E3CF24FFF5CFEDCF20914C0221FFF0CFE1
:100CE00080914B0284FDE5CF87EE90E0089520913E
:100CF0004B0223FFE5CF24FDDCCFF6CF20914B0242
:100D000023FD2CC030914C0231FFE3CF84EE90E004
:100D1000089520914B0225FFD3CF89E290E00895FA
:100D200020914B0225FFCCCF85E390E008952091E0
:100D30004B0226FFC5CF8AE290E0089520914B0236
:100D400026FFBECF81E390E0089589E390E0089507
:100D500083EE90E0089582EE90E0089586EE90E0B4
:100D6000089590914B0292FF06C0282F28712830D9
:100D7000F9F4877F846093FF06C0282F28712831FB
:100D8000F1F4877E846120914C0220FF06C0382F49
:100D900038713830D9F4877F816021FF06C0282F51
:100DA00028712831D1F4877E816194FD877E089572
:100DB000282F24712430F9F68B7F8860DCCF282F10
:100DC0002471243101F78B7E8861DDCF382F31719A
:100DD000313019F78E7F8860E0CF282F21712131C3
:100DE00021F78E7E8861E1CF08950C94F406089572
:100DF0000C94F706E82FF0E0EE0FFF1FE85CFD4FC4
:100E0000808191810895089588E78A95F1F7089582
:100E100000C008950C940407F894E82FE295EF7051
:100E2000A1E3AE0FB0E04C918F7021E030E0B9014A
:100E300002C0660F771F8A95E2F7CB01962F909537
:100E400094239C93EE5CF0E09081892B80837894CE
:100E500008950F931F93CF93DF93CAEAD0E089914F
:100E60000E940C0780E0C13BD807C9F7CCE9D0E06D
:100E70000AEA10E089910E940C070C171D07D1F7B0
:100E80008EE0EAE2F2E0DF01982F1D929A95E9F7F1
:100E9000E8E3F2E0DF011D928A95E9F787E00E941E
:100EA000DF07DF91CF911F910F910C948B04AF92CC
:100EB000BF92CF92DF92EF92FF920F931F93CF9347
:100EC000DF930AEA10E0CAE2D2E0C12CD12CEE2472
:100ED000E394F12CF80181918F01F894E82FE295C9
:100EE000EF70A1E3AE0FB0E02C918F70A70102C0AC
:100EF000440F551F8A95E2F7CA01922F982B9C93B5
:100F0000EE5CF0E0908180958923808378940E9444
:100F10000807ECE9F0E030E020E0B12CA12C419191
:100F2000A42FA295AF70A05DB0E08C9190E04F70BF
:100F300002C0959587954A95E2F780FD3BC0C701B1
:100F4000022E02C0880F991F0A94E2F7A82AB92A34
:100F50002F5F3F4F2E30310511F7F8013197808117
:100F60000E940C0756E0C5120E940A0788819981E9
:100F7000A816B90611F1B982A88281E0D82AC394D3
:100F8000229687E0C812A6CF2D2D47E068E372E0D5
:100F90008AE292E00E94E0070E9499048D2DDF9181
:100FA000CF911F910F91FF90EF90DF90CF90BF9066
:100FB000AF90089580E090E0C9CF80E0DFCF089542
:100FC000FF920F931F93CF93DF93F82E092F162FC5
:100FD000D72FC42F222349F081E08093E4000E94A0
:100FE00074189093E3008093E2008091E4008823DA
:100FF000A1F08091E2009091E3000E94A018069772
:1010000060F0EF2DF02FA12FBD2F90E080E0D0E019
:101010008C179D0744F01092E400DF91CF911F914F
:101020000F91FF900895219131912D933D93019659
:10103000EFCF0F931F93CF93DF9300D000D0CDB7A6
:10104000DEB741E050E060E070E08A019B0104C03F
:10105000000F111F221F331F8A95D2F709831A83AD
:101060002B833C83C901B8010E94C9130F900F90D4
:101070000F900F90DF91CF911F910F910C94C110A1
:101080008B3258F48530C0F0EBEFE80FE632A0F475
:10109000F0E0E850F34E0C94881C833450F48A330B
:1010A00008F051C0853309F44AC0883329F481E03F
:1010B0000895833409F443C080E008950E94DA174C
:1010C000F6CF80919601807F8093960181E0809396
:1010D000E50008950E949C04EACF90919601892F23
:1010E0008E7F90FF81608093960180FDE0CF817FAD
:1010F00080939601DCCF90919601892F8D7F91FF8F
:1011000082608093960181FFD2CF809196018160A9
:10111000EFCF90919601892F8B7F92FF846080930F
:10112000960182FDF2CFC3CF90919601892F877FE0
:1011300093FF88608093960183FDE7CFB8CF80E06E
:101140000E941908B4CF8953FBCF8D51F9CF80E0AD
:1011500008950C94A708CF93C82F8091E5008823A9
:1011600031F0813099F01092E50080E00DC00E94CE
:1011700081168232D1F78C2F0E94A708811119C0E5
:101180008C2F0E9440088170CF9108950E94811693
:10119000823289F38C2F0E94A908811112C0C932B2
:1011A00029F050F4CB3069F0C43169F71092E500B2
:1011B00006C081E090E0E7CF81E0C83321F380E012
:1011C000E2CF81E0E0CF0E942D17811102C00E9482
:1011D000DA170E945B1780934602803220F08770F6
:1011E00088618093460290914602892F817090FF1A
:1011F00004C0892F8695869586950C94E409809184
:101200004602982F969596959695883140F49F5F63
:10121000990F990F990F8770892B809346028091BF
:1012200046028160809346020E945F1780914602C9
:101230008695869586950C94E40980914602982FB0
:10124000987F79F0885080934602887F91E009F476
:1012500090E08091460290FB80F9809346020E94C4
:101260005F17809146028695869586950C94E409D1
:101270008091460280FD13C08160809346028130D8
:1012800019F489E080934602809146020E945F171C
:10129000809146028695869586950C94E40908957A
:1012A0008091460280FF08C08E7F809346020E9494
:1012B0005F1780E00C94E40908958091460280FD58
:1012C0000C9450090C94380990914602892F869508
:1012D000869586958F5F8F7197708430D8F4880FCC
:1012E000880F880F892B8093460280914602887F61
:1012F00091E009F490E08091460290FB80F98093A0
:1013000046020E945F1780914602869586958695D3
:101310000C94E40990934602E8CF843008F083E00F
:10132000909146029770282F220F220F220F922BA6
:1013300090934602987F21E009F420E090914602C4
:1013400020FB90F9909346020C94E4090E948D09C9
:10135000809146020C945F179C01FB0182818823D7
:1013600061F12F3BFCE53F07F9F060F42D3BECE524
:101370003E07A9F02E3BFCE53F0799F02C3B3C458E
:1013800049F00895203CECE53E0789F0213C3C45BE
:1013900089F0089583E00E94A60980E0089580E026
:1013A000FACF0E941D09F9CF0E94FF08F6CF0E94D4
:1013B0005D09F3CF0E946409F0CF81E008958C9A13
:1013C0009498089594980895CF93DF93CDB7DEB79E
:1013D00028970FB6F894DEBF0FBECDBF8983843047
:1013E00040F5811128C08FB58F7D8FBD0E94E20925
:1013F0004981242F30E0AFEFBFEF0E948E1C23E025
:1014000030E040E050E00E94661CC9012C3764E1E6
:101410003607A8F469E070E00E94521C79BD68BDEF
:1014200028960FB6F894DEBF0FBECDBFDF91CF91E7
:10143000089523E029838FB580628FBDD9CF2A50CC
:10144000374D4F4F5F4FB42FA32F922F8827BC01EA
:10145000CD0125EF38E241E050E00E94661C29836F
:101460003A834B835C83CA01B9010E94421C9B01F1
:10147000AC0169817A818B819C810E94421CBB27CF
:10148000A92F982F872FBC010097A140B10531F6F5
:101490006FEF7FEFC3CF08950E94DF0982E28FBD17
:1014A00089E18EBD8FEF9FEF97BD86BD0C94E30859
:1014B0000F931F93CF93DF93C42FD22FFC01828110
:1014C0008823C9F04093E8000E9474189093E700C5
:1014D0008093E60080E28C0F883008F050C0C7701F
:1014E00081E001C0880FCA95EAF7DF91CF911F9183
:1014F0000F910C940C0E1091E800141335C08091DC
:10150000E6009091E7000E94A018883C910560F5E4
:10151000C0E2CD0F1D17B9F080E2810F883040F492
:10152000177081E001C0880F1A95EAF70E94130E28
:10153000C83048F481E09D2F977001C0880F9A95BC
:10154000EAF70E940C0E802F0E94040EC830B8F4F7
:10155000D77081E001C0880FDA95EAF7DF91CF916B
:101560001F910F910C94130E80E28C0F883038F489
:10157000C77081E001C0880FCA95EAF7EFCFDF910D
:10158000CF911F910F9108950F939C01CB01243FA0
:101590004CE53407A1F190F4293DFCE53F0749F102
:1015A0002A3D4CE53407E9F1283D3C45C1F0FC01FA
:1015B00082818823E1F11092E80019C0263FFCE502
:1015C0003F0719F1273F4CE5340729F1253F3C45FA
:1015D00071F707E225EE44EE65EF7CE505C006E213
:1015E00021EE41EE68ED7CE50E94580A80E00F9103
:1015F000089507E225EE45EE69ED7CE5F5CF06E2BC
:1016000021EE40EE64EF7CE5EFCF06E221EE42EE04
:1016100066EF7CE5E9CF07E225EE46EE67EF7CE575
:10162000E3CF08E221E045EE6AED7CE5DDCF81E025
:10163000DECFCF93DF93EC01FB018281882309F495
:10164000C9C0C631FCE5DF07E0F4C2309CE5D9072C
:10165000F0F00E94401790934C0280934B02C631E9
:10166000ECE5DE0720F5C230FCE5DF0798F4809159
:101670004B0290914C020E944E170E94C11080E0D4
:1016800006C09E012B5F3C452930310510F3DF91E8
:10169000CF910895FE01E350FC4580914B0281609B
:1016A000E331F10588F4E25EF24E0C94881CCB5FC6
:1016B000DC45C930D105D8F6CF5CD24EFE010C9482
:1016C000881C80914B02826080934B02D0CF809126
:1016D0004B028460F9CF80914B028860F5CF8091F6
:1016E0004C02816080934C02C2CF80914C02826098
:1016F000F9CF80914B028061E7CF80914B028062ED
:10170000E3CF80914B028064DFCF0E94C1108091B3
:101710004B028068D9CF80914B028C60D5CF8091ED
:101720004C028360DFCF80914B028E7FCDCF8091C2
:101730004B028D7FC9CF80914B028B7FC5CF8091AB
:101740004B02877FC1CF80914C028E7FCBCF80919F
:101750004C028D7FC7CF80914B028F7EB5CF809199
:101760004B028F7DB1CF80914B028F7BADCF0E941A
:10177000C11080914B028F77A7CF80914B02837F5E
:10178000A3CF80914C028C7FADCF80914B0282FB26
:10179000992790F921E0922790FB82F990FB83F939
:1017A00093CF80914C02982F909591708E7F892BCA
:1017B00090FB81F997CF0E94C11090914B02892F25
:1017C00097FB87F9805880CF81E00E94DC174FCFCC
:1017D00080E0FBCF81E05BCFCF93DF93EB018631DD
:1017E0009C4511F50E9481169A81992399F08A7A75
:1017F00091E009F490E09093E900811109C089E239
:101800000E945C160E94C21680E0DF91CF9108957D
:1018100085E3F6CF8091E900811104C089E20E943E
:101820006316F0CF85E3FBCF81E0EFCF9093EF001D
:101830008093EE000895E091EE00F091EF00309774
:1018400021F00190F081E02D099480E00895E0916D
:10185000EE00F091EF00309721F00280F381E02D4F
:10186000099408952091EC003091ED002817390774
:1018700071F09093ED008093EC00E091EE00F09118
:10188000EF00309721F00680F781E02D099408954C
:101890002091EA003091EB002817390771F09093FE
:1018A000EB008093EA00E091EE00F091EF003097BA
:1018B00021F00084F185E02D099408950E9480189C
:1018C00060930301709304018093050190930601D6
:1018D0006093FF00709300018093010190930201D7
:1018E000089584B7806884BF84B7806884BF0895F2
:1018F000089508950C94780C08950C947C0C0E9423
:10190000710C85E297E10E94EC180E94790C0C940E
:101910007A0C81E008950C94890C089508950E9432
:101920006D180E9429070E9407190E94E3080C9471
:101930007D0C8F929F92AF92BF92CF92DF92EF92E7
:10194000FF920F931F93CF93DF9300D000D00F929D
:10195000CDB7DEB70E948D0C0E948E0C0E945707F7
:1019600081110E945E0C51EF852E50E0952E10E003
:1019700000E0A02E802F0E94FA067C01F401C190A5
:10198000D1904F01C816D90609F45BC08091960129
:1019900081FD0E940307C6018E259F25B12CCC2412
:1019A000C394D12C9C012C213D21232B09F443C04D
:1019B0000E948B0C8823A9F0B982AA82EC20FD201A
:1019C00081E0EF2809F480E08B830E947418816025
:1019D000782F9D838C8349815A816B818D810E94F0
:1019E0004A0D000F111FF801EF50FF4F80819181C8
:1019F000C826D926D182C0820E944B0A0E941B0CA5
:101A00009091F0008917A1F10E941B0C8093F000C7
:101A10000F900F900F900F900F90DF91CF911F912B
:101A20000F91FF90EF90DF90CF90BF90AF909F907D
:101A30008F900C941005B394CC0CDD1CFEE0BF120B
:101A4000B1CF0F5F1F4F0730110509F092CF8FEF15
:101A500089838A831B820E9474188160782F9D83FA
:101A60008C8349815A816B818D810E944A0DC4CF3C
:101A70000F900F900F900F900F90DF91CF911F91CB
:101A80000F91FF90EF90DF90CF90BF90AF909F901D
:101A90008F900895CF93DF93CDB7DEB72B970FB616
:101AA000F894DEBF0FBECDBF4F83588769877A8712
:101AB0008B8761110E94A3161E8285E0FE01379676
:101AC000DE01119601900D928A95E1F749815A81C4
:101AD0006B817C818D819E812B960FB6F894DEBF41
:101AE0000FBECDBFDF91CF910C941F13FC018081FD
:101AF00091810C942616CF93C82F882309F443C0F4
:101B00008CEF8C0F813AC8F48C2F0E94AB088111A6
:101B10003AC06C2F80916000909161000E94F31791
:101B2000882329F08C2F0E9463160E94C2168C2FE6
:101B30000E945C16CF910C94C21680E28C0F883004
:101B400048F4C77081E001C0880FCA95EAF70E9487
:101B50008416F0CF8BE58C0F833038F42C2F245271
:101B6000330BC901CF910C94320CC85AC73158F4C9
:101B7000EC2FF0E0EE0FFF1FEF54FF4F80819181BB
:101B8000CF910C94480CCF910895882329F19CEFB4
:101B9000980F913A20F40E9463160C94C21690E2BA
:101BA000980F983050F4877091E001C0990F8A9592
:101BB000EAF7892F0E948A16F0CF9BE5980F9330A1
:101BC00020F490E080E00C94320C885A873120F4A5
:101BD00090E080E00C94480C08951F93CF93DF931E
:101BE000182FEB010E947B0D209731F4812FDF919C
:101BF000CF911F910C94C50D87EB9BE00197F1F7F6
:101C000000C000002197F0CF70E060E0893311F44C
:101C100060E570E00C94ED0D882321F00E9484169D
:101C20000C94C2160895882321F00E948A160C9401
:101C3000C2160895CF92DF92EF92FF920F931F93F7
:101C4000CF93DF9300D000D00F92CDB7DEB77C01E9
:101C50006D837983FC011281058102950F700E94CA
:101C60007A16C82E8823A1F0C12E112389F089810C
:101C7000807F803429F08D81805EC12C883040F0D7
:101C800082E00E940D170E947A1691E0C82EC926A4
:101C9000D980D2948FE0D822F8E0DF1609F4FAC098
:101CA000FD1508F454C023E02D1518F18981807FBB
:101CB00039813F70398391E09D1508F05BC0803217
:101CC00021F029812295207F29833D81332309F446
:101CD00088C0313009F4A5C0112309F4ADC0002338
:101CE00009F4A4C0F701858180FF5BC08F708583F4
:101CF0009DC0E4E0DE1609F4B1C0ED2DE850FF0B05
:101D0000349720F40E941B0C0E941005CC2009F48B
:101D1000D9C10E94761680FDD5C1F70112820E94BA
:101D200070160E947D14C7010E9487100E947016D1
:101D30000F900F900F900F900F90DF91CF911F9108
:101D40000F91FF90EF90DF90CF900C94AE14F9E0DC
:101D5000DF1609F44BC186E08D0D8F70823068F676
:101D60002D81223F09F053C189818F71112309F41C
:101D700081C14AC1882321F009810295007F09832E
:101D80001123B9F01981112361F08D81805E8830B3
:101D900018F00D81011109C089810E9484160E94EA
:101DA000C2168D810E947B0DA8CF89810E94951655
:101DB000F6CF8D810E94C50D1981112309F49DCFA5
:101DC0008D81805E883018F00D81011106C08981F7
:101DD0000E948A160E94C21690CF89810E949B168B
:101DE000F9CF112391F0011107C00E94A9160981B2
:101DF000802B0E940C0E81CF0130B9F70E94A916EA
:101E00001981812B0E94AF1678CF011106C00E9464
:101E1000B81689810E94130E70CF013009F46DCF7E
:101E2000F6CF112329F0063008F067CF8981E1CF82
:101E3000053008F062CFEDCF002359F30D8109334F
:101E400049F41FEF2DEE32E0115020403040E1F711
:101E500000C000008D810E94C50D4FCF89818695FD
:101E60008695837069F0813009F047CF8D81998123
:101E70009370111102C090E080E00E94480C3DCFA9
:101E80008D8199819370111102C090E080E00E94D1
:101E9000320C33CF8981837009F050C011112DCFDE
:101EA0002D81229526952770220F220F8D818F700C
:101EB00090E0B0E0A0E0022E04C0880F991FAA1F96
:101EC000BB1F0A94D2F70D8140E050E0BA0104FF35
:101ED0000FC04FE050E060E070E004C0440F551FB9
:101EE000661F771F2A95D2F740955095609570959B
:101EF00019811695169513701D838A019B01082B75
:101F0000192B2A2B3B2B09831A832B833C831D819E
:101F100069817A818B819C81123051F0133059F0A4
:101F2000113019F00E94F313E8CE0E94CB13E5CED6
:101F30000E941B14E2CE0E94C913DFCE112309F4C4
:101F400048C0098100FFD9CE2D81229526952770A2
:101F5000220F220F8D818F7090E0B0E0A0E0022E62
:101F600004C0880F991FAA1FBB1F0A94D2F70D81C6
:101F700040E050E0BA0104FF0FC04FE050E060E0E5
:101F800070E004C0440F551F661F771F2A95D2F7D3
:101F9000409550956095709519811695169513701A
:101FA0001D838A019B01082B192B2A2B3B2B0983AC
:101FB0001A832B833C831D8169817A818B819C816B
:101FC000123071F0133079F0113039F00E943C1565
:101FD00094CE198111FF91CEB7CF0E9414158DCEEA
:101FE0000E9464158ACE0E94471487CE09810F7023
:101FF0000983112329F0802F0E947D148D81F9CE51
:102000008D810E94130E89810E94AE1476CE2D819F
:10201000233F60F4203FE1F0213F41F1112309F417
:1020200040C00111BECE89818F7124C03D81333FF4
:1020300021F1343F99F7112351F109810F7109837F
:10204000802F0E947D1463E089810E94F81655CE8E
:10205000112341F0053008F050CE89818F710E9424
:10206000E3144BCE063008F048CEF7CF89818F714C
:10207000112351F20E947D1440CE112329F0898151
:102080008F710E94581439CE0E94531436CE81E0CD
:102090000E940D17023008F430CE82E00E940D1726
:1020A0002CCE002361F01D81193309F0D3CE2FEF20
:1020B0003DEE82E0215030408040E1F7C9CE898179
:1020C0008F71A2CF0F900F900F900F900F90DF9114
:1020D000CF911F910F91FF90EF90DF90CF900895D7
:1020E0000F931F93CF93DF93EC01688179818A81ED
:1020F0000E9432168C010E948C150E94C813B801F0
:10210000CE01DF91CF911F910F910C941A0ECF93B6
:10211000DF93EC018B819C81892B29F08981988147
:1021200089238F3F59F4DF91CF910895CE010E940A
:102130007010CE01DF91CF910C947E04CE010E94ED
:10214000AB048111F3CF0E947A16882361F38A8150
:10215000882349F382E0DF91CF910C940D1790E032
:1021600080E00E94320C90E080E00E94480C0E94C7
:10217000A3160E94A6160C94C2160E946A160C940E
:10218000AF100E9492160C94BD10282F892F8295B3
:102190008F70903C80F48A30B0F4843020F4823028
:1021A00090F480E008958630E1F781E0283E88F0E1
:1021B000213FB9F70EC08C3011F08F3091F793FBAF
:1021C000882780F9089581E0203F39F018F4283EEF
:1021D00040F70895243F29F7FCCF08950E94261662
:1021E0000C94C510CF93DF9300D000D00F92CDB7E1
:1021F000DEB70F900F900F900F900F90DF91CF915F
:102200000895CF93DF9300D000D000D0CDB7DEB7D4
:1022100026960FB6F894DEBF0FBECDBFDF91CF91EB
:1022200008951F93CF93DF93E091080116E080910A
:1022300009018E1304C0DF91CF911F910895CE2F15
:10224000D0E01E9FF0011124E65FFE4F40815181D6
:1022500062817381848195810E940111FE01319612
:10226000E770E5CF40913A0150913B0160913C010C
:1022700070913D0180913E0190913F010C940111BC
:102280001F93CF93DF9380913F01807FA9F48091CA
:102290003C01882389F080910801C0910901709167
:1022A0003A0160913B01A0913D01B0913E01D62FD2
:1022B000D72316E0C81304C0DF91CF911F91089572
:1022C00090E0109711F0DF3F19F401968770F2CF7C
:1022D000189F9001199F300D1124F901E65FFE4F00
:1022E00041816413F2CF40814713EFCF4281411106
:1022F000ECCF438154814A1B5B0B483C510528F7C6
:1023000080913F018F70806180933F01F901E15F0F
:10231000FE4F80818F70806180838AE391E00E940C
:102320008710DF91CF911F910C941111AF92BF9242
:10233000CF92DF92EF92FF920F931F93CF93DF9391
:10234000CDB7DEB72B970FB6F894DEBF0FBECDBF6B
:102350008C0185E0F801DE01179601900D928A95B7
:10236000E1F7F801E2808AE3A82E81E0B82E6091BF
:102370003D0170913E016115710549F090913A015E
:1023800040913B01892F84238F3F09F041C1EE200A
:1023900009F451C18F8198850E94EE10F82E882390
:1023A00009F449C186E0F801AAE3B1E001900D9279
:1023B0008A95E1F78AE391E00E94760D0E94401130
:1023C00024C180913F01582F507F683C710508F06F
:1023D0007AC05111B5C0FE2C241324C0931322C01F
:1023E000E11020C08F70806180933F010E94321104
:1023F0008AE391E00E94871080913F01F801858374
:102400008F2D2B960FB6F894DEBF0FBECDBFDF9198
:10241000CF911F910F91FF90EF90DF90CF90BF90E1
:10242000AF900895CD2829F0822F83238F3F09F0A4
:1024300084C080E0F82FF170DF2EE0910801409118
:10244000090156E080FD1CC0EE20D1F280913F01D1
:10245000816080933F01F12CD3CF8E2F90E05E9F5F
:10246000F0011124E65FFE4F6181261306C06081F2
:10247000361303C062816E11E7CFFC013196E7701D
:10248000E413EBCF8F8198850E942616292F229581
:102490002F70903260F0225F2F70223078F49F709E
:1024A00051F0F8019581907F31F4D12C0AC09F70D2
:1024B00011F08823D1F3805E8830B8F3C8010E9400
:1024C0008710FD2C9DCF51116EC04F8158856985B5
:1024D0007A858B850E94F2108AE391E00E94871032
:1024E00086E0F50111928A95E9F70E943211B3CF87
:1024F00086E0F801AAE3B1E001900D928A95E1F738
:102500007FCF8F8198850E94EE1081113DC0809110
:102510003F01816080933F01C8010E94871070CF06
:102520004F81588569857A858B850E94F21086E0F7
:10253000F50111928A95E9F768C081E08E257ACF7E
:10254000241306C0931304C0F801EE2009F451C00F
:102550008F8198850E94EE10882309F46CC0EE20CC
:1025600009F469C080913F01803270F020913A01F6
:1025700030913B013A8329831B82DD82CC828E839A
:10258000CE0101960E94871086E0F801AAE3B1E02F
:1025900001900D928A95E1F70E9440110E9432113C
:1025A000FF24F3942DCF2413D3CF9313D1CFE11075
:1025B000CFCFF8018583C8010E94871086E0F5011E
:1025C00011928A95E9F71CCF24139BCF931399CFCF
:1025D00080913F0180FD8CCF982F907F09F488CFA8
:1025E000F8018583903F31F0982F907F905F8F7036
:1025F000892B8583C8010E94871086E0F801AAE331
:10260000B1E001900D928A95E1F70E943211F8CE67
:1026100030812181C380D480F0903C01F601E61B1B
:10262000F70BBF01F110CDCE683C710508F078CFF3
:10263000FE2CE110C9CFC8010E948710B1CF1F93B3
:10264000CF93DF93CDB7DEB72C970FB6F894DEBFEC
:102650000FBECDBF4F83588769877A878B879C874A
:10266000CE0107960E949611882369F08A859B8582
:10267000892B39F058854F81852F84238F3F09F0AE
:1026800071C016E05FC086E0FE013796DE0111964C
:1026900001900D928A95E1F78A859B85892B89F3B4
:1026A0008F81988589238F3F61F32091090130E064
:1026B000C9010196877099274091080148171906AA
:1026C00071F40E94C110109209011092080186E075
:1026D000EAE3F1E0DF011D928A95E9F7D2CF96E0B7
:1026E000929FD001939FB00D1124A65FBE4FFE01B3
:1026F000319601900D929A95E1F7809309010E941D
:102700001111BFCF819FC0011124865F9E4F0E948F
:1027100096118823E9F0E09108011E9FF001112431
:10272000E65FFE4F40815181628173818481958192
:102730000E9401118091080190E00196877099270D
:102740008093080180910801909109018913DACFE3
:102750002C960FB6F894DEBF0FBECDBFDF91CF91A0
:102760001F91089569857A858B859C850E9401114A
:1027700088CF08950C94B9130E94BA136093850111
:102780007093860180938701909388010C94AF1019
:1027900008950C94BC13CF93DF9300D000D0CDB735
:1027A000DEB769837A838B839C83809185019091C6
:1027B0008601A0918701B091880129813A814B81DE
:1027C0005C81282B392B4A2B5B2B29833A834B8343
:1027D0005C83CA01B9010F900F900F900F90DF91A9
:1027E000CF910C94BC13CF93DF9300D000D0CDB722
:1027F000DEB769837A838B839C8380918501909176
:102800008601A0918701B091880129813A814B818D
:102810005C81282339234A235B2329833A834B8312
:102820005C83CA01B9010F900F900F900F90DF9158
:10283000CF910C94BC13CF93DF9300D000D0CDB7D1
:10284000DEB769837A838B839C8380918501909125
:102850008601A0918701B091880129813A814B813D
:102860005C81282739274A275B2729833A834B83B2
:102870005C83CA01B9010F900F900F900F90DF9108
:10288000CF910C94BC130C94B9130C9443140E9474
:10289000451460938101709382018093830190932A
:1028A00084010C94AF1060E070E0CB010C944714ED
:1028B0000F931F93CF93DF9300D000D0CDB7DEB737
:1028C00041E050E060E070E08A019B0104C0000F2D
:1028D000111F221F331F8A95D2F709831A832B8376
:1028E0003C83C901B8010F900F900F900F90DF91BA
:1028F000CF911F910F910C9447140F931F93CF9377
:10290000DF9300D000D0CDB7DEB741E050E060E00B
:1029100070E004C0440F551F661F771F8A95D2F7D9
:102920008091810190918201A0918301B0918401F5
:102930008A019B01082B192B2A2B3B2B09831A8315
:102940002B833C83C901B8010F900F900F900F901B
:10295000DF91CF911F910F910C9447140F931F9308
:10296000CF93DF9300D000D0CDB7DEB741E050E089
:1029700060E070E004C0440F551F661F771F8A9502
:10298000D2F7409550956095709580918101909116
:102990008201A0918301B09184018A019B010823E7
:1029A00019232A233B2309831A832B833C83C901E0
:1029B000B8010F900F900F900F90DF91CF911F9162
:1029C0000F910C9447140F931F93CF93DF9300D074
:1029D00000D0CDB7DEB741E050E060E070E004C069
:1029E000440F551F661F771F8A95D2F7809181018A
:1029F00090918201A0918301B09184018A019B0191
:102A0000082719272A273B2709831A832B833C830E
:102A1000C901B8010F900F900F900F90DF91CF91E7
:102A20001F910F910C944714CF93DF9300D000D0E7
:102A3000CDB7DEB769837A838B839C8380918101D4
:102A400090918201A0918301B091840129813A8102
:102A50004B815C81282B392B4A2B5B2B29833A83B2
:102A60004B835C83CA01B9010F900F900F900F90B8
:102A7000DF91CF910C944714CF93DF9300D000D017
:102A8000CDB7DEB769837A838B839C838091810184
:102A900090918201A0918301B091840129813A81B2
:102AA0004B815C81282339234A235B2329833A8382
:102AB0004B835C83CA01B9010F900F900F900F9068
:102AC000DF91CF910C944714CF93DF9300D000D0C7
:102AD000CDB7DEB769837A838B839C838091810134
:102AE00090918201A0918301B091840129813A8162
:102AF0004B815C81282739274A275B2729833A8322
:102B00004B835C83CA01B9010F900F900F900F9017
:102B1000DF91CF910C9447140895E82F2EE0929FF7
:102B2000E00D11248E2F877041E001C0440F8A957B
:102B3000EAF7E695E695E69585E0E89FF001112431
:102B4000E05CFE4F30E020E070E05191DF01119732
:102B5000CB01022E02C0969587950A94E2F7817008
:102B600081958527842385278C932F5F3F4F2530C0
:102B7000310559F70895E82F2EE0929FE00D1124BA
:102B80009E2F9770E695E695E69585E0E89FF00123
:102B90001124E05CFE4F50E040E080E0219130E005
:102BA000092E02C0369527950A94E2F72170332743
:102BB000042E01C0220F0A94EAF7822B4F5F5F4F69
:102BC0004530510559F70895BF92CF92DF92EF92A9
:102BD000FF920F931F93CF93DF938C01C0908101DD
:102BE000D0908201E0908301F09084018091850172
:102BF00090918601A0918701B0918801C82AD92AB5
:102C0000EA2AFB2ACFE1D0E0BC2ED701C6010C2E68
:102C100004C0B695A795979587950A94D2F780FD3D
:102C20000EC0219788F7B12C8B2DDF91CF911F918A
:102C30000F91FF90EF90DF90CF90BF900895B80173
:102C40008C2F0E942C05019761F3EECFCF93DF9379
:102C5000D82FC92F0E94E4156D2F7C2FDF91CF91C3
:102C60000C942C051F93CF93DF93162FD72F9091A1
:102C70000701992339F0862F972FDF91CF911F916C
:102C80000C942616882391F0862F972F0E94E41526
:102C9000C82F682F812F9D2F0E948D15612F7D2FAA
:102CA0008C2FDF91CF911F910C942C05862F972F9D
:102CB0000E94BB15C82FF2CF682F809160009091C1
:102CC00061000C942D18682F809160009091610034
:102CD0000C942F1880916000909161000C94311831
:102CE00080918901859585958595089580918901C3
:102CF0008770089590918901977081E009F480E0D0
:102D0000089580919501089590919501982B909345
:102D100095010895982F909580919501892380932E
:102D20009501089510929501089590919401982B22
:102D3000909394010895982F909580919401892300
:102D40008093940108951092940108951092930134
:102D5000089580918A01089508950C94AC1690917D
:102D60008A01981721F080938A010C94AD1608957A
:102D700080918A01882329F010928A0180E00C94C6
:102D8000AD160895E0916000F09161008091950189
:102D90008083E0916000F0916100808190919401C6
:102DA000892B8083E0916000F09161008081909197
:102DB0009301892B808390918A01992381F0E0917E
:102DC0006000F09161008081892B80838091600098
:102DD000909161000E94E11781110E94B8168091C4
:102DE0006000909161000C94270C08950C94F516E6
:102DF00098E0899F90011124622B609389010E94C1
:102E00007D14809189018595859585950C94F6169C
:102E10001092890180E00C94F616909189018095BA
:102E2000892380938901282F277071F4282F082E79
:102E3000000C330B9217130639F08595859585950F
:102E40000E94AE140C940817089580E008956FEF67
:102E50007FEF90E080E00C94D31C90E080E00E9433
:102E6000B01C9C0181E02B3E3E4F09F080E00895AC
:102E700082E090E00C94A81C83E090E00C94A81CE5
:102E8000CF9384E090E00E94A81CC82F81E290E0DC
:102E90000E94A81C982F8C2FCF910895CF93682F54
:102EA000C92F84E090E00E94B61C6C2F81E290E074
:102EB000CF910C94B61C86E090E00C94A81C682F6F
:102EC00086E090E00C94B61CAB01BC018FE090E072
:102ED0000C94C71CAB01BC0183E190E00C94C71CAF
:102EE00060E070E0CB010C946A1760E070E0CB0109
:102EF0000E9464170C9470176BEE7EEF90E080E0F8
:102F00000E94D31C60E082E090E00E94B61C60E06A
:102F100083E090E00E94B61C109285011092860119
:102F2000109287011092880160E084E090E00E9496
:102F3000B61C60E081E290E00E94B61C60E085E093
:102F400090E00E94B61C60E086E090E00E94B61C13
:102F50006FEF87E090E00E94B61C40E050E0BA01BD
:102F600088E090E00E94C71C60E08DE090E00E9445
:102F7000B61C40E050E0BA0188E190E00E94C71C16
:102F800060E087E190E00E94B61C40E050E0BA01AA
:102F90008CE190E00E94C71C60E080E290E00E941B
:102FA000B61C40E050E0BA0188E190E00E94C71CE6
:102FB0000C9475170C947C17682F8EE090E00C949D
:102FC000B61CAC019C012E5F3F4F485F5F4F80E015
:102FD0002417350709F40895F90191919F01992368
:102FE000B9F38F5FF5CF9C01662351F0FC01329657
:102FF000285F3F4F8191861729F0E217F307D1F739
:1030000080E0089581E008959C01FC0132968FEFE5
:1030100090E04191461751F08F3F19F4411101C0E2
:10302000892F9F5F9630A9F78F3F09F40895280FE5
:10303000311D87FD3A95F901628308959C01FC01D9
:103040003296285F3F4F8191861303C0DF011197AD
:103050001C92E217F307B9F708950C9404180C9426
:103060001E18FC01329686E0DF011D928A95E9F771
:103070000895089508950C943A1880919701882333
:1030800041F00E943B1880E00E94E40980E00C942B
:10309000100508950895CF930E9439180E9457078C
:1030A0000E944A18C0E08C2F0E94FA06892B31F446
:1030B000CF5FC730C1F780E0CF91089581E0FCCFAA
:1030C00008950C9460180E94C1100E94E3080E94A9
:1030D0001B0C0E9410050C9461188BE083BF8BEBD6
:1030E0008CBF82E089BF08952FB7F8948091470282
:1030F00090914802A0914902B0914A022FBF0895D1
:10310000CF93DF9300D000D0CDB7DEB78FB7F89460
:1031100020914702309148024091490250914A0261
:1031200029833A834B835C838FBF69817A818B814A
:103130009C810F900F900F900F90DF91CF91089589
:103140009C014FB7F8948091470290914802A0915A
:103150004902B0914A024FBF821B930B08957894A5
:103160001F921FB61F9211248F939F93AF93BF930B
:103170008091470290914802A0914902B0914A0281
:103180000196A11DB11D8093470290934802A09320
:103190004902B0934A02BF91AF919F918F911F90C6
:1031A0001FBE1F90189560E081E090E00E94D91C3E
:1031B00087E090EBDC0180939D0290939E02A093A8
:1031C0009F02B093A00288E19CE00FB6F894A89506
:1031D00081BD0FBE91BDFFCF9093E1008093E000D1
:1031E00008950C9427170E9457078FE295E70197DF
:1031F000F1F700C000000E94570780E00E94FA0625
:1032000080FF04C00E94F1180C94D3180895CF9346
:10321000DF9300D000D0CDB7DEB70E942D1781110B
:1032200002C00E94DA170E943817809396010E940C
:10323000401790934C0280934B020E943C17282F1A
:1032400030E050E040E0CA01B9010E94C91380910A
:10325000810190918201A0918301B09184018983C1
:103260009A83AB83BC83BC01CD010F900F900F906C
:103270000F90DF91CF910C9445140E947418EC01CB
:103280000E947F0C0E94271C8B9A80E0815009F0DD
:1032900047C08B9878940E948F0C0E944A1A0E9413
:1032A000160CFFEB24ED31E0F15020403040E1F707
:1032B00000C0000001E01CE0809174028823C1F18D
:1032C000109274020E947418EC0180919701882377
:1032D00021F0109297010E94631880919701882332
:1032E000A9F10E943D180E944B18882329F3F894F5
:1032F00091B3939A892F8C6081BB82B3812782BB63
:103300008FE5EAEEF0E08150E040F040E1F700C0E8
:10331000000082B3812782BB91BB93987894CCCF75
:10332000A895E7EBFBE03197F1F700C00000AECFC6
:10333000809197018111D1CFCE010E94A0180697EC
:1033400060F2009397010E943D18C7CF0E94311B85
:1033500080917A02882329F08091580284FD0E948E
:10336000990C0E94EE190E948D0C0E948E0CA4CF25
:103370008091290208950895CF93DF9300D00F9292
:10338000CDB7DEB79B0190919A01981307C0409189
:103390009801509199014617570791F080939A012F
:1033A000309399012093980189833B832A838091EC
:1033B000910284FF05C063E0CE0101960E942D1B9F
:1033C0000F900F900F90DF91CF910895BC0184E092
:1033D0000C94BC19BC0183E00C94BC19CF93DF930F
:1033E000CAE0D0E08091580284FF1AC08091A60103
:1033F0009091A701981789F028E0829FC0011124BD
:1034000068E088559E4F0E94291B8091A60190E09C
:1034100001968F7099278093A601DF91CF9108952F
:103420000E94311B87EB9BE00197F1F700C0000081
:103430002197C1F6F2CFCF93DF93D82FC92FA09158
:10344000A701B0E0CD0101968F7099272091A601C8
:10345000281781F093E0AA0FBB1F9A95E1F7A855B2
:10346000BE4F98E0ED2FFC2F01900D929A95E1F759
:103470008093A7010E94311B0E94EE1988E0ED2F76
:10348000FC2FAEE9B1E001900D928A95E1F7DF9152
:10349000CF91089582E690E00895FC0180818076C6
:1034A0008032F1F48181813061F484819581892BAE
:1034B000B9F48EE991E0909376028093750288E0EA
:1034C0000895823041F488E292E0909376028093EE
:1034D000750281E008958A3029F48381809328025F
:1034E00080E008958930E1F78281938181159240CF
:1034F00069F484819581892B49F481E080939D0151
:103500008681978190939C0180939B018FEF089512
:10351000FC0180919B0190919C01892B61F080912D
:103520009D01813041F490819093290210929C0179
:1035300010929B0108958FEF08950895FC018381F7
:10354000833051F130F48130B9F08230E9F080E01D
:1035500008958132D9F18232D1F784819581009723
:1035600009F445C0019799F78DE894E090937602AD
:103570008093750282E3089583E694E09093760247
:103580008093750282E1089588E294E09093760238
:10359000809375028BE308958281813061F08230DF
:1035A00091F08111D4CF89E894E0909376028093D2
:1035B000750284E008958FE794E0909376028093FB
:1035C000750288E0089585E794E0F7CF828188232B
:1035D00031F0813009F0BBCF83E594E002C08AE38B
:1035E00094E0909376028093750289E008958FEBC2
:1035F00094E0909376028093750280E408951F937F
:10360000CF93DF93782F162FEA01888184FF1EC0A5
:10361000898128E882278983AE014E5F5F4FFA01D6
:10362000272F392F710FD9012F5F3F4F8C91819335
:10363000872F821B1816BCF3612FCA010E94DB0280
:103640001C5F1883DF91CF911F9108958AE58883CD
:10365000E3CF48E552E00C94FF1A41E952E00C94A4
:10366000FF1ACF93DF9360917702635067FD12C01A
:1036700080917302CCE0D0E0C81BD109C558DD4F62
:1036800080917202803108F057C0CE010E949D1ACD
:103690001092770280916D0084FF41C080916C0090
:1036A0008F3F09F43CC0C82F893008F0C8E0982F3C
:1036B0009C1B90936C0090914D0228E89227909368
:1036C0004D028823F1F0809175029091760220914D
:1036D000710226FFB0C0FC012EE432E04C2F480FEF
:1036E0005491D9015C932F5F3F4F31964E13F8CF21
:1036F00001962FEF2C0F820F911D909376028093ED
:1037000075026C2F8EE492E00E94DB0284E08C0F45
:10371000C83019F09FEF90936C0080936D0084E1A6
:1037200090B39C7031F48150D9F7109278021092C6
:103730007002DF91CF9108958D3209F069C0683031
:1037400009F0A6CF83EC80934D028AE580936D004B
:10375000109271028881807671F0CE010E944D1A1C
:103760008F3FC1F4988197FD8E8190E8909371020C
:1037700080936C008DCF2A8110925602998191110D
:1037800011C01092570226E532E082E030937602B3
:10379000209375029F819111EBCF9E81981740F77E
:1037A000892FE6CF953029F42093780226E532E080
:1037B000EDCF963099F49B81913021F4CE010E9497
:1037C0009E1A08C09230D1F39330C1F39132B1F315
:1037D0009232A1F390E490937102C2CF983089F0B5
:1037E000993019F420937A02E1CF9A3071F09B302E
:1037F000E9F69BE4909359029093920290936502AC
:10380000D5CF2AE732E081E0C1CF26E532E0FBCF19
:103810008091710287FF3CCFCE010E94881A8F3FB2
:1038200021F48EE180936D0033CF882309F430CFEB
:1038300010926C002DCFDC012C2F4EE452E0FA01E7
:103840003D9130834F5F5F4F2150C9F751CFCF93E8
:10385000DF9385B7886085BF8BB780688BBFC8E56D
:10386000D2E08BE48983A1E9B2E011968C931197A1
:10387000E4E6F2E081838AE588838C938083DF919C
:10388000CF910895DB018F939F930E949D1CBF9160
:10389000AF91A29F800D911DA39F900DB29F900D9F
:1038A00011240895AA1BBB1B51E107C0AA1FBB1F0F
:1038B000A617B70710F0A61BB70B881F991F5A95BC
:1038C000A9F780959095BC01CD010895A1E21A2E2B
:1038D000AA1BBB1BFD010DC0AA1FBB1FEE1FFF1FB4
:1038E000A217B307E407F50720F0A21BB30BE40B04
:1038F000F50B661F771F881F991F1A9469F760954B
:103900007095809590959B01AC01BD01CF01089504
:10391000EE0FFF1F0590F491E02D0994A29FB001D6
:10392000B39FC001A39F700D811D1124911DB29FF3
:10393000700D811D1124911D08950E948E1CA59F5C
:10394000900DB49F900DA49F800D911D112408959A
:10395000E199FECF9FBB8EBBE09A99278DB3089566
:10396000A8E1B0E042E050E00C94E81C262FE19979
:10397000FECF9FBB8EBBE09A01970DB2021631F0CD
:103980002DBB0FB6F894E29AE19A0FBE0895039604
:10399000272F0E94B71C0E94B61C252F0E94B71C1F
:1039A000242F0C94B71C0196272F0E94B71C0C944F
:1039B000B61C262FE199FECF9FBB8EBB2DBB0FB649
:1039C000F894E29AE19A0FBE01960895DC01CB01CA
:1039D000FC01E199FECF06C0FFBBEEBBE09A319639
:1039E0000DB20D9241505040B8F70895F894FFCFB2
:1039F0006A0861086D0857085C085C0857085C088D
:103A00005C0889085C0894085C085C085C085C0831
:103A10005C0857085C085C0857085C087B085C0871
:103A20005C08A508A508A508A508A508A508A50877
:103A3000A508A5089F085C086A085E08610B670B6B
:103A40006B0B790B7D0B810B850B8B0B930B970B02
:103A50009B0B9F0BAB0BAF0BB30BB70BBD0BDB0B78
:103A6000C50B6F0B750BA30BA70B8F0BC10BD10BEA
:043A7000E40BE80B70
:103A74008B01B8191B1ABB19EA19E619FF5AE2009F
:103A8400E900EA00B500B600B700CD008301CC0020
:103A94008A019201940121022302240225022602B2
:103AA40027022A02B300B4006F007000919293942D
:103AB400959697373635343332906162636566671D
:103AC40060E200E900EA00B500B600B700CD00836B
:103AD40001CC008A019201940121022302240225CF
:103AE40002260227022A02B300B4006F007000000D
:00000001FF
