:100000000C9477030C94BE030C94BE030C94BE03B3
:100010000C94BE030C94BE030C94BE030C94BE035C
:100020000C94BE030C94BE030C9448270C941C281B
:100030000C94331F0C94BE030C94BE030C94BE03AB
:100040000C94BE030C94BE030C94BE030C94BE032C
:100050000C94AF040C94991F0C94BE030C94BE0333
:100060000C94BE030C94BE030C94BE030C94BE030C
:100070000C94BE030C94BE030C94BE030C94BE03FC
:100080000C94BE030C94BE030C94BE030C94BE03EC
:100090000C94BE030C94BE030C94BE030C94BE03DC
:1000A0000C94BE030C94BE030C94BE0335001E00DA
:1000B0001F0020002100220023002400250026002C
:1000C00027002D002E00310029002B0014001A00FB
:1000D0000800150017001C0018000C001200130087
:1000E0002F0030002A0000002961040016000700DC
:1000F00009000A000B000D000E000F003300340051
:10010000000028000000E10000001D001B000600A8
:100110001900050011001000360037003800E50016
:10012000000000000000E200E30000002C000000DE
:100130000151000028000000E700E6000351000024
:10014000000035003A003B003C003D003E003F000F
:100150004000410042004300440045000000000010
:100160002B00AC00AE00AB00C05C00000000000043
:100170000000000000000000000000000000E0009F
:10018000000000000000000000005000510052007C
:100190004F0000000000000000000000E10000002F
:1001A000000000000000000000000000000000004F
:1001B000000000000000000000000000E200E3007A
:1001C00000002C0000000000000028000000E700F4
:1001D000E60000000000000035001E001F002000A7
:1001E00021002200230024002500260027002D00E6
:1001F0002E00310029002B0014001A000800150001
:1002000017001C0018000C00120013002F00300013
:100210002A000000E00004001600070009000A00A0
:100220000B000D000E000F0033003400000028000A
:100230000000E10000001D001B0006001900050081
:1002400011001000360037003800E5000000000003
:100250000000E200E30000002C000000015100005B
:1002600028000000E700E600035100000000005CE9
:10027000000000000000000000000000000000007E
:100280000000000000000000000002530000BF5CFE
:10029000BD5CBE5CC05C000000000000000000000F
:1002A000000000000000000000000000000000004E
:1002B000000000000000000000000000000000003E
:1002C000000000000000000000000000000000002E
:1002D000000000000000000000000000000000001E
:1002E000000000000000000000000000000000000E
:1002F00000000000000000000000000000000000FE
:1003000000000000000000000000000000000001EC
:10031000010203040506080A0C0F1114181C2024FE
:10032000292E33393F464C535B626A7179818A9238
:100330009AA2AAB2B9C1C8CFD5DCE1E7EBF0F4F7D5
:10034000FAFCFDFEFFFEFDFCFAF7F4F0EBE7E1DC62
:10035000D5CFC8C1B9B2AAA29A928A8179716A62CC
:100360005B534C463F39332E2924201C1814110F9F
:100370000C0A080605040302010100000000000049
:100380000000000000047F3F1F64321464321478C0
:100390003C1E1E140A052223252628292A2C2D2F2F
:1003A0003032333536383A3B3D3E4042434547498B
:1003B0004A4C4E5051535557595A5C5E60626466C0
:1003C00068696B6D6F71737577797B7D7F818385CC
:1003D00087898A8C8E90929496989A9C9E9FA1A3CE
:1003E000A5A7A8AAACAEAFB1B3B4B6B8B9BBBCBEF2
:1003F000BFC1C2C3C5C6C7C9CACBCCCDCED0D1D26E
:10040000D2D3D4D5D6D7D7D8D9D9DADADBDBDBDC6F
:10041000DCDCDCDCDDDDDDDDDCDCDCDCDCDBDBDB1B
:10042000DADAD9D9D8D7D7D6D5D4D3D2D2D1D0CE7B
:10043000CDCCCBCAC9C7C6C5C3C2C1BFBEBCBBB980
:10044000B8B6B4B3B1AFAEACAAA8A7A5A3A19F9EFE
:100450009C9A98969492908E8C8A89878583817FC6
:100460007D7B79777573716F6D6B696866646260A7
:100470005E5C5A5957555351504E4C4A4947454373
:1004800042403E3D3B3A3836353332302F2D2C2A10
:10049000292826252322FFAA7F55400000000000BE
:1004A000000000000001010101010101010102023F
:1004B000020202020202030303030303030404040F
:1004C00004040505050505060606060607070707D1
:1004D000080808080909090A0A0A0B0B0B0C0C0C7E
:1004E0000D0D0D0E0E0E0F0F101010111112121314
:1004F000131414151516161717181819191A1A1B8C
:100500001C1C1D1D1E1F1F202121222323242525E5
:1005100026272828292A2B2C2C2D2E2F303131321A
:10052000333435363738393A3B3C3D3E3F40414223
:10053000434445464748494B4C4D4E4F5052535407
:10054000555758595A5C5D5E606163646567686AB7
:100550006B6C6E6F7172747677797A7C7D7F818235
:10056000848687898B8D8E9092949597999B9D9F79
:10057000A1A2A4A6A8AAACAEB0B2B4B6B9BBBDBF86
:10058000C1C3C5C8CACCCED0D3D5D7DADCDEE1E34F
:10059000E6E8EAEDEFF2F4F7F9FCFF0403300000BF
:1005A0000022034C00650061006600360030002028
:1005B0000055006E006900760065007200730061EE
:1005C000006C000000100346006F00780020004C13
:1005D000006100620000000403090409023B0002FC
:1005E0000100A0FA09040000010301010009211122
:1005F0000100012240000705810308000A090401E7
:1006000000010300000009211101000122850007FB
:1006100005820320000A1201100100000008EDFE0F
:10062000000001000102030105010902A101850288
:100630000901A100050919012905150025019505E4
:1006400075018102950175038101050109300931A8
:100650001581257F95027508810609381581257F4A
:10066000950175088106050C0A38021581257F95CC
:100670000175088106C0C005010980A10185031626
:1006800001002603001A81002A830075109501815C
:1006900000C0050C0901A1018504160100269C0279
:1006A0001A01002A9C02751095018100C0050109FC
:1006B00006A101050719E029E71500250195087530
:1006C0000181029501750881010508190129059527
:1006D000057501910295017503910105071900291E
:1006E000FF150026FF00950675088100C000112443
:1006F0001FBECFEFDAE0DEBFCDBF04B603FE27C0DA
:100700008091670290916802A0916902B0916A029B
:100710008730904BA740B04BD1F4109267021092F3
:1007200068021092690210926A0214BE84B7877F31
:1007300084BF0FB6F894A89580916000886180937B
:100740006000109260000FBEE0E0F8E3099511E050
:10075000A0E0B1E0ECEDF5E502C005900D92AE35FC
:10076000B107D9F722E0AEE5B1E001C01D92A7368E
:10077000B207E1F70E9472240C949D2A0C940000A9
:100780006E9A0C94020A81FF03C076980C943C0583
:10079000769AFCCFCF92DF92EF92FF928C3724E1D2
:1007A000920750F469E070E00E94DE29CB01FF90CF
:1007B000EF90DF90CF900895B0E0A0E0BC01CD01B4
:1007C0006A50774D8F4F9F4F982F872F762F662730
:1007D00025EF38E241E050E00E94062A69017A01E3
:1007E000CA01B9010E94CE299B01AC01C701B60123
:1007F0000E94CE29672F782F892F992761157105BF
:1008000021E08207910591F66FEF7FEFCFCF81E076
:10081000089581E008950C9409041F93CF93DF930A
:1008200000D000D00F92CDB7DEB749835A836B83D7
:1008300020919B0189819A8121111BC06623A9F017
:100840000E94AC1C182F682F89819A810E94581C25
:1008500069817A81812F0F900F900F900F900F90E8
:10086000DF91CF911F910C9460070E94841C182F78
:10087000EFCF0E94AC1C69817A81EDCFFC014081F1
:1008800051816281738184810C940D040E94760AE7
:100890008FE39CE90197F1F700C000000E94760AFF
:1008A00080E00E94060A80FF04C00E94F01D0C94A4
:1008B000BD1F08950C94040AE82FE295EF70F0E054
:1008C00032A1282F2F7081E090E001C0880F2A9577
:1008D000EAF78095832382A308958430D8F48111A8
:1008E0001AC090918000977F90938000282F30E06D
:1008F000AFEFBFEF0E942E2A23E030E040E050E04F
:100900000E94062AC9010E94CA0390938D00809319
:100910008C00089583E0909180009860E5CF8091ED
:100920006F008170089510925F0110925E01109225
:100930006001EFE6F0E08081816080830895EFE65A
:10094000F0E080818E7F80830E94C6220C946D042B
:100950000E948F0481110C949F040C9493041F92A5
:100960000F920FB60F9211242F933F934F935F93E3
:100970006F937F938F939F93AF93BF93CF93EF9397
:10098000FF932091000180915E0190915F0101969B
:1009900044EF249F90011124B9010E94DE29909315
:1009A0005F0180935E01B901660F672F661F770BA9
:1009B00071950E94DE296F7780916001823041F449
:1009C000603451F480916F008E7F80936F0004C07B
:1009D000813011F46F37B1F3E62FF0E0EC5FFC4F9C
:1009E000C4910E94C622282F41E051E0C49FC0015B
:1009F000C59F900D112463E070E00E94DE29269FC0
:100A0000C001279F900D11240E94CA0390938D006E
:100A100080938C00FF91EF91CF91BF91AF919F9107
:100A20008F917F916F915F914F913F912F910F9097
:100A30000FBE0F901F901895279A87E30E945C04C1
:100A40008AE08093800089E1809381008FEF9FEF9F
:100A500090938700809386000E9412220C94930446
:100A60000E9446040E94F61D811102C00E94791E58
:100A70000E941C050C94C00308950C94C3030895B0
:100A80000E9498170E943F052FEF84E39CE02150BD
:100A900080409040E1F700C000000C94BD1F0F9310
:100AA0001F93CF93DF938C010E943E04EC01B801A9
:100AB0000E940B04882309F4C9C0B801CE010E942A
:100AC000B411882309F4C2C0CA3C8CE5D80709F4E4
:100AD000FCC008F051C0C23CECE5DE0709F4CDC013
:100AE00048F5C5318CE5D807A8F4C2309CE5D90794
:100AF00008F050C1C115ECE5DE0709F4A2C0C13011
:100B0000DC4509F4A9C0C801DF91CF911F910F9175
:100B10000C940704C6318CE5D80709F4ADC1C13C7B
:100B2000DC4589F7F8018281882309F48FC00E948F
:100B3000A8048CC0F8018281C63CFCE5DF0709F4FB
:100B4000B5C068F4C43CECE5DE0709F4A6C008F4BF
:100B50009BC0882309F47AC00E94A30D77C0C83CCB
:100B60009CE5D90709F4ACC008F4A5C0882309F4B2
:100B70006DC00E94DD0D6AC0C13DFCE5DF0709F4D0
:100B8000D8C070F5CD3C9CE5D90709F4AEC088F417
:100B9000CB3CFCE5DF0709F4A0C0CC3CDC4509F008
:100BA000B2CFF8018281882309F450C00E943D0C25
:100BB0004DC0F8018281CF3CFCE5DF0709F4ABC0F2
:100BC00008F49CC0882309F441C00E94240C893099
:100BD00028F00E94240C8E3008F465C089E08BC098
:100BE000C53DECE5DE0709F4C7C0B0F4F801828129
:100BF000C33DFCE5DF0709F4BAC008F4AAC08823A6
:100C000029F10E94240C893128F00E94240C8232A0
:100C100008F449C089E16FC0CD3DECE5DE0709F479
:100C2000B2C0CE3DFCE5DF0709F1CC3DDC4509F063
:100C30006ACFF8018281882349F080E00E94102564
:100C400005C0F801828181110E94400580E0DF919A
:100C5000CF911F910F910895F80182818823B1F3FC
:100C600080911B02816080931B02F0CFF80182818A
:100C7000882361F30E94791EE9CFF80182818823DD
:100C800029F30E942910E2CF882301F30E94411D1D
:100C9000827249F00E941B10D9CF8823B9F20E94BA
:100CA000411D8272B9F30E940E10D0CF882371F2D9
:100CB0000E94B00DCBCF882349F20E94BF0DC6CF52
:100CC000882321F20E94CE0DC1CFF80182818823B2
:100CD00009F4BCCF0E94EC0DB9CFF80182818823C2
:100CE00009F4B4CF0E942C0CB1CFF8018281882383
:100CF00009F4ACCF81E00E941E10A8CF882309F42C
:100D0000A5CF0E94240C823020F00E94240C853054
:100D100050F282E0F0CF882309F498CF0E94240C8F
:100D2000863028F00E94240C883008F4BCCF86E07E
:100D3000E2CFF8018281882309F488CF0E94240C35
:100D40008F3028F00E94240C843108F4ACCF8FE05F
:100D5000D2CF882309F47ACF0E94240C853128F061
:100D60000E94240C873108F49ECF85E1C4CF8823EC
:100D700009F46CCF88E1BFCFF8018281882309F4A0
:100D800065CF83E2B8CFF8018281882309F45ECF72
:100D900082E054CFF8018281882309F4B4CE0E9406
:100DA000F61D811102C00E94791E0E94091E90E06A
:100DB0009093580280935702FE01E350FC458091C6
:100DC00057028160E231F10538F4E156F54D0C949B
:100DD000282A80915702826080935702809157029F
:100DE0000E940D1E0E94981731CF80915702846097
:100DF000F3CF809157028860EFCF809157028061D6
:100E0000EBCF809157028062E7CF809157028064D8
:100E1000E3CF809157028068DFCF809157028C60CA
:100E2000DBCF809157028E7FD7CF809157028D7F85
:100E3000D3CF809157028B7FCFCF80915702877F8E
:100E4000CBCF809157028F7EC7CF809157028F7D85
:100E5000C3CF809157028F7BBFCF809157028F778E
:100E6000BBCF80915702837FB7CF90915702892FD4
:100E700097FB87F98058B0CF0E94411DF8019281FD
:100E8000992381F08A7A91E009F490E090936101CE
:100E9000811106C089E20E941C1D0E948D1DD6CEC4
:100EA00085E3F9CF80916101811104C089E20E943C
:100EB000231DF3CF85E3FBCF90E080E008950895F4
:100EC000972F70E02FE0929F600D711D1124FB01A0
:100ED0009BE4899FE00DF11D1124EE0FFF1FE455E7
:100EE000FF4F859194910895FC01EE0FFF1FEC5781
:100EF000FC4F859194910895CF93DF930E946007F2
:100F00000E946409EC01811521E5920708F049C0AF
:100F1000811530E5930708F032C1883E910508F548
:100F2000803E910570F5883A910570F4853A9105F7
:100F300008F0B0C08130910521F1009711F10497BC
:100F400000F5D0E0C0E01DC08F3B910508F4ADC0B6
:100F5000805C9109C03CD105A0F30E947407EC01AC
:100F600010C08115904388F4C11580E2D80708F0BD
:100F7000FDC0C03FD10528F3CF3FD10509F008F4EB
:100F8000F3C0CE01DF91CF910895C11590E4D90748
:100F900008F0F2C0CE019927D3FFEBC0EC01D86C6A
:100FA000F0CF811529E5920760F5811538E59307A3
:100FB00008F02BC1811544E5940778F4C11583E549
:100FC000D80708F009C1C11592E5D90708F0F3C0A8
:100FD000DC2FCC27C16FD06AD4CF811525E59207CD
:100FE00008F40EC1811536E5930708F0AACF0E94D8
:100FF000DF09C82FD0E0DC2FCC27CC27DF71D062EF
:10100000C0CF8D3B9C4509F405C1CE3B8CE5D8078C
:10101000E0F4CB3B9CE5D90709F4FFC008F000C120
:10102000C1153AE5D30708F08CCF8C2F8F700E9442
:10103000DF0934E0D695C7953A95E1F79C2F9F706C
:10104000C82FCF70C06ED92F98C0C03C4CE5D407D4
:1010500009F4E9C060F4CE3B9CE5D90709F4E6C089
:10106000CF3BDC4509F06DCFC0E0D2ED8ACFCE0199
:1010700090568115904208F064CF8D2F8F710E9499
:10108000DF0990E0982F882788279F719C012C2BDF
:10109000E901B5CF853A910509F4CBC0863A9105AF
:1010A00009F0CAC0C2E8D0E46CCF883A910509F4CF
:1010B000C6C0893A910509F4C5C08A3A910509F478
:1010C000C4C08B3A910509F4C3C08C3A910509F468
:1010D000C2C08B3B910509F4C1C08C3B910509F45A
:1010E000C0C08D3A910509F4BFC0803B910509F459
:1010F000BEC08E3A910509F4BDC08F3A910509F43E
:10110000BCC0813B910509F4BBC0823B910509F449
:10111000BAC0833B910509F4B9C0843B910509F439
:10112000B8C0853B910509F4B7C0863B910509F429
:10113000B6C0873B910509F4B5C0883B910509F419
:10114000B4C0893B910509F4B3C08D3B910509F406
:10115000B2C08E3B910509F4B1C08A3B910509F4F8
:10116000B0C0C0E0D4E40DCFD0650BCFCE019F70EE
:10117000F4CEEC01D06C05CFDF70D06A02CFE4E092
:1011800096958795EA95E1F783702C2F26952695FD
:10119000237040E2249F90011124382B8C2F837000
:1011A000C1E0D0E002C0CC0FDD1F8A95E2F7C22B70
:1011B000D32BDC68E6CECE018370992721E030E0A6
:1011C00002C0220F331F8A95E2F7C695C69580E2CA
:1011D000C89FE0011124EBCFCE018370992721E055
:1011E00030E002C0220F331F8A95E2F7C695C695FC
:1011F00090E2C99FE0011124C22BD32BDA68C1CE43
:10120000D82FCC27C46FD06ABCCED82FCC27C06FC4
:10121000D06AB7CEC0E0D1EDB4CEC0E0D4EDB1CE4F
:10122000C0E0D5EDAECEC0E0D3EDABCEC0E0D0EDAA
:10123000A8CEC1E8D0E4A5CEC3E8D0E4A2CEC2EEE9
:10124000D4E49FCEC9EED4E49CCECAEED4E499CEC9
:10125000C5EBD4E496CEC6EBD4E493CEC3EBD4E492
:1012600090CEC4EBD4E48DCEC7EBD4E48ACECCECE4
:10127000D4E487CECDECD4E484CEC3E8D5E481CEEB
:10128000CAE8D5E47ECEC2E9D5E47BCEC4E9D5E494
:1012900078CEC1E2D6E475CEC3E2D6E472CEC4E223
:1012A000D6E46FCEC5E2D6E46CCEC6E2D6E469CE13
:1012B000C7E2D6E466CECFE6D4E463CEC0E7D4E49A
:1012C00060CECAE2D6E45DCE8238910549F1B0F431
:1012D0008133910509F462C048F48932910509F41B
:1012E00056C08A32910509F460C00895853391058E
:1012F00009F446C08933910599F00895833E91051C
:1013000031F138F4803E910591F0823E9105B1F0C3
:101310000895863E910521F1873E910551F108958A
:10132000209157022370D9F080EE90E0089520912B
:10133000570220FF14C089E390E0089520915702DE
:1013400022FF0DC024FD09C083EE90E00895209196
:10135000570222FD31C024FF02C090E080E00895D2
:101360002091570223FFFBCF24FDF7CF87EE90E0BB
:1013700008952091570223FFEECF86EE90E0089566
:101380002091570225FFEBCF89E290E0089520914C
:10139000570225FFE4CF85E390E00895209157029E
:1013A00026FFDDCF8AE290E008952091570226FFC4
:1013B000D6CF81E390E0089582EE90E00895909179
:1013C000570292FF06C0282F2871283069F4877FC2
:1013D000846093FF06C0282F2871283161F4877E2E
:1013E000846194FD877E0895282F2471243089F725
:1013F0008B7F8860EECF282F2471243191F78B7E6C
:101400008861EFCF089508950C94030AE82FF0E067
:10141000EE0FFF1FEE59FE4F8081918108950895D0
:10142000CF93DF93A3E3B1E028E331E061E070E024
:101430009D91E92FE295EF70F0E041A19F70EB01E3
:1014400002C0CC0FDD1F9A95E2F7CE018095842370
:1014500081A32A173B0761F7A4E2B1E061E070E0E5
:101460008D91E82FE295EF70F0E041A18F709B0124
:1014700001C0220F8A95EAF7922F9095942391A3A9
:1014800082A1822B82A3D1E0A333BD0749F710923A
:101490006D0110926C011092630110926201109222
:1014A0006F0110926E01109265011092640110920A
:1014B00071011092700110926701109266011092F2
:1014C00073011092720110926901109268011092DA
:1014D00075011092740110926B0110926A0185E0FF
:1014E0000E940F0BDF91CF910C9430054F925F92C9
:1014F0007F928F929F92AF92BF92CF92DF92EF92A4
:10150000FF920F931F93CF93DF939CE6492E91E0B8
:10151000592E23E3E22E21E0F22E20E0CC24C394C6
:10152000D12CE201899099902E01DE011E921E922B
:10153000F70181917F01E82FE295EF70F0E091A132
:101540008F70B60101C0660F8A95EAF7892F862B46
:1015500081A382A1362F3095832382A380EA8A95C6
:10156000F1F784E2A82E81E0B82E50E040E0E501DA
:1015700079905E01872D82958F7090E0EC0188A1B3
:101580000D911C91119790E0D72DDF7002C09595B9
:101590008795DA95E2F780FD3FC0C601042E02C0B0
:1015A000880F991F0A94E2F7082B192B11961C93A8
:1015B0000E934F5F5F4F4F305105C9F681A138231D
:1015C00031A382A1682B62A381E04D915C91481503
:1015D000590509F480E0282BE6E74E16E1E05E06A7
:1015E00009F09FCF45E062E671E08CE691E00E9451
:1015F000100B0E945A0481E0DF91CF911F910F914F
:10160000FF90EF90DF90CF90BF90AF909F908F9022
:101610007F905F904F90089590E080E0C5CF08954F
:10162000FF920F931F93CF93DF93F82E092F162F5E
:10163000D72FC42F222349F081E0809378010E94A4
:10164000631F9093770180937601809178018823BE
:10165000A1F080917601909177010E946F1F06970B
:1016600060F0EF2DF02FA12FBD2F90E080E0D0E0B3
:101670008C179D0744F010927801DF91CF911F9154
:101680000F91FF900895219131912D933D930196F3
:10169000EFCFCF92DF92EF92FF920F931F93CF93F2
:1016A000DF939B01E82FF82F682F782F332309F45D
:1016B0006FC0E32EF12C082F10E046E0249FC001FC
:1016C0001124CFEFD0E0BE010E94DE29AB01822FB2
:1016D00090E0880F991F25E5249FB001259F700D8C
:1016E0001124861B970B982F990F980FBE016E1926
:1016F0007F09609FD001619FB00D709FB00D1124D4
:101700008B2F939F90011124232F3327BE01621B3F
:10171000730B609F9001619F300D709F300D1124FD
:101720006E01C91AD108CE9CB001CF9C700DDE9C11
:10173000700D1124672F7727C61BD70BC09F700130
:10174000C19FF00CD09FF00C11247F2D4230510529
:1017500041F148F44115510569F04130510529F135
:101760007B2F832F07C04430510511F128F14630FB
:101770005105B1F7F0E0E556FB4F6491E72FF0E03B
:10178000E556FB4F7491E82FF0E0E556FB4F84914E
:10179000DF91CF911F910F91FF90EF90DF90CF904D
:1017A0000895EB2F8F2D7F2FE5CF7E2FE32FE2CFF4
:1017B000EF2D7B2F8F2FDECF732FEB2FFBCF0895D5
:1017C000CF93DF93762FE901682F842F0E94490B76
:1017D000362F272F398328838A83DF91CF9108956D
:1017E00080913402982F9E7F29F4817082608093CB
:1017F000340208958A34E8F381708864F8CF88E071
:1018000090E00C945D2ACF92DF92EF92FF926B01F1
:101810007C010E94F00BB701A60188E090E0FF90E8
:10182000EF90DF90CF900C947B2AE4E3F2E083E02A
:10183000808311828FEF8283838314826081718120
:10184000828193810C94030C8091340280FF02C04A
:101850008695089580E0089580913802833018F4C9
:101860008F5F8093380260913402709135028091CD
:101870003602909137020C94030C80913802882331
:1018800019F08150809338026091340270913502D2
:1018900080913602909137020C94030C60910501FF
:1018A00070E08091340280FF0AC080917D0123E0C6
:1018B000829FC0011124875C9D4F0C94441180913C
:1018C0007C019091040123E0829FF0011124E75CE8
:1018D000FD4F891750F71182108212828F5F339665
:1018E000F8CF9091340290FF14C090917C01209128
:1018F000040133E0939FF0011124E75CFD4F921740
:1019000010F00C944E0C8183608342839F5F33966A
:10191000F6CF0895CF93DF9300D00F92CDB7DEB707
:101920009091340290FF0AC09E012F5F3F4F0E94AA
:10193000E00B4B8169818A810E94710C0F900F909E
:101940000F90DF91CF910895CF93DF93EC01EC815D
:10195000F0E0EA56FC4F4491E4E3F2E062818181D9
:101960000E948A0C8C818F5F8C83DF91CF910895C8
:10197000CF93DF93EC01E4E3F2E0438162818C8159
:101980000E948A0C8C818F5F8C83DF91CF910895A8
:101990000F931F93CF93DF9300D00F92CDB7DEB795
:1019A0008C018091790181110AC09E012F5F3F4F08
:1019B0004FEF6FEF0E94E00B8A8180937901F8016D
:1019C0006481613069F08091790140E0662361F0C3
:1019D00040E0623011F44091790180E060E004C0A1
:1019E0006091790140E080E00E94710CF8018481EF
:1019F00090E0019663E070E00E94F22984830F90EA
:101A00000F900F90DF91CF911F910F910895AF929A
:101A1000BF92CF92DF92EF92FF920F931F93CF93DB
:101A2000DF9300D00F92CDB7DEB7182FF62E042F1C
:101A3000E22E9091340290FF29C0E92FE695AE2F57
:101A4000B0E0A85CBE4F8C91809385019E7F923060
:101A500059F59E012F5F3F4F812F0E94E00B4B8174
:101A600069818A810E94710C10933502F0923602CE
:101A700000933702EE2051F06091340270913502EC
:101A800080913602909137020E94030C0F900F90C4
:101A90000F90DF91CF911F910F91FF90EF90DF900A
:101AA000CF90BF90AF900895823019F40091370223
:101AB000DBCF863019F410913502D6CF8930D9F3B7
:101AC000893191F6E9518E2F8170D82EE695F0E09C
:101AD000EA56FB4FA590B490C12CBB246091030142
:101AE000C61618F00E944E0CBFCF2C2D30E0A29EDF
:101AF000C001A39E900DB29E900D112470E00E9433
:101B0000DE29812FD11013C0860F40917C01420F36
:101B1000532F511D9A01220F331F240F351F275CAD
:101B20003D4F402F6F2D0E94E00BC394D7CF861BF3
:101B3000ECCFE4E3F2E09181282F4381628188E0D9
:101B4000890F0C94070D81E00C94990DE4E3F2E009
:101B50009181282F4381628188EF890F0C94070DB2
:101B600081E00C94A60DE4E3F2E0628128E0620FCC
:101B700008F46FEF282F438181810C94070D81E0D9
:101B80000C94B30DE4E3F2E0628128E0621B08F4F8
:101B900060E0282F438181810C94070D81E00C9433
:101BA000C20DE4E3F2E0438128E0420F08F44FEF76
:101BB000282F628181810C94070D81E00C94D10D56
:101BC000E4E3F2E0438128E0421B08F440E0282FE0
:101BD000628181810C94070D81E00C94E00D20E07E
:101BE0000C94070DEF92FF921F93CF93DF93EC01BC
:101BF00010E0EE24EA94F12C60910301161770F0C6
:101C00000E944E0C9A818C8190FF27C08F5F8C833D
:101C1000DF91CF911F91FF90EF90089520917C016B
:101C2000422F410F5527551FCA019A01220F331F1A
:101C3000280F391F275C3D4F70E0C7010E94F22931
:101C4000962F8C814091370260913602199F800D4A
:101C500011240E94E00B1F5FCFCF8150D8CFBF92DD
:101C6000CF92DF92EF92FF920F931F93CF93DF9368
:101C7000FC0182810FEF80FF01E010E08091030101
:101C80001817C0F00E944E0C80917B01013009F0C2
:101C90004DC0811102C080910301815080937B016E
:101CA000DF91CF911F910F91FF90EF90DF90CF9038
:101CB000BF900895C0917C01C12ED12CCC0DDD2D9B
:101CC000D11DCE01880F991FC80FD91FC75CDD4FEA
:101CD000198218821A8234E0E32EF12CB12C809103
:101CE0007B018B0D87FF03C090910301890F082EA4
:101CF000000C990BC816D90691F4809137028E9D7D
:101D0000A0018F9D500D11245595479555954795E8
:101D10009E0160913602809135020E94E00BB00E68
:101D2000F1E0EF1AF108D9F61F5FA8CF90E0019615
:101D30006091030170E00E94F229B0CF0F931F93CE
:101D4000CF93DF9380917C019091040123E0829FE7
:101D5000F0011124E75CFD4F891740F1C0E0D3E0AA
:101D600060910301C61740F10E944E0C20910101C1
:101D700080917A01820F80937A0190910201920FF3
:101D800090930201191654F4082E000C990B4091FF
:101D900003014150550B841795071CF021952093A2
:101DA0000101DF91CF911F910F910895118210824F
:101DB00012828F5F3396D0CF0C2F10E070E0C801F5
:101DC0000E94F22920917C01820F482F50E020913F
:101DD0007A01022E000C330B02171307BCF020917E
:101DE0000201022E000C330B201731077CF08D9F6F
:101DF00090011124275C3D4F4091370260913602DB
:101E0000809135020E94E00BCF5FAACFFA01EE0F5E
:101E1000FF1FE40FF51FE75CFD4F11821082128255
:101E2000F3CF0F931F93CF93DF938C01FC01848139
:101E3000958101968170992795838483C0E0D5E5CB
:101E400080910301C81730F0DF91CF911F910F915E
:101E50000C944E0C20917C01422F4C0F5527551F9E
:101E6000CA019A01220F331F280F391F275C3D4FEB
:101E70008C2F8695F80144815581840F952F911DF3
:101E8000817040913702609136028D9F802D112420
:101E90000E94E00BCF5FD4CF0F931F93CF93DF93BC
:101EA000EC0110E000E0909103019017110609F099
:101EB0006CF40E944E0C8C8190E001968170992701
:101EC0008C83DF91CF911F910F91089520917C0118
:101ED000A801420F511D9A01220F331F240F351FF5
:101EE000275C3D4F4C81609136028091350296957A
:101EF0009017110651F04CF0442349F040913702FD
:101F00000E94E00B0F5F1F4FCECF4423B9F340E098
:101F1000F7CFE4E3F2E080818E7F8083608171817E
:101F2000828193810E94030C109286012FEF80E73B
:101F300092E0215080409040E1F700C000000C94F6
:101F40004E0CE4E3F2E080818E7F80831092860164
:101F50002FEF80E792E0215080409040E1F700C0F1
:101F600000000C944E0C60913402669570E04BE0DA
:101F700050E086E091E00E94482A892B19F481E024
:101F8000809386010E94631F90937F0180937E015E
:101F900008959091340290FF35C09170811128C04E
:101FA000926090933402662351F0609134027091F4
:101FB000350280913602909137020E94030C6091A5
:101FC0003402669570E04BE050E086E091E00E94BC
:101FD000482A892BA1F01092860181E0809381012B
:101FE0004091370260913602809135020C94EF0DDA
:101FF000853210F09864D5CF880F982BD2CF0E94ED
:10200000B30FEBCF0895682F90913402969581E03D
:10201000890F853208F081E00C94C90F81E00C949F
:102020000310682F9091340296958FEF890F09F471
:1020300084E20C94C90F81E00C94111061E00C94BF
:10204000C90FE4E3F2E080818160808386950C947F
:102050001E108091340280FD0C94890F0C94211085
:1020600060E00C94C90F80918401811133C080918C
:102070001B02816080931B020E94F61D811104C027
:102080000E94791E0E94150C0E94FF0B609334027F
:102090007093350280933602909337026E7F61F41D
:1020A0000E94150C0E94FF0B60933402709335025E
:1020B00080933602909337020E94F00B10928601B3
:1020C0008091340280FF03C086950E94301081E029
:1020D000809384010895E4E3F2E08081816080834D
:1020E00086950C9430101092860108950F931F93DB
:1020F000CF93DF9380918601882309F48DC080916E
:102100008501E0913402E695E81BE093800182307E
:10211000C9F5F0E0EE56FC4FE491CE2FD0E004EA92
:102120001CE080918101882389F0109281010E9436
:10213000631F9E0120953095820F931F90937F011E
:1021400080937E01109283011092820180917E0122
:1021500090917F010E946F1F8C179D0708F45CC04F
:10216000E0917E01F0917F01CE0FDF1FD0937F01C0
:10217000C0937E018EE791E0F801DF91CF911F912E
:102180000F910994863049F4F0E0E157FC4FE49157
:10219000CE2FD0E008EB1CE0C4CF893051F4E69597
:1021A000F0E0E457FC4FE491CE2FD0E002EF1DE0C9
:1021B000B8CF8F3051F4E695F0E0E757FC4FE4914B
:1021C000CE2FD0E00FE21EE0ACCF853149F4F0E035
:1021D000EA57FC4FE491CE2FD0E00EE91EE0A1CFEC
:1021E000C8EED3E001E11FE0883109F49ACF8332D1
:1021F00039F4E4E8F3E0C591D49108EC1CE091CF08
:10220000C4EFD1E00CE41FE0843209F48ACFC0EDC2
:10221000D7E00FED1BE085CFDF91CF911F910F919C
:1022200008953EB1242F209523233EB1432B3FB781
:10223000F894680F791F8617970711F43FBF089528
:10224000FC015191CF01E8E04EB9000000C057FFFA
:102250002EB9550F000000C000C000C02EB900C04C
:10226000EA9591F7E8CF2DB1242B2DB99B01220FD0
:10227000331F620F731F0E94111187EC90E00197CA
:10228000F1F700C00000089544E00C9433110F935F
:102290001F93CF93DF93C62FD42F022FFC0182818F
:1022A0008823C9F0609389010E94631F909388017D
:1022B0008093870180E28C0F883008F050C0C7708F
:1022C00081E001C0880FCA95EAF7DF91CF911F9195
:1022D0000F910C94CD1410918901161335C0809183
:1022E0008701909188010E946F1F883C910560F5DD
:1022F000C0E2CD0F1D17B9F080E2810F883040F4A5
:10230000177081E001C0880F1A95EAF70E94D41473
:10231000C83048F481E09D2F977001C0880F9A95CE
:10232000EAF70E94CD14802F0E94BA14C830B8F486
:10233000D77081E001C0880FDA95EAF7DF91CF917D
:102340001F910F910C94D41480E28C0F883038F4D4
:10235000C77081E001C0880FCA95EAF7EFCFDF911F
:10236000CF911F910F9108959C01CB01203F4CE527
:10237000340731F190F4283DFCE53F07E9F0293DB1
:102380004CE5340769F1273D3C4579F426E241EEFE
:1023900061EE0E94471180E00895223FFCE53F076F
:1023A000B9F090F0233F3C45B9F0FC0182818823CD
:1023B000D1F010928901089527E245EE65EEE9CF4C
:1023C00026E241EE60EEE5CF27E245EE64EEE1CF96
:1023D00026E241EE62EEDDCF27E245EE66EED9CF92
:1023E00028E241E0EBCF81E0089590938F01809344
:1023F0008E010895E0918E01F0918F01309721F0C8
:102400000190F081E02D099480E00895E0918E0123
:10241000F0918F01309721F00280F381E02D099433
:102420000895E0918E01F0918F01309739F022E00C
:10243000DC012C930480F581E02D0994089520910E
:102440008C0130918D012817390771F090938D011F
:1024500080938C01E0918E01F0918F01309721F0F3
:102460000680F781E02D0994089520918A0130912A
:102470008B012817390771F090938B0180938A01A3
:10248000E0918E01F0918F01309721F00084F18569
:10249000E02D0994089585B7806885BF85B7806869
:1024A00085BF0895089508950C94521208950C94D0
:1024B00056120E944B120E9453120C94541281E047
:1024C00008950E945A1F0E94100A0E94E11F0E9454
:1024D00012220E9433100C9457125F926F927F92D7
:1024E0008F929F92AF92BF92CF92DF92EF92FF9224
:1024F0000F931F93CF93DF93CDB7DEB72A970FB615
:10250000F894DEBF0FBECDBF0E94760A0E945F1214
:10251000882309F47AC091E9A92E91E0B92E10E040
:1025200000E088248394912C502E802F0E94060A6C
:102530007C01F501C190D1905F01C816D90609F45C
:102540005EC080911B0281FD0E940F0A90E080E036
:10255000CE24DF243401082E02C0660C771C0A94B6
:10256000E2F7960126213721232B09F443C08E83FD
:102570005F82E620F72081E0EF2809F480E0888779
:102580000E94631F8160782F9A8789874E815F81BF
:1025900068858A850E942C13000F111FF801EF56E1
:1025A000FE4F8081918168267926718260820E9427
:1025B0006F210E94FA11909190018917B9F10E9440
:1025C000FA11809390012A960FB6F894DEBF0FBEE1
:1025D000CDBFDF91CF911F910F91FF90EF90DF90D2
:1025E000CF90BF90AF909F908F907F906F905F90B3
:1025F0000C943D0501968F30910509F0ABCF0F5F2C
:102600001F4F0530110509F08FCF8FEF89838A8323
:102610001B820E94631F8160782F9D838C83498178
:102620005A816B818D810E942C13C1CF2A960FB6DF
:10263000F894DEBF0FBECDBFDF91CF911F910F91F8
:10264000FF90EF90DF90CF90BF90AF909F908F90D2
:102650007F906F905F900895CF93DF93CDB7DEB7F3
:102660002B970FB6F894DEBF0FBECDBF4F835887B0
:1026700069877A878B871E821D8285E0FE013796E7
:10268000DE01119601900D928A95E1F749815A81F8
:102690006B817C818D819E812B960FB6F894DEBF75
:1026A0000FBECDBFDF91CF910C94381AFC01808111
:1026B00091810C94EE1C882309F405C18238B9F489
:1026C0000E94FA1181FDFFC089E30E941C1D0E9437
:1026D0008D1D2FEF81EE94E0215080409040E1F776
:1026E00000C0000089E30E94231D0C948D1D8338D7
:1026F000A1F40E94FA1180FDE6C083E50E941C1D32
:102700000E948D1D2FEF81EE94E02150804090407B
:10271000E1F700C0000083E5E6CF8438A1F40E9411
:10272000FA1182FDD0C087E40E941C1D0E948D1DFD
:102730002FEF81EE94E0215080409040E1F700C0FF
:10274000000087E4D0CF9CEF980F913A18F40E94D4
:102750001C1DCBCF90E2980F983050F4877091E019
:1027600001C0990F8A95EAF7892F0E94441DBDCFB9
:102770009BE5980F933070F4853A31F0863A39F042
:1027800083E890E00C941F1281E890E0FBCF82E890
:1027900090E0F8CF98E5980F973108F08EC0883A0E
:1027A00009F446C0893A09F446C08A3A09F446C099
:1027B0008B3A09F446C08C3A09F446C08B3B09F4C5
:1027C00046C08C3B09F446C08D3A09F446C0803BB4
:1027D00009F446C08E3A09F446C08F3A09F446C05F
:1027E000813B09F446C0823B09F446C0833B09F4AF
:1027F00046C0843B09F446C0853B09F446C0863B8D
:1028000009F446C0873B09F446C0883B09F446C03A
:10281000893B09F446C08D3B09F446C08E3B09F460
:1028200046C08A3B09F446C090E080E00C94351223
:1028300082EE90E0FBCF89EE90E0F8CF8AEE90E058
:10284000F5CF85EB90E0F2CF86EB90E0EFCF83EB16
:1028500090E0ECCF84EB90E0E9CF87EB90E0E6CF1F
:102860008CEC90E0E3CF8DEC90E0E0CF83E891E05A
:10287000DDCF8AE891E0DACF82E991E0D7CF84E931
:1028800091E0D4CF81E292E0D1CF83E292E0CECF4B
:1028900084E292E0CBCF85E292E0C8CF86E292E07C
:1028A000C5CF87E292E0C2CF8FE690E0BFCF80E74E
:1028B00090E0BCCF8AE292E0B9CF803F20F00E9446
:1028C0007D200C9464210895882309F452C0823835
:1028D00071F40E94FA1181FF4CC089E30E941C1D13
:1028E0000E948D1D89E30E94231D0C948D1D833849
:1028F00059F40E94FA1180FF3CC083E50E941C1D20
:102900000E948D1D83E5EFCF843859F40E94FA119F
:1029100082FF2FC087E40E941C1D0E948D1D87E44A
:10292000E2CF9CEF980F913AF0F290E2980F983036
:1029300050F4877091E001C0990F8A95EAF7892FCA
:102940000E944A1DD2CF9BE5980F933020F490E06F
:1029500080E00C941F1298E5980F973120F490E0D6
:1029600080E00C943512803F20F00E94E5200C940A
:1029700064210895CF93C82F0E945B13C93349F493
:102980002FEF83EC99E0215080409040E1F700C0A8
:1029900000008C2FCF910C946414882321F00E94A6
:1029A000441D0C948D1D0895882321F00E944A1D1A
:1029B0000C948D1D08958F929F92AF92BF92CF92EB
:1029C000DF92EF92FF920F931F93CF93DF937C01DF
:1029D000D62FC72FFC01058102950F7012811111AE
:1029E0000E94611D0E943A1DC82E882371F0112398
:1029F000B1F080E28D0F883090F082E00E94D81D07
:102A00000E943A1D91E0C82EC926DC2ED2949FE088
:102A1000D922ED2DF0E0EF54F54D0C94282AC12C6D
:102A2000F4CF0C2F0F70C07F11F00295007F11239F
:102A3000A9F0002359F080E28D0F883010F0D111F9
:102A400009C0802F0E94441D0E948D1D8D2F0E9461
:102A50005B1314C0802F0E94541DF6CF8D2F0E944F
:102A60006414002359F080E28D0F883010F0D111EA
:102A700033C0802F0E944A1D0E948D1D98E0D916F8
:102A800039F0D91648F086E08D0D8F70823020F431
:102A90000E94FA110E943D05CC2009F4FCC10E945D
:102AA000361D80FDF8C1F70112820E94301D0E9480
:102AB000BC1BC7010E9458170E94301DDF91CF91A7
:102AC0001F910F91FF90EF90DF90CF90BF90AF904C
:102AD0009F908F900C94DD1B802F0E945A1DCCCFAD
:102AE000FC2FFF70BF2EC07FC03219F0B29480EF70
:102AF000B822DD2369F0D13049F1112391F100238F
:102B000051F1F701858180FFA1CF8F70858323C0AC
:102B1000112381F0011106C00E94741D8B290E94AF
:102B2000CD14ACCF0130C1F70E94741D8B290E94D7
:102B30007A1DA4CF011106C00E94831D8B2D0E9417
:102B4000D4149CCF013009F499CFF6CF112329F08A
:102B5000063008F093CF8B2DE2CF053008F08ECFF2
:102B6000EDCF002359F38D2F0E94641487CF8C2F53
:102B700086958695837069F0813009F07FCF8D2F1F
:102B80009C2F9370111102C090E080E00E943512DA
:102B900075CF8D2F9C2F9370111102C090E080E0B3
:102BA0000E941F126BCF112309F1D53F99F0D63F38
:102BB000B9F0D43F49F48091510290915202816062
:102BC00090935202809351028D2F0E947D200E948B
:102BD000642154CF80915102909152028260F0CFD3
:102BE00080915102909152028460EACFD53F89F0E2
:102BF000D63FA9F0D43F49F48091510290915202FE
:102C00008E7F90935202809351028D2F0E94E52077
:102C1000DECF80915102909152028D7FF2CF809150
:102C20005102909152028B7FECCF8C2F837009F070
:102C300047C0111123CF2D2F229526952770220FE3
:102C4000220F6D2F6F70862E912CB12CA12C022E8D
:102C500004C0880C991CAA1CBB1C0A94D2F760E023
:102C600070E0CB01D4FF0FC06FE070E080E090E037
:102C700004C0660F771F881F991F2A95D2F76095A9
:102C8000709580959095C695C695C370C23051F0E9
:102C900080F4682979298A299B29C13071F00E9422
:102CA0006E1BECCE682979298A299B290E94801BFA
:102CB000E5CE0E946E1BC501B4010E945C1BDECEF6
:102CC0008695112311F08C2F8170882309F4D6CEBC
:102CD0002D2F229526952770220F220F6D2F6F70B2
:102CE000862E912CB12CA12C022E04C0880C991C8C
:102CF000AA1CBB1C0A94D2F760E070E0CB01D4FFA1
:102D00000FC06FE070E080E090E004C0660F771FB6
:102D1000881F991F2A95D2F7609570958095909598
:102D2000C695C695C370C23051F080F468297929E0
:102D30008A299B29C13071F00E94331C9FCE6829DB
:102D400079298A299B290E94451C98CE0E94331C10
:102D5000C501B4010E94211C91CEE0E2ED0FE531E6
:102D600008F04DC0F0E0EF53F54D0C94282ADF70C9
:102D70008C2F8F71112321F00E94BC1B8D2FCFCE81
:102D80000E94DD1B8D2FDBCE112341F0053008F0B2
:102D900075CE8C2F8F710E94001C70CE063008F00B
:102DA0006DCEF7CF8C2F8F71112339F00E94BC1B91
:102DB00065CE8C2F8F711123C9F30E94DD1B5ECE6F
:102DC000112329F08C2F8F710E94A71B57CE0E94D0
:102DD000A21B54CE112349F0CF718C2F0E94BC1B33
:102DE00063E08C2F0E94C31D49CE81E00E94D81D54
:102DF000023008F443CE82E00E94D81D3FCE11235A
:102E000029F0011123CE8C2F8F71D0CF002369F0D0
:102E1000D93309F0A8CEFFEF23EC89E0F150204030
:102E20008040E1F700C000009ECE8C2F8F71C5CF8F
:102E30004C2F4F706D2FC7010E945C070E94D21A61
:102E40001DCE11111BCECF70C230B1F040F4CC2397
:102E500081F0C13009F012CE0E9444220FCEC4305E
:102E600089F068F080E0C53009F008CE0E94AA22FF
:102E700005CE0E942C2202CE0E948022FFCD0E940D
:102E80008722FCCD83E0F2CF4C2F4F706D2FC7010E
:102E90000E945F07F3CDDF91CF911F910F91FF90BB
:102EA000EF90DF90CF90BF90AF909F908F9008955C
:102EB0000F931F93CF93DF93EC018B819C81892B20
:102EC00029F08881998189238F3F29F4DF91CF915F
:102ED0001F910F910895CE010E944F058823B1F3F1
:102EE000688179818A810E94F81C8C010E94571C9C
:102EF0000E94591BB801CE01DF91CF911F910F9114
:102F00000C94DB140E94611D0E94711D0E948D1D96
:102F10000E9406220E94642190E080E00E941F121D
:102F200090E080E00C9435120E942A1D0C948217C8
:102F30000E94511D0C949417E92FE295EF70E25016
:102F4000EE3070F4F0E0EA52F54D0C94282A803F00
:102F500019F020F4803E20F481E00895843FE1F3ED
:102F600080E00895803EC0F3813FD1F7F5CF93FB19
:102F7000882780F908950E94EE1C0C949C17CF932B
:102F8000DF9300D000D00F92CDB7DEB70F900F9037
:102F90000F900F900F90DF91CF910895CF93DF9313
:102FA00000D000D000D0CDB7DEB726960FB6F8948B
:102FB000DEBF0FBECDBFDF91CF9108951F93CF939A
:102FC000DF93C0919C0116E080919D018C1304C099
:102FD000DF91CF911F910895D0E01C9FF0011D9FBC
:102FE000F00D1124E256FE4F4081518162817381C0
:102FF000848195810E94CE172196C770E5CF4091BC
:10300000CE015091CF016091D0017091D10180919A
:10301000D2019091D3010C94CE171F93CF93DF93DD
:103020008091D301807FC1F48091D0018823A1F0E9
:1030300080919C01C0919D016091CE017091CF0162
:103040004091D1015091D201D62FD723DA01A0951A
:10305000B09516E0C81304C0DF91CF911F91089579
:1030600090E04115510511F0DF3F31F40196877072
:10307000F1CF2A0F3B1F17C0189FF001199FF00DC9
:103080001124E256FE4F21812713F0CF2081261311
:10309000EDCF22812111EACF238134812417350716
:1030A00040F3241B350B283C310500F72091D30158
:1030B0002F7020612093D30126E0289FF001299FE3
:1030C000F00D1124ED55FE4F80818F70806180835B
:1030D0008EEC91E00E945817DF91CF911F910C94D4
:1030E000DE17BF92CF92DF92EF92FF920F931F9362
:1030F000CF93DF93CDB7DEB761970FB6F894DEBFFD
:103100000FBECDBF8C0185E0F801DE011D96019058
:103110000D928A95E1F7D8014C9111965C91119727
:103120001296EC9012978091D1019091D201009764
:1031300009F47FC12091CE013091CF01622F63232A
:103140006F3F09F476C11396CD90DC90B090D0011A
:10315000BB2009F411C1C816D906D0F1F601E81B4D
:10316000F90BCF01FF24F394883C910508F0F12C72
:103170008091D301982F907FFF2009F4B8C091115E
:103180007FC0FE2C351329C0241327C0E11025C0B1
:103190008F7080618093D3010E94FF178EEC91E0C5
:1031A0000E9458178091D301D80115968C938F2DCA
:1031B00061960FB6F894DEBF0FBECDBFDF91CF9101
:1031C0001F910F91FF90EF90DF90CF90BF900895E7
:1031D000809590958C0D9D1DC5CFCD2829F0852F0C
:1031E00084238F3F09F041C180E0B82FB170DB2EFE
:1031F00080FF3CC080919C0120919D0136E08213AC
:1032000015C04D875E878D859E850E94EE1C292FF7
:1032100022952F702230F0F0243018F59F70F1F0D5
:10322000F8019581907FD1F4D12C1EC090E0389F99
:10323000F001399FF00D1124E256FE4F61816513B4
:1032400006C06081641303C06281E6120FC001965C
:103250008770D5CF9F7011F0882331F3805E88305E
:1032600018F3C8010E945817FD2CA1CFEE2009F4D5
:103270009ECF8091D30181608093D301F12C97CFB1
:10328000351306C0241304C0D801EE2009F49AC0F7
:103290004D875E878D859E850E94BB17882319F117
:1032A000EE2009F18091D301803270F02091CE019F
:1032B0003091CF0138872F831986DB86CA868C87A9
:1032C000CE0107960E94581786E0F801AEECB1E0F7
:1032D00001900D928A95E1F70E940D180E94FF1748
:1032E000FF24F39464CFC8010E945817F9CF9111BD
:1032F00013C07C2DD98AC88A6E2D89890E94BF1778
:103300008EEC91E00E94581786E0EEECF1E0DF01D0
:103310001D928A95E9F763C0351312C0241310C0BB
:10332000E1100EC0F8018583C8010E945817EEEC29
:10333000F1E086E0DF011D928A95E9F7FB2C37CF9B
:103340004D875E878D859E850E94BB17882359F225
:10335000EE2049F28091D301803208F4B5CF20915C
:10336000CE013091CF013A8329831B82DD82CC824A
:103370008E83CE010196A6CFC816D90698F1F60124
:10338000E81BF90BCF01F12C883C910508F049C0EE
:10339000FE2CEE2009F4A7CF351332C0241330C021
:1033A0008091D30180FD23C0982F907F01F1D80137
:1033B00015968C931597903F39F0982F907F905FDA
:1033C0008F70892B15968C93C8010E94581786E040
:1033D000F801AEECB1E001900D928A95E1F70E9400
:1033E000FF17E5CE809590958C0D9D1DCCCF86E086
:1033F000F801AEECB1E001900D928A95E1F7D7CEDD
:103400004D875E878D859E850E94BB1781115CCF9D
:103410008091D30181608093D301C8010E94581725
:10342000C6CE7C2DD98AC88A6E2D89890E94BF1785
:103430006BCFEE2009F457CF4D875E878D859E8533
:103440000E94BB17F82E882309F44DCF86E0F801BF
:10345000AEECB1E001900D928A95E1F78EEC91E02F
:103460000E9456130E940D18BACF81E08E25BDCE62
:103470001F93CF93DF93CDB7DEB72C970FB6F89499
:10348000DEBF0FBECDBF4F83588769877A878B8792
:103490009C87CE0107960E947118882369F08A855F
:1034A0009B85892B39F04F815885842F85238F3F49
:1034B00009F071C016E05FC086E0FE013796DE01BC
:1034C000119601900D928A95E1F78A859B85892B4B
:1034D00089F388859F8189238F3F61F320919D0126
:1034E00030E0C90101968770992740919C014817E7
:1034F000190671F40E94981710929D0110929C0178
:1035000086E0EEECF1E0DF011D928A95E9F7D2CF7B
:1035100096E0929FD001939FB00D1124A256BE4F0A
:10352000FE01319601900D929A95E1F780939D01ED
:103530000E94DE17BFCF819FC001112482569E4F8B
:103540000E9471188823E9F0E0919C011E9FF00110
:103550001124E256FE4F4081518162817381848142
:1035600095810E94CE1780919C0190E00196877012
:10357000992780939C0180919C0190919D018913D2
:10358000DACF2C960FB6F894DEBF0FBECDBFDF9119
:10359000CF911F91089569857A858B859C850E94BE
:1035A000CE1788CFEF92FF920F931F93CF93DF93A5
:1035B0008C01892B81F0F12CEE24E394E801219613
:1035C000F8018491843770F4843008F05FC0813052
:1035D000B1F08230A1F1DF91CF911F910F91FF9057
:1035E000EF900895853709F44CC008F43DC09CE77E
:1035F000980F903780F78F770E94641449C00E5F50
:103600001F4FFE01849190E2980F983060F487700C
:10361000FE2D01C0FF0F8A95EAF78F2F0E94641DCF
:103620000E948D1D02C00E945B138F2D815030F2CD
:10363000EFE9FFE03197F1F700C00000F7CF0E5F30
:103640001F4FFE01849190E2980F983050F48770DC
:10365000FE2D01C0FF0F8A95EAF78F2F0E946A1D89
:10366000DFCF0E946414E1CF0E5F1F4FFE01C491B3
:10367000C150D8F28FE99FE00197F1F700C0000038
:10368000F7CF0E5F1F4FFE01F490CFCF0E945B1368
:103690008E01CBCF08950C944A1B0E944B1B609364
:1036A0000A0270930B0280930C0290930D020C940B
:1036B000821708950C944D1B0F931F9300910A02DB
:1036C00010910B0220910C0230910D02602B712B96
:1036D000822B932B1F910F910C944D1B0F931F93D3
:1036E00000910A0210910B0220910C0230910D0200
:1036F00060237123822393231F910F910C944D1B00
:103700000F931F9300910A0210910B0220910C025B
:1037100030910D0260277127822793271F910F9107
:103720000C944D1B0C944A1B0C94921B0E94941BEE
:103730006093060270930702809308029093090237
:103740000C94821760E070E0CB010C94961B0F93F1
:103750001F9341E050E060E070E08A019B0104C0EB
:10376000000F111F221F331F8A95D2F7C901B8011C
:103770001F910F910C94961B0F931F9341E050E003
:1037800060E070E004C0440F551F661F771F8A95E4
:10379000D2F78091060290910702A0910802B091A1
:1037A00009028A019B01082B192B2A2B3B2BC901EB
:1037B000B8011F910F910C94961B0F931F9341E03A
:1037C00050E060E070E004C0440F551F661F771F93
:1037D0008A95D2F7CB01BA01609570958095909546
:1037E000009106021091070220910802309109020F
:1037F00060237123822393231F910F910C94961BB6
:103800000F931F9341E050E060E070E004C0440F6C
:10381000551F661F771F8A95D2F7809106029091F7
:103820000702A0910802B09109028A019B010827B2
:1038300019272A273B27C901B8011F910F910C9422
:10384000961B0F931F93009106021091070220917F
:10385000080230910902602B712B822B932B1F9150
:103860000F910C94961B0F931F93009106021091D9
:1038700007022091080230910902602371238223FC
:1038800093231F910F910C94961B0F931F930091FC
:103890000602109107022091080230910902602768
:1038A0007127822793271F910F910C94961B0895DF
:1038B0002FE0929F800D1124982F977041E001C056
:1038C000440F9A95EAF786958695869595E0899FA7
:1038D000F0011124EC52FE4F90E080E070E0519135
:1038E000DF0111979B01082E02C0369527950A9497
:1038F000E2F7217021952527242325272C93019673
:103900008530910561F708952FE0929F800D112475
:10391000982F977086958695869525E0829FF00171
:103920001124EC52FE4F50E040E080E0219130E065
:10393000092E02C0369527950A94E2F721703327A5
:10394000042E01C0220F0A94EAF7822B4F5F5F4FCB
:103950004530510559F70895BF92CF92DF92EF920B
:10396000FF920F931F93CF93DF938C01C0900602B9
:10397000D0900702E0900802F090090280910A02BC
:1039800090910B02A0910C02B0910D02C82AD92A85
:10399000EA2AFB2ACFE1D0E0BC2ED701C6010C2ECB
:1039A00004C0B695A795979587950A94D2F780FDA0
:1039B0000EC0219788F7B12C8B2DDF91CF911F91ED
:1039C0000F91FF90EF90DF90CF90BF900895B801D6
:1039D0008C2F0E947C07019761F3EECFCF93DF938A
:1039E000EC010E94AC1CBE01DF91CF910C947C07CE
:1039F0001F93CF93DF93EB0190919B01992331F0BB
:103A0000CB01DF91CF911F910C94EE1C882379F0AC
:103A1000CB010E94AC1C182F682FCE010E94581CAD
:103A2000BE01812FDF91CF911F910C947C07CB01B8
:103A30000E94841C182FF4CF682F8091110190915F
:103A400012010C94B41E682F809111019091120103
:103A50000C94B61E80911101909112010C94B81E25
:103A600080910E02859585958595089580910E0229
:103A70008770089590910E02977081E009F480E0BC
:103A8000089580911A02089590911A02892B8093CB
:103A90001A020895809590911A02982390931A0221
:103AA000089510921A02089590911902892B80931B
:103AB0001902089580959091190298239093190204
:103AC000089510921902089590911802892B8093FD
:103AD00018020895809590911802982390931802E7
:103AE000089510921802089580910F020895089584
:103AF0000C94771D90910F02981721F080930F027C
:103B00000C94781D089580910F02882329F010925B
:103B10000F0280E00C94781D0895E0911101F0915E
:103B2000120180911A028083E0911101F09112013B
:103B3000808190911902892B8083E0911101F0918D
:103B40001201808190911802892B808390910F023D
:103B5000992381F0E0911101F09112018081892B6C
:103B6000808380911101909112010E947B1E81112E
:103B70000E94831D80911101909112010C940612F4
:103B800008950C94C01D98E0899F90011124622B28
:103B900060930E020E94BC1B80910E028595859554
:103BA00085950C94C11D10920E0280E00C94C11DED
:103BB00090910E028095892380930E02282F277002
:103BC00071F4282F082E000C330B9217130639F0CE
:103BD0008595859585950E94DD1B0C94D31D0895D0
:103BE0006FEF7FEF90E080E00C94872A90E080E018
:103BF0000E94632A21E08D3E9E4F09F020E0822F33
:103C0000089582E090E00C94552A83E090E00C94B3
:103C1000552A84E090E00C94552A682F84E090E0C7
:103C20000C94692A86E090E00C94552A682F86E06F
:103C300090E00C94692AAB01BC018FE090E00C94F9
:103C40007B2AAB01BC0183E190E00C947B2A60E00D
:103C500070E0CB010C94211E60E070E0CB010E946B
:103C60001B1E0C94271E6DEE7EEF90E080E00E94FC
:103C7000872A60E082E090E00E94692A60E083E0A9
:103C800090E00E94692A10920A0210920B02109290
:103C90000C0210920D0260E084E090E00E94692A1C
:103CA00060E085E090E00E94692A60E086E090E0B4
:103CB0000E94692A6FEF87E090E00E94692A40E045
:103CC00050E0BA0188E090E00E947B2A60E08DE03D
:103CD00090E00E94692A40E050E0BA0188E190E05B
:103CE0000E947B2A60E087E190E00E94692A0C94A0
:103CF0002C1E0C94331E9C012E5F3F4FAC01485F7D
:103D00005F4F80E02417350709F40895F901919178
:103D10009F019923B9F38F5FF5CF9C01FC01329687
:103D20009FEF80E04191461751F09F3F19F44111F8
:103D300001C0982F8F5F8630A9F79F3F09F408953F
:103D4000290F311D97FD3A95F90162830895FC0111
:103D5000329608962191261303C0DF0111971C9219
:103D6000E817F907B9F708950C948D1E0C94A71E57
:103D7000029626E0FC0111922A95E9F7089508952C
:103D800008950C94C01E0E94C11E80915E02843072
:103D900009F43CC010921C0288E190E020E40FB6C8
:103DA000F894A895809360000FBE2093600080E097
:103DB0000E946D0480E00E943D050E947310809176
:103DC0001D0281110AC081E080931D02809134029E
:103DD000817080931E020E94A10F0E94C11E83B7B2
:103DE000817F846083BF83B7816083BF7894889527
:103DF00083B78E7F83BF0FB6F894A895809160003B
:103E0000886180936000109260000FBE089508954D
:103E1000CF930E94BF1E0E94760A0E94071FC0E037
:103E20008C2F0E94060A892B31F4CF5FC530C1F771
:103E300080E0CF91089581E0FCCF08950C941D1F80
:103E40000E9498170E9412220E94FA110E943D05BA
:103E500010921D0280911E0281110E946B100E941F
:103E6000B30F0C941E1F1F921FB61F9211248F9325
:103E70009F93AF93BF9380911C02811113C08091D7
:103E8000530290915402A0915502B091560241966E
:103E9000A11DB11D8093530290935402A09355022B
:103EA000B0935602BF91AF919F918F911F901FBE0B
:103EB0001F90189582E084BD93E095BD9AEF97BD61
:103EC00080936E0008952FB7F894809153029091DB
:103ED0005402A0915502B09156022FBF0895CF927F
:103EE000DF92EF92FF920F931F932FB7F8944091B8
:103EF00053025091540260915502709156022FBFA7
:103F00006A017B01EE24FF248C0130E020E0C01622
:103F1000D106E206F30650F0481B590BCA011F9167
:103F20000F91FF90EF90DF90CF900895415051098D
:103F3000F3CF78941F921FB61F9211248F939F93F3
:103F4000AF93BF938091530290915402A091550278
:103F5000B09156020196A11DB11D8093530290931A
:103F60005402A0935502B0935602BF91AF919F9116
:103F70008F911F901FBE1F90189581E08093E000E5
:103F800080E28093D8001092C9008FE19EE40197EF
:103F9000F1F700C0000087E090EBDC01809367023E
:103FA00090936802A0936902B0936A0288E19CE052
:103FB0000FB6F894A895809360000FBE90936000B0
:103FC000FFCF0E94F61D811102C00E94791E0E943F
:103FD000011E80931B020E94091E90E090935802DC
:103FE000809357020E94051E682F70E090E080E0E9
:103FF0000C945A1B8091220280FF12C0609116011E
:1040000085E0689FB0011124759567957595679552
:1040100060387105A8F561157105A1F1862F089525
:1040200081FF09C06091160185E0689FB0011124ED
:1040300075956795EDCF6091160182FD0AC080915C
:1040400021028823D1F09091150160911601891702
:1040500028F085E0689FB0011124DACF869FB00177
:10406000112485E0869F9001879F300D1124692FD0
:1040700070E0C9010E94F229CBCF65E070E0CECF9D
:104080008FE7089581E008958091220280FF0CC09F
:104090006091140170E07595679575956795611548
:1040A000710549F1862F089581FF06C060911401C2
:1040B00070E075956795F3CF6091140182FD0BC098
:1040C000909121029923A1F0609113018091140134
:1040D000961738F0682F70E06038710500F38FE7AD
:1040E0000895899FC001112470E00E94F229F4CF45
:1040F00061E070E0D7CF81E00895803F31F40E9405
:10410000FA1F8195809326020895813F19F40E9439
:10411000FA1FF8CF823F31F40E94FA1F81958093F5
:1041200025020895833F19F40E94FA1FF8CF893FB2
:1041300029F40E9444208093270208958A3F21F4A5
:104140000E9444208195F7CF8B3F31F40E94442098
:1041500081958093280208958C3F19F40E94442091
:10416000F8CF843F31F4809124028160809324024F
:104170000895853F21F4809124028260F7CF863F25
:1041800021F4809124028460F1CF873F21F4809153
:1041900024028860EBCF883F21F480912402806163
:1041A000E5CF8D3F31F4809122028160809322021D
:1041B00008958E3F21F4809122028260F7CF8F3FD5
:1041C000B9F7809122028460F1CF90912502803F5F
:1041D00041F48091260287FD10922602992371F006
:1041E0000895813F29F4809126021816ACF3F6CF8A
:1041F000823F81F497FFF2CF109225028091260230
:1042000090912702892B90912802892B49F71092CF
:1042100021020895833F19F4191674F3DFCF893F03
:1042200039F4809127021816CCF610922702D6CFC7
:104230008A3F29F48091270287FFD0CFF6CF8B3FAA
:1042400039F48091280287FFC9CF10922802C6CF87
:104250008C3F29F4809128021816BCF3BFCF843F0D
:1042600031F4809124028E7F80932402B7CF853F62
:1042700021F4809124028D7FF7CF863F21F4809135
:1042800024028B7FF1CF873F21F480912402877F26
:10429000EBCF883F21F4809124028F7EE5CF8D3FC4
:1042A00031F4809122028E7F8093220297CF8E3F3D
:1042B00021F4809122028D7FF7CF8F3F09F08ECFBE
:1042C000809122028B7FF0CF83E292E00E94111254
:1042D0000E94631F9093200280931F0208951F93F2
:1042E000CF93DF9380911F02909120020E946F1F55
:1042F000AC01909121022091170130E0911106C08C
:10430000209118018AE0289F900111244217530739
:1043100078F020912502C0912602D09127021091B9
:104320002802211109C08C2F8D2B812B09F06AC026
:10433000DF91CF911F9108959F3F19F09F5F909358
:104340002102121624F40E94FA1F80932502809104
:10435000250287FF05C00E94FA1F819580932502E0
:104360001C1624F40E94FA1F8093260280912602D4
:1043700087FF05C00E94FA1F819580932602309125
:1043800025023323A1F020912602222381F045EB60
:104390003403C0011124992369F19093250245EB60
:1043A000240390011124332349F1309326021D1672
:1043B00024F40E944420809327028091270287FFE3
:1043C00005C00E944420819580932702111624F491
:1043D0000E944420809328028091280287FF05C014
:1043E0000E944420819580932802DF91CF911F91F4
:1043F0000C94642181E080932502D1CF81E08093E9
:104400002602D5CF9F3F09F099CFAACF86E0E3E2FD
:10441000F2E0DF011D928A95E9F7109221021092D5
:10442000220208950E94F61D811102C00E94791E89
:104430000E94121E80935902883020F0817086609D
:104440008093590290915902892F817090FF02C088
:10445000892F86950C946D0480915902982F96951A
:10446000933030F49F5F990F8170892B80935902AC
:10447000809159028160809359020E94161E80919A
:10448000590286950C946D0480915902982F9E7F55
:1044900079F08250809359028E7F91E009F490E088
:1044A0008091590290FB80F9809359020E94161E58
:1044B0008091590286950C946D048091590280FD7B
:1044C00011C0816080935902813019F483E0809398
:1044D0005902809159020E94161E809159028695B8
:1044E0000C946D0408958091590280FF08C08E7F5E
:1044F000809359020E94161E80E00C946D0408956A
:104500008091590280FD0C9473220C945D2290914D
:104510005902892F86958F5F8F7791708430B8F418
:10452000880F892B80935902809159028E7F91E0E8
:1045300009F490E08091590290FB80F98093590230
:104540000E94161E8091590286950C946D049093DA
:104550005902EACF843008F083E0982F990F8091B8
:1045600059028170892B809359028E7F91E009F462
:1045700090E08091590290FB80F9809359020E944B
:10458000161E8091590286950C946D0480915902F3
:10459000869508958091310208950F931F93CF93CC
:1045A000DF9300D00F92CDB7DEB78C010E9420259B
:1045B000823011F0843021F584E089831B830A83E3
:1045C00082E08093E9008FEF9091E800815095FDA3
:1045D00006C095ED9A95F1F700008111F5CF809115
:1045E000E80085FF0DC050E040E063E070E0CE01E0
:1045F00001960E943D258091E8008E778093E80027
:104600000F900F900F90DF91CF911F910F91089510
:10461000CF93DF9300D00F92CDB7DEB720915E022B
:10462000243031F523E02983805891099B838A83C4
:1046300082E08093E9008FEF9091E800815095FD32
:1046400006C095ED9A95F1F700008111F5CF8091A4
:10465000E80085FF0DC050E040E063E070E0CE016F
:1046600001960E943D258091E8008E778093E800B6
:104670000F900F900F90DF91CF910895CF93DF931C
:10468000EC010E942025823011F08430F9F482E0A0
:104690008093E9008FEF9091E800815095FD06C06E
:1046A00095ED9A95F1F700008111F5CF8091E80022
:1046B00085FF0CC050E040E066E070E0CE010E9453
:1046C0003D258091E8008E778093E800DF91CF91BF
:1046D0000895CF93DF93EC010E942025823011F0E2
:1046E000843039F581E08093E9008FEF9091E80004
:1046F000815095FD06C095ED9A95F1F70000811166
:10470000F5CF8091E80085FF14C050E040E068E0FC
:1047100070E0CE010E943D258091E8008E77809365
:10472000E80088E0FE01A9E2B2E001900D928A95CE
:10473000E1F7DF91CF91089580915D02811109C069
:104740000E94CD260E942A278091E20084608093F7
:10475000E200089510925D020895089508950C9462
:10476000201F42E061EC81E00E94492642E261ECB8
:1047700082E00C94492680916002833009F45FC086
:1047800030F48130C1F1823009F49BC008958A3041
:1047900009F487C08B3009F46DC0893009F04EC030
:1047A00080915F02813209F049C08091630290914B
:1047B0006402029708F042C08091E800877F8093EE
:1047C000E8008091E80082FF35C09091F30080916D
:1047D000F200029729F48091F1008B7F813021F45F
:1047E0008091F100809331028091E8008B77809373
:1047F000E8000C947D2680915F02813AF9F4809163
:10480000E800877F8093E8008091630290916402C2
:10481000892B61F468E089E292E070E00E948C25C7
:104820008091E8008B778093E800089560E090E045
:1048300080E0F3CF80915E028111C3CF0895809113
:104840005F02813AD9F78091630290916402892BCB
:10485000A9F78091E800877F8093E8008091E800C5
:1048600080FFFCCF809123018093F1008091E800CC
:104870008E77BDCF80915F02813201F78091630214
:1048800090916402892BD1F68091E800877F809314
:10489000E8000E947D2680916102809323010C94A0
:1048A000981780915F02813249F68091E800877FF6
:1048B0008093E8000E947D268091620280933202FC
:1048C000089580915F02813A09F0B8CF8091E800A5
:1048D000877F8093E8008091E80080FFFCCF809183
:1048E0003202C2CF84B7877F84BF0FB6F894A895F1
:1048F00080916000886180936000109260000FBE1C
:1049000080E880936100109261000E9459120E9419
:10491000CD260E942A278091E20084608093E200E5
:1049200078940E94B3290E94611289E191E00E946B
:10493000F51180915E02853029F00E946D120E946F
:104940007610F7CF0E94C31E80915C02882389F302
:104950000E94081F882369F30E942725EACF0C9440
:10496000B124292F33272330310519F168F4213080
:10497000310509F44AC02230310509F44BC090E0FA
:1049800080E030E020E028C02132310579F1223288
:104990003105A9F780E490E02DEA36E06115710554
:1049A000D9F085E890E028E236E061307105A1F0A9
:1049B000E6CF99278130910599F0009741F0823038
:1049C000910589F00397D9F6EBE9F5E002C0E7ED30
:1049D000F5E0849190E09F01FA01318320830895EE
:1049E000E5ECF5E0F6CFE1EAF5E0F3CF89E090E021
:1049F0002DEE35E06115710579F389E090E026E050
:104A000036E06130710541F3BACF82E190E026E1F2
:104A100036E0E2CF8BE390E02BED35E0DDCF08957B
:104A2000CF93C82F0E940F25C0933302CF910895D2
:104A300080915E02843011F482E0089581E008954F
:104A400080913302811102C00C941825089580E1F1
:104A500089BD82E189BD09B400FEFDCF8091D800F7
:104A60008F7D8093D8008091E00082608093E00089
:104A70008091E00081FDFCCF0895AF92BF92CF926C
:104A8000DF92FF920F931F93CF93DF936C01EB01A3
:104A90008A010E949C26F82E811123C00115110560
:104AA00039F0F80180819181C81BD90BC80ED91E3D
:104AB000B12CA12C2097A9F08091E80085FD22C09F
:104AC0008091E8008E778093E80001151105A1F030
:104AD000F80180819181A80EB91EB182A08285E083
:104AE000F82E8F2DDF91CF911F910F91FF90DF90C6
:104AF000CF90BF90AF9008950E949C268823D1F25A
:104B0000F82EEFCFF60181916F018093F10021978C
:104B1000FFEFAF1ABF0ACECFFC01809165029091E2
:104B2000660286179707A0F06115710529F4909128
:104B3000E8009E779093E80090E06115710551F4CC
:104B4000911108C08091E80082FF34C080E0089590
:104B5000BC01F2CF80915E028823C1F18530C1F1A2
:104B60008091E80083FD30C08091E80082FDEACFAB
:104B70008091E80080FFE1CF8091F3002091F20066
:104B8000382F6115710519F02830310558F091E082
:104B90002830310509F090E02091E8002E7720932D
:104BA000E800CBCF81918093F100615071092F5FB4
:104BB0003F4FE7CF80915E02882341F0853041F07E
:104BC0008091E80083FFBECF81E0089582E00895E0
:104BD00083E00895FC01809165029091660286173A
:104BE0009707A0F06115710529F48091E8008E7790
:104BF0008093E80090E06115710551F4911108C0AF
:104C00008091E80082FF35C080E00895BC01F2CFBA
:104C100080915E028823C9F18530C9F18091E80056
:104C200083FD31C08091E80082FDEACF8091E800E9
:104C300080FFE1CF8091F3002091F200382F6115C1
:104C4000710519F02830310558F091E02830310510
:104C500009F090E08091E8008E778093E800CBCF58
:104C600084918093F1003196615071092F5F3F4F1D
:104C7000E6CF80915E02882341F0853041F080913B
:104C8000E80083FFBDCF81E0089582E0089583E0CE
:104C90000895982F973028F08F708093E90081E075
:104CA00008959093E900242F762F50E0981731F063
:104CB0007091EC002091ED005091F00021FD02C0B8
:104CC0009F5FE8CF3091EB003E7F3093EB00309157
:104CD000ED003D7F3093ED003091EB00316030937B
:104CE000EB007093EC002093ED005093F0002091C6
:104CF000EE0027FDE5CF80E0089580915F0287FFF9
:104D000013C08091E80082FF06C08091E8008B7795
:104D10008093E80004C080915E028111F2CF089573
:104D200080915E028823D9F38091E80080FFF8CF5C
:104D30008091E8008E77ECCF2091E4003091E5007F
:104D400095E6A9012091EC00822F817020FF06C01A
:104D50008091E80080FF06C080E008952091E8007F
:104D600022FD1AC080915E02882389F0853089F087
:104D70008091EB0085FD0FC02091E4003091E500AB
:104D800042175307F9F29150E1F684E0089582E06A
:104D9000089583E0089581E008950E943B270E94D2
:104DA0004327E0EEF0E0808181608083E8EDF0E071
:104DB00080818F77808319BCA7EDB0E08C918E7FC6
:104DC0008C9380818F7E808310925D0208950F9373
:104DD0001F93CF93DF930E943B270E944327C8ED88
:104DE000D0E088818F7788838881806888838881F4
:104DF0008F7D888319BC10925E0210925A02109225
:104E00005C0210925B0200EE10E0F80180818B7F63
:104E1000808388818160888342E060E080E00E9436
:104E20004926E1EEF0E080818E7F8083E2EEF0E0C3
:104E3000808181608083808188608083F8018081A7
:104E40008E7F8083888180618883DF91CF911F91DD
:104E50000F910895E8EDF0E080818F7E8083E7ED8B
:104E6000F0E080818160808384E082BF81E0809374
:104E70005D020C94E726E8EDF0E080818E7F808370
:104E80001092E20008951092DA001092E100089565
:104E90001F920F920FB60F9211242F933F934F93AF
:104EA0005F936F937F938F939F93AF93BF93EF9392
:104EB000FF938091E10082FF0BC08091E20082FFAE
:104EC00007C08091E1008B7F8093E1000E94B229AE
:104ED0008091DA0080FF19C08091D80080FF15C052
:104EE0008091DA008E7F8093DA008091D90080FF74
:104EF00096C080E189BD82E189BD09B400FEFDCF85
:104F000081E080935E020E949C238091E10080FFFB
:104F100019C08091E20080FF15C08091E2008E7F71
:104F20008093E2008091E20080618093E2008091B2
:104F3000D80080628093D80019BC85E080935E021F
:104F40000E94AE238091E10084FF2BC08091E2009B
:104F500084FF27C080E189BD82E189BD89B5982F92
:104F6000917080FFFBCF8091D8008F7D8093D80017
:104F70008091E1008F7E8093E1008091E2008F7E3E
:104F80008093E2008091E20081608093E200809152
:104F90005A02882309F449C084E080935E020E948B
:104FA000AF238091E10083FF29C08091E20083FF5D
:104FB00025C08091E100877F8093E10082E08093AB
:104FC0005E0210925A028091E1008E7F8093E10090
:104FD0008091E2008E7F8093E2008091E200806108
:104FE0008093E20042E060E080E00E9449268091E8
:104FF000F00088608093F0000E94AD23FF91EF9154
:10500000BF91AF919F918F917F916F915F914F91E0
:105010003F912F910F900FBE0F901F90189519BCC4
:1050200010925E020E94AA2370CF8091E30087FD58
:1050300093E090935E02B3CF1F920F920FB60F9240
:1050400011242F933F934F935F936F937F938F938D
:105050009F93AF93BF93CF93DF93EF93FF93D09141
:10506000E900DF708091EC00C82FC17080FDC0E8BE
:105070001092E9008091F000877F8093F00078948F
:105080000E9460281092E9008091F000886080936F
:10509000F000CD2BCF70C093E900FF91EF91DF912D
:1050A000CF91BF91AF919F918F917F916F915F91C0
:1050B0004F913F912F910F900FBE0F901F90189519
:1050C0001F93CF93DF93CDB7DEB7AA970FB6F894AF
:1050D000DEBF0FBECDBF8FE592E02091F100FC0155
:1050E0002193CF01F2E087369F07B9F70E94BB23D7
:1050F0008091E80083FF1EC180915F029091600261
:105100009A3008F017C1E92FF0E0EC51F54D0C94FE
:10511000282A803899F0823809F00CC18091630206
:105120008F70873008F006C18093E9008091EB0012
:1051300085FB882780F91092E90006C080915B0208
:1051400090915C02911182609091E800977F90931A
:10515000E8008093F1001092F1008091E8008E77D2
:10516000E5C0882309F4D3C0823009F0E3C0809100
:1051700061028111D6C0809163028F702FEF280FDA
:10518000263008F0D7C08093E9002091EB0020FF83
:10519000C8C0933031F48091EB0080628093EB00C3
:1051A000C0C09091EB0090619093EB0021E030E063
:1051B00001C0220F8A95EAF72093EA001092EA00D4
:1051C0008091EB008860EACF8111B4C01091610238
:1051D0001F778091E3008078812B8093E30080919A
:1051E000E800877F8093E8000E947D268091E80098
:1051F00080FFFCCF8091E30080688093E30082E031
:10520000111183E080935E0295C08058823008F0CF
:1052100091C080916102909162028C3D23E09207DF
:10522000A1F583E08A838AE289834FB7F894DE018F
:10523000139620E03EE051E2E32FF0E05093570058
:10524000E49120FF03C0E295EF703F5FEF708E2F77
:1052500090E0EA30C0F0C7968D939D932F5F243184
:1052600059F74FBF8091E800877F8093E8006AE29A
:1052700070E0CE0101960E948C258091E8008B772A
:105280008093E80057C0C096E7CF609163027091A9
:105290006402AE014F5F5F4F0E94AF24BC01892BB7
:1052A00009F448C09091E800977F9093E8008981C5
:1052B0009A810E94EA25E1CF8038E1F58091E800EB
:1052C000877F8093E80080915A028093F10045CF58
:1052D000811130C090916102923060F58091E800B8
:1052E000877F8093E80090935A020E947D268091E8
:1052F0005A02882311F084E005C08091E30087FD05
:10530000FACF81E080935E020E94B12313C08091A6
:105310006102813079F481E0933009F080E080937C
:105320005C021092E9008091E800877F8093E8009A
:105330000E947D268091E80083FF0AC08091E800EA
:10534000877F8093E8008091EB0080628093EB0080
:10535000AA960FB6F894DEBF0FBECDBFDF91CF91F6
:105360001F9108950895CF9380915E028823A1F044
:10537000C091E900CF709091EC00892F817090FD71
:1053800080E8C82B1092E9008091E80083FD0E941C
:105390006028CF70C093E900CF910895DB018F930F
:1053A0009F930E943D2ABF91AF91A29F800D911DB6
:1053B000A39F900DB29F900D11240895AA1BBB1BB3
:1053C00051E107C0AA1FBB1FA617B70710F0A61B05
:1053D000B70B881F991F5A95A9F780959095BC0126
:1053E000CD01089597FB072E16F4009407D077FDA2
:1053F00009D00E94DE2907FC05D03EF490958195E6
:105400009F4F0895709561957F4F0895A1E21A2EE0
:10541000AA1BBB1BFD010DC0AA1FBB1FEE1FFF1F58
:10542000A217B307E407F50720F0A21BB30BE40BA8
:10543000F50B661F771F881F991F1A9469F76095EF
:105440007095809590959B01AC01BD01CF010895A9
:10545000EE0FFF1F0590F491E02D0994A29FB0017B
:10546000B39FC001A39F700D811D1124911DB29F98
:10547000700D811D1124911D08950E942E2AA59F53
:10548000900DB49F900DA49F800D911D112408953F
:10549000FC014150504030F001900616D1F7319791
:1054A000CF010895882799270895F999FECF92BDD5
:1054B00081BDF89A992780B50895A6E1B0E044E04F
:1054C00050E00C948F2AA8E1B0E042E050E00C9448
:1054D0008F2A262FF999FECF92BD81BDF89A0197A8
:1054E00000B4021639F01FBA20BD0FB6F894FA9A2C
:1054F000F99A0FBE08950396272F0E946A2A0E94E8
:10550000692A252F0E946A2A242F0C946A2A019660
:10551000272F0E946A2A0C94692ADC01CB01FC0126
:10552000F999FECF06C0F2BDE1BDF89A319600B4FC
:105530000D9241505040B8F70895F894FFCFE90616
:10554000F506F906FD060107050709070D0711070E
:10555000150719071D072107250729072D073107FB
:1055600035071115111570157015B715D3153E15A2
:105570003E1515163E15AD16AD16181721173E151A
:105580004417B716B716B716B716B716B716B71625
:10559000B716B716B716B716B716B716B716B716A3
:1055A000B716C416D216D916E016EA16A717A7170B
:1055B000B017B017B217B017B017B017A717A717C3
:1055C000B717B017B017B7178928B1289A29B1288B
:0C55D0009A29E42805299A295C296829F9
:1055DC0006010208080801191A1B1C1D1E1F202198
:1055EC002210022808140A321ECA2269233E2308FC
:1055FC0023CD220130F5F6F767663635349796944D
:10560C009593929091F0F4F10001020202020606C9
:10561C00060909090909090F0F0F0F0F0F151515A9
:0E562C00181919191919191919191923240017
:00000001FF
