:100000000C9477040C94BE040C94BE040C94BE04AF
:100010000C94BE040C94BE040C94BE040C94BE0458
:100020000C94BE040C94BE040C9416280C94EC287A
:100030000C94CB270C94BE040C94BE040C94BE0408
:100040000C94BE040C94BE040C94BE040C94BE0428
:100050000C94BE040C94F2270C94BE040C94BE04C1
:100060000C94BE040C94BE040C94BE040C94BE0408
:100070000C94BE040C94BE040C94BE040C94BE04F8
:100080000C94BE040C94BE040C94BE040C94BE04E8
:100090000C94BE040C94BE040C94BE040C94BE04D8
:1000A0000C94BE040C94BE040C94BE040501090219
:1000B000A10185020901A1000509190129081500FE
:1000C0002501950875018102050109300931158165
:1000D000257F95027508810609381581257F9501D0
:1000E00075088106050C0A38021581257F95017572
:1000F000088106C0C005010980A101850319012AF4
:10010000B700150126B700950175108100C0050CD8
:100110000901A101850419012AA002150126A002E6
:10012000950175108100C005010906A10105071997
:10013000E029E715002501950875018102950175F3
:100140000881010507190029FF150026FF00950603
:1001500075088100050819012905950575019102A9
:10016000950175039101C009023B00020100A0FA4C
:10017000090400000103010100092111010001220D
:1001800040000705810308000A090401000103007B
:100190000000092111010001227B000705820320D4
:1001A000000A1201000200000008D804E9EC010076
:1001B000010200010A0368003800370061000000F6
:1001C0002803680069006E00650079006200750010
:1001D0007300680020006B006500790062006F000A
:1001E000610072006400730000000403090422230C
:1001F000252628292A2C2D2F3032333536383A3B04
:100200003D3E4042434547494A4C4E505153555755
:10021000595A5C5E6062646668696B6D6F71737574
:1002200077797B7D7F81838587898A8C8E90929474
:1002300096989A9C9E9FA1A3A5A7A8AAACAEAFB181
:10024000B3B4B6B8B9BBBCBEBFC1C2C3C5C6C7C9CB
:10025000CACBCCCDCED0D1D2D2D3D4D5D6D7D7D885
:10026000D9D9DADADBDBDBDCDCDCDCDCDDDDDDDDD7
:10027000DCDCDCDCDCDBDBDBDADAD9D9D8D7D7D6DF
:10028000D5D4D3D2D2D1D0CECDCCCBCAC9C7C6C596
:10029000C3C2C1BFBEBCBBB9B8B6B4B3B1AFAEACDC
:1002A000AAA8A7A5A3A19F9E9C9A98969492908E87
:1002B0008C8A89878583817F7D7B79777573716F60
:1002C0006D6B6968666462605E5C5A59575553513C
:1002D000504E4C4A4947454342403E3D3B3A3836F2
:1002E000353332302F2D2C2A292826252322FFAA08
:1002F0007F554000010101010101010101020202DB
:1003000002020202020203030303030303030404C1
:10031000040404040405050505050606060606078B
:100320000707070708080808090909090A0A0A0B44
:100330000B0B0C0C0C0D0D0D0E0E0E0F0F0F1010E5
:10034000111111121213131414151516161717186C
:100350001819191A1A1B1B1C1D1D1E1E1F202021D7
:100360002222232424252626272829292A2B2C2D1E
:100370002D2E2F30313232333435363738393A3B3F
:100380003C3D3E3F404142434445464748494A4C34
:100390004D4E4F50515354555658595A5B5D5E5F00
:1003A000616264656668696B6C6D6F707273757796
:1003B000787A7B7D7E8082838587888A8C8E8F91F8
:1003C000939596989A9C9EA0A2A3A5A7A9ABADAF22
:1003D000B1B3B5B7BABCBEC0C2C4C6C9CBCDCFD10C
:1003E000D4D6D8DBDDDFE2E4E7E9EBEEF0F3F5F8B5
:1003F000FAFDFF00047F3F1F643214643214783C1E
:100400001E1E140A0500000000000000000000008D
:1004100000000000000000000000000000000000DC
:100420000000000000000000007E0F00D4FFFFFF6E
:10043000C70000007800000000000000002A2B2800
:1004400000000000000000000000000000000000AC
:1004500029000000002C1E342021222434262725C8
:100460002E362D3738271E1F202122232425263300
:1004700033362E37381F0405060708090A0B0C0D02
:100480000E0F101112131415161718191A1B1C1D14
:100490002F3130232D350405060708090A0B0C0DF2
:1004A0000E0F101112131415161718191A1B1C1DF4
:1004B0002F3130354C29003A003C003E004000000E
:1004C0000043004500AE0000003B003D003F0041FE
:1004D0000042004400AC00AB0035001F00210023A7
:1004E00000250027002E0029004A001E00200022BF
:1004F00000240026002D00310049004B002B001A7B
:100500000015001C000C001300300000004D00140A
:100510000008001700180012002F002A004C004E9F
:10052000002961160009000B000E003300320000A4
:10053000000000040007000A000D000F003400282E
:100540000000000000E1001D00060005001000375B
:1005500000E5000000520000001B001900110036E9
:10056000003800045100000000E200E30000000039
:100570000000000000E60000005100E20000000062
:10058000002C4200000351045150004F0029003A52
:10059000003C003E004000000043004500AE00006B
:1005A000003B003D003F00410042004400AC00AB76
:1005B0000035001F0021002300250027002E002900
:1005C000004A001E0020002200240026002D0031D9
:1005D0000049004B002B001A0015001C000C0013F2
:1005E00000300000004D0014000800170018001231
:1005F000002F002A004C004E00E000160009000BFE
:10060000000E003300320000000000040007000A62
:10061000000D000F003400280000000000E1001D64
:10062000000600050010003700E500000052000041
:10063000001B0019001100360038000451000000B2
:1006400000E200E3000000000000000100010000E3
:100650000051000100000000002C000000035104C4
:100660005150004F00010001000100010001000095
:100670000001000100010000000100010001000173
:100680000001000100010001000100010001000162
:10069000000100A800A90001000100010001000103
:1006A0000001000100AA0001000100010001005248
:1006B00000010001000100460001000000010001EE
:1006C00000010001000100010001004C00010001D7
:1006D00000E0005100010050005200010001000044
:1006E00000000050004F00010051004F00010001C8
:1006F000000000000001000100010001000100AB4A
:10070000000100000001000100010001000100AC37
:1007100000AE000100000000000100010000000028
:1007200000000001000100000001000100000000C5
:1007300000010000000100010001000100010001B2
:1007400000010001000100000001000100010000A3
:100750000001000100010001000100010001000191
:10076000001114010001000C14010001000100013E
:10077000000100010001000100010001002D08013D
:100780000001000100010001000100010001000161
:100790000001000000010001003414645D0100123A
:1007A00014010001000100010001000100010065C9
:1007B0005D010001000100000000000414010001BF
:1007C0000001000100081401000000000001000108
:1007D0000006140100635D0100010000000100013A
:1007E0000001000100010001000100010000000003
:1007F00000010001000000000000000100010000F5
:1008000000010001000000000001000000010001E3
:100810000001000100005C0000000000000000007A
:1008200000000000000000000000000000000000C8
:1008300000000000000000000000000000000000B8
:100840000000000000000001530000000000000054
:1008500000000000000000000000000000C35CC8B1
:100860005C0000000000000000000000000000C666
:100870005CCA5C00000000000000000000000000F6
:1008800000C45CC95C000000000000000000000023
:10089000000000C75CCB5C0000000000000000000E
:1008A0000000000000000000000000000000000048
:1008B0000000000000ED000000000000000000004B
:1008C0000000000000000000000000000000000028
:1008D000000000000000000000EE0000000000002A
:1008E000000000000000000100EF00F000001124F3
:1008F0001FBECFEFDAE0DEBFCDBF04B603FE27C0D8
:100900008091320390913303A0913403B091350369
:100910008730904BA740B04BD1F410923203109225
:100920003303109234031092350314BE84B7877FCB
:1009300084BF0FB6F894A895809160008861809379
:100940006000109260000FBEE0E0F8E3099511E04E
:10095000A0E0B1E0E6E3F5E502C005900D92A63B0C
:10096000B107D9F723E0A6EBB1E001C01D92A23395
:10097000B207E1F70E9413240C94422A0C94000061
:1009800082FB992790F981FD05C05D9A911104C001
:10099000769A08955D98FACF76980895E82F29E021
:1009A000929FE00D11248E2F877041E001C0440F0B
:1009B0008A95EAF7E695E695E69585E0E89FF001E9
:1009C0001124E257FD4F30E020E070E05191DF014B
:1009D0001197CB01022E02C0969587950A94E2F7F3
:1009E000817081958527842385278C932F5F3F4FC6
:1009F0002530310559F70895E82F29E0929FE00D41
:100A000011249E2F9770E695E695E69585E0E89F80
:100A1000F0011124E257FD4F50E040E080E02191C9
:100A200030E0092E02C0369527950A94E2F721702E
:100A30003327042E01C0220F0A94EAF7822B4F5F5E
:100A40005F4F4530510559F708958091FB02909111
:100A5000FA02981301C008958F5F8770FACFAAEB4E
:100A6000B1E0EFEF90E02D91821751F0EF3F19F4D4
:100A7000211101C0E92F9F5F9630A9F7EF3F09F4DC
:100A800008950E2E000CFF0BE854FE4F828308954C
:100A9000EAEBF1E09191891303C0DF0111971C92F9
:100AA00091E0E03CF907B1F708958091EC028111E3
:100AB0001092EC0208958091EB029091F902892B3B
:100AC0009091F702892B8093B8019091EC029923C1
:100AD00091F0892B8093B80120E08AEB91E0FC0132
:100AE0003081019631112F5F31E0803C9307B9F7D7
:100AF00021110E945505E0918C02F0918D023097F2
:100B000031F00280F381E02D88EB91E009940895A3
:100B1000882339F09091EB02892B8093EB020C949F
:100B20005B050895882341F080959091EB0289231D
:100B30008093EB020C945B050895882339F0909123
:100B4000F902892B8093F9020C945B0508958823A0
:100B500041F080959091F90289238093F9020C94D9
:100B60005B0508959091F50292FF06C0282F287129
:100B70002830F9F4877F846093FF06C0282F2871FE
:100B80002831F1F4877E84612091F60220FF06C0AF
:100B9000382F38713830D9F4877F816021FF06C043
:100BA000282F28712831D1F4877E816194FD877EBA
:100BB0000895282F24712430F9F68B7F8860DCCFCC
:100BC000282F2471243101F78B7E8861DDCF382FE7
:100BD0003171313019F78E7F8860E0CF282F217175
:100BE000213121F78E7E8861E1CFCF93DF93EC0135
:100BF000803E910509F46DC008F040C08133910535
:100C000009F4A7C0D8F48932910509F49BC08A97EA
:100C100009F4A6C0C11521E5D20708F0D0C0C1155E
:100C200030E5D30708F03AC1CF3FD10511F008F005
:100C3000ACC0CD3ED10560F0D0655EC08933910572
:100C400009F440C082389105E9F1C59709F473C0F1
:100C5000CF3BD10508F08BC0C83AD10508F009C1D7
:100C6000C53AD10508F002C1C130D10509F444C02C
:100C7000CE010497813A9105C0F53EC0843E9105AE
:100C800009F449C060F4823E910591F1833E9105DB
:100C9000B9F1CE01805E9109089738F52DC0863EE6
:100CA000910509F443C0873E910509F0B3CF8091C7
:100CB000F50283FD47C19091F60291FF29C0C4EE71
:100CC000D0E01AC08091F5028370B1F0C0EED0E0A0
:100CD00013C08091F50280FD2FC19091F60290FF24
:100CE0000BC0C3EED0E084FF07C0D0E0C0E004C07A
:100CF0008091F50282FDF5CFCE01DF91CF9108956D
:100D00008091F50282FD1BC19091F60290FDDECF2D
:100D100084FFF2CFEACF8091F60281FFEDCF809180
:100D2000F502C7EED0E084FDE0CFE6CF8091F5027A
:100D300083FDF7CFE1CF8091F50285FFDDCFC9E2DA
:100D4000D0E0DACF8091F50285FFD6CFC5E3D0E0C1
:100D5000D3CF8091F50286FFCFCFCAE2D0E0CCCFCF
:100D60008091F50286FFC8CFC1E3D0E0C5CFC03E79
:100D7000D10508F08ECFCF3BD10509F4B6CFFE01E7
:100D8000EE0FFF1FEB57FD4F14C0C11580E4D807CD
:100D900098F4C11520E3D20708F076C0C11530E2FF
:100DA000D30708F4A9CFFE01FF70EE0FFF1FEB5F22
:100DB000FB4FC591D491A0CFDF70D06A9DCFC115F4
:100DC00086E5D80760F5C11525E5D20708F09BC078
:100DD000C11534E5D307F0F4C11583E5D80708F051
:100DE0007EC0C11522E5D20708F474C09E012370AD
:100DF000332781E090E002C0880F991F2A95E2F71F
:100E0000C695C69530E2C39FE0011124C82BD92BAB
:100E1000DC6872CFDC2FCC27C46FD06A6DCFC115D0
:100E20008AE5D80788F4C11529E5D20708F076C00D
:100E3000CE0198558F3F910511F008F056CFDC2F69
:100E4000CC27C06FD06A58CFCE0190568115904202
:100E500008F04BCF8D2F8F710E94B20590E0982F34
:100E6000882788279F718C2BEC0156C0A497D064EB
:100E700043CFC85AD0E0CC0FDD1FC957DE4F0990D1
:100E8000D881C02DD46438CFCE019927D3FF03C0B9
:100E9000EC01D86C31CFEC01D06C2ECF9E0174E008
:100EA000369527957A95E1F723708C2F8695869550
:100EB000837030E2839FC0011124922BC37021E024
:100EC00030E002C0220F331FCA95E2F7822B932B2A
:100ED000EC019ECFDC2FCC27C16FD06A0DCF9E01D5
:100EE0002370332781E090E002C0880F991F2A9574
:100EF000E2F7C695C69520E2C29FE0011124C82BF7
:100F0000D92BDA68F9CE8C2F0E94B205C82FD0E019
:100F1000DC2FCC27CC27DF71D062EECE8C2F8F70E8
:100F20000E94B20534E0D695C7953A95E1F7CF70A7
:100F30009C2FEC01D069E0CEC9E3D0E0DDCEC2EE5B
:100F4000D0E0DACEC6EED0E0D7CE8F929F92AF92AD
:100F5000BF92DF92EF92FF920F931F93CF93DF9395
:100F60008090F1029090F202A090F302B090F4020F
:100F70004091ED025091EE026091EF027091F0020B
:100F8000842A952AA62AB72A04E11DE02FE1E22E41
:100F9000F12CC82FD0E089E0989FC00DD11D1124FD
:100FA000DE2CD501C4010E2C04C0B695A7959795EB
:100FB00087950A94D2F780FD17C081E0E81AF108FE
:100FC0000C56110904398FEF180751F7D12C8D2DCC
:100FD000DF91CF911F910F91FF90EF90DF90BF9025
:100FE000AF909F908F900895FE01E00FF11FEE0FDC
:100FF000FF1FEB54FB4F859194910E94F5050197DB
:10100000E1F2E5CFFF920F931F93CF93DF93FC01A3
:10101000828100811181C081F180882311F16623D2
:1010200001F1C8010E94A507D82F682FC8010E94AE
:10103000CE04EC2FF0E089E0F89EE00DF11D1124C4
:101040008CE6D89FE00DF11D1124EE0FFF1FEB542D
:10105000FB4F85919491DF91CF911F910F91FF905C
:101060000895C8010E94FC04D82FE3CFCF93DF93EB
:10107000EC010E94A507EC2FF0E099E0D99FE00D6C
:10108000F11D11249CE6899FE00DF11D1124EE0F46
:10109000FF1FEB54FB4F85919491DF91CF910C94FE
:1010A000F50580E00895F894E82FE295EF70F0E000
:1010B00041A18F7021E030E0B90102C0660F771FB7
:1010C0008A95E2F7CB01962F9095942391A392A154
:1010D000892B82A37894089508958091D40280FD8D
:1010E00014C081FD14C082FD16C08091D6028823F1
:1010F00081F0843180F422E3829FC001112464E1F5
:1011000070E00E946729862F08958CE0089589E198
:10111000089585E0089582E308958091D40280FDCA
:1011200016C081FD16C082FD16C08091D5028823AD
:10113000A1F0883280F428E0829FC001112468E287
:1011400070E00E946729862F672B39F0089582E0AE
:10115000089584E0089588E0089581E00895E3E12A
:10116000E80FE331E0F5F0E0EC5BF54D0C949D29E0
:101170000E946D0881958093DA0208950E946D089F
:10118000FACF0E946D0881958093D90208950E943C
:101190006D08FACF0E948D088093DB0208950E94AB
:1011A0008D088195F9CF0E948D0881958093DC028E
:1011B00008950E948D08FACF815F990B21E030E0FD
:1011C00001C0220F8A95EAF78091D802822B809382
:1011D000D80208958091D40281608093D40208954A
:1011E0008091D4028260F9CF8091D4028460F5CFDF
:1011F0004091D9028D3E59F48091DA0287FF0DC0EB
:101200001092DA0241110BC01092D60208C08E3E35
:1012100081F48091DA0218169CF3442381F08091C6
:10122000DB029091DC02892B09F05AC01092D502A2
:1012300008958F3E49F447FFF0CF1092D902809174
:10124000DA028111ECCFE0CF803F19F41416ACF331
:10125000E4CF9091DB02893F29F41916F4F610923D
:10126000DB02DBCF8A3F19F497FFD7CFF8CF9091FD
:10127000DC028B3F29F497FFD0CF1092DC02CDCF58
:101280008C3F19F41916CCF3C8CF9FE0980F983013
:1012900090F4815F990B21E030E0B90102C0660F44
:1012A000771F8A95E2F7CB0180959091D802892328
:1012B0008093D802B2CF8D3F31F48091D4028E7FDB
:1012C0008093D402AACF8E3F21F48091D4028D7FE7
:1012D000F7CF8F3F09F0A1CF8091D4028B7FF0CF61
:1012E00008956F927F928F929F92AF92BF92CF920A
:1012F000DF92EF92FF920F931F93CF93DF93B82E5D
:10130000A62E8901E42FF0E0ED50FD4F611119C0C8
:10131000E4918E2F2E2FD80111962C931197EC93D8
:1013200012968C93DF91CF911F910F91FF90EF90C8
:10133000DF90CF90BF90AF909F908F907F906F90F5
:101340000895E62EF12C249186E0B89E60011124C8
:10135000CFEFD0E0C601BE010E9453298B2D90E053
:10136000880F991F35E5369FA001379F500D112436
:10137000841B950B982F990F980FAE014E195F099A
:10138000249FD001259FB00D1124EB2FA99E500161
:101390001124AB2CBB24AE014A195B09249F5001D8
:1013A000259FB00C11248B2D3E01691A71086E9C8B
:1013B00040016F9C900C7E9C900C1124892C9924E8
:1013C000C819D9092C9FA0012D9F500D11246330FD
:1013D0007105D1F09CEFC91693E0D90670F4613025
:1013E0007105B1F062307105B9F0FFEFCF16D1048D
:1013F00008F091CF8B2FE52F8ECF6430710579F0F7
:1014000066307105B9F387CFEB2D822F2B2F83CF59
:10141000E22F2B2D8B2F7FCF852FE22FF7CF822F1F
:10142000252F79CF8091E602982F9E7F61F48170FD
:1014300082608093E6028091E902893C18F088EC92
:101440008093E90208958A34B0F381708864F1CF03
:10145000FA0181110994FB01FDCFCF93DF93CDB742
:10146000DEB728970FB6F894DEBF0FBECDBF84302D
:1014700050F5811129C090918000977F9093800052
:101480002F98282F30E0AFEFBFEF0E94AB2923E069
:1014900030E040E050E00E947B29C9012C3764E134
:1014A0003607C0F469E070E00E94532970938D0004
:1014B00060938C0028960FB6F894DEBF0FBECDBFA8
:1014C000DF91CF91089583E0909180009860909390
:1014D0008000D7CF2A50374D4F4F5F4FB42FA32FE7
:1014E000922F8827BC01CD0125EF38E241E050E082
:1014F0000E947B2929833A834B835C83CA01B9010B
:101500000E9435299B01AC0169817A818B819C8184
:101510000E943529BB27A92F982F872FBC01009740
:10152000A140B10519F66FEF7FEFC0CFE0918C02BB
:10153000F0918D02309721F00190F081E02D099417
:1015400080E008952091DC013091DD0128173907F2
:1015500071F09093DD018093DC01E0918C02F091B9
:101560008D02309721F00680F781E02D09940895CF
:101570002091DA013091DB012817390771F090933F
:10158000DB018093DA01E0918C02F0918D023097BB
:1015900021F00084F185E02D099408952FB7F89487
:1015A00080912F0290913002A0913102B0913202CD
:1015B0002FBF08950E94CE0A2091D9023091DA02FD
:1015C000232B21F080933B0290933C022091DB027D
:1015D0003091DC02232B21F08093390290933A0260
:1015E000E0918C02F0918D02309749F082E0809377
:1015F000D7020480F581E02D87ED92E009940895EB
:10160000882309F459C0823871F40E94960A81FF38
:1016100053C089E30E942F050E945B0589E30E9465
:1016200048050C945B05833859F40E94960A80FFA4
:1016300043C083E50E942F050E945B0583E5EFCF41
:10164000843859F40E94960A82FF36C087E40E94CB
:101650002F050E945B0587E4E2CF9CEF980F913A3B
:10166000F0F290E2980F983088F4877021E030E033
:10167000A90102C0440F551F8A95E2F7CA0180955F
:101680009091EB0289238093EB02CBCF9BE5980FDF
:10169000933020F490E080E00C94A20A98E5980F33
:1016A000973120F490E080E00C94B80A8D3E20F051
:1016B0000E94F8080C94DA0A089590E080E00E94F5
:1016C000A20A90E080E00E94B80A1092F9021092FB
:1016D000F7020E945B0586E0E7EDF2E0DF011D9274
:1016E0008A95E9F71092D6021092D5021092D40290
:1016F0000C94DA0A6093ED027093EE028093EF028D
:101700009093F0020C945D0B6093F1027093F202DF
:101710008093F3029093F4020C945D0B0F931F934C
:10172000CF93DF9300D000D0CDB7DEB741E050E0DB
:1017300060E070E004C0440F551F661F771F8A9554
:10174000D2F78091F1029091F202A091F302B09150
:10175000F4028A019B01082B192B2A2B3B2B0983AE
:101760001A832B833C83C901B8010F900F900F900F
:101770000F90DF91CF911F910F910C94840B0F93D9
:101780001F93CF93DF9300D000D0CDB7DEB741E0F9
:1017900050E060E070E004C0440F551F661F771FE3
:1017A0008A95D2F740955095609570958091F10299
:1017B0009091F202A091F302B091F4028A019B0190
:1017C000082319232A233B2309831A832B833C8371
:1017D000C901B8010F900F900F900F90DF91CF913A
:1017E0001F910F910C94840B9091F802809589239E
:1017F0008093F802282F277039F4282F082E000C28
:10180000330B9217130621F49091F60292FF07C052
:101810008595859585950E94BF0B1092F8020895D5
:101820009C014FB7F89480912F0290913002A091C3
:101830003102B09132024FBF821B930B0895809109
:10184000D9010895FC01CB012091CC013091CD014B
:101850002617370790F0009729F42091E8002E779B
:101860002093E80040E0009751F4411108C08091B6
:10187000E80082FF31C080E00895C901F3CF2091D4
:1018800058022223A9F12530A9F12091E80023FD77
:101890002DC02091E80022FDEACF2091E80020FF32
:1018A000E2CF3091F3002091F200009719F0283038
:1018B000310558F041E02830310509F040E0209131
:1018C000E8002E772093E800CECF41914093F100BD
:1018D00001972F5F3F4FE9CF80915802882341F055
:1018E000853041F08091E80083FFC1CF81E0089509
:1018F00082E0089583E008958091C60187FF13C0B8
:101900008091E80082FF06C08091E8008B77809389
:10191000E80004C0809158028111F2CF08958091AF
:1019200058028823D9F38091E80080FFF8CF809196
:10193000E8008E77ECCF2091E4003091E50095E649
:10194000A9012091EC00822F817020FF06C08091B8
:10195000E80080FF06C080E008952091E80022FDA5
:101960001AC080915802882389F0853089F08091CF
:10197000EB0085FD0FC02091E4003091E500421797
:101980005307F9F29150E1F684E0089582E008955A
:1019900083E0089581E00895E8EDF0E080818E7F96
:1019A00080831092E2001092DA001092E100A0EE23
:1019B000B0E08C9181608C9380818F77808319BC9B
:1019C000A7EDB0E08C918E7F8C9380818F7E808399
:1019D0001092C5010895EF92FF920F931F93CF933A
:1019E0007C018B010E949B0CC82F811117C0809134
:1019F000E80085FD0BC08091E8008E778093E800B9
:101A00000E949B0C882399F3C82F08C0F70181918D
:101A10007F018093F1000150110949F78C2FCF917C
:101A20001F910F91FF90EF900895982F9093E900E8
:101A3000242F762F50E0891731F07091EC0020911F
:101A4000ED005091F00021FD06C09F5F973071F7C7
:101A50008093E90008953091EB003E7F3093EB00D6
:101A60003091ED003D7F3093ED003091EB0031601F
:101A70003093EB007093EC002093ED005093F00056
:101A80002091EE0027FDE1CF0895CF92DF92EF92F3
:101A9000FF920F931F93CF93DF93C8EDD0E088811F
:101AA0008F7E8883E7EDF0E080818160808384E031
:101AB00082BF81E08093C50188818E7F888302EE9A
:101AC00010E0F80110821092DA0081EEC82ED12CBD
:101AD000F601108288818F77888388818068888367
:101AE00088818F7D888319BC109258021092C4019E
:101AF000109257021092C30190EEE92EF12CF701DB
:101B000080818B7F808388818160888342E060E070
:101B100080E00E94150DF60180818E7F8083F801A0
:101B2000808181608083808188608083F7018081EB
:101B30008E7F8083888180618883DF91CF911F9120
:101B40000F91FF90EF90DF90CF9008950E9436089C
:101B5000282F892F8F70392F32953F70903C80F459
:101B60003A30B0F4343020F4323090F480E008950C
:101B70003630E1F781E0283E88F0213FB9F70EC00A
:101B80003C3011F03F3091F7869586958695089503
:101B900081E0203F39F018F4283E40F70895243FB3
:101BA00029F7FCCF0895CF93C82F882309F48FC05D
:101BB0008238C1F40E94960A81FD89C089E30E949F
:101BC0002F050E945B052FEF31EE84E0215030405D
:101BD0008040E1F700C0000089E30E944805CF91F2
:101BE0000C945B058338A1F40E94960A80FD6FC0B7
:101BF00083E50E942F050E945B059FEF21EE34E0F4
:101C0000915020403040E1F700C0000083E5E5CF6F
:101C10008438A1F40E94960A82FD59C087E40E948C
:101C20002F050E945B058FEF91EE24E081509040DC
:101C30002040E1F700C0000087E4CFCF8CEF8C0F8D
:101C4000813A68F4EAEBF1E08191C817D1F131E013
:101C5000E03CF307C9F78C2F0E942F05C0CF80E22C
:101C60008C0F883068F4C77021E030E001C0220F8B
:101C7000CA95EAF78091EB02822B8093EB02AFCFFB
:101C80008BE58C0F833038F42C2F2452330BC90191
:101C9000CF910C94A20AE8E5EC0FE73150F4F0E0A4
:101CA000EE0FFF1FE957FE4F80819181CF910C9479
:101CB000B80ACD3E60F08C2F0E94AF08CF910C94F3
:101CC000DA0A8C2F0E9448050E945B05C4CFCF9191
:101CD00008950F931F93CF93C82F10E000E089332E
:101CE00011F400E510E08C2F0E94D30D01151105B1
:101CF00031F48C2FCF911F910F910C94000B8FE931
:101D00009FE00197F1F700C0000001501109EECFEC
:101D1000DF92EF92FF920F931F93CF93DF93E82F01
:101D2000F0E0EB5CFB4FD490282F26952695269566
:101D300030E0F901EB5DFB4F0491877010E0082E55
:101D400002C0159507950A94E2F701701127F90171
:101D5000EB5EFB4FE490F12C082E02C0F594E79463
:101D60000A94E2F791E0E922FF24F901EB5FFB4FCF
:101D7000C491D0E002C0D595C7958A95E2F7C170AD
:101D8000DD270115110519F081EE0E94D30DE11434
:101D9000F10419F086EE0E94D30D8D2D0E94690E7C
:101DA000EF2819F086EE0E94000B012B19F081EE4E
:101DB0000E94000BCD2B51F08CE2DF91CF911F914F
:101DC0000F91FF90EF90DF900C94690EDF91CF910F
:101DD0001F910F91FF90EF90DF90089596EF980F6D
:101DE000963018F0805D0C94880E895AFCCFBF9213
:101DF000CF92DF92EF92FF920F931F93CF93DF93D7
:101E00006B017C01C7E0D0E00CE110E0BB24B3948F
:101E1000D701C601002E04C0B695A7959795879562
:101E20000A94D2F78F70C9F4B11002C00E94EE0E6E
:101E3000219704501109CF3FDC0751F4DF91CF9176
:101E40001F910F91FF90EF90DF90CF90BF9008957A
:101E5000C430D105ECF6B12CDBCF0E94EE0EB12CD4
:101E6000E7CF8091DE02823019F030F481110BC08F
:101E700082EE0E94000B02C0843081F08091DE016E
:101E80008093EB0208958CE20E94690E8091DF013D
:101E90008823A1F389E30E94690EF0CF88E2FBCF8B
:101EA000FF920F931F93CF93DF93C62FD42F122F40
:101EB0008823A9F06093E2020E94CE0A9093C101A8
:101EC0008093C001C77081E001C0880FCA95EAF70E
:101ED000DF91CF911F910F91FF900C948805809115
:101EE000E202681334C08091C0019091C1010E9448
:101EF000100C883C910558F500E20D0FCD17A9F0A4
:101F0000C770FF24F3948F2D01C0880FCA95EAF79C
:101F10000E949205083048F48D2F877001C0FF0C95
:101F20008A95EAF78F2D0E948805812F0E94690EFD
:101F30000830A0F4D77081E001C0880FDA95EAF785
:101F4000DF91CF911F910F91FF900C949205C77074
:101F500081E001C0880FCA95EAF7F2CFDF91CF91F7
:101F60001F910F91FF9008958091E60280FD0AC0B5
:101F7000E3EEF1E0118210821282339652E0EB32EE
:101F8000F507C1F7539A3BB1377F2BB128604FB7A4
:101F9000F89483EE91E0FC010196508168E02BB942
:101FA000000000C057FF3BB9550F000000C000C043
:101FB00000C03BB900C06A9591F752E08B3295079B
:101FC00051F74FBF8FE594E00197F1F700C0000093
:101FD0000895EF92FF920F931F93CF93DF93EC013D
:101FE00003EE11E0F12CE12C9C816091E8028091DC
:101FF000E7022CE0E216F10414F5992311F1409167
:10200000E902493C08F048EC98010E9471098FEF01
:10201000E81AF80A0D5F1F4F28E1E216F10421F7D4
:102020000E94B40F8C8190E00196817099278C8377
:10203000DF91CF911F910F91FF90EF900895992319
:10204000F1F2980140E0E1CFEF92FF921F93CF931E
:10205000DF93EC0183EEE82E81E0F82E10E0409152
:10206000E902493C08F048EC8C8197016091E80254
:10207000810F0E947109165F83E0E80EF11C103F8A
:1020800071F70E94B40F9A818C8190FF08C08F5F16
:102090008C83DF91CF911F91FF90EF900895815035
:1020A000F7CFCF92DF92EF92FF920F931F93CF93D0
:1020B000DF93FC018281DD24DA9480FD02C0DD24FF
:1020C000D39403EE11E0D0E0C0E0F8011182108259
:1020D000128294E0E92EF12CC12C8091E2018C0D4A
:1020E00089310CF43FC068E10E944529892F082EF0
:1020F000000C990B8C179D07A9F48091E9028E9D25
:10210000A0018F9D500D11245595479555954795E4
:10211000493C08F048EC98016091E8028091E702A0
:102120000E947109CD0CF1E0EF1AF108B1F6219689
:102130000D5F1F4FC831D10541F60E94B40F809149
:10214000E20191E0D91212C08823B1F0815080934E
:10215000E201DF91CF911F910F91FF90EF90DF90FF
:10216000CF90089587FFC3CF885EC1CF90E00196DE
:10217000BE010E946729EBCF87E1E9CF0F931F9340
:10218000CF93DF93C3EED1E0FE0111821082128261
:10219000339682E0EB32F807C1F710E000E080915F
:1021A000E101082E000C990B08171907A4F1809182
:1021B0000301082E000C990B8017910764F14091E0
:1021C000E902493C08F048EC9E016091E8028091E8
:1021D000E7020E9471090F5F1F4F23960831110516
:1021E000F1F60E94B40F809102019091E101980FE5
:1021F0009093E10120910301280F2093030112160F
:1022000014F497311CF0819580930201DF91CF91F6
:102210001F910F910895198218821A82DCCFCF92F4
:10222000DF92EF92FF920F931F93CF93DF93CDB77F
:10223000DEB72E970FB6F894DEBF0FBECDBF8D87E9
:102240009E87AD85BE8514961C91212F30E0D90163
:102250000E94AB299B01AC010E94C12969837A834A
:102260008B839C83E0E2F0E0E11BF109A5E5B0E09F
:102270009B01AC010E94C12969877A878B879C8763
:102280009F01DF010E94A3299B01AC010E94CC2980
:102290006D837E838F8398879B01AC0189819A81AE
:1022A000AB81BC81280F391F4A1F5B1F69857A8566
:1022B0008B859C850E947B29F22E422F50E099E26B
:1022C0009F1508F445C0A3E02A9F9001112435957D
:1022D0002795122F109593EEC92E91E0D92E00E08C
:1022E00085E5E82EEF188E2D01FD8F2D412F193C2D
:1022F00008F048EC96016091E8020E9471090F5FB6
:10230000B3E0CB0ED11C083171F70E94B40FED85FC
:10231000FE85948181E0992319F0903219F48FEFB2
:102320008093010180910101890FAD85BE851496CE
:102330008C932E960FB6F894DEBF0FBECDBFDF9103
:10234000CF911F910F91FF90EF90DF90CF90089564
:1023500085E590E0841B950B9C01220F331F280F0D
:10236000391F37FFB4CF2F5F3F4FB1CF9091E602B7
:1023700090FF0CC0E3EEF1E08183608342833396EB
:1023800092E0EB32F907C1F70C94B40F08950F9364
:102390001F93CF93DF9300D00F92CDB7DEB78C01A0
:1023A0008091E00181110AC09E012F5F3F4F48ECF0
:1023B0006FEF0E9471098A818093E001F8016481C6
:1023C000613049F06230F1F08091E00140E0662335
:1023D00031F040E019C06091E00140E080E00E94EF
:1023E000B611F801848190E0019663E070E00E94EC
:1023F000672984830F900F900F90DF91CF911F91E9
:102400000F9108954091E00180E060E0E8CFCF9324
:10241000DF9300D00F92CDB7DEB79091E60290FF28
:1024200012C0493C08F048EC9E012F5F3F4F0E94CC
:1024300071094B8169818A810F900F900F90DF9114
:10244000CF910C94B6110F900F900F90DF91CF9118
:102450000895CF93DF93EC01EC81F0E0E251FE4F61
:102460004491E6EEF2E0628181810E9407128C8144
:102470008F5F8C83DF91CF910895CF93DF93EC0131
:10248000E6EEF2E0438162818C810E9407128C812A
:102490008F5F8C83DF91CF91089581E08093E0007E
:1024A00080E28093D8001092C9008FE19EE40197EA
:1024B000F1F700C0000087E090EBDC01809332036D
:1024C00090933303A0933403B093350388E19CE0E9
:1024D0000FB6F894A895809360000FBE90936000AB
:1024E000FFCFCF93DF93D82FC92F81E08093E900EE
:1024F0008FEF9091E800815095FD06C095ED9A957B
:10250000F1F700008111F5CF8091E80085FF16C03A
:1025100050E040E068E070E08D2F9C2F0E94EB0CB3
:102520008091E8008E778093E80088E0ED2FFC2F03
:10253000A1EDB1E001900D928A95E1F7DF91CF9185
:10254000089522E02093E9002FEF3091E800215018
:1025500035FD06C035ED3A95F1F700002111F5CFB4
:102560002091E80025FF0BC050E040E066E070E0FD
:102570000E94EB0C8091E8008E778093E80008952C
:1025800090915802943031F58093CE016093CF0141
:102590007093D00182E08093E9008FEF9091E80082
:1025A000815095FD06C095ED9A95F1F700008111D7
:1025B000F5CF8091E80085FF0DC050E040E063E07A
:1025C00070E08EEC91E00E94EB0C8091E8008E7739
:1025D0008093E8000895BC0183E00C94C012BC0114
:1025E00084E00C94C012CF93C091F602C2FB9927ED
:1025F00090F9981781F080FBC2F9C093F6026091C0
:10260000F50284E090E00E94F4296C2F82E290E0D1
:10261000CF910C94F429CF910895682F86E090E033
:102620000C94F4291092EB02EAEBF1E086E0DF0172
:102630001D928A95E9F70C945D0B1F93CF93DF935E
:10264000CDB7DEB7AA970FB6F894DEBF0FBECDBFE9
:1026500086EC91E0FC0101962091F100208321E0BD
:102660008E3C9207B9F78091C701893009F456C0B2
:10267000C8F4823009F4B1C0833009F480C08130DD
:1026800071F18091E80083FF78C28091C60190913A
:10269000C7019A3008F071C2E92FF0E0E95AF54D10
:1026A0000C949D298A3009F487C08B3051F78091B2
:1026B000C601813231F78091CA019091CB01892BFB
:1026C00001F78091E800877F8093E8000E947C0CEE
:1026D0008091C801809300010E941213D2CF809193
:1026E000C601813A71F68091E800877F8093E80007
:1026F0008091CA019091CB01892B61F468E081ED52
:1027000091E070E00E94220C8091E8008B7780932A
:10271000E800B7CF60E090E080E0F3CF8091C601A1
:10272000813209F0AECF8091CA019091CB0102971E
:1027300008F0A7CF8091E800877F8093E800809120
:10274000E80082FF17C09091F3008091F200029799
:1027500029F48091F1008B7F813021F48091F10088
:102760008093D9018091E8008B778093E8000E94E4
:102770007C0C87CF809158028111E1CF82CF80916C
:10278000C601813A09F07DCF8091CA019091CB01B9
:10279000892B09F076CF8091E800877F8093E8004D
:1027A0008091E80080FFFCCF809100018093F100D0
:1027B0008091E8008E77D9CF8091C601813209F0EF
:1027C00060CF8091E800877F8093E8000E947C0CB6
:1027D0008091C9018093C20154CF8091C601813A92
:1027E00009F04FCF8091E800877F8093E8008091C7
:1027F000E80080FFFCCF8091C201D8CF803899F0EB
:10280000823809F0BAC18091CA018F70873008F010
:10281000B4C18093E9008091EB0085FB882780F9A3
:102820001092E90006C08091C30190915702911166
:1028300082609091E800977F9093E8008093F10088
:102840001092F1008091E8008E7793C1882309F4FB
:1028500081C1823009F091C18091C801811184C188
:102860008091CA018F702FEF280F263008F085C1A4
:102870008093E9002091EB0020FF76C1933031F482
:102880008091EB0080628093EB006EC19091EB0031
:1028900090619093EB0021E030E001C0220F8A9517
:1028A000EAF72093EA001092EA008091EB0088603A
:1028B000EACF811162C11091C8011F778091E300B6
:1028C0008078812B8093E3008091E800877F80935C
:1028D000E8000E947C0C8091E80080FFFCCF809192
:1028E000E30080688093E30082E0111183E080932D
:1028F000580243C18058823008F03FC14091C8015E
:102900005091C9014C3D83E0580799F583E08A83D3
:102910008AE289834FB7F894DE01139620E03EE007
:1029200051E2E32FF0E050935700849120FF03C061
:1029300082958F703F5F8F708A30C8F0895C90E01D
:102940008D939D932F5F243161F74FBF8091E800F5
:10295000877F8093E8006AE270E0CE0101960E94D2
:10296000220C8091E8008B778093E80006C1805D9F
:10297000E6CF2091CA013091CB01852F9927833072
:10298000910509F160F48130910509F472C0029754
:1029900009F0F3C08BE390E0E7E6F1E029C0813273
:1029A000910509F45AC0829709F0E7C02115310555
:1029B00009F469C02130310509F0DFC08BE790E0F0
:1029C000ECEAF0E015C0CA0199274130B1F182303C
:1029D000910509F43AC0892B09F0CFC0EAEEF1E085
:1029E000E4918E2F90E0EAEEF1E0009709F4C5C083
:1029F0002091E800277F2093E8002091CC013091BE
:102A0000CD018217930708F49C0140E021153105A0
:102A100009F03EC041113CC08091E80082FDA1CF89
:102A200080915802882309F49CCF853009F499CF0E
:102A30008091E80083FFF0CF94CFE0ECF1E0E491E7
:102A40008E2F90E0E0ECF1E0D0CFE4EBF1E0E49108
:102A50008E2F90E0E4EBF1E0C8CF2115310571F045
:102A60002130310509F089C089E090E0E2E9F1E028
:102A7000BFCF82E190E0E2EAF1E0BACF89E090E0F6
:102A8000E9E7F1E0B5CF80E490E0E7E2F1E0B0CF34
:102A900080915802882309F464CF853009F461CF0E
:102AA0008091E80083FD5DCF8091E80082FDB4CF86
:102AB0008091E80080FFAACF9091F3008091F2000E
:102AC0002115310519F08830910550F041E0089743
:102AD00009F040E08091E8008E778093E80096CF7F
:102AE00044914093F1003196215031090196E8CF8D
:102AF000803809F042C08091E800877F8093E80029
:102B00008091C4018093F1009DCE811136C0109157
:102B1000C801123090F58091E800877F8093E8002B
:102B20001093C4010E947C0C112311F084E005C0B5
:102B30008091E30087FDFACF81E08093580242E064
:102B400061EC81E00E94150D42E261EC82E00E949E
:102B5000150D13C08091C801813079F481E0933064
:102B600009F080E0809357021092E9008091E8001C
:102B7000877F8093E8000E947C0C8091E80083FFAF
:102B80000AC08091E800877F8093E8008091EB0085
:102B900080628093EB00AA960FB6F894DEBF0FBE5A
:102BA000CDBFDF91CF911F9108950F931F93CF93C6
:102BB000DF938B01D82FC92F0E94120AA8016D2F15
:102BC0007C2F88E090E0DF91CF911F910F910C94C2
:102BD000062AE6EEF2E083E0808311828FEF8283A3
:102BE00088EC8383148263E070E08FEF98EC0C94A0
:102BF000D515CF93DF9300D000D0CDB7DEB780914D
:102C0000EA02833018F48F5F8093EA028091E60233
:102C10009091E702A091E802B091E90289839A833A
:102C2000AB83BC83BC01CD010F900F900F900F9030
:102C3000DF91CF910C94D515CF93DF9300D000D0C6
:102C4000CDB7DEB78091EA02882319F081508093D6
:102C5000EA028091E6029091E702A091E802B09129
:102C6000E90289839A83AB83BC83BC01CD010F90B9
:102C70000F900F900F90DF91CF910C94D5155F922C
:102C80006F927F928F929F92AF92BF92CF92DF927C
:102C9000EF92FF920F931F93CF93DF9300D000D05A
:102CA00000D00F92CDB7DEB7082F762E142F622EEC
:102CB0009091E60290FF8AC0E92FE695AE2FB0E032
:102CC000A35BBE4F8C918093E4029E7F9230E9F526
:102CD000493C08F048EC9E012F5F3F4F672D802F45
:102CE0000E9471094B8169818A810E94B61100930B
:102CF000E7027092E8021093E902662009F466C0C8
:102D00008091E6029091E702A091E802B091E90279
:102D10008C839D83AE83BF83BC01CD0127960FB604
:102D2000F894DEBF0FBECDBFDF91CF911F910F9101
:102D3000FF90EF90DF90CF90BF90AF909F908F90DB
:102D40007F906F905F900C94D515823019F410919C
:102D5000E902CDCF863019F40091E702C8CF89305F
:102D6000D9F3893121F6E9518E2F8170582EE695DD
:102D7000F0E0E251FD4FA590B490BB2483EEE82E25
:102D800081E0F82ED12CC12C98E1892E912CC6011E
:102D9000B4010E945329802F511016C0860F412F75
:102DA000193C08F048EC9701672D0E947109CA0C84
:102DB000DB1C93E0E90EF11CABE2EA16A2E0FA0696
:102DC00031F70E94B40F93CF861BE9CF27960FB639
:102DD000F894DEBF0FBECDBFDF91CF911F910F9151
:102DE000FF90EF90DF90CF90BF90AF909F908F902B
:102DF0007F906F905F900895E6EEF2E0818121E090
:102E000043816281885F0C943F16E6EEF2E0818197
:102E100021E04381628188500C943F16E6EEF2E097
:102E2000628128E0620F08F46FEF21E04381818125
:102E30000C943F16E6EEF2E0628128E0621B08F493
:102E400060E021E0438181810C943F16E6EEF2E0E0
:102E5000438128E0420F08F44FEF21E06281818135
:102E60000C943F16E6EEF2E0438128E0421B08F4A2
:102E700040E021E0628181810C943F16CF9384E091
:102E800090E00E94E029C82F82E290E00E94E029B1
:102E9000982F8C2FCF9108956F927F928F929F924F
:102EA000AF92BF92CF92DF92EF92FF920F931F9358
:102EB000CF93DF93CDB7DEB768970FB6F894DEBF38
:102EC0000FBECDBFFE01319688E1DF011D928A95CC
:102ED000E9F782E7E82E81E0F82E8F019EE7892E40
:102EE00091E0992E3F01AA24A394B12CF70181917E
:102EF0007F018F3F09F44BC0F894E82FE295EF7003
:102F0000F0E021A18F70A50102C0440F551F8A95E2
:102F1000E2F7CA01922F982B91A392A18095892361
:102F200082A3789400C0EEE7F1E030E020E0D12CFD
:102F3000C12C81918F3F09F463C0A82FA295AF7077
:102F4000A05EB0E04C9150E08F7002C0559547955F
:102F50008A95E2F740FD54C0C501022E02C0880FD9
:102F6000991F0A94E2F7C82AD92A2F5F3F4F2930C8
:102F70003105F9F6F701319780818F3F11F00E94FA
:102F8000530850EA5A95F1F7D801CD92DC920E5FC2
:102F90001F4F8E149F0409F0A9CF48E150E0B30100
:102FA00084E792E00E94352A9C0111E0892B09F404
:102FB00010E0232B41F188E1F301A4E7B2E0019096
:102FC0000D928A95E1F781E080935B020E94CE0A20
:102FD00090935A02809359028091590290915A021B
:102FE0000E94100C059798F088E1E4E7F2E0ACE568
:102FF000B2E001900D928A95E1F710925B0207C052
:1030000080E090E0B0CF80915B028111E5CF812F0D
:1030100068960FB6F894DEBF0FBECDBFDF91CF919B
:103020001F910F91FF90EF90DF90CF90BF90AF90E6
:103030009F908F907F906F9008956091E6026695C3
:1030400070E04BE050E084E091E00E94282A892B58
:1030500019F481E08093E5020E94CE0A9093340235
:10306000809333020895CF93DF9300D000D0CDB783
:10307000DEB79091E60290FF45C08823E1F18532EA
:10308000E0F58F77880F9091E6029170892B8093FD
:10309000E602662381F08091E6029091E702A0911A
:1030A000E802B091E90289839A83AB83BC83BC01B7
:1030B000CD010E94D5156091E602669570E04BE067
:1030C00050E084E091E00E94282A892BC1F0109200
:1030D000E50281E08093360220E04091E9026091B0
:1030E000E8028091E7020F900F900F900F90DF9110
:1030F000CF910C943F1681E0C5CF84E2C3CF0E94EC
:103100001D18E7CF0F900F900F900F90DF91CF9188
:1031100008958091E60286958F5F853208F081E000
:1031200061E00C9433189091E60296958FEF890F29
:10313000913009F484E261E00C94331861E00C945E
:10314000331869EE7EEF90E080E00E94122A60E082
:1031500082E090E00E94F42960E083E090E00E9429
:10316000F4291092ED021092EE021092EF021092EA
:10317000F00260E084E090E00E94F42960E082E2E6
:1031800090E00E94F42960E085E090E00E94F4293C
:1031900060E086E090E00E94F4296FEF87E090E025
:1031A0000E94F42940E050E0BA0188E090E00E94DB
:1031B000062A60E08DE090E00E94F42940E050E0B3
:1031C000BA0188E190E00E94062A60E087E190E081
:1031D0000E94F42940E050E0BA018CE190E00E94A6
:1031E000062A70E060E080E290E00E94122A40E04F
:1031F00050E0BA0188E190E00E94062AE6EEF2E093
:1032000080818160808386950E949E1821E040E83D
:103210006FEF80E00E943F168BE00E949E1840E016
:1032200050E0BA018FE090E00E94062A81E080938E
:10323000DE0261E08CE090E00C94F42990E080E004
:103240000E94EE29893E9E4F51F00E94A118809164
:10325000DD02847089618093DD020E940D1386E097
:1032600090E00E94E0298093DD02803220F0877098
:1032700088618093DD029091DD02892F817090FF3B
:1032800004C0892F8695869586950C942D0A909179
:10329000E60290FF07C09695981720F0961710F455
:1032A0000C9489180C949E180E94960A8695817039
:1032B0008093DF019091DE02913029F4882319F088
:1032C00089E30E94690E8091EB028093DE011092E7
:1032D000EB028091DE028230E9F030F481110DC002
:1032E00082EE0E94D30D02C08430D9F08FE39CE9B6
:1032F0000197F1F700C00000089583E00E949D054A
:1033000088E10E94D30D88E10E94000B83E00E94B7
:10331000A705ECCF82EE0E94D30D87E50E94690ECF
:10332000E5CF86EE0E94690E88E1F8CFCF92DF925A
:10333000EF92FF92CF93DF9300D000D000D0CDB7B3
:10334000DEB78D839E83AD81BE818C9181110DC0CE
:1033500026960FB6F894DEBF0FBECDBFDF91CF919A
:10336000FF90EF90DF90CF90089587FD60C0C82E4A
:10337000D12CF12CE12C2D813E812F5F3F4F3E83DC
:103380002D83D701C601985DA109B1098115984027
:10339000A105B105C0F24FEFC416D406E406F40649
:1033A00091F2C114D10451E1E506F10464F6C114AF
:1033B000D10481E0E806F10420F08091DE02823041
:1033C00011F20E945419C114D10491E0E906F104EC
:1033D00008F4D9C08091DE028111D5C0A1E0EA1ABB
:1033E000F108D701C6012AE0B695A795979587956C
:1033F0002A95D1F79C01AD0138524F4F5F4FCA015A
:10340000B9010E94F70E33E0D322EE24FF24D70146
:10341000C6019452AF4FBF4F89839A83AB83BC835D
:10342000BC01CD010E94F70E0E94310F8CCF982F66
:10343000907E903CE9F490E0B0E0A0E06C017D016A
:10344000E6E0CC0CDD1CEE1CFF1CEA95D1F730EC5D
:10345000C32237E0D322EE24FF24AD81BE81119632
:103460008C9111978F73C82A1296BE83AD8389CF32
:10347000982F907F903E71F5ED81FE81C180D12C17
:10348000F12CE12C66E0CC0CDD1CEE1CFF1C6A95D7
:10349000D1F7F0ECCF22FFE0DF22EE24FF2490E012
:1034A000B0E0A0E07CE0880F991FAA1FBB1F7A95AF
:1034B000D1F7AA27BB278C299D29AE29BF29ED81E9
:1034C000FE8122812F736C017D01C22A3396FE8317
:1034D000ED8357CF982F987F903F09F045C0853FE7
:1034E00008F042C0AD81BE811196CC90D12CF12C58
:1034F000E12C3CE0CC0CDD1CEE1CFF1C3A95D1F716
:10350000CC24B0EFDB22B3E0EB22FF2490E0B0E06C
:10351000A0E042E1880F991FAA1FBB1F4A95D1F76F
:1035200088279927AC71BB278C299D29AE29BF29F3
:10353000ED81FE8123812F736C017D01C22A82817E
:1035400090E0B0E0A0E056E0880F991FAA1FBB1FD3
:103550005A95D1F7807C9F70AA27BB27C82AD92A01
:10356000EA2AFB2A3496B3CF2D813E812F5F3F4F4D
:103570003E832D83CC24CA94DD24DA94EE24EA948D
:10358000FF24FA94FECEC701B6014CCF4F925F9252
:103590006F927F928F929F92AF92BF92CF92DF9263
:1035A000EF92FF920F931F93CF93DF9300D000D041
:1035B0000F92CDB7DEB78C01DC019C9111968C91F6
:1035C000119713962D913C91232B21F089238F3F46
:1035D00009F0B0C60F900F900F900F900F90DF91F1
:1035E000CF911F910F91FF90EF90DF90CF90BF9000
:1035F000AF909F908F907F906F905F904F900895C5
:10360000F8018281882321F083E291E00E949619DB
:10361000D80112968C91882351F169807A802FEB22
:1036200062162CE5720609F45AC108F0E3C04DEBAE
:1036300064164CE5740609F42FC15EEB65165CE573
:10364000750609F430C18CEB68168CE5780609F430
:10365000F3C089819A81825E9C45059740F4698117
:10366000625E6093DE028CE090E00E94F429D80153
:1036700012968C9169807A8077FE5BC18823E1F095
:103680000E9454196301E894D7F85CE0E52EF12C10
:10369000C6010E2C02C0969587950A94E2F78F70AA
:1036A0000E94EE0E24E0E21AF1083CEFE3163FEF31
:1036B000F30671F70E94310FD80112969C9199235D
:1036C00009F484C11092E20269807A8026E16216D0
:1036D0002CE5720608F072C132E063163CE5730611
:1036E00008F448C20E943E179093F6028093F502B8
:1036F00069807A8026E162162CE5720608F08FC197
:1037000032E063163CE5730608F07BC16091F50278
:103710006090F602698284E090E00E94F429698159
:1037200082E290E00E94F4290E94121392C0F801F4
:103730008281882309F46CCF69E1E62E61E0F62EE0
:103740007AE0D72ED7018C91882309F461CF1196A6
:103750009C911197813009F04AC012968C9191305A
:1037600049F4B2E0EB0EF11C0E94690EFFEFEF1A74
:10377000FF0AE8CF923031F4E2E0EE0EF11C0E9435
:10378000D30DF4CF933031F4F2E0EF0EF11C0E9430
:10379000000BECCF943021F02FEFE21AF20AE6CFC3
:1037A00032E0E30EF11C20E030E0B7016F5F7F4FA5
:1037B000D70111964C918053990B8A30910560F096
:1037C0002115310599F2EFE9FFE03197F1F700C0DB
:1037D000000021503109F4CFD29EF001D39EF00DAC
:1037E00011249C012E0F3F1F842F7B01DECF0E94EE
:1037F000880EBCCF69807A8020EC62162CE57206B8
:1038000009F481C031EC63163CE5730609F021CF61
:103810009091DD02892F8695869586958F5F8F71B1
:103820009770843020F4880F880F880F982B90931E
:10383000DD028091DD023FC08091DD0286708961EA
:103840008093DD0283E00E942D0A8091DD020E94B8
:103850000D138091F802877009F4BCCED80112963E
:103860008C91882309F4B6CE82E00F900F900F90D0
:103870000F900F90DF91CF911F910F91FF90EF90DC
:10388000DF90CF90BF90AF909F908F907F906F9080
:103890005F904F900C94F40B8091DD0286708093C2
:1038A000DD0280E0D0CF8091DD02982F987F79F003
:1038B00088508093DD02887F91E009F490E0809148
:1038C000DD0290FB80F98093DD020E940D13809150
:1038D000DD028695869586950E942D0ABACF809145
:1038E000DD02982F969596959695883140F49F5FC6
:1038F000990F990F990F8770892B8093DD02809122
:10390000DD028160E0CF8091DD0280FF07C08E7F05
:103910008093DD020E940D1380E0DECF81608093F2
:10392000DD02813019F489E08093DD028091DD02AF
:10393000CCCF69807A8024EF62162CE57206B1F153
:10394000C0F449ED64164CE5740661F128E241E0EB
:103950005AED65165CE5750639F126E241EE61EE39
:1039600098ED69169CE5790609F0A6CE0E94500FE5
:1039700070CF69807A8026EF62162CE57206D1F04E
:1039800027E245EE66EE37EF63163CE5730671F30A
:1039900045EF64164CE5740609F08ECE27E245EE3D
:1039A00064EEE4CF27E245EE65EEE0CF26E241EE9D
:1039B00060EEDCCF26E241EE62EED8CF29813A817B
:1039C0002B5F3C452930310508F48CCE89809A80E4
:1039D00026E182162CE5920609F0CAC08091EB021E
:1039E000992309F4BBC08A7A91E009F490E090939E
:1039F000E3028111B1C089E20E942F050E945B059C
:103A000028CFE981FA81E350FC458091F50281607D
:103A1000E331F105C8F4EF59F54D0C949D298981E6
:103A20009A818B5F9C45099708F070CEE981FA81F5
:103A3000EC5FFC45E830F10590F4EC58F54D0C9442
:103A40009D298091F50282608093F5025FCE80917E
:103A5000F5028460F9CF8091F5028860F5CF8091FE
:103A6000F60281608093F60251CE8091F602826068
:103A7000F9CF8091F5028061E7CF8091F5028062F5
:103A8000E3CF8091F5028064DFCF0E941213809112
:103A9000F5028068D9CF8091F5028C60D5CF8091F6
:103AA000F6028360DFCF8091F5028E7FCDCF8091CB
:103AB000F5028D7FC9CF8091F5028B7FC5CF8091B4
:103AC000F502877FC1CF8091F6028E7FCBCF8091A8
:103AD000F6028D7FC7CF8091F5028F7EB5CF8091A2
:103AE000F5028F7DB1CF8091F5028F7BADCF0E9423
:103AF00012138091F5028F77A7CF8091F502837F13
:103B0000A3CF8091F6028C7FADCF8091F50282FB2E
:103B1000992790F921E0922790FB82F990FB83F995
:103B200093CF8091F602982F909591708E7F892B7C
:103B300090FB81F997CF0E9412139091F502892F83
:103B400097FB87F9805880CF61E08EE090E00E947B
:103B5000F429DCCD60E0F9CF85E34ECF8091E3021C
:103B6000811104C089E20E94480548CF85E3FBCF5C
:103B70009923D1F18091EB02827269807A8027EDDE
:103B800062162CE5720680F433EC63163CE573068E
:103B9000F0F0F301E45CFC45E331F10508F07DC091
:103BA000E458F54D0C949D2969807A802EE56216C3
:103BB0002DE5720609F44DCE69807A8081E02BE50F
:103BC00062162DE5720609F4F5C008F0E0C06980C0
:103BD0007A8061142CE5720609F4EFC03FED63169C
:103BE0003CE5730609F4F6C0F8018281E080F180BB
:103BF00060806982D180882309F4F1C0C7010E94E6
:103C0000A5078D83682FC7010E94CE047980E72D18
:103C1000F0E029E0D29EE00DF11D11246D803CE61C
:103C2000639EE00DF11D1124EE0FFF1FEB54FB4FBF
:103C3000859194910E94F5058D839983D801129600
:103C4000FC9012971596EC90E2944FE0E42280915C
:103C5000F8028770A1F0BF2CFF2091F0892F807FA0
:103C6000803421F08D81805E883048F082E00E94AF
:103C7000F40B8091F8028770BB24B3948111B12CAE
:103C8000898182958F70C82ED12C8C3008F0E5C0C8
:103C9000F601E157F54D0C949D298091E60280FFD5
:103CA00021C08E7F8093E6028091E6029091E70228
:103CB000A091E802B091E90289839A83AB83BC8327
:103CC000BC01CD010E94D5151092E5029FEFA0E73F
:103CD000B2E09150A040B040E1F700C000000E9467
:103CE000B40FB7CD81608093E60286950E949E183E
:103CF000B0CD43E958E169E878E10E94280AA9CDEE
:103D000049E858E163E978E1F8CF45E057E16CEF25
:103D100076E1F3CF4CEF56E165E077E1EECF4AE193
:103D200057E16EE077E1E9CF4EE057E16AE177E1F4
:103D3000E4CF42E357E166E277E1DFCF46E257E1C5
:103D400062E377E1DACF4CE156E169EF75E1D5CF77
:103D500049EF55E16CE176E1D0CF81E0C7CF65E076
:103D600082E00E94471975CD68E086E0FACF6EE0E8
:103D700089E0F7CF64E18FE0F4CF67E185E1F1CF2F
:103D800088E1B4CF62E289E1ECCF83E2AFCF698012
:103D90007A802CE562162DE57206F9F03DE5631692
:103DA000730609F021CF8091F60282FB882780F903
:103DB00091E089270E94F31217CF0E9412134FEF50
:103DC00054E38CE0415050408040E1F700C00000D7
:103DD0000E944D120E94A1183CCD80E0EBCFC7019C
:103DE0000E94FC048D8312CFB981BF70EB2EE98154
:103DF000E07F19F0E29420EFE222FF20D1F0EE20E4
:103E000071F08D81805E883018F06D8061100BC07C
:103E10008091EB028E298093EB020E945B058D81DD
:103E20000E94D30D1AC08091F9028E298093F90265
:103E3000F4CF8D810E94000BEE2079F0E0948D810B
:103E4000805E883018F07D80711043C08091EB0255
:103E50008E218093EB020E945B0588E0C81AD1088E
:103E600094E0C916D10420F40E94960A0E94C0046E
:103E7000BB20B1F08091F80280FD12C0D8011296EB
:103E80001C928595859585950E948E0BC8010E9490
:103E9000C61A8091F8028595859585950E94BF0B7D
:103EA00060E0C8010F900F900F900F900F90DF917E
:103EB000CF911F910F91FF90EF90DF90CF90BF9027
:103EC000AF909F908F907F906F905F904F900C94E9
:103ED00002088091F9028E218093F902BCCF2981DA
:103EE0002F70A22E3981307F303219F0A29490EFDA
:103EF000A9226D80662089F0262D213099F1FF20BE
:103F0000F1F1EE20A9F1D80115968C91159780FF5B
:103F100086CF8F7015968C932BC0FF20B1F09091B7
:103F2000EC028A2D892BE11003C00E94880595CFF1
:103F300031E0E312FACF2091F60222FD8ECF9817DE
:103F400009F48BCF8093EC0288CFE11006C00E9469
:103F500055058A2D0E94920580CF41E0E41609F4B0
:103F60007CCFF5CFFF2031F055E05E1508F475CF1A
:103F70008A2DDBCF84E08E1508F46FCFEACFEE20D8
:103F800041F3BD81B93349F4EFEFF7EE23E0E1509F
:103F9000F0402040E1F700C000008D810E94000B3E
:103FA0005CCF898186958695837069F0813009F0B0
:103FB00054CF8D8199819370F11002C090E080E020
:103FC0000E94B80A4ACF8D8199819370F11002C086
:103FD00090E080E00E94A20A40CF8D81FF2029F06E
:103FE0000E94AF080E94DA0A38CF0E94F808FACF80
:103FF0008981837009F07CC0F1102FCF2D8122952B
:1040000026952770220F220F4D814F7050E070E0EF
:1040100060E0022E04C0440F551F661F771F0A94EC
:10402000D2F76D8080E090E0DC0164FE0FC08FE08D
:1040300090E0A0E0B0E004C0880F991FAA1FBB1F4A
:104040002A95D2F780959095A095B0957980769431
:104050007694272D2370223059F1233009F441C082
:104060004090ED025090EE026090EF027090F002EE
:10407000213099F0842B952BA62BB72B9C01AD01F9
:10408000242135214621572129833A834B835C83A0
:10409000CA01B9010E947A0BE0CE442A552A662A49
:1040A000772AA3019201282B392B4A2B5B2BECCFCB
:1040B000842B952BA62BB72B4091ED025091EE024D
:1040C0006091EF027091F0023C014D01642675266B
:1040D0008626972669827A828B829C82C401B301EC
:1040E000D9CF3A014B01682A792A8A2A9B2AF2CF32
:1040F000FF2009F452C0798070FEAFCE2D81229549
:1041000026952770220F220F4D814F7050E070E0EE
:1041100060E0022E04C0440F551F661F771F0A94EB
:10412000D2F79D8080E090E0DC0194FE0FC08FE02C
:1041300090E0A0E0B0E004C0880F991FAA1FBB1F49
:104140002A95D2F780959095A095B0956980669450
:104150006694262D2370223079F1233009F43FC074
:104160004090F1025090F2026090F3027090F402DD
:104170002130B9F0842B952BA62BB72B9C01AD01D8
:10418000242135214621572129833A834B835C839F
:10419000CA01B9010E94840B60CE898081FE5DCE88
:1041A000ADCF442A552A662A772AA3019201282BEB
:1041B000392B4A2B5B2BE8CF842B952BA62BB72BC7
:1041C0004091F1025091F2026091F3027091F40279
:1041D0003C014D01642675268626972606C03A01C5
:1041E0004B01682A792A8A2A9B2A69827A828B82E1
:1041F0009C82C401B301CECF29812F702983FF2077
:1042000029F0822F0E948E0B8D818FCE8D810E948E
:10421000920589810E94BF0B20CE3D81323F09F477
:104220004FC068F4303F41F1313F09F441C0FF20F5
:1042300009F46FC0E110F3CD89818F713EC04D81CB
:10424000433F09F442C0443F91F7FF2009F455C0B1
:1042500029812F712983822F0E948E0B8091F60273
:1042600082FD49C0698038E0639EC00111248360EB
:104270008093F802862D21C0FF20A1F054E05E1546
:1042800008F4EBCD89818F71898381E090E0A0E013
:10429000B0E0098004C0880F991FAA1FBB1F0A94B1
:1042A000D2F78ECF85E0782E7E1408F4D6CDEACFF3
:1042B00089818F71FF2009F4ADCF0E948E0BCDCD87
:1042C00089818F71FF20C9F3A5CF60E070E0CB0139
:1042D000FF2009F45FCF29812F7181E090E0A0E0F9
:1042E000B0E03C014D0104C0660C771C881C991C91
:1042F0002A95D2F77ACF8981E0CF81E00E94F40B32
:10430000772473947E1408F0A8CD82E00E94F40B09
:10431000A4CDEE2061F02D81293309F03ECE3FEF90
:1043200047EE53E0315040405040E1F734CE8981B0
:104330008F7170CF61E0C8010E94020889839A835F
:1043400069807A8024E662162DE5720609F458C960
:1043500035E663163DE5730609F4E9C943E66416DC
:104360004DE5740609F054C9D80112968C91882342
:1043700009F44EC98FE391E049C91F93CF93DF93AE
:1043800080913103807FA9F480912E03882389F0E6
:104390008091FB02C091FA0270912C0360912D0371
:1043A000A0912F03B0913003D62FD72316E0C81366
:1043B00004C0DF91CF911F91089590E0109711F004
:1043C000DF3F19F401968770F2CF189F9001199F73
:1043D000300D1124F901E450FD4F41816413F2CFF7
:1043E00040814713EFCF42814111ECCF438154818B
:1043F0004A1B5B0B483C510528F7809131038F70B5
:10440000806180933103F901EF5FFC4F80818F70F1
:10441000806180838CE293E00E94C61ADF91CF9185
:104420001F910C942505AF92BF92CF92DF92EF922D
:10443000FF920F931F93CF93DF93CDB7DEB72B97E8
:104440000FB6F894DEBF0FBECDBF8C0185E0F8013A
:10445000DE01179601900D928A95E1F7F801E2804E
:10446000C380D4808CE2A82E83E0B82E20912C0348
:1044700090912D0340912F03509130034115510528
:1044800029F0892F82238F3F09F02BC1EE2009F4F8
:1044900036C1F801808191810E94A60DF82E8823F3
:1044A00009F42DC186E0F801ACE2B3E001900D9271
:1044B0008A95E1F780912C0390912D030E94360894
:1044C0000E94BD2120C080913103682F607F483C4D
:1044D000510508F0A6C0F80131816111C1C0FE2C60
:1044E000391323C09081921320C0E1101EC08F7039
:1044F0008061809331038CE293E00E94C61A809120
:104500003103F80185838F2D2B960FB6F894DEBF0B
:104510000FBECDBFDF91CF911F910F91FF90EF9014
:10452000DF90CF90BF90AF9008952F81CD2829F0D4
:10453000832F82238F3F09F090C080E0F82FF17025
:10454000DF2EE091FB024091FA0256E080FD1CC094
:10455000EE20C9F280913103816080933103F12C08
:10456000D2CF8E2F90E05E9FF0011124E450FD4FDA
:104570006181361306C06081621303C06281E61256
:10458000E7CF0196E82FE770E413EBCF8F81988592
:104590000E943608292F22952F70903260F0225FFA
:1045A0002F70223078F49F7051F0F8019581907F40
:1045B00031F4D12C0AC09F7011F08823D1F3805EB2
:1045C0008830B8F3C8010E94C61AFD2C9CCFF801B0
:1045D000808191810E94A60D882309F490C0EE206D
:1045E00009F48DC080913103803270F020912C034A
:1045F00030912D033A8329831B82DD82CC828E8306
:10460000CE0101960E94C61A86E0F801ACE2B3E042
:1046100001900D928A95E1F70E94BD21FF24F39449
:1046200072CF611132C08CE293E00E94C61A86E01C
:10463000F50111928A95E9F792CFF8018081918175
:104640000E94A60D8111E0CF80913103816080939B
:104650003103C8010E94C61A56CF81E08E256ECF65
:104660003913B5CFF80190819213B1CFE110AFCFDC
:104670008583C8010E94C61A86E0F801ACE2B3E067
:1046800001900D928A95E1F73ECFF80131819313A5
:104690009ECFF801908192139ACFE11098CF858335
:1046A000C8010E94C61A86E0F50111928A95E9F7C1
:1046B0002ACFF80181819813C0CFF801808182133D
:1046C000BCCF8091310380FDD7CF982F907FA1F28E
:1046D0008583903F71F2982F907F905F8F70892B28
:1046E000C7CFF0902E03B601641B750BAB01F11020
:1046F000EACE483C5105B8F6FE2CE110DACFC801ED
:104700000E94C61A8BCF1F93CF93DF93CDB7DEB72E
:1047100067970FB6F894DEBF0FBECDBF342F4B8B1B
:10472000252F5C8B962F6D8B7E8B8F8B4E895F89AF
:1047300061111092F9021A8A3D872E879F87598B43
:10474000488B86E0FE013D96DE01179601900D92A2
:104750008A95E1F7CE0107960E941322882389F0FB
:1047600016E08091FB029091FA02891349C0679686
:104770000FB6F894DEBF0FBECDBFDF91CF911F9172
:10478000089586E0FE013796DE01119601900D92A4
:104790008A95E1F79F8188852091FA024091FB027A
:1047A0006A857B85672BE1F289238F3FC9F230E070
:1047B000C9010196877099274817190671F40E945C
:1047C00012131092FA021092FB0286E0ECE2F3E080
:1047D000DF011D928A95E9F7C3CF96E0929FD00141
:1047E000939FB00D1124A450BD4FFE01319601904E
:1047F0000D929A95E1F78093FA020E942505B0CFB9
:10480000819FC001112484509D4F0E941322882350
:1048100009F4ADCF8091FB0290E001968770992753
:104820008093FB029ECFCDB7DEB72F970FB6F894DB
:10483000DEBF0FBECDBF84B7877F84BF0FB6F894AD
:10484000A89580916000886180936000109260005C
:104850000FBE80E890E00FB6F894809361009093CB
:1048600061000FBE85B7806885BF85B7806885BF4A
:1048700081E598E09093B7018093B6010E94CC0C3B
:104880000E94450D8091E20084608093E20078945C
:1048900080915802882399F08091E9001091EC00F2
:1048A0001795112717958F70182B1092E90080919A
:1048B000E80083FD0E941D131F701093E90082E041
:1048C00084BD93E095BD9AEF97BD80936E0002E79B
:1048D00011E0FEE7EF2EF1E0FF2ED8018D918D0162
:1048E0008F3F11F00E945308E016F106B1F70EE772
:1048F00011E0E7E8EE2EE1E0FE2EF80181918F0154
:104900008F3F11F00E945308E016F106B1F788E1DD
:10491000E4E7F2E0DF01282F1D922A95E9F7ECE5A4
:10492000F2E0DF011D928A95E9F790E080E00E94B5
:10493000EE29893E9E4F11F00E94A11882E090E07E
:104940000E94E02980933E020E943E179093F60257
:104950008093F5020E944C17EFE3FCE93197F1F7E1
:1049600000C000000E944C1780915C0280FF08C0CC
:104970006FEF7FEF90E080E00E94122A0E944D12BC
:1049800083E090E00E94E029282F30E050E040E0F2
:104990002C873D874E875F87CA01B9010E947A0B39
:1049A000279A2F988AE08093800089E18093810084
:1049B0008FEF9FEF90938700809386000E941E19CF
:1049C0008CE090E00E94E02990E0B0E0A0E08093CD
:1049D000DE029093DF02A093E002B093E102559AC9
:1049E0006E9A0E941E1980912B02811136C090E0B0
:1049F00080E00E94EE29893E9E4F21F00E94A1187E
:104A00000E94E91588E090E00E94E8296093E602A0
:104A10007093E7028093E8029093E9026E7F71F44D
:104A20000E94E91588E090E00E94E8296093E60280
:104A30007093E7028093E8029093E9020E94120AC1
:104A40001092E5028091E60280FF04C060E0869546
:104A50000E94331881E080932B028FE091E09093C5
:104A60008D0280938C0258E1852E912C60E4762E85
:104A700074E7A72E72E0B72EAE014F5F5F4F6A0159
:104A800080915802FF24F39400E112E1853009F48B
:104A9000B8C10E944C17882359F08FB7F894409101
:104AA0002F025091300260913102709132028FBF1B
:104AB000ECE5F2E0AFE3B2E010E000E0702F8191AE
:104AC00091912D913D912817390709F4BFC12827ED
:104AD000392760E0EE24E394F12CA701422353230D
:104AE000452B09F4ADC169837A83970128233923C3
:104AF00091E0232B09F490E09B830E94CE0A816011
:104B0000782F9D838C8349815A816B81892F0E94E4
:104B10008323000F111FF801E15CFD4F808191811B
:104B20008E259F25918380838091E5028823D1F192
:104B30008091E402E091E602E695E81BE0933502FD
:104B4000823009F09AC1F0E0EF5FFB4FE4910E2F45
:104B500010E0E9E2EE2EE2E1FE2E8091360288239B
:104B600061F0109236020E94CE0A90933402809334
:104B7000330210923802109237020E94CE0A20911E
:104B8000330230913402821B930B8F3F9F4750F4C6
:104B9000200F311F309334022093330283E392E0DD
:104BA000F701099586E0E7EDF2E0D60101900D925C
:104BB0008A95E1F75090D9026090DA02E090DB022A
:104BC000F090DC021092D9021092DA021092DB020D
:104BD0001092DC02852D86291C2D0D2D09F448C06C
:104BE00080913B0290913C020E94100C9C018091AC
:104BF000D602882309F4CAC123333105C8F18F3F97
:104C000019F08F5F8093D602552059F00E946D08ED
:104C10009FEF15140CF491E0899F802D112480934F
:104C2000D902662059F00E946D089FEF16140CF40B
:104C300091E0899F802D11248093DA023091D9026E
:104C40003323B1F02091DA02222391F045EB3403B3
:104C5000C0011124992309F46EC19093D90255EB38
:104C6000250390011124332309F469C13093DA023A
:104C70008E2D8F2909F448C08091390290913A0213
:104C80000E94100C9C018091D502882309F479C1FF
:104C900025363105C8F18F3F19F08F5F8093D5021B
:104CA000EE2059F00E948D089FEF1E140CF491E045
:104CB000899F802D11248093DB02FF2059F00E94F0
:104CC0008D089FEF1F140CF491E0899F802D112413
:104CD0008093DC023091DB022091DC023323A1F0CF
:104CE000222391F045EB3403C0011124992309F4E8
:104CF0002AC19093DB0255EB250390011124332345
:104D000009F425C13093DC028091D9029091DA0236
:104D1000892B9091DB02892B9091DC02892B11F079
:104D20000E94DA0A86E0E12FF02FA7EDB2E00190B1
:104D30000D928A95E1F70E94960A90913D0289179B
:104D400009F49ECE0E94960A80933D020E94C00400
:104D500097CE80915802843009F443C080E00E94CD
:104D60002D0A80E00E94C0041092E50280912E027C
:104D7000811116C0F0922E028091E602982F917058
:104D800090932D028E7F8093E6025FEF80E792E0A2
:104D9000515080409040E1F700C000000E94B40FE5
:104DA00010922C020FB6F894A895809260000FBE66
:104DB0007092600083B7817F846083BF83B7816016
:104DC00083BF7894889583B78E7F83BF0FB6F8949E
:104DD000A8958091600088618093600010926000C7
:104DE0000FBE80915702882361F00E944C17ECE5BA
:104DF000F2E081919191892B09F0ADC0AE16BF060A
:104E0000C1F780915802853009F4A3CF0E94121394
:104E10000E941E190E94960A0E94C00410922E023F
:104E200080912D02882349F08091E6028160809371
:104E3000E60260E086950E9433180E941D1829CE74
:104E40006F5FEE0CFF1C693009F047CE0F5F1F4FFC
:104E50000C30110509F032CE8FEF8F8388871986C9
:104E60000E94CE0A8160782F9B878A874F81588560
:104E70006985892F0E94832357CE853109F447C065
:104E800068F4893061F18F30B1F18630E9F000EDDE
:104E900017E08CE6E82E88E0F82E5FCE833209F426
:104EA00041C004EF11E099EEE92E9FE0F92E843223
:104EB00009F453CE08E210E07FE0E72E71E1F72E0F
:104EC000883109F44ACEE3CFF0E0E250FC4FE491A0
:104ED0000E2F10E06DE3E62E62E1F62E3ECEE69553
:104EE000F0E0E550FC4FE4910E2F10E054E2E52E87
:104EF00050E1F52E32CEE695F0E0E850FC4FE4911B
:104F00000E2F10E041E5E42E40E1F42E26CEF0E035
:104F1000EB50FC4FE4910E2F10E03EEBE32E30E11E
:104F2000F32E1BCEE3EFF3E00591149127ECE22E74
:104F300021E1F22E12CE81E08093D90290CE81E061
:104F40008093DA0295CE81E08093DB02D4CE81E0BB
:104F50008093DC02D9CE09BD19BD09B400FEFDCF96
:104F60008091D8008F7D8093D8008091E00082608E
:104F70008093E0008091E00081FDFCCF0E9412133D
:104F800040CF2D32314008F088CEBECE2D32314098
:104F900008F037CE6DCE1F921FB61F9211248F934B
:104FA0009F93AF93BF9380912C02811113C0809186
:104FB0002F0290913002A0913102B09132024196BD
:104FC000A11DB11D80932F0290933002A093310256
:104FD000B0933202BF91AF919F918F911F901FBEEE
:104FE0001F90189578941F921FB61F9211248F93CB
:104FF0009F93AF93BF9380912F0290913002A09125
:105000003102B09132020196A11DB11D80932F0291
:1050100090933002A0933102B0933202BF91AF91CE
:105020009F918F911F901FBE1F9018951F920F92F6
:105030000FB60F9211242F933F934F935F936F936B
:105040007F938F939F93AF93BF93EF93FF93809141
:10505000E10082FF09C08091E20082FF05C08091DB
:10506000E1008B7F8093E1008091DA0080FF24C013
:105070008091D80080FF20C08091DA008E7F8093DD
:10508000DA008091D90080FF99C080E189BD82E17A
:1050900089BD09B400FEFDCF81E080935802809164
:1050A000C501811109C00E94CC0C0E94450D809160
:1050B000E20084608093E2008091E10080FF17C0ED
:1050C0008091E20080FF13C08091E2008E7F809388
:1050D000E2008091E20080618093E2008091D8003C
:1050E00080628093D80019BC85E08093580280913B
:1050F000E10084FF27C08091E20084FF23C080E1AB
:1051000089BD82E189BD09B400FEFDCF8091D80040
:105110008F7D8093D8008091E1008F7E8093E100A5
:105120008091E2008F7E8093E2008091E2008160B6
:105130008093E2008091C401882309F445C084E093
:10514000809358028091E10083FF27C08091E200A4
:1051500083FF23C08091E100877F8093E10082E09C
:10516000809358021092C4018091E1008E7F809359
:10517000E1008091E2008E7F8093E2008091E20066
:1051800080618093E20042E060E080E00E94150DC3
:105190008091F00088608093F000FF91EF91BF91C3
:1051A000AF919F918F917F916F915F914F913F91BF
:1051B0002F910F900FBE0F901F90189519BC109251
:1051C00058021092C50178CF8091E30087FD02C09C
:1051D00081E0B6CF83E0B4CF1F920F920FB60F924B
:1051E0001124FF920F931F932F933F934F935F933D
:1051F0006F937F938F939F93AF93BF93CF93DF93DF
:10520000EF93FF9309EE10E0F8018081C091EC006C
:10521000C795CC27C7958F70FC2EF82A1082C0EF57
:10522000D0E08881877F888378940E941D13F801DD
:105230001082888188608883CF2DCF70C083FF91D2
:10524000EF91DF91CF91BF91AF919F918F917F911E
:105250006F915F914F913F912F911F910F91FF900F
:105260000F900FBE0F901F901895DB018F939F93A7
:105270000E94C129BF91AF91A29F800D911DA39F54
:10528000900DB29F900D1124089587FB082E0626DD
:1052900087FD819567FD61950E94D4290EF4919553
:1052A00007FC81950895AA1BBB1B51E107C0AA1FEB
:1052B000BB1FA617B70710F0A61BB70B881F991FB7
:1052C0005A95A9F780959095BC01CD01089597FB5B
:1052D000072E16F4009407D077FD09D00E945329B9
:1052E00007FC05D03EF4909581959F4F08957095E9
:1052F00061957F4F0895A1E21A2EAA1BBB1BFD01E9
:105300000DC0AA1FBB1FEE1FFF1FA217B307E407A4
:10531000F50720F0A21BB30BE40BF50B661F771FFC
:10532000881F991F1A9469F76095709580959095DC
:105330009B01AC01BD01CF010895EE0FFF1F059049
:10534000F491E02D09940E94AB29332312F48A1BB7
:105350009B0B0C94BC29A29FB001B39FC001A39FDB
:10536000700D811D1124911DB29F700D811D11249E
:10537000911D08950E94AB29B7FF0895821B930BDE
:1053800008950E94AB29A59F900DB49F900DA49FF6
:10539000800D911D11240895B7FF0C94C1290E941E
:1053A000C129821B930B0895991B79E004C0991FB2
:1053B000961708F0961B881F7A95C9F7809508956F
:1053C000F999FECF92BD81BDF89A992780B50895CD
:1053D000A6E1B0E044E050E00C941A2AA8E1B0E065
:1053E00042E050E00C941A2A262FF999FECF92BD84
:1053F00081BDF89A019700B4021639F01FBA20BD9A
:105400000FB6F894FA9AF99A0FBE08950396272FCB
:105410000E94F5290E94F429252F0E94F529242FA6
:105420000C94F5290196272F0E94F5290C94F42954
:10543000DC01CB01FC01F999FECF06C0F2BDE1BD54
:10544000F89A319600B40D9241505040B8F7089543
:10545000FC014150504030F001900616D1F73197D1
:10546000CF010895882799270895FB01DC0104C026
:105470008D910190801921F441505040C8F7881B4C
:10548000990B0895F894FFCFB808BE08C108C70863
:10549000DC08DC08DC08DC08DC08DC08DC08DC08EC
:1054A000CA08CF08D308D908EA08F008F408FE13A0
:1054B0002614BD152614BD1559147A14BD1578157A
:1054C0008515211D271D2B1D391D3D1D411D451D08
:1054D0004B1D531D571D5B1D5F1D6B1D6F1D731DE8
:1054E000771D7D1D9B1D851D351D631D671D4F1D72
:1054F000811D911DA41DAA1D791E801E851E8A1E58
:105500008F1E941E991E9E1EA31EA81EAD1EAF1EAA
:10551000B41EB71EBA1EBD1EC01EC21EC51EF41E7E
:10552000F41E6F1F6F1FD11FED1F2D1F2D1FF81FA2
:06553000FC200D210D21FD
:105536000101010201191A1B1C1D1E1F2021221F19
:105546000C7112A112EB12EF1248754568556548A9
:1055560075450028E295AFC2B0E79B8AC2B029E242
:1055660095AFE5BDA1E294BBE29481E294BB00C293
:10557600AF5C5F28E38384295F2FC2AF000001027E
:105586000202020606060909090909090F0F0F0F8B
:105596000F0F151515181919191919191919191996
:1055A6002324303132339091353697349694F0F186
:1055B600F4F5F6F7676692E200E900EA00B500B690
:1055C60000B700CD008301CC008A0192019401212D
:1055D60002230224022502260227022A02B300B46D
:0655E600006F00700000E0
:00000001FF
