:100000000C9476040C94BD040C94BD040C94BD04B3
:100010000C94BD040C94BD040C94BD040C94BD045C
:100020000C94BD040C94BD040C9478270C946728A0
:100030000C9450230C94BD040C94BD040C94BD048A
:100040000C94BD040C94BD040C94BD040C94BD042C
:100050000C94BD040C9477230C94BD040C94BD0443
:100060000C94BD040C94BD040C94BD040C94BD040C
:100070000C94BD040C94BD040C94BD040C94BD04FC
:100080000C94BD040C94BD040C94BD040C94BD04EC
:100090000C94BD040C94BD040C94BD040C94BD04DC
:1000A0000C94BD040C94BD040C94BD04050109021C
:1000B000A10185020901A100050919012905150001
:1000C00025019505750181029501750381010501E1
:1000D000093009311581257F950275088106093897
:1000E0001581257F950175088106050C0A380215D2
:1000F00081257F950175088106C0C005010980A191
:1001000001850319012AB700150126B7009501756D
:10011000108100C0050C0901A101850419012AA064
:1001200002150126A002950175108100C005010984
:1001300006A101050719E029E715002501950875B5
:100140000181029501750881010507190029FF1534
:100150000026FF009506750881000508190129058C
:10016000950575019102950175039101C009023B46
:1001700000020100A0FA09040000010301010009C6
:1001800021110100012240000705810308000A092E
:100190000401000103000000092111010001228176
:1001A000000705820320000A120110010000000868
:1001B000D804E9EC0100010203010403300000004F
:1001C0000A03680038003700610000002803680057
:1001D00069006E00650079006200750073006800B8
:1001E00020006B006500790062006F006100720002
:1001F0006400730000000403090432190A00047F3C
:100200003F1F643214643214783C1E1E140A050029
:1002100000000000000000000000000000000000DE
:100220000000007E0F00D4FFFFFFC7000000780031
:10023000000000000000002A2B2800000000000041
:100240000000000000000000000029000000002C59
:100250001E3420212224342627252E362D373827F8
:100260001E1F202122232425263333362E37381F04
:100270000405060708090A0B0C0D0E0F10111213C6
:100280001415161718191A1B1C1D2F3130232D3564
:100290000405060708090A0B0C0D0E0F10111213A6
:1002A0001415161718191A1B1C1D2F3130354C2226
:1002B00023252628292A2C2D2F3032333536383A5B
:1002C0003B3D3E4042434547494A4C4E50515355B1
:1002D00057595A5C5E6062646668696B6D6F7173D2
:1002E0007577797B7D7F81838587898A8C8E9092D3
:1002F0009496989A9C9E9FA1A3A5A7A8AAACAEAFDE
:10030000B1B3B4B6B8B9BBBCBEBFC1C2C3C5C6C722
:10031000C9CACBCCCDCED0D1D2D2D3D4D5D6D7D7D3
:10032000D8D9D9DADADBDBDBDCDCDCDCDCDDDDDD1B
:10033000DDDCDCDCDCDCDBDBDBDADAD9D9D8D7D717
:10034000D6D5D4D3D2D2D1D0CECDCCCBCAC9C7C6C4
:10035000C5C3C2C1BFBEBCBBB9B8B6B4B3B1AFAE02
:10036000ACAAA8A7A5A3A19F9E9C9A9896949290A8
:100370008E8C8A89878583817F7D7B797775737180
:100380006F6D6B6968666462605E5C5A595755535D
:1003900051504E4C4A4947454342403E3D3B3A3816
:1003A00036353332302F2D2C2A292826252322FFBB
:1003B000AA7F554000010101010101010101020272
:1003C0000202020202020203030303030303030403
:1003D00004040404040405050505050606060606CE
:1003E000070707070708080808090909090A0A0A88
:1003F0000B0B0B0C0C0C0D0D0D0E0E0E0F0F0F102A
:1004000010111111121213131414151516161717B3
:10041000181819191A1A1B1B1C1D1D1E1E1F20201F
:10042000212222232424252626272829292A2B2C69
:100430002D2D2E2F30313232333435363738393A8C
:100440003B3C3D3E3F404142434445464748494A84
:100450004C4D4E4F50515354555658595A5B5D5E52
:100460005F616264656668696B6C6D6F70727375ED
:1004700077787A7B7D7E8082838587888A8C8E8F51
:1004800091939596989A9C9EA0A2A3A5A7A9ABAD7F
:10049000AFB1B3B5B7BABCBEC0C2C4C6C9CBCDCF6D
:1004A000D1D4D6D8DBDDDFE2E4E7E9EBEEF0F3F51B
:1004B000F8FAFDFF29003A003C003E004000000031
:1004C00043004500AE0000003B003D003F004100FE
:1004D00042004400AC00AB0035001F0021002300A7
:1004E000250027002E0029004A001E0020002200BF
:1004F000240026002D00310049004B002B001A007B
:1005000015001C000C001300300000004D0014000A
:1005100008001700180012002F002A004C004E009F
:100520002961160009000B000E00330032000000A4
:100530000000040007000A000D000F00340028002E
:1005400000000000E1001D0006000500100037005B
:10055000E5000000520000001B00190011003600E9
:100560003800000000000000E200E300000000008E
:10057000000000000000000051000000000000002A
:100580002C4200000351045150004F0029003A0052
:100590003C003E004000000043004500AE0000006B
:1005A0003B003D003F00410042004400AC00AB0076
:1005B00035001F0021002300250027002E00290000
:1005C0004A001E0020002200240026002D003100D9
:1005D00049004B002B001A0015001C000C001300F2
:1005E000300000004D001400080017001800120031
:1005F0002F002A004C004E00E000160009000B00FE
:100600000E003300320000000000040007000A0062
:100610000D000F003400280000000000E1001D0064
:100620000600050010003700E50000005200000041
:100630001B00190011003600380000000000000007
:10064000E200E300000000000000000000000000E5
:1006500051000000000000002C0000000351045174
:1006600050004F00290000000000000000000000C2
:10067000000000000000000000000000000000007A
:100680000000000000000000350000000000000035
:100690000000A800A9000000000000000000000009
:1006A00000000000AA000000000000002B00520023
:1006B00000000000000046000000000000000000F4
:1006C000000000000000000000004C0000000000DE
:1006D0000100510000005000520000000000000026
:1006E000000050004F00000051004F0000000000CB
:1006F00000000000E100AC00AE0000000000AB0014
:100700000000000052000000AB0000000000AC0040
:10071000AE00000000000000E200E3000000000066
:100720000000000000000000510000000000000078
:1007300001000000E600000050004F000000000033
:1007400000000000000000000000000000000000A9
:100750000000000000000000000000000000000099
:100760001114000000000C14000000000000000044
:100770000000000000000000000000002D08000044
:10078000000000002B00000000000000000000003E
:10079000000000000000000008140A5D00001214B0
:1007A00000000000000000000100000000000B5DE0
:1007B0000000000000000000000004140000000021
:1007C0000000085D0814000000000000E1000000C7
:1007D00006140000095D0000000000000000000099
:1007E0000000000000000000000000000000000009
:1007F000E200000000000000000000000000000017
:1008000000000000000000000000000001000000E7
:1008100000000000005C000000000000000000007C
:1008200000000000000000000000000000000000C8
:1008300000000000000000000000000000000000B8
:100840000000000000000153000000000000000054
:10085000000000000000000000000000C25CC75C57
:100860000000000000000000000000000000C55C67
:10087000C95C000000000000000000000000000053
:10088000C35CC85C00000000000000000000000025
:100890000000C65CCA5C0000000000000000000010
:1008A0000000000000000000000000000000000048
:1008B00000000000F0000000000000000000000048
:1008C0000000000000000000000000000000000028
:1008D0000000000000000000F10000000000000027
:1008E0000000000000000100F200F30011241FBE10
:1008F000CFEFDAE0DEBFCDBF04B603FE27C08091A4
:10090000AD039091AE03A091AF03B091B0038730D7
:10091000904BA740B04BD1F41092AD031092AE03B0
:100920001092AF031092B00314BE84B7877F84BFC8
:100930000FB6F894A895809160008861809360005C
:10094000109260000FBEE0E0F8E3099523E0AEEB03
:10095000B1E001C01D92AD3AB207E1F711E0A0E0AD
:10096000B1E0E6EFF4E502C005900D92AE3BB107B1
:10097000D9F70E949B230C94332A0C94000082FB2D
:10098000992790F981FD05C05D9A911104C0769A6E
:1009900008955D98FACF769808959091AB0392FFF1
:1009A00006C0282F28712830F9F4877F846093FFD0
:1009B00006C0282F28712831F1F4877E84612091A8
:1009C000AC0320FF06C0382F38713830D9F4877F48
:1009D000816021FF06C0282F28712831D1F4877E3D
:1009E000816194FD877E0895282F24712430F9F6C3
:1009F0008B7F8860DCCF282F2471243101F78B7E18
:100A00008861DDCF382F3171313019F78E7F8860E2
:100A1000E0CF282F2171213121F78E7E8861E1CF2F
:100A2000CF93DF93972F70E029E0929F600D711DA7
:100A30001124FB013CE6839FE00DF11D1124EE0F14
:100A4000FF1FEC54FB4FC591D491CE01C03ED105A0
:100A500009F45CC078F5C133D10509F4A3C090F462
:100A6000C932D10509F497C0CA32D10509F4A1C031
:100A7000C130D10509F45DC02497C13AD10508F40D
:100A800058C050C0C933D105D1F1C238D105B9F130
:100A9000C533D10509F478C0C03CD10508F012C1B6
:100AA000C83AD10508F08CC0C53AD10508F384973F
:100AB00090643FC0C43ED10509F449C058F4C23E19
:100AC000D10599F1C33ED105B9F1C05ED10928978E
:100AD00080F128C0C63ED10509F444C0C73ED10507
:100AE00009F447C0C11520E5D20708F090C0C11530
:100AF00030E4D30708F472C09F70906A1AC0209146
:100B0000AB032370B1F080EE90E013C02091AB03F3
:100B100020FD34C13091AC0330FF0BC083EE90E078
:100B200024FF07C090E080E004C02091AB0322FDC9
:100B3000F5CFDF91CF9108952091AB0322FD21C124
:100B40003091AC0330FDDFCF24FFF3CFEBCF20910A
:100B5000AC0321FFEECF8091AB0384FDE3CF87EEA2
:100B600090E0E7CF2091AB0323FFE3CF24FDDACF62
:100B7000F6CF2091AB0323FD07C13091AC0331FFC9
:100B8000E3CF84EE90E0D5CF2091AB0325FFD1CF0A
:100B900089E290E0CECF2091AB0325FFCACF85E359
:100BA00090E0C7CF2091AB0326FFC3CF8AE290E04D
:100BB000C0CF2091AB0326FFBCCF81E390E0B9CF3B
:100BC000CF3BD10509F4AECFC85AD0E0CC0FDD1F22
:100BD000C057DE4F888199819464ABCFC11520E363
:100BE000D20780F4C11530E2D30708F073C0CF3FBD
:100BF000D10511F008F09DCFC03FD10508F465CFB5
:100C0000906597CF9927D3FD6CC0906C92CFC1159A
:100C100025E5D20760F5C11534E5D30708F092C089
:100C2000C11583E5D80778F4C11592E5D90708F016
:100C300076C0C11521E5D20708F455C09C2F88273E
:100C4000816F906A76CF9E012370332781E090E018
:100C500002C0880F991F2A95E2F7C695C69530E223
:100C6000C39FE00111248C2B9D2B9A6862CFC11584
:100C70008AE5D807B0F4C11599E5D90708F071C025
:100C8000C11526E5D20708F462C0CE0198558F3F02
:100C9000910511F008F046CF9C2F8827806F906A4D
:100CA00048CFCE0190568115904208F03BCF8D2F52
:100CB0008F710E94CD0490E0982F882788279F711C
:100CC0008C2B4DC0FE01EE0FFF1FEC5CFC4F85919D
:100CD00094912FCFFE01FF70EE0FFF1FEC54FB4FDE
:100CE000F6CF986C26CF9E0174E0369527957A95BD
:100CF000E1F723708C2F86958695837030E2839F71
:100D0000C0011124922BC370E1E0F0E002C0EE0FAD
:100D1000FF1FCA95E2F78E2B9F2B9C680ACF9E017E
:100D20002370332781E090E002C0880F991F2A9535
:100D3000E2F7C695C69520E2C29FE00111248C2BF4
:100D40009D2BEBCF9C2F8827846F906AF2CE8C2F3F
:100D50000E94CD0490E0982F882788279F71906289
:100D6000E8CE8C2F8F700E94CD0434E0D695C795C5
:100D70003A95E1F7CF709C2F9069DBCE89E390E044
:100D8000D8CE82EE90E0D5CE86EE90E0D2CEAF9275
:100D9000BF92CF92DF92EF92FF920F931F93CF9368
:100DA000DF93082F162FE901493C08F048ECE42FA7
:100DB000F0E0EC54FC4F111111C0E4915E2F4E2F66
:100DC0004983E8835A83DF91CF911F910F91FF9060
:100DD000EF90DF90CF90BF90AF900895212F30E03B
:100DE000449186E0089F60011124EE24EA94F12CDE
:100DF000C601B7010E94D528802F90E0880F991F67
:100E000055E5569FF001579FF00D11248E1B9F0B47
:100E1000982F990F890FF701E21BF30B4E9FD0011A
:100E20004F9FB00D1124EB2F189F80011124012F2B
:100E300011275701A01AB10A4A9D80014B9D100D40
:100E40001124512F5701A81AB108A29EC001A39ED8
:100E5000900DB29E900D1124892F9927E81AF90A56
:100E60004E9DC0014F9D900D112463307105D1F04E
:100E70002CEFC21623E0D20670F461307105B1F098
:100E800062307105B9F02FEFC216D10408F098CF87
:100E90005B2FE92F95CF6430710579F066307105CD
:100EA000B9F38ECFE12F542F4B2F8ACFE42F412F50
:100EB0005B2F86CF592FE42FF7CF542F492F80CFA8
:100EC0008091A603982F9E7F61F481708260809349
:100ED000A6038091A903893C18F088EC8093A903AC
:100EE00008958635B0F381708465F1CF0895FA01D5
:100EF00081110994FB01FDCFCF93DF93CDB7DEB70E
:100F000028970FB6F894DEBF0FBECDBF843050F5E2
:100F1000811129C090918000977F909380002F9835
:100F2000282F30E0AFEFBFEF0E94242A23E030E00B
:100F300040E050E00E94022AC9012C3764E13607E4
:100F4000C0F469E070E00E94D52870938D00609332
:100F50008C0028960FB6F894DEBF0FBECDBFDF9190
:100F6000CF91089583E090918000986090938000E5
:100F7000D7CF2A50374D4F4F5F4FB42FA32F922F0B
:100F80008827BC01CD0125EF38E241E050E00E9406
:100F9000022A29833A834B835C83CA01B9010E94E8
:100FA000AB289B01AC0169817A818B819C810E9475
:100FB000AB28BB27A92F982F872FBC010097A140F2
:100FC000B10519F66FEF7FEFC0CFE091D202F0913B
:100FD000D302309721F00190F081E02D099480E058
:100FE00008952091D0023091D1022817390771F06D
:100FF0009093D1028093D002E091D202F091D3027B
:10100000309721F00680F781E02D09940895209112
:10101000CE023091CF022817390771F09093CF029A
:101020008093CE02E091D202F091D302309721F06A
:101030000084F185E02D09940895809197029091A4
:101040009602981301C008958F5F8770FACFE82F3A
:1010500029E0929FE00D11248E2F877041E001C09E
:10106000440F8A95EAF7E695E695E69585E0E89FD0
:10107000F0011124E65CFD4F30E020E070E051917A
:10108000DF011197CB01022E02C0969587950A9435
:10109000E2F7817081958527842385278C932F5FC4
:1010A0003F4F2530310559F70895E82F29E0929FE9
:1010B000E00D11249E2F9770E695E695E69585E064
:1010C000E89FF0011124E65CFD4F50E040E080E035
:1010D000219130E0092E02C0369527950A94E2F757
:1010E00021703327042E01C0220F0A94EAF7822BC5
:1010F0004F5F5F4F4530510559F70895BF92CF922A
:10110000DF92EF92FF920F931F93CF93DF938C01A7
:10111000C0909002D0909102E0909202F0909302E1
:1011200080918C0290918D02A0918E02B0918F02DD
:10113000C82AD92AEA2AFB2ACFE1D0E0BC2ED7015F
:10114000C6010C2E04C0B695A795979587950A946D
:10115000D2F780FD0EC0219788F7B12C8B2DDF913F
:10116000CF911F910F91FF90EF90DF90CF90BF90A4
:101170000895B8018C2F0E941005019761F3EECFFE
:10118000FF920F931F93CF93DF93FC018281008125
:101190001181C081F180882311F1662301F1C8011A
:1011A0000E947E08D82F682FC8010E942708EC2FC4
:1011B000F0E089E0F89EE00DF11D11248CE6D89F47
:1011C000E00DF11D1124EE0FFF1FEC54FB4F859134
:1011D0009491DF91CF911F910F91FF900895C801D5
:1011E0000E945508D82FE3CFCF93DF93D82FC92F74
:1011F0000E947E086D2F7C2FDF91CF910C941005FB
:101200000E94F408282F892F8F70392F32953F7054
:10121000903C80F43A30B0F4343020F4323090F422
:1012200080E008953630E1F781E0283E88F0213FE4
:10123000B9F70EC03C3011F03F3091F78695869596
:101240008695089581E0203F39F018F4283E40F754
:101250000895243F29F7FCCF0895A0ECB1E0EFEF0B
:1012600090E02D91821751F0EF3F19F4211101C048
:10127000E92F9F5F9630A9F7EF3F09F408950E2EEE
:10128000000CFF0BE254FE4F82830895E0ECF1E086
:101290009191891303C0DF0111971C9291E0E63C04
:1012A000F907B1F7089580918B02811110928B029A
:1012B00008958091D40290918A02892B9091940292
:1012C000892B8093BE0190918B02992391F0892BF9
:1012D0008093BE0120E080EC91E0FC01308101961A
:1012E00031112F5F31E0863C9307B9F721110E943D
:1012F0005309E091D202F091D302309731F002808D
:10130000F381E02D8EEB91E009940895882339F064
:101310009091D402892B8093D4020C94590908959A
:10132000882341F080959091D40289238093D40240
:101330000C9459090895882339F090918A02892BD9
:1013400080938A020C9459090895882341F080956E
:1013500090918A02892380938A020C9459090895F6
:101360002FB7F8948091350290913602A091370200
:10137000B09138022FBF08959C014FB7F894809127
:10138000350290913602A0913702B09138024FBFDA
:10139000821B930B08958091800280FD14C081FD13
:1013A00014C082FD16C080918102882381F08431AF
:1013B00080F422E3829FC001112464E170E00E9466
:1013C000E928862F08958CE0089589E1089585E045
:1013D000089582E308958091800280FD16C081FD0A
:1013E00016C082FD16C0809181028823A1F0883248
:1013F00080F428E0829FC001112468E270E00E941E
:10140000E928862F672B39F0089582E0089584E05B
:10141000089588E0089581E00895803F31F40E94A6
:10142000CB098195809385020895813F19F40E942C
:10143000CB09F8CF823F31F40E94CB09819580938C
:1014400084020895833F19F40E94CB09F8CF893FA5
:1014500029F40E94EB098093860208958A3F21F4C3
:101460000E94EB098195F7CF8B3F31F40E94EB0985
:1014700081958093870208958C3F19F40E94EB09AF
:10148000F8CF843F31F4809183028160809383029E
:101490000895853F21F4809183028260F7CF863FD3
:1014A00021F4809183028460F1CF873F21F4809101
:1014B00083028860EBCF883F21F4809183028061B2
:1014C000E5CF8D3F31F4809180028160809380026E
:1014D00008958E3F21F4809180028260F7CF8F3F84
:1014E000B9F7809180028460F1CF90918402803FAF
:1014F00041F48091850287FD10928502992371F055
:101500000895813F29F4809185021816ACF3F6CF37
:10151000823F81F497FFF2CF10928402809185027E
:1015200090918602892B90918702892B49F710921E
:1015300081020895833F19F4191674F3DFCF893FB0
:1015400039F4809186021816CCF610928602D6CF16
:101550008A3F29F48091860287FFD0CFF6CF8B3F58
:1015600039F48091870287FFC9CF10928702C6CFD6
:101570008C3F29F4809187021816BCF3BFCF843FBB
:1015800031F4809183028E7F80938302B7CF853FB1
:1015900021F4809183028D7FF7CF863F21F48091E3
:1015A00083028B7FF1CF873F21F480918302877F75
:1015B000EBCF883F21F4809183028F7EE5CF8D3F72
:1015C00031F4809180028E7F8093800297CF8E3F8E
:1015D00021F4809180028D7FF7CF8F3F09F08ECF6D
:1015E000809180028B7FF0CFE091D202F091D30204
:1015F000309749F082E0809382020480F581E02DEB
:1016000082E892E009950E94B00990933402809399
:1016100033020895882309F459C0823871F40E9476
:10162000E50781FF53C089E30E942D090E945909F3
:1016300089E30E9446090C945909833859F40E94A1
:10164000E50780FF43C083E50E942D090E945909E8
:1016500083E5EFCF843859F40E94E50782FF36C056
:1016600087E40E942D090E94590987E4E2CF9CEF8C
:10167000980F913AF0F290E2980F983088F48770C2
:1016800021E030E0A90102C0440F551F8A95E2F71E
:10169000CA0180959091D40289238093D402CBCF44
:1016A0009BE5980F933020F490E080E00C94F107D4
:1016B00098E5980F973120F490E080E00C940708AB
:1016C000803F20F00E94750A0C94F40A089510924D
:1016D0008A02109294020E94590986E0E2E8F2E040
:1016E000DF011D928A95E9F7109281021092800223
:1016F0000E94F40A90E080E00E94F10790E080E010
:101700000C94070860938C0270938D0280938E0274
:1017100090938F020C94670B6093900270939102E8
:1017200080939202909393020C94670B0F931F93F4
:10173000CF93DF9300D000D0CDB7DEB741E050E0CB
:1017400060E070E004C0440F551F661F771F8A9544
:10175000D2F78091900290919102A0919202B09163
:1017600093028A019B01082B192B2A2B3B2B0983FF
:101770001A832B833C83C901B8010F900F900F90FF
:101780000F90DF91CF911F910F910C948C0B0F93C1
:101790001F93CF93DF9300D000D0CDB7DEB741E0E9
:1017A00050E060E070E004C0440F551F661F771FD3
:1017B0008A95D2F7409550956095709580919002EA
:1017C00090919102A0919202B09193028A019B01A3
:1017D000082319232A233B2309831A832B833C8361
:1017E000C901B8010F900F900F900F90DF91CF912A
:1017F0001F910F910C948C0B9091950280958923E9
:1018000080939502282F277071F4282F082E000C42
:10181000330B9217130639F08595859585950E94AF
:10182000C70B10929502089580913202089580911D
:101830002902843011F482E0089581E00895FC01CA
:10184000CB012091D5013091D6012617370790F0B2
:10185000009729F42091E8002E772093E80040E0DB
:10186000009751F4411108C08091E80082FF31C017
:1018700080E00895C901F3CF209129022223A9F124
:101880002530A9F12091E80023FD2DC02091E8002A
:1018900022FDEACF2091E80020FFE2CF3091F30053
:1018A0002091F200009719F02830310558F041E0FE
:1018B0002830310509F040E02091E8002E77209390
:1018C000E800CECF41914093F10001972F5F3F4F49
:1018D000E9CF80912902882341F0853041F0809141
:1018E000E80083FFC1CF81E0089582E0089583E09E
:1018F00008958091CF0187FF13C08091E80082FF97
:1019000006C08091E8008B778093E80004C0809146
:1019100029028111F2CF0895809129028823D9F3F9
:101920008091E80080FFF8CF8091E8008E77ECCFBF
:101930002091E4003091E50095E6A9012091EC00AA
:10194000822F817020FF06C08091E80080FF06C0D2
:1019500080E008952091E80022FD1AC080912902BC
:10196000882389F0853089F08091EB0085FD0FC0D8
:101970002091E4003091E50042175307F9F29150AD
:10198000E1F684E0089582E0089583E0089581E01F
:101990000895E8EDF0E080818E7F80831092E20070
:1019A0001092DA001092E100A0EEB0E08C9181601C
:1019B0008C9380818F77808319BCA7EDB0E08C91E8
:1019C0008E7F8C9380818F7E80831092CE010895CC
:1019D000EF92FF920F931F93CF937C018B010E9494
:1019E000980CC82F811117C08091E80085FD0BC0AD
:1019F0008091E8008E778093E8000E94980C8823FD
:101A000099F3C82F08C0F70181917F018093F100FD
:101A10000150110949F78C2FCF911F910F91FF9021
:101A2000EF900895982F9093E900242F762F50E09F
:101A3000891731F07091EC002091ED005091F00089
:101A400021FD06C09F5F973071F78093E9000895EC
:101A50003091EB003E7F3093EB003091ED003D7F05
:101A60003093ED003091EB0031603093EB007093D8
:101A7000EC002093ED005093F0002091EE0027FD44
:101A8000E1CF0895CF92DF92EF92FF920F931F93D1
:101A9000CF93DF93C8EDD0E088818F7E8883E7ED18
:101AA000F0E080818160808384E082BF81E0809368
:101AB000CE0188818E7F888302EE10E0F8011082CB
:101AC0001092DA0081EEC82ED12CF60110828881A6
:101AD0008F77888388818068888388818F7D8883D9
:101AE00019BC109229021092CD0110922802109276
:101AF000CC0190EEE92EF12CF70180818B7F808361
:101B000088818160888342E060E080E00E94120D5D
:101B1000F60180818E7F8083F801808181608083DF
:101B2000808188608083F70180818E7F80838881B7
:101B300080618883DF91CF911F910F91FF90EF908B
:101B4000DF90CF9008950F931F93CF93DF938B0176
:101B5000D82FC92F0E946007A8016D2F7C2F88E025
:101B600090E0DF91CF911F910F910C94AE29E6EA9E
:101B7000F3E083E0808311828FEF828388EC83839C
:101B8000148263E070E08FEF98EC0C94A30DCF9378
:101B9000DF9300D000D0CDB7DEB78091AA038330A9
:101BA00018F48F5F8093AA038091A6039091A703F6
:101BB000A091A803B091A90389839A83AB83BC83C6
:101BC000BC01CD010F900F900F900F90DF91CF913E
:101BD0000C94A30DCF93DF9300D000D0CDB7DEB728
:101BE0008091AA03882319F081508093AA038091E1
:101BF000A6039091A703A091A803B091A90389839C
:101C00009A83AB83BC83BC01CD010F900F900F90E2
:101C10000F90DF91CF910C94A30D6091A603669570
:101C200070E04BE050E081E191E00E947B29892B3C
:101C300019F481E080939F030E94B0099093A1035F
:101C40008093A00308958091A60380FD0AC0E6E575
:101C5000F3E0118210821282339653E0EE39F507D9
:101C6000C1F7539A3BB1377F2BB128604FB7F89437
:101C700086E593E0FC010196508168E02BB90000F5
:101C800000C057FF3BB9550F000000C000C000C0A6
:101C90003BB900C06A9591F753E08E39950751F72B
:101CA0004FBF8FE594E00197F1F700C00000089561
:101CB0009091A60390FF0CC0E6E5F3E0818360837A
:101CC0004283339693E0EE39F907C1F70C94230E63
:101CD0000895CF93DF9300D00F92CDB7DEB79091E8
:101CE000A60390FF0AC09E012F5F3F4F0E94C706C8
:101CF0004B8169818A810E94580E0F900F900F903E
:101D0000DF91CF910895CF93DF93EC01EC81F0E068
:101D1000E155FD4F4491E6EAF3E0628181810E9442
:101D2000690E8C818F5F8C83DF91CF910895CF9363
:101D3000DF93EC01E6EAF3E0438162818C810E944B
:101D4000690E8C818F5F8C83DF91CF9108955F92B4
:101D50006F927F928F929F92AF92BF92CF92DF92BB
:101D6000EF92FF920F931F93CF93DF9300D000D099
:101D700000D00F92CDB7DEB7182F762E042F622E2B
:101D80009091A60390FF83C0E92FE695AE2FB0E0B7
:101D9000AB59BE4F8C9180939E039E7F9230C9F5C4
:101DA0009E012F5F3F4F812F0E94C7064B816981A3
:101DB0008A810E94580E1093A7037092A803009383
:101DC000A903662009F463C08091A6039091A7033C
:101DD000A091A803B091A9038C839D83AE83BF8398
:101DE000BC01CD0127960FB6F894DEBF0FBECDBF64
:101DF000DF91CF911F910F91FF90EF90DF90CF90E7
:101E0000BF90AF909F908F907F906F905F900C9459
:101E1000A30D823019F40091A903CDCF863019F4B7
:101E20001091A703C8CF8930D9F3893121F6E95140
:101E30008E2F8170582EE695F0E0E155FC4FA5906D
:101E4000B490BB2486E5E82E83E0F82ED12CC12C7B
:101E500098E1892E912CC601B4010E94D528812FCA
:101E6000511013C0860F9701402F672D0E94C7069F
:101E7000CA0CDB1C93E0E90EF11CAEE9EA16A3E004
:101E8000FA0649F70E94230E96CF861BECCF2796C1
:101E90000FB6F894DEBF0FBECDBFDF91CF911F917B
:101EA0000F91FF90EF90DF90CF90BF90AF909F90F9
:101EB0008F907F906F905F900895CF93DF9300D0C5
:101EC00000D0CDB7DEB79091A60390FF42C09170CD
:101ED000811135C092609093A603662381F08091B2
:101EE000A6039091A703A091A803B091A9038983A9
:101EF0009A83AB83BC83BC01CD010E94A30D60918A
:101F0000A603669570E04BE050E081E191E00E940D
:101F10007B29892BD9F010929F0381E08093A30342
:101F200020E04091A9036091A8038091A7030F903E
:101F30000F900F900F90DF91CF910C94A70E8B32E2
:101F400010F09465C8CF880F982BC5CF0E940D0E56
:101F5000E4CF0F900F900F900F90DF91CF910895E5
:101F60008091A60386958F5F8B3208F081E061E057
:101F70000C945D0F9091A60396958FEF890F913089
:101F800009F48AE261E00C945D0F61E00C945D0F4E
:101F90009091A60390FF07C09695981720F096178A
:101FA00010F40C94B00F0C94C50FE6EAF3E08181B5
:101FB00021E043816281885F0C94A70EE6EAF3E09A
:101FC000818121E04381628188500C94A70EE6EA6A
:101FD000F3E0628128E0620F08F46FEF21E04381B3
:101FE00081810C94A70EE6EAF3E0628128E0621B8F
:101FF00008F460E021E0438181810C94A70EE6EAB9
:10200000F3E0438128E0420F08F44FEF21E06281C2
:1020100081810C94A70EE6EAF3E0438128E0421B9D
:1020200008F440E021E0628181810C94A70E0F93B7
:102030001F93CF93DF9300D00F92CDB7DEB78C0103
:102040008091530381110AC09E012F5F3F4F48ECDE
:102050006FEF0E94C7068A8180935303F801648161
:10206000613049F06230F1F08091530340E0662323
:1020700031F040E019C06091530340E080E00E94DD
:10208000580EF801848190E0019663E070E00E94B0
:10209000E92884830F900F900F90DF91CF911F91CB
:1020A0000F9108954091530380E060E0E8CFEF92F4
:1020B000FF921F93CF93DF93EC0186E5E82E83E038
:1020C000F82E10E08C8197014091A9036091A8033C
:1020D000810F0E94C706165F83E0E80EF11C103FD7
:1020E00089F70E94230E9A818C8190FF08C08F5F30
:1020F0008C83DF91CF911F91FF90EF9008958150D5
:10210000F7CFCF92DF92EF92FF920F931F93CF936F
:10211000DF93FC018281DD24DA9480FD02C0DD249E
:10212000D39406E513E0D0E0C0E0F80111821082FC
:10213000128294E0E92EF12CC12C809155038C0D74
:102140008931E4F168E10E94C728892F082E000C2C
:10215000990B8C179D0791F48091A9038E9DA00186
:102160008F9D500D1124559547955595479598018C
:102170006091A8038091A7030E94C706CD0CF1E0EF
:10218000EF1AF108D1F621960D5F1F4FC831D10526
:1021900061F60E94230E8091550391E0D91214C07C
:1021A000811110C087E180935503DF91CF911F917A
:1021B0000F91FF90EF90DF90CF90089587FFC6CFEB
:1021C000885EC4CF8150EFCF90E00196BE010E949F
:1021D000E928E9CF0F931F93CF93DF93C6E5D3E0B0
:1021E000FE01118210821282339683E0EE39F807E5
:1021F000C1F710E000E080915403082E000C990B09
:10220000081719078CF180911001082E000C990B0A
:10221000801791074CF19E014091A9036091A8039A
:102220008091A7030E94C7060F5F1F4F23960831B6
:10223000110509F70E94230E80910F01909154031C
:10224000980F9093540320911001280F20931001B0
:10225000121614F497311CF0819580930F01DF91D1
:10226000CF911F910F910895198218821A82DCCFA5
:10227000EF92FF920F931F93CF93DF93EC018C812A
:102280009D810196817099279D838C8386E5E82E38
:1022900083E0F82E10E005E5212F26958C819D81A5
:1022A000820F911D817097014091A9036091A8034D
:1022B000809F802D11240E94C7061F5F83E0E80ED7
:1022C000F11C183149F7DF91CF911F910F91FF90C9
:1022D000EF900C94230EEF92FF920F931F93CF93E6
:1022E000DF93EC0106E513E0F12CE12C6091A803EB
:1022F0008091A7039C812CE0E216F104FCF4992361
:10230000F9F098014091A9030E94C7068FEFE81ADF
:10231000F80A0D5F1F4F28E1E216F10439F70E9419
:10232000230E8C8190E00196817099278C83DF9138
:10233000CF911F910F91FF90EF900895992309F38A
:10234000980140E0E1CFCF93C82F882309F48FC0D4
:102350008238C1F40E94E50781FD89C089E30E94AB
:102360002D090E9459092FEF31EE84E021503040B1
:102370008040E1F700C0000089E30E944609CF9148
:102380000C9459098338A1F40E94E50780FD6FC0C1
:1023900083E50E942D090E9459099FEF21EE34E048
:1023A000915020403040E1F700C0000083E5E5CFC8
:1023B0008438A1F40E94E50782FD59C087E40E9499
:1023C0002D090E9459098FEF91EE24E08150904031
:1023D0002040E1F700C0000087E4CFCF8CEF8C0FE6
:1023E000813A68F4E0ECF1E08191C817D1F131E075
:1023F000E63CF307C9F78C2F0E942D09C0CF80E27D
:102400008C0F883068F4C77021E030E001C0220FE3
:10241000CA95EAF78091D402822B8093D402AFCF81
:102420008BE58C0F833038F42C2F2452330BC901E9
:10243000CF910C94F107E8E5EC0FE73150F4F0E0B0
:10244000EE0FFF1FE057FE4F80819181CF910C94DA
:102450000708C03F60F08C2F0E940D0ACF910C94AA
:10246000F40A8C2F0E9446090E945909C4CFCF91CB
:102470000895CF93C82F0E94A311C93349F42FEFB9
:1024800087EE93E0215080409040E1F700C00000CB
:102490008C2FCF910C940A0B8091D502823019F0C9
:1024A00030F481110BC082EE0E940A0B02C084300E
:1024B00049F08091D9028093D40208958CE20E9461
:1024C0003912F7CF88E2FBCFBF92CF92DF92EF9223
:1024D000FF920F931F93CF93DF936B017C010CE16D
:1024E00010E0C7E0D0E0BB24B394D701C601002EB2
:1024F00004C0B695A795979587950A94D2F78F70E3
:10250000D1F4B11003C087E20E9439122197045020
:102510001109CF3FDC0751F4DF91CF911F910F914B
:10252000FF90EF90DF90CF90BF900895C430D10519
:10253000E4F6B12CDACF8A3028F4835E0E94391297
:10254000B12CE4CF8650990BF9CFFF920F931F93D4
:10255000CF93DF93C62FD42F122F8823A9F0609337
:1025600088020E94B0099093CA018093C901C77084
:1025700081E001C0880FCA95EAF7DF91CF911F91E2
:102580000F91FF900C94860980918802681334C0E3
:102590008091C9019091CA010E94BC09883C9105B3
:1025A00058F500E20D0FCD17A9F0C770FF24F39482
:1025B0008F2D01C0880FCA95EAF70E949009083054
:1025C00048F48D2F877001C0FF0C8A95EAF78F2D94
:1025D0000E948609812F0E9439120830A0F4D7701A
:1025E00081E001C0880FDA95EAF7DF91CF911F9162
:1025F0000F91FF900C949009C77081E001C0880F83
:10260000CA95EAF7F2CFDF91CF911F910F91FF901A
:10261000089581E08093E00080E28093D8001092DA
:10262000C9008FE19EE40197F1F700C0000087E048
:1026300090EBDC018093AD039093AE03A093AF03C6
:10264000B093B00388E19CE00FB6F894A89580930E
:1026500060000FBE90936000FFCFCF93DF93D82F21
:10266000C92F0E94170C823011F0843049F581E0A7
:102670008093E9008FEF9091E800815095FD06C0AE
:1026800095ED9A95F1F700008111F5CF8091E80062
:1026900085FF16C050E040E068E070E08D2F9C2F71
:1026A0000E94E80C8091E8008E778093E80088E033
:1026B000ED2FFC2FAAE2B2E001900D928A95E1F78E
:1026C000DF91CF910895CF93DF93D82FC92F0E9428
:1026D000170C823011F0843001F582E08093E9001C
:1026E0008FEF9091E800815095FD06C095ED9A9589
:1026F000F1F700008111F5CF8091E80085FF0DC052
:1027000050E040E066E070E08D2F9C2F0E94E80CC6
:102710008091E8008E778093E800DF91CF91089553
:10272000CF93DF9300D00F92CDB7DEB790912902FF
:10273000943019F589836A837B8382E08093E90072
:102740008FEF9091E800815095FD06C095ED9A9528
:10275000F1F700008111F5CF8091E80085FF0DC0F1
:1027600050E040E063E070E0CE0101960E94E80C8A
:102770008091E8008E778093E8000F900F900F9083
:10278000DF91CF910895BC0183E00C949013CF9317
:10279000DF93D82FC92F0E94170C823011F084309C
:1027A00039F46D2F7C2F84E0DF91CF910C9490133E
:1027B000DF91CF9108954F925F927F928F929F9277
:1027C000AF92BF92CF92DF92EF92FF920F931F933F
:1027D000CF93DF9360E571E0C7EDD1E09CE5A92ED2
:1027E00091E0B92E912CEE24E394F12CFB01819120
:1027F000BF01E82FE295EF70A1E2AE0FB0E09C912F
:102800008F70870101C0000F8A95EAF7892F802B0E
:102810008C93EE5D4E2E512CF2018081802E80949F
:1028200088218083F0EAFA95F1F78CE5C82E81E0E3
:10283000D82E50E040E030E020E0F60171906F01CA
:10284000872D82958F70805E90E0FC01808190E002
:10285000F72DFF7002C095958795FA95E2F780FDF8
:1028600042C0C701042E02C0880F991F0A94E2F7E4
:10287000282B392B4F5F5F4F49305105F1F68C9172
:1028800088228C92F2018081082B008388819981B3
:102890002817390759F13983288381E0982A22962D
:1028A000A616B70609F0A2CF992011F181E0809316
:1028B000C8010E94B0099093C7018093C60180911E
:1028C000C6019091C7010E94BC090697A8F088E153
:1028D000E7EDF1E0A2EFB1E001900D928A95E1F70A
:1028E0001092C80109C080E090E0C2CF80E0D6CF4E
:1028F0008091C8018111E3CFDF91CF911F910F919A
:10290000FF90EF90DF90CF90BF90AF909F908F900F
:102910007F905F904F9008958F929F92AF92BF9259
:10292000CF92DF92EF92FF920F931F93CF93DF939B
:10293000FC01B280A48081E08483CBEDD2E006E587
:1029400013E08BE4982E88248394EE24EA94F12CEF
:102950002BE4C22ED12CA1101DC01B821A8298011B
:102960004A81698188810E94C70625960D5F1F4FA5
:1029700083E0C335D80779F7DF91CF911F910F918D
:10298000FF90EF90DF90CF90BF90AF909F908F908F
:102990000C94230E2B81222309F121502B833C819F
:1029A000892D821B311101C0822F9091A903899F2B
:1029B000C0011124B6010E94D5286A83211104C0E8
:1029C000332311F01C829B8222E02B1540F2809170
:1029D000A70388838091A8038983C1CF0E946B29B4
:1029E000823091400CF0BBCF82E08B15C0F40E9486
:1029F0006B29B7010E94E928888322E02B1590F407
:102A00000E946B292091A8032695622F70E00E94F6
:102A1000E928280F29831A829B828C82A0CF80917B
:102A2000A703EACF2091A803F5CFCF9384E090E0ED
:102A30000E948829C82F81E290E00E948829982F5F
:102A40008C2FCF9108958091D4028093D902109257
:102A5000D4028091D5028230E9F030F481110DC0AA
:102A600082EE0E94A31102C08430D9F08FE39CE96A
:102A70000197F1F700C00000089583E00E949B09D0
:102A800088E10E94A31188E10E940A0B83E00E9462
:102A9000A509ECCF82EE0E94A31187E50E943912AE
:102AA000E5CF86EE0E94391288E1F8CFCF92DF920F
:102AB000EF92FF92CF93DF9300D000D000D0CDB73C
:102AC000DEB78D839E83AD81BE819C9191110DC037
:102AD00026960FB6F894DEBF0FBECDBFDF91CF9123
:102AE000FF90EF90DF90CF90089597FD60C0C92EC2
:102AF000D12CF12CE12C2D813E812F5F3F4F3E8365
:102B00002D83D701C601985DA109B10981159840AF
:102B1000A105B105C0F24FEFC416D406E406F406D1
:102B200091F2C114D10451E1E506F10464F6C11437
:102B3000D10481E0E806F10420F08091D5028230D2
:102B400011F20E942315C114D10491E0E906F104A9
:102B500008F4DCC08091D5028111D8C0A1E0EA1A46
:102B6000F108D701C6012AE0B695A79597958795F4
:102B70002A95D1F79C01AD0138524F4F5F4FCA01E2
:102B8000B9010E94641233E0D322EE24FF24D7015E
:102B9000C6019452AF4FBF4F89839A83AB83BC83E6
:102BA000BC01CD010E9464120E944C128CCF892F6F
:102BB000807E803CE1F4C92ED12CF12CE12CE6E0A2
:102BC000CC0CDD1CEE1CFF1CEA95D1F730ECC322C7
:102BD00037E0D322EE24FF24AD81BE8111968C9183
:102BE00011978F73C82A1296BE83AD838ACF892F1F
:102BF000807F803E81F5ED81FE818181C82ED12CC0
:102C0000F12CE12C66E0CC0CDD1CEE1CFF1C6A955F
:102C1000D1F7F0ECCF22FFE0DF22EE24FF24892F52
:102C200090E0B0E0A0E07CE0880F991FAA1FBB1FD6
:102C30007A95D1F7AA27BB278C299D29AE29BF29D0
:102C4000ED81FE8122812F736C017D01C22A3396B2
:102C5000FE83ED8356CF892F887F803F09F047C0E0
:102C6000953F08F044C0AD81BE8111968C91C82E6D
:102C7000D12CF12CE12C3CE0CC0CDD1CEE1CFF1C1B
:102C80003A95D1F7CC24B0EFDB22B3E0EB22FF245E
:102C9000892F90E0B0E0A0E042E1880F991FAA1FC1
:102CA000BB1F4A95D1F788279927AC71BB278C2980
:102CB0009D29AE29BF29ED81FE8123812F736C01EF
:102CC0007D01C22A828190E0B0E0A0E056E0880F4A
:102CD000991FAA1FBB1F5A95D1F7807C9F70AA2706
:102CE000BB27C82AD92AEA2AFB2A3496B1CF2D81DC
:102CF0003E812F5F3F4F3E832D83CC24CA94DD2439
:102D0000DA94EE24EA94FF24FA94FBCEC701B601CC
:102D100049CF1092D402E0ECF1E086E0DF011D9291
:102D20008A95E9F70C94670B1F93CF93DF93CDB788
:102D3000DEB7AA970FB6F894DEBF0FBECDBF8FECFB
:102D400091E0FC0101962091F100208321E0873D74
:102D50009207B9F78091D001893009F456C0C8F4C0
:102D6000823009F4B1C0833009F480C0813071F140
:102D70008091E80083FF84C28091CF019091D001BF
:102D80009A3008F07DC2E92FF0E0EB5CF54D0C9431
:102D9000FD288A3009F487C08B3051F78091CF012C
:102DA000813231F78091D3019091D401892B01F7C1
:102DB0008091E800877F8093E8000E94790C8091E1
:102DC000D10180930E010E948916D2CF8091CF014C
:102DD000813A71F68091E800877F8093E8008091C6
:102DE000D3019091D401892B61F468E08AE292E0EA
:102DF00070E00E941F0C8091E8008B778093E800C0
:102E0000B7CF60E090E080E0F3CF8091CF018132D6
:102E100009F0AECF8091D3019091D401029708F0D0
:102E2000A7CF8091E800877F8093E8008091E80039
:102E300082FF17C09091F3008091F200029729F46D
:102E40008091F1008B7F813021F48091F10080939B
:102E500032028091E8008B778093E8000E94790C21
:102E600087CF809129028111E1CF82CF8091CF015C
:102E7000813A09F07DCF8091D3019091D401892BC3
:102E800009F076CF8091E800877F8093E8008091F9
:102E9000E80080FFFCCF80910E018093F1008091CB
:102EA000E8008E77D9CF8091CF01813209F060CFD1
:102EB0008091E800877F8093E8000E94790C8091E0
:102EC000D2018093CB0154CF8091CF01813A09F098
:102ED0004FCF8091E800877F8093E8008091E800E1
:102EE00080FFFCCF8091CB01D8CF803899F0823819
:102EF00009F0C6C18091D3018F70873008F0C0C13E
:102F00008093E9008091EB0085FB882780F910927F
:102F1000E90006C08091CC01909128029111826055
:102F20009091E800977F9093E8008093F1001092D1
:102F3000F1008091E8008E779FC1882309F48DC14C
:102F4000823009F09DC18091D101811190C18091A1
:102F5000D3018F702FEF280F263008F091C1809396
:102F6000E9002091EB0020FF82C1933031F4809181
:102F7000EB0080628093EB007AC19091EB0090614E
:102F80009093EB0021E030E001C0220F8A95EAF730
:102F90002093EA001092EA008091EB008860EACF6B
:102FA00081116EC11091D1011F778091E30080786B
:102FB000812B8093E3008091E800877F8093E80075
:102FC0000E94790C8091E80080FFFCCF8091E300A3
:102FD00080688093E30082E0111183E080932902EE
:102FE0004FC18058823008F04BC14091D1015091BF
:102FF000D2014C3D83E0580799F583E08A838AE249
:1030000089834FB7F894DE01139620E03EE051E249
:10301000E32FF0E050935700849120FF03C0829586
:103020008F703F5F8F708A30C8F0895C90E08D931D
:103030009D932F5F243161F74FBF8091E800877F18
:103040008093E8006AE270E0CE0101960E941F0CB6
:103050008091E8008B778093E80012C1805DE6CF15
:103060002091D3013091D401852F99278330910588
:1030700009F160F48130910509F47EC0029709F0EE
:10308000FFC08BE390E0EDE6F1E03EC081329105B8
:1030900009F466C0829709F0F3C02115310509F4DF
:1030A00075C02130310509F0EBC081E890E0ECEA11
:1030B000F0E02AC0CA019927423009F449C08330A0
:1030C000910568F40097B1F0019709F0D9C0ECECD4
:1030D000F1E0E4918E2F90E0ECECF1E012C0039768
:1030E00009F0CEC0EAEBF1E0E4918E2F90E0EAEB3C
:1030F000F1E007C0E6EFF1E0E4918E2F90E0E6EF1B
:10310000F1E0009709F4BCC02091E800277F2093EC
:10311000E8002091D5013091D6018217930708F479
:103120009C0140E021153105B1F5411134C0809179
:10313000E80082FD8DCF80912902882309F488CF91
:10314000853009F485CF8091E80083FFF0CF80CFF0
:10315000E0ECF1E0E4918E2F90E0E0ECF1E0D1CFF3
:103160002115310571F02130310509F089C089E060
:1031700090E0E8E9F1E0C8CF82E190E0E8EAF1E030
:10318000C3CF89E090E0EFE7F1E0BECF80E490E0CC
:10319000EDE2F1E0B9CF80912902882309F458CFFC
:1031A000853009F455CF8091E80083FD51CF80919F
:1031B000E80082FDBCCF8091E80080FFB3CF909102
:1031C000F3008091F2002115310519F08830910546
:1031D00050F041E0089709F040E08091E8008E77D8
:1031E0008093E8009FCF44914093F10031962150A5
:1031F00031090196E8CF803809F042C08091E8009B
:10320000877F8093E8008091CD018093F10091CE7B
:10321000811136C01091D101123090F58091E800F3
:10322000877F8093E8001093CD010E94790C1123D1
:1032300011F084E005C08091E30087FDFACF81E0C2
:103240008093290242E061EC81E00E94120D42E28B
:1032500061EC82E00E94120D13C08091D101813097
:1032600079F481E0933009F080E080932802109295
:10327000E9008091E800877F8093E8000E94790C44
:103280008091E80083FF0AC08091E800877F8093E7
:10329000E8008091EB0080628093EB00AA960FB665
:1032A000F894DEBF0FBECDBFDF91CF911F9108957F
:1032B0006CEE7EEF90E080E00E94BA2960E082E050
:1032C00090E00E949C2960E083E090E00E949C29AD
:1032D00010928C0210928D0210928E0210928F0228
:1032E00060E084E090E00E949C2960E081E290E050
:1032F0000E949C2960E085E090E00E949C2960E0AB
:1033000086E090E00E949C296FEF87E090E00E94A9
:103310009C2940E050E0BA0188E090E00E94AE298C
:1033200060E08DE090E00E949C2940E050E0BA010E
:1033300088E190E00E94AE2960E087E190E00E9481
:103340009C2940E050E0BA018CE190E00E94AE2957
:1033500060E080E290E00E949C29E6EAF3E0808150
:103360008160808386950E94C50F21E040E86FEF61
:1033700080E00E94A70E8BE00E94C50F40E050E065
:10338000BA018FE090E00E94AE2981E08093D502DF
:1033900061E08CE090E00C949C294F925F926F92D8
:1033A0007F928F929F92AF92BF92CF92DF92EF92D5
:1033B000FF920F931F93CF93DF9300D000D00F9213
:1033C000CDB7DEB78C01DC0113968D919C911497DB
:1033D000892B41F011968C9111979C9189238F3FF5
:1033E00009F0B3C60F900F900F900F900F90DF91E0
:1033F000CF911F910F91FF90EF90DF90CF90BF90F2
:10340000AF909F908F907F906F905F904F900895B6
:10341000F8018281882321F086E291E00E9456150E
:10342000D80112968C91882351F169807A802EEB15
:1034300062162CE5720609F4A1C108F025C14CEB17
:1034400064164CE5740609F474C15DEB65165CE521
:10345000750609F475C18BEB68168CE5780609F4DE
:1034600036C189819A81815E9C45059740F46981C6
:10347000615E6093D5028CE090E00E949C29D801A7
:1034800012968C9169807A8077FEACC1882311F105
:103490000E9423157301E894F7F84CE0C42ED12C58
:1034A000C7010C2C02C0969587950A94E2F78F709D
:1034B00009F496C18A3008F090C1835E0E943912E7
:1034C00024E0C21AD1083CEFC3163FEFD30641F700
:1034D0000E944C12D80112969C91992309F458C667
:1034E0001092880269807A8026E162162CE57206C5
:1034F00008F0BDC132E063163CE5730608F487C2EC
:103500000E9415159093AC038093AB0369807A8079
:1035100026E162162CE5720608F0D7C132E0631688
:103520003CE5730608F0C3C16091AB036090AC0347
:10353000698284E090E00E949C29698181E290E0A8
:103540000E949C290E948916D1C0F801828188239B
:1035500009F466CF5CE1E52E51E0F52E6AE0662EB7
:10356000D7018C91882309F45BCF813009F04DC0DD
:1035700011969C91119712968C91913049F4B2E07A
:10358000EB0EF11C0E9439123FEFE31AF30AE8CF69
:10359000923031F4E2E0EE0EF11C0E94A311F4CF60
:1035A000933031F4F2E0EF0EF11C0E940A0BECCFE5
:1035B000943021F02FEFE21AF20AE6CF32E0E30E68
:1035C000F11C20E030E0B7016F5F7F4FD70111960B
:1035D0004C918053990B8A30910560F0211531058B
:1035E00099F2EFE9FFE03197F1F700C000002150B8
:1035F0003109F4CF629EF001639EF00D11249C010D
:103600002E0F3F1F842F7B01DECFE82FF0E0E15D1E
:10361000FD4F7490282F26952695269530E0F901C8
:10362000E15EFD4FA4908770B12C082E02C0B594C6
:10363000A7940A94E2F7F1E0AF22BB24F901E15F1D
:10364000FD4FC490D12C02C0D594C7948A95E2F75F
:1036500021E0C222DD24A114B10419F081EE0E9400
:10366000A311C114D10419F086EE0E94A311872D75
:103670000E943912CD2819F086EE0E940A0BAB2861
:1036800009F482CF81EE91CF69807A802FEB6216A8
:103690002CE5720609F486C030EC63163CE573062F
:1036A00009F0DFCE9091DA02892F8695869586956E
:1036B0008F5F8F719770843008F08CC0880F880FEF
:1036C000880F892B8093DA028091DA0241C08091C1
:1036D000DA02867089618093DA0283E00E947C07B7
:1036E0006091DA0286E090E00E949C298091950228
:1036F000877009F477CED80112968C91882309F44B
:1037000071CE82E00F900F900F900F900F90DF918D
:10371000CF911F910F91FF90EF90DF90CF90BF90CE
:10372000AF909F908F907F906F905F904F900C9490
:10373000FC0B8091DA0286708093DA0280E0CECFB3
:103740008091DA02982F987F89F088508093DA026E
:10375000887F91E009F490E06091DA0290FB60F9D3
:103760006093DA0286E090E00E949C298091DA0260
:103770008695869586950E947C07B8CF8091DA025F
:10378000982F969596959695883140F49F5F990F5E
:10379000990F990F8770892B8093DA026091DA0272
:1037A0006160DECF6091DA0260FF09C06E7F6093D6
:1037B000DA0286E090E00E949C2980E0DCCF616024
:1037C0006093DA02613019F489E08093DA02609143
:1037D000DA02C8CF9093DA0277CF8650990B6ECE7B
:1037E00087E26CCE69807A8023EF62162CE5720640
:1037F000B1F1C0F448ED64164CE5740661F128E2BD
:1038000041E059ED65165CE5750639F126E241EEB9
:1038100061EE97ED69169CE5790609F05BCE0E9492
:10382000A51264CF69807A8025EF62162CE57206B6
:10383000D1F027E245EE66EE36EF63163CE57306FF
:1038400071F344EF64164CE5740609F043CE27E2A9
:1038500045EE64EEE4CF27E245EE65EEE0CF26E2EA
:1038600041EE60EEDCCF26E241EE62EED8CF298158
:103870003A812A5F3C452930310508F441CE698000
:103880007A8026E162162CE5720609F0C0C08091AC
:10389000D4028A7A91E009F490E090938902811130
:1038A000B2C089E20E942D090E9459091FCFE98107
:1038B000FA81E350FC458091AB038160E331F1056F
:1038C000D0F4E15CF54D0C94FD2829813A812A5F02
:1038D0003C453A8329832930310508F025CE4981BA
:1038E0005A814E5A554D5A834983FA010C94FD284A
:1038F0008091AB0382608093AB0316CE8091AB03C3
:103900008460F9CF8091AB038860F5CF8091AC03E0
:1039100081608093AC0308CE8091AC038260F9CFC4
:103920008091AB038061E7CF8091AB038062E3CFEE
:103930008091AB038064DFCF0E9489168091AB0336
:103940008068D9CF8091AB038C60D5CF8091AC03D8
:103950008360DFCF8091AB038E7FCDCF8091AB03AF
:103960008D7FC9CF8091AB038B7FC5CF8091AB0397
:10397000877FC1CF8091AC038E7FCBCF8091AC038A
:103980008D7FC7CF8091AB038F7EB5CF8091AB0386
:103990008F7DB1CF8091AB038F7BADCF0E94891615
:1039A0008091AB038F77A7CF8091AB03837FA3CFA9
:1039B0008091AC038C7FADCF8091AB0382FB9927C4
:1039C00090F921E0922790FB82F990FB83F993CF45
:1039D0008091AC03982F909591708E7F892B90FBEE
:1039E00081F997CF0E9489169091AB03892F97FB9D
:1039F00087F9805880CF61E08EE090E00E949C299A
:103A000093CD60E0F9CF85E34DCF85E3CEC38091C0
:103A1000D4028272E981FA81E25CFC45E431F1056D
:103A200008F07EC0E55AF54D0C94FD288091A60360
:103A300080FF21C08E7F8093A6032091A603309142
:103A4000A7034091A8035091A90329833A834B838C
:103A50005C83CA01B9010E94A30D10929F033FEF3E
:103A600040E752E0315040405040E1F700C00000D4
:103A70000E94230E3BCE81608093A60386950E9410
:103A8000C50F34CE4AEB5FE060EB7FE00E94770722
:103A90002DCE40EB5FE06AEB7FE0F8CF4EED5FE0CC
:103AA00065ED7FE0F3CF45ED5FE06EED7FE0EECFBB
:103AB00043EF5FE067EE7FE0E9CF47EE5FE063EF63
:103AC0007FE0E4CF4BE050E16FEF7FE0DFCF4FEFDF
:103AD0005FE06BE070E1DACF4AEE5DE067EC7DE03D
:103AE000D5CF47EC5DE06AEE7DE0D0CF81E0C7CF77
:103AF00065E082E00E94C80FF9CD68E086E0FACF69
:103B00006EE089E0F7CF64E18FE0F4CF67E185E113
:103B1000F1CF88E1B4CF62E289E1ECCF83E2AFCFAD
:103B2000992369F069807A8061142CE5720609F4A2
:103B30004BC03EED63163CE5730609F452C0F80134
:103B4000E080F180992309F44FC0C7010E947E08EC
:103B50008983682FC7010E942708B70189810E94C5
:103B600010058D839983D8011596EC901597E294F2
:103B70003FE0E3221296FC90F11010928A028091AD
:103B80009502877099F0FF2089F08981807F8034C9
:103B900021F08D81805E883048F082E00E94FC0B2D
:103BA000809195028770BB24B3948111B12C8981D7
:103BB00082958F70C82ED12C8C3008F053C0F6013E
:103BC000E159F54D0C94FD280E9489164FEF54E3FE
:103BD0008CE0415050408040E1F700C000000E945E
:103BE00009130E94581982CDC7010E945508898384
:103BF000B4CFB981BF70EB2EE981E07F19F0E29478
:103C000020EFE222FF20D1F0EE2071F08D81805E66
:103C1000883018F06D8061100BC08091D402E82AC2
:103C2000E092D4020E9459098D810E94A3111AC00A
:103C300080918A02E82AE0928A02F4CF8D810E9464
:103C40000A0BEE2079F0E0948D81805E883018F0C8
:103C50007D80711043C08091D402E822E092D402AA
:103C60000E94590988E0C81AD10894E0C916D10405
:103C700020F40E94E5070E94BF04BB20B1F08091B0
:103C8000950280FD12C0D80112961C9285958595EB
:103C900085950E94960BC8010E94CD1980919502CE
:103CA0008595859585950E94C70B60E0C8010F90AA
:103CB0000F900F900F900F90DF91CF911F910F9168
:103CC000FF90EF90DF90CF90BF90AF909F908F903C
:103CD0007F906F905F904F900C94C00880918A0203
:103CE000E822E0928A02BCCF29812F70A22E39816E
:103CF000307F303219F0A29490EFA9226D806620B7
:103D000089F0262D213079F1FF20D1F1EE2089F1C3
:103D1000D80115968C91159780FF86CF8F701596D8
:103D20008C9327C0FF2091F090918B028A2D892BD4
:103D3000E11003C00E94860995CF31E0E312FACF6B
:103D4000891709F48FCF80938B028CCFE11006C0C6
:103D50000E9453098A2D0E94900984CF41E0E41605
:103D600009F480CFF5CFFF2031F055E05E1508F45F
:103D700079CF8A2DDFCF84E08E1508F473CFEACF98
:103D8000EE2041F3BD81B93349F4EFEFF7EE23E0C4
:103D9000E150F0402040E1F700C000008D810E941A
:103DA0000A0B60CF898186958695837069F0813092
:103DB00009F058CF8D8199819370F11002C090E085
:103DC00080E00E9407084ECF8D8199819370F11099
:103DD00002C090E080E00E94F10744CF8D81FF2077
:103DE00029F00E940D0A0E94F40A3CCF0E94750A35
:103DF000FACF8981837009F07EC0F11033CF2D8115
:103E0000229526952770220F220F4D814F70442E48
:103E1000512C712C612C022E04C0440C551C661CC4
:103E2000771C0A94D2F78D8040E050E0BA0184FEFE
:103E300011C08FE090E0A0E0B0E004C0880F991FAF
:103E4000AA1FBB1F2A95D2F7AC01BD014095509522
:103E500060957095998096949694292D23702230C0
:103E600051F12330D9F180918C0290918D02A09173
:103E70008E02B0918F02213099F04429552966298C
:103E800077293A014B01682279228A229B22698292
:103E90007A828B829C82C401B3010E94820BE2CEA3
:103EA00084299529A629B7293C014D01642A752A40
:103EB000862A972AECCF44295529662977298091AB
:103EC0008C0290918D02A0918E02B0918F023A01E6
:103ED0004B01682679268A269B26D9CFD301C201B9
:103EE000842B952BA62BB72B89839A83AB83BC831A
:103EF000BC01CD01D2CFFF2009F452C0698060FE21
:103F0000B1CE2D81229526952770220F220F4D814B
:103F10004F70442E512C712C612C022E04C0440C85
:103F2000551C661C771C0A94D2F78D8040E050E047
:103F3000BA0184FE11C08FE090E0A0E0B0E004C0C0
:103F4000880F991FAA1FBB1F2A95D2F7AC01BD018C
:103F50004095509560957095998096949694292DEA
:103F60002370223061F12330E9F180919002909129
:103F70009102A0919202B09193022130A9F04429BC
:103F80005529662977293A014B01682279228A222C
:103F90009B2269827A828B829C82C401B3012EC0EB
:103FA000798071FE5FCEADCF84299529A629B729E6
:103FB0003C014D01642A752A862A972AEACF4429B2
:103FC0005529662977298091900290919102A091BC
:103FD0009202B09193023A014B01682679268A2613
:103FE0009B26D7CFD301C201842B952BA62BB72BB1
:103FF00089839A83AB83BC83BC01CD010E948C0B67
:1040000031CE99819F709983FF2029F0892F0E94DA
:10401000960B8D818FCE8D810E94900989810E949F
:10402000C70B20CEAD81A23F09F457C068F4A03F72
:1040300021F1A13F09F449C0FF2009F475C0E11046
:10404000F3CD89818F7146C0BD81B33F09F44AC069
:10405000B43F91F7FF2009F45BC029812F712983B8
:10406000822F0E94960B698038E0639EC001112464
:10407000836080939502862D2DC0FF2001F1E4E03E
:10408000EE1508F4EFCDF981FF7181E090E0A0E03A
:10409000B0E004C0880F991FAA1FBB1FFA95D2F782
:1040A000409190025091910260919202709193021E
:1040B0003C014D0164267526862697266ACF85E049
:1040C000782E7E1408F4CECDDECF89818F71FF204B
:1040D00009F4A5CF0E94960BC5CD89818F71FF2071
:1040E000C9F39DCF60E070E0CB01FF2009F486CFDB
:1040F00029812F7181E090E0A0E0B0E03C014D010A
:1041000004C0660C771C881C991C2A95D2F741CFF5
:1041100081E00E94FC0B772473947E1408F0A2CDFA
:1041200082E00E94FC0B9ECDEE2061F02D812933B0
:1041300009F034CE3FEF47EE53E03150404050405D
:10414000E1F72ACE89818F716ACF61E0C8010E94B0
:10415000C00889839A8369807A802AE062162DE5F7
:10416000720609F455C93BE063163DE5730609F490
:10417000ECC949E064164DE5740609F051C9D8014F
:1041800012968C91882309F44BC982E491E046C9C8
:1041900069807A8026E162162CE5720609F0CFCCA0
:1041A00080918902811131CC89E20E9446097CCB41
:1041B0001F93CF93DF938091CD02807FA9F48091EC
:1041C000CA02882389F080919702C091960270916B
:1041D000C8026091C902A091CB02B091CC02D62F47
:1041E000D72316E0C81304C0DF91CF911F91089523
:1041F00090E0109711F0DF3F19F401968770F2CF2D
:10420000189F9001199F300D1124F901E856FD4FB8
:1042100041816413F2CF40814713EFCF42814111B6
:10422000ECCF438154814A1B5B0B483C510528F776
:104230008091CD028F7080618093CD02F901E356A9
:10424000FD4F80818F708061808388EC92E00E94B6
:10425000CD19DF91CF911F910C941D08AF92BF92A1
:10426000CF92DF92EF92FF920F931F93CF93DF9342
:10427000CDB7DEB72B970FB6F894DEBF0FBECDBF1C
:104280008C0185E0F801DE01179601900D928A9568
:10429000E1F7F80180819181E28028ECA22E22E0F2
:1042A000B22E6091CB027091CC026115710549F07C
:1042B0003091C8024091C902232F24232F3F09F0D7
:1042C00026C1EE2009F433C18F8398878F819885AA
:1042D0000E940009F82E882309F429C186E0F8011C
:1042E000A8ECB2E001900D928A95E1F78091C802A6
:1042F0009091C9020E94F4080E94D8201DC020910C
:10430000CD02522F507F683C710508F0A5C05111B5
:10431000C3C0FE2C491322C0381320C0E1101EC0B8
:104320002F7020612093CD0288EC92E00E94CD197D
:104330008091CD02F80185838F2D2B960FB6F894CE
:10434000DEBF0FBECDBFDF91CF911F910F91FF90C8
:10435000EF90DF90CF90BF90AF900895CD2829F0D7
:10436000282F29232F3F09F094C020E0F22FF1706D
:10437000DF2EE09197024091960256E020FD1CC08E
:10438000EE20D1F28091CD0281608093CD02F12C9C
:10439000D3CF2E2F30E05E9FF0011124E856FD4F61
:1043A0006181691306C06081681303C062816E1168
:1043B000E7CFF9013196E770E413EBCF8F8398874D
:1043C0008F8198850E94F408292F22952F709032B2
:1043D00060F0225F2F70223078F49F7051F0F80166
:1043E0009581907F31F4D12C0AC09F7011F0882301
:1043F000D1F3805E8830B8F3C8010E94CD19FD2C3E
:104400009BCF8F8398878F8198850E94000988238E
:1044100009F48DC0EE2009F48AC08091CD0280326B
:1044200070F02091C8023091C9023A8329831B821F
:10443000DD82CC828E83CE0101960E94CD1986E06A
:10444000F801A8ECB2E001900D928A95E1F70E9484
:10445000D820FF24F39470CF511132C088EC92E041
:104460000E94CD1986E0F50111928A95E9F78FCF68
:104470008F8398878F8198850E9400098111DFCFF3
:104480008091CD0281608093CD02C8010E94CD1938
:1044900053CF21E02E256ACF4913B3CF3813B1CFC4
:1044A000E110AFCFF8012583C8010E94CD1986E045
:1044B000F801A8ECB2E001900D928A95E1F73CCFAB
:1044C00049139FCF38139DCFE1109BCFF80125836F
:1044D000C8010E94CD1986E0F50111928A95E9F78D
:1044E0002BCF4913C5CF3813C3CF8091CD0280FDA8
:1044F000DECF982F907FD9F2F8018583903FA1F20B
:10450000982F907F905F8F70892B8583CDCFC3804C
:10451000D480F090CA02F601E61BF70BBF01F11040
:10452000EECE683C7105B8F6FE2CE110DACFC8017A
:104530000E94CD198ECF1F93CF93DF93CDB7DEB7F7
:1045400067970FB6F894DEBF0FBECDBF4B8B5C8B69
:104550006D8B7E8B8F8B1A8A85E0FE017396DE0150
:104560001D9601900D928A95E1F786E0FE013D9639
:10457000DE01179601900D928A95E1F7CE0107961C
:104580000E942E21882389F016E080919702909155
:104590009602891349C067960FB6F894DEBF0FBE26
:1045A000CDBFDF91CF911F91089586E0FE01379630
:1045B000DE01119601900D928A95E1F78A859B851F
:1045C000892B11F388859F8189238F3FE9F2209100
:1045D000960230E0C90101968770992740919702B1
:1045E0004817190671F40E948916109296021092CB
:1045F000970286E0E8ECF2E0DF011D928A95E9F788
:10460000C3CF96E0929FD001939FB00D1124A8567E
:10461000BD4FFE01319601900D929A95E1F780937E
:1046200096020E941D08B0CF819FC00111248856B8
:104630009D4F0E942E21882309F4ADCF80919702CF
:1046400090E0019687709927809397029ECF90E023
:1046500080E00E9496299C0181E02C3E3E4F09F0AB
:1046600080E008950E942723811102C00E945819FA
:1046700086E090E00E9488298093DA02803220F060
:10468000877088618093DA029091DA02892F8170B5
:1046900090FF04C0892F8695869586950C947C079B
:1046A0001F921FB61F9211248F939F93AF93BF93B6
:1046B00080913902811113C08091350290913602A8
:1046C000A0913702B09138024196A11DB11D80938F
:1046D000350290933602A0933702B0933802BF910F
:1046E000AF919F918F911F901FBE1F901895789446
:1046F0001F921FB61F9211248F939F93AF93BF9366
:104700008091350290913602A0913702B091380223
:104710000196A11DB11D8093350290933602A0939E
:104720003702B0933802BF91AF919F918F911F9044
:104730001FBE1F901895CDB7DEB72F970FB6F89410
:10474000DEBF0FBECDBF84B7877F84BF0FB6F8949E
:10475000A89580916000886180936000109260004D
:104760000FBE80E890E00FB6F894809361009093BC
:1047700061000FBE85B7806885BF85B7806885BF3B
:104780000E94C90C0E94420D8091E20084608093D7
:10479000E2007894809129028823A1F01091E90029
:1047A0001F709091EC00892F817090FD80E8182B8C
:1047B0001092E9008091E80083FD0E9494161F701A
:1047C0001093E90082E084BD93E095BD9AEF97BD18
:1047D00080936E0020E531E04CE551E061E070E04F
:1047E000D9018D919D01E82FE295EF70A1E2AE0F06
:1047F000B0E0FC918F708B0101C0000F8A95EAF741
:10480000902F90959F239C93EE5DF0E08081802B0C
:1048100080834217530721F72CE531E045E651E04C
:1048200061E070E0F90181919F01E82FE295EF705E
:10483000A1E2AE0FB0E0FC918F708B0101C0000FC0
:104840008A95EAF7902F90959F239C93EE5DF0E078
:104850008081802B80834217530721F788E1E7EDA1
:10486000F1E0DF01282F1D922A95E9F7E2EFF1E050
:10487000DF011D928A95E9F70E94DB13EFE3FCE963
:104880003197F1F700C000000E94DB138091F20124
:1048900080FF08C06FEF7FEF90E080E00E94BA29B0
:1048A0000E9409130E942723811102C00E945819F7
:1048B000279A2F988AE08093800089E18093810075
:1048C0008FEF9FEF90938700809386000E943223A2
:1048D0008CE090E00E94882990E0B0E0A0E0809316
:1048E000D5029093D602A093D702B093D802559ADE
:1048F0006E9A0E942723811102C00E94581982E0FB
:1049000090E00E94882980930F020E9415159093D1
:10491000AC038093AB0383E090E00E948829282FAA
:1049200030E050E040E02C873D874E875F87CA012A
:10493000B9010E94820B0E9432238091EF01811104
:1049400033C00E942723811104C00E9458190E947D
:10495000B70D88E090E00E9490296093A6037093C1
:10496000A7038093A8039093A9036E7F71F40E941C
:10497000B70D88E090E00E9490296093A6037093A1
:10498000A7038093A8039093A9030E946007109245
:104990009F038091A60380FF04C060E086950E947B
:1049A0005D0F81E08093EF0184E091E09093D3026A
:1049B0008093D202AE014F5F5F4F7A017DEFC72E29
:1049C00071E0D72E80912902853009F47AC10E94C6
:1049D000DB13A2EFB1E0E0E1F2E010E000E0902EA6
:1049E0008D919D91419151914817590709F4CEC17C
:1049F0004827592720E0AA24A394B12CBA016A21A0
:104A00007B21672B09F4BCC129839A829C012A214E
:104A10003B2191E0232B09F490E09B830E94B00995
:104A20008160782F9D838C8349815A816B818D8130
:104A30000E949B22000F111FF801E05FFD4F808153
:104A40009181A826B926B182A08280919F038823F4
:104A500009F441C080919E03E091A603E695E81B0E
:104A6000E093A203823009F0A8C1F0E0E55FFD4FBA
:104A7000E4910E2F10E0F3E8AF2EFEE0BF2E809100
:104A8000A303882389F01092A3030E94B009980120
:104A900020953095280F391F3093A1032093A00350
:104AA0001092A5031092A4038091A0039091A103FA
:104AB0000E94BC098017910770F0E091A003F0916B
:104AC000A1030E0F1F1F1093A1030093A00380EA00
:104AD00093E0F501099586E0E2E8F2E0D701019064
:104AE0000D928A95E1F78091840290918502892B3D
:104AF0001E2D0F2D09F468C080910C0290910D02BB
:104B00000E94BC099C0180918102882309F4EBC1B9
:104B10002333310508F458C08F3F19F08F5F80931D
:104B200081021092860210928702809184021816E8
:104B300024F40E94CB09809384028091840287FF31
:104B400005C00E94CB0981958093840280918502E3
:104B5000181624F40E94CB09809385028091850267
:104B600087FF05C00E94CB09819580938502309113
:104B700084023323B1F020918502222391F045EB8A
:104B80003403C0011124992309F482C19093840253
:104B900055EB250390011124332309F47DC1309393
:104BA00085020E94F40A809133029091340290931E
:104BB0000D0280930C0286E0E12FF02FA2E8B2E014
:104BC00001900D928A95E1F780918602909187027B
:104BD000892B09F468C080910A0290910B020E940F
:104BE000BC099C0180918102882309F477C1253694
:104BF000310508F458C08F3F19F08F5F8093810210
:104C0000109284021092850280918602181624F474
:104C10000E94EB09809386028091860287FF05C07F
:104C20000E94EB0981958093860280918702181675
:104C300024F40E94EB09809387028091870287FF0A
:104C400005C00E94EB09819580938702309186020E
:104C50003323B1F020918702222391F045EB3403F6
:104C6000C0011124992309F41BC19093860255EBCE
:104C7000250390011124332309F416C130938702D0
:104C80000E94F40A809133029091340290930B02B7
:104C900080930A0286E0E12FF02FA2E8B2E00190B3
:104CA0000D928A95E1F70E94E50790910E0289170F
:104CB00009F488CE0E94E50780930E020E94BF048B
:104CC00081CE80912902843009F447C010923902C4
:104CD00088E190E020E40FB6F894A89580936000F6
:104CE0000FBE2093600080E00E947C0780E00E945D
:104CF000BF0410929F038091F101811117C081E0E0
:104D00008093F1018091A603982F91709093F00108
:104D10008E7F8093A6035FEF80E792E05150804042
:104D20009040E1F700C000000E94230E83B7817F0E
:104D3000846083BF83B7816083BF7894889583B78D
:104D40008E7F83BF0FB6F894A8958091600088612C
:104D500080936000109260000FBE8091280288232B
:104D600009F430CE0E94DB13E2EFF1E081919191E2
:104D7000892B09F09DC0A2E0EA30FA07B9F722CEEC
:104D80002F5FAA0CBB1C293009F038CE0F5F1F4FD4
:104D90000C30110509F023CE8FEF8F838887198699
:104DA0000E94B0098160782F9B878A874F81588540
:104DB00069858B850E949B2248CE863059F4F0E0AD
:104DC000E85FFD4FE4910E2F10E0E7E9AE2EEEE034
:104DD000BE2E55CE893061F4E695F0E0EB5FFD4FD5
:104DE000E4910E2F10E077E5A72E70E1B72E47CEA5
:104DF0008F3061F4E695F0E0EE5FFD4FE4910E2F09
:104E000010E061E8A62E60E1B62E39CE853159F466
:104E1000F0E0E150FE4FE4910E2F10E05AEEA52E87
:104E200050E1B52E2CCE08EE13E028E3A22E21E1AE
:104E3000B22E883109F423CE833241F4F601059174
:104E4000149147E1A42E40E1B42E19CE04EF11E0F5
:104E50009BE6A92E91E1B92E843209F410CE853259
:104E600081F48E2F63E00E94BB28E92FF0E0E6502A
:104E7000FE4FE4910E2F10E03CE8A32E34E1B32E58
:104E8000FECD00ED17E086E7A82E87E0B82EF7CD1F
:104E900081E0809384027CCE81E08093850281CE84
:104EA00081E080938602E3CE81E080938702E8CEA2
:104EB00080E189BD82E189BD09B400FEFDCF80910A
:104EC000D8008F7D8093D8008091E000826080932D
:104ED000E0008091E00081FDFCCF74CD2D323140A7
:104EE00008F08BCEE0CE2D32314008F017CE6CCEDC
:104EF0001F920F920FB60F9211242F933F934F934F
:104F00005F936F937F938F939F93AF93BF93EF9331
:104F1000FF938091E10082FF09C08091E20082FF4F
:104F200005C08091E1008B7F8093E1008091DA00E1
:104F300080FF24C08091D80080FF20C08091DA00DB
:104F40008E7F8093DA008091D90080FFB2C080E12B
:104F500089BD82E189BD09B400FEFDCF81E0809367
:104F600029028091CE01811109C00E94C90C0E94C2
:104F7000420D8091E20084608093E2008091E10024
:104F800080FF17C08091E20080FF13C08091E20093
:104F90008E7F8093E2008091E20080618093E20046
:104FA0008091D80080628093D80019BC85E08093FE
:104FB00029028091E10084FF40C08091E20084FFDB
:104FC0003CC080E189BD82E189BD09B400FEFDCF0E
:104FD0008091D8008F7D8093D8008091E1008F7EF2
:104FE0008093E1008091E2008F7E8093E2008091C7
:104FF000E20081608093E2008091CD01882309F472
:105000005EC084E0809329020E9489160E943223A8
:105010000E94E5070E94BF041092F1018091F00107
:10502000882349F08091A60381608093A60360E005
:1050300086950E945D0F0E940D0E8091E10083FF16
:1050400027C08091E20083FF23C08091E100877F29
:105050008093E10082E0809329021092CD0180913B
:10506000E1008E7F8093E1008091E2008E7F80934B
:10507000E2008091E20080618093E20042E060E023
:1050800080E00E94120D8091F00088608093F00013
:10509000FF91EF91BF91AF919F918F917F916F9110
:1050A0005F914F913F912F910F900FBE0F901F90E6
:1050B000189519BC109229021092CE015FCF8091F1
:1050C000E30087FD02C081E09DCF83E09BCF1F926C
:1050D0000F920FB60F9211242F933F934F935F932C
:1050E0006F937F938F939F93AF93BF93CF93DF93F0
:1050F000EF93FF93D091E900DF708091EC00C82F0F
:10510000C17080FDC0E81092E9008091F000877FB7
:105110008093F00078940E9494161092E900809198
:10512000F00088608093F000CD2BCF70C093E90031
:10513000FF91EF91DF91CF91BF91AF919F918F91AF
:105140007F916F915F914F913F912F910F900FBE83
:105150000F901F901895DB018F939F930E94EF296A
:10516000BF91AF91A29F800D911DA39F900DB29F03
:10517000900D11240895991B79E004C0991F96178A
:1051800008F0961B881F7A95C9F78095089587FBCC
:10519000082E062687FD819567FD61950E94BB2834
:1051A0000EF4919507FC81950895AA1BBB1B51E154
:1051B00007C0AA1FBB1FA617B70710F0A61BB70B87
:1051C000881F991F5A95A9F780959095BC01CD012C
:1051D000089597FB072E16F4009407D077FD09D0A9
:1051E0000E94D52807FC05D03EF4909581959F4FED
:1051F0000895709561957F4F0895EE0FFF1F0590FC
:10520000F491E02D0994CF92DF92EF92FF92CF9329
:10521000DF93CDB7DEB72A970FB6F894DEBF0FBE87
:10522000CDBF89879A87A985BA852D913D914D91EA
:105230005C9129833A834B835C83232B242B252B7E
:1052400041F424E239ED4BE557E029833A834B835F
:105250005C8369817A818B819C812DE133EF41E010
:1052600050E00E94D02969017A01A7EAB1E49B01CC
:10527000AC010E94EF2969837A838B839C83ACEE17
:10528000B4EFA70196010E94FD299B01AC01898121
:105290009A81AB81BC81820F931FA41FB51FB7FFFA
:1052A00003C00197A109B048E985FA8580839183FD
:1052B000A283B3839F772A960FB6F894DEBF0FBE02
:1052C000CDBFDF91CF91FF90EF90DF90CF90089509
:1052D0000E940329089580E091E00E940329089527
:1052E000B0E0A0E08093000190930101A09302013F
:1052F000B09303010895FC014150504030F00190FB
:105300000616D1F73197CF01089588279927089578
:10531000F999FECF92BD81BDF89A992780B508957D
:10532000A6E1B0E044E050E00C94C229A8E1B0E06E
:1053300042E050E00C94C229262FF999FECF92BD8D
:1053400081BDF89A019700B4021639F01FBA20BD4A
:105350000FB6F894FA9AF99A0FBE08950396272F7C
:105360000E949D290E949C29252F0E949D29242F5F
:105370000C949D290196272F0E949D290C949C290D
:10538000DC01CB01FC01F999FECF06C0F2BDE1BD05
:10539000F89A319600B40D9241505040B8F70895F4
:1053A000052E97FB1EF400940E94E72957FD07D0B5
:1053B0000E94022A07FC03D04EF40C94E729509572
:1053C0004095309521953F4F4F4F5F4F08959095F1
:1053D0008095709561957F4F8F4F9F4F08950E94E4
:1053E000242AA59F900DB49F900DA49F800D911D20
:1053F00011240895B7FF0C94EF290E94EF29821B16
:10540000930B0895A1E21A2EAA1BBB1BFD010DC030
:10541000AA1FBB1FEE1FFF1FA217B307E407F50764
:1054200020F0A21BB30BE40BF50B661F771F881F40
:10543000991F1A9469F760957095809590959B01D6
:10544000AC01BD01CF010895A29FB001B39FC0017F
:10545000A39F700D811D1124911DB29F700D811DA0
:105460001124911D0895F894FFCF75179D174019C9
:105470009D174019D017F1174019FB180819781C0F
:105480007E1C821C901C941C981C9C1CA21CAA1C98
:10549000AE1CB21CB61CC21CC61CCA1CCE1CD41C22
:1054A000F21CDC1C861C8C1CBA1CBE1CA61CD81C46
:1054B000E81CFB1C011D161D421D491D4E1D531DE0
:1054C000581D5D1D621D671D6C1D711D761D781DAB
:1054D0007D1D801D831D861D891D8B1D8E1DF91D43
:1054E000F91D741E741ED21EEE1E321E321EF91ECF
:0654F00001201220122031
:1054F60001000000140C2D136313C313C71301011D
:105506000201191A1B1C1D1E1F2021224875456801
:1055160055654875450028E295AFC2B0E79B8AC23B
:10552600B029E295AFE5BDA1E294BBE29481E29495
:10553600BB00C2AF5C5F28E38384295F2FC2AF0044
:10554600303132339091353697349694F0F1F4F544
:10555600F6F76766920001020202020606060909CC
:10556600090909090F0F0F0F0F0F1515151819192E
:105576001919191919191919232425252525252538
:10558600E200E900EA00B500B600B700CD008301ED
:10559600CC008A01920194012102230224022502F1
:0E55A600260227022A02B300B4006F00700034
:00000001FF
