:100000000C9478040C94BF040C94BF040C94BF04AB
:100010000C94BF040C94BF040C94BF040C94BF0454
:100020000C94BF040C94BF040C94F9270C94CF28B3
:100030000C94E8230C94BF040C94BF040C94BF04EC
:100040000C94BF040C94BF040C94BF040C94BF0424
:100050000C94BF040C940F240C94BF040C94BF04A4
:100060000C94BF040C94BF040C94BF040C94BF0404
:100070000C94BF040C94BF040C94BF040C94BF04F4
:100080000C94BF040C94BF040C94BF040C94BF04E4
:100090000C94BF040C94BF040C94BF040C94BF04D4
:1000A0000C94BF040C94BF040C94BF040501090216
:1000B000A10185020901A1000509190129081500FE
:1000C0002501950875018102050109300931158165
:1000D000257F95027508810609381581257F9501D0
:1000E00075088106050C0A38021581257F95017572
:1000F000088106C0C005010980A101850319012AF4
:10010000B700150126B700950175108100C0050CD8
:100110000901A101850419012AA002150126A002E6
:10012000950175108100C005010906A10105071997
:10013000E029E715002501950875018102950175F3
:100140000881010507190029FF150026FF00950603
:1001500075088100050819012905950575019102A9
:10016000950175039101C009023B00020100A0FA4C
:10017000090400000103010100092111010001220D
:1001800040000705810308000A090401000103007B
:100190000000092111010001227B000705820320D4
:1001A000000A1201100100000008D804E9EC010067
:1001B000010200010A0368003800370061000000F6
:1001C0002803680069006E00650079006200750010
:1001D0007300680020006B006500790062006F000A
:1001E00061007200640073000000040309041E0F24
:1001F0000500047F3F1F643214643214783C1E1ED5
:10020000140A052223252628292A2C2D2F303233A3
:100210003536383A3B3D3E4042434547494A4C4ECD
:100220005051535557595A5C5E6062646668696BF9
:100230006D6F71737577797B7D7F81838587898AFF
:100240008C8E90929496989A9C9E9FA1A3A5A7A805
:10025000AAACAEAFB1B3B4B6B8B9BBBCBEBFC1C235
:10026000C3C5C6C7C9CACBCCCDCED0D1D2D2D3D4C8
:10027000D5D6D7D7D8D9D9DADADBDBDBDCDCDCDCE6
:10028000DCDDDDDDDDDCDCDCDCDCDBDBDBDADAD9B4
:10029000D9D8D7D7D6D5D4D3D2D2D1D0CECDCCCB36
:1002A000CAC9C7C6C5C3C2C1BFBEBCBBB9B8B6B454
:1002B000B3B1AFAEACAAA8A7A5A3A19F9E9C9A98E4
:1002C000969492908E8C8A89878583817F7D7B79B5
:1002D000777573716F6D6B6968666462605E5C5A96
:1002E0005957555351504E4C4A4947454342403E59
:1002F0003D3B3A3836353332302F2D2C2A292826EB
:10030000252322FFAA7F55400001010101010101BF
:1003100001010202020202020202020303030303BA
:100320000303030404040404040405050505050689
:100330000606060607070707070808080809090947
:10034000090A0A0A0B0B0B0C0C0C0D0D0D0E0E0EF0
:100350000F0F0F1010111111121213131414151581
:1003600016161717181819191A1A1B1B1C1D1D1EF3
:100370001E1F202021222223242425262627282947
:10038000292A2B2C2D2D2E2F303132323334353675
:100390003738393A3B3C3D3E3F4041424344454675
:1003A0004748494A4C4D4E4F505153545556585951
:1003B0005A5B5D5E5F616264656668696B6C6D6FF8
:1003C0007072737577787A7B7D7E8082838587886B
:1003D0008A8C8E8F91939596989A9C9EA0A2A3A5A5
:1003E000A7A9ABADAFB1B3B5B7BABCBEC0C2C4C6A6
:1003F000C9CBCDCFD1D4D6D8DBDDDFE2E4E7E9EB62
:10040000EEF0F3F5F8FAFDFF000000000000000038
:1004100000000000000000000000000000000000DC
:100420000000000000000000000000007E0F00D46B
:10043000FFFFFFC700000078000000000000000080
:100440002A2B28000000000000000000000000002F
:1004500000000029000000002C1E3420212224343A
:100460002627252E362D3738271E1F20212223240C
:1004700025263333362E37381F0405060708090AA8
:100480000B0C0D0E0F101112131415161718191A44
:100490001B1C1D2F3130232D350405060708090AC2
:1004A0000B0C0D0E0F101112131415161718191A24
:1004B0001B1C1D2F3130354C29003A003C003E00FA
:1004C0004000000043004500AE0000003B003D003E
:1004D0003F00410042004400AC00AB0035001F006B
:1004E00021002300250027002E0029004A001E00BD
:1004F00020002200240026002D00310049004B007E
:100500002B001A0015001C000C0013003000000026
:100510004D00140008001700180012002F002A00D8
:100520004C004E002961160009000B000E0033003C
:10053000320000000000040007000A000D000F0058
:100540003400280000000000E1001D000600050046
:1005500010003700E5000000520000001B001900E9
:10056000110036003800000000000000E200E30047
:100570000000000000000000E60000005100E20062
:10058000000000002C4200000351045150004F00B5
:1005900029003A003C003E004000000043004500B6
:1005A000AE0000003B003D003F004100420044001F
:1005B000AC00AB0035001F00210023002500270000
:1005C0002E0029004A001E002000220024002600E0
:1005D0002D00310049004B002B001A0015001C00B3
:1005E0000C001300300000004D001400080017003C
:1005F000180012002F002A004C004E00E0001600E8
:1006000009000B000E00330032000000000004005F
:1006100007000A000D000F00340028000000000051
:10062000E1001D000600050010003700E500000095
:10063000520000001B0019001100360038000000B5
:1006400000000000E200E3000000000000000100E4
:100650000100000051000100000000002C0000001B
:100660000351045150004F0001000100010001003E
:100670000100000001000100010000000100010074
:100680000100010001000100010001000100010062
:10069000010001000100A800A90001000100010003
:1006A0000100010001000100AA0001000100010099
:1006B000010052000100010001004600010000009D
:1006C00001000100010001000100010001004C00D7
:1006D00001000100E0005100010050005200010043
:1006E00001000000000050004F00010051004F00C9
:1006F00001000100000000000100010001000100F4
:100700000100AB00010000005200010001000100E7
:100710000100AC00AE00010000000000010001007B
:100720000000000000000100010000005100010075
:1007300000000000010000000100010050004F0017
:1007400001000100010001000100000001000100A2
:100750000100000001000100010001000100010092
:10076000010001001114010001000C14010001003E
:100770000100010001000100010001000100010071
:100780002D0801000100010001000100010001002D
:1007900001000100010000000100010034142A5D85
:1007A000010012140100010001000100010001001C
:1007B00001002B5D01000100010000000000041495
:1007C0000100010001000100081401000000000008
:1007D0000100010006140100295D01000100000074
:1007E0000100010001000100010001000100010001
:1007F00000000000010001000000000000000100F6
:1008000001000000010001000000000001000000E4
:100810000100010001000100005C00000000000078
:1008200000000000000000000000000000000000C8
:1008300000000000000000000000000000000000B8
:100840000000000000000000000001530000000054
:100850000000000000000000000000000000000098
:10086000C35CC85C00000000000000000000000045
:100870000000C65CCA5C0000000000000000000030
:1008800000000000C45CC95C000000000000000023
:10089000000000000000C75CCB5C0000000000000E
:1008A0000000000000000000000000000000000048
:1008B0000000000000000000ED000000000000004B
:1008C0000000000000000000000000000000000028
:1008D000000000000000000000000000EE0000002A
:1008E000000000000000000000000100EF00F00028
:1008F00011241FBECFEFDAE0DEBFCDBF04B603FE8A
:1009000027C08091B1039091B203A091B303B0913D
:10091000B4038730904BA740B04BD1F41092B10391
:100920001092B2031092B3031092B40314BE84B7B2
:10093000877F84BF0FB6F894A89580916000886186
:1009400080936000109260000FBEE0E0F8E309952C
:1009500023E0A0ECB1E001C01D92A13BB207E1F79A
:1009600011E0A0E0B1E0E2E1F6E502C005900D92F1
:10097000A03CB107D9F70E9433240C94AF2A0C9401
:10098000000082FB992790F981FD05C05D9A9111C5
:1009900004C0769A08955D98FACF7698089590915C
:1009A000AF0392FF06C0282F28712830F9F4877F03
:1009B000846093FF06C0282F28712831F1F4877EC8
:1009C00084612091B00320FF06C0382F3871383081
:1009D000D9F4877F816021FF06C0282F2871283134
:1009E000D1F4877E816194FD877E0895282F24713C
:1009F0002430F9F68B7F8860DCCF282F24712431D6
:100A000001F78B7E8861DDCF382F3171313019F7D6
:100A10008E7F8860E0CF282F2171213121F78E7ED3
:100A20008861E1CFCF93DF93972F70E029E0929F09
:100A3000600D711D1124FB013CE6839FE00DF11D4B
:100A40001124EE0FFF1FE854FB4FC591D491CE0146
:100A5000C03ED10509F46EC008F042C0C133D105D3
:100A600009F4A9C0E8F4C932D10509F49DC0CA321D
:100A7000D10509F4A7C0C11521E5D20708F0D2C0FD
:100A8000C11530E5D30708F039C1CF3FD10511F0CA
:100A900008F0ADC0CD3ED10570F0CE0190655DC0CF
:100AA000C933D10509F43FC0C238D105E1F1C533DE
:100AB000D10509F472C0CF3BD10508F08AC0C83A0D
:100AC000D10508F009C1C53AD10508F001C1C1300E
:100AD000D10509F442C02497C13AD105B8F53DC00B
:100AE000C43ED10509F447C058F4C23ED10589F18E
:100AF000C33ED105A9F1C05ED109289738F52DC0B4
:100B0000C63ED10509F442C0C73ED10509F0B3CFB6
:100B10002091AF0323FD43C13091B00331FF28C0C2
:100B200084EE90E01AC02091AF032370B1F080EE04
:100B300090E013C02091AF0320FD2BC13091B00392
:100B400030FF0BC083EE90E024FF07C090E080E010
:100B500004C02091AF0322FDF5CFDF91CF9108951E
:100B60002091AF0322FD18C13091B00330FDDFCFDB
:100B700024FFF3CFEBCF2091B00321FFEECF809184
:100B8000AF0384FDE3CF87EE90E0E7CF2091AF0382
:100B900023FFE3CF24FDDACFF6CF2091AF0325FF6B
:100BA000DCCF89E290E0D9CF2091AF0325FFD5CFEC
:100BB00085E390E0D2CF2091AF0326FFCECF8AE22B
:100BC00090E0CBCF2091AF0326FFC7CF81E390E029
:100BD000C4CFC03ED10508F08ECFCF3BD10509F47C
:100BE000B5CFFE01EE0FFF1FE857FD4F14C0C11532
:100BF00020E4D20798F4C11530E3D30708F076C09B
:100C0000C11520E2D20708F4A8CFFE01FF70EE0F55
:100C1000FF1FE85FFB4F859194919FCFCE019F709E
:100C2000906A9BCFC11536E5D30760F5C11585E500
:100C3000D80708F097C0C11594E5D907F0F4C1159D
:100C400023E5D20708F07AC0C11532E5D30708F4CE
:100C500070C09E012370332781E090E002C0880FAE
:100C6000991F2A95E2F7C695C69520E2C29FE0013A
:100C700011248C2B9D2B9C6870CF9C2F8827846F10
:100C8000906A6BCFC1153AE5D30788F4C11589E5A1
:100C9000D80708F071C0CE0198558F3F910511F02B
:100CA00008F054CF9C2F8827806F906A56CFCE01D2
:100CB00090568115904208F049CF8D2F8F710E9478
:100CC000CF0490E0982F882788279F718C2B52C0E3
:100CD000CE018497906441CFC85AD0E0CC0FDD1F7D
:100CE000CF56DE4F88819981946437CFCE01992702
:100CF000D3FF02C0986C31CF906C2FCF9E0174E06F
:100D0000369527957A95E1F723708C2F86958695F1
:100D1000837030E2839FC0011124922BC37021E0C5
:100D200030E002C0220F331FCA95E2F7822B932BCB
:100D3000A2CF9C2F8827816F906A0FCF9E012370CE
:100D4000332781E090E002C0880F991F2A95E2F7CF
:100D5000C695C69520E2C29FE00111248C2B9D2BE5
:100D60009A68FBCE8C2F0E94CF0490E0982F8827A2
:100D700088279F719062F1CE8C2F8F700E94CF04D4
:100D800034E0D695C7953A95E1F7CF709C2F9069DE
:100D9000E4CE89E390E0E1CE82EE90E0DECE86EE16
:100DA00090E0DBCEF894E82FE295EF70F0E041A1FF
:100DB0008F7021E030E0B90102C0660F771F8A957D
:100DC000E2F7CB01962F9095942391A392A1892BC2
:100DD00082A37894089580917B0380FD14C081FDE7
:100DE00014C082FD16C080917A03882381F084317B
:100DF00080F422E3829FC001112464E170E00E942C
:100E00005629862F08958CE0089589E1089585E09C
:100E1000089582E3089580917B0380FD16C081FDD3
:100E200016C082FD16C0809179038823A1F0883214
:100E300080F428E0829FC001112468E270E00E94E3
:100E40005629862F672B39F0089582E0089584E0B3
:100E5000089588E0089581E00895E3E1E80FE33123
:100E6000E0F5F0E0EF54F54D0C946A290E94EB0692
:100E700081958093760308950E94EB06FACF0E9435
:100E8000EB0681958093750308950E94EB06FACFD7
:100E90000E940B078093770308950E940B078195AA
:100EA000F9CF0E940B0781958093780308950E94E3
:100EB0000B07FACF815F990B21E030E001C0220FD0
:100EC0008A95EAF780917403822B809374030895C6
:100ED00080917B03816080937B03089580917B03E5
:100EE0008260F9CF80917B038460F5CF40917503D8
:100EF0008D3E59F48091760387FF0DC010927603E2
:100F000041110BC010927A0308C08E3E81F480918B
:100F1000760318169CF3442381F080917703909117
:100F20007803892B09F05AC01092790308958F3EF7
:100F300049F447FFF0CF1092750380917603811139
:100F4000ECCFE0CF803F19F41416ACF3E4CF9091CE
:100F50007703893F29F41916F4F610927703DBCF53
:100F60008A3F19F497FFD7CFF8CF909178038B3F42
:100F700029F497FFD0CF10927803CDCF8C3F19F48E
:100F80001916CCF3C8CF9FE0980F983090F4815F8A
:100F9000990B21E030E0B90102C0660F771F8A95F6
:100FA000E2F7CB01809590917403892380937403B9
:100FB000B2CF8D3F31F480917B038E7F80937B0392
:100FC000AACF8E3F21F480917B038D7FF7CF8F3F97
:100FD00009F0A1CF80917B038B7FF0CF0895AF9272
:100FE000BF92CF92DF92EF92FF920F931F93CF9316
:100FF000DF93082F162FE901493C08F048ECE42F55
:10100000F0E0E85FFC4F111111C0E4913E2F2E2F4C
:101010002983E8833A83DF91CF911F910F91FF904D
:10102000EF90DF90CF90BF90AF900895E12EF12C1C
:10103000249146E0049F50011124CC24CA94D12C61
:10104000C501B6010E944229802F90E0880F991FA8
:1010500035E5369FA001379F500D1124841B950B59
:10106000F82FFF0FF80FA6014E195F09249FC0014A
:10107000259F900D1124E92F1F9FA0011124452FBA
:101080005527D601A41BB50B2A9FA0012B9F500DFD
:101090001124352F86010F1B11090E9DD0010F9DC4
:1010A000B00D1E9DB00D1124AB2FBB27CA1ADB0A51
:1010B0002C9DD0012D9DB00D112463307105D1F010
:1010C000FCEFAF16F3E0BF0670F461307105B1F0CC
:1010D00062307105B9F04FEFA416B10408F098CF53
:1010E000392FEB2F95CF6430710579F0663071059B
:1010F000B9F38ECFE52F322F292F8ACFE22F252F5C
:10110000392F86CF3B2FE22FF7CF322F2B2F80CFD7
:1011100080916803982F9E7F61F481708260809334
:10112000680380916B03893C18F088EC80936B0313
:1011300008958635B0F381708465F1CF0895FA0182
:1011400081110994FB01FDCFCF93DF93CDB7DEB7BB
:1011500028970FB6F894DEBF0FBECDBF843050F590
:10116000811129C090918000977F909380002F98E3
:10117000282F30E0AFEFBFEF0E94A02A23E030E03D
:1011800040E050E00E947E2AC9012C3764E1360716
:10119000C0F469E070E00E94422970938D00609372
:1011A0008C0028960FB6F894DEBF0FBECDBFDF913E
:1011B000CF91089583E09091800098609093800093
:1011C000D7CF2A50374D4F4F5F4FB42FA32F922FB9
:1011D0008827BC01CD0125EF38E241E050E00E94B4
:1011E0007E2A29833A834B835C83CA01B9010E941A
:1011F00018299B01AC0169817A818B819C810E94B5
:101200001829BB27A92F982F872FBC010097A14031
:10121000B10519F66FEF7FEFC0CFE0916D03F0914C
:101220006E03309721F00190F081E02D099480E069
:10123000089520919302309194022817390771F094
:101240009093940280939302E0916D03F0916E036A
:10125000309721F00680F781E02D099408952091C0
:101260009102309192022817390771F090939202FF
:1012700080939102E0916D03F0916E03309721F01D
:101280000084F185E02D0994089580915A0290918F
:101290005902981301C008958F5F8770FACFE82F25
:1012A00029E0929FE00D11248E2F877041E001C04C
:1012B000440F8A95EAF7E695E695E69585E0E89F7E
:1012C000F0011124EB5FFD4F30E020E070E0519120
:1012D000DF011197CB01022E02C0969587950A94E3
:1012E000E2F7817081958527842385278C932F5F72
:1012F0003F4F2530310559F70895E82F29E0929F97
:10130000E00D11249E2F9770E695E695E69585E011
:10131000E89FF0011124EB5FFD4F50E040E080E0DA
:10132000219130E0092E02C0369527950A94E2F704
:1013300021703327042E01C0220F0A94EAF7822B72
:101340004F5F5F4F4530510559F70895BF92CF92D7
:10135000DF92EF92FF920F931F93CF93DF938C0155
:10136000C0905202D0905302E0905402F090550287
:1013700080914E0290914F02A0915002B091510283
:10138000C82AD92AEA2AFB2ACFE1D0E0BC2ED7010D
:10139000C6010C2E04C0B695A795979587950A941B
:1013A000D2F780FD0EC0219788F7B12C8B2DDF91ED
:1013B000CF911F910F91FF90EF90DF90CF90BF9052
:1013C0000895B8018C2F0E941205019761F3EECFAA
:1013D000FF920F931F93CF93DF93FC0182810081D3
:1013E0001181C081F180882311F1662301F1C801C8
:1013F0000E94A609D82F682FC8010E944F09EC2F20
:10140000F0E089E0F89EE00DF11D11248CE6D89FF4
:10141000E00DF11D1124EE0FFF1FE854FB4F8591E5
:101420009491DF91CF911F910F91FF900895C80182
:101430000E947D09D82FE3CFCF93DF93D82FC92FF8
:101440000E94A6096D2F7C2FDF91CF910C9412057D
:101450000E941C0A282F892F8F70392F32953F70D8
:10146000903C80F43A30B0F4343020F4323090F4D0
:1014700080E008953630E1F781E0283E88F0213F92
:10148000B9F70EC03C3011F03F3091F78695869544
:101490008695089581E0203F39F018F4283E40F702
:1014A0000895243F29F7FCCF0895A4ECB1E0EFEFB5
:1014B00090E02D91821751F0EF3F19F4211101C0F6
:1014C000E92F9F5F9630A9F7EF3F09F408950E2E9C
:1014D000000CFF0BEE53FE4F82830895E4ECF1E025
:1014E0009191891303C0DF0111971C9291E0EA3CAE
:1014F000F907B1F7089580914D02811110924D02C4
:1015000008958091950290915802892B90915602EE
:10151000892B8093C20190914D02992391F0892BE0
:101520008093C20120E084EC91E0FC0130810196BF
:1015300031112F5F31E08A3C9307B9F721110E94E6
:101540007B0AE0916D03F0916E03309731F00280D9
:10155000F381E02D82EC91E009940895882339F01D
:1015600090919502892B809395020C94810A08959D
:10157000882341F08095909195028923809395026C
:101580000C94810A0895882339F090915802892B90
:10159000809358020C94810A0895882341F0809525
:1015A000909158028923809358020C94810A0895DF
:1015B00080E008952FB7F894809100029091010285
:1015C000A0910202B09103022FBF08950E94DA0A8F
:1015D0002091750330917603232B21F080937103C2
:1015E000909372032091770330917803232B21F09D
:1015F00080936F0390937003E0916D03F0916E03FD
:10160000309749F082E0809373030480F581E02DE8
:1016100083E793E009940895882309F459C0823838
:1016200071F40E940D0981FF53C089E30E94550A9D
:101630000E94810A89E30E946E0A0C94810A833811
:1016400059F40E940D0980FF43C083E50E94550AAA
:101650000E94810A83E5EFCF843859F40E940D0976
:1016600082FF36C087E40E94550A0E94810A87E4FF
:10167000E2CF9CEF980F913AF0F290E2980F9830F9
:1016800088F4877021E030E0A90102C0440F551FA3
:101690008A95E2F7CA0180959091950289238093FB
:1016A0009502CBCF9BE5980F933020F490E080E03B
:1016B0000C94190998E5980F973120F490E080E098
:1016C0000C942F098D3E20F00E9476070C94E60AB8
:1016D000089590E080E00E94190990E080E00E9467
:1016E0002F0910925802109256020E94810A86E039
:1016F000E3E7F3E0DF011D928A95E9F710927A03A0
:101700001092790310927B030C94E60A60934E02C8
:1017100070934F0280935002909351020C94690B86
:101720006093520270935302809354029093550237
:101730000C94690B0F931F93CF93DF9300D000D0CD
:10174000CDB7DEB741E050E060E070E004C0440F88
:10175000551F661F771F8A95D2F78091520290918C
:101760005302A0915402B09155028A019B01082BAB
:10177000192B2A2B3B2B09831A832B833C83C9010A
:10178000B8010F900F900F900F90DF91CF911F91A4
:101790000F910C94900B0F931F93CF93DF9300D076
:1017A00000D0CDB7DEB741E050E060E070E004C0AB
:1017B000440F551F661F771F8A95D2F740955095A5
:1017C000609570958091520290915302A0915402BD
:1017D000B09155028A019B01082319232A233B2338
:1017E00009831A832B833C83C901B8010F900F90A2
:1017F0000F900F90DF91CF911F910F910C94900B50
:10180000909157028095892380935702282F277043
:1018100071F4282F082E000C330B9217130639F0A1
:101820008595859585950E94CB0B1092570208955A
:101830009C014FB7F8948091000290910102A09111
:101840000202B09103024FBF821B930B0895809157
:10185000FF010895FC01CB012091D6013091D70101
:101860002617370790F0009729F42091E8002E778B
:101870002093E80040E0009751F4411108C08091A6
:10188000E80082FF31C080E00895C901F3CF2091C4
:10189000F6012223A9F12530A9F12091E80023FDCA
:1018A0002DC02091E80022FDEACF2091E80020FF22
:1018B000E2CF3091F3002091F200009719F0283028
:1018C000310558F041E02830310509F040E0209121
:1018D000E8002E772093E800CECF41914093F100AD
:1018E00001972F5F3F4FE9CF8091F601882341F0A8
:1018F000853041F08091E80083FFC1CF81E00895F9
:1019000082E0089583E008958091D00187FF13C09D
:101910008091E80082FF06C08091E8008B77809379
:10192000E80004C08091F6018111F2CF0895809102
:10193000F6018823D9F38091E80080FFF8CF8091E9
:10194000E8008E77ECCF2091E4003091E50095E639
:10195000A9012091EC00822F817020FF06C08091A8
:10196000E80080FF06C080E008952091E80022FD95
:101970001AC08091F601882389F0853089F0809122
:10198000EB0085FD0FC02091E4003091E500421787
:101990005307F9F29150E1F684E0089582E008954A
:1019A00083E0089581E00895E8EDF0E080818E7F86
:1019B00080831092E2001092DA001092E100A0EE13
:1019C000B0E08C9181608C9380818F77808319BC8B
:1019D000A7EDB0E08C918E7F8C9380818F7E808389
:1019E0001092CF010895EF92FF920F931F93CF9320
:1019F0007C018B010E94A30CC82F811117C080911C
:101A0000E80085FD0BC08091E8008E778093E800A8
:101A10000E94A30C882399F3C82F08C0F701819175
:101A20007F018093F1000150110949F78C2FCF916C
:101A30001F910F91FF90EF900895982F9093E900D8
:101A4000242F762F50E0891731F07091EC0020910F
:101A5000ED005091F00021FD06C09F5F973071F7B7
:101A60008093E90008953091EB003E7F3093EB00C6
:101A70003091ED003D7F3093ED003091EB0031600F
:101A80003093EB007093EC002093ED005093F00046
:101A90002091EE0027FDE1CF0895CF92DF92EF92E3
:101AA000FF920F931F93CF93DF93C8EDD0E088810F
:101AB0008F7E8883E7EDF0E080818160808384E021
:101AC00082BF81E08093CF0188818E7F888302EE80
:101AD00010E0F80110821092DA0081EEC82ED12CAD
:101AE000F601108288818F77888388818068888357
:101AF00088818F7D888319BC1092F6011092CE01E7
:101B00001092F5011092CD0190EEE92EF12CF70123
:101B100080818B7F808388818160888342E060E060
:101B200080E00E941D0DF60180818E7F8083F80188
:101B3000808181608083808188608083F7018081DB
:101B40008E7F8083888180618883DF91CF911F9110
:101B50000F91FF90EF90DF90CF900895AF92BF92DA
:101B6000CF92DF92EF92FF920F931F93CF93DF9369
:101B7000CCE7D1E007E913E0C12CD12CEE24E394AB
:101B8000F12C8991F894E82FE295EF70F0E021A113
:101B90008F70A70102C0440F551F8A95E2F7CA0152
:101BA000922F982B91A392A18095892382A3789458
:101BB00000C0E8E8F1E030E020E0B12CA12C419138
:101BC000A42FA295AF70A05EB0E08C9190E04F7012
:101BD00002C0959587954A95E2F780FD48C0C701F8
:101BE000022E02C0880F991F0A94E2F7A82AB92A88
:101BF0002F5F3F4F2930310511F7FE01319780816A
:101C00000E94D2065BE0C51619F080EA8A95F1F7CA
:101C1000F801819191918F01A816B90659F1329777
:101C2000B182A08281E0D82AC394FCE0CF12A9CF70
:101C3000DD2011F181E080937E030E94DA0A909307
:101C40007D0380937C0380917C0390917D030E94AF
:101C5000180C0697A8F088E1E7E9F3E0AFE7B3E0F6
:101C600001900D928A95E1F710927E0309C080E001
:101C700090E0BCCF80E0D7CF80917E038111E3CF8D
:101C80008D2DDF91CF911F910F91FF90EF90DF90FD
:101C9000CF90BF90AF9008958091680380FD0AC0F7
:101CA000E8E1F3E0118210821282339653E0E036CD
:101CB000F507C1F7539A3BB1377F2BB128604FB777
:101CC000F89488E193E0FC010196508168E02BB91B
:101CD000000000C057FF3BB9550F000000C000C016
:101CE00000C03BB900C06A9591F753E08036950774
:101CF00051F74FBF8FE594E00197F1F700C0000066
:101D000008959091680390FF0CC0E8E1F3E08183AF
:101D100060834283339693E0E036F907C1F70C9471
:101D20004C0E0895CF93DF9300D00F92CDB7DEB75E
:101D30009091680390FF0FC09E012F5F3F4F0E945C
:101D4000EF074B8169818A810F900F900F90DF918F
:101D5000CF910C94810E0F900F900F90DF91CF9147
:101D60000895CF93DF93EC01EC81F0E0ED5FFD4F40
:101D70004491E8E6F3E0628181810E94920E8C81B9
:101D80008F5F8C83DF91CF910895CF93DF93EC0128
:101D9000E8E6F3E0438162818C810E94920E8C819F
:101DA0008F5F8C83DF91CF9108950F931F93CF9313
:101DB000DF9300D00F92CDB7DEB78C018091150371
:101DC00081110AC09E012F5F3F4F48EC6FEF0E94C8
:101DD000EF078A8180931503F8016481613049F02F
:101DE0006230F1F08091150340E0662331F040E06D
:101DF00019C06091150340E080E00E94810EF80157
:101E0000848190E0019663E070E00E94562984830B
:101E10000F900F900F90DF91CF911F910F91089528
:101E20004091150380E060E0E8CFEF92FF921F93AE
:101E3000CF93DF93EC0188E1E82E83E0F82E10E0E9
:101E40008C81970140916B0360916A03810F0E941E
:101E5000EF07165F83E0E80EF11C103F89F70E9440
:101E60004C0E9A818C8190FF08C08F5F8C83DF912C
:101E7000CF911F91FF90EF9008958150F7CFCF92AF
:101E8000DF92EF92FF920F931F93CF93DF93FC01AA
:101E90008281DD24DA9480FD02C0DD24D39408E140
:101EA00013E0D0E0C0E0F80111821082128294E0C9
:101EB000E92EF12CC12C809117038C0D8931E4F1AE
:101EC00068E10E943429892F082E000C990B8C1789
:101ED0009D0791F480916B038E9DA0018F9D500D05
:101EE00011245595479555954795980160916A033A
:101EF000809169030E94EF07CD0CF1E0EF1AF10821
:101F0000D1F621960D5F1F4FC831D10561F60E94B1
:101F10004C0E8091170391E0D91212C08823B1F0C2
:101F2000815080931703DF91CF911F910F91FF9004
:101F3000EF90DF90CF90089587FFC6CF885EC4CF23
:101F400090E00196BE010E945629EBCF87E1E9CFD0
:101F50000F931F93CF93DF93C8E1D3E0FE0111826B
:101F600010821282339683E0E036F807C1F710E062
:101F700000E080911603082E000C990B0817190732
:101F80008CF180911101082E000C990B801791079C
:101F90004CF19E0140916B0360916A03809169034B
:101FA0000E94EF070F5F1F4F23960831110509F7B5
:101FB0000E944C0E8091100190911603980F9093FF
:101FC000160320911101280F20931101121614F409
:101FD00097311CF0819580931001DF91CF911F9173
:101FE0000F910895198218821A82DCCFCF92DF9266
:101FF000EF92FF920F931F93CF93DF93CDB7DEB78E
:102000002E970FB6F894DEBF0FBECDBF8D879E878B
:10201000AD85BE8514961C91212F30E0D9010E9418
:10202000A02A9B01AC010E946B2A69837A838B836F
:102030009C83E0E2F0E0E11BF109A5E5B0E09B0143
:10204000AC010E946B2A69877A878B879C879F01E6
:10205000DF010E9470299B01AC010E94762A6D83EA
:102060007E838F8398879B01AC0189819A81AB81A4
:10207000BC81280F391F4A1F5B1F69857A858B85B4
:102080009C850E947E2AF22E422F50E099E29F15F5
:1020900008F442C0A3E02A9F9001112435952795AA
:1020A000122F109598E1C92E93E0D92E00E085E516
:1020B000E82EEF188E2D01FD8F2D9601412F609196
:1020C0006A030E94EF070F5FB3E0CB0ED11C08310B
:1020D00089F70E944C0EED85FE85948181E099235D
:1020E00019F0903219F48FEF80930F0180910F0156
:1020F000890FAD85BE8514968C932E960FB6F894F5
:10210000DEBF0FBECDBFDF91CF911F910F91FF902A
:10211000EF90DF90CF90089585E590E0841B950BBC
:102120009C01220F331F280F391F37FFB7CF2F5FB6
:102130003F4FB4CFEF92FF920F931F93CF93DF9354
:10214000EC0108E113E0F12CE12C9C8160916A0321
:10215000809169032CE0E216F104FCF49923F9F074
:10216000980140916B030E94EF078FEFE81AF80A7D
:102170000D5F1F4F28E1E216F10439F70E944C0E63
:102180008C8190E00196817099278C83DF91CF91AB
:102190001F910F91FF90EF900895992309F39801F3
:1021A00040E0E1CFCF93C82F882309F48FC0823855
:1021B000C1F40E940D0981FD89C089E30E94550A7E
:1021C0000E94810A2FEF31EE84E0215030408040A0
:1021D000E1F700C0000089E30E946E0ACF910C94E1
:1021E000810A8338A1F40E940D0980FD6FC083E548
:1021F0000E94550A0E94810A9FEF21EE34E091501F
:1022000020403040E1F700C0000083E5E5CF84388E
:10221000A1F40E940D0982FD59C087E40E94550A6D
:102220000E94810A8FEF91EE24E08150904020407F
:10223000E1F700C0000087E4CFCF8CEF8C0F813A2C
:1022400068F4E4ECF1E08191C817D1F131E0EA3CA7
:10225000F307C9F78C2F0E94550AC0CF80E28C0F7C
:10226000883068F4C77021E030E001C0220FCA95C1
:10227000EAF780919502822B80939502AFCF8BE590
:102280008C0F833038F42C2F2452330BC901CF919B
:102290000C941909E8E5EC0FE73150F4F0E0EE0F8B
:1022A000FF1FEF56FE4F80819181CF910C942F0933
:1022B000CD3E60F08C2F0E942D07CF910C94E60A42
:1022C0008C2F0E946E0A0E94810AC4CFCF9108957C
:1022D0000F931F93CF93C82F10E000E0893311F4C0
:1022E00000E510E08C2F0E94D2100115110531F489
:1022F0008C2FCF911F910F910C940C0B8FE99FE0C5
:102300000197F1F700C0000001501109EECFDF92F4
:10231000EF92FF920F931F93CF93DF93E82FF0E09C
:10232000E85CFB4FD490282F26952695269530E023
:10233000F901E85DFB4F0491877010E0082E02C0A0
:10234000159507950A94E2F701701127F901E85EE7
:10235000FB4FE490F12C082E02C0F594E7940A9408
:10236000E2F791E0E922FF24F901E85FFB4FC49115
:10237000D0E002C0D595C7958A95E2F7C170DD27F8
:102380000115110519F081EE0E94D210E114F1043B
:1023900019F086EE0E94D2108D2D0E946811EF2850
:1023A00019F086EE0E940C0B012B19F081EE0E94B1
:1023B0000C0BCD2B51F08CE2DF91CF911F910F913F
:1023C000FF90EF90DF900C946811DF91CF911F91F7
:1023D0000F91FF90EF90DF90089596EF980F963051
:1023E00018F0805D0C948711895AFCCFBF92CF9270
:1023F000DF92EF92FF920F931F93CF93DF936B01C6
:102400007C01C7E0D0E00CE110E0BB24B394D7011D
:10241000C601002E04C0B695A795979587950A9496
:10242000D2F78F70C9F4B11002C00E94ED1121974C
:1024300004501109CF3FDC0751F4DF91CF911F9178
:102440000F91FF90EF90DF90CF90BF900895C43030
:10245000D105ECF6B12CDBCF0E94ED11B12CE7CF0A
:1024600080919702823019F030F481110BC082EE16
:102470000E940C0B02C0843081F080919602809300
:10248000950208958CE20E94681180919B02882336
:10249000A1F389E30E946811F0CF88E2FBCFFF929D
:1024A0000F931F93CF93DF93C62FD42F122F882320
:1024B000A9F060934B020E94DA0A9093CB018093BB
:1024C000CA01C77081E001C0880FCA95EAF7DF91A1
:1024D000CF911F910F91FF900C94AE0A80914B0207
:1024E000681334C08091CA019091CB010E94180CEE
:1024F000883C910558F500E20D0FCD17A9F0C77083
:10250000FF24F3948F2D01C0880FCA95EAF70E942B
:10251000B80A083048F48D2F877001C0FF0C8A95E7
:10252000EAF78F2D0E94AE0A812F0E9468110830B1
:10253000A0F4D77081E001C0880FDA95EAF7DF9147
:10254000CF911F910F91FF900C94B80AC77081E052
:1025500001C0880FCA95EAF7F2CFDF91CF911F91A2
:102560000F91FF90089581E08093E00080E28093D6
:10257000D8001092C9008FE19EE40197F1F700C0E6
:10258000000087E090EBDC018093B1039093B203ED
:10259000A093B303B093B40388E19CE00FB6F89422
:1025A000A895809360000FBE90936000FFCFCF93FB
:1025B000DF93D82FC92F81E08093E9008FEF9091AE
:1025C000E800815095FD06C095ED9A95F1F7000061
:1025D0008111F5CF8091E80085FF16C050E040E002
:1025E00068E070E08D2F9C2F0E94F30C8091E80032
:1025F0008E778093E80088E0ED2FFC2FA7EFB1E005
:1026000001900D928A95E1F7DF91CF91089522E034
:102610002093E9002FEF3091E800215035FD06C0EE
:1026200035ED3A95F1F700002111F5CF2091E80042
:1026300025FF0BC050E040E066E070E00E94F30C24
:102640008091E8008E778093E8000895CF93DF9320
:1026500000D00F92CDB7DEB79091F601943019F506
:1026600089836A837B8382E08093E9008FEF909176
:10267000E800815095FD06C095ED9A95F1F70000B0
:102680008111F5CF8091E80085FF0DC050E040E05A
:1026900063E070E0CE0101960E94F30C8091E800A7
:1026A0008E778093E8000F900F900F90DF91CF917D
:1026B0000895BC0183E00C942613BC0184E00C94C3
:1026C00026130F931F93CF93DF938B01D82FC92F1E
:1026D0000E948808A8016D2F7C2F88E090E0DF9190
:1026E000CF911F910F910C942A2AE8E6F3E083E042
:1026F000808311828FEF828388EC8383148263E06E
:1027000070E08FEF98EC0C946113CF93DF9300D0BF
:1027100000D0CDB7DEB780916C03833018F48F5FA3
:1027200080936C038091680390916903A0916A0380
:10273000B0916B0389839A83AB83BC83BC01CD01C9
:102740000F900F900F900F90DF91CF910C94611329
:10275000CF93DF9300D000D0CDB7DEB780916C036C
:10276000882319F0815080936C03809168039091C5
:102770006903A0916A03B0916B0389839A83AB8349
:10278000BC83BC01CD010F900F900F900F90DF9193
:10279000CF910C9461135F926F927F928F929F9270
:1027A000AF92BF92CF92DF92EF92FF920F931F935F
:1027B000CF93DF9300D000D000D00F92CDB7DEB71B
:1027C000182F762E042F622E9091680390FF83C0FD
:1027D000E92FE695AE2FB0E0AF5ABE4F8C918093B3
:1027E00060039E7F9230C9F59E012F5F3F4F812F7E
:1027F0000E94EF074B8169818A810E94810E1093AC
:10280000690370926A0300936B03662009F463C046
:102810008091680390916903A0916A03B0916B0362
:102820008C839D83AE83BF83BC01CD0127960FB6F9
:10283000F894DEBF0FBECDBFDF91CF911F910F91F6
:10284000FF90EF90DF90CF90BF90AF909F908F90D0
:102850007F906F905F900C946113823019F4009117
:102860006B03CDCF863019F410916903C8CF89303E
:10287000D9F3893121F6E9518E2F8170582EE695D2
:10288000F0E0ED5FFC4FA590B490BB2488E1E82E0A
:1028900083E0F82ED12CC12C98E1892E912CC60111
:1028A000B4010E944229812F511013C0860F970155
:1028B000402F672D0E94EF07CA0CDB1C93E0E90E46
:1028C000F11CA0E6EA16A3E0FA0649F70E944C0EB6
:1028D00096CF861BECCF27960FB6F894DEBF0FBEBF
:1028E000CDBFDF91CF911F910F91FF90EF90DF90BF
:1028F000CF90BF90AF909F908F907F906F905F90A0
:102900000895E8E6F3E0818121E043816281885FF8
:102910000C94CB13E8E6F3E0818121E043816281EE
:1029200088500C94CB13E8E6F3E0628128E0620F54
:1029300008F46FEF21E0438181810C94CB13E8E62A
:10294000F3E0628128E0621B08F460E021E043814B
:1029500081810C94CB13E8E6F3E0438128E0420F39
:1029600008F44FEF21E0628181810C94CB13E8E6FB
:10297000F3E0438128E0421B08F440E021E062815B
:1029800081810C94CB1360916803669570E04BE0F5
:1029900050E082E191E00E94F729892B19F481E04F
:1029A000809361030E94DA0A909363038093620329
:1029B0000895CF93DF9300D000D0CDB7DEB79091CC
:1029C000680390FF45C08823E1F18B32E0F58F77F3
:1029D000880F909168039170892B80936803662318
:1029E00081F08091680390916903A0916A03B0918E
:1029F0006B0389839A83AB83BC83BC01CD010E94A6
:102A0000611360916803669570E04BE050E082E1ED
:102A100091E00E94F729892BC1F01092610381E0B7
:102A20008093650320E040916B0360916A0380917D
:102A300069030F900F900F900F90DF91CF910C943E
:102A4000CB1381E0C5CF8AE2C3CF0E94C314E7CF86
:102A50000F900F900F900F90DF91CF91089580917C
:102A6000680386958F5F8B3208F081E061E00C94FB
:102A7000D9149091680396958FEF890F913009F4DE
:102A80008AE261E00C94D91461E00C94D91490911D
:102A9000680390FF07C09695981720F0961710F4DA
:102AA0000C942F150C9444154F925F926F927F9265
:102AB0008F929F92AF92BF92CF92DF92EF92FF924E
:102AC0000F931F93CF93DF93FC016280448081E0DA
:102AD0008483E3E0F2E07490E2E8F2E0E491CDE98F
:102AE000D2E098E1E92E93E0F92E25E1C22E23E011
:102AF000D22E32E0A32EBB24B39488248A94912C46
:102B000055245A94E7190E2F10E082E0861530F014
:102B100080916903888380916A038983411021C071
:102B20001B821A8297014A81698188810E94EF077E
:102B3000259683E0E80EF11CCC16DD0631F7DF9117
:102B4000CF911F910F91FF90EF90DF90CF90BF90AA
:102B5000AF909F908F907F906F905F904F900C946C
:102B60004C0E8B818823E9F081508B83859DC001B9
:102B700011246C8170E00E944229FB01FF27ED5F68
:102B8000FD4F8491E82FE719E59DC0011124B8019C
:102B90000E94422980916B03689FB00111247A83BF
:102BA000C1CF0E94E729AC0190916B039695915893
:102BB0009A9D90019B9D300D1124232F332742179E
:102BC00053070CF0AFCF82E0861588F40E94E72906
:102BD000B4010E94562988830E94E72920916A0344
:102BE0002695622F70E00E945629280F29831A82A9
:102BF00080916B03893C20F088EC8C838B8392CF8F
:102C00008431D8F784E1F9CFCF9384E090E00E943B
:102C1000042AC82F81E290E00E94042A982F8C2F6A
:102C2000CF910895E0916D03F0916E0380E03097AD
:102C300021F00190F081E02D0995869581708093B7
:102C40009B0290919702913029F4882319F089E32F
:102C50000E946811809195028093960210929502CD
:102C6000809197028230E9F030F481110DC082EE3C
:102C70000E94D21002C08430D9F08FE39CE9019702
:102C8000F1F700C00000089583E00E94C30A88E1C4
:102C90000E94D21088E10E940C0B83E00E94CD0AB2
:102CA000ECCF82EE0E94D21087E50E946811E5CF3A
:102CB00086EE0E94681188E1F8CFCF92DF92EF9202
:102CC000FF92CF93DF9300D000D000D0CDB7DEB716
:102CD0008D839E83AD81BE818C9181110DC026961E
:102CE0000FB6F894DEBF0FBECDBFDF91CF91FF903E
:102CF000EF90DF90CF90089587FD60C0C82ED12C53
:102D0000F12CE12C2D813E812F5F3F4F3E832D839F
:102D1000D701C601985DA109B10981159840A105A7
:102D2000B105C0F24FEFC416D406E406F40691F2E2
:102D3000C114D10451E1E506F10464F6C114D104D3
:102D400081E0E806F10420F080919702823011F2D0
:102D50000E941216C114D10491E0E906F10408F4AE
:102D6000D9C0809197028111D5C0A1E0EA1AF1087B
:102D7000D701C6012AE0B695A795979587952A951C
:102D8000D1F79C01AD0138524F4F5F4FCA01B901D5
:102D90000E94F61133E0D322EE24FF24D701C601AE
:102DA0009452AF4FBF4F89839A83AB83BC83BC01DE
:102DB000CD010E94F6110E9430128CCF982F907E88
:102DC000903CE9F490E0B0E0A0E06C017D01E6E029
:102DD000CC0CDD1CEE1CFF1CEA95D1F730ECC322B5
:102DE00037E0D322EE24FF24AD81BE8111968C9171
:102DF00011978F73C82A1296BE83AD8389CF982FFF
:102E0000907F903E71F5ED81FE81C180D12CF12C37
:102E1000E12C66E0CC0CDD1CEE1CFF1C6A95D1F7A2
:102E2000F0ECCF22FFE0DF22EE24FF2490E0B0E0C0
:102E3000A0E07CE0880F991FAA1FBB1F7A95D1F7ED
:102E4000AA27BB278C299D29AE29BF29ED81FE81A8
:102E500022812F736C017D01C22A3396FE83ED839C
:102E600057CF982F987F903F09F045C0853F08F0D5
:102E700042C0AD81BE811196CC90D12CF12CE12CB9
:102E80003CE0CC0CDD1CEE1CFF1C3A95D1F7CC24A9
:102E9000B0EFDB22B3E0EB22FF2490E0B0E0A0E053
:102EA00042E1880F991FAA1FBB1F4A95D1F78827B7
:102EB0009927AC71BB278C299D29AE29BF29ED81AB
:102EC000FE8123812F736C017D01C22A828190E0F3
:102ED000B0E0A0E056E0880F991FAA1FBB1F5A95CB
:102EE000D1F7807C9F70AA27BB27C82AD92AEA2A53
:102EF000FB2A3496B3CF2D813E812F5F3F4F3E8317
:102F00002D83CC24CA94DD24DA94EE24EA94FF24A1
:102F1000FA94FECEC701B6014CCF10929502E4ECB4
:102F2000F1E086E0DF011D928A95E9F70C94690BC8
:102F30001F93CF93DF93CDB7DEB7AA970FB6F89460
:102F4000DEBF0FBECDBF80ED91E0FC010196209168
:102F5000F100208321E0883D9207B9F78091D101EB
:102F6000893009F456C0C8F4823009F4B1C0833006
:102F700009F480C0813071F18091E80083FF78C24C
:102F80008091D0019091D1019A3008F071C2E92F5F
:102F9000F0E0EC53F54D0C946A298A3009F487C0AF
:102FA0008B3051F78091D001813231F78091D4017B
:102FB0009091D501892B01F78091E800877F80935C
:102FC000E8000E94840C8091D20180930E010E943F
:102FD0008D17D2CF8091D001813A71F68091E800AF
:102FE000877F8093E8008091D4019091D501892B4F
:102FF00061F468E087EF91E070E00E942A0C809114
:10300000E8008B778093E800B7CF60E090E080E045
:10301000F3CF8091D001813209F0AECF8091D401FD
:103020009091D501029708F0A7CF8091E800877FA3
:103030008093E8008091E80082FF17C09091F30030
:103040008091F200029729F48091F1008B7F81300A
:1030500021F48091F1008093FF018091E8008B774B
:103060008093E8000E94840C87CF8091F601811143
:10307000E1CF82CF8091D001813A09F07DCF80915C
:10308000D4019091D501892B09F076CF8091E80089
:10309000877F8093E8008091E80080FFFCCF8091DB
:1030A0000E018093F1008091E8008E77D9CF809156
:1030B000D001813209F060CF8091E800877F809352
:1030C000E8000E94840C8091D3018093CC0154CFFE
:1030D0008091D001813A09F04FCF8091E800877F3D
:1030E0008093E8008091E80080FFFCCF8091CC01C4
:1030F000D8CF803899F0823809F0BAC18091D401D4
:103100008F70873008F0B4C18093E9008091EB00A4
:1031100085FB882780F91092E90006C08091CD01D7
:103120009091F501911182609091E800977F9093C2
:10313000E8008093F1001092F1008091E8008E7712
:1031400093C1882309F481C1823009F091C1809133
:10315000D201811184C18091D4018F702FEF280F8B
:10316000263008F085C18093E9002091EB0020FF14
:1031700076C1933031F48091EB0080628093EB0054
:103180006EC19091EB0090619093EB0021E030E0F4
:1031900001C0220F8A95EAF72093EA001092EA0014
:1031A0008091EB008860EACF811162C11091D20159
:1031B0001F778091E3008078812B8093E3008091DA
:1031C000E800877F8093E8000E94840C8091E800EB
:1031D00080FFFCCF8091E30080688093E30082E071
:1031E000111183E08093F60143C18058823008F0CA
:1031F0003FC14091D2015091D3014C3D83E058072B
:1032000099F583E08A838AE289834FB7F894DE01D7
:10321000139620E03EE051E2E32FF0E05093570098
:10322000849120FF03C082958F703F5F8F708A303A
:10323000C8F0895C90E08D939D932F5F243161F7F6
:103240004FBF8091E800877F8093E8006AE270E0DA
:10325000CE0101960E942A0C8091E8008B77809322
:10326000E80006C1805DE6CF2091D4013091D50100
:10327000852F99278330910509F160F481309105FC
:1032800009F472C0029709F0F3C08BE390E0E7E61F
:10329000F1E029C08132910509F45AC0829709F002
:1032A000E7C02115310509F469C02130310509F065
:1032B000DFC08BE790E0ECEAF0E015C0CA01992787
:1032C0004130B1F18230910509F43AC0892B09F0FF
:1032D000CFC0EAEEF1E0E4918E2F90E0EAEEF1E06B
:1032E000009709F4C5C02091E800277F2093E800EB
:1032F0002091D6013091D7018217930708F49C01E1
:1033000040E02115310509F03EC041113CC08091DB
:10331000E80082FDA1CF8091F601882309F49CCFBB
:10332000853009F499CF8091E80083FFF0CF94CFE6
:10333000E0ECF1E0E4918E2F90E0E0ECF1E0D0CF12
:10334000E4EBF1E0E4918E2F90E0E4EBF1E0C8CF04
:103350002115310571F02130310509F089C089E06E
:1033600090E0E2E9F1E0BFCF82E190E0E2EAF1E053
:10337000BACF89E090E0E9E7F1E0B5CF80E490E0F2
:10338000E7E2F1E0B0CF8091F601882309F464CF41
:10339000853009F461CF8091E80083FD5DCF809195
:1033A000E80082FDB4CF8091E80080FFAACF909121
:1033B000F3008091F2002115310519F08830910554
:1033C00050F041E0089709F040E08091E8008E77E6
:1033D0008093E80096CF44914093F10031962150BC
:1033E00031090196E8CF803809F042C08091E800A9
:1033F000877F8093E8008091CE018093F1009DCE7D
:10340000811136C01091D201123090F58091E80000
:10341000877F8093E8001093CE010E94840C1123D3
:1034200011F084E005C08091E30087FDFACF81E0D0
:103430008093F60142E061EC81E00E941D0D42E2C2
:1034400061EC82E00E941D0D13C08091D201813099
:1034500079F481E0933009F080E08093F5011092D7
:10346000E9008091E800877F8093E8000E94840C47
:103470008091E80083FF0AC08091E800877F8093F5
:10348000E8008091EB0080628093EB00AA960FB673
:10349000F894DEBF0FBECDBFDF91CF911F9108958D
:1034A0006BEE7EEF90E080E00E94362A60E082E0E2
:1034B00090E00E94182A60E083E090E00E94182AC1
:1034C00010924E0210924F0210925002109251022E
:1034D00060E084E090E00E94182A60E081E290E0E1
:1034E0000E94182A60E085E090E00E94182A60E0BF
:1034F00086E090E00E94182A6FEF87E090E00E943B
:10350000182A40E050E0BA0188E090E00E942A2AA0
:1035100060E08DE090E00E94182A40E050E0BA019F
:1035200088E190E00E942A2A60E087E190E00E9412
:10353000182A40E050E0BA018CE190E00E942A2A6B
:1035400060E080E290E00E94182A40E050E0BA017A
:1035500088E190E00E942A2AE8E6F3E08081816019
:10356000808386950E94441521E040E86FEF80E05B
:103570000E94CB138BE00E94441540E050E0BA015A
:103580008FE090E00E942A2A81E08093970261E018
:103590008CE090E00C94182A4F925F926F927F9289
:1035A0008F929F92AF92BF92CF92DF92EF92FF9253
:1035B0000F931F93CF93DF9300D000D00F92CDB71E
:1035C000DEB78C01DC019C9111968C9111971396BA
:1035D0002D913C91232B21F089238F3F09F061C667
:1035E0000F900F900F900F900F90DF91CF911F9140
:1035F0000F91FF90EF90DF90CF90BF90AF909F9092
:103600008F907F906F905F904F900895F801828126
:10361000882321F087E291E00E945D16D80112967E
:103620008C91882351F169807A802FEB62162CE50A
:10363000720609F45EC108F0E3C04DEB64164CE578
:10364000740609F431C15EEB65165CE5750609F494
:1036500032C18CEB68168CE5780609F4F3C08981D9
:103660009A81825E9C45059740F46981625E609311
:1036700097028CE090E00E94182AD80112968C9153
:1036800069807A8077FE61C18823E1F00E9412167A
:103690006301E894D7F84CE0E42EF12CC6010E2C1F
:1036A00002C0969587950A94E2F78F700E94ED11FB
:1036B00024E0E21AF1083CEFE3163FEFF30671F75E
:1036C0000E943012D80112969C91992309F48AC164
:1036D00010924B0269807A8026E162162CE5720610
:1036E00008F078C132E063163CE5730608F44FC277
:1036F0000E9404169093B0038093AF0369807A8090
:1037000026E162162CE5720608F095C132E06316D8
:103710003CE5730608F081C16091AF036090B0038F
:10372000698284E090E00E94182A698181E290E039
:103730000E94182A0E948D1794C0F8018281882364
:1037400009F46CCF5DE1E52E51E0F52E6AE0D62E4E
:10375000D7018C91882309F461CF11969C91119720
:10376000813009F04AC012968C91913049F4B2E050
:10377000EB0EF11C0E946811FFEFEF1AFF0AE8CF71
:10378000923031F4E2E0EE0EF11C0E94D210F4CF40
:10379000933031F4F2E0EF0EF11C0E940C0BECCFF1
:1037A000943021F02FEFE21AF20AE6CF32E0E30E76
:1037B000F11C20E030E0B7016F5F7F4FD701119619
:1037C0004C918053990B8A30910560F02115310599
:1037D00099F2EFE9FFE03197F1F700C000002150C6
:1037E0003109F4CFD29EF001D39EF00D11249C013B
:1037F0002E0F3F1F842F7B01DECF0E948711BCCF8D
:1038000069807A8020EC62162CE5720609F485C086
:1038100031EC63163CE5730609F021CF90919C02D0
:10382000892F8695869586958F5F8F7197708430E6
:1038300020F4880F880F880F982B90939C0280911A
:103840009C0241C080919C028670896180939C0299
:1038500083E00E94A40860919C0286E090E00E94B0
:10386000182A80915702877009F4BACED8011296AF
:103870008C91882309F4B4CE82E00F900F900F90C2
:103880000F900F90DF91CF911F910F91FF90EF90CC
:10389000DF90CF90BF90AF909F908F907F906F9070
:1038A0005F904F900C94000C80919C0286708093E6
:1038B0009C0280E0CECF80919C02982F987F89F067
:1038C000885080939C02887F91E009F490E0609199
:1038D0009C0290FB60F960939C0286E090E00E945D
:1038E000182A80919C028695869586950E94A40848
:1038F000B8CF80919C02982F969596959695883191
:1039000040F49F5F990F990F990F8770892B8093CF
:103910009C0260919C026160DECF60919C0260FF1E
:1039200009C06E7F60939C0286E090E00E94182A96
:1039300080E0DCCF616060939C02613019F489E023
:1039400080939C0260919C02C8CF69807A8024EFAA
:1039500062162CE57206B1F1C0F449ED64164CE52F
:10396000740661F128E241E05AED65165CE57506E2
:1039700039F126E241EE61EE98ED69169CE5790693
:1039800009F0A0CE0E944F126CCF69807A8026EF9A
:1039900062162CE57206D1F027E245EE66EE37EFAF
:1039A00063163CE5730671F345EF64164CE5740647
:1039B00009F088CE27E245EE64EEE4CF27E245EE3B
:1039C00065EEE0CF26E241EE60EEDCCF26E241EE8E
:1039D00062EED8CF29813A812B5F3C4529303105F1
:1039E00008F486CE89809A8026E182162CE592061C
:1039F00009F0CAC080919502992309F4BBC08A7A64
:103A000091E009F490E090934C028111B1C089E2F9
:103A10000E94550A0E94810A24CFE981FA81E3506D
:103A2000FC458091AF038160E331F105C8F4E253B6
:103A3000F54D0C946A2989819A818B5F9C45099781
:103A400008F06ACEE981FA81EC5FFC45E830F105C7
:103A500090F4EF51F54D0C946A298091AF03826088
:103A60008093AF0359CE8091AF038460F9CF8091EA
:103A7000AF038860F5CF8091B00381608093B0037D
:103A80004BCE8091B0038260F9CF8091AF0380610B
:103A9000E7CF8091AF038062E3CF8091AF03806472
:103AA000DFCF0E948D178091AF038068D9CF8091BE
:103AB000AF038C60D5CF8091B0038360DFCF80915E
:103AC000AF038E7FCDCF8091AF038D7FC9CF809123
:103AD000AF038B7FC5CF8091AF03877FC1CF80912C
:103AE000B0038E7FCBCF8091B0038D7FC7CF809105
:103AF000AF038F7EB5CF8091AF038F7DB1CF809123
:103B0000AF038F7BADCF0E948D178091AF038F776E
:103B1000A7CF8091AF03837FA3CF8091B0038C7F29
:103B2000ADCF8091AF0382FB992790F921E09227D6
:103B300090FB82F990FB83F993CF8091B003982F8B
:103B4000909591708E7F892B90FB81F997CF0E9481
:103B50008D179091AF03892F97FB87F9805880CFFD
:103B600061E08EE090E00E94182AD6CD60E0F9CFA7
:103B700085E34ECF80914C02811104C089E20E94FE
:103B80006E0A48CF85E3FBCF992309F498C0809152
:103B900095028272E981FA81E35CFC45E431F1052A
:103BA00008F07EC0E751F54D0C946A2980916803B6
:103BB00080FF21C08E7F809368038091680390917D
:103BC0006903A0916A03B0916B0389839A83AB83E5
:103BD000BC83BC01CD010E946113109261039FEF71
:103BE000A0E7B2E09150A040B040E1F700C0000073
:103BF0000E944C0E36CE81608093680386950E94A9
:103C000044152FCE49E355E16FE275E10E949F080C
:103C100028CE4FE255E169E375E1F8CF4AE854E177
:103C200061E874E1F3CF41E854E16AE874E1EECF72
:103C30004FE954E163E974E1E9CF43E954E16FE905
:103C400074E1E4CF47EB54E16BEA74E1DFCF4BEA78
:103C500054E167EB74E1DACF48EA53E165E873E1D8
:103C6000D5CF45E853E168EA73E1D0CF81E0C7CF13
:103C700065E082E00E944715F4CD68E086E0FACF67
:103C80006EE089E0F7CF64E18FE0F4CF67E185E192
:103C9000F1CF88E1B4CF62E289E1ECCF83E2AFCF2C
:103CA000992369F069807A8061142CE5720609F421
:103CB00049C03FED63163CE5730609F450C0F801B6
:103CC000E080F180992309F44DC0C7010E94A60944
:103CD0008983682FC7010E944F09B70189810E941B
:103CE00012058D839983D8011296FC901297159630
:103CF000EC90E2943FE0E322809157028770A1F0BC
:103D0000BF2CFF2091F0892F807F803421F08D819E
:103D1000805E883048F082E00E94000C809157025B
:103D20008770BB24B3948111B12C898182958F70E7
:103D3000C82ED12C8C3008F053C0F601E350F54D5D
:103D40000C946A290E948D174FEF54E38CE0415088
:103D500050408040E1F700C000000E94B3120E9472
:103D6000501A7FCDC7010E947D098983B6CFB981E2
:103D7000BF70EB2EE981E07F19F0E29420EFE222A0
:103D8000FF20D1F0EE2071F08D81805E883018F038
:103D90006D8061100BC0809195028E2980939502F1
:103DA0000E94810A8D810E94D2101AC0809158020F
:103DB0008E2980935802F4CF8D810E940C0BEE2047
:103DC00079F0E0948D81805E883018F07D807110EC
:103DD00043C0809195028E21809395020E94810AB2
:103DE00088E0C81AD10894E0C916D10420F40E94D2
:103DF0000D090E94C104BB20B1F08091570280FDE3
:103E000012C0D80112961C928595859585950E94C1
:103E10009A0BC8010E94CC1A80915702859585950E
:103E200085950E94CB0B60E0C8010F900F900F901A
:103E30000F900F90DF91CF911F910F91FF90EF9016
:103E4000DF90CF90BF90AF909F908F907F906F90BA
:103E50005F904F900C94E809809158028E218093D6
:103E60005802BCCF29812F70A22E3981307F303289
:103E700019F0A29490EFA9226D80662089F0262D7A
:103E8000213079F1FF20D1F1EE2089F1D80115968A
:103E90008C91159780FF86CF8F7015968C9327C0D5
:103EA000FF2091F090914D028A2D892BE11003C0E3
:103EB0000E94AE0A95CF31E0E312FACF891709F4D8
:103EC0008FCF80934D028CCFE11006C00E947B0AF9
:103ED0008A2D0E94B80A84CF41E0E41609F480CF0D
:103EE000F5CFFF2031F055E05E1508F479CF8A2D2B
:103EF000DFCF84E08E1508F473CFEACFEE2041F3D4
:103F0000BD81B93349F4EFEFF7EE23E0E150F04023
:103F10002040E1F700C000008D810E940C0B60CFB3
:103F2000898186958695837069F0813009F058CF34
:103F30008D8199819370F11002C090E080E00E9421
:103F40002F094ECF8D8199819370F11002C090E0BE
:103F500080E00E94190944CF8D81FF2029F00E9442
:103F60002D070E94E60A3CCF0E947607FACF89818E
:103F7000837009F07CC0F11033CF2D8122952695F6
:103F80002770220F220F4D814F7050E070E060E0EB
:103F9000022E04C0440F551F661F771F0A94D2F7E4
:103FA0006D8080E090E0DC0164FE0FC08FE090E067
:103FB000A0E0B0E004C0880F991FAA1FBB1F2A957C
:103FC000D2F780959095A095B09579807694769467
:103FD000272D2370223059F1233009F441C040903D
:103FE0004E0250904F02609050027090510221306A
:103FF00099F0842B952BA62BB72B9C01AD01242186
:1040000035214621572129833A834B835C83CA019A
:10401000B9010E94860BE4CE442A552A662A772AE3
:10402000A3019201282B392B4A2B5B2BECCF842B3D
:10403000952BA62BB72B40914E0250914F026091C9
:104040005002709151023C014D016426752686266E
:10405000972669827A828B829C82C401B301D9CF70
:104060003A014B01682A792A8A2A9B2AF2CFFF203B
:1040700009F452C0798070FEB3CE2D812295269529
:104080002770220F220F4D814F7050E070E060E0EA
:10409000022E04C0440F551F661F771F0A94D2F7E3
:1040A0009D8080E090E0DC0194FE0FC08FE090E006
:1040B000A0E0B0E004C0880F991FAA1FBB1F2A957B
:1040C000D2F780959095A095B09569806694669496
:1040D000262D2370223079F1233009F43FC040901F
:1040E0005202509053026090540270905502213059
:1040F000B9F0842B952BA62BB72B9C01AD01242165
:1041000035214621572129833A834B835C83CA0199
:10411000B9010E94900B64CE898081FE61CEADCF43
:10412000442A552A662A772AA3019201282B392B83
:104130004A2B5B2BE8CF842B952BA62BB72B4091DA
:1041400052025091530260915402709155023C0109
:104150004D01642675268626972606C03A014B0136
:10416000682A792A8A2A9B2A69827A828B829C828F
:10417000C401B301CECF29812F702983FF2029F0FC
:10418000822F0E949A0B8D8193CE8D810E94B80A56
:1041900089810E94CB0B24CE3D81323F09F449C076
:1041A00060F4303F11F1313FE1F1FF2009F468C0C4
:1041B000E110F8CD89818F7139C04D81433FF1F114
:1041C000443F99F7FF2009F44FC029812F712983BB
:1041D000822F0E949A0B698038E0639EC0011124EF
:1041E000836080935702862D21C0FF20A1F054E008
:1041F0005E1508F4F5CD89818F71898381E090E0A7
:10420000A0E0B0E0098004C0880F991FAA1FBB1F5F
:104210000A94D2F794CF85E0782E7E1408F4E0CD8E
:10422000EACF89818F71FF2009F4B3CF0E949A0BE6
:10423000D7CD89818F71FF20C9F3ABCF60E070E0EB
:10424000CB01FF2009F465CF29812F7181E090E037
:10425000A0E0B0E03C014D0104C0660C771C881C56
:10426000991C2A95D2F780CF81E00E94000C772418
:1042700073947E1408F0B4CD82E00E94000CB0CD9F
:10428000EE2061F02D81293309F046CE3FEF47EE55
:1042900053E0315040405040E1F73CCE89818F716E
:1042A00078CF61E0C8010E94E80989839A83698018
:1042B0007A802AE262162DE5720609F4A7C93BE26C
:1042C00063163DE5730609F438CA49E264164DE504
:1042D000740609F0A3C9D80112968C91882309F4B9
:1042E0009DC983E491E098C91F93CF93DF93809198
:1042F0009002807FA9F480918D02882389F08091BB
:104300005A02C091590270918B0260918C02A09167
:104310008E02B0918F02D62FD72316E0C81304C0A7
:10432000DF91CF911F91089590E0109711F0DF3F3A
:1043300019F401968770F2CF189F9001199F300DE4
:104340001124F901E55AFD4F41816413F2CF4081F8
:104350004713EFCF42814111ECCF438154814A1B77
:104360005B0B483C510528F7809190028F7080616B
:1043700080939002F901E05AFD4F80818F70806137
:1043800080838BE892E00E94CC1ADF91CF911F913D
:104390000C944509AF92BF92CF92DF92EF92FF92B9
:1043A0000F931F93CF93DF93CDB7DEB72B970FB645
:1043B000F894DEBF0FBECDBF8C0185E0F801DE01B1
:1043C000179601900D928A95E1F7F801E28030810D
:1043D0002181C380D4808BE8A82E82E0B82E9091F2
:1043E0008B0240918C0260918E0270918F02611558
:1043F000710529F0892F84238F3F09F01DC1EE201C
:1044000009F428C18F8198850E94280AF82E8823F4
:1044100009F420C186E0F801ABE8B2E001900D920A
:104420008A95E1F780918B0290918C020E941C0A80
:104430000E9474211DC080919002582F507F683CCB
:10444000710508F078C0511194C0FE2C241322C0CD
:10445000931320C0E1101EC08F7080618093900282
:104460008BE892E00E94CC1A80919002F80185833B
:104470008F2D2B960FB6F894DEBF0FBECDBFDF9108
:10448000CF911F910F91FF90EF90DF90CF90BF9051
:10449000AF900895CD2829F0822F83238F3F09F014
:1044A00065C080E0F82FF170DF2EE0915A02409154
:1044B000590256E080FD1CC0EE20D1F2809190029E
:1044C000816080939002F12CD3CF8E2F90E05E9F7D
:1044D000F0011124E55AFD4F6181261306C0608169
:1044E000361303C062816E11E7CF0196E82FE770A3
:1044F000E413EBCF8F8198850E941C0A292F229507
:104500002F70903260F0225F2F70223078F49F700D
:1045100051F0F8019581907F31F4D12C0AC09F7041
:1045200011F08823D1F3805E8830B8F3C8010E946F
:10453000CC1AFD2C9DCF51114DC08BE892E00E940A
:10454000CC1A86E0F50111928A95E9F7BCCF8F81EC
:1045500098850E94280A811130C080919002816064
:1045600080939002C8010E94CC1A82CF81E08E25F0
:1045700099CF241306C0931304C0F801EE2009F468
:104580004EC08F8198850E94280A882309F462C052
:10459000EE2009F45FC080919002803270F020918B
:1045A0008B0230918C023A8329831B82DD82CC827C
:1045B0008E83CE0101960E94CC1A86E0F801ABE80A
:1045C000B2E001900D928A95E1F70E947421FF24D8
:1045D000F3944ECF2413D5CF9313D3CFE110D1CF83
:1045E000F8018583C8010E94CC1A86E0F50111927A
:1045F0008A95E9F73DCF2413AACF9313A8CF8091D2
:10460000900280FD10C0982F907F69F0F80185839B
:10461000903F31F0982F907F905F8F70892B85832A
:10462000C8010E94CC1A86E0F801ABE8B2E0019024
:104630000D928A95E1F71CCFF0908D02F601E61BF2
:10464000F70BBF01F110F7CE683C710570F6FE2C38
:10465000E110D1CFC8010E94CC1AB9CF1F93CF93DC
:10466000DF93CDB7DEB767970FB6F894DEBF0FBE06
:10467000CDBF4B8B5C8B962F6D8B7E8B8F8B61119F
:10468000109258021A8A85E0FE017396DE011D968B
:1046900001900D928A95E1F79F8786E0FE013D9695
:1046A000DE01179601900D928A95E1F7CE010796EB
:1046B0000E94CA21882389F016E080915A029091C5
:1046C0005902891349C067960FB6F894DEBF0FBE32
:1046D000CDBFDF91CF911F91089586E0FE013796FF
:1046E000DE01119601900D928A95E1F78F819885F0
:1046F0002091590240915A026A857B85672BE1F22D
:1047000089238F3FC9F230E0C9010196877099274C
:104710004817190671F40E948D17109259021092D1
:104720005A0286E0EBE8F2E0DF011D928A95E9F794
:10473000C3CF96E0929FD001939FB00D1124A55A4C
:10474000BD4FFE01319601900D929A95E1F780934D
:1047500059020E944509B0CF819FC0011124855A9A
:104760009D4F0E94CA21882309F4ADCF80915A023F
:1047700090E001968770992780935A029ECF90E02F
:1047800080E00E94122A9C0181E02B3E3E4F09F0FE
:1047900080E008950E94BF23811102C00E94501A38
:1047A00086E090E00E94042A80939C02803220F0F0
:1047B0008770886180939C0290919C02892F817000
:1047C00090FF04C0892F8695869586950C94A40841
:1047D0001F921FB61F9211248F939F93AF93BF9385
:1047E00080910402811113C0809100029091010216
:1047F000A0910202B09103024196A11DB11D8093C8
:10480000000290930102A0930202B0930302BF91B1
:10481000AF919F918F911F901FBE1F901895789414
:104820001F921FB61F9211248F939F93AF93BF9334
:104830008091000290910102A0910202B0910302C6
:104840000196A11DB11D8093000290930102A093D7
:104850000202B0930302BF91AF919F918F911F907D
:104860001FBE1F901895CDB7DEB72F970FB6F894DF
:10487000DEBF0FBECDBF84B7877F84BF0FB6F8946D
:10488000A89580916000886180936000109260001C
:104890000FBE80E890E00FB6F8948093610090938B
:1048A00061000FBE85B7806885BF85B7806885BF0A
:1048B00088ED9AE09093C1018093C0010E94D40CCE
:1048C0000E944D0D8091E20084608093E200789414
:1048D0008091F601882399F08091E9001091EC0015
:1048E0001795112717958F70182B1092E90080915A
:1048F000E80083FD0E9498171F701093E90082E082
:1049000084BD93E095BD9AEF97BD80936E000CE750
:1049100011E0F8E8EF2EF1E0FF2ED8018D918D0126
:104920000E94D206E016F106C1F708E811E0E1E9BD
:10493000EE2EE1E0FE2EF80181918F010E94D20659
:10494000E016F106C1F788E1E7E9F3E0DF01282F7F
:104950001D922A95E9F7EFE7F3E0DF011D928A95B2
:10496000E9F70E94AE0DEFE3FCE93197F1F700C0E3
:1049700000000E94AE0D80917F0380FF08C06FEFA2
:104980007FEF90E080E00E94362A0E94B3120E94DE
:10499000BF23811102C00E94501A279A2F988AE0E3
:1049A0008093800089E1809381008FEF9FEF909347
:1049B0008700809386000E94CA238CE090E00E94CA
:1049C000042A90E0B0E0A0E08093970290939802D0
:1049D000A0939902B0939A02559A6E9A0E94BF23AF
:1049E000811102C00E94501A82E090E00E94042AC5
:1049F0008093DC010E9404169093B0038093AF0370
:104A000083E090E00E94042A282F30E050E040E04C
:104A10002C873D874E875F87CA01B9010E94860BAC
:104A20000E94CA238091D801811133C00E94BF2304
:104A3000811104C00E94501A0E94751388E090E012
:104A40000E940C2A609368037093690380936A0341
:104A500090936B036E7F71F40E94751388E090E071
:104A60000E940C2A609368037093690380936A0321
:104A700090936B030E9488081092610380916803F1
:104A800080FF04C060E086950E94D91481E0809385
:104A9000D80184E091E090936E0380936D0358E118
:104AA000852E912C60E4762E77E9A72E73E0B72E41
:104AB000AE014F5F5F4F6A018091F601FF24F394CE
:104AC00000E112E1853009F4B8C10E94AE0D8823DF
:104AD00059F08FB7F8944091000250910102609113
:104AE0000202709103028FBFEFE7F3E0ADEDB1E09A
:104AF00010E000E0702F819191912D913D91281748
:104B0000390709F4BFC12827392760E0EE24E39470
:104B1000F12CA9014E215F21452B09F4ADC1698318
:104B20007A839C012E213F2191E0232B09F490E010
:104B30009B830E94DA0A8160782F9D838C83498150
:104B40005A816B81892F0E942E23000F111FF801BB
:104B5000E352FE4F808191818E259F259183808332
:104B6000809161038823D1F180916003E091680313
:104B7000E695E81BE0936403823009F09AC1F0E007
:104B8000E150FE4FE4910E2F10E0F1EBEF2EFEE02E
:104B9000FF2E80916503882361F0109265030E94C7
:104BA000DA0A909363038093620310926703109272
:104BB00066030E94DA0A2091620330916303821B2C
:104BC000930B8F3F9F4750F4200F311F30936303A7
:104BD0002093620382E693E0F701099586E0E3E71C
:104BE000F3E0D60101900D928A95E1F7509075039C
:104BF00060907603E0907703F0907803109275034D
:104C0000109276031092770310927803852D8629EF
:104C10001C2D0D2D09F448C08091710390917203F1
:104C20000E94180C9C0180917A03882309F4DCC14E
:104C300023333105C8F18F3F19F08F5F80937A03DA
:104C4000552059F00E94EB069FEF15140CF491E0EB
:104C5000899F802D112480937503662059F00E944E
:104C6000EB069FEF16140CF491E0899F802D112420
:104C700080937603309175033323B1F0209176034E
:104C8000222391F045EB3403C0011124992309F448
:104C900080C19093750355EB2503900111243323B4
:104CA00009F47BC1309376038E2D8F2909F448C017
:104CB00080916F03909170030E94180C9C01809169
:104CC0007903882309F48BC125363105C8F18F3F5C
:104CD00019F08F5F80937903EE2059F00E940B0743
:104CE0009FEF1E140CF491E0899F802D1124809376
:104CF0007703FF2059F00E940B079FEF1F140CF45D
:104D000091E0899F802D112480937803309177035F
:104D1000209178033323A1F0222391F045EB340353
:104D2000C0011124992309F43CC19093770355EBFA
:104D3000250390011124332309F437C130937803FC
:104D40008091750390917603892B90917703892B3D
:104D500090917803892B11F00E94E60A86E0E12FFA
:104D6000F02FA3E7B3E001900D928A95E1F70E943E
:104D70000D099091DB01891709F49ECE0E940D095F
:104D80008093DB010E94C10497CE8091F6018430AC
:104D900009F443C080E00E94A40880E00E94C1049E
:104DA000109261038091DA01811116C0F092DA014C
:104DB00080916803982F91709093D9018E7F809392
:104DC00068035FEF80E792E0515080409040E1F748
:104DD00000C000000E944C0E109204020FB6F8941E
:104DE000A895809260000FBE7092600083B7817FAB
:104DF000846083BF83B7816083BF7894889583B7CD
:104E00008E7F83BF0FB6F894A8958091600088616B
:104E100080936000109260000FBE8091F50188239E
:104E200061F00E94AE0DEFE7F3E081919191892B43
:104E300009F0BFC0AE16BF06C1F78091F6018530FC
:104E400009F4A3CF0E948D170E94CA230E940D0966
:104E50000E94C1041092DA018091D901882349F09F
:104E60008091680381608093680360E086950E946A
:104E7000D9140E94C31429CE6F5FEE0CFF1C693059
:104E800009F047CE0F5F1F4F0C30110509F032CEED
:104E90008FEF8F83888719860E94DA0A8160782FC6
:104EA0009B878A874F8158856985892F0E942E2389
:104EB00057CE08E210E096EFE92E9FE0F92E8831F8
:104EC00009F467CEE0F48F3009F440C058F486301E
:104ED00031F1893079F100ED17E0EEE9EE2EE8E0EE
:104EE000FE2E57CE8531B9F7F0E0ED50FE4FE4913C
:104EF0000E2F10E048EAE42E4FE0F42E4ACE843222
:104F000009F440C0853271F1833229F7E1EFF1E015
:104F10000591149135EDE32E3EE0F32E3ACEF0E00C
:104F2000E450FE4FE4910E2F10E075ECE72E7EE08A
:104F3000F72E2FCEE695F0E0E750FE4FE4910E2FCE
:104F400010E065E1E62E6FE0F62E23CEE695F0E068
:104F5000EA50FE4FE4910E2F10E05FE3E52E5FE094
:104F6000F52E17CE8E2F63E00E942829E92FF0E05E
:104F7000E251FE4FE4910E2F10E024E5E22E25E1F0
:104F8000F22E07CE04EF11E08AE9E82E80E1F82E38
:104F900000CE81E0809375037ECE81E0809376031E
:104FA00083CE81E080937703C2CE81E08093780343
:104FB000C7CE09BD19BD09B400FEFDCF8091D80050
:104FC0008F7D8093D8008091E00082608093E00024
:104FD0008091E00081FDFCCF0E948D172ECF2D32F5
:104FE000314008F076CEACCE2D32314008F025CEDF
:104FF0005BCE1F920F920FB60F9211242F933F9307
:105000004F935F936F937F938F939F93AF93BF93D0
:10501000EF93FF938091E10082FF09C08091E2004D
:1050200082FF05C08091E1008B7F8093E100809139
:10503000DA0080FF24C08091D80080FF20C08091DA
:10504000DA008E7F8093DA008091D90080FF99C0CA
:1050500080E189BD82E189BD09B400FEFDCF81E018
:105060008093F6018091CF01811109C00E94D40C78
:105070000E944D0D8091E20084608093E200809157
:10508000E10080FF17C08091E20080FF13C0809193
:10509000E2008E7F8093E2008091E2008061809345
:1050A000E2008091D80080628093D80019BC85E02E
:1050B0008093F6018091E10084FF27C08091E20097
:1050C00084FF23C080E189BD82E189BD09B400FE6F
:1050D000FDCF8091D8008F7D8093D8008091E10032
:1050E0008F7E8093E1008091E2008F7E8093E200CA
:1050F0008091E20081608093E2008091CE0188235C
:1051000009F445C084E08093F6018091E10083FFBB
:1051100027C08091E20083FF23C08091E100877F58
:105120008093E10082E08093F6011092CE0180919D
:10513000E1008E7F8093E1008091E2008E7F80937A
:10514000E2008091E20080618093E20042E060E052
:1051500080E00E941D0D8091F00088608093F00037
:10516000FF91EF91BF91AF919F918F917F916F913F
:105170005F914F913F912F910F900FBE0F901F9015
:10518000189519BC1092F6011092CF0178CF80913A
:10519000E30087FD02C081E0B6CF83E0B4CF1F9269
:1051A0000F920FB60F921124FF920F931F932F931C
:1051B0003F934F935F936F937F938F939F93AF939F
:1051C000BF93CF93DF93EF93FF9309EE10E0F801C5
:1051D0008081C091EC00C795CC27C7958F70FC2EBD
:1051E000F82A1082C0EFD0E08881877F8883789486
:1051F0000E949817F8011082888188608883CF2DDB
:10520000CF70C083FF91EF91DF91CF91BF91AF91AC
:105210009F918F917F916F915F914F913F912F91CE
:105220001F910F91FF900F900FBE0F901F90189538
:10523000DB018F939F930E946B2ABF91AF91A29F36
:10524000800D911DA39F900DB29F900D1124089584
:10525000991B79E004C0991F961708F0961B881FC8
:105260007A95C9F78095089587FB082E062687FD55
:10527000819567FD61950E9428290EF4919507FCA0
:1052800081950895AA1BBB1B51E107C0AA1FBB1F34
:10529000A617B70710F0A61BB70B881F991F5A95C2
:1052A000A9F780959095BC01CD01089597FB072E35
:1052B00016F4009407D077FD09D00E94422907FC1C
:1052C00005D03EF4909581959F4F08957095619516
:1052D0007F4F0895EE0FFF1F0590F491E02D099484
:1052E0000E94A02A332312F48A1B9B0B0C947A2968
:1052F0000E94A02AB7FF0895821B930B0895CF92B6
:10530000DF92EF92FF92CF93DF93CDB7DEB72A976C
:105310000FB6F894DEBF0FBECDBF89879A87A985E7
:10532000BA852D913D914D915C9129833A834B83B0
:105330005C83232B242B252B41F424E239ED4BE510
:1053400057E029833A834B835C8369817A818B811F
:105350009C812DE133EF41E050E00E944C2A69012D
:105360007A01A7EAB1E49B01AC010E946B2A698330
:105370007A838B839C83ACEEB4EFA70196010E94E5
:10538000792A9B01AC0189819A81AB81BC81820F12
:10539000931FA41FB51FB7FF03C00197A109B04811
:1053A000E985FA8580839183A283B3839F772A96C8
:1053B0000FB6F894DEBF0FBECDBFDF91CF91FF9047
:1053C000EF90DF90CF9008950E947F29089580E0AC
:1053D00091E00E947F290895B0E0A0E08093000151
:1053E00090930101A0930201B09303010895FC0181
:1053F0004150504030F001900616D1F73197CF015F
:105400000895882799270895F999FECF92BD81BD07
:10541000F89A992780B50895A6E1B0E044E050E0FD
:105420000C943E2AA8E1B0E042E050E00C943E2A01
:10543000262FF999FECF92BD81BDF89A019700B44D
:10544000021639F01FBA20BD0FB6F894FA9AF99AED
:105450000FBE08950396272F0E94192A0E94182A2A
:10546000252F0E94192A242F0C94192A0196272FE0
:105470000E94192A0C94182ADC01CB01FC01F9992D
:10548000FECF06C0F2BDE1BDF89A319600B40D9290
:1054900041505040B8F70895052E97FB1EF4009434
:1054A0000E94632A57FD07D00E947E2A07FC03D082
:1054B0004EF40C94632A50954095309521953F4FBA
:1054C0004F4F5F4F089590958095709561957F4FF0
:1054D0008F4F9F4F08950E94A02AA59F900DB49FC3
:1054E000900DA49F800D911D11240895B7FF0C9479
:1054F0006B2A0E946B2A821B930B0895A1E21A2E3D
:10550000AA1BBB1BFD010DC0AA1FBB1FEE1FFF1F67
:10551000A217B307E407F50720F0A21BB30BE40BB7
:10552000F50B661F771F881F991F1A9469F76095FE
:105530007095809590959B01AC01BD01CF010895B8
:10554000A29FB001B39FC001A39F700D811D1124C4
:10555000911DB29F700D811D1124911D0895F89425
:10556000FFCF36073C073F0745075A075A075A0738
:105570005A075A075A075A075A0748074D0751074B
:10558000570768076E0772077918A118381AA1180B
:10559000381AD418F518381AF319001A2D1D331DAE
:1055A000371D451D491D4D1D511D571D5F1D631D97
:1055B000671D6B1D771D7B1D7F1D831D891DA71D0D
:1055C000911D411D6F1D731D5B1D8D1D9D1DB01D0A
:1055D000B61DD61D021E091E0E1E131E181E1D1EF0
:1055E000221E271E2C1E311E361E381E3D1E401E3A
:1055F000431E461E491E4B1E4E1EB71EB71E321FAF
:10560000321F901FAC1FF01EF01EB71FBB20CC2016
:02561000CC20AC
:1056120001000000270CD712071359135D13010173
:10562200010201191A1B1C1D1E1F2021224875454B
:105632006855654875450028E295AFC2B0E79B8A78
:10564200C2B029E295AFE5BDA1E294BBE29481E24A
:1056520094BB00C2AF5C5F28E38384295F2FC2AF93
:1056620000000102020202060606090909090909E7
:105672000F0F0F0F0F0F15151518191919191919E1
:1056820019191919232425252525252530313233C9
:105692009091353697349694F0F1F4F5F6F7676603
:1056A20092E200E900EA00B500B600B700CD00833F
:1056B20001CC008A019201940121022302240225D5
:1056C20002260227022A02B300B4006F0070000013
:00000001FF
