:100000000C94CC030C9413040C9413040C9413045C
:100010000C9413040C9413040C9413040C94130404
:100020000C9413040C9413040C9479260C944C2710
:100030000C9413040C9413040C9413040C941304E4
:100040000C9413040C9413040C9413040C941304D4
:100050000C9413040C94CA210C9413040C941304F0
:100060000C9413040C9413040C9413040C941304B4
:100070000C9413040C9413040C9413040C941304A4
:100080000C94BF080C9413040C9413040C941304E4
:100090000C9413040C9413040C9413040C94130484
:1000A0000C9413040C9413040C94130411100F0EED
:1000B0000D0C0B0A0912131415160706050403028A
:1000C00001001B1C1D1E1F20083231302F2E2D3623
:1000D0003738393A3B1734FF29282726253F404136
:1000E000423C3D3E352C2B2AFFFFFF24FFFF4445B9
:1000F00046473A814681508B599D60B565D069EE7F
:100100006DFF80F73AFF40FF46FF4BFF50FF55FF62
:1001100059FF5DFF60FF35FF30FF2BFF27FF23FFF7
:1001200020FF22FFFFFFFFFF308B279D20B51BD054
:1001300017EE13FFFFFFFFFFFFFFC0FFB783AD8F79
:10014000A5A39FBC9AD8ADF8AAFFA5FF8009802E71
:1001500080528077809B80C0FFFF94FFA1FF001B2F
:1001600000400065008900AE00E9E4C9EBF2EDFF54
:10017000C380CE88D798DEAFFFFFD3F8D6FFDBFF72
:10018000DFFF781068105810481038102810181029
:100190000410042080007000600050004000300017
:1001A0002000100000009000A000B000C000D000AF
:1001B000E000D800FFFFFFFF88109810A810B810CB
:1001C000C810DC10FFFFFFFFFFFF704064305430A9
:1001D000443034302430403C2C4018406C205C20AB
:1001E0004C203C202C201C20FFFF0A3004407C20A7
:1001F0008C209C20AC20BC20D620B430CA30E0300B
:10020000743084309430A430FFFFA03CB440C84028
:10021000DC4035001E001F002000210022002300CA
:1002200024002500260027002D002E0031002B0081
:1002300014001A000800150017001C0018000C001C
:10024000120013002F0030002A002961040016005C
:10025000070009000A000B000D000E000F0033001C
:10026000340028002900E10000001D001B000600EA
:100270001900050011001000360037003800E500B5
:100280000551E200E200E300000000000000000071
:100290002C420000000000000351045105510100F0
:1002A0000100010001000100010001000100010046
:1002B0000100010001000100010001000100010036
:1002C0000100010001000100010001000100010026
:1002D000010001000100E000010001000100010037
:1002E0000100010001000100010001000100010006
:1002F00001000100000001000100010001000100F7
:1003000001000100010001000100010001000100E5
:100310000100010000000000000000002C000000AF
:100320000000000001000100010001003A003B0054
:100330003C003D003E003F004000410042004300C1
:1003400044004500010001000100520001000100CD
:100350000100010001000100010046000100010050
:100360004C000100500051004F00010001005000FE
:10037000510052004F000100010001000100010086
:100380000000010001000100010001000100010066
:10039000AC00AB00AE000100010001000100010053
:1003A000000000000000000001000000000000004C
:1003B0000100010001001114010001000100010011
:1003C00001000C1401000100010001002D080100D2
:1003D00001000100010001003414010001000100CE
:1003E0000100010001000100010001000100010005
:1003F00004140100010001000100010001000100DE
:1004000001000100081401000100010000000100CA
:1004100001000614010001000100010001000100BB
:1004200001000100010001000100010000000000C6
:1004300000000000010000000000000001000100B9
:1004400001000100010001000100010001000100A4
:100450000100010001000100010001000100010094
:100460000100010001000100010001000100010084
:100470000100010001000100010001000100010074
:100480000100010001000100010001000100010064
:100490000100010001000100000001000100010055
:1004A0000100010001000100010001000100010044
:1004B0000100010001000100000000000000000038
:1004C0000100000000000000010001000100005CCC
:1004D0000100010001000100010001000100010014
:1004E00001000100010001000100025F01000100A4
:1004F00001000100010001000100010001000100F4
:10050000010001000100035F010001000100010082
:1005100001000100010001000100010001000100D3
:100520000153010000000100010001000100010071
:1005300001000100010001000100010001000100B3
:1005400001000100000000000000000001000000A8
:100550000000000001000100010000010101010193
:10056000010101010202020202020202020303036C
:10057000030303030304040404040404050505053C
:1005800005060606060607070707070808080809FC
:100590000909090A0A0A0B0B0B0C0C0C0D0D0D0EA8
:1005A0000E0E0F0F0F10101111111212131314143D
:1005B000151516161717181819191A1A1B1B1C1DB2
:1005C0001D1E1E1F2020212222232424252626270B
:1005D0002829292A2B2C2D2D2E2F3031323233343D
:1005E00035363738393A3B3C3D3E3F404142434443
:1005F00045464748494A4C4D4E4F50515354555625
:1006000058595A5B5D5E5F616264656668696B6CD0
:100610006D6F7072737577787A7B7D7E808283854B
:1006200087888A8C8E8F91939596989A9C9EA0A28B
:10063000A3A5A7A9ABADAFB1B3B5B7BABCBEC0C295
:10064000C4C6C9CBCDCFD1D4D6D8DBDDDFE2E4E759
:10065000E9EBEEF0F3F5F8FAFDFF26037700690009
:100660006C00620061002E00740065006300680089
:10067000200057005400360030002D004200580082
:1006800000001603770069006C00620061002E0014
:100690007400650063006800000004030904090297
:1006A0003B00020100A0FA0904000001030101005F
:1006B0000921110100012240000705810308000AF9
:1006C00009040100010300000009211101000122B9
:1006D0006D000705820320000A12011001000000CE
:1006E000088265B16001000102000105010980A1D5
:1006F00001850319012AB700150126B70095017578
:10070000108100C0050C0901A101850419012AA06E
:1007100002150126A002950175108100C00501098E
:1007200006A1018505050719E029E71500250195B2
:1007300008750181020507190029EF1500250195AB
:10074000F0750181020508190129059505750191CA
:1007500002950175039101C005010906A101050774
:1007600019E029E715002501950875018102950119
:10077000750881010507190029FF150026FF00955E
:10078000067508810005081901290595057501916F
:1007900002950175039101C011241FBECFEFDAE06D
:1007A000DEBFCDBF04B603FE27C080916F059091D8
:1007B0007005A0917105B09172058730904BA740EC
:1007C000B04BD1F410926F05109270051092710524
:1007D0001092720514BE84B7877F84BF0FB6F89459
:1007E000A8958091600088618093600010926000FD
:1007F0000FBEE0E0F8E3099512E0A0E0B1E0E4E626
:10080000F5E502C005900D92A03CB107D9F725E0AF
:10081000A0ECB2E001C01D92AF36B207E1F70E9432
:10082000B9230C94632A0C9400000E94B9040C9420
:10083000EF100F931F93CF93DF93D82FC92F8B0106
:100840000E948B0AB8018D2F9C2FDF91CF911F91B1
:100850000F910C94320ECF93C82F0E9400058C2F5D
:10086000CF910C94D80E81E00C94FD0480E00C94A0
:10087000FD0482E290E00E94BE29813289F483E285
:1008800090E00E94BE29853059F484E290E00E94F5
:10089000BE2991E0813109F090E0892F817008959F
:1008A00080E0FCCF0E943904882341F00E948F0928
:1008B0000E949F090E94E4040C94F7040E94970987
:1008C000F7CFCF93C82F6FEF811161E282E290E002
:1008D0000E94DC296FEFC11165E083E290E00E9485
:1008E000DC296FEFC11161E184E290E0CF910C94BB
:1008F000DC290E94520481E00E9461040C94EE10F5
:10090000DB01E82FF0E0EE0FFF1FEE57FE4F949152
:100910009C933196E4911196EC931197863131F4C2
:100920008091050180FF02C098509C930895DB01DF
:10093000E82FF0E0EE0FFF1FEE50FF4F84918C93F5
:100940003196E4911196EC930895DA01853018F010
:100950008FEF8C9308956E30D8F7E62FF0E09EE08D
:10096000899FE00DF11D1124E455FF4FE491EC93B4
:10097000089560E084E70E94350D61E086E70E94FB
:10098000350D60E084E70E944A0D61E086E70C9433
:100990004A0DCF93DF930F92CDB7DEB7AE014F5F15
:1009A0005F4F0E94A504E981F0E0E453FC4F108200
:1009B0001092C4021092C5021092C6021092C70291
:1009C0000F90DF91CF9108958091C30281110EC0E5
:1009D00081E08093C3028DE0809391009FB7F894EB
:1009E00023E020939900809398009FBF0895E1E74A
:1009F000F0E080818260808308958093CD02089525
:100A00008093CC0208958091C8029091C902A09170
:100A1000CA02B091CB0224E0B695A7959795879529
:100A20002A95D1F783709927AA27BB278230910591
:100A3000A105B10579F083309105A105B10569F0F3
:100A400040E060E00197A105B10549F46FEF80E057
:100A50000C944D0C4FEF60E0FACF4FEF6FEF8FEF3C
:100A6000F7CF40E060E080E00C944D0CE5E0F1E071
:100A70006581768182810E94970B482F872F0C9485
:100A80004D0C5F926F927F928F929F92AF92BF9226
:100A9000CF92DF92EF92FF920F931F93CF93DF934A
:100AA0000F92CDB7DEB760910A0170910B01809172
:100AB00007010E94970BE62E972E882E60910C015D
:100AC00070910D01809107010E94970B762E672E81
:100AD000582E85E0C82E81E0D82EF12CAA24A394AC
:100AE000B12C10E000E0AE014F5F5F4F602F8F2D03
:100AF0000E94A50489818834A0F490E0F60145891C
:100B000056899501002E02C0220F331F0A94E2F786
:100B100024233523232B11F5282D4E2D692D0E94DA
:100B2000220C0F5F1F4F0E301105E9F6F2E0CF0ED9
:100B3000D11CF39485E0F812D4CF0F90DF91CF91C0
:100B40001F910F91FF90EF90DF90CF90BF90AF90EB
:100B50009F908F907F906F905F900895252D472DE7
:100B6000662DDDCFDF92EF92FF920F931F93CF930D
:100B7000DF9300D0CDB7DEB780910C0190910A01D0
:100B8000891B990B803891050CF446C09A9597FD06
:100B900003969595879595958795182F80910D01CA
:100BA00090910B01891B990B97FD0396959587955D
:100BB00095958795082FD0900701F12CE12CBE0167
:100BC0006F5F7F4F8E2D0E9480048A8182958F7087
:100BD00060910A01819F600D112470910B01809F2B
:100BE000700D11248D2D0E94970B462F672F282FF3
:100BF000C7010E94220C8FEFE81AF80A28E4E216D7
:100C0000F104E9F60F900F90DF91CF911F910F91B2
:100C1000FF90EF90DF90089581382FEF92070CF04E
:100C2000B6CF9395B4CFAF92BF92CF92DF92EF92AF
:100C3000FF920F931F93CF93DF93F82EE0900A015A
:100C400020910C012E19330B37FF02C02D5F3F4F4F
:100C50003595279535952795D22FB0900B0120918A
:100C60000D012B19330B37FF02C02D5F3F4F359518
:100C7000279535952795C22F0E94972968E470E043
:100C80000E94152910E000E06C01DD24F11003C082
:100C9000C016D106C9F40E9497298370AE2C8D9F8F
:100CA000A00C11240E94972983707B2D8C9F700DBE
:100CB00011246A2D809107010E94970B462F672F00
:100CC000282FC8010E94220C0F5F1F4F0834110506
:100CD000E9F6DF91CF911F910F91FF90EF90DF9098
:100CE000CF90BF90AF900895DF92EF92FF920F9355
:100CF0001F93CF93DF93209109018091C8029091B7
:100D0000C902A091CA02B091CB0204C0880F991FFA
:100D1000AA1FBB1F2A95D2F7D82E8CECE82E83E0B1
:100D2000F82ED0E0C0E00FE310E0F70181917F01E1
:100D3000F4E08F9FC0011124CA32D10551F0C334B1
:100D4000D10539F02091050123FF09C0C434D10534
:100D500031F48091F00324E0829FC0011124B80196
:100D6000681B790B8034910508F060E06D0D7FEF12
:100D7000809107010E94970B462F672F282FCE01E5
:100D80000E94220C2196C834D10579F6DF91CF91CB
:100D90001F910F91FF90EF90DF9008958F929F9297
:100DA000AF92BF92CF92DF92EF92FF920F931F9379
:100DB000CF93DF9300D0CDB7DEB7209109018091AA
:100DC000C8029091C902A091CA02B091CB0204C09E
:100DD000880F991FAA1FBB1F2A95D2F7B82EA09083
:100DE00007018CECE82E83E0F82E10E000E09FE392
:100DF000C92ED12CF70181917F01F4E08F9FC001B2
:100E000011240A32110551F00334110539F02091F3
:100E1000050123FF09C00434110531F48091F0036A
:100E200024E0829FC00111244601881A990A803467
:100E3000910508F0812CBE016F5F7F4F802F0E94CB
:100E4000800469816B0D680D7FEF8A2D0E94970BDE
:100E5000462F672F282FC8010E94220C0F5F1F4FBB
:100E60000834110539F60F900F90DF91CF911F9143
:100E70000F91FF90EF90DF90CF90BF90AF909F9039
:100E80008F9008958F929F92AF92BF92CF92DF92F0
:100E9000EF92FF920F931F93CF93DF9300D0CDB7C4
:100EA000DEB7209109018091C8029091C902A091FA
:100EB000CA02B091CB0204C0880F991FAA1FBB1FA2
:100EC0002A95D2F7B82EA09007018CECE82E83E08B
:100ED000F82E10E000E09FE3C92ED12CF70181919C
:100EE0007F01F4E08F9FC00111240A32110551F0F7
:100EF0000334110539F02091050123FF09C00434A2
:100F0000110531F48091F00324E0829FC001112487
:100F10004601881A990A8034910508F0812CBE0197
:100F20006F5F7F4F802F0E9480046A816B0D680D78
:100F30007FEF8A2D0E94970B462F672F282FC8011D
:100F40000E94220C0F5F1F4F0834110539F60F90D5
:100F50000F90DF91CF911F910F91FF90EF90DF9055
:100F6000CF90BF90AF909F908F900895EF92FF9297
:100F70000F931F93CF93DF93182F0E94972968E454
:100F800070E00E941529D0E0C0E07C01FF2411111F
:100F900003C0EC16FD0689F40E949729082F0E94D1
:100FA0009729782F602F809107010E94970B462F79
:100FB000672F282FCE010E94220C2196C834D1051C
:100FC00031F7DF91CF911F910F91FF90EF9008952E
:100FD000EF92FF920F931F93CF93DF9300D0CDB783
:100FE000DEB7209109018091C8029091C902A091B9
:100FF000CA02B091CB0204C0880F991FAA1FBB1F61
:101000002A95D2F7F82EE090070110E000E0BE012B
:101010006F5F7F4F802F0E94970469816F0D7A81E7
:101020008E2D0E94970B462F672F282FC8010E94F4
:10103000220C0F5F1F4F0834110549F70F900F90D6
:10104000DF91CF911F910F91FF90EF900895EF9254
:10105000FF920F931F93CF93DF9300D0CDB7DEB7EE
:10106000209109018091C8029091C902A091CA0201
:10107000B091CB0204C0880F991FAA1FBB1F2A95ED
:10108000D2F7F82EE090070110E000E0BE016F5F9C
:101090007F4F802F0E94970469816F0D862F880FE4
:1010A000880B68276695669580910A01680F7A819A
:1010B000769571588E2D0E94970B462F672F282FFB
:1010C000C8010E94220C0F5F1F4F08341105F1F672
:1010D0000F900F90DF91CF911F910F91FF90EF90A4
:1010E0000895CF93C82F809107010E94970B282F56
:1010F000CE3F29F4482F872FCF910C944D0C462FCB
:10110000672F8C2F90E0CF910C94220C80911001CE
:101110008F3F51F09091CC0291FF06C060910E017B
:1011200070910F010E94710883E00E94F71C8823D0
:1011300049F08091190160911701709118018F3F5A
:1011400071F4089582E00E94F71C882351F0809189
:10115000160160911401709115018F3F91F30C9469
:10116000710881E00E94F71C882359F380911301D4
:101170008F3F39F36091110170911201F0CF1F92EE
:101180000F920FB60F9211240F931F932F933F933B
:101190004F935F936F937F938F939F93AF93BF937F
:1011A000CF93EF93FF938091C2028431B8F48F5FA5
:1011B0008093C202FF91EF91CF91BF91AF919F9128
:1011C0008F917F916F915F914F913F912F911F91DF
:1011D0000F910F900FBE0F901F9018958091C8022D
:1011E0009091C902A091CA02B091CB020196A11DB3
:1011F000B11D8093C8029093C902A093CA02B09314
:10120000CB028091C4029091C502A091C602B09118
:10121000C7028F3F2FEF9207A207B20759F001963E
:10122000A11DB11D8093C4029093C502A093C60274
:10123000B093C702ECECF3E081918F3F21F0DF0126
:1012400011978F5F8C9384E0E431F807A9F7E09160
:101250000801EF3F19F40E940305ACCF8091CD0245
:10126000882321F08091050185FD1FC08091060132
:101270008823C9F020EB34E0829FA001839F500DAA
:101280001124052E000C660B770B81E00091C4023F
:101290001091C5022091C6023091C7024017510734
:1012A0006207730718F080E001C081E0C82FC170A9
:1012B00080FDE0E081E0909104019E1301C080E098
:1012C000E0930401E150EA3028F4F0E0EB59F54DE9
:1012D0000C9429290E943105C1116CCF0E94860807
:1012E00069CF0E943605F8CF0E944105F5CF0E94D4
:1012F000B205F2CF0E941306EFCF0E947406ECCF26
:101300000E94CE06E9CF0E944207E6CF0E94B607B0
:10131000E3CF0E94E807E0CF0E942708DDCF4FE12E
:1013200050E066E270E085E091E00C94AE294FE178
:1013300050E066E270E085E091E00C94CC29CF9318
:10134000DF930E94720D84E70E94D20B86E70E9411
:10135000D20BD0E0C0E0CE0149978230910550F029
:101360000897039738F0C333D10521F061E0C33407
:10137000D10509F460E06170262F462F8C2F0E9462
:10138000670C2196C834D10531F760E084E70E94EC
:101390004A0D61E086E70E944A0D48E450E06FEF95
:1013A00070E08CEC93E0DF91CF910C94A7298091B1
:1013B000080190E001968B30910514F08AE090E0EE
:1013C000809308010C949709809108018150990B32
:1013D00097FF02C090E080E08B30910514F08AE026
:1013E00090E0809308010C9497098091090190E0A6
:1013F00001968430910514F083E090E08093090118
:101400000C949709809109018150990B97FF02C0B4
:1014100090E080E08430910514F083E090E08093C8
:1014200009010C9497098091070190E008968F3F7D
:10143000910519F014F08FEF90E0809307010C9460
:101440009709809107018850990B97FD80E0809360
:1014500007010C94970980910A0190E008968F3F4C
:10146000910519F014F08FEF90E080930A010C942D
:10147000970980910A018850990B97FD80E080932D
:101480000A010C94970980910B0190E008968F3F18
:10149000910519F014F08FEF90E080930B010C94FC
:1014A000970980910B018850990B97FD80E08093FC
:1014B0000B010C94970980910C0190E008968F3FE6
:1014C000910519F014F08FEF90E080930C010C94CB
:1014D000970980910C018850990B97FD80E08093CB
:1014E0000C010C94970980910D0190E008968F3FB4
:1014F000910519F014F08FEF90E080930D010C949A
:10150000970980910D018850990B97FD80E0809399
:101510000D010C9497090F931F93CF93DF93EC0168
:101520008B01DB0112968C911297882329F06C9124
:1015300011968C910E94C904FE01FF55C1E0EE3066
:10154000F105C0F5E159F54DD8011296CC910C94F6
:101550002929CC2379F10E94130AC0E02BC0CC23A7
:1015600049F10E94210AF9CFCC2321F10E94D70929
:10157000F4CFCC23F9F00E94E409EFCFCC23D1F0D3
:101580000E94F509EACFCC23A9F00E94020AE5CF18
:10159000CC2381F00E942B0AE0CFCC2359F00E948B
:1015A000390ADBCFCC2331F00E94430AD6CFC111D8
:1015B0000E94510A8C2FDF91CF911F910F910895B6
:1015C000CC23C1F30E945B0AC8CFCC2399F30E94BD
:1015D000690AC3CFCC2371F30E94730ABECFCC2318
:1015E00049F30E94810AE6CFAF92BF92CF92DF9279
:1015F000EF92FF920F931F93CF93DF938B01282FCE
:10160000111114C0442329F090E0865A9A4FFC012E
:101610008491682F782FDF91CF911F910F91FF90C8
:10162000EF90DF90CF90BF90AF900895C12FD0E0A2
:1016300030E0442329F0265A3A4FF901249130E052
:10164000F6E00F9F70011124EFEFF0E0C701BF013A
:101650000E940129AB01802F90E0880F991FA5E51A
:10166000A49FB001A59F700D1124861B970B782FA6
:10167000770F780FCF018C1B9D0B829FD001839F2A
:10168000B00D929FB00D11246B2F719FC0011124DA
:10169000892F99278F01081B190BC801829F800190
:1016A000839F100D929F100D1124812F5F01A71AA7
:1016B000B108AC9E6001AD9ED00CBC9ED00C112434
:1016C000CD2CDD24EC19FD09E29FE001E39FD00D54
:1016D000F29FD00D1124722F43305105D1F09CEFB1
:1016E000E91693E0F90670F441305105B1F042304B
:1016F0005105B9F0EFEFEE16F10408F08CCF8B2F07
:101700006D2F89CF4430510579F046305105B9F33A
:1017100082CF612F822F7B2F7ECF622F712F8B2F55
:101720007ACF8D2F622FF7CF822F7D2F74CF41E09C
:101730000C94F40AE4E3F5E06083418324E630E0AE
:1017400042E050E0BF01880F0C94030EEF92FF922D
:101750001F93CF93DF937B01182F110FD0E0C0E0D0
:101760008C2F8C5D80933405D701AC0FBD1FE5E352
:10177000F5E08D91819385E0E534F807D1F724E613
:1017800030E041E150E064E375E0812F0E94030EF8
:101790006096C039D10521F7DF91CF911F91FF905D
:1017A000EF900895CF93DF93C82F4BE06DEF0E9429
:1017B0009A0B40E06AE08C2F0E949A0B8FE39CE921
:1017C0000197F1F700C0000040E060E08C2F0E941C
:1017D0009A0B40E061E08C2F0E949A0B40E066E09B
:1017E0008C2F0E949A0B40E06DEF8C2F0E949A0B79
:1017F000D0E040E06D2F8C2F0E949A0BDF5FD2313A
:10180000C1F740E06D2F8C2F0E949A0BDF5FD4321E
:10181000C1F740E06D2F8C2F0E949A0BDF5FD43B05
:10182000C1F74BE06DEF8C2F0E949A0B41E06AE00C
:101830008C2F0E949A0B40E06DEF8C2FDF91CF919F
:101840000C949A0BFC018834910530F5EE0FFF1FC4
:10185000EE0FFF1FEF5CFE4F52813381808183705A
:10186000A82FB0E07181E0E98E9FC00111248C5E49
:101870009B4FFC01E70FF11DB4976083FC01E50F5E
:10188000F11DB4974083830F911DFC01B497208311
:10189000AC50BD4F81E08C930895FF920F931F933E
:1018A000CF93DF93182F062FF42ED0E0C0E02F2D1A
:1018B000402F612FCE010E94220C2196C834D10501
:1018C000B1F7DF91CF911F910F91FF9008958F9203
:1018D0009F92AF92BF92CF92DF92EF92FF920F93BF
:1018E0001F93CF93DF93A62E34E0839FF001112442
:1018F000DF01AF5CBE4F11968C911197682F645237
:10190000770B6B0112966C9170E0CB0184977C0190
:1019100097FF04C07B01ADE1EA1AF10863E0F5949A
:10192000E7946A95E1F7DF01AF5CBE4F13966C91C7
:1019300070E0EB01A4978E01D7FF02C0095F1F4F33
:1019400033E0159507953A95E1F758E0852E912CEF
:10195000B4010E941529B82ECE01B4010E941529A8
:10196000382FEF5CFE4FE081E370F0E0E601D7FC3A
:10197000279683E0D595C7958A95E1F7DD2782E123
:101980008E9FD0018F9FB00D1124A053BD4FAC0F7F
:10199000BD1F9C90C60168E070E00E94152961E0BF
:1019A00070E0DB0102C0AA0FBB1F8A95E2F7CD01F0
:1019B000AA2009F451C09A2A82E18E9FB0018F9F1C
:1019C000700D112460537D4FC60FD71F9882C70139
:1019D0009927680F791FDB015C9161E070E001C01D
:1019E000660FBA94EAF74423D1F1652B72E17E9F2A
:1019F000A0017F9F500D112440535D4F840F951F10
:101A0000DC016C931127400F511FDA014C9181E0EA
:101A100090E001C0880F3A95EAF7222319F1842B50
:101A200092E19E9FD0019F9FB00D1124A053BD4F06
:101A3000A00FB11F8C93E253FD4F81E08083DF91B3
:101A4000CF911F910F91FF90EF90DF90CF90BF90BB
:101A5000AF909F908F90089580959822ADCF60951C
:101A60006523C4CF80958423DBCFCF93DF93C62F2C
:101A7000D0E0CC50DD4F9881992341F090E9699FE7
:101A8000B00111246C5E7B4F0E94A60B1882DF917F
:101A9000CF910895EF92FF920F931F93CF93DF930F
:101AA000E82E062F10E002531D4FF8018081882395
:101AB00081F0F2E16F9FE0011124C053DD4FF12C62
:101AC00049916F2D8E2D0E949A0BF39482E1F812AA
:101AD000F7CFF8011082DF91CF911F910F91FF9006
:101AE000EF9008951092B9008CE08093B8000895AB
:101AF000EF92FF920F931F93CF93DF93182FEB0179
:101B00001092BC0084EA8093BC000E948F217C016B
:101B10008091BC0087FF27C08091B900887F883002
:101B200029F08091B900887F8031D9F51093BB00EE
:101B300084E88093BC000E948F218C018091BC00BE
:101B400087FF24C02091B900287F90E080E02831F1
:101B5000B1F081E090E0203411F490E080E09195C4
:101B6000819591090CC0CF3FDC0791F20E948F2133
:101B70008E199F098C179D0758F28EEF9FEFDF910A
:101B8000CF911F910F91FF90EF900895CF3FDC0709
:101B9000A9F20E948F21801B910B8C179D0770F278
:101BA000ECCF8FEF9FEFEBCF0F931F93CF93DF938C
:101BB000EB018093BB0084E88093BC000E948F21DE
:101BC0008C018091BC0087FF11C02091B900287F53
:101BD00081E090E0283211F490E080E091958195C9
:101BE0009109DF91CF911F910F910895CF3FDC07AD
:101BF00041F30E948F21801B910B8C179D0708F3E6
:101C00008EEF9FEFEECFCF92DF92EF92FF920F9386
:101C10001F93CF93DF936B018A01F22EE32E622F85
:101C2000732F0E94780DAC01E6010C0D1D1DC0172D
:101C3000D10711F057FF0DC084E98093BC00CA01A1
:101C4000DF91CF911F910F91FF90EF90DF90CF9098
:101C500008956F2D7E2D89910E94D40DAC01E7CFA0
:101C600081E0089581E0089508950C94340E1F9347
:101C7000CF93DF9300D000D00F92CDB7DEB749836A
:101C80005A836B833091160389819A8131111DC06B
:101C90006623B9F02223A9F00E949E1E182F682FF8
:101CA00089819A810E94471E69817A81812F0F90D4
:101CB0000F900F900F900F90DF91CF911F910C9488
:101CC000E90E0E94751E182FEFCF0E949E1E69819B
:101CD0007A81EDCFFC01262F408151816281738191
:101CE00084810C94370ECF93DF93D82FC92F60E0F7
:101CF0000E946A0E6D2F7C2FDF91CF910C94350ED0
:101D00000E9419220E94F51F811102C00E94992091
:101D10000C9479040C94150408950E94E2180E9412
:101D20008C0E2FEF84E39CE0215080409040E1F73F
:101D300000C000000C94EE210F931F93CF93DF930C
:101D4000EC0161E00E946A0E8C01BE010E94190440
:101D5000882329F1BE01C8010E9479128823F9F075
:101D6000BE01C8010E94CE128823C9F0BE01C8017D
:101D70000E94A613882399F08A81882339F00115DF
:101D80008CE5180751F00F3D1C4579F0CE01DF912D
:101D9000CF911F910F910C94300E0E948D0E80E018
:101DA000DF91CF911F910F9108950E949920F7CF55
:101DB000089581E008950C94D90ECF93C82F0E9406
:101DC0002B048C2FCF910C94DB0E90E080E00895D3
:101DD0000895972F70E02EE0929F600D711D1124E1
:101DE000FB0196E4899FE00DF11D1124EE0FFF1F0A
:101DF000EE5EFD4F859194910895FC01EE0FFF1F5B
:101E0000E65AFA4F859194910895CF93DF930E94FB
:101E1000E90E0E941310EC01811521E5920708F0EC
:101E20003FC0811530E5930708F0B1C0803E9105B1
:101E3000E8F4803C910508F097C0883A910578F461
:101E4000853A910508F082C08130910521F0049710
:101E5000813A910540F4CE01DF91CF9108958F3BF7
:101E6000910509F076C0D0E0C0E0F5CFC11580E360
:101E7000D80770F4C11520E2D20708F07BC0C83E35
:101E8000D10548F3CE019A9581159F4120F3EBCF00
:101E9000C11580E4D80708F470C0DF70D06ADBCFCA
:101EA000811526E5920760F5811535E5930708F061
:101EB000A2C0C11584E5D807F0F4C11523E5D20707
:101EC00008F085C0C11532E5D30708F47BC09E0138
:101ED0002370332781E090E002C0880F991F2A9574
:101EE000E2F7C695C69520E2C29FE0011124C82BF7
:101EF000D92BDC68B0CFDC2FCC27C46FD06AABCF36
:101F000081153AE5930788F4C11589E5D80708F0EB
:101F10007CC0CE0198558F3F910511F008F0A3CFFA
:101F2000DC2FCC27C06FD06A96CF90568115904297
:101F300008F099CF8D2F8F710E94AB1090E0982FF1
:101F4000882788279F718C2BEC015DC0A497D064F3
:101F500082CFC85AD0E0CC0FDD1FCF5ADD4F099099
:101F6000D881C02DD46477CF805C91090E94FD0E8A
:101F7000EC0171CFCE019F70F9CFCE019927D3FF2D
:101F800003C0EC01D86C67CFEC01D06C64CF9C012E
:101F900074E0369527957A95E1F7237086958695B6
:101FA000837030E2839FC0011124922BC37021E023
:101FB00030E002C0220F331FCA95E2F7822B932B29
:101FC000EC0197CFDC2FCC27C16FD06A44CF9E01A4
:101FD0002370332781E090E002C0880F991F2A9573
:101FE000E2F7C695C69520E2C29FE0011124C82BF6
:101FF000D92BDA6830CF0E94AB10C82FD0E0DC2F8D
:10200000CC27CC27DF71D06226CF8C2F8F700E9417
:10201000AB1034E0D695C7953A95E1F7CF709C2F79
:10202000EC01D06918CF803E910599F1C8F4813355
:10203000910509F476C048F48932910509F46AC023
:102040008A32910509F474C0089589339105D1F05D
:1020500082389105B9F08533910509F454C008958B
:10206000843E910599F138F4823E9105F9F0833E62
:10207000910509F10895863E910599F1873E9105F4
:10208000B9F10895209160052370A1F080EE90E0F1
:1020900008952091600520FD52C03091610530FF08
:1020A00009C024FF4FC090E080E004C0209160058B
:1020B00022FDF7CF08952091600522FD46C03091A2
:1020C000610530FDE3CF24FFF5CFEDCF2091610511
:1020D00021FFF0CF8091600584FDE5CF87EE90E091
:1020E00008952091600523FFE5CF24FDDCCFF6CFD6
:1020F0002091600523FD2CC03091610531FFE3CFB5
:1021000084EE90E008952091600525FFD3CF89E209
:1021100090E008952091600525FFCCCF85E390E005
:1021200008952091600526FFC5CF8AE290E00895CA
:102130002091600526FFBECF81E390E0089589E3FA
:1021400090E0089583EE90E0089582EE90E0089587
:1021500086EE90E008959091600592FF06C0282FCA
:1021600028712830F9F4877F846093FF06C0282FF8
:1021700028712831F1F4877E84612091610520FF68
:1021800006C0382F38713830D9F4877F816021FF3D
:1021900006C0282F28712831D1F4877E816194FDF3
:1021A000877E0895282F24712430F9F68B7F88606C
:1021B000DCCF282F2471243101F78B7E8861DDCF9D
:1021C000382F3171313019F78E7F8860E0CF282F9A
:1021D0002171213121F78E7E8861E1CF0895089524
:1021E000E82FF0E0EE0FFF1FEE5AFA4F8081918149
:1021F0000895089580EA8A95F1F7089500C008953A
:102200000C94FA10F894E82FE295EF70F0E041A1F9
:102210008F7021E030E0B90102C0660F771F8A9508
:10222000E2F7CB01962F9095942391A392A1892B4D
:1022300082A3789408950F931F93CF93DF9380EF39
:102240000E94021181EF0E94021184EF0E9402118C
:1022500086EF0E94021187EF0E940211CFE7D2E0C1
:102260000DE812E089910E9402110C171D07D1F7A9
:102270008AE0E8E4F5E0DF01982F1D929A95E9F7EE
:10228000E2E5F5E0DF011D928A95E9F785E00E941D
:10229000D311DF91CF911F910F910C94800EAF92CB
:1022A000BF92CF92DF92EF92FF920F931F93CF9343
:1022B000DF930DE812E0C8E4D5E0C12CD12CEE2468
:1022C000E394F12CF80181918F01F894E82FE295C5
:1022D000EF70F0E021A18F70A70102C0440F551FDD
:1022E0008A95E2F7CA01922F982B91A392A180952B
:1022F000892382A378940E94FE10EFE7F2E030E099
:1023000020E0B12CA12C4191A42FA295AF70A05E2A
:10231000B0E08C9190E04F7002C0959587954A95FA
:10232000E2F780FD3BC0C701022E02C0880F991F53
:102330000A94E2F7A82AB92A2F5F3F4F2E303105C1
:1023400011F7F801319780810E94021154E0C51203
:102350000E94001188819981A816B90611F1B982ED
:10236000A88281E0D82AC394229685E0C812AACF19
:102370002D2D45E062E575E088E495E00E94D411DA
:102380000E948A0E8D2DDF91CF911F910F91FF90AA
:10239000EF90DF90CF90BF90AF90089580E090E0F5
:1023A000C9CF80E0DFCF0895FF920F931F93CF93A3
:1023B000DF93F82E092F162FD72FC42F222349F091
:1023C00081E08093F8020E948F219093F70280931E
:1023D000F6028091F8028823A1F08091F602909194
:1023E000F7020E94BB21069760F0EF2DF02FA12F7E
:1023F000BD2F90E080E0D0E08C179D0744F0109254
:10240000F802DF91CF911F910F91FF9008952191D4
:1024100031912D933D930196EFCF0F931F93CF935F
:10242000DF93C42FD22FFC0182818823C9F040930F
:10243000FB020E948F219093FA028093F90280E2BE
:102440008C0F883008F050C0C77081E001C0880F41
:10245000CA95EAF7DF91CF911F910F910C9438162E
:102460001091FB02141335C08091F9029091FA0289
:102470000E94BB21883C910560F5C0E2CD0F1D177D
:10248000B9F080E2810F883040F4177081E001C01C
:10249000880F1A95EAF70E943F16C83048F481E089
:1024A0009D2F977001C0880F9A95EAF70E94381601
:1024B000802F0E943016C830B8F4D77081E001C078
:1024C000880FDA95EAF7DF91CF911F910F910C9465
:1024D0003F1680E28C0F883038F4C77081E001C06D
:1024E000880FCA95EAF7EFCFDF91CF911F910F9137
:1024F00008950F939C01CB01243F4CE53407A1F1D3
:1025000090F4293DFCE53F0749F12A3D4CE53407AD
:10251000E9F1283D3C45C1F0FC0182818823E1F1CD
:102520001092FB0219C0263FFCE53F0719F1273F37
:102530004CE5340729F1253F3C4571F707E225EECC
:1025400044EE65EF7CE505C006E221EE41EE68ED64
:102550007CE50E940D1280E00F91089507E225EEC0
:1025600045EE69ED7CE5F5CF06E221EE40EE64EF45
:102570007CE5EFCF06E221EE42EE66EF7CE5E9CFA7
:1025800007E225EE46EE67EF7CE5E3CF08E221E0C7
:1025900045EE6AED7CE5DDCF81E0DECFCF93DF93C2
:1025A000EC01FB018281882309F4CEC0C631FCE531
:1025B000DF07E0F4C2309CE5D907F0F00E94082064
:1025C0009093610580936005C631ECE5DE0720F548
:1025D000C230FCE5DF0798F48091600590916105B9
:1025E0000E9416200E94E21880E006C09E012B5F28
:1025F0003C452930310510F3DF91CF910895FE015C
:10260000E350FC45809160058160E331F105B0F451
:10261000E358F54D0C942929CE018B5F9C45099711
:10262000D8F6FE01EC5FFC45E830F10590F4E05788
:10263000F54D0C9429298091600582608093600596
:10264000CBCF809160058460F9CF80916005886070
:10265000F5CF80916105816080936105BDCF809148
:1026600061058260F9CF809160058061E7CF80913C
:1026700060058062E3CF809160058064DFCF0E94B7
:10268000E218809160058068D9CF809160058C60E8
:10269000D5CF809161058360DFCF809160058E7F0B
:1026A000CDCF809160058D7FC9CF809160058B7FF4
:1026B000C5CF80916005877FC1CF809161058E7FF6
:1026C000CBCF809161058D7FC7CF809160058F7ED4
:1026D000B5CF809160058F7DB1CF809160058F7BF4
:1026E000ADCF0E94E218809160058F77A7CF8091CF
:1026F0006005837FA3CF809161058C7FADCF8091F2
:10270000600582FB992790F921E0922790FB82F9DE
:1027100090FB83F993CF80916105982F90959170EC
:102720008E7F892B90FB81F997CF0E94E2189091C0
:102730006005892F97FB87F9805880CF81E00E9440
:102740009B204ACF80E0FBCF81E056CFCF93DF9331
:10275000EB0186319C4511F50E943B1F9A8199231C
:1027600099F08A7A91E009F490E09093FC0281114B
:1027700009C089E20E94161F0E948A1F80E0DF9133
:10278000CF91089585E3F6CF8091FC02811104C0BA
:1027900089E20E941D1FF0CF85E3FBCF81E0EFCFE0
:1027A00090930203809301030895E0910103F09157
:1027B0000203309721F00190F081E02D099480E030
:1027C0000895DC01E0910103F0910203309799F044
:1027D00080913001882351F08091600587FF06C009
:1027E0008C9111968C93119785E08C930280F381E4
:1027F000E02DCD01099408952091FF02309100034E
:102800002817390771F0909300038093FF02E0913D
:102810000103F0910203309721F00680F781E02D4B
:10282000099408952091FD023091FE02281739077E
:1028300071F09093FE028093FD02E0910103F0910C
:102840000203309721F00084F185E02D099408956A
:102850000E949B21609312037093130380931403CF
:102860009093150360930E0370930F0380931003EE
:1028700090931103089585B7806885BF85B78068F8
:1028800085BF0895089508950C94421408950C94FA
:1028900046140E943B148DEE9FE10E9412220E947A
:1028A00043140C94441481E008950C945314089537
:1028B00008950E9486210E941B110E942D220C94D3
:1028C00047148F929F92AF92BF92CF92DF92EF9276
:1028D000FF920F931F93CF93DF9300D000D00F92FE
:1028E000CDB7DEB70E9457140E9458140E944F11B2
:1028F00081110E94281454E0852E53E0952E10E09B
:1029000000E0A02E802F0E94F0107C01F401C19005
:10291000D1904F01C816D90609F459C08091A90376
:1029200081FD0E94F910C6018E259F25B12CCC2473
:10293000C394D12C9C012C213D21232B09F441C0AF
:102940000E9455148823A9F0B982AA82EC20FD20A8
:1029500081E0EF2809F480E08B830E948F21816061
:10296000782F9D838C8349815A816B81892F0E94A6
:102970001015000F111FF801EC5FFC4F8081918151
:102980008C259D25918380830E94D513909103030C
:102990008917A1F10E94D513809303030F900F9024
:1029A0000F900F900F90DF91CF911F910F91FF909B
:1029B000EF90DF90CF90BF90AF909F908F900C944E
:1029C000DD0EB394CC0CDD1CFEE0BF12B3CF0F5F65
:1029D0001F4F0530110509F094CF8FEF89838A834B
:1029E0001B820E948F218160782F9D838C83498177
:1029F0005A816B81892F0E941015C6CF0F900F90BE
:102A00000F900F900F90DF91CF911F910F91FF903A
:102A1000EF90DF90CF90BF90AF909F908F900895F0
:102A2000CF93DF93CDB7DEB72B970FB6F894DEBF09
:102A30000FBECDBF4F83588769877A878B87611117
:102A40000E945D1F1E8285E0FE013796DE01119611
:102A500001900D928A95E1F749815A816B817C81C1
:102A60008D819E812B960FB6F894DEBF0FBECDBF31
:102A7000DF91CF910C94401BFC01808191810C94DB
:102A8000E01ECF93C82F882309F482C08238C1F496
:102A90000E94D51381FD7CC089E30E94161F0E940D
:102AA0008A1F2FEF31EE84E0215030408040E1F763
:102AB00000C0000089E30E941D1FCF910C948A1F63
:102AC0008338A1F40E94D51380FD62C083E50E9483
:102AD000161F0E948A1F9FEF21EE34E09150204084
:102AE0003040E1F700C0000083E5E5CF8438A1F471
:102AF0000E94D51382FD4CC087E40E94161F0E94DD
:102B00008A1F8FEF91EE24E0815090402040E1F742
:102B100000C0000087E4CFCF8CEF8C0F813A90F497
:102B20006C2F80912401909125010E94B42088236C
:102B300029F08C2F0E941D1F0E948A1F8C2F0E943B
:102B4000161FBBCF80E28C0F883048F4C77081E03D
:102B500001C0880FCA95EAF70E943E1FAECF8BE5F1
:102B60008C0F833038F42C2F2452330BC901CF91B2
:102B70000C94FC13C85AC73158F4EC2FF0E0EE0F58
:102B8000FF1FEE56FD4F80819181CF910C9412145E
:102B9000CF910895882309F44BC0823871F40E94C4
:102BA000D51381FF45C089E30E94161F0E948A1F2A
:102BB00089E30E941D1F0C948A1F833859F40E94D8
:102BC000D51380FF35C083E50E94161F0E948A1F1F
:102BD00083E5EFCF843859F40E94D51382FF28C0D3
:102BE00087E40E94161F0E948A1F87E4E2CF9CEFB1
:102BF000980F913AF0F290E2980F983050F4877065
:102C000091E001C0990F8A95EAF7892F0E94441F2D
:102C1000D2CF9BE5980F933020F490E080E00C94A5
:102C2000FC13885A873120F490E080E00C94121451
:102C300008951F93CF93DF93182FEB010E94411546
:102C4000209731F4812FDF91CF911F910C94CA15F9
:102C50008FE99FE00197F1F700C000002197F0CFC6
:102C600070E060E0893311F460E570E00C941916AF
:102C7000882321F00E943E1F0C948A1F0895882308
:102C800021F00E94441F0C948A1F0895AF92BF92B6
:102C9000CF92DF92EF92FF920F931F93CF93DF9328
:102CA00000D000D00F92CDB7DEB76C016D83798371
:102CB000FC011281058102950F700E94341FE82EDD
:102CC0008823A1F0E12E112389F08981807F80344F
:102CD00029F08D81805EE12C883040F082E00E94F6
:102CE000D51F0E94341F91E0E82EE926A980A29406
:102CF0009FE0A922B12CF501E856F54D0C94292945
:102D000009810F70F981F07F11F00295007F112386
:102D1000B1F0002361F08D81805E883018F01D8154
:102D2000111109C0802F0E943E1F0E948A1F8D81B1
:102D30000E94411515C0802F0E944F1FF6CF8D8134
:102D40000E94CA15002361F08D81805E883018F0E2
:102D50001D81111133C0802F0E94441F0E948A1FC1
:102D600098E0A91AB108E4E0AE16B10420F40E947C
:102D7000D5130E94DD0EEE2009F4C3C10E94301F5E
:102D800080FDBFC1F60112820E942A1F0E94371DDA
:102D9000C6010E94A8180E942A1F0F900F900F9042
:102DA0000F900F90DF91CF911F910F91FF90EF90B7
:102DB000DF90CF90BF90AF900C94681D802F0E9441
:102DC000551FCCCF29812F70F22E3981307F3032C0
:102DD00019F0F29480EFF8228D81882369F0813018
:102DE00049F1112391F1002351F1F601858180FF12
:102DF0009ECF8F70858323C0112381F0011106C0FF
:102E00000E94711F8F290E943816AACF0130C1F786
:102E10000E94711F8F290E94771FA2CF011106C047
:102E20000E94801F8F2D0E943F169ACF013009F417
:102E300097CFF6CF112329F0063008F091CF8F2DD0
:102E4000E2CF053008F08CCFEDCF002359F30D8190
:102E5000093349F41FEF27EE33E011502040304092
:102E6000E1F700C000008D810E94CA1579CF8981E9
:102E700086958695837069F0813009F071CF8D81D8
:102E800099819370111102C090E080E00E941214A9
:102E900067CF8D8199819370111102C090E080E01D
:102EA0000E94FC135DCF8981837009F050C011111D
:102EB00057CF2D81229526952770220F220F4D8105
:102EC0004F7050E070E060E0022E04C0440F551FC8
:102ED000661F771F0A94D2F70D8180E090E0DC0135
:102EE00004FF0FC08FE090E0A0E0B0E004C0880FC6
:102EF000991FAA1FBB1F2A95D2F780959095A09580
:102F0000B09519811695169513701D838C019D013E
:102F1000042B152B262B372B09831A832B833C83F9
:102F20001D8169817A818B819C81123051F013302F
:102F300059F0113019F00E94921C12CF0E946A1CA5
:102F40000FCF0E94BA1C0CCF0E94681C09CF11231E
:102F500009F448C0098100FF03CF2D8122952695F1
:102F60002770220F220F4D814F7050E070E060E01B
:102F7000022E04C0440F551F661F771F0A94D2F714
:102F80000D8180E090E0DC0104FF0FC08FE090E055
:102F9000A0E0B0E004C0880F991FAA1FBB1F2A95AC
:102FA000D2F780959095A095B095198116951695B4
:102FB00013701D838C019D01042B152B262B372BA1
:102FC00009831A832B833C831D8169817A818B81DC
:102FD0009C81123071F0133079F0113039F00E9479
:102FE000F61DBECE198111FFBBCEB7CF0E94CE1DFC
:102FF000B7CE0E941E1EB4CE0E94E61CB1CE09813F
:103000000F700983112329F0802F0E94371D8D81B5
:10301000FACE8D810E943F1689810E94681DA0CE44
:103020002D81223FA1F160F4203FE1F0213F41F1E9
:10303000112309F445C001117ACE89818F7124C012
:103040003D81333F49F1343F99F7112379F10981EB
:103050000F710983802F0E94371D63E089810E94D0
:10306000C01F7ECE112341F0053008F079CE898152
:103070008F710E949D1D74CE063008F071CEF7CF7F
:1030800089818F71112349F20E94371D69CE898190
:103090008F711123C9F3C1CF112329F089818F7159
:1030A0000E94121D5DCE0E94F21C5ACE81E00E9449
:1030B000D51F023008F454CE82E00E94D51F50CEB6
:1030C000002361F01D81193309F0CDCE2FEF37EECB
:1030D00083E0215030408040E1F7C3CE89818F7179
:1030E0009CCF49814F706D81C6010E94E50E0E9400
:1030F000DA1B36CE49814F706D81C6010E94E80E01
:103100002FCE0F900F900F900F900F90DF91CF91D7
:103110001F910F91FF90EF90DF90CF90BF90AF90F5
:1031200008950F931F93CF93DF93EC01688179810A
:103130008A810E94EC1E8C010E94461E0E94671C20
:10314000B801CE01DF91CF911F910F910C944616DB
:10315000CF93DF93EC01988189812B813C81232BD4
:1031600019F089238F3F59F4DF91CF910895CE0153
:103170000E949118CE01DF91CF910C94730ECE0175
:103180000E949C0E8111F3CF0E94341F882361F3AB
:103190008A81882349F382E0DF91CF910C94D51F77
:1031A00090E080E00E94FC1390E080E00E94121406
:1031B0000E945D1F0E946E1F0C948A1F0E94241F94
:1031C0000C94D0180E944C1F0C94DE18282F892FC5
:1031D00082958F70903C80F48A30B0F4843020F473
:1031E000823090F480E008958630E1F781E0283E57
:1031F00088F0213FB9F70EC08C3011F08F3091F775
:1032000093FB882780F9089581E0203F39F018F476
:10321000283E40F70895243F29F7FCCF08950E94E7
:10322000E01E0C94E618CF93DF9300D000D00F92ED
:10323000CDB7DEB70F900F900F900F900F90DF91EA
:10324000CF910895CF93DF9300D000D000D0CDB7B9
:10325000DEB726960FB6F894DEBF0FBECDBFDF9166
:10326000CF9108951F93CF93DF93E091170316E05A
:10327000809118038E1304C0DF91CF911F910895A0
:10328000CE2FD0E01E9FF0011124E75EFC4F40815D
:10329000518162817381848195810E9422192196D6
:1032A000EC2FE770E5CF4091490350914A036091BC
:1032B0004B0370914C0380914D0390914E030C94FD
:1032C00022191F93CF93DF9380914E03807FA9F43F
:1032D00080914B03882389F080911703C0911803D4
:1032E0007091490360914A03A0914C03B0914D0342
:1032F000D62FD72316E0C81304C0DF91CF911F91BA
:10330000089590E0109711F0DF3F19F4019687704F
:10331000F2CF189F9001199F300D1124F901E75E3B
:10332000FC4F41816413F2CF40814713EFCF4281BC
:103330004111ECCF438154814A1B5B0B483C510542
:1033400028F780914E038F70806180934E03F901BE
:10335000E25EFC4F80818F708061808389E493E01E
:103360000E94A818DF91CF911F910C943219AF924F
:10337000BF92CF92DF92EF92FF920F931F93CF9362
:10338000DF93CDB7DEB72B970FB6F894DEBF0FBE35
:10339000CDBF8C0185E0F801DE01179601900D92FA
:1033A0008A95E1F7F801E28030812181C380D480E1
:1033B00089E4A82E83E0B82E9091490340914A03F6
:1033C00060914C0370914D036115710529F0892FAF
:1033D00084238F3F09F041C1EE2009F44DC18F8154
:1033E00098850E940F19F82E882309F445C186E0BC
:1033F000F801A9E4B3E001900D928A95E1F789E420
:1034000093E00E943C150E94611924C180914E03F3
:10341000582F507F683C710508F07AC05111B5C033
:10342000FE2C241324C0931322C0E11020C08F70FF
:10343000806180934E030E94531989E493E00E94B7
:10344000A81880914E03F80185838F2D2B960FB617
:10345000F894DEBF0FBECDBFDF91CF911F910F91CA
:10346000FF90EF90DF90CF90BF90AF900895CD2860
:1034700029F0822F83238F3F09F084C080E0F82F4A
:10348000F170DF2EE09117034091180356E080FDA4
:103490001CC0EE20D1F280914E03816080934E03D8
:1034A000F12CD3CF8E2F90E05E9FF0011124E75EC8
:1034B000FC4F6181261306C06081361303C0628110
:1034C0006E11E7CF0196E82FE770E413EBCF8F8101
:1034D00098850E94E01E292F22952F70903260F06F
:1034E000225F2F70223078F49F7051F0F80195819F
:1034F000907F31F4D12C0AC09F7011F08823D1F352
:10350000805E8830B8F3C8010E94A818FD2C9DCFBA
:1035100051116EC04F81588569857A858B850E94CF
:10352000131989E493E00E94A81886E0F50111922E
:103530008A95E9F70E945319B3CF86E0F801A9E410
:10354000B3E001900D928A95E1F77FCF8F81988546
:103550000E940F1981113DC080914E0381608093BC
:103560004E03C8010E94A81870CF4F815885698505
:103570007A858B850E94131986E0F50111928A9550
:10358000E9F768C081E08E257ACF241306C0931333
:1035900004C0F801EE2009F451C08F8198850E9483
:1035A0000F19882309F468C0EE2009F465C08091E2
:1035B0004E03803270F02091490330914A033A83E0
:1035C00029831B82DD82CC828E83CE0101960E94EC
:1035D000A81886E0F801A9E4B3E001900D928A955D
:1035E000E1F70E9461190E945319FF24F3942DCF33
:1035F0002413D3CF9313D1CFE110CFCFF80185831C
:10360000C8010E94A81886E0F50111928A95E9F791
:103610001CCF24139BCF931399CF80914E0380FD31
:103620008CCF982F907F09F488CFF8018583903F45
:1036300031F0982F907F905F8F70892B8583C80120
:103640000E94A81886E0F801A9E4B3E001900D9269
:103650008A95E1F70E945319F8CEF0904B03F601DA
:10366000E61BF70BBF01F110D1CE683C710508F0E5
:103670007CCFFE2CE110CDCFC8010E94A818B5CF99
:103680001F93CF93DF93CDB7DEB72C970FB6F89487
:10369000DEBF0FBECDBF4F83588769877A878B8780
:1036A0009C87CE0107960E94B719882369F08A8506
:1036B0009B85892B39F058854F81852F84238F3F37
:1036C00009F071C016E05FC086E0FE013796DE01AA
:1036D000119601900D928A95E1F78F81988520913E
:1036E0001803409117036A857B85672B59F389235B
:1036F0008F3F41F330E0C901019687709927481741
:10370000190671F40E94E218109218031092170320
:1037100086E0E9E4F3E0DF011D928A95E9F7D2CF74
:1037200096E0929FD001939FB00D1124A75EBC4FED
:10373000FE01319601900D929A95E1F7809318035E
:103740000E943219BFCF819FC0011124875E9C4F18
:103750000E94B7198823E9F0E09117031E9FF0013A
:103760001124E75EFC4F4081518162817381848125
:1037700095810E9422198091170390E0019687702D
:103780009927809317038091170390911803891349
:10379000DACF2C960FB6F894DEBF0FBECDBFDF9107
:1037A000CF911F91089569857A858B859C850E94AC
:1037B000221988CFEF92FF920F931F93CF93DF933D
:1037C0008C01892B89F0F12CEE24E394E8012196F9
:1037D000F8018491843709F458C0A0F4823009F4C8
:1037E0003FC048F48130D1F0DF91CF911F910F910C
:1037F000FF90EF9008959CEF980F9037A8F70E94E4
:1038000041150AC0853709F44EC09CE7980F9037E0
:1038100058F78F770E94CA158E0116C00E5F1F4F92
:10382000FE01849190E2980F983060F48770FE2D2D
:1038300001C0FF0F8A95EAF78F2F0E94601F0E9438
:103840008A1F02C00E9441158F2D882309F4BECF24
:10385000EFE9FFE03197F1F700C000008150F5CFAC
:103860000E5F1F4FFE01849190E2980F983050F444
:103870008770FE2D01C0FF0F8A95EAF78F2F0E94F7
:10388000661FDDCF0E94CA15DFCF0E5F1F4FFE01FE
:10389000C491CC23C9F28FE99FE00197F1F700C0F2
:1038A0000000C150F6CF0E5F1F4FFE01F490CCCF49
:1038B00008950C94581C0E94591C609380037093C7
:1038C000810380938203909383030C94D01808950E
:1038D0000C945B1CCF93DF9300D000D0CDB7DEB744
:1038E00069837A838B839C83809180039091810389
:1038F000A0918203B091830329813A814B815C813D
:10390000282B392B4A2B5B2B29833A834B835C83EF
:10391000CA01B9010F900F900F900F90DF91CF91D6
:103920000C945B1CCF93DF9300D000D0CDB7DEB7F3
:1039300069837A838B839C83809180039091810338
:10394000A0918203B091830329813A814B815C81EC
:10395000282339234A235B2329833A834B835C83BF
:10396000CA01B9010F900F900F900F90DF91CF9186
:103970000C945B1CCF93DF9300D000D0CDB7DEB7A3
:1039800069837A838B839C838091800390918103E8
:10399000A0918203B091830329813A814B815C819C
:1039A000282739274A275B2729833A834B835C835F
:1039B000CA01B9010F900F900F900F90DF91CF9136
:1039C0000C945B1C0C94581C0C94E21C0E94E41C8C
:1039D00060937C0370937D0380937E0390937F03B9
:1039E0000C94D01860E070E0CB010C94E61C282FFA
:1039F00080917C0390917D03A0917E03B0917F0321
:103A00000097A105B10529F481E0222351F080E05F
:103A1000089504C0B695A795979587952A95D2F7EE
:103A2000817008950F931F93CF93DF9300D000D040
:103A3000CDB7DEB741E050E060E070E08A019B0165
:103A400004C0000F111F221F331F8A95D2F709836C
:103A50001A832B833C83C901B8010F900F900F90FC
:103A60000F90DF91CF911F910F910C94E61C0F9353
:103A70001F93CF93DF9300D000D0CDB7DEB741E0E6
:103A800050E060E070E004C0440F551F661F771FD0
:103A90008A95D2F780917C0390917D03A0917E035B
:103AA000B0917F038A019B01082B192B2A2B3B2BFA
:103AB00009831A832B833C83C901B8010F900F90AF
:103AC0000F900F90DF91CF911F910F910C94E61CF6
:103AD0000F931F93CF93DF9300D000D0CDB7DEB705
:103AE00041E050E060E070E004C0440F551F661FE5
:103AF000771F8A95D2F74095509560957095809183
:103B00007C0390917D03A0917E03B0917F038A0195
:103B10009B01082319232A233B2309831A832B8320
:103B20003C83C901B8010F900F900F900F90DF9167
:103B3000CF911F910F910C94E61C0F931F93CF937D
:103B4000DF9300D000D0CDB7DEB741E050E060E0B9
:103B500070E004C0440F551F661F771F8A95D2F787
:103B600080917C0390917D03A0917E03B0917F03AF
:103B70008A019B01082719272A273B2709831A83D3
:103B80002B833C83C901B8010F900F900F900F90C9
:103B9000DF91CF911F910F910C94E61CCF93DF938F
:103BA00000D000D0CDB7DEB769837A838B839C8346
:103BB00080917C0390917D03A0917E03B0917F035F
:103BC00029813A814B815C81282B392B4A2B5B2B35
:103BD00029833A834B835C83CA01B9010F900F900C
:103BE0000F900F90DF91CF910C94E61CCF93DF9351
:103BF00000D000D0CDB7DEB769837A838B839C83F6
:103C000080917C0390917D03A0917E03B0917F030E
:103C100029813A814B815C81282339234A235B2304
:103C200029833A834B835C83CA01B9010F900F90BB
:103C30000F900F90DF91CF910C94E61CCF93DF9300
:103C400000D000D0CDB7DEB769837A838B839C83A5
:103C500080917C0390917D03A0917E03B0917F03BE
:103C600029813A814B815C81282739274A275B27A4
:103C700029833A834B835C83CA01B9010F900F906B
:103C80000F900F90DF91CF910C94E61C0895E82FD0
:103C90002EE0929FE00D11248E2F877041E001C02D
:103CA000440F8A95EAF7E695E695E69585E0E89F64
:103CB000F0011124E15BFC4F30E020E070E0519115
:103CC000DF011197CB01022E02C0969587950A94C9
:103CD000E2F7817081958527842385278C932F5F58
:103CE0003F4F2530310559F70895E82F2EE0929F78
:103CF000E00D11249E2F9770E695E695E69585E0F8
:103D0000E89FF0011124E15BFC4F50E040E080E0CF
:103D1000219130E0092E02C0369527950A94E2F7EA
:103D200021703327042E01C0220F0A94EAF7822B58
:103D30004F5F5F4F4530510559F70895BF92CF92BD
:103D4000DF92EF92FF920F931F93CF93DF938C013B
:103D5000C0907C03D0907D03E0907E03F0907F03C1
:103D60008091800390918103A0918203B09183039D
:103D7000C82AD92AEA2AFB2ACFE1D0E0BC2ED701F3
:103D8000C6010C2E04C0B695A795979587950A9401
:103D9000D2F780FD0EC0219788F7B12C8B2DDF91D3
:103DA000CF911F910F91FF90EF90DF90CF90BF9038
:103DB0000895B8018C2F0E94050F019761F3EECF93
:103DC000CF93DF93D82FC92F0E949E1E6D2F7C2F7B
:103DD000DF91CF910C94050F1F93CF93DF93162F94
:103DE000D72F90911603992339F0862F972FDF91C3
:103DF000CF911F910C94E01E882391F0862F972F6E
:103E00000E949E1EC82F682F812F9D2F0E94471E43
:103E1000612F7D2F8C2FDF91CF911F910C94050F77
:103E2000862F972F0E94751EC82FF2CF682F809182
:103E30002401909125010C943821682F8091240150
:103E4000909125010C9443218091240190912501AA
:103E50000C944E21809184038595859585950895D0
:103E6000809184038770089590918403977081E016
:103E700009F480E008958091A80308959091A80323
:103E8000982B9093A8030895982F90958091A8035C
:103E900089238093A80308951092A8030895909110
:103EA000A703982B9093A7030895982F909580913E
:103EB000A70389238093A70308951092A703089569
:103EC0009091A603982B9093A6030895982F909510
:103ED0008091A60389238093A60308951092A603D8
:103EE000089580918503089508950C94741F90910E
:103EF0008503981721F0809385030C94751F08950E
:103F000080918503882329F01092850380E00C942A
:103F1000751F0895E0912401F09125018091A80377
:103F20008083E0912401F091250180819091A70385
:103F3000892B8083E0912401F0912501808190916B
:103F4000A603892B808390918503992381F0E091CA
:103F50002401F09125018081892B808380912401A7
:103F6000909125010E94A02081110E94801F8091C4
:103F70002401909125010C94E11308950C94BD1F28
:103F800098E0899F90011124622B609384030E9422
:103F9000371D809184038595859585950C94BE1F6A
:103FA0001092840380E00C94BE1F9091840380954E
:103FB000892380938403282F277071F4282F082EDB
:103FC000000C330B9217130639F08595859585956E
:103FD0000E94681D0C94D01F089580E008956FEF33
:103FE0007FEF90E080E00C94FA2990E080E00E945E
:103FF000C6299C0181E02B3E3E4F09F080E00895E8
:1040000082E090E00C94BE2983E090E00C94BE29FD
:10401000CF9384E090E00E94BE29C82F81E290E017
:104020000E94BE29982F8C2FCF910895CF93682F8F
:10403000C92F84E090E00E94DC296C2F81E290E09F
:10404000CF910C94DC29AB01BC018FE090E00C9483
:10405000EE29AB01BC0183E190E00C94EE2960E015
:1040600070E0CB010C94292060E070E0CB010E944D
:1040700023200C942F206BEE7EEF90E080E00E94D6
:10408000FA2960E082E090E00E94DC2960E083E0B1
:1040900090E00E94DC29109280031092810310921C
:1040A00082031092830360E084E090E00E94DC29A8
:1040B00060E081E290E00E94DC2960E085E090E031
:1040C0000E94DC2960E086E090E00E94DC296FEF2E
:1040D00087E090E00E94DC2940E050E0BA0188E0EF
:1040E00090E00E94EE2960E08DE090E00E94DC29E3
:1040F00040E050E0BA0188E190E00E94EE2960E0E3
:1041000087E190E00E94DC2940E050E0BA018CE1B8
:1041100090E00E94EE2960E080E290E00E94DC29BD
:1041200040E050E0BA0188E190E00E94EE290C9452
:1041300034200C943B20682F8EE090E00C94DC2916
:10414000FC01329680913001882321F08091600536
:104150009EE187FF96E080E0915008F40895219158
:104160002223D1F38F5FF8CF9C01662301F1809168
:1041700030018823F1F08091600587FF1AC0462F37
:10418000469546954695603F90F4677081E090E0D3
:1041900002C0880F991F6A95E2F7240F311DF901BB
:1041A000228130E02823392381E0232B71F480E041
:1041B0000895F9013296285F3F4F8191861721F0CB
:1041C000E217F307D1F7F3CF81E008959C01FC01DA
:1041D00032968FEF90E04191461751F08F3F19F4DE
:1041E000411101C0892F9F5F9630A9F78F3F09F4D5
:1041F0000895280F311D87FD3A95F90162830895CE
:104200009C01FC013296285F3F4F8191861303C0C9
:10421000DF0111971C92E217F307B9F70895FC012B
:10422000862F869586958695603F60F4E80FF11D90
:10423000677021E030E001C0220F6A95EAF78281C1
:10424000822B82830895FC01862F8695869586951C
:10425000603F68F4E80FF11D677081E090E001C0F5
:10426000880F6A95EAF78095928189238283089561
:1042700020913001222329F02091600527FD0C9424
:104280000F210C94E62020913001222329F0209167
:10429000600527FD0C9423210C940021FC0132962B
:1042A00080913001882351F08091600587FF06C01E
:1042B0008EE1DF011D928A95E9F7089586E0F9CF36
:1042C000089580916605843011F00C9433040895AC
:1042D0000895CF930E9460210E944F110E9468218F
:1042E000C0E08C2F0E94F010892B31F4CF5FC530D5
:1042F000C1F780E0CF91089581E0FCCF0E94E218E1
:104300000E94D5130E94DD0E0C94360482E084BD19
:1043100093E095BD9AEF97BD80936E0008952FB7F7
:10432000F89480915C0590915D05A0915E05B09137
:104330005F052FBF0895CF93DF9300D000D0CDB796
:10434000DEB78FB7F89420915C0530915D05409100
:104350005E0550915F0529833A834B835C838FBF51
:1043600069817A818B819C810F900F900F900F90C3
:10437000DF91CF9108959C014FB7F89480915C052F
:1043800090915D05A0915E05B0915F054FBF821BC6
:10439000930B089578941F921FB61F9211248F9348
:1043A0009F93AF93BF9380915C0590915D05A09121
:1043B0005E05B0915F050196A11DB11D80935C055E
:1043C00090935D05A0935E05B0935F05BF91AF919B
:1043D0009F918F911F901FBE1F90189581E0809331
:1043E000E00080E28093D8001092C9008FE19EE443
:1043F0000197F1F700C0000087E090EBDC018093AB
:104400006F0590937005A0937105B093720588E1D4
:104410009CE00FB6F894A895809360000FBE90932F
:104420006000FFCF9093C1028093C00208950C9466
:10443000EF1F0E944F118FE39CE90197F1F700C035
:1044400000000E944F1180E00E94F01080FF04C025
:104450000E9417220C94EE210895CF93DF9300D091
:1044600000D0CDB7DEB70E94F51F811102C00E94B7
:1044700099200E9400208093A9030E940820909315
:104480006105809360050E940420282F30E050E0F1
:1044900040E0CA01B9010E94681C80917C039091A0
:1044A0007D03A0917E03B0917F0389839A83AB83C0
:1044B000BC83BC01CD010F900F900F900F90DF9146
:1044C000CF910C94E41C8091CA0308950895CF9372
:1044D000DF9300D00F92CDB7DEB790916605943090
:1044E00019F589836A837B8382E08093E9008FEFEB
:1044F0009091E800815095FD06C095ED9A95F1F7F1
:1045000000008111F5CF8091E80085FF0DC050E0DB
:1045100040E063E070E0CE0101960E947624809135
:10452000E8008E778093E8000F900F900F90DF9156
:10453000CF910895BC0184E00C946722BC0183E014
:104540000C946722CF93DF93D82FC92F809130012D
:104550008823C1F18091600587FF34C060E282E06A
:104560008093E9008FEF9091E800815095FD06C09F
:1045700095ED9A95F1F700008111F5CF8091E80053
:1045800085FF1DC08091300170E050E040E0811156
:1045900004C050E040E068E070E08D2F9C2F0E9446
:1045A00076248091E8008E778093E80080E2ED2FFA
:1045B000FC2FAAEAB3E001900D928A95E1F7DF9112
:1045C000CF91089568E081E0CBCF8091650581119E
:1045D00009C00E94FE250E945B268091E200846053
:1045E0008093E20008951092650508950895089556
:1045F000089542E061EC81E00E947A2542E261EC9C
:1046000082E00C947A2580916805893089F148F41C
:10461000823009F49DC0833009F458C0813041F0E4
:1046200008958A3009F484C08B3009F46AC0089573
:1046300080916705813A09F048C08091E800877F42
:104640008093E80080916B0590916C05892B61F453
:1046500060E28AEA93E070E00E94C5248091E8005D
:104660008B778093E800089560E090E080E0F3CFDE
:1046700080916705813249F580916B0590916C05B9
:10468000029718F58091E800877F8093E800809179
:10469000E80082FF16C09091F3008091F20002972B
:1046A00029F48091F1008B7F813021F48091F10019
:1046B0008093CA038091E8008B778093E8000C9484
:1046C000AE25809166058111E2CF0895809167053E
:1046D000813AD9F780916B0590916C05892BA9F7E8
:1046E0008091E800877F8093E8008091E80080FF58
:1046F000FCCF809130018093F1008091E8008E77AB
:10470000DCCF80916705813201F780916B05909134
:104710006C05892BD1F68091E800877F8093E800B3
:104720000E94AE2580916905809330010C94E218B7
:1047300080916705813249F68091E800877F8093F8
:10474000E8000E94AE2580916A058093CB0308950E
:1047500080916705813A09F0B8CF8091E800877FA2
:104760008093E8008091E80080FFFCCF8091CB032C
:10477000C2CF84B7877F84BF0FB6F894A895809185
:104780006000886180936000109260000FBE80E836
:1047900090E00FB6F89480936100909361000FBE93
:1047A0000E9449140E94FE250E945B268091E2002F
:1047B00084608093E20078940E94E7280E94591454
:1047C00086E291E00E94D013809166058530A9F0C1
:1047D0000E9461140E9457140E945814F5CF0E9441
:1047E000612180916405882341F00E94692188231A
:1047F00021F00E9460240E94E218809166058530B5
:1048000071F30E947E21E4CF0C940624FC01CB01BD
:10481000DA012F2F332723303105D1F070F4213006
:10482000310509F43EC02230310569F48BE390E094
:104830002EE936E02D933C93089521323105E9F0BD
:104840002232310521F190E080E030E020E0F2CF2B
:10485000CF019927E13059F08230910559F0EAE90A
:10486000F6E0892B81F7849190E09F01E3CFE2E8A5
:10487000F6E0F9CFEAE5F6E0F6CF892BB9F0613042
:10488000710509F789E090E029EC36E0D3CF892B58
:1048900091F061307105B9F68DE690E02BEE36E0CF
:1048A000C9CF82E190E029ED36E0C4CF89E090E005
:1048B00020EB36E0BFCF80E490E028E537E0BACFC8
:1048C00080E189BD82E189BD09B400FEFDCF809100
:1048D000D8008F7D8093D8008091E0008260809323
:1048E000E0008091E00081FDFCCF0895AF92BF927F
:1048F000CF92DF92FF920F931F93CF93DF936C01C0
:10490000EB018A010E94CD25F82E811123C00115EB
:10491000110539F0F80180819181C81BD90BC80EAF
:10492000D91EB12CA12C2097A9F08091E80085FD1B
:1049300022C08091E8008E778093E8000115110570
:10494000A1F0F801808191818A0D9B1D9183808364
:1049500085E0F82E8F2DDF91CF911F910F91FF9061
:10496000DF90CF90BF90AF9008950E94CD2588230F
:10497000D1F2F82EEFCFF60181916F018093F10013
:104980002197FFEFAF1ABF0ACECFFC01CB012091D8
:104990006D0530916E052617370790F0009729F4C2
:1049A0002091E8002E772093E80040E0009751F432
:1049B000411108C08091E80082FF31C080E0089575
:1049C000C901F3CF209166052223A9F12530A9F171
:1049D0002091E80023FD2DC02091E80022FDEACFC0
:1049E0002091E80020FFE2CF3091F3002091F20007
:1049F000009719F02830310558F041E02830310592
:104A000009F040E02091E8002E772093E800CECF17
:104A100041914093F10001972F5F3F4FE9CF809183
:104A20006605882341F0853041F08091E80083FFDE
:104A3000C1CF81E0089582E0089583E00895FC01EC
:104A4000CB0120916D0530916E052617370790F048
:104A5000009729F42091E8002E772093E80040E0A9
:104A6000009751F4411108C08091E80082FF32C0E4
:104A700080E00895C901F3CF209166052223B1F1AA
:104A80002530B1F12091E80023FD2EC02091E800EF
:104A900022FDEACF2091E80020FFE2CF3091F30021
:104AA0002091F200009719F02830310558F041E0CC
:104AB0002830310509F040E02091E8002E7720935E
:104AC000E800CECF44914093F100319601972F5FDB
:104AD0003F4FE8CF80916605882341F0853041F053
:104AE0008091E80083FFC0CF81E0089582E00895BF
:104AF00083E00895982F973028F08F708093E90015
:104B000081E008959093E900242F762F50E09817C4
:104B100031F07091EC002091ED005091F00021FDFA
:104B200002C09F5FE8CF3091EB003E7F3093EB00F7
:104B30003091ED003D7F3093ED003091EB0031601E
:104B40003093EB007093EC002093ED005093F00055
:104B50002091EE0027FDE5CF80E008958091670564
:104B600087FF13C08091E80082FF06C08091E800B3
:104B70008B778093E80004C0809166058111F2CFA5
:104B80000895809166058823D9F38091E80080FF1D
:104B9000F8CF8091E8008E77ECCF2091E40030913F
:104BA000E50095E6A9012091EC00822F817020FF9D
:104BB00006C08091E80080FF06C080E00895209143
:104BC000E80022FD1AC080916605882389F08530AF
:104BD00089F08091EB0085FD0FC02091E4003091B9
:104BE000E50042175307F9F29150E1F684E0089589
:104BF00082E0089583E0089581E008950E946C2684
:104C00000E947426E0EEF0E0808181608083E8ED10
:104C1000F0E080818F77808319BCA7EDB0E08C91A4
:104C20008E7F8C9380818F7E80831092650508959E
:104C30000F931F93CF93DF930E946C260E947426DC
:104C4000C8EDD0E088818F778883888180688883E9
:104C500088818F7D888319BC109266051092620549
:104C6000109264051092630500EE10E0F801808157
:104C70008B7F808388818160888342E060E080E070
:104C80000E947A25E1EEF0E080818E7F8083E2EE63
:104C9000F0E0808181608083808188608083F8017A
:104CA00080818E7F8083888180618883DF91CF912E
:104CB0001F910F910895E8EDF0E080818F7E808351
:104CC000E7EDF0E080818160808384E082BF81E055
:104CD000809365050C941826E8EDF0E080818E7FC6
:104CE00080831092E20008951092DA001092E100A1
:104CF00008951F920F920FB60F9211242F933F9396
:104D00004F935F936F937F938F939F93AF93BF93D3
:104D1000EF93FF938091E10082FF0BC08091E2004E
:104D200082FF07C08091E1008B7F8093E1000E94A9
:104D3000E6288091DA0080FF19C08091D80080FFBA
:104D400015C08091DA008E7F8093DA008091D900BF
:104D500080FF94C080E189BD82E189BD09B400FE75
:104D6000FDCF81E0809366050E94E5228091E100FD
:104D700080FF19C08091E20080FF15C08091E200A1
:104D80008E7F8093E2008091E20080618093E20058
:104D90008091D80080628093D80019BC85E0809310
:104DA00066050E94F7228091E10084FF29C080916E
:104DB000E20084FF25C080E189BD82E189BD09B49C
:104DC00000FEFDCF8091D8008F7D8093D800809128
:104DD000E1008F7E8093E1008091E2008F7E8093DE
:104DE000E2008091E20081608093E20080916205A0
:104DF000882309F449C084E0809366050E94F82264
:104E00008091E10083FF29C08091E20083FF25C0EB
:104E10008091E100877F8093E10082E080936605C6
:104E2000109262058091E1008E7F8093E100809175
:104E3000E2008E7F8093E2008091E20080618093A7
:104E4000E20042E060E080E00E947A258091F0007C
:104E500088608093F0000E94F622FF91EF91BF914D
:104E6000AF919F918F917F916F915F914F913F9102
:104E70002F910F900FBE0F901F90189519BC109294
:104E800066050E94F32272CF8091E30087FD02C085
:104E900081E0B2CF83E0B0CF1F920F920FB60F9296
:104EA0001124FF920F931F932F933F934F935F9380
:104EB0006F937F938F939F93AF93BF93CF93DF9322
:104EC000EF93FF9309EE10E0F8018081C091EC00B0
:104ED000C795CC27C7958F70FC2EF82A1082C0EF9B
:104EE000D0E08881877F888378940E949527F80195
:104EF0001082888188608883CF2DCF70C083FF9116
:104F0000EF91DF91CF91BF91AF919F918F917F9161
:104F10006F915F914F913F912F911F910F91FF9052
:104F20000F900FBE0F901F9018951F93CF93DF9394
:104F3000CDB7DEB7AA970FB6F894DEBF0FBECDBFD0
:104F400087E695E0FC0101962091F100208325E0A1
:104F50008F369207B9F70E9403238091E80083FF00
:104F60001DC180916705909168059A3008F016C1BF
:104F7000E92FF0E0E855F54D0C942929803899F097
:104F8000823809F00BC180916B058F70873008F073
:104F900005C18093E9008091EB0085FB882780F9AB
:104FA0001092E90006C0809163059091640591110B
:104FB00082609091E800977F9093E8008093F100E1
:104FC0001092F1008091E8008E77E4C0882309F404
:104FD000D2C0823009F0E2C0809169058111D5C04C
:104FE00080916B058F702FEF280F263008F0D6C008
:104FF0008093E9002091EB0020FFC7C0933031F48B
:105000008091EB0080628093EB00BFC09091EB0039
:1050100090619093EB0021E030E001C0220F8A956F
:10502000EAF72093EA001092EA008091EB00886092
:10503000EACF8111B3C0109169051F778091E30019
:105040008078812B8093E3008091E800877F8093B4
:10505000E8000E94AE258091E80080FFFCCF80919F
:10506000E30080688093E30082E0111183E0809385
:10507000660594C08058823008F090C08091690520
:1050800090916A058C3D23E0920799F583E08A832D
:105090008AE289834FB7F894DE01139620E03EE060
:1050A00051E2E32FF0E050935700849120FF03C0BA
:1050B00082958F703F5F8F708A30C8F0895C90E076
:1050C0008D939D932F5F243161F74FBF8091E8004E
:1050D000877F8093E8006AE270E0CE0101960E942B
:1050E000C5248091E8008B778093E80057C0805DED
:1050F000E6CF60916B0570916C05AE014F5F5F4F1D
:105100000E940424BC01892B09F448C08091E80066
:10511000877F8093E80089819A810E941F25E1CFD3
:105120008038E1F58091E800877F8093E8008091E6
:1051300062058093F10046CF811130C090916905DE
:10514000923060F58091E800877F8093E80090932B
:1051500062050E94AE2580916205882311F084E0EB
:1051600005C08091E30087FDFACF81E0809366055A
:105170000E94F92213C080916905813079F481E0A1
:10518000933009F080E0809364051092E9008091EB
:10519000E800877F8093E8000E94AE258091E800B8
:1051A00083FF0AC08091E800877F8093E8008091A8
:1051B000EB0080628093EB00AA960FB6F894DEBFF6
:1051C0000FBECDBFDF91CF911F9108950895CF936A
:1051D00080916605882399F08091E900C091EC00E8
:1051E000C795CC27C7958F70C82B1092E900809186
:1051F000E80083FD0E949527CF70C093E900CF910E
:105200000895AA1BBB1B51E107C0AA1FBB1FA6170D
:10521000B70710F0A61BB70B881F991F5A95A9F75F
:1052200080959095BC01CD01089597FB072E16F44B
:10523000009407D077FD09D00E94012907FC05D012
:105240003EF4909581959F4F0895709561957F4F9D
:105250000895EE0FFF1F0590F491E02D0994CF9271
:10526000DF92EF92FF92CF93DF93CDB7DEB72A970D
:105270000FB6F894DEBF0FBECDBF89879A87A98588
:10528000BA852D913D914D915C9129833A834B8351
:105290005C83232B242B252B41F424E239ED4BE5B1
:1052A00057E029833A834B835C8369817A818B81C0
:1052B0009C812DE133EF41E050E00E94002A69011A
:1052C0007A01A7EAB1E49B01AC010E941F2A69831D
:1052D0007A838B839C83ACEEB4EFA70196010E9486
:1052E0002D2A9B01AC0189819A81AB81BC81820FFF
:1052F000931FA41FB51FB7FF03C00197A109B048B2
:10530000E985FA8580839183A283B3839F772A9668
:105310000FB6F894DEBF0FBECDBFDF91CF91FF90E7
:10532000EF90DF90CF9008950E942F29089580E09C
:1053300091E00E942F290895B0E0A0E08093000141
:1053400090930101A0930201B09303010895DC0141
:1053500001C06D9341505040E0F70895DC01CB014E
:10536000FC01F999FECF06C0F2BDE1BDF89A319675
:1053700000B40D9241505040B8F70895F999FECF0E
:1053800092BD81BDF89A992780B50895A8E1B0E053
:1053900042E050E00C94B029DC01A40FB51F41504D
:1053A000504048F0CB01840F951F2E910E94DD29BB
:1053B00041505040D0F70895262FF999FECF92BD65
:1053C00081BDF89A019700B4021639F01FBA20BDCA
:1053D0000FB6F894FA9AF99A0FBE08950396272FFC
:1053E0000E94DD290E94DC29252F0E94DD29242F1F
:1053F0000C94DD290196272F0E94DD290C94DC29CD
:10540000052E97FB1EF400940E94172A57FD07D023
:105410000E94322A07FC03D04EF40C94172A5095B0
:105420004095309521953F4F4F4F5F4F0895909590
:105430008095709561957F4F8F4F9F4F08950E9483
:10544000542AA59F900DB49F900DA49F800D911D8F
:1054500011240895B7FF0C941F2A0E941F2A821B53
:10546000930B0895A1E21A2EAA1BBB1BFD010DC0D0
:10547000AA1FBB1FEE1FFF1FA217B307E407F50704
:1054800020F0A21BB30BE40BF50B661F771F881FE0
:10549000991F1A9469F760957095809590959B0176
:1054A000AC01BD01CF010895A29FB001B39FC0011F
:1054B000A39F700D811D1124911DB29F700D811D40
:1054C0001124911D0895F894FFCF7109740977098B
:1054D0007A097D0980098309860989098C09A90A45
:1054E000AF0AB40AB90ABE0AC30AC80ACD0AD20A68
:1054F000D70AE00AE50AEA0AEF0A1B13211325136B
:10550000331337133B133F1345134D1351135513E7
:105510005913651369136D137113771395137F1363
:105520002F135D13611349137B138B139E13A21367
:1055300080168016E216E2163717B016B016B016AF
:105540005317FF17101810187118B016B0167A18E4
:10555000BE27E627CE28E627CE2819283A28CE28C7
:0455600090289C28CB
:1055640001000000FF0000FFFF0000FF7FFF0000BC
:10557400FF0000FF0000FF0000FF010001200130D8
:105584000130073886036322A22266229E229A22D1
:105594000100344454002445550025355600263670
:1055A40046002737470028384800293949002A3A55
:1055B4004A002B3B4B00A4948400A5958500A69635
:1055C4008600A7978700A8988800A9998900AA9AB5
:1055D4007900AB8A7A009B8B7B003C4C5C002C4DA1
:1055E4005D002D3D5E002E3E4E002F3F4F003040AB
:1055F4005000314151003242520033435300AC9CBD
:105604008C00AD9D8D00AE9E8E00AF9F8F00B0A02C
:105614009000B1A19100B2A28100B3928200A39341
:105624008301344454012445550125355601263659
:1056340046012737470128384801293949012A3AC0
:105644004A012B3B4B01A4948401A5958501A696A0
:105654008601A7978701A8988801A9998901AA9A20
:105664007901AB8A7A019B8B7B013C4C5C012C4D0C
:105674005D012D3D5E012E3E4E012F3F4F01304016
:105684005001314151013242520133435301AC9C28
:105694008C01AD9D8D01AE9E8E01AF9F8F01B0A098
:1056A4009001B1A19101B2A28101B3928201A393AD
:1056B40083E200E900EA00B500B600B700CD00833C
:1056C40001CC008A019201940121022302240225C3
:1056D40002260227022A02B300B4006F007000F50C
:1056E40095313233939267663635349796F0F1F4F8
:1056F400F6F7E200E900EA00B500B600B700CD0015
:105704008301CC008A019201940121022302240224
:105714002502260227022A02B300B4006F0070009B
:00000001FF
