:100000000C94F1040C9438050C9438050C943805C4
:100010000C9438050C9438050C9438050C9438056C
:100020000C9438050C9438050C94C02A0C94932B2E
:100030000C947F220C9438050C9438050C943805E8
:100040000C9438050C9438050C9438050C9438053C
:100050000C947D060C94E5220C9438050C9438051C
:100060000C9438050C9438050C9438050C9438051C
:100070000C9438050C9438050C9438050C9438050C
:100080000C9438050C9438050C9438050C943805FC
:100090000C9438050C9438050C9438050C943805EC
:1000A0000C9438050C9438050C94380507634236D7
:1000B000B79BD8A71A39685618AEBAAB558C1D3CF9
:1000C000B7CC5763BD6DEDFD753EF6177231BF00BD
:1000D0000000803F05A84CCDB2D44EB93836A902F5
:1000E0000C50B9918688083CA6AAAA2ABE00000036
:1000F000803F35001E001F00200021002200230049
:1001000024002500260027002D002E0031002B00A2
:1001100014001A000800150017001C0018000C003D
:10012000120013002F0030002A002961040016007D
:10013000070009000A000B000D000E000F0033003D
:10014000340028000000E1001D001B00060019001B
:10015000050011001000360037003800E50001519D
:1001600000000000E200E3000000000000002C415D
:100170000000000000000252E600015129000000CA
:100180003A003B003C003D003E003F004000410083
:100190004200430044004500AB00000000000000A6
:1001A0000000000000000000000000000000460009
:1001B0000000000000000000AA00A800A900000044
:1001C00000005000510052004F00000000000000ED
:1001D000000000000000000000000000000000001F
:1001E000000000000000000000000000000000000F
:1001F00000000000000000000000000000000000FF
:100200000000000003510000AE0035001E001F007A
:1002100020002100220023002400250026002700C2
:100220002D002E0031002B0014001A0008001500CC
:1002300017001C0018000C00120013002F003000E3
:100240002A00E00004001600070009000A000B0065
:100250000D000E000F003300340028000000E10004
:100260001D001B00060019000500110010003600DB
:1002700037003800E500015100000000E200E30013
:100280000000000000002C000000000000000052F0
:10029000E60000002900005C0000000000000000F3
:1002A000000000000000000000000000000000004E
:1002B000000000000000000000000000000000003E
:1002C000000000000000000000000000000000002E
:1002D000000000000000000000000000000000001E
:1002E000000000000000000000000000000000000E
:1002F00000000000000000000000000000000000FE
:1003000000000000000000000000000000000000ED
:10031000000000000000000000000052000000008B
:10032000000044454255473A20656E61626C656441
:100330002E0A000000000000000000000000010183
:100340000203040506080A0C0F1114181C202429A6
:100350002E33393F464C535B626A7179818A929A97
:10036000A2AAB2B9C1C8CFD5DCE1E7EBF0F4F7FA45
:10037000FCFDFEFFFEFDFCFAF7F4F0EBE7E1DCD557
:10038000CFC8C1B9B2AAA29A928A8179716A625B16
:10039000534C463F39332E2924201C1814110F0CBE
:1003A0000A08060504030201010000000000000025
:1003B0000000000A002530313662003A2000253066
:1003C0003258000A722F63203031323334353637D9
:1003D00038394142434445460A0054494D45523359
:1003E0002064697361626C65642E0A0054494D454E
:1003F000523320656E61626C65642E0A007267621A
:100400006C696768742073657420687376205B4E2E
:100410004F454550524F4D5D3A2025752C25752C82
:1004200025750A007267626C696768742073657469
:1004300020687376205B454550524F4D5D3A20252C
:10044000752C25752C25750A007267626C696768C2
:1004500074207261696E626F7720736574206873AF
:10046000763A2025752C25752C25642C25750A00D7
:100470007267626C696768742064697361626C6535
:10048000205B454550524F4D5D3A207267626C6962
:100490006768745F636F6E6669672E656E61626C14
:1004A00065203D2025750A007267626C6967687473
:1004B00020656E61626C65205B454550524F4D5D15
:1004C0003A207267626C696768745F636F6E666911
:1004D000672E656E61626C65203D2025750A00728D
:1004E00067626C6967687420746F67676C65205B0E
:1004F000454550524F4D5D3A207267626C6967689E
:10050000745F636F6E6669672E656E61626C6520ED
:100510003D2025750A007267626C69676874206DFA
:100520006F6465205B4E4F454550524F4D5D3A20FC
:1005300025750A007267626C69676874206D6F6464
:1005400065205B454550524F4D5D3A2025750A00A8
:100550007267626C696768745F696E69742072673C
:10056000626C696768745F636F6E6669672E6D6F32
:100570006465203D20302E205772697465206465C3
:100580006661756C742076616C75657320746F207C
:10059000454550524F4D2E0A007267626C6967687C
:1005A000745F696E6974206565636F6E6669672044
:1005B0006973206E6F7420656E61626C65642E0ACB
:1005C000007267626C696768745F696E6974207332
:1005D00074617274210A007267626C696768745F83
:1005E000696E69742063616C6C65642E0A007267C1
:1005F000626C696768745F636F6E6669672E73709B
:10060000656564203D2025640A007267626C696735
:1006100068745F636F6E6669672E76616C203D203B
:1006200025640A007267626C696768745F636F6E45
:100630006669672E736174203D2025640A00726725
:10064000626C696768745F636F6E6669672E687550
:1006500065203D2025640A007267686C69676874CC
:100660005F636F6E6669672E6D6F6465203D202540
:10067000640A007267626C696768745F636F6E66B4
:1006800069672E656E61626C65203D2025640A00F5
:100690007267626C696768745F636F6E6669672012
:1006A0006570726F6D0A0000047F3F1F643214642E
:1006B0003214783C1E1E140A056801F000B400785C
:1006C000005A0000000000000101010101010101C8
:1006D00001020202020202020202030303030303F5
:1006E00003030404040404040505050505060606C1
:1006F000060607070707080808080909090A0A0A79
:100700000A0B0B0B0C0C0C0D0D0D0E0E0F0F0F101A
:1007100010111111121213131414151516161717A0
:10072000181819191A1A1B1C1C1D1D1E1F1F20200A
:100730002122222324252526272728292A2B2B2C52
:100740002D2E2F2F30313233343536363738393A73
:100750003B3C3D3E3F4041424344464748494A4B6B
:100760004C4D4F50515253555657585A5B5C5E5F33
:10077000606263646667696A6C6D6E7071737476CB
:1007800078797B7C7E8081838486888A8B8D8F912B
:10079000929496989A9B9D9FA1A3A5A7A9ABADAF54
:1007A000B1B3B5B7B9BBBDBFC1C4C6C8CACCCFD140
:1007B000D3D6D8DADCDFE1E4E6E8EBEDF0F2F5F7EA
:1007C000FAFCFF0A002530325820006B6579626F11
:1007D0006172645F7265706F72743A20000A00255E
:1007E000303258006B6579626F6172645F73657453
:1007F0005F6C65643A2000646F6E652E0A00626F5C
:100800006F746D61676963207363616E3A202E2E89
:100810002E20006261636B6C696768742073746575
:10082000703A2025750A006261636B6C69676874B1
:100830002064697361626C650A006261636B6C6954
:1008400067687420656E61626C650A006261636B43
:100850006C6967687420746F67676C653A202575EA
:100860000A006261636B6C69676874206465637217
:10087000656173653A2025750A006261636B6C6976
:1008800067687420696E6372656173653A202575C7
:100890000A005B735D004B6579626F61726420735F
:1008A000746172742E0A005B575D005B535D005BE0
:1008B000525D005B445D005B435D0004033000005B
:1008C000000C036B00620064003600780000000832
:1008D0000359006F00750000000403090409025B5E
:1008E00000030100A0FA090400000103010100094E
:1008F00021110100012240000705810308000A09B7
:100900000401000103000000092111010001223649
:10091000000705820320000A090402000203000008
:100920000009211101000122220007058303200094
:100930000107050303200001120110010000000857
:10094000EDFE00000100010203010631FF0974A160
:10095000010975150026FF009520750881020976AA
:10096000150026FF00952075089102C00501098039
:10097000A10185031601002603001A81002A8300C5
:10098000751095018100C0050C0901A101850416AF
:100990000100269C021A01002A9C02751095018113
:1009A00000C005010906A101050719E029E71500A6
:1009B00025019508750181029501750881010508D9
:1009C000190129059505750191029501750391019C
:1009D0000507190029FF150026FF009506750881F7
:1009E00000C011241FBECFEFDAE0DEBFCDBF04B6DA
:1009F00003FE27C080915E0290915F02A091600289
:100A0000B09161028730904BA740B04BD1F4109267
:100A10005E0210925F02109260021092610214BE98
:100A200084B7877F84BF0FB6F894A8958091600043
:100A3000886180936000109260000FBEE0E0F8E3F0
:100A4000099511E0A0E0B1E0E0E6F3E602C0059010
:100A50000D92AE33B107D9F722E0AEE3B1E001C0A9
:100A60001D92AE35B207E1F70E94E1270C94613187
:100A70000C940000FF93EF93E0913E01F0913F0151
:100A8000309709F00995EF91FF910895FC01859148
:100A9000803011F0EFDFFBCF0895FF27E0E230E276
:100AA00047FF0CC0419597FF09C0EDE26095709536
:100AB00080959095611D711D811D911D27FF02C0BC
:100AC000219530E350E2AA27660F771F881F991FF0
:100AD000AA1FA41710F0A41B63955A95A9F7AA3072
:100AE00008F0A95FA05DAF93F395611571058105CD
:100AF000910541F7ED3211F4EF93F395F21718F4E5
:100B00003F93F395FBCF8F91B5DFFA95E1F7089509
:100B1000E991F9918591803021F0853219F0AADFB1
:100B2000F9CF089520E0E89455915532C1F3503340
:100B300011F4689455915A3348F4505390F3220FAE
:100B4000022E220F220F200D250FF4CF0EF4219537
:100B500089919991533619F3533729F1533559F146
:100B6000BC0188279927E8945C3621F489919991F2
:100B700068945591543639F446EF7EF077FF0DC0F6
:100B80008FEF9FEF0AC055374AE039F0583540E102
:100B900021F0523642E009F00895FF93EF937DDF94
:100BA000EF91FF91B7CFFF93EF93FC0181918030DC
:100BB000B9F360DFFBCFFF93EF9368DFF1CFDF93F3
:100BC000CF93CDB7DEB72596A3DFCF91DF91089500
:100BD0000C94F6050C94F7050C94F80581FF04C0FD
:100BE000269A2E980C9406072698FBCF0895089510
:100BF00081E00895CF92DF92EF92FF928C3724E14B
:100C0000920750F469E070E00E94A230CB01FF909F
:100C1000EF90DF90CF900895B0E0A0E0BC01CD014F
:100C20006A50774D8F4F9F4F982F872F762F6627CB
:100C300025EF38E241E050E00E94CA3069017A01B4
:100C4000CA01B9010E9486309B01AC01C701B601FF
:100C50000E948630672F782F892F9927611571059B
:100C600021E08207910591F66FEF7FEFCFCF81E012
:100C700008950C94EA058430D8F481111AC090913B
:100C80008000977F90938000282F30E0AFEFBFEF78
:100C90000E94F23023E030E040E050E00E94CA3091
:100CA000C9010E94FA0590938D0080938C000895ED
:100CB00083E0909180009860E5CF80916F00817013
:100CC0000895109241011092400110924201EFE606
:100CD000F0E08081816080830895EFE6F0E080811C
:100CE0008E7F80830E94A3250C943B060E945D06A4
:100CF00081110C946D060C9461061F920F920FB631
:100D00000F9211242F933F934F935F936F937F9391
:100D10008F939F93AF93BF93CF93EF93FF932091C4
:100D200000018091400190914101019644EF249F80
:100D300090011124B9010E94A23090934101809347
:100D40004001B901660F672F661F770B71950E94EE
:100D5000A2306F7780914201823041F4603451F4C7
:100D600080916F008E7F80936F0004C0813011F4FA
:100D70006F37B1F3E62FF0E0ED5CFC4FC4910E94B9
:100D8000A325282F41E051E0C49FC001C59F900DCD
:100D9000112463E070E00E94A230269FC001279FCB
:100DA000900D11240E94FA0590938D0080938C0081
:100DB000FF91EF91CF91BF91AF919F918F917F91D3
:100DC0006F915F914F913F912F910F900FBE0F90B8
:100DD0001F901895279A2F988AE08093800089E1C8
:100DE000809381008FEF9FEF909387008093860020
:100DF0000E948A240C9461060E945E21811102C027
:100E00000E94DF210E94EA060C94E80508950C94E4
:100E1000EE0508950E94611B0E9409072FEF84E3ED
:100E20009CE0215080409040E1F700C000000C940D
:100E30000923FF920F931F93CF93DF938C01FC0143
:100E4000C081D18180919001811149C08281882324
:100E500009F440C0CE010E94FD1FF82E682FCE017C
:100E60000E94A91FBE018F2D0E94B309EC01B80199
:100E70000E94EC05882309F409C1CB3CFCE5DF079F
:100E800009F449C108F071C0C33C9CE5D90709F4D5
:100E900019C108F048C0C531FCE5DF0728F5C230AC
:100EA0008CE5D80708F09FC1C1159CE5D90709F466
:100EB000E8C0C130DC4509F4F0C081E0809348010E
:100EC00080934901C801DF91CF911F910F91FF904D
:100ED0000C943706CE010E94D51FF82EC3CFCE0149
:100EE0000E94FD1FBE01C0CFC13CFCE5DF0709F435
:100EF00032C208F0E0C0C631DC45F9F60E9492200B
:100F0000F8019281992309F41CC28A7A91E009F4CC
:100F100090E090934301811112C289E20E946D20FA
:100F20000E94D120B3C0F8018281C73CFCE5DF07F5
:100F300009F4E1C068F4C53CECE5DE0709F4D6C06D
:100F400008F4CBC0882309F4A1C00E94D5109EC02C
:100F5000C93C9CE5D90709F4D8C008F4D1C088235E
:100F600009F494C00E94491191C0C33DFCE5DF071C
:100F700009F40FC190F5F8018281CF3CFCE5DF0751
:100F800009F4DEC0A8F4CD3CECE5DE0709F4D1C0DD
:100F900008F4C9C0882309F479C00E94070F823081
:100FA00028F00E94070F853008F49DC082E0C5C07C
:100FB000C13D9CE5D90709F4DEC008F4CEC0882302
:100FC00009F464C00E94070F853128F00E94070FC2
:100FD000873108F488C085E1B0C0C73DFCE5DF0774
:100FE00009F48AC1C0F4F8018281C53DFCE5DF0740
:100FF00009F4E4C008F4D4C0882309F466C110924F
:1010000048010E94AF22909345018093440182E001
:101010000E94E9183BC0CB3DECE5DE0709F4D3C0E4
:1010200000F5C83DDC4509F048CFF8018281811107
:1010300067C180914901811180C1809146019091E1
:1010400047010E94BB22883C910508F076C180E2EE
:101050000E94F01888E20E94971788E20E949A186E
:1010600015C0CC3D9CE5D90709F4B6C0CD3DDC45A3
:1010700009F023CFF8018281882341F00E94DF210B
:1010800005C0F801828181110E940A0780E0DF918A
:10109000CF911F910F91FF900895F80182818823CD
:1010A000A9F380910B02816080930B0282E293E0AE
:1010B0000E944605EBCFF8018281882339F30E9414
:1010C0009512E4CFF8018281882301F30E949220D7
:1010D000827249F00E94E611D9CF8823B9F20E94AA
:1010E00092208272B9F30E94D811D0CF882371F276
:1010F0000E94B210CBCF882349F20E94F210C6CFD3
:10110000882321F20E940F11C1CF882309F4BECF9A
:101110000E942C11BBCFF8018281882309F4B6CF3D
:101120000E94100FB3CF882309F4B0CF0E94250F7F
:10113000ADCF882309F4AACF81E00E94E911A6CFA0
:10114000882309F4A3CF0E94070F863020F00E9465
:10115000070F883040F286E0F0CF882309F496CF5D
:101160000E94070F893028F00E94070F8E3008F484
:10117000BACF89E0E2CF882309F488CF0E94070F15
:101180008F3028F00E94070F843108F4ACCF8FE035
:10119000D4CFF8018281882309F478CF88E1CDCFBC
:1011A000882309F473CF0E94070F893128F00E9429
:1011B000070F823208F497CF89E1BFCF882309F463
:1011C00065CF83E2BACFF8018281882309F45ECF2C
:1011D00080E00E948A285ACFF8018281882309F48E
:1011E00055CF82E0F6CFF8018281882309F46ACED8
:1011F0000E945E21811102C00E94DF210E947B219A
:1012000090E090934F0280934E02FE01E350FC4524
:1012100080914E028160E231F10538F4ED59FE4CC7
:101220000C94EC3080914E02826080934E0280914B
:101230004E020E947F210E94611B28CF80914E02A6
:101240008460F3CF80914E028860EFCF80914E0290
:101250008061EBCF80914E028062E7CF80914E0299
:101260008064E3CF80914E028068DFCF80914E0290
:101270008C60DBCF80914E028E7FD7CF80914E0263
:101280008D7FD3CF80914E028B7FCFCF80914E0246
:10129000877FCBCF80914E028F7EC7CF80914E0249
:1012A0008F7DC3CF80914E028F7BBFCF80914E0246
:1012B0008F77BBCF80914E02837FB7CF90914E0244
:1012C000892F97FB87F98058B0CF80914801811111
:1012D0000FC080914401909145010E94BB22883C3F
:1012E000910530F486E20E94971786E20E949A18D0
:1012F00082E00E94F018CACEF8018281882351F062
:10130000109249010E94AF229093470180934601B9
:1013100080E27ECE8091490181110FC0809146010B
:10132000909147010E94BB22883C910530F487E2EE
:101330000E94971787E20E949A1880E2DACF85E32D
:10134000EDCD80914301811104C089E20E94742097
:10135000E7CD85E3FBCFF8018281882309F496CE9F
:101360000E94760693CE972F70E02EE0929F600D3C
:10137000711D1124FB0196E4899FE00DF11D1124DC
:10138000EE0FFF1FEE50FF4F859194910895FC01E1
:10139000EE0FFF1FED54FC4F859194910895CF936C
:1013A000DF930E94B3090E94B70BEC01811521E580
:1013B000920708F049C0811530E5930708F032C163
:1013C000883E910508F5803E910570F5883A9105B3
:1013D00070F4853A910508F0B0C08130910521F193
:1013E000009711F1049700F5D0E0C0E01DC08F3BDD
:1013F000910508F4ADC0805C9109C03CD105A0F313
:101400000E94C709EC0110C08115904388F4C115F2
:1014100080E2D80708F0FDC0C03FD10528F3CF3FD8
:10142000D10509F008F4F3C0CE01DF91CF91089502
:10143000C11590E4D90708F0F2C0CE019927D3FF77
:10144000EBC0EC01D86CF0CF811529E5920760F56F
:10145000811538E5930708F02BC1811544E5940701
:1014600078F4C11583E5D80708F009C1C11592E5E4
:10147000D90708F0F3C0DC2FCC27C16FD06AD4CFD6
:10148000811525E5920708F40EC1811536E593070D
:1014900008F0AACF0E94320CC82FD0E0DC2FCC2756
:1014A000CC27DF71D062C0CF8D3B9C4509F405C1CC
:1014B000CE3B8CE5D807E0F4CB3B9CE5D90709F49B
:1014C000FFC008F000C1C1153AE5D30708F08CCF82
:1014D0008C2F8F700E94320C34E0D695C7953A95C8
:1014E000E1F79C2F9F70C82FCF70C06ED92F98C086
:1014F000C03C4CE5D40709F4E9C060F4CE3B9CE560
:10150000D90709F4E6C0CF3BDC4509F06DCFC0E058
:10151000D2ED8ACFCE0190568115904208F064CF6B
:101520008D2F8F710E94320C90E0982F882788278A
:101530009F719C012C2BE901B5CF853A910509F4E7
:10154000CBC0863A910509F0CAC0C2E8D0E46CCF9E
:10155000883A910509F4C6C0893A910509F4C5C0D5
:101560008A3A910509F4C4C08B3A910509F4C3C0C5
:101570008C3A910509F4C2C08B3B910509F4C1C0B6
:101580008C3B910509F4C0C08D3A910509F4BFC0A8
:10159000803B910509F4BEC08E3A910509F4BDC0A7
:1015A0008F3A910509F4BCC0813B910509F4BBC099
:1015B000823B910509F4BAC0833B910509F4B9C097
:1015C000843B910509F4B8C0853B910509F4B7C087
:1015D000863B910509F4B6C0873B910509F4B5C077
:1015E000883B910509F4B4C0893B910509F4B3C067
:1015F0008D3B910509F4B2C08E3B910509F4B1C051
:101600008A3B910509F4B0C0C0E0D4E40DCFD065A9
:101610000BCFCE019F70F4CEEC01D06C05CFDF7004
:10162000D06A02CFE4E096958795EA95E1F783705A
:101630002C2F26952695237040E2249F900111249B
:10164000382B8C2F8370C1E0D0E002C0CC0FDD1F9F
:101650008A95E2F7C22BD32BDC68E6CECE018370ED
:10166000992721E030E002C0220F331F8A95E2F76C
:10167000C695C69580E2C89FE0011124EBCFCE014C
:101680008370992721E030E002C0220F331F8A9532
:10169000E2F7C695C69590E2C99FE0011124C22BDE
:1016A000D32BDA68C1CED82FCC27C46FD06ABCCE7A
:1016B000D82FCC27C06FD06AB7CEC0E0D1EDB4CE62
:1016C000C0E0D4EDB1CEC0E0D5EDAECEC0E0D3EDFC
:1016D000ABCEC0E0D0EDA8CEC1E8D0E4A5CEC3E843
:1016E000D0E4A2CEC2EED4E49FCEC9EED4E49CCE28
:1016F000CAEED4E499CEC5EBD4E496CEC6EBD4E4DE
:1017000093CEC3EBD4E490CEC4EBD4E48DCEC7EB40
:10171000D4E48ACECCECD4E487CECDECD4E484CE31
:10172000C3E8D5E481CECAE8D5E47ECEC2E9D5E4EB
:101730007BCEC4E9D5E478CEC1E2D6E475CEC3E26F
:10174000D6E472CEC4E2D6E46FCEC5E2D6E46CCE67
:10175000C6E2D6E469CEC7E2D6E466CECFE6D4E4EC
:1017600063CEC0E7D4E460CECAE2D6E45DCE823870
:10177000910549F1B0F48133910509F462C048F450
:101780008932910509F456C08A32910509F460C086
:1017900008958533910509F446C08933910599F080
:1017A0000895833E910531F138F4803E910591F022
:1017B000823E9105B1F00895863E910521F1873E64
:1017C000910551F1089520914E022370D9F080EED9
:1017D00090E0089520914E0220FF14C089E390E02C
:1017E000089520914E0222FF0DC024FD09C083EE12
:1017F00090E0089520914E0222FD31C024FF02C0E6
:1018000090E080E0089520914E0223FFFBCF24FD5D
:10181000F7CF87EE90E0089520914E0223FFEECFA0
:1018200086EE90E0089520914E0225FFEBCF89E2ED
:1018300090E0089520914E0225FFE4CF85E390E0EB
:10184000089520914E0226FFDDCF8AE290E00895B0
:1018500020914E0226FFD6CF81E390E0089582EEDC
:1018600090E0089590914E0292FF06C0282F2871B3
:10187000283069F4877F846093FF06C0282F287181
:10188000283161F4877E846194FD877E0895282F36
:101890002471243089F78B7F8860EECF282F247144
:1018A000243191F78B7E8861EFCFCF93DF93A9E24C
:1018B000B1E02EE231E061E070E09D91E92FE29528
:1018C000EF70F0E041A19F70EB0102C0CC0FDD1F73
:1018D0009A95E2F7CE018095842381A32A173B07CE
:1018E00061F7ABE1B1E061E070E08D91E82FE29546
:1018F000EF70F0E041A18F709B0101C0220F8A952B
:10190000EAF7922F9095942391A382A1822B82A330
:10191000D1E0A932BD0749F7109255011092540148
:1019200010924B0110924A011092570110925601E9
:1019300010924D0110924C011092590110925801D1
:1019400010924F0110924E0110925B0110925A01B9
:10195000109251011092500110925D0110925C01A1
:10196000109253011092520185E00E94A40DDF9164
:10197000CF910C94FC064F925F927F928F929F9230
:10198000AF92BF92CF92DF92EF92FF920F931F938D
:10199000CF93DF9394E5492E91E0592E29E2E22E70
:1019A00021E0F22E20E0CC24C394D12CE2018990D6
:1019B00099902E01DE011E921E92F70181917F0106
:1019C000E82FE295EF70F0E091A18F70B60101C0B1
:1019D000660F8A95EAF7892F862B81A382A1362F7D
:1019E0003095832382A380EA8A95F1F78BE1A82EB4
:1019F00081E0B82E50E040E0E50179905E01872D4E
:101A000082958F7090E0EC0188A10D911C91119747
:101A100090E0D72DDF7002C095958795DA95E2F7B3
:101A200080FD3FC0C601042E02C0880F991F0A9492
:101A3000E2F7082B192B11961C930E934F5F5F4F03
:101A40004E305105C9F681A1382331A382A1682BFC
:101A500062A381E04D915C914815590509F480E03D
:101A6000282BEEE54E16E1E05E0609F09FCF45E03B
:101A70006AE471E084E591E00E94A50D0E943906B8
:101A800081E0DF91CF911F910F91FF90EF90DF9058
:101A9000CF90BF90AF909F908F907F905F904F902E
:101AA000089590E080E0C5CFE82FF0E0EE0FFF1F33
:101AB000E65BFE4F808191810895CF92DF92EF9295
:101AC000FF920F931F93CF93DF9383EC93E00E94D9
:101AD00046058AE4E82E81E0F82ED0E0C0E09EEBD7
:101AE000C92E93E0D92E05EB13E0DF93CF93DF925D
:101AF000CF920E94DF058BEB93E00E944605F70131
:101B0000819191917F010E9451219F938F931F9307
:101B10000F930E94DF0583EB93E00E944605219618
:101B20008DB79EB708960FB6F8949EBF0FBE8DBFB7
:101B3000C530D105D1F6DF91CF911F910F91FF9064
:101B4000EF90DF90CF9008950895FF920F931F9329
:101B5000CF93DF93F82E092F162FD72FC42F2223D0
:101B600049F081E0809360010E94AF2290935F0171
:101B700080935E0180916001882389F080915E01ED
:101B800090915F010E94BB22069748F0EF2DF02F45
:101B9000A12FBD2F80E08C1308C010926001DF914F
:101BA000CF911F910F91FF900895219131912D9325
:101BB0003D938F5FF0CFCF92DF92EF92FF920F9322
:101BC0001F93CF93DF93E901662309F466C0E42EE7
:101BD000F12CEFEFF0E0E61BF109EE9D8001EF9DA7
:101BE000100DFE9D100D1124212FE12FFF27EE1A5D
:101BF000FF0A5CE3C52ED12CB6010E94A230FB0186
:101C0000BC01E69EC001E79E900DF69E900D11244A
:101C1000B6010E94A230E230F10589F168F4812F0B
:101C2000262F210F309781F0242F461B319761F02A
:101C300080E020E040E008C0E430F10551F128F1F7
:101C4000842F861B3597A1F7E42FF0E0ED53F94F71
:101C50004491E22FF0E0ED53F94F9491E82FF0E03A
:101C6000ED53F94FE49149839883EA83DF91CF9153
:101C70001F910F91FF90EF90DF90CF900895862FE6
:101C8000810FE42F412F2E2FDFCFE42FE61B842F6F
:101C9000F9CF842F462F410FD7CF842F242FD4CFB5
:101CA00088E090E00C942131CF92DF92EF92FF9286
:101CB0006B017C010E94500E6C157D058E059F0501
:101CC00051F0B701A60188E090E0FF90EF90DF901F
:101CD000CF900C943F31FF90EF90DF90CF9008951C
:101CE000EBE1F2E083E0808311828FEF82838383D4
:101CF000148260817181828193810C94540E809151
:101D00000B0280FF83C080E996E09F938F930E942F
:101D1000DF0580910B020F900F9080FF77C08091BC
:101D20001B0281701F928F9383E796E09F938F939E
:101D30000E94DF0580910B020F900F900F900F9083
:101D400080FF64C080911B0286958F731F928F93D2
:101D500088E596E09F938F930E94DF0580910B02A8
:101D60000F900F900F900F9080FF50C090911B022A
:101D7000292F221F2227221F80911C02982F990FA2
:101D8000922B87FB882780F98F939F938EE396E0B1
:101D90009F938F930E94DF0580910B020F900F900D
:101DA0000F900F9080FF32C080911D021F928F9381
:101DB00084E296E09F938F930E94DF0580910B024F
:101DC0000F900F900F900F9080FF20C080911E0207
:101DD0001F928F938AE096E09F938F930E94DF0576
:101DE00080910B020F900F900F900F9080FF0EC00C
:101DF00080911F021F928F938EEE95E09F938F9399
:101E00000E94DF050F900F900F900F900895809122
:101E10001B0280FF03C086958F73089580E00895AC
:101E200080911F0290E001968430910514F083E0C8
:101E300090E080931F0260911B0270911C028091C0
:101E40001D0290911E020C94540E80911F0281502D
:101E5000990B97FF02C090E080E08430910514F068
:101E600083E090E080931F0260911B0270911C023E
:101E700080911D0290911E020C94540E80911B02C1
:101E8000E0E2F2E080FF06C06EE070E080E292E007
:101E90000C94DF15118210821282339682E0EA34AC
:101EA000F807C1F7F1CF90911B0290FF0CC0E0E260
:101EB000F2E0818360834283339692E0EA34F9074B
:101EC000C1F70C943E0F0895CF93DF9300D00F928B
:101ED000CDB7DEB720911B0220FF0AC09E012F5F05
:101EE0003F4F0E94DB0D4B8169818A810E94530F15
:101EF0000F900F900F90DF91CF9108952F923F9206
:101F00004F925F926F927F928F929F92AF92BF9209
:101F1000CF92DF92EF92FF920F931F93CF93DF93B5
:101F200000D000D000D00F92CDB7DEB78C01462E86
:101F3000542E2F8380911B0280FF55C0982F9E77CF
:101F4000923009F069C09E012F5F3F4FC8010E9487
:101F5000DB0D4B8169818A810E94530F80911B02A6
:101F600000FB87F980931B0280911C028078902FE0
:101F70009695892B10FB87F980931C0240921D02D5
:101F800050921E028F81882309F4C9C060911B0200
:101F900070911C0280911D0290911E020E94540EAD
:101FA00080911E021F928F9380911D021F928F932A
:101FB00090911B02292F221F2227221F80911C0291
:101FC000982F990F922B87FB882780F98F939F93E7
:101FD00084E294E09F938F930E94DF050FB6F894FC
:101FE000DEBF0FBECDBF27960FB6F894DEBF0FBE83
:101FF000CDBFDF91CF911F910F91FF90EF90DF90B8
:10200000CF90BF90AF909F908F907F906F905F9098
:102010004F903F902F900895E82FE695EF739EE341
:102020009E0F9F73943018F450901E0297CF9AE33E
:102030009E0F9F73993068F4881F8827881F90919E
:102040001C02292F220F022F082B97FB112710F9B2
:1020500085CF87E28E0F8F738A3008F07FCFE951EA
:10206000FF0BE0FD59C021E02C83EE7FE754F94FD0
:1020700085909490C4016EE070E00E94A2309C8133
:10208000692E990F7708669DC001679D900D769D1A
:10209000900D11249E838D83580198E9A91A9EEF13
:1020A000B90A80E2C82E82E0D82EF12CE12CC501BD
:1020B00068E671E00E94A2301C0180910B0280FF53
:1020C00014C09F928F927F922C812F933F922F92D8
:1020D000FF92EF9289E494E09F938F930E94DF0533
:1020E0000FB6F894DEBF0FBECDBF9601452D642D0F
:1020F000C1010E94DB0D9FEFE91AF90A8D819E81D3
:10210000A80EB91E93E0C90ED11C2EE0E216F10410
:1021100071F60E943E0F22CF8FEF8C83A6CF1F92C5
:102120005F921F924F9211701F930F938DEF93E068
:1021300051CF282FEBE1F2E03081331F3327331FDB
:1021400040911C02542F550F852F832B47FB992755
:1021500090F90C9668E671E00E94B6304381628186
:102160000C947E0F81E00C949910282F30911B0263
:10217000331F3327331F40911C02542F550F852FD7
:10218000832B47FB992790F98C30910540F4845AB2
:102190009E4F40911E0260911D020C947E0F0C9781
:1021A00068E671E00E94B630F4CF81E00C94B5107F
:1021B00060911D02643FA0F4645F30911B02331FE5
:1021C0003327331F90911C02592F550F97FB9927E6
:1021D00090F9282F40911E02852F832B0C947E0F9F
:1021E0006FEFEBCF81E00C94D81060911D026C3042
:1021F000A0F06C5030911B02331F3327331F909196
:102200001C02592F550F97FB992790F9282F4091C1
:102210001E02852F832B0C947E0F60E0EBCF81E0B4
:102220000C94F51040911E02443FA0F4445F30919D
:102230001B02331F3327331F90911C02592F550F58
:1022400097FB992790F9282F60911D02852F832BEA
:102250000C947E0F4FEFEBCF81E00C941211409164
:102260001E024C30A0F04C5030911B02331F33271C
:10227000331F90911C02592F550F97FB992790F906
:10228000282F60911D02852F832B0C947E0F40E038
:10229000EBCF81E00C942F1120E00C947E0F81E0B5
:1022A00080937E0180910B0280FF08C08CEE93E04A
:1022B0009F938F930E94DF050F900F9008951092C7
:1022C0007E0180910B0280FF08C08AED93E09F930E
:1022D0008F930E94DF050F900F90089590911B023D
:1022E00090FF59C09178811142C0926090931B0277
:1022F000662309F444C060911B0270911C02809116
:102300001D0290911E020E94540E80911B02869520
:102310008F731F928F9384E395E09F938F930E9416
:10232000DF050F900F900F900F9060911B02669544
:102330006F7370E04BE050E083E091E00E940C315D
:10234000892B31F10E945F1180911B02881F882721
:10235000881F90911C02292F220F97FB992790F933
:1023600040911E0260911D02822B0C944C1185320B
:1023700010F09864BBCF8F73880F982BB7CF8091E4
:102380001B0286958F731F928F9386E195E0C5CFD0
:102390000E944F11D9CF0895682F90911B029695F6
:1023A0009F7381E0890F853208F081E00C946E11F3
:1023B00081E00C94CC11682F90911B0296959F732D
:1023C0008FEF890F09F484E20C946E1181E00C9474
:1023D000DB1161E00C946E11CF93DF93CBE1D2E07F
:1023E0008881816088831F9281E08F9388EA94E0DE
:1023F0009F938F930E94DF050F900F900F900F9087
:10240000888186958F73DF91CF910C94E91160E0FC
:102410000C946E1180910B02816080930B0280FFFF
:1024200014C087ED95E09F938F930E94DF05809104
:102430000B020F900F9080FF08C081EC95E09F93F6
:102440008F930E94DF050F900F900E945E218111F3
:1024500010C080910B0280FF08C089E995E09F932E
:102460008F930E94DF050F900F900E94DF210E9442
:10247000700E0E94500E60931B0270931C0280939A
:102480001D0290931E026E77C1F480910B0280FFB3
:1024900008C080E595E09F938F930E94DF050F9021
:1024A0000F900E94700E0E94500E60931B0270935A
:1024B0001C0280931D0290931E020E947F0E81E0F9
:1024C00080937E0180911B0280FF04C086958F73EC
:1024D0000C9407120895CF93DF93CBE1D2E088816B
:1024E0008E7F8883688179818A819B810E94540EC6
:1024F000888181701F928F9380E794E09F938F93E0
:102500000E94DF050E945F112FEF80E792E02150CB
:1025100080409040E1F700C000000F900F900F90B6
:102520000F90DF91CF910C943E0F80911B0280950C
:1025300081701F928F938FED94E09F938F930E94F1
:10254000DF0580911B020F900F900F900F9080FD80
:102550000C946B120C94EC11CF93C82F80917C01DA
:1025600090917D010E94BB22EC2FF0E0EB54F94FDB
:10257000E491E817190611F008F042C00E94AF225A
:1025800090937D0180937C0160917B0170E090E0ED
:1025900080E00E94872E20E030E04FE753E40E9465
:1025A000AA2D2BED3FE049E450E40E94B02F0E9499
:1025B0001D300E94242E2BE43AE34EE25FE30E949A
:1025C0003D2D20EF3BEF48ED52E40E94B02F0E94DA
:1025D000562E462F80911B02881F8827881F9091B6
:1025E0001C02292F220F97FB992790F960911D0259
:1025F000822B0E94640F80917B018F5F80937B010F
:10260000CF910895CF93C82F8091790190917A014D
:102610000E94BB22EC2FF0E0EE54F94FE491E81752
:10262000190609F0E8F40E94AF2290937A01809392
:10263000790140911E0260911D0280917701909175
:1026400078010E94640F8091770190917801019642
:1026500068E671E00E94A230909378018093770140
:10266000CF910895DF92EF92FF920F931F93CF9334
:10267000DF93D82E80917501909176010E94BB2244
:10268000ED2DE695F0E0E155F94FE491E8171906D4
:1026900009F0A8F50E94AF2290937601809375010E
:1026A00000E212E0D0E0C0E088E6E82EFF24F394D8
:1026B00080917301909174018C0F9D1FB7010E944E
:1026C000A230980140911E0260911D020E94DB0D14
:1026D00069960D5F1F4FCE3581E0D80749F70E94FC
:1026E0003E0F8091730190917401D0FE10C001964D
:1026F000B7010E94A2309093740180937301DF911F
:10270000CF911F910F91FF90EF90DF900895019767
:10271000F2CFCF92DF92EF92FF920F931F93CF935E
:10272000DF93C82FFF24FA9480FD02C0FF24F394A6
:1027300080917101909172010E94BB22C695EC2F8D
:10274000F0E0E455F94FE491E817190611F008F0AC
:1027500051C00E94AF22909372018093710100E2F8
:1027600012E0D0E0C0E0F80111821082128294E001
:10277000C92ED12CE12C809170018E0D87FD825FD6
:10278000082E000C990B8C179D07E9F480911E020E
:102790008C9DA0018D9D500D112455954795559503
:1027A000479580911B02881F8827881F90911C02E3
:1027B000592F550F97FB992790F9980160911D02A9
:1027C000852B0E94DB0DEF0CF1E0CF1AD10899F6B2
:1027D00021960D5F1F4FCE30D10529F60E943E0F86
:1027E0008091700191E0F91210C081110CC08DE050
:1027F00080937001DF91CF911F910F91FF90EF9027
:10280000DF90CF9008958150F3CF90E00196BE0104
:102810000E94B630EDCF0F931F93CF93DF93C82F55
:1028200080916E0190916F010E94BB22EC2FF0E02D
:10283000E755F94FE491E817190611F008F052C076
:102840000E94AF2290936F0180936E01C0E2D2E0AC
:10285000FE01118210821282339682E0EA34F80778
:10286000C1F710E000E080916D01082E000C990B7B
:1028700008171907E4F180910201082E000C990B4A
:1028800080179107A4F180911B02881F8827881F59
:1028900090911C02592F550F97FB992790F99E0193
:1028A00040911E0260911D02852B0E94DB0D0F5F7F
:1028B0001F4F23960E301105B1F60E943E0F8091F6
:1028C000010190916D01980F90936D01209102018B
:1028D000280F20930201121614F49D301CF08195EC
:1028E00080930101DF91CF911F910F91089519827B
:1028F00018821A82DCCFEF92FF920F931F93CF932F
:10290000DF9380916B0190916C010E94BB22883E05
:102910009340C8F10E94AF2290936C0180936B01A9
:10292000C0916901D0916A012196C170DD27D093D1
:102930006A01C093690180E2E82E82E0F82E10E07F
:1029400008E7812F86958C0F9D2F911D8170992707
:10295000970140911E0260911D02FC010E9FC00173
:102960000F9F900D11240E94DB0D1F5FF3E0EF0E0F
:10297000F11C1E3031F7DF91CF911F910F91FF9025
:10298000EF900C943E0FDF91CF911F910F91FF902C
:10299000EF900895CF93DF9300D00F92CDB7DEB7BD
:1029A00080916701909168010E94BB22E7EAF6E0FE
:1029B0002591349182179307C0F1809166018111AE
:1029C0000CC09E012F5F3F4F4FEF6FEF90E080E014
:1029D0000E94DB0D8A81809366010E94AF22909352
:1029E00068018093670180916501813071F08823CF
:1029F00039F040E0823011F44091660180E003C07C
:102A00008091660140E060E004C06091660140E0B2
:102A100080E00E94530F8091650190E0019663E091
:102A200070E00E94B630809365010F900F900F9078
:102A3000DF91CF9108950F931F93CF93DF938091F0
:102A40006301909164010E94BB22843F9140D8F1C0
:102A50000E94AF229093640180936301C0E2D2E0B0
:102A600010E000E0409161015091620160911D020F
:102A700080911B02282F221F2227221F90911C02C7
:102A8000892F880F822B97FB992790F90730110522
:102A9000FCF4452BF9F09E0140911E020E94DB0DD3
:102AA0000F5F1F4F23960E301105E1F60E943E0F77
:102AB00080916101909162010196817099279093B4
:102AC000620180936101DF91CF911F910F91089571
:102AD000452B09F39E0140E0E1CF80917E018823E0
:102AE000D1F190911B02892F86958F732EE3280FC9
:102AF0002F73243018F482500C94AC122AE3280F60
:102B00002F73233018F486500C94021327E3280FF8
:102B10002F73263018F489500C94321321E3280FB8
:102B20002F73263018F48F500C9489132BE2280F42
:102B30002F73233018F485510C940B149E77903327
:102B400011F40C947B14963411F40C94CA14983438
:102B500011F40C941B15089531B3242F20952323D1
:102B600031B3432B3FB7F894680F791F8617970747
:102B700011F43FBF0895FC015191CF01E8E041BB42
:102B8000000000C057FF21BB550F000000C000C06F
:102B900000C021BB00C0EA9591F7E8CF20B3242BF9
:102BA00020BB9B01220F331F620F731F0E94AC15C5
:102BB00087EC90E00197F1F700C00000089541E034
:102BC0000C94CE1590938401809383010895E09135
:102BD0008301F0918401309721F00190F081E02D84
:102BE000099480E00895EF92FF920F931F93CF9383
:102BF000DF938C01E0918301F09184013097C1F162
:102C00000280F381E02D099580910B0282FF30C094
:102C100080FF04C08BEC97E00E944605D0E0C0E046
:102C200085ECE82E87E0F82E80910B0280FF0EC025
:102C3000F801EC0FFD1F80811F928F93FF92EF929E
:102C40000E94DF050F900F900F900F902196C830D3
:102C5000D10551F780910B0280FF0AC083EC97E009
:102C6000DF91CF911F910F91FF90EF900C9446054B
:102C7000DF91CF911F910F91FF90EF9008952091D8
:102C80008101309182012817390771F090938201F8
:102C900080938101E0918301F0918401309721F0CC
:102CA0000680F781E02D0994089520917F013091ED
:102CB00080012817390771F09093800180937F017C
:102CC000E0918301F0918401309721F00084F18537
:102CD000E02D0994089585B7806885BF85B7806821
:102CE00085BF089508950E946B160C94721681E0BA
:102CF00008950E94A6220E94550C0E9478230E94EB
:102D00008A240C940A12CF93C82F80910B0282FF61
:102D10001EC080FF1CC084EE97E00E944605809193
:102D20000B0280FF14C01F92CF938FED97E09F930B
:102D30008F930E94DF0580910B020F900F900F90F0
:102D40000F9080FF04C08DED97E00E9446058C2F08
:102D5000CF910C9407075F926F927F928F929F9210
:102D6000AF92BF92CF92DF92EF92FF920F931F9399
:102D7000CF93DF93CDB7DEB72A970FB6F894DEBFB7
:102D80000FBECDBF0E94BB0C0E947716882309F4AA
:102D900078C096E8A92E91E0B92E10E000E08824D2
:102DA0008394912C502E802F0E94540D7C01F501AC
:102DB000C190D1905F01C816D90609F45CC080911A
:102DC0000B0281FD0E945D0D90E080E0CE24DF24A7
:102DD0003401082E02C0660C771C0A94E2F79601B3
:102DE00026213721232B09F441C08E835F82E62000
:102DF000F72081E0EF2809F480E088870E94AF2265
:102E00008160782F9A8789874E815F8168858A855E
:102E10000E946817000F111FF801EA57FE4F8081CA
:102E2000918168267926718260820E94E7159091CF
:102E300085018917B9F10E94E715809385012A96CB
:102E40000FB6F894DEBF0FBECDBFDF91CF911F91BB
:102E50000F91FF90EF90DF90CF90BF90AF909F9039
:102E60008F907F906F905F900C94831601968E30B8
:102E7000910509F0ADCF0F5F1F4F0530110509F027
:102E800091CF8FEF89838A831B820E94AF2281605A
:102E9000782F9D838C8349815A816B818D810E941B
:102EA0006817C3CF2A960FB6F894DEBF0FBECDBF0A
:102EB000DF91CF911F910F91FF90EF90DF90CF9016
:102EC000BF90AF909F908F907F906F905F9008958C
:102ED000CF93DF93CDB7DEB72B970FB6F894DEBF55
:102EE0000FBECDBF4F83588769877A878B871E8235
:102EF0001D8285E0FE013796DE01119601900D924C
:102F00008A95E1F749815A816B817C818D819E810F
:102F10002B960FB6F894DEBF0FBECDBFDF91CF91D9
:102F20000C94011EFC01808191810C943F20882328
:102F300009F4FFC08238B9F40E94E71581FDF9C099
:102F400089E30E946D200E94D1202FEF81EE94E052
:102F5000215080409040E1F700C0000089E30E94CA
:102F600074200C94D1208338A1F40E94E71580FDD1
:102F7000E0C083E50E946D200E94D1202FEF81EEFA
:102F800094E0215080409040E1F700C0000083E5CC
:102F9000E6CF8438A1F40E94E71582FDCAC087E419
:102FA0000E946D200E94D1202FEF81EE94E02150ED
:102FB00080409040E1F700C0000087E4D0CF9CEF54
:102FC000980F913A18F40E946D20CBCF90E2980FA1
:102FD000983050F4877091E001C0990F8A95EAF714
:102FE000892F0E949520BDCF9BE5980F933070F4F8
:102FF000853A31F0863A39F083E890E00C943F1638
:1030000081E890E0FBCF82E890E0F8CF98E5980F58
:10301000973108F08EC0883A09F446C0893A09F41D
:1030200046C08A3A09F446C08B3A09F446C08C3A45
:1030300009F446C08B3B09F446C08C3B09F446C0FA
:103040008D3A09F446C0803B09F446C08E3A09F433
:1030500046C08F3A09F446C0813B09F446C0823B22
:1030600009F446C0833B09F446C0843B09F446C0DA
:10307000853B09F446C0863B09F446C0873B09F40A
:1030800046C0883B09F446C0893B09F446C08D3BE5
:1030900009F446C08E3B09F446C08A3B09F446C099
:1030A00090E080E00C94551682EE90E0FBCF89EE24
:1030B00090E0F8CF8AEE90E0F5CF85EB90E0F2CF8C
:1030C00086EB90E0EFCF83EB90E0ECCF84EB90E0E9
:1030D000E9CF87EB90E0E6CF8CEC90E0E3CF8DEC8E
:1030E00090E0E0CF83E891E0DDCF8AE891E0DACFAD
:1030F00082E991E0D7CF84E991E0D4CF81E292E0F8
:10310000D1CF83E292E0CECF84E292E0CBCF85E2D2
:1031100092E0C8CF86E292E0C5CF87E292E0C2CFCC
:103120008FE690E0BFCF80E790E0BCCF8AE292E0EC
:10313000B9CF0895882309F44BC0823871F40E94F6
:10314000E71581FF45C089E30E946D200E94D120D0
:1031500089E30E9474200C94D120833859F40E9492
:10316000E71580FF35C083E50E946D200E94D120C5
:1031700083E5EFCF843859F40E94E71582FF28C019
:1031800087E40E946D200E94D12087E4E2CF9CEF6B
:10319000980F913AF0F290E2980F983050F48770BF
:1031A00091E001C0990F8A95EAF7892F0E949B2030
:1031B000D2CF9BE5980F933020F490E080E00C9400
:1031C0003F16885A873120F490E080E00C94551621
:1031D0000895882321F00E9495200C94D120089511
:1031E000882321F00E949B200C94D12008958F9277
:1031F0009F92AF92BF92CF92DF92EF92FF920F9386
:103200001F93CF93DF937C01D62FC72FFC0105813D
:1032100002950F70128111110E94B2200E948B2022
:10322000C82E882371F01123C9F080E28D0F8830F9
:10323000A8F082E00E941C210E948B2091E0C82E01
:10324000C926DC2ED2949FE0D922FDE0FD15A8F11D
:10325000ED2DF0E0EB58FE4C0C94EC30C12CF1CF8E
:103260000C2F0F70C07F11F00295007F1123A9F081
:10327000002359F080E28D0F883010F0D11109C081
:10328000802F0E9495200E94D1208D2F0E94971799
:1032900014C0802F0E94A520F6CF8D2F0E949A186F
:1032A000002359F080E28D0F883010F0D11133C027
:1032B000802F0E949B200E94D12098E0D91639F0DF
:1032C000D91648F086EF8D0D8F70823020F40E9461
:1032D000E7150E940707CC2009F4AAC10E948720A5
:1032E00080FDA6C1F70112820E9481200E940D1F5D
:1032F000C7010E94251B0E948120DF91CF911F9161
:103300000F91FF90EF90DF90CF90BF90AF909F9084
:103310008F900C942E1F802F0E94AB20CCCF2C2F8F
:103320002F70B22EC07FC03219F0B29480EFB82255
:10333000DD2369F0D13049F1112391F1002351F1DE
:10334000F701858180FFA1CF8F70858323C0112372
:1033500081F0011106C00E94B8208B290E94E91853
:10336000ACCF0130C1F70E94B8208B290E94BE204B
:10337000A4CF011106C00E94C7208B2D0E94F01817
:103380009CCF013009F499CFF6CF112329F00630F4
:1033900008F093CF8B2DE2CF053008F08ECFEDCF24
:1033A000002359F38D2F0E949A1887CF8C2F869572
:1033B0008695837069F0813009F07FCF8D2F9C2F27
:1033C0009370111102C090E080E00E94551675CFF5
:1033D0008D2F9C2F9370111102C090E080E00E940D
:1033E0003F166BCF8C2F837009F047C0111165CF4A
:1033F0002D2F229526952770220F220F6D2F6F708B
:10340000862E912CB12CA12C022E04C0880C991C64
:10341000AA1CBB1C0A94D2F760E070E0CB01D4FF79
:103420000FC06FE070E080E090E004C0660F771F8F
:10343000881F991F2A95D2F7609570958095909571
:10344000C695C695C370C23051F080F468297929B9
:103450008A299B29C13071F00E94BF1E2ECF682996
:1034600079298A299B290E94D11E27CF0E94BF1E3D
:10347000C501B4010E94AD1E20CF8695112311F025
:103480008C2F8170882309F418CF2D2F2295269533
:103490002770220F220F6D2F6F70862E912CB12C6A
:1034A000A12C022E04C0880C991CAA1CBB1C0A94D7
:1034B000D2F760E070E0CB01D4FF0FC06FE070E0A6
:1034C00080E090E004C0660F771F881F991F2A953F
:1034D000D2F76095709580959095C695C695C37006
:1034E000C23051F080F4682979298A299B29C1309A
:1034F00071F00E94841FE1CE682979298A299B29CD
:103500000E94961FDACE0E94841FC501B4010E945A
:10351000721FD3CEE0E2ED0FE53108F04DC0F0E0D0
:10352000ED57FE4C0C94EC30DF708C2F8F71112313
:1035300021F00E940D1F8D2F11CF0E942E1F8D2F65
:103540001DCF112341F0053008F0B7CE8C2F8F71BD
:103550000E94511FB2CE063008F0AFCEF7CF8C2FAD
:103560008F71112339F00E940D1FA7CE8C2F8F7100
:103570001123C9F30E942E1FA0CE112329F08C2FF6
:103580008F710E94F81E99CE0E94F31E96CE1123D1
:1035900049F0CF718C2F0E940D1F63E08C2F0E9489
:1035A00007218BCE81E00E941C21023008F485CED9
:1035B00082E00E941C2181CE112329F0011165CEE9
:1035C0008C2F8F71D0CF002369F0D93309F0EACE68
:1035D000FFEF27EE83E0F15020408040E1F700C08C
:1035E0000000E0CE8C2F8F71C5CF111166CECF7049
:1035F000C230B1F040F4CC2381F0C13009F05DCE8F
:103600000E94CE245ACEC43089F068F080E0C530E4
:1036100009F053CE0E94872550CE0E94A3244DCEA0
:103620000E9435254ACE0E94512547CE83E0F2CF35
:10363000DF91CF911F910F91FF90EF90DF90CF908E
:10364000BF90AF909F908F9008950F931F93CF934B
:10365000DF93EC018B819C81892B29F088819981F2
:1036600089238F3F29F4DF91CF911F910F91089506
:10367000CE010E9419078823B1F3688179818A817C
:103680000E9449208C010E94A81F0E94AA1EB80116
:10369000CE01DF91CF911F910F910C94F7180E94EA
:1036A000B2200E94B5200E94D12090E080E00E94CC
:1036B0003F1690E080E00C9455160E947B200C94FD
:1036C0004F1B0E94A2200C945D1BE92FE295EF7026
:1036D000E250EE3070F4F0E0E856FE4C0C94EC3022
:1036E000803F19F020F4803E20F481E00895843F6B
:1036F000E1F380E00895803EC0F3813FD1F7F5CF3C
:1037000093FB882780F908950E943F200C94651B45
:10371000CF93DF9300D000D00F92CDB7DEB70F90DC
:103720000F900F900F900F90DF91CF910895CF934E
:10373000DF9300D000D000D0CDB7DEB726960FB60D
:10374000F894DEBF0FBECDBFDF91CF9108951F93D8
:10375000CF93DF93C091910116E0809192018C1379
:1037600004C0DF91CF911F910895D0E01C9FF0011C
:103770001D9FF00D1124ED56FE4F40815181628155
:103780007381848195810E94971B2196C770E5CF34
:103790004091C3015091C4016091C5017091C6016F
:1037A0008091C7019091C8010C94971B1F93CF93F0
:1037B000DF938091C801807FC1F48091C501882387
:1037C000A1F080919101C09192016091C30170912B
:1037D000C4014091C6015091C701D62FD723DA0109
:1037E000A095B09516E0C81304C0DF91CF911F914A
:1037F000089590E04115510511F0DF3F31F4019635
:103800008770F1CF2A0F3B1F17C0189FF001199F37
:10381000F00D1124ED56FE4F21812713F0CF2081AA
:103820002613EDCF22812111EACF23813481241781
:10383000350740F3241B350B283C310500F7209158
:10384000C8012F7020612093C80126E0289FF00155
:10385000299FF00D1124E856FE4F80818F70806102
:10386000808383EC91E00E94251BDF91CF911F9113
:103870000C94A71BBF92CF92DF92EF92FF920F930F
:103880001F93CF93DF93CDB7DEB761970FB6F89450
:10389000DEBF0FBECDBF8C0185E0F801DE011D96B5
:1038A00001900D928A95E1F7D8014C9111965C91A7
:1038B00011971296EC9012978091C6019091C701D2
:1038C000009709F47FC12091C3013091C401622F98
:1038D00063236F3F09F476C11396CD90DC90B090CE
:1038E000C501BB2009F411C1C816D906D0F1F601F3
:1038F000E81BF90BCF01FF24F394883C910508F0F5
:10390000F12C8091C801982F907FFF2009F4B8C056
:1039100091117FC0FE2C351329C0241327C0E1105C
:1039200025C08F7080618093C8010E94C81B83EC02
:1039300091E00E94251B8091C801D80115968C93B7
:103940008F2D61960FB6F894DEBF0FBECDBFDF910D
:10395000CF911F910F91FF90EF90DF90CF90BF908C
:103960000895809590958C0D9D1DC5CFCD2829F08B
:10397000852F84238F3F09F041C180E0B82FB170BB
:10398000DB2E80FF3CC0809191012091920136E0B6
:10399000821315C04D875E878D859E850E943F20CE
:1039A000292F22952F702230F0F0243018F59F70C7
:1039B000F1F0F8019581907FD1F4D12C1EC090E0F8
:1039C000389FF001399FF00D1124ED56FE4F6181B3
:1039D000651306C06081641303C06281E6120FC0E4
:1039E00001968770D5CF9F7011F0882331F3805EE8
:1039F000883018F3C8010E94251BFD2CA1CFEE20B2
:103A000009F49ECF8091C80181608093C801F12C98
:103A100097CF351306C0241304C0D801EE2009F453
:103A20009AC04D875E878D859E850E94841B882362
:103A300019F1EE2009F18091C801803270F02091D7
:103A4000C3013091C40138872F831986DB86CA866B
:103A50008C87CE0107960E94251B86E0F801A3EC17
:103A6000B1E001900D928A95E1F70E94D61B0E9469
:103A7000C81BFF24F39464CFC8010E94251BF9CF13
:103A8000911113C07C2DD98AC88A6E2D89890E9414
:103A9000881B83EC91E00E94251B86E0E3ECF1E0BB
:103AA000DF011D928A95E9F763C0351312C0241314
:103AB00010C0E1100EC0F8018583C8010E94251BCB
:103AC000E3ECF1E086E0DF011D928A95E9F7FB2C3B
:103AD00037CF4D875E878D859E850E94841B882306
:103AE00059F2EE2049F28091C801803208F4B5CF36
:103AF0002091C3013091C4013A8329831B82DD8266
:103B0000CC828E83CE010196A6CFC816D90698F135
:103B1000F601E81BF90BCF01F12C883C910508F068
:103B200049C0FE2CEE2009F4A7CF351332C0241370
:103B300030C08091C80180FD23C0982F907F01F193
:103B4000D80115968C931597903F39F0982F907F58
:103B5000905F8F70892B15968C93C8010E94251B4E
:103B600086E0F801A3ECB1E001900D928A95E1F7AF
:103B70000E94C81BE5CE809590958C0D9D1DCCCFE5
:103B800086E0F801A3ECB1E001900D928A95E1F78F
:103B9000D7CE4D875E878D859E850E94841B8111BF
:103BA0005CCF8091C80181608093C801C8010E94E8
:103BB000251BC6CE7C2DD98AC88A6E2D89890E9484
:103BC000881B6BCFEE2009F457CF4D875E878D851C
:103BD0009E850E94841BF82E882309F44DCF86E031
:103BE000F801A3ECB1E001900D928A95E1F783EC26
:103BF00091E00E9492170E94D61BBACF81E08E25D9
:103C0000BDCE1F93CF93DF93CDB7DEB72C970FB602
:103C1000F894DEBF0FBECDBF4F83588769877A8780
:103C20008B879C87CE0107960E943A1C882369F0F7
:103C30008A859B85892B39F04F815885842F852370
:103C40008F3F09F071C016E05FC086E0FE01379635
:103C5000DE01119601900D928A95E1F78A859B8588
:103C6000892B89F388859F8189238F3F61F3209178
:103C7000920130E0C9010196877099274091910126
:103C80004817190671F40E94611B1092920110925C
:103C9000910186E0E3ECF1E0DF011D928A95E9F7FE
:103CA000D2CF96E0929FD001939FB00D1124AD56D4
:103CB000BE4FFE01319601900D929A95E1F78093E7
:103CC00092010E94A71BBFCF819FC00111248D5676
:103CD0009E4F0E943A1C8823E9F0E09191011E9FBB
:103CE000F0011124ED56FE4F4081518162817381B4
:103CF000848195810E94971B8091910190E00196AB
:103D00008770992780939101809191019091920100
:103D10008913DACF2C960FB6F894DEBF0FBECDBF55
:103D2000DF91CF911F91089569857A858B859C8558
:103D30000E94971B88CF08950C949B1E0E949C1E86
:103D40006093FA017093FB018093FC019093FD0155
:103D50000C944F1B08950C949E1E0F931F9300917B
:103D6000FA011091FB012091FC013091FD01602BC3
:103D7000712B822B932B1F910F910C949E1E0F93EE
:103D80001F930091FA011091FB012091FC013091E9
:103D9000FD0160237123822393231F910F910C94C3
:103DA0009E1E0F931F930091FA011091FB01209129
:103DB000FC013091FD0160277127822793271F9115
:103DC0000F910C949E1E0C949B1E0C94E31E0E945B
:103DD000E51E6093F6017093F7018093F8019093CC
:103DE000F9010C944F1B60E070E0CB010C94E71ECE
:103DF0000F931F9341E050E060E070E08A019B0167
:103E000004C0000F111F221F331F8A95D2F7C9016A
:103E1000B8011F910F910C94E71E0F931F9341E07F
:103E200050E060E070E004C0440F551F661F771F2C
:103E30008A95D2F78091F6019091F701A091F8014F
:103E4000B091F9018A019B01082B192B2A2B3B2BDE
:103E5000C901B8011F910F910C94E71E0F931F9396
:103E600041E050E060E070E004C0440F551F661F61
:103E7000771F8A95D2F7CB01BA016095709580952E
:103E800090950091F6011091F7012091F801309181
:103E9000F90160237123822393231F910F910C94C6
:103EA000E71E0F931F9341E050E060E070E004C014
:103EB000440F551F661F771F8A95D2F78091F60130
:103EC0009091F701A091F801B091F9018A019B014D
:103ED000082719272A273B27C901B8011F910F91ED
:103EE0000C94E71E0F931F930091F6011091F701B8
:103EF0002091F8013091F901602B712B822B932BCB
:103F00001F910F910C94E71E0F931F930091F601E0
:103F10001091F7012091F8013091F901602371238C
:103F2000822393231F910F910C94E71E0F931F93ED
:103F30000091F6011091F7012091F8013091F901FB
:103F400060277127822793271F910F910C94E71EFA
:103F500008952EE0929F800D1124982F977041E0D4
:103F600001C0440F9A95EAF786958695869595E067
:103F7000899FF0011124E753FE4F90E080E070E04C
:103F80005191DF0111979B01082E02C036952795AC
:103F90000A94E2F7217021952527242325272C93C5
:103FA00001968530910561F708952EE0929F800D6E
:103FB0001124982F977086958695869525E0829F87
:103FC000F0011124E753FE4F50E040E080E02191E2
:103FD00030E0092E02C0369527950A94E2F7217049
:103FE0003327042E01C0220F0A94EAF7822B4F5F79
:103FF0005F4F4530510559F70895BF92CF92DF9238
:10400000EF92FF920F931F93CF93DF938C01C09099
:10401000F601D090F701E090F801F090F90180915D
:10402000FA019091FB01A091FC01B091FD01C82A19
:10403000D92AEA2AFB2ACFE1D0E0BC2ED701C6015B
:104040000C2E04C0B695A795979587950A94D2F73C
:1040500080FD0EC0219788F7B12C8B2DDF91CF9179
:104060001F910F91FF90EF90DF90CF90BF90089538
:10407000B8018C2F0E94CF09019761F3EECFCF9347
:10408000DF93EC010E94FD1FBE01DF91CF910C94E4
:10409000CF091F93CF93DF93EB0190919001992368
:1040A00031F0CB01DF91CF911F910C943F208823F9
:1040B00079F0CB010E94FD1F182F682FCE010E94BE
:1040C000A91FBE01812FDF91CF911F910C94CF09C1
:1040D000CB010E94D51F182FF4CF682F80910E01BD
:1040E00090910F010C941A22682F80910E019091EB
:1040F0000F010C941C2280910E0190910F010C94E1
:104100001E228091FE018595859585950895809163
:10411000FE01877008959091FE01977081E009F487
:1041200080E0089580910A02089590910A02892BF7
:1041300080930A020895809590910A0298239093A3
:104140000A02089510920A02089590910902892B9B
:104150008093090208958095909109029823909385
:104160000902089510920902089510920802089514
:104170008091FF01089508950C94BB209091FF0158
:10418000981721F08093FF010C94BC200895809132
:10419000FF01882329F01092FF0180E00C94BC20DD
:1041A0000895E0910E01F0910F0180910A02808341
:1041B000E0910E01F0910F01808190910902892B0D
:1041C0008083E0910E01F0910F01808190910802AF
:1041D000892B80839091FF01992381F0E0910E015A
:1041E000F0910F018081892B808380910E01909145
:1041F0000F010E94E12181110E94C72080910E01D0
:1042000090910F010C94F31508950C94042198E0FB
:10421000899F90011124622B6093FE010E940D1F63
:104220008091FE018595859585950C9405211092C8
:10423000FE0180E00C9405219091FE018095892378
:104240008093FE01282F277071F4282F082E000C70
:10425000330B9217130639F08595859585950E9445
:104260002E1F0C941721089590933F0180933E01D7
:104270000895829590E09C01220F331F220F331F77
:104280002C7C95958795959587958373282B30E0A1
:10429000C901880F991F8A7A359527952575822B34
:1042A0000895CF93DF93D92F0E943921C82F8D2FE6
:1042B0000E9439219C2FDF91CF91089590E080E0FA
:1042C0000E94273121E08D3E9E4F09F020E0822F91
:1042D000089582E090E00C941931682F82E090E01C
:1042E0000C942D3183E090E00C941931682F83E019
:1042F00090E00C942D3184E090E00C941931682FFB
:1043000084E090E00C942D3186E090E00C9419311B
:10431000682F86E090E00C942D31AB01BC018FE05A
:1043200090E00C943F31AB01BC0183E190E00C9430
:104330003F3160E070E0CB010C94932160E070E0CD
:10434000CB010E948D210C9499216DEE7EEF90E0BF
:1043500080E00E944B3160E082E090E00E942D31CD
:1043600060E083E090E00E942D311092FA011092FB
:10437000FB011092FC011092FD0160E084E090E0EE
:104380000E942D3160E085E090E00E942D3160E0D8
:1043900086E090E00E942D316FEF87E090E00E9470
:1043A0002D3140E050E0BA0188E090E00E943F31BA
:1043B00060E08DE090E00E942D310C949E210C94E1
:1043C000A5219C012E5F3F4FAC01485F5F4F80E00D
:1043D0002417350709F40895F90191919F01992354
:1043E000B9F38F5FF5CF9C01FC0132969FEF80E01F
:1043F0004191461751F09F3F19F4411101C0982F88
:104400008F5F8630A9F79F3F09F40895290F311D6A
:1044100097FD3A95F90162830895FC01329608965A
:104420002191261303C0DF0111971C92E817F907A9
:10443000B9F708950C94F3210C940D22029626E00E
:10444000FC0111922A95E9F70895089508950C94B6
:1044500026220E94272280915502843061F1109219
:104460000C0288E190E020E40FB6F894A8958093C0
:1044700060000FBE2093600080E00E943B0680E059
:104480000E9407070E94272283B7817F846083BF31
:1044900083B7816083BF7894889583B78E7F83BF0D
:1044A0000FB6F894A89580916000886180936000B1
:1044B000109260000FBE08950895CF930E942522A8
:1044C0000E94BB0C0E945C22C0E08C2F0E94540D05
:1044D000892B31F4CF5FC530C1F780E0CF910895CB
:1044E00081E0FCCF08950C9472220E94611B0E940F
:1044F0008A240E94E7150E9407070C9473221F92DA
:104500001FB61F9211248F939F93AF93BF938091F7
:104510000C02811113C080914A0290914B02A0912C
:104520004C02B0914D024196A11DB11D80934A02EB
:1045300090934B02A0934C02B0934D02BF91AF9168
:104540009F918F911F901FBE1F90189582E084BD90
:1045500093E095BD9AEF97BD80936E0008952FB7B5
:10456000F89480914A0290914B02A0914C02B09134
:104570004D022FBF0895CF92DF92EF92FF920F93DB
:104580001F932FB7F89440914A0250914B026091CB
:104590004C0270914D022FBF6A017B01EE24FF2473
:1045A0008C0130E020E0C016D106E206F30650F0A0
:1045B000481B590BCA011F910F91FF90EF90DF909C
:1045C000CF90089541505109F3CF78941F921FB6B0
:1045D0001F9211248F939F93AF93BF9380914A02B0
:1045E00090914B02A0914C02B0914D020196A11DF9
:1045F000B11D80934A0290934B02A0934C02B0935A
:104600004D02BF91AF919F918F911F901FBE1F9040
:10461000189581E08093E00080E28093D8001092AA
:10462000C9008FE19EE40197F1F700C0000087E028
:1046300090EBDC0180935E0290935F02A093600296
:10464000B093610288E19CE00FB6F894A89580933E
:1046500060000FBE90936000FFCFAF92BF92CF92E9
:10466000DF92EF92FF920F931F93CF93C0E0CC2481
:10467000C394D12CE82EF12C8C2F0E94540D5C0198
:1046800010E000E0C601002E02C0880F991F0A94B6
:10469000E2F78A219B21892B99F40F5F1F4F0E307F
:1046A000110581F7CF5FC53039F780E0CF911F91B9
:1046B0000F91FF90EF90DF90CF90BF90AF90089553
:1046C000602F7C2F80E00E94B309E816F90629F7D5
:1046D00081E0ECCFCF93C82F8CE20E942D2388235A
:1046E00021F08C2FCF910C942D2380E0CF91089551
:1046F000CF930E945E21811102C00E94DF218EEFC4
:1047000097E00E944605C5E6C15009F0D5C087EF85
:1047100097E00E94460589E20E946A238111F8C051
:104720008AE20E946A2381110E94DF2185E00E94B3
:104730006A2381110E9409230E94692180930B0240
:1047400087E00E946A23882371F08BE10E946A232C
:10475000882309F4BAC090910B02892F8D7F91FFB5
:10476000826080930B0280910B020E946D210E9457
:104770007B2190E090934F0280934E0280EE0E9446
:104780006A23882341F090914E02892F8E7F90FFFB
:10479000816080934E0289E30E946A23882341F05E
:1047A00090914E02892F8D7F91FF826080934E02FF
:1047B00082EE0E946A23882341F090914E02892F55
:1047C0008B7F92FF846080934E0286EE0E946A2364
:1047D000882341F090914E02892F877F93FF886054
:1047E00080934E0283EE0E946A23882341F09091C9
:1047F0004E02892F8F7E94FF806180934E0285E365
:104800000E946A23882341F090914E02892F8F7D68
:1048100095FF806280934E0281E30E946A23882381
:1048200041F090914E02892F8F7B96FF8064809398
:104830004E0281E10E946A23882341F090914E024A
:10484000892F97FB87F9805880934E0280914E0202
:104850000E947F2187E20E946A23C82F8EE10E9476
:104860006A238111C2608FE10E946A238111C460B2
:1048700080E20E946A238111C86081E20E946A235B
:104880008111C06182E20E946A238111C06283E2C9
:104890000E946A238111C06484E20E946A238823F3
:1048A00089F1C0688C2F0E9476216C2F70E090E017
:1048B00080E0CF910C94AB1E0E94BB0C8FE39CE96F
:1048C0000197F1F700C000001FCF8EE00E946A231D
:1048D000882339F090910B02892F8B7F92FF84609F
:1048E00040CF80E10E946A2390910B02882329F037
:1048F000892F877F93FF886034CF892F8E7F90FF29
:1049000081602FCFC111CECF0E947221682FCECFF0
:10491000CF9108950E945E21811102C00E94DF2183
:104920000E94842180935002883020F0817086603C
:10493000809350028091500280FF03C086950C94B2
:104940003B0680E0FCCF80915002982F96959330E3
:1049500030F49F5F990F8170892B80935002809172
:1049600050028160809350020E94882180910B0246
:1049700080FF0FC08091500286951F928F938AE727
:1049800098E09F938F930E94DF050F900F900F90F8
:104990000F908091500286950C943B0680915002B6
:1049A000982F9E7F79F08250809350028E7F91E005
:1049B00009F490E08091500290FB80F980935002BE
:1049C0000E94882180910B0280FF0FC080915002CD
:1049D00086951F928F9382E698E09F938F930E9413
:1049E000DF050F900F900F900F90809150028695E9
:1049F0000C943B068091500280FD1DC08160809325
:104A00005002813019F483E080935002809150026B
:104A10000E94882180910B0280FF08C08AE398E001
:104A20009F938F930E94DF050F900F90809150020B
:104A300086950C943B0608958091500280FF14C027
:104A40008E7F809350020E94882180910B0280FF0C
:104A500008C087E298E09F938F930E94DF050F9034
:104A60000F9080E00C943B060895CF93C0915002C4
:104A7000C17080910B0280FF0CC01F92CF938CE419
:104A800098E09F938F930E94DF050F900F900F90F7
:104A90000F90CC2319F0CF910C941C25CF910C943E
:104AA000FA2490915002892F86958F5F8F779170AD
:104AB000843050F5880F892B8093500280915002EA
:104AC0008E7F91E009F490E08091500290FB80F994
:104AD000809350020E94882180910B0280FF0FC0BA
:104AE0008091500286951F928F9383E198E09F9367
:104AF0008F930E94DF050F900F900F900F90809181
:104B0000500286950C943B0690935002D7CF843088
:104B100008F083E0982F990F809150028170892BC3
:104B2000809350028E7F91E009F490E080915002D2
:104B300090FB80F9809350020E948821809150025E
:104B400086950C943B06809150028695089580913D
:104B50001802089508959FB7F89410920F029FBF0E
:104B600090915502943009F049C02091E9002F70CE
:104B70009091EC0090FD30C090E0922B23E02093C8
:104B8000E9002091EB0020FF36C02091EE0027FFC6
:104B900032C020910D02222321F02091E80025FF50
:104BA0002AC010920D0226E03091E80035FF16C0B1
:104BB0008093F1008091E80085FD29C08091E80094
:104BC00080FFFCCF8091E8008E778093E8009F7093
:104BD0009093E90080E0089590E8CFCF309155029E
:104BE000343049F43091EB0035FD05C0215041F4DB
:104BF00081E080930D029F709093E9008FEF0895FC
:104C0000EFE9FFE03197F1F700C00000CDCF8FB79B
:104C1000F89421E020930F028FBFD9CF0F931F93F9
:104C2000CF93DF9300D00F92CDB7DEB78C010E94F7
:104C30009A28823011F0843021F584E089831B8327
:104C40000A8382E08093E9008FEF9091E800815021
:104C500095FD06C095ED9A95F1F700008111F5CF0D
:104C60008091E80085FF0DC050E040E063E070E017
:104C7000CE0101960E94B7288091E8008E7780933C
:104C8000E8000F900F900F90DF91CF911F910F913F
:104C90000895CF93DF9300D00F92CDB7DEB7209168
:104CA0005502243031F523E02983805891099B83F4
:104CB0008A8382E08093E9008FEF9091E800815031
:104CC00095FD06C095ED9A95F1F700008111F5CF9D
:104CD0008091E80085FF0DC050E040E063E070E0A7
:104CE000CE0101960E94B7288091E8008E778093CC
:104CF000E8000F900F900F90DF91CF910895CF9320
:104D0000DF93EC010E949A28823011F0843039F54B
:104D100081E08093E9008FEF9091E800815095FD4C
:104D200006C095ED9A95F1F700008111F5CF8091BD
:104D3000E80085FF14C050E040E068E070E0CE017C
:104D40000E94B7288091E8008E778093E80088E081
:104D5000FE01A0E1B2E001900D928A95E1F7DF91AA
:104D6000CF91089587EB98E00E9446058091540208
:104D7000811109C00E94452A0E94A22A8091E20066
:104D800084608093E200089583EB98E00E944605DA
:104D90001092540208958FEA98E00C9446058BEA2D
:104DA00098E00C94460587EA98E00E9446050C942A
:104DB000752220910E022F5F822F62E30E949630AF
:104DC000992319F020930E02089510920E028091FB
:104DD0000F028823E9F0809155028430B9F4909154
:104DE000E9009F708091EC0080FD13C080E0892B6A
:104DF00093E09093E9009091EB0090FF04C09091B4
:104E0000EE0097FD0AC08F708093E90010920F02A8
:104E1000089580E8ECCF1092F1009091E80095FDA4
:104E2000FACF9091E80090FFEECF9091E8009E7746
:104E30009093E800E8CF42E061EC81E00E94C32952
:104E400042E261EC82E00E94C32942E261EC83E02D
:104E50000C94C32980915702833009F45FC030F469
:104E60008130C1F1823009F49BC008958A3009F481
:104E700087C08B3009F46DC0893009F04EC0809135
:104E80005602813209F049C080915A0290915B022A
:104E9000029708F042C08091E800877F8093E80085
:104EA0008091E80082FF35C09091F3008091F2007C
:104EB000029729F48091F1008B7F813021F4809159
:104EC000F100809318028091E8008B778093E800CE
:104ED0000C94F72980915602813AF9F48091E80008
:104EE000877F8093E80080915A0290915B02892B22
:104EF00061F468E080E192E070E00E940629809110
:104F0000E8008B778093E800089560E090E080E00F
:104F1000F3CF809155028111C3CF0895809156023D
:104F2000813AD9F780915A0290915B02892BA9F7B7
:104F30008091E800877F8093E8008091E80080FFFF
:104F4000FCCF80911A018093F1008091E8008E7768
:104F5000BDCF80915602813201F780915A02909123
:104F60005B02892BD1F68091E800877F8093E8006F
:104F70000E94F7298091580280931A010C94611BBA
:104F800080915602813249F68091E800877F8093B4
:104F9000E8000E94F7298091590280931902089530
:104FA00080915602813A09F0B8CF8091E800877F5E
:104FB0008093E8008091E80080FFFCCF8091190287
:104FC000C2CF84B7877F84BF0FB6F894A89580912D
:104FD0006000886180936000109260000FBE80E8DE
:104FE00080936100109261000E9473160E94452A0E
:104FF0000E94A22A8091E20084608093E2008BEA02
:1050000095E20E94342178940E94212D0E94791605
:1050100080E191E00E94E21586E998E00E94460551
:1050200080915502853029F00E94AB160E946D15C3
:10503000F7CF82E998E00E9446050E9429228091DC
:105040005302882369F30E945D22882349F30E945A
:10505000A128E6CF0C942C28292F332723303105A3
:1050600021F168F42130310509F449C022303105BD
:1050700009F44AC090E080E030E020E029C021320D
:10508000310581F122323105A9F76330710590F7BE
:10509000FB01EE0FFF1FEF5CFE4F20813181625D4F
:1050A0007E4FFB01808190E013C0992781309105EC
:1050B00099F0009741F08230910589F00397D1F67D
:1050C000EBEBF8E002C0E9EDF8E0849190E09F019D
:1050D000FA01318320830895EFECF8E0F6CFE1EC9C
:1050E000F8E0F3CF6330710528F6660F771FFB01F8
:1050F000E95CFE4F2081318189E090E0E9CF82E1D7
:1051000090E028E339E0E4CF8BE590E02DED38E046
:10511000DFCF0895CF93C82F0E948928C0931A0229
:10512000CF91089580915502843011F482E0089562
:1051300081E0089580911A02811102C00C94922896
:10514000089580E189BD82E189BD09B400FEFDCFEB
:105150008091D8008F7D8093D8008091E00082609C
:105160008093E0008091E00081FDFCCF0895AF9234
:10517000BF92CF92DF92FF920F931F93CF93DF9353
:105180006C01EB018A010E94162AF82E811123C0BE
:105190000115110539F0F80180819181C81BD90BE7
:1051A000C80ED91EB12CA12C2097A9F08091E8003F
:1051B00085FD22C08091E8008E778093E80001157C
:1051C0001105A1F0F80180819181A80EB91EB1826C
:1051D000A08285E0F82E8F2DDF91CF911F910F9146
:1051E000FF90DF90CF90BF90AF9008950E94162A55
:1051F0008823D1F2F82EEFCFF60181916F018093D1
:10520000F1002197FFEFAF1ABF0ACECFFC018091CA
:105210005C0290915D0286179707A0F061157105F9
:1052200029F49091E8009E779093E80090E0611552
:10523000710551F4911108C08091E80082FF34C0DB
:1052400080E00895BC01F2CF809155028823C1F11E
:105250008530C1F18091E80083FD30C08091E80085
:1052600082FDEACF8091E80080FFE1CF8091F300DA
:105270002091F200382F6115710519F028303105A1
:1052800058F091E02830310509F090E02091E800D5
:105290002E772093E800CBCF81918093F10061506D
:1052A00071092F5F3F4FE7CF80915502882341F06E
:1052B000853041F08091E80083FFBECF81E0089502
:1052C00082E0089583E00895FC0180915C02909152
:1052D0005D0286179707A0F06115710529F480918A
:1052E000E8008E778093E80090E06115710551F435
:1052F000911108C08091E80082FF35C080E00895D8
:10530000BC01F2CF809155028823C9F18530C9F1E3
:105310008091E80083FD31C08091E80082FDEACFF2
:105320008091E80080FFE1CF8091F3002091F200AE
:10533000382F6115710519F02830310558F091E0CA
:105340002830310509F090E08091E8008E77809355
:10535000E800CBCF84918093F100319661507109C0
:105360002F5F3F4FE6CF80915502882341F0853073
:1053700041F08091E80083FFBDCF81E0089582E095
:10538000089583E00895982F973028F08F708093C8
:10539000E90081E008959093E900242F762F50E0F2
:1053A000981731F07091EC002091ED005091F000D1
:1053B00021FD02C09F5FE8CF3091EB003E7F30932C
:1053C000EB003091ED003D7F3093ED003091EB002C
:1053D00031603093EB007093EC002093ED0050931C
:1053E000F0002091EE0027FDE5CF80E00895809148
:1053F000560287FF13C08091E80082FF06C08091AB
:10540000E8008B778093E80004C0809155028111F9
:10541000F2CF0895809155028823D9F38091E80056
:1054200080FFF8CF8091E8008E77ECCF2091E400E8
:105430003091E50085E6A9019091EC0090FF06C04F
:105440009091E80090FF06C080E008959091E800F8
:1054500092FDFACF90915502992389F0953089F009
:105460009091EB0095FD0FC02091E4003091E50094
:105470004217530709F38150F1F684E0089582E062
:10548000089583E0089581E008950E94B32A0E9460
:10549000BB2AE0EEF0E0808181608083E8EDF0E0FF
:1054A00080818F77808319BCA7EDB0E08C918E7FCF
:1054B0008C9380818F7E80831092540208950F9385
:1054C0001F93CF93DF930E94B32A0E94BB2AC8ED9B
:1054D000D0E088818F7788838881806888838881FD
:1054E0008F7D888319BC1092550210925102109240
:1054F00053021092520200EE10E0F80180818B7F7F
:10550000808388818160888342E060E080E00E943F
:10551000C329E1EEF0E080818E7F8083E2EEF0E04F
:10552000808181608083808188608083F8018081B0
:105530008E7F8083888180618883DF91CF911F91E6
:105540000F910895E8EDF0E080818F7E8083E7ED94
:10555000F0E080818160808384E082BF81E080937D
:1055600054020C945F2AE8EDF0E080818E7F808306
:105570001092E20008951092DA001092E10008956E
:105580001F920F920FB60F9211242F933F934F93B8
:105590005F936F937F938F939F93AF93BF93EF939B
:1055A000FF938091E10082FF0BC08091E20082FFB7
:1055B00007C08091E1008B7F8093E1000E94D92693
:1055C0008091DA0080FF19C08091D80080FF15C05B
:1055D0008091DA008E7F8093DA008091D90080FF7D
:1055E00094C080E189BD82E189BD09B400FEFDCF90
:1055F00081E0809355020E94B2268091E10080FFF5
:1056000019C08091E20080FF15C08091E2008E7F7A
:105610008093E2008091E20080618093E2008091BB
:10562000D80080628093D80019BC85E08093550231
:105630000E94CF268091E10084FF29C08091E20082
:1056400084FF25C080E189BD82E189BD09B400FEE7
:10565000FDCF8091D8008F7D8093D8008091E100AC
:105660008F7E8093E1008091E2008F7E8093E20044
:105670008091E20081608093E20080915102882352
:1056800009F449C084E0809355020E94D32680919A
:10569000E10083FF29C08091E20083FF25C0809153
:1056A000E100877F8093E10082E0809355021092B1
:1056B00051028091E1008E7F8093E1008091E200B1
:1056C0008E7F8093E2008091E20080618093E2000F
:1056D00042E060E080E00E94C3298091F000886091
:1056E0008093F0000E94CB26FF91EF91BF91AF9184
:1056F0009F918F917F916F915F914F913F912F91EA
:105700000F900FBE0F901F90189519BC1092550264
:105710000E94C42672CF8091E30087FD02C081E021
:10572000B2CF83E0B0CF1F920F920FB60F92112429
:105730002F933F934F935F936F937F938F939F9399
:10574000AF93BF93CF93EF93FF93C091E900CF70D6
:105750008091EC001092E9008091F000877F8093A7
:10576000F00078940E94CF2B1092E9008091F00015
:1057700088608093F000C093E900FF91EF91CF9192
:10578000BF91AF919F918F917F916F915F914F9159
:105790003F912F910F900FBE0F901F9018951F9360
:1057A000CF93DF93CDB7DEB7AA970FB6F894DEBFDD
:1057B0000FBECDBF86E592E02091F100FC01219360
:1057C000CF01F2E08E359F07B9F70E942A2780911A
:1057D000E80083FF1EC180915602909157029A30D3
:1057E00008F017C1E92FF0E0EA55FE4C0C94EC30BC
:1057F000803899F0823809F00CC180915A028F707C
:10580000873008F006C18093E9008091EB0085FBAA
:10581000882780F91092E90006C080915202909189
:105820005302911182609091E800977F9093E80075
:105830008093F1001092F1008091E8008E77E5C02E
:10584000882309F4D3C0823009F0E3C08091580264
:105850008111D6C080915A028F702FEF280F263009
:1058600008F0D7C08093E9002091EB0020FFC8C06A
:10587000933031F48091EB0080628093EB00C0C0E4
:105880009091EB0090619093EB0021E030E001C03B
:10589000220F8A95EAF72093EA001092EA0080919D
:1058A000EB008860EACF8111B4C0109158021F77D5
:1058B0008091E3008078812B8093E3008091E80061
:1058C000877F8093E8000E94F7298091E80080FF9D
:1058D000FCCF8091E30080688093E30082E01111A7
:1058E00083E08093550295C08058823008F091C0C3
:1058F00080915802909159028C3D23E09207A1F5C6
:1059000083E08A838AE289834FB7F894DE01139695
:1059100020E03EE051E2E32FF0E050935700E491A5
:1059200020FF03C0E295EF703F5FEF708E2F90E095
:10593000EA30C0F0C7968D939D932F5F243159F7BD
:105940004FBF8091E800877F8093E8006AE270E0B3
:10595000CE0101960E9406298091E8008B77809302
:10596000E80057C0C096E7CF60915A0270915B0281
:10597000AE014F5F5F4F0E942A28BC01892B09F4BA
:1059800048C09091E800977F9093E80089819A81C0
:105990000E946429E1CF8038E1F58091E800877F9B
:1059A0008093E800809151028093F10045CF8111EE
:1059B00030C090915802923060F58091E800877F66
:1059C0008093E800909351020E94F7298091510240
:1059D000882311F084E005C08091E30087FDFACFB1
:1059E00081E0809355020E941B2713C080915802CA
:1059F000813079F481E0933009F080E080935302A4
:105A00001092E9008091E800877F8093E8000E946F
:105A1000F7298091E80083FF0AC08091E800877F22
:105A20008093E8008091EB0080628093EB00AA965F
:105A30000FB6F894DEBF0FBECDBFDF91CF911F919F
:105A40000895CF9380915502882399F0C091E90081
:105A5000CF708091EC0080FD0EC080E0C82B1092CA
:105A6000E9008091E80083FD0E94CF2BCF70C093A6
:105A7000E900CF91089580E8F1CF5058BB27AA27BD
:105A80000E94552D0C94002F0E94F22E38F00E9497
:105A9000F92E20F039F49F3F19F426F40C94C82E07
:105AA0000EF4E095E7FB0C94C22EE92F0E94112F13
:105AB00058F3BA17620773078407950720F079F443
:105AC000A6F50C94332F0EF4E0950B2EBA2FA02DD3
:105AD0000B01B90190010C01CA01A0011124FF279B
