:100000000C94DA020C9412030C9412030C94120355
:100010000C9412030C9412030C9412030C9412030C
:100020000C9412030C9412030C94341D0C94081EAF
:100030000C9425180C9412030C9412030C941203C4
:100040000C9412030C9412030C9412030C941203DC
:100050000C9412030C94AC180C9412030C9412031D
:100060000C9412030C9412030C9412030C941203BC
:100070000C9412030C9412030C9412030C941203AC
:100080000C9412030C9412030C9412030C9412039C
:100090000C9412030C9412030C9412030C9412038C
:1000A0000C9412030C9412030C9412032900000008
:1000B0003A003B003C003D003E003F004000350060
:1000C0001E001F0020002100220023002400250024
:1000D0002B0014001A000800150017001C0018005F
:1000E0000C00296104001600070009000A000B003B
:1000F0000D000E00E10000001D001B0006001900AD
:10010000050011001000E2000000E30004510000AF
:1001100000002C42035100000000000000004500D8
:100120004400430000004200410027004B004A0009
:10013000290031002E0049002D00260000004E004D
:100140004D00280030002F004C001300120000006A
:100150000000520000002A003400000033000F00AD
:1001600000004F0051000000E5003800500037004B
:100170003600010000000100010001000100010043
:100180000100010001000100010001000100010067
:100190000100010001000100010001000100010057
:1001A0000100010001000100E00001000100010068
:1001B0000100010001000100010001000000010038
:1001C0000100010001000100010001000100000028
:1001D00001000100000000002C00010000000000F0
:1001E000000000000100010001000000010001000A
:1001F00001000100010001000100010001000100F7
:1002000001000000010001000100010001000100E7
:1002100001000100000000000100000001000100D9
:1002200000000100010000000100010000000100C9
:1002300001000100010001000100000001000100B7
:1002400001000100010001000100010001000100A6
:100250000100010001000100010001000100010096
:100260005200010001000100010001000100010035
:10027000500051004F000100010050005100520099
:100280000100000001000100010001000100010067
:100290000100010000000100010000000000010059
:1002A000010000000000000000000100010001004A
:1002B0000000010001000100010001000100010037
:1002C0000100010001000100000001000100010027
:1002D000A900AA0001004600010000000000010082
:1002E000000001000100000001004F0000000100BB
:1002F000010000000100AE000100AB00AC000100F5
:1003000000000100010001000100010001000100E6
:100310001114010001000100010001000C14010092
:10032000010001000100010034140100010001007E
:10033000010001000100041401000100010001009E
:10034000010001000100010000000100010006148D
:100350000100010001000100010000000100010096
:10036000000000000100010000000000000000008B
:100370000100010001000000010001000100010076
:10038000010001000100010001002D080100000032
:100390000100010001000100010001000100121430
:1003A000000000000100000001000814000001002E
:1003B0000100000001000100000001000100010037
:1003C00001000100005C00000100010001000100CB
:1003D0000100010001000100010001000100010015
:1003E0000100010001000100010001000100010005
:1003F00001000100010001000100010001000100F5
:1004000001000100010001000100010001000000E5
:1004100001000100010001000100010001000100D4
:1004200000000100010000000000010001000000C8
:100430000000000000000153010001000000010065
:1004400001000100010001000100010001000100A4
:100450000100010000000100010001000100010095
:100460000100010001000000000001000000010087
:100470000100000001000100000001000100000077
:100480000100010001000100010012036B00650082
:10049000790062006F0061007200640000001603C2
:1004A00071006D006B006200750069006C006400F3
:1004B0006500720000000403090409023B00020108
:1004C00000A0FA0904000001030101000921110143
:1004D0000001224000070581030800010904010012
:1004E0000103000000092111010001226D00070530
:1004F00082032000011201000200000008EDFE60EE
:100500006001000102000105010980A101850319B4
:10051000012AB700150126B700950175108100C0AA
:10052000050C0901A101850419012AA00215012663
:10053000A002950175108100C005010906A1018581
:1005400006050719E029E7150025019508750181C1
:10055000020507190029EF1500250195F0750181A5
:100560000205081901290595057501910295017586
:10057000039101C005010906A101050719E029E75A
:100580001500250195087501810295017508810105
:100590000507190029FF150026FF0095067508813B
:1005A0000005081901290595057501910295017548
:1005B000039101C011241FBECFEFDAE0DEBFCDBF33
:1005C00004B603FE18C08091E2029091E302A0916C
:1005D000E402B091E5028730904BA740B04B59F44C
:1005E0001092E2021092E3021092E4021092E502ED
:1005F000E0E0F8E3099511E0A0E0B1E0E6E6F1E41F
:1006000002C005900D92A638B107D9F722E0A6E8FE
:10061000B1E001C01D92A23EB207E1F70E94C112F3
:100620000C949B200C94000081E0089581E00895D3
:100630000E941603089508950E941B030895A5E0E3
:10064000B0E0E5E2F3E00C94242049835A83309132
:10065000890189819A81311119C0662399F0222379
:1006600089F00E948709182F682F89819A810E943A
:10067000630969817A81812F0E9403102596E3E046
:100680000C9440200E947509182FF3CF0E9487090F
:1006900069817A81F1CFFC01262F408151816281ED
:1006A000738184810E941F03089581E00895CF9390
:1006B000DF93EC0160E00E944B03BE010E941C032B
:1006C000DF91CF9108950E94421108950E94461132
:1006D000089508950E94B2070E9469032FEF84E3F2
:1006E0009CE0215080409040E1F700C00000089558
:1006F0000E946A030E94D01808950E946A030E9413
:10070000F41808950F931F93CF93DF938C0161E04A
:100710000E944B03EC01B8010E941803811106C02E
:1007200080E0DF91CF911F910F910895B801CE0124
:100730000E94B6138823A1F3B801CE010E946E1661
:10074000882371F3B801CE010E94A314882341F3DA
:10075000B801CE010E94E015882311F3F8018281CF
:10076000882361F0CB35FDE5DF0701F158F4C115B1
:10077000ECE5DE0791F0CF3DDC4591F0C8010E9429
:100780001403CFCFCD358DE5D80769F090F0C83A86
:10079000DD45A1F70E947D03C3CF0E947803C0CF3F
:1007A0000E944D0EF7CF0E94870DE8CF0E94910D59
:1007B000E5CF0E94950DE2CF0E94011880E00E94D3
:1007C000EB130E94FE0308950E94E2120E940204AD
:1007D0000E940618089508950E94EB03089581E091
:1007E00008950E94EF0308950895CF93C82F0E94A3
:1007F000EC038C2F0E94F103CF91089580E00E94BA
:10080000F50308950E94CA160E94F50308950E94F8
:10081000CA1690918801981721F0809388010E9450
:10082000F5030895ABE0B0E0E8E1F4E00C94252096
:100830004F83588769877A878B8761110E94D20C12
:100840001E821D8285E0FE013796DE011196019021
:100850000D928A95E1F78C819D81892B61F4498104
:100860005A816B817C818D819E810E94FB0B2B962E
:10087000E2E00C94412089819A8189238F3F79F3AA
:10088000CE0101960E9455038111E9CFF0CFFC0102
:10089000808191810E94C1090895CF93C82F882338
:1008A000C9F08238C9F40E94CA1681FD13C089E3D9
:1008B0000E948A0C0E94F30C2FEF81EE94E02150ED
:1008C00080409040E1F700C0000089E30E94920C54
:1008D0000E94F30CCF9108958338A1F40E94CA16A8
:1008E00080FDF8CF83E50E948A0C0E94F30C2FEF65
:1008F00081EE94E0215080409040E1F700C000007C
:1009000083E5E4CF8438A1F40E94CA1682FDE2CFC9
:1009100087E40E948A0C0E94F30C2FEF81EE94E092
:10092000215080409040E1F700C0000087E4CECF26
:100930008CEF8C0F813A90F46C2F80910001909194
:1009400001010E943117882329F08C2F0E94920CFC
:100950000E94F30C8C2F0E948A0CBACF80E28C0F7D
:10096000883048F4C77081E001C0880FCA95EAF763
:100970000E94B50CADCFEBE5EC0FE33040F4F0E0B6
:10098000E35CFE4F808190E00E94F116A3CFC85A2D
:10099000C73108F09FCFEC2FF0E0EE0FFF1FE15FB3
:1009A000FE4F808191810E94071794CF882309F41C
:1009B0004DC0823879F40E94CA1681FF47C089E38E
:1009C0000E948A0C0E94F30C89E30E94920C0E9400
:1009D000F30C0895833859F40E94CA1680FF36C07C
:1009E00083E50E948A0C0E94F30C83E5EECF8438E5
:1009F00059F40E94CA1682FF29C087E40E948A0C1B
:100A00000E94F30C87E4E1CF9CEF980F913AE8F253
:100A100090E2980F983050F4877091E001C0990FE0
:100A20008A95EAF7892F0E94BB0CD1CF9BE5980FDE
:100A3000933028F490E080E00E94F1160895885ADF
:100A4000873120F490E080E00E94071708951F93FB
:100A5000CF93DF93182FEB010E944D04209739F4B8
:100A6000812F0E94D604DF91CF911F9108958FE9C5
:100A70009FE00197F1F700C000002197EFCF70E0F1
:100A800060E0893311F460E570E00E942705089565
:100A9000882321F00E94B50C0E94F30C089588234E
:100AA00021F00E94BB0C0E94F30C0895B0E0A0E07E
:100AB000ECE5F5E00C941E206C01D62FC72FFC014D
:100AC0001281F580F2949FE0F9220E94AB0CE82E8F
:100AD0008823B9F0E12E1123A1F08C2F807F803480
:100AE00021F080E28D0F8830D0F08091A30282FF48
:100AF00016C082E00E94560D0E94AB0C91E0E82ED9
:100B0000E926BC2EB2948FE0B822FBE0FB1508F476
:100B100068C0EB2DF0E0E356FF4D0C94F51FE12C7F
:100B2000F0CF0C2F0F70C07F11F00295007F1123C2
:100B300099F0002359F080E28D0F883010F0D11128
:100B400007C0802F0E94B50C0E94F30C8D2F41C06E
:100B5000802F0E94C50CF8CF8D2F0E94D604002351
:100B600009F43FC080E28D0F883010F0D11104C02D
:100B7000802F0E94BB0C03C0802F0E94CB0C0E94D0
:100B8000F30C2FC00C2F0F70C07FC03211F00295F4
:100B9000007FDD2381F0D13009F463C0112309F413
:100BA0006DC0FF2009F463C0F601858180FFCECFC0
:100BB0008F7085835CC08091A30282FD33C01123B6
:100BC00059F0002329F0802F0E94B50C0E94F30CED
:100BD00080E00E944D0405C080E00E94D60401110F
:100BE000C7CFEB2DE850FF0B349720F40E94CA16B4
:100BF0000E94F503EE2089F00E94A70C80FD0DC035
:100C0000F60112820E94A10C0E946B08C6010E948C
:100C100076070E94A10C0E948D08CDB7DEB7E9E0EF
:100C20000C943A20112389F0F11006C00E94D50CD3
:100C3000802B0E944805D5CF21E0F212F7CF0E9409
:100C4000D50C802B0E94DC0CCCCFF11006C00E948A
:100C5000E90C802F0E944F05C4CF31E0F31609F252
:100C6000F6CF112331F085E08F1508F4BACF802F2D
:100C7000E0CF94E09F1508F4B4CFEBCFFF2049F309
:100C8000D93349F4FFEF27EE33E0F15020403040F4
:100C9000E1F700C000008D2F0E94D604A2CF8C2F58
:100CA00086958695837069F0813009F09ACF8D2FF3
:100CB0009C2F9370111102C090E080E00E940717F2
:100CC00090CF8D2F9C2F9370111102C090E080E087
:100CD0000E94F11686CF8C2F837009F041C011114C
:100CE00080CF4D2F429546954770440F440F0D2FEE
:100CF0000F7010E030E020E0042E04C0000F111F40
:100D0000221F331F0A94D2F760E070E0CB01D4FFBA
:100D10000FC06FE070E080E090E004C0660F771FC6
:100D2000881F991F4A95D2F7609570958095909588
:100D3000C695C695C370602B712B822B932BC23046
:100D400049F058F4C13019F00E9416084ACF0E94A9
:100D5000030847CF0E94290844CF0E94000841CFD2
:100D60008695112311F08C2F8170882309F439CFD7
:100D70004D2F429546954770440F440F0D2F0F702D
:100D800010E030E020E0042E04C0000F111F221FED
:100D9000331F0A94D2F760E070E0CB01D4FF0FC09C
:100DA0006FE070E080E090E004C0660F771F881F5E
:100DB000991F4A95D2F76095709580959095C69544
:100DC000C695C370602B712B822B932BC23049F0D8
:100DD00058F4C13019F00E94E60803CF0E94D308EE
:100DE00000CF0E94F908FDCE0E944208FACECF70D3
:100DF000112329F08C2F0E946B088D2F1ACF8D2F75
:100E00000E944F058C2F0E948D08EBCED23F51F1EE
:100E100060F4D03FB9F0D13F81F0112309F449C00B
:100E2000F11094CE8C2F8F7121C0D33F11F1D43F9C
:100E3000A1F78091A30282FD26C08C2F8F71112310
:100E400011F314C0112349F084E08F1508F4C9CEC2
:100E50008C2F8F710E94B108C4CE95E09F1508F4C5
:100E6000C0CEF6CF8C2F8F711111CDCF0E946B08A1
:100E7000B8CE112329F08C2F8F710E945508B1CE66
:100E80000E944F08AECE112349F0CF718C2F0E94E3
:100E90006B0863E08C2F0E94380DA3CE81E00E9486
:100EA000560DE1E0EF1508F09CCE82E00E94560D51
:100EB00098CEF110E5CE8C2F8F71A5CF0F931F9395
:100EC000CF93DF93EC01688179818A810E94CC09FC
:100ED0008C010E940C090E94FF07B801CE010E94FC
:100EE0005605DF91CF911F910F910895CF93DF9316
:100EF000EC018B819C81892B29F088819981892340
:100F00008F3F51F4DF91CF910895CE010E945E078B
:100F1000CE010E945703F6CFCE010E9482038111B9
:100F2000F4CF0E94AB0C882369F38A81882351F3A4
:100F30008091A30282FFE6CF82E00E94560DE2CFAD
:100F400090E080E00E94F11690E080E00E94071798
:100F50000E94D20C0E94F30C08950E949A0C0E94E9
:100F6000A00708950E94C20C0E94AD0708959295B3
:100F70009F70963091F058F4925F9F70923058F4C1
:100F8000803F19F030F4883E30F481E008959A5F94
:100F9000F4CF843FD1F380E00895883EB0F3813FE1
:100FA000D1F7F3CFFC01808191810E94C1090E9499
:100FB000B7070895A5E0B0E0E0EEF7E00C94252037
:100FC0002596E2E00C944120A6E0B0E0EAEEF7E0DE
:100FD0000C9425202696E2E00C94412008950E946E
:100FE000EE0708950E94EF076093CF017093D00140
:100FF0008093D1019093D2010E94A0070895089593
:101000000E94F20708950F931F930091CF01109152
:10101000D0012091D1013091D201602B712B822B14
:10102000932B0E94F2071F910F9108950F931F9326
:101030000091CF011091D0012091D1013091D201C6
:1010400060237123822393230E94F2071F910F9143
:1010500008950F931F930091CF011091D00120911B
:10106000D1013091D20160277127822793270E94F6
:10107000F2071F910F9108950E94EE0708950E94B4
:101080003C0808950E943F086093CB017093CC0107
:101090008093CD019093CE010E94A007089560E057
:1010A00070E0CB010E94420808950F931F9341E026
:1010B00050E060E070E08A019B0104C0000F111F46
:1010C000221F331F8A95D2F7C901B8010E94420836
:1010D0001F910F9108950F931F9341E050E060E03E
:1010E00070E004C0440F551F661F771F8A95D2F722
:1010F0008091CB019091CC01A091CD01B091CE0116
:101100008A019B01082B192B2A2B3B2BC901B80103
:101110000E9442081F910F9108950F931F9341E081
:1011200050E060E070E004C0440F551F661F771F59
:101130008A95D2F7CB01BA0160957095809590950C
:101140000091CB011091CC012091CD013091CE01C5
:1011500060237123822393230E9442081F910F91E1
:1011600008950F931F9341E050E060E070E004C0E9
:10117000440F551F661F771F8A95D2F78091CB01C8
:101180009091CC01A091CD01B091CE018A019B013B
:10119000082719272A273B27C901B8010E944208BE
:1011A0001F910F9108950F931F930091CB01109100
:1011B000CC012091CD013091CE01602B712B822B7F
:1011C000932B0E9442081F910F9108950F931F9334
:1011D0000091CB011091CC012091CD013091CE0135
:1011E00060237123822393230E9442081F910F9151
:1011F00008950F931F930091CB011091CC01209182
:10120000CD013091CE0160277127822793270E945C
:1012100042081F910F9108950895262F277091E09D
:1012200001C0990F2A95EAF723E0769567952A95EC
:10123000E1F725E0269FF001279FF00D1124E40F30
:10124000F51F50E040E0682F70E08191DF011197B9
:101250009B01042E02C0369527950A94E2F721706F
:1012600021952827292328272C934F5F5F4F45304E
:10127000510559F70895A82FA77023E096958795F3
:101280002A95E1F725E0289FF001299FF00D112410
:10129000E60FF71F50E040E080E0219130E00A2E99
:1012A00002C0369527950A94E2F721703327042E61
:1012B00001C0220F0A94EAF7822B4F5F5F4F45303F
:1012C000510559F70895262F9B3070F4893060F44A
:1012D000682F70E089E0989F600D711D11244AE825
:1012E00051E0822F0E940D090895292F9B3068F448
:1012F000893058F490E06AE871E039E0239F800D6E
:10130000911D11240E943B09089580E00895B0E0EA
:10131000A0E0EDE8F9E00C941E208C01C090CB0118
:10132000D090CC01E090CD01F090CE018091CF0122
:101330009091D001A091D101B091D201C82AD92AAF
:10134000EA2AFB2ACFE1D0E0BC2ED701C6010C2E41
:1013500004C0B695A795979587950A94D2F780FD16
:1013600009C0219788F7B12C8B2DCDB7DEB7E9E006
:101370000C943A20B8018C2F0E941E10019789F31B
:10138000F3CFCF93DF93EC010E948709BE010E9447
:101390001E10DF91CF9108951F93CF93DF93EB0140
:1013A00090918901992339F0CB010E94C109DF9105
:1013B000CF911F910895882369F0CB010E9487097E
:1013C000182F682FCE010E946309BE01812F0E9451
:1013D0001E10EDCFCB010E947509182FF6CF1F9379
:1013E000CF93DF93C091D30116E08091D4018C1389
:1013F00004C0DF91CF911F910895D0E01C9FF001B0
:101400001D9FF00D1124EB52FE4F408151816281EE
:101410007381848195810E94E4072196C770E5CF8E
:1014200040910502509106026091070270910802F6
:101430008091090290910A020E94E40708951F9387
:10144000CF93DF9380910A02807F09F049C0809199
:101450000702882309F444C08091D301C091D401CC
:101460006091050270910602A0910802B0910902F4
:10147000D62FD72316E0C81799F190E0109711F0F6
:10148000DF3F19F401968770F6CF189F9001199FDE
:10149000300D1124F901EB52FE4F41814713F2CF79
:1014A00040814613EFCF42814111ECCF43815481FB
:1014B0004A1B5B0B483C510528F780910A028F704C
:1014C000806180930A02F901E652FE4F80818F709D
:1014D0008061808385E092E00E9476070E94EF0998
:1014E000DF91CF911F910895A1E1B0E0EAE7FAE022
:1014F0000C941D208C0185E0F801DE011D96019001
:101500000D928A95E1F7F801E28085E0C82E82E02D
:10151000D82E60910802709109026115710509F4D5
:101520004EC19091050220910602892F82238F3FA0
:1015300009F445C140815181A380B480F090070235
:10154000F501E61BF70BFF2009F4EAC080910A02BF
:10155000382F307FE83CF10508F0A3C031116DC091
:10156000FE2C251316C0941314C0E11012C08F7006
:10157000806180930A020E94100AC6010E947607C9
:1015800080910A02F80185838F2D6196EAE00C9420
:101590003920A114B10429F0842F85238F3F09F04D
:1015A00027C180E0F82FF170DF2E80FF3CC08091D2
:1015B000D3012091D40136E0821315C04D875E8798
:1015C0008D859E850E94C109292F22952F7022307A
:1015D000F0F0243018F59F70F1F0F8019581907FBC
:1015E000D1F4D12C1EC090E0389FF001399FF00D4E
:1015F0001124EB52FE4F6181651306C060816413B4
:1016000003C06281E6120FC001968770D5CF9F702C
:1016100011F0882331F3805E883018F3C8010E94EE
:101620007607FD2CB1CFEE2009F4AECF80910A02EF
:10163000816080930A02F12CA7CF251306C0941372
:1016400004C0F801EE2009F487C0C8010E94D20747
:10165000882319F1EE2009F180910A02803270F09E
:10166000209105023091060238872F831986BB86A8
:10167000AA868C87CE0107960E94760786E0F8013D
:10168000A5E0B2E001900D928A95E1F70E941F0A51
:101690000E94100AFF24F39477CFC8010E947607B6
:1016A000F9CF311113C07A2DB98AA88A6E2D898994
:1016B0000E94DA0785E092E00E94760786E0F60154
:1016C00011928A95E9F70E94100AB5CF25130FC031
:1016D00094130DC0E1100BC0F8018583C8010E946E
:1016E000760786E0F60111928A95E9F74DCFC80199
:1016F0000E94D207882389F2EE2079F280910A02B3
:10170000803208F4BBCF20910502309106023A8363
:1017100029831B82BD82AC828E83CE010196ACCF21
:10172000E83CF10508F03EC0FE2CEE2009F4B5CFF0
:1017300025132AC0941328C080910A0280FD1BC083
:10174000982F907FC1F0F8018583903F31F0982F5A
:10175000907F905F8F70892B8583C8010E947607E8
:1017600086E0F801A5E0B2E001900D928A95E1F7DC
:101770000E94100A09CF86E0F801A5E0B2E00190CE
:101780000D928A95E1F700CFC8010E94D20781111E
:1017900075CF80910A02816080930A02C8010E947D
:1017A0007607F2CE7A2DB98AA88A6E2D89890E9491
:1017B000DA0786E0F60111928A95E9F7D9CFEE2093
:1017C00009F46BCFC8010E94D207F82E882309F4D0
:1017D00064CF86E0F801A5E0B2E001900D928A9511
:1017E000E1F785E092E00E9447040E941F0AC0CF03
:1017F00081E08E25D7CEACE0B0E0E1E0FCE00C94D7
:1018000024204F83588769877A878B879C87CE01EE
:1018100007960E94740A882369F08A859B85892B24
:1018200039F04F815885842F85238F3F09F06BC095
:1018300016E05FC086E0FE013796DE01119601904A
:101840000D928A95E1F78A859B85892B89F3888596
:101850009F8189238F3F61F32091D40130E0C9013A
:101860000196877099274091D3014817190671F4A2
:101870000E94B2071092D4011092D30186E0E5E0F5
:10188000F2E0DF011D928A95E9F7D2CF96E0929FB0
:10189000D001939FB00D1124AB52BE4FFE01319683
:1018A00001900D929A95E1F78093D4010E94EF097F
:1018B000BFCF819FC00111248B529E4F0E94740A9A
:1018C0008823E9F0E091D3011E9FF0011124EB522F
:1018D000FE4F4081518162817381848195810E9494
:1018E000E4078091D30190E0019687709927809357
:1018F000D3018091D3019091D4018913DACF2C9632
:10190000E3E00C94402069857A858B859C850E9454
:10191000E4078ECF682F80910001909101010E9411
:10192000B1170895682F80910001909101010E94E4
:10193000BF17089580910001909101010E94CD1779
:10194000089580912B0285958595859508958091C0
:101950002B028770089590912B02977081E009F413
:1019600080E0089580914E02089590914E02892B57
:1019700080934E020895809590914E029823909303
:101980004E02089510924E02089590914D02892BB7
:1019900080934D020895809590914D0298239093E5
:1019A0004D02089510924D02089580912C020895E1
:1019B00008950E94D80C08959091A30292FF08C048
:1019C00090912C02981721F080932C020E94D90C40
:1019D000089580912C02882329F010922C0280E037
:1019E0000E94D90C0895CF93DF93E0910001F0910C
:1019F000010180914E028083E0910001F09101018C
:101A0000808190914D02892B808390912C029923A3
:101A100081F0E0910001F09101018081892B8083A8
:101A200080910001909101010E941D1781110E9477
:101A3000E90CC0910001D091010140E250E06BE05F
:101A400072E0CE010E944C20892B59F080E2FE0109
:101A5000ABE0B2E001900D928A95E1F7CE010E94D1
:101A6000D716DF91CF91089508950E94340D0895FF
:101A70009091A30292FF11C098E0899F90011124D8
:101A8000622B60932B020E946B0880912B0285953C
:101A9000859585950E94350D08950E946B080895DF
:101AA00010922B0280E00E94350D089590912B0238
:101AB0008095892380932B02282F277091F4282F5B
:101AC000082E000C330B9217130659F09091A302C5
:101AD00092FF07C08595859585950E948D080E9487
:101AE000500D08959091A30292FB222720F9281708
:101AF00069F080FB92F99093A3028091A2029091E9
:101B0000A3020E94C30D82E00E94560D08958091A9
:101B1000A30282FB882780F991E089270E94720D39
:101B2000089581E00E94720D089580E00E94720D78
:101B300008956FEF7FEF90E080E00E948520089588
:101B400090E080E00E94612021E0883E9E4F09F0F5
:101B500020E0822F089582E090E00E9459200895AD
:101B600083E090E00E9459200895CF9384E090E0B4
:101B70000E945920C82F82E290E00E945920982F9D
:101B80008C2FCF910895CF93C92F682F84E090E0D8
:101B90000E9467206C2F82E290E00E946720CF9124
:101BA0000895AB01BC018FE090E00E947920089578
:101BB000AB01BC0183E190E00E947920089560E0D0
:101BC00070E0CB010E94D80D089560E070E0CB0179
:101BD0000E94D10D0E94DF0D089568EE7EEF90E027
:101BE00080E00E94852060E082E090E00E94672013
:101BF00060E083E090E00E9467201092CF01109295
:101C0000D0011092D1011092D20160E084E090E006
:101C10000E94672064E082E290E00E94672060E01A
:101C200085E090E00E94672060E086E090E00E94FE
:101C300067206FEF87E090E00E94672040E050E06F
:101C4000BA0188E090E00E94792060E08DE090E0A9
:101C50000E94672040E050E0BA0188E190E00E94D5
:101C6000792060E087E190E00E94672040E050E04A
:101C7000BA018CE190E00E94792070E060E080E29F
:101C800090E00E94852040E050E0BA0188E190E0B9
:101C90000E9479200E94E50D08950E94ED0D08959F
:101CA000682F8EE090E00E94672008950E949118AE
:101CB0006093690270936A0280936B0290936C0246
:101CC0006093650270936602809367029093680246
:101CD0000895089508950E946A0E089508950E9437
:101CE0006E0E08958DEF90E10E94C0160E94690E5D
:101CF0000E946B0E089581E008950E947B0E089566
:101D0000089508950E94800E0E94810E08950E94F9
:101D10001C110E94F4030E94921408950E947C18E2
:101D20000E940F120E94870E0E94E2120E946F0E04
:101D30000895AAE0B0E0EFE9FEE00C9418200E94BC
:101D40002512A82E81110E94560E3FE4832E32E008
:101D5000932E10E000E0502E802F0E9449116C015C
:101D6000F401619071904F016816790609F443C03F
:101D700080916D0281FD0E945211B12CEE24E394FA
:101D8000F12C6C247D24C3018E219F21892B69F1C4
:101D90000E947D0E8823B1F0BE825F82CE20DF20BC
:101DA00081E0C114D10409F480E088870E9485187D
:101DB0008160782F9A8789874E815F8168858A85BF
:101DC0000E941204000F111FF801E15BFD4F80819A
:101DD0009181E826F926F182E08281E0A11001C01C
:101DE00080E02A96EFE00C943420B394EE0CFF1CB4
:101DF000F9E0BF12C8CF0F5F1F4F0B30110509F07C
:101E0000AACF8FEF89838A831B820E948518816005
:101E1000782F9D838C8349815A816B818D810E94AB
:101E20001204DBCF0E94990E0E9491140E940704B5
:101E30000895CF93DF930E942310EC01811522E5D2
:101E40009207E8F5811531E5930708F0ACC0883EAC
:101E5000910510F5803E910570F5883A910570F472
:101E6000853A910508F078C08130910521F10097FD
:101E700011F1049700F5D0E0C0E01DC08F3B910543
:101E8000D0F7C85AD0E0CC0FDD1FC05CDE4F099000
:101E9000D881C02DD4640FC0811540E5940708F0A7
:101EA00066C0C11580E4D80708F05EC0CE019A95DF
:101EB00081159F4100F7CE01DF91CF9108958115E3
:101EC00036E5930718F5811545E5940708F083C0BA
:101ED000C11584E5D80708F079C09C2F9695969592
:101EE0009E0123703327C115D34508F461C0C1E0BA
:101EF000D0E002C0CC0FDD1F2A95E2F730E2939FBD
:101F0000C0011124C82BD92BDA68D5CFC1158AE5B9
:101F1000D80778F4C11599E5D90708F066C0C1154E
:101F200028E5D20708F4A7CFDC2FCC27C06FD06AF2
:101F3000C2CFCE0190568115904208F09CCF8D2FD4
:101F40008F710E94BA1090E0982F882788279F7180
:101F50009C012C2BE90147C0C55AD0E0C259DE4F85
:101F6000C881D0E0D064A7CFDF70D06AA4CFE4E00E
:101F700096958795EA95E1F783702C2F26952695FF
:101F8000237040E2249F90011124382B8C2F837002
:101F9000C1E0D0E002C0CC0FDD1F8A95E2F7C22B72
:101FA000D32BDC6888CFD82FCC27C16FD06A83CFE2
:101FB000C1E0D0E002C0CC0FDD1F2A95E2F720E29D
:101FC000929FC0011124C82BD92BEBCFDC2FCC273B
:101FD000C46FD06A70CF0E94BA10C82FD0E0DC2F37
:101FE000CC27CC27DF71D06266CF8C2F8F700E94F8
:101FF000BA1034E0D695C7953A95E1F7CF709C2F8B
:10200000EC01D06958CF972F7B30A8F4693098F451
:1020100070E029E0929F600D711D1124FB0193E691
:10202000899FE00DF11D1124EE0FFF1FE455FF4FB6
:1020300085919491089580E090E008950E940310A6
:102040000E94190F089582389105B1F1B0F48133DF
:10205000910509F475C048F48932910509F469C005
:102060008A32910509F473C008958533910509F406
:1020700059C08933910501F10895833E9105A9F175
:1020800038F4803E9105F9F0823E910549F10895BA
:10209000863E9105A9F1873E9105C9F1843E9105DF
:1020A00019F52091A30221FF1FC08091A20284FD97
:1020B00014C087EE90E008952091A2022370A1F051
:1020C00080EE90E008952091A20220FD47C030915B
:1020D000A30230FF09C024FF44C090E080E004C0A8
:1020E0002091A20222FDF7CF08952091A20222FDA5
:1020F0003BC03091A30230FDE3CF24FFF5CFEDCFFD
:102100002091A20223FFF0CF24FDE7CFD2CF209170
:10211000A20223FD2CC03091A30231FFEECF84EE4A
:1021200090E008952091A20225FFDECF89E290E0A1
:1021300008952091A20225FFD7CF85E390E008956E
:102140002091A20226FFD0CF8AE290E0089520914C
:10215000A20226FFC9CF81E390E0089589E390E0D1
:10216000089583EE90E0089582EE90E0089586EE63
:1021700090E008959091A20292FF06C0282F287146
:102180002830F9F4877F846093FF06C0282F2871D8
:102190002831F1F4877E84612091A30220FF06C0DC
:1021A000382F38713830D9F4877F816021FF06C01D
:1021B000282F28712831D1F4877E816194FD877E94
:1021C0000895282F24712430F9F68B7F8860DCCFA6
:1021D000282F2471243101F78B7E8861DDCF382FC1
:1021E0003171313019F78E7F8860E0CF282F21714F
:1021F000213121F78E7E8861E1CF80E008950E9431
:10220000990D08950E9425122FEF86E791E0215045
:1022100080409040E1F700C000000E94251280E05D
:102220000E94491180FF04C00E94FF100E94D01834
:1022300008950E94021108950E94A00D811102C00C
:102240000E944D0E0E94AB0D80936D020E94B50D51
:102250009093A3028093A2020E9419110E94B00DD4
:10226000682F70E090E080E00E9400086091CB0150
:102270007091CC018091CD019091CE010E943F08D8
:10228000089508950E944111089508950E944511EE
:102290000895E82FF0E0EE0FFF1FE654FD4F808118
:1022A00091810895089580EA8A95F1F7089500C014
:1022B00008950E9453110895F894E82FE295EF7065
:1022C000F0E031A1282F2F7081E090E001C0880F4D
:1022D0002A95EAF7982F9095932391A392A1892BA1
:1022E00082A3789408950F931F93CF93DF93C1E750
:1022F000D1E089918F3F11F00E945C1181E0CA37D3
:10230000D807B9F7CAE7D1E005E811E089918F3F16
:1023100011F00E945C110C171D07C1F7DF91CF91DE
:102320001F910F9108958F929F92BF92CF92DF924B
:10233000EF92FF920F931F93CF93DF93D82EE92E46
:10234000F62E8A01C62FD0E0CF58DE4F28812F3FCE
:1023500009F453C0F894E22FE295EF70F0E031A158
:102360002F7081E090E001C0880F2A95EAF7932F43
:10237000982B91A392A18095892382A378940E949F
:1023800057118AE7882E81E0982EED2DFE2DBF0192
:102390006A5E7F4FE12C6801C094D094D401BD9057
:1023A0004D0181919191AF0142505109BFEFBB1690
:1023B00081F12B2D22952F7030E0D90190962C9130
:1023C00030E0BB2DBF7002C035952795BA95E2F776
:1023D00020FD1FC0802B912BDA018D939C93EE245E
:1023E000E3946E177F07D1F688818F3F11F00E942A
:1023F0005C116E2D8F2D0E945911DF91CF911F918D
:102400000F91FF90EF90DF90CF90BF909F908F90B3
:1024100008958C219D21DA018D939C93E2CF0E9437
:10242000731186E1EAEBF2E0DF01982F1D929A9595
:10243000E9F7E4EAF2E0DF011D928A95E9F78BE023
:102440000E947A120E9463030895CF92DF92FF9256
:102450000F931F93CF93DF93CDB7DEB766970FB679
:10246000F894DEBF0FBECDBF8E010F5F1F4F86E118
:10247000F80111928A95E9F7F12CCC24C394D12C60
:10248000A6016F2DC8010E949311F394CC0CDD1CA2
:10249000F9E0FF12F5CF46E150E0B80184EA92E09E
:1024A0000E944C20FF24F394009709F4F12C892B0F
:1024B00041F086E1F801A4EAB2E001900D928A951C
:1024C000E1F72F2D4BE06AEB72E084EA92E00E9484
:1024D0007B120E9466038F2D66960FB6F894DEBFBE
:1024E0000FBECDBFDF91CF911F910F91FF90DF9075
:1024F000CF9008950895FF920F931F93CF93DF938A
:10250000F82E092F162FD72FC42F222349F081E050
:10251000809370020E94851890936F0280936E02E0
:10252000809170028823A1F080916E0290916F02D9
:102530000E949D18059760F0EF2DF02FA12FBD2F61
:1025400090E080E0D0E08C179D073CF01092700284
:10255000CDB7DEB7E5E00C943E20219131912D936B
:102560003D930196F0CF0E948A1A0E948E0E0E941F
:10257000971A08950E949C1A0E94120F0E94B61A80
:1025800008950E941E180E94701A0E94720E0E94E6
:10259000B3120E94BA120E94820EFBCF86E090E036
:1025A0000E9459200895682F86E090E00E946720DD
:1025B0000895E0EDF2E080818470896180830E945B
:1025C000D31208950E94A00D811104C00E944D0EE7
:1025D0000E94D9120E94CE128093D002803220F045
:1025E000877088618093D0029091D002892F81708A
:1025F00090FF04C0892F8695869586950E94EB13DF
:1026000008958091D002982F96959695969593303F
:1026100040F49F5F990F990F990F8770892B8093D2
:10262000D0028091D00281608093D0020E94D312A8
:102630008091D0028695869586950E94EB13089529
:102640008091D002982F987F79F088508093D002A3
:10265000887F91E009F490E08091D00290FB80F9AE
:102660008093D0020E94D3128091D00286958695E5
:1026700086950E94EB1308958091D00280FD13C0CF
:1026800081608093D002813019F489E08093D00278
:102690008091D0020E94D3128091D00286958695B7
:1026A00086950E94EB1308958091D00280FF08C0A8
:1026B0008E7F8093D0020E94D31280E00E94EB13A1
:1026C00008958091D00280FF03C00E9454130895A2
:1026D0000E943C1308959091D002892F869586958B
:1026E00086958F5F8F7197708430E0F4880F880F24
:1026F000880F892B8093D0028091D002887F91E04F
:1027000009F490E08091D00290FB80F98093D00290
:102710000E94D3128091D0028695869586950E945C
:10272000EB1308959093D002E7CF843008F083E054
:102730009091D0029770282F220F220F220F922BF8
:102740009093D002987F21E009F420E09091D0028C
:1027500020FB90F99093D0020E94EB1308950E9401
:1027600095138091D0020E94D31208959C01FB0121
:102770008281882349F12E3BFCE53F07C9F040F4F4
:102780002C3BECE53E0769F02D3B3C4579F0089584
:10279000203C9CE5390791F070F0213C3C4589F0E4
:1027A000089583E00E94AF1380E0089580E0FACF9F
:1027B0000E942013F9CF0E940113F6CF0E946113EB
:1027C000F3CF0E946B13F0CF81E00895269A2E98E4
:1027D00008952E9808958F929F92AF92BF92EF9294
:1027E000FF920F931F93CF93DF93C82F8430C0F5D0
:1027F000811137C0809180008F7D809380000E947E
:10280000E913A0918600B09187002C2F30E00E9440
:10281000FB1F23E030E040E050E00E94D31F89011D
:102820009A0180918600909187006CE070E00E9490
:10283000BF1F60177107D8F0C80169E070E00E94FF
:10284000BF1F70938B0060938A00DF91CF911F911F
:102850000F91FF90EF90BF90AF909F908F90089551
:10286000C3E080918000806280938000CACF809115
:10287000860090918700E0908600F0908700E091BC
:102880008600F0918700C6E0D0E0BE010E94BF1F25
:10289000060F171F211D311D4801590185E0880CC5
:1028A000991CAA1CBB1C8A95D1F7C701BE010E94C6
:1028B000BF1F9F0150E040E0260F371F411D511DF3
:1028C000C501B4010E94D31F49015A01E09186005D
:1028D000F0918700CA01B9010E94AF1F9B01AC01B2
:1028E000DF010E940A209B01AC01C501B4010E94D6
:1028F000AF1F2FE096958795779567952A95D1F725
:10290000009186001091870030E020E0061717073D
:102910002807390708F095CF6091860070918700ED
:1029200090CF08950E94E61382E28093800089E1AF
:10293000809381008FEF9FEF9093870080938600B4
:102940000E94E2120895CF93DF93EC01FB01828194
:10295000882309F433C1C430FDE5DF07C0F5CB3F60
:102960009CE5D90730F49E0122503C4524313105C5
:10297000B0F50E94B50D9093A3028093A202C131DD
:102980008CE5D80709F4EEC008F069C0C930ECE561
:10299000DE0709F4D5C0C8F5C5308CE5D80709F4C1
:1029A000C7C000F5C330ECE5DE0709F4B9C008F094
:1029B000BBC0C230DC4509F4ADC08091A202909149
:1029C000A3020E94C30D0E94B20780E008C0C23675
:1029D000EDE5DE0771F2C63AFDE5DF0751F2DF9162
:1029E000CF9108958091A2028062C7309CE5D907FB
:1029F00009F493C08091A2028061C830DC4508F4DC
:102A00008CC08091A202806488C08091A2028B7FDA
:102A1000CD30FCE5DF0709F480C098F48091A20274
:102A20008E7FCB309CE5D90709F477C08091A20254
:102A30008C60CC30DC4508F470C08091A2028D7FA0
:102A40006CC08091A2028F7ECF30FCE5DF0709F4D5
:102A500064C008F47BC08091A2028F7D5EC0CE3F2F
:102A60009CE5D90709F47AC050F5C531FCE5DF07CC
:102A700009F486C098F48091A202837FC3319CE55B
:102A8000D90709F44AC008F471C00E94B2079091B6
:102A9000A202892F97FB87F980583FC0CC3FFCE505
:102AA000DF0709F449C008F055C08091A302816096
:102AB000CB3FDC4509F081CF8093A3027ECFC230AB
:102AC000EDE5DE0709F468C0A8F4C1158DE5D80767
:102AD00009F452C08091A3028360C130DD4560F3E8
:102AE0008091A302982F909591708E7F892B90FBF7
:102AF00081F9E2CFC236EDE5DE0709F451C0C63AEE
:102B0000FDE5DF0709F453C0C330DD4509F055CFBB
:102B100080E043C08091A20281608093A2024DCFE9
:102B20008091A2028260F9CF8091A2028460F5CFE9
:102B30008091A2028860F1CF8091A3028260BCCF15
:102B40000E94B2078091A2028068E7CF8091A20222
:102B5000877FE3CF8091A3028E7FAECF8091A302C7
:102B60008D7FAACF8091A2028F7BD7CF0E94B20720
:102B70008091A2028F77D1CF8091A3028C7F9CCFCE
:102B80008091A20282FB992790F921E0922790FB85
:102B900082F990FB83F9C1CF81E00E94500E0DCFE6
:102BA0009091A202892F8F7E94FF8061B6CF909181
:102BB000A202892F8E7F90FF8160AFCF81E00FCF7F
:102BC000CF93DF93EB0186319C4511F50E94B20C47
:102BD0009A81992399F08A7A91E009F490E0909390
:102BE0007102811109C089E20E948A0C0E94F30CD3
:102BF00080E0DF91CF91089585E3F6CF8091710257
:102C0000811104C089E20E94920CF0CF85E3FBCFD2
:102C100081E0EFCF0F931F93CF93DF93C42FD22F79
:102C2000FC0182818823C9F0409374020E948518B8
:102C3000909373028093720280E28C0F883040F48C
:102C4000C77081E001C0880FCA95EAF70E94480565
:102C5000DF91CF911F910F91089510917402141379
:102C600032C080917202909173020E949D18883C3C
:102C7000910548F5C0E2CD0F1D17B9F080E2810F34
:102C8000883040F4177081E001C0880F1A95EAF788
:102C90000E944F05C83048F481E09D2F977001C015
:102CA000880F9A95EAF70E944805802F0E943F05F9
:102CB000C83070F6D77081E001C0880FDA95EAF766
:102CC0000E944F05C5CF80E28C0F883008F6C77090
:102CD00081E001C0880FCA95EAF7F2CF0F939C01FB
:102CE000CB01243F4CE5340759F1A8F4293DFCE51C
:102CF0003F0701F12A3D4CE53407D1F1283D3C4521
:102D000091F406E221EE41EE68ED7CE50E940A16A0
:102D100080E00F910895263FFCE53F07E9F0B0F011
:102D2000273F3C45F9F0FC018281882339F110925C
:102D30007402EFCF07E225EE45EE69ED7CE5E6CFC4
:102D400006E221EE40EE64EF7CE5E0CF07E225EEFF
:102D500044EE65EF7CE5DACF06E221EE42EE66EF67
:102D60007CE5D4CF07E225EE46EE67EF7CE5CECFDB
:102D700008E221E045EE6AED7CE5C8CF81E0C9CFED
:102D80009093870180938601089590937A028093AF
:102D900079020895E0917902F0917A02309729F052
:102DA0000190F081E02D0995089580E00895E0916B
:102DB0007902F0917A02309799F020910E01222346
:102DC00059F02091A20227FF07C0DC012C91119637
:102DD0002C93119726E02C930280F381E02D099526
:102DE000089520917702309178022817390771F001
:102DF0009093780280937702E0917902F0917A02C1
:102E0000309721F00680F781E02D099508952091F3
:102E10007502309176022817390771F09093760287
:102E200080937502E0917902F0917A02309721F057
:102E30000084F185E02D09950895FC01329680917A
:102E40000E01882321F08091A2029EE187FF96E087
:102E500080E0915008F4089521912223D1F38F5FEF
:102E6000F8CF662301F120910E012223F1F0209189
:102E7000A20227FF1AC0462F4695469546954E3129
:102E800090F4677021E030E002C0220F331F6A9592
:102E9000E2F7840F911DFC01828190E02823392301
:102EA00081E0232B69F480E00895FC0132960896B6
:102EB0002191261721F0E817F907D1F7F4CF81E027
:102EC00008959C01FC0132969FEF80E041914617E6
:102ED00051F09F3F19F4411101C0982F8F5F863048
:102EE000A9F79F3F09F40895290F311D97FD3A95E1
:102EF000F90162830895FC01329608962191261308
:102F000003C0DF0111971C92E817F907B9F708957C
:102F1000E62FE695E695E695EE3168F4E80FF92F91
:102F2000F11D677021E030E001C0220F6A95EAF7D9
:102F30008281822B82830895E62FE695E695E695B9
:102F4000EE3170F4E80FF92FF11D677021E030E0E9
:102F500001C0220F6A95EAF72095828128232283F7
:102F6000089520910E01222339F02091A20227FF1B
:102F700003C00E94881708950E9461170895209148
:102F80000E01222339F02091A20227FF03C00E94E4
:102F90009C1708950E947B170895FC01329680913A
:102FA0000E01882351F08091A20287FF06C08EE1B6
:102FB000DF011D928A95E9F7089586E0F9CF08951B
:102FC0000E94DF170895811106C081E080937B0283
:102FD0000E94E017089582E0F9CF83E080937B029E
:102FE0000E94E01708950E94E317089581E08093FE
:102FF0007B020E94E01708950E94F6170895089535
:1030000008950E9400180895089508950E94FF17DA
:103010000895CF930E9404180E9425120E9405185B
:10302000C0E08C2F0E944911892B31F4CF5FCB3047
:10303000C1F780E0CF91089581E0FCCF85B780682B
:1030400085BF85B7806885BF08951F921FB61F9200
:1030500011248F939F93AF93BF9380917C02811132
:1030600013C08091D1029091D202A091D302B0916D
:10307000D4024196A11DB11D8093D1029093D2023A
:10308000A093D302B093D402BF91AF919F918F913F
:103090001F901FBE1F9018958091D902843031F186
:1030A0000E94DC0310927C0288E190E020E40FB6DD
:1030B000F894A895809360000FBE2093600083B7BA
:1030C000817F846083BF83B7816083BF7894889554
:1030D00083B78E7F83BF0FB6F894A8958091600068
:1030E000886180936000109260000FBE08950E9476
:1030F000B2070E94E403089582E084BD93E095BD89
:103100009AEF97BD80936E0008952FB7F894809141
:10311000D1029091D202A091D302B091D4022FBFDC
:1031200008952FB7F8946091D1027091D2028091E6
:10313000D3029091D4022FBF08959C014FB7F89409
:103140008091D1029091D202A091D302B091D40289
:103150004FBF821B930B089578941F921FB61F9246
:1031600011248F939F93AF93BF938091D10290913D
:10317000D202A091D302B091D4020196A11DB11D3B
:103180008093D1029093D202A093D302B093D40241
:10319000BF91AF919F918F911F901FBE1F90189567
:1031A00081E08093E00080E28093D8001092C90013
:1031B0008FE19EE40197F1F700C0000087E090EBFB
:1031C000DC018093E2029093E302A093E402B093C7
:1031D000E50288E19CE00FB6F894A8958093600022
:1031E0000FBE90936000FFCF88E19CE00FB6F8948B
:1031F000A895809360000FBE90936000FFCF8091F0
:10320000A00208950895CF93DF93EC0180910E0101
:103210008823B1F18091A20287FF32C060E282E090
:103220008093E9008FEF9091E800815095FD06C0F2
:1032300095ED9A95F1F700008111F5CF8091E800A6
:1032400085FF1BC080910E0170E050E040E08111CD
:1032500004C050E040E068E070E0CE010E94281B0E
:103260008091E8008E778093E80080E2FE01A0E87C
:10327000B2E001900D928A95E1F7DF91CF91089528
:1032800068E081E0CDCF80937D0270937F026093F0
:103290007E028091D902843001F582E08093E900BA
:1032A0008FEF9091E800815095FD06C095ED9A95BD
:1032B000F1F700008111F5CF8091E80085FF0DC086
:1032C00050E040E063E070E08DE792E00E94281B50
:1032D0008091E8008E778093E8000895BC0184E037
:1032E0000E9443190895BC0183E00E944319089588
:1032F00008958091D802811109C00E94B81C0E94D3
:10330000151D8091E20084608093E2000895109280
:10331000D80208950E94F61708956091D50281E0C1
:10332000611101C080E00E94ED1708959091D902CB
:1033300081E0943009F080E06091D5020E94F3179B
:10334000089542E061EC81E00E94341C42E261ECAD
:1033500082E00E94341C9091D90281E0943009F0FF
:1033600080E06091D5020E94E31708958091DB020E
:10337000833009F461C030F48130D1F1823009F436
:103380009EC008958A3009F48AC08B3009F46FC05A
:10339000893009F050C08091DA02813209F04BC0C7
:1033A0008091DE029091DF02029708F044C0809184
:1033B000E800877F8093E8008091E80082FF37C0B3
:1033C0009091F3008091F200029731F48091F10026
:1033D000813011F0863021F48091F1008093A002B9
:1033E0008091E8008B778093E8000E94681C23C0DE
:1033F0008091DA02813AF9F48091E800877F809326
:10340000E8008091DE029091DF02892B61F460E296
:1034100080E892E070E00E94771B8091E8008B7753
:103420008093E800089560E090E080E0F3CF809121
:10343000D9028111C1CF08958091DA02813AD9F77A
:103440008091DE029091DF02892BA9F78091E8003C
:10345000877F8093E8008091E80080FFFCCF809117
:103460000E018093F1008091E8008E77BCCF8091AF
:10347000DA02813201F78091DE029091DF02892B1E
:10348000D1F68091E800877F8093E8000E94681C55
:103490008091DC0280930E010E94B2070895809112
:1034A000DA02813241F68091E800877F8093E8005C
:1034B0000E94681C8091DD028093A1020895809192
:1034C000DA02813A09F0B7CF8091E800877F8093D4
:1034D000E8008091E80080FFFCCF8091A102C1CF7D
:1034E00084B7877F84BF0FB6F894A8958091600059
:1034F000886180936000109260000FBE80E890E0C9
:103500000FB6F89480936100909361000FBE0E9403
:10351000FC1708950E94B81C0E94151DE2EEF0E011
:1035200080818460808378940E94941F089582E053
:1035300091E00E94C51608958091D902853031F43A
:103540008091D902853019F00E94771808950E9461
:103550004C188091D702882399F30E940918882378
:1035600079F30E94121B0E94B207EACF08950E94CD
:10357000BA1A0895292F33272330310519F168F439
:103580002130310509F444C02230310509F445C029
:1035900090E080E030E020E025C02132310549F1A3
:1035A00022323105A9F780E490E024E735E0611587
:1035B0007105C1F08DE690E027E035E061307105DE
:1035C00089F0E6CF99278130910581F0009729F0A5
:1035D0000297F1F6EAE8F4E002C0E6EBF4E0849149
:1035E00090E09F01FA01318320830895EEE9F4E031
:1035F000F6CF89E090E02CEC34E06115710591F391
:1036000089E090E025EE34E06130710559F3C0CFD8
:1036100082E190E025EF34E0E5CF8BE390E02AEB08
:1036200034E0E0CF80E189BD82E189BD09B400FECC
:10363000FDCF8091D8008F7D8093D8008091E000ED
:1036400082608093E0008091E00081FDFCCF0895CE
:10365000AF92BF92CF92DF92FF920F931F93CF93BF
:10366000DF936C01EB018A010E94871CF82E811107
:1036700023C00115110539F0F80180819181C81B23
:10368000D90BC80ED91EB12CA12C2097A9F080917E
:10369000E80085FD22C08091E8008E778093E800E5
:1036A00001151105A1F0F80180819181A80EB91EC4
:1036B000B182A08285E0F82E8F2DDF91CF911F91EE
:1036C0000F91FF90DF90CF90BF90AF9008950E9430
:1036D000871C8823D1F2F82EEFCFF60181916F017C
:1036E0008093F1002197FFEFAF1ABF0ACECFFC0104
:1036F0008091E0029091E10286179707A0F0611592
:10370000710529F49091E8009E779093E80090E08D
:103710006115710551F4911108C08091E80082FF94
:1037200034C080E00895BC01F2CF8091D902882393
:10373000C1F18530C1F18091E80083FD30C08091F6
:10374000E80082FDEACF8091E80080FFE1CF809120
:10375000F3002091F200382F6115710519F028301F
:10376000310558F091E02830310509F090E02091C2
:10377000E8002E772093E800CBCF81918093F10071
:10378000615071092F5F3F4FE7CF8091D9028823A5
:1037900041F0853041F08091E80083FFBECF81E0A9
:1037A000089582E0089583E00895FC018091E0028D
:1037B0009091E10286179707A0F06115710529F431
:1037C0008091E8008E778093E80090E061157105A4
:1037D00051F4911108C08091E80082FF35C080E06B
:1037E0000895BC01F2CF8091D9028823C9F18530B8
:1037F000C9F18091E80083FD31C08091E80082FD2D
:10380000EACF8091E80080FFE1CF8091F300209122
:10381000F200382F6115710519F02830310558F084
:1038200091E02830310509F090E08091E8008E7732
:103830008093E800CBCF84918093F1003196615062
:1038400071092F5F3F4FE6CF8091D902882341F065
:10385000853041F08091E80083FFBDCF81E008957D
:1038600082E0089583E00895982F973028F08F70B4
:103870008093E90081E008959093E900242F762F4A
:1038800050E0981731F07091EC002091ED005091CC
:10389000F00021FD02C09F5FE8CF3091EB003E7F3A
:1038A0003093EB003091ED003D7F3093ED0030918F
:1038B000EB0031603093EB007093EC002093ED004F
:1038C0005093F0002091EE0027FDE5CF80E00895B1
:1038D0008091DA0287FF13C08091E80082FF06C062
:1038E0008091E8008B778093E80004C08091D90232
:1038F0008111F2CF08958091D9028823D9F3809164
:10390000E80080FFF8CF8091E8008E77ECCF20911F
:10391000E4003091E50095E6A9012091EC00822FAA
:10392000817020FF06C08091E80080FF06C080E023
:1039300008952091E80022FD1AC08091D9028823C1
:1039400089F0853089F08091EB0085FD0FC02091D2
:10395000E4003091E50042175307F9F29150E1F687
:1039600084E0089582E0089583E0089581E0089559
:103970000E94271D0E942F1DE0EEF0E080818160F3
:103980008083E8EDF0E080818F77808319BCA7ED1C
:10399000B0E08C918E7F8C9380818F7E808310929B
:1039A000D80208950F931F93CF93DF930E94271D92
:1039B0000E942F1DC8EDD0E088818F778883888191
:1039C0008068888388818F7D888319BC1092D90292
:1039D0001092D5021092D7021092D60200EE10E09B
:1039E000F80180818B7F808388818160888342E0B9
:1039F00060E080E00E94341CE1EEF0E080818E7F88
:103A00008083E2EEF0E08081816080838081886045
:103A10008083F80180818E7F8083888180618883A4
:103A2000DF91CF911F910F910895E8EDF0E0808133
:103A30008F7E8083E7EDF0E080818160808384E089
:103A400082BF81E08093D8020E94D21C0895E8EDE5
:103A5000F0E080818E7F80831092E20008951092C2
:103A6000DA001092E10008951F920F920FB60F92A4
:103A700011242F933F934F935F936F937F938F9373
:103A80009F93AF93BF93EF93FF938091E10082FFE9
:103A90000BC08091E20082FF07C08091E1008B7F24
:103AA0008093E1000E94931F8091DA0080FF19C08B
:103AB0008091D80080FF15C08091DA008E7F8093BE
:103AC000DA008091D90080FF96C080E189BD82E153
:103AD00089BD09B400FEFDCF81E08093D9020E9428
:103AE00079198091E10080FF19C08091E20080FF88
:103AF00015C08091E2008E7F8093E2008091E20009
:103B000080618093E2008091D80080628093D80029
:103B100019BC85E08093D9020E948D198091E10043
:103B200084FF2BC08091E20084FF27C080E189BD23
:103B300082E189BD89B5982F917080FFFBCF80917C
:103B4000D8008F7D8093D8008091E1008F7E809394
:103B5000E1008091E2008F7E8093E2008091E2009C
:103B600081608093E2008091D502882309F449C0E6
:103B700084E08093D9020E9496198091E10083FF2E
:103B800029C08091E20083FF25C08091E100877FFA
:103B90008093E10082E08093D9021092D502809157
:103BA000E1008E7F8093E1008091E2008E7F809320
:103BB000E2008091E20080618093E20042E060E0F8
:103BC00080E00E94341C8091F00088608093F000B7
:103BD0000E948A19FF91EF91BF91AF919F918F91B0
:103BE0007F916F915F914F913F912F910F900FBEF9
:103BF0000F901F90189519BC1092D9020E94871936
:103C000070CF8091E30087FD93E09093D902B3CF0A
:103C10001F920F920FB60F9211242F933F934F9341
:103C20005F936F937F938F939F93AF93BF93CF9344
:103C3000DF93EF93FF93D091E900DF708091EC0068
:103C4000C82FC17080FDC0E81092E9008091F0009B
:103C5000877F8093F00078940E944C1E1092E900B8
:103C60008091F00088608093F000CD2BCF70C093DE
:103C7000E900FF91EF91DF91CF91BF91AF919F91BB
:103C80008F917F916F915F914F913F912F910F9005
:103C90000FBE0F901F901895AAE2B0E0E2E5FEE19A
:103CA0000C9424208AED92E02091F100FC012193F4
:103CB000CF01F2E0823E9F07B9F70E94B6198091CA
:103CC000E80083FF1EC18091DA029091DB029A30F6
:103CD00008F017C1E92FF0E0E755FF4D0C94F51FF0
:103CE000803899F0823809F00CC18091DE028F7023
:103CF000873008F006C18093E9008091EB0085FBD6
:103D0000882780F91092E90006C08091D602909130
:103D1000D702911182609091E800977F9093E8001C
:103D20008093F1001092F1008091E8008E77E5C059
:103D3000882309F4D3C0823009F0E3C08091DC020B
:103D40008111D6C08091DE028F702FEF280F2630B0
:103D500008F0D7C08093E9002091EB0020FFC8C095
:103D6000933031F48091EB0080628093EB00C0C00F
:103D70009091EB0090619093EB0021E030E001C066
:103D8000220F8A95EAF72093EA001092EA008091C8
:103D9000EB008860EACF8111B4C01091DC021F777C
:103DA0008091E3008078812B8093E3008091E8008C
:103DB000877F8093E8000E94681C8091E80080FF64
:103DC000FCCF8091E30080688093E30082E01111D2
:103DD00083E08093D90295C08058823008F091C06A
:103DE0008091DC029091DD028C3D23E09207A1F5E9
:103DF00083E08A838AE289834FB7F894DE011396C1
:103E000020E03EE051E2E32FF0E050935700E491D0
:103E100020FF03C0E295EF703F5FEF708E2F90E0C0
:103E2000EA30C0F0C7968D939D932F5F243159F7E8
:103E30004FBF8091E800877F8093E8006AE270E0DE
:103E4000CE0101960E94771B8091E8008B778093CA
:103E5000E80057C0C096E7CF6091DE027091DF02A4
:103E6000AE014F5F5F4F0E94B71ABC01892B09F466
:103E700048C09091E800977F9093E80089819A81EB
:103E80000E94D51BE1CF8038E1F58091E800877F63
:103E90008093E8008091D5028093F10045CF811195
:103EA00030C09091DC02923060F58091E800877F0D
:103EB0008093E8009093D5020E94681C8091D502FF
:103EC000882311F084E005C08091E30087FDFACFDC
:103ED00081E08093D9020E94A11913C08091DC0275
:103EE000813079F481E0933009F080E08093D7024B
:103EF0001092E9008091E800877F8093E8000E949B
:103F0000681C8091E80083FF0AC08091E800877FE9
:103F10008093E8008091EB0080628093EB00AA968A
:103F2000E3E00C9440200895CF938091D902882338
:103F3000A1F0C091E900CF709091EC00892F8170C1
:103F400090FD80E8C82B1092E9008091E80083FD85
:103F50000E944C1ECF70C093E900CF910895DB0101
:103F60008F939F930E940A20BF91AF91A29F800DD3
:103F7000911DA39F900DB29F900D11240895AA1B2F
:103F8000BB1B51E107C0AA1FBB1FA617B70710F044
:103F9000A61BB70B881F991F5A95A9F78095909576
:103FA000BC01CD010895A1E21A2EAA1BBB1BFD0185
:103FB0000DC0AA1FBB1FEE1FFF1FA217B307E40708
:103FC000F50720F0A21BB30BE40BF50B661F771F60
:103FD000881F991F1A9469F7609570958095909540
:103FE0009B01AC01BD01CF010895EE0FFF1F0590AD
:103FF000F491E02D0994A29FB001B39FC001A39F4B
:10400000700D811D1124911DB29F700D811D112411
:10401000911D08950E94FB1FA59F900DB49F900DC8
:10402000A49F800D911D112408952F923F924F92CD
:104030005F926F927F928F929F92AF92BF92CF9238
:10404000DF92EF92FF920F931F93CF93DF93CDB741
:10405000DEB7CA1BDB0B0FB6F894DEBF0FBECDBFB9
:1040600009942A88398848885F846E847D848C848A
:104070009B84AA84B984C884DF80EE80FD800C8193
:104080001B81AA81B981CE0FD11D0FB6F894DEBF76
:104090000FBECDBFED010895FB01DC0104C08D9181
:1040A0000190801921F441505040C8F7881B990BAA
:1040B0000895F999FECF92BD81BDF89A992780B5F0
:1040C0000895A8E1B0E042E050E00C948D20262F46
:1040D000F999FECF92BD81BDF89A019700B40216FE
:1040E00039F01FBA20BD0FB6F894FA9AF99A0FBEAC
:1040F00008950396272F0E9468200E946720252F8D
:104100000E946820242F0C9468200196272F0E947B
:1041100068200C946720DC01CB01FC01F999FECFEB
:1041200006C0F2BDE1BDF89A319600B40D9241503F
:104130005040B8F70895F894FFCF91059105C20556
:10414000C2054F06F105F105F1056B06F7060607F6
:104150000607701E981E811F981E811FCB1EEC1E25
:06416000811F431F4F1FE9
:104166002D02FF180319781973196E19021901E245
:1041760000E900EA00B500B600B700CD008301CC27
:10418600008A0192019401210223022402250226BB
:104196000227022A02B300B4006F007000818283F6
:1041A600E200E900EA00B500B600B700CD008301E1
:1041B600CC008A01920194012102230224022502E5
:1041C600260227022A02B300B4006F007000818223
:1041D60083909192939594969734C63031323337C3
:0641E600F7F6F5F4F1000C
:00000001FF
