:100000000C9459040C94A2040C94A2040C94A20421
:100010000C94A2040C94A2040C94A2040C94A204C8
:100020000C94A2040C94A2040C94F63E0C94CD3FC4
:100030000C9477340C94A2040C94A2040C94A204A3
:100040000C94A2040C94BD120C94A2040C94A2046F
:100050000C94A2040C94DD340C94A2040C94A2041D
:100060000C94A2040C94A2040C94A2040C94A20478
:100070000C94A2040C94A2040C94A2040C94A20468
:100080000C946E0E0C94A2040C94A2040C94A20482
:100090000C94A2040C94A20405A84CCDB2D44EB981
:1000A0003836A9020C50B9918688083CA6AAAA2A1B
:1000B000BE000000803F07634236B79BD8A71A39BD
:1000C000685618AEBAAB558C1D3CB7CC5763BD6DA6
:1000D000EDFD753EF6177231BF000000803F08004D
:1000E0000000BE922449123EABAAAA2ABECDCCCCB7
:1000F0004C3E00000080BEABAAAAAA3E0000000051
:10010000BF000000803F0000000000084178D3BB22
:100110004387D1133D190E3CC3BD4282AD2B3E68CF
:10012000EC8276BED98FE1A93E4C80EFFFBE01C4C0
:10013000FF7F3F00000000006D6F6465206A7573EB
:100140007420737769746368656420746F207177B5
:100150006572747920616E642074686973206973B4
:100160002061206875676520737472696E670A0084
:100170002B0014001A000800150017001C001800BE
:100180000C00120013002A00296104001600070069
:1001900009000A000B000D000E000F0033003400B0
:1001A000E1001D001B0006001900050011001000F1
:1001B0003600370038002872E75CE000E200E30018
:1001C00001512C002C0002515000510052004F00F0
:1001D00035001E001F002000210022002300240003
:1001E0002500260027002A004C003A003B003C0076
:1001F0003D003E003F002D002E002F00300031005A
:10020000010040004100420043004400450032002C
:1002100064004B004E0001000100010001000100DC
:100220000100010001000100AB00AA00A900AE001E
:1002300035021E021F022002210222022302240292
:100240002502260227022A004C003A003B003C000F
:100250003D003E003F002D022E022F0230023102EF
:1002600001004000410042004300440045003202CA
:1002700064024A004D00010001000100010001007C
:100280000100010001000100AB00AA00A900AE00BE
:100290001E001E001E001E001E001E001E001E006E
:1002A0001E001E001E001E00000014001A000800A0
:1002B000150017001C0018000C00120013002F007E
:1002C000000004001600070009000A000B000D00E2
:1002D0000E000F0033003400E85C00000000060050
:1002E00019000000000011001000000000000000D4
:1002F0000100005C015CC25CC35CC55CC65CC75CA1
:10030000C85CC95CCA5C4C0001000100295C1D5C32
:100310001E5C135C0A5CE55C01000100E65C010008
:1003200001002B5C2A5C265C275C2C5C2D5C0000A9
:1003300000000100010001000100010001000100B6
:1003400001000100010001000100010001000100A5
:1003500044454255473A20656E61626C65642E0AD9
:10036000000A002530313662003A2000253032582C
:10037000000A722F63203031323334353637383942
:100380004142434445460A00617564696F20706CC0
:100390006179206E6F746520667265713D256420F9
:1003A000766F6C3D256400617564696F2073746FAE
:1003B00070206E6F746520667265713D2564006102
:1003C0007564696F2073746F7020616C6C206E6F40
:1003D000746573007267625F6D61747269785F69DA
:1003E0006E69745F64726976657273207267625FAA
:1003F0006D61747269785F636F6E6669672E6D6F89
:100400006465203D20302E20577269746520646534
:100410006661756C742076616C75657320746F20ED
:10042000454550524F4D2E0A007267625F6D6174F0
:100430007269785F696E69745F64726976657273F8
:10044000206565636F6E666967206973206E6F74DF
:1004500020656E61626C65642E0A007267625F6D72
:1004600061747269785F636F6E6669672E73706519
:100470006564203D2025640A007267625F6D6174C7
:100480007269785F636F6E6669672E76616C203D76
:100490002025640A007267625F6D61747269785F1B
:1004A000636F6E6669672E736174203D2025640A50
:1004B000007267625F6D61747269785F636F6E6608
:1004C00069672E687565203D2025640A00726762A1
:1004D0005F6D61747269785F636F6E6669672E6DB8
:1004E0006F6465203D2025640A007267625F6D615C
:1004F000747269785F636F6E6669672E656E61629C
:100500006C65203D2025640A007267625F6D61742E
:100510007269785F636F6E666967206570726F6D70
:100520000A006565636F6E6669675F757064617404
:10053000655F7267625F6D61747269785F6465663A
:1005400061756C740A0000000000000101010101E6
:10055000010101010202020202020202020303037C
:10056000030303030304040404040405050505054B
:100570000606060606070707070808080809090906
:100580000A0A0A0A0B0B0B0C0C0C0D0D0D0E0E0FAC
:100590000F0F101011111112121313141415151638
:1005A000161717181819191A1A1B1C1C1D1D1E1FA7
:1005B0001F20202122222324252526272728292AF7
:1005C0002B2B2C2D2E2F2F3031323334353636371E
:1005D00038393A3B3C3D3E3F404142434446474820
:1005E000494A4B4C4D4F50515253555657585A5BF0
:1005F0005C5E5F606263646667696A6C6D6E707191
:1006000073747678797B7C7E8081838486888A8BFC
:100610008D8F91929496989A9B9D9FA1A3A5A7A92F
:10062000ABADAFB1B3B5B7B9BBBDBFC1C4C6C8CA26
:10063000CCCFD1D3D6D8DADCDFE1E4E6E8EBEDF0DD
:10064000F2F5F7FAFCFF0A002530325820006B65FE
:1006500079626F6172645F7265706F72743A2000C4
:100660000A0025303258006B6579626F6172645FF1
:100670007365745F6C65643A200064656C5F6B65DC
:10068000795F6269743A2063616E27742064656CD7
:100690003A20253032580A006164645F6B65795FE7
:1006A0006269743A2063616E2774206164643A2041
:1006B000253032580A004B6579626F61726420738D
:1006C000746172742E0A005B575D005B535D005BC2
:1006D000525D005B445D005B435D0004033000003D
:1006E000001A0350006C0061006E0063006B002074
:1006F000004C00690067006800740000000A034FA6
:10070000004C004B0042000000040309040902BF32
:1007100000050100A0FA090400000103010100091D
:1007200021110100012240000705810308000A0988
:1007300004010001030000000921110100012271E0
:10074000000705820320000A0904020002030000DA
:100750000009211101000122220007058303200066
:100760000107050303200001080B0302010100003B
:10077000090403000001010000092401000109002F
:100780000104090404000201030000072401000120
:10079000410006240201010006240202020009248D
:1007A0000301030102010009240302040101010005
:1007B00009050502400005000005250101010905A4
:1007C000840240000500000525010103120110010B
:1007D00000000008EDFE6560010001020301063122
:1007E000FF0974A1010975150026FF009520750801
:1007F00081020976150026FF00952075089102C038
:1008000005010980A10185031601002603001A8154
:10081000002A8300751095018100C0050C0901A113
:10082000018504160100269C021A01002A9C02750B
:100830001095018100C005010906A1018505050784
:1008400019E029E7150025019508750181020508C1
:10085000190129059505750191029501750391010D
:100860000507190029EF1500250195F07501810292
:10087000C005010906A101050719E029E7150025B2
:100880000195087501810295017508810105081916
:1008900001290595057501910295017503910105E1
:1008A00007190029FF150026FF009506750881002D
:1008B000C00011241FBECFEFD0E2DEBFCDBF04B613
:1008C00003FE27C08091F30B9091F40BA091F50BE0
:1008D000B091F60B8730904BA740B04BD1F41092FB
:1008E000F30B1092F40B1092F50B1092F60B14BE52
:1008F00084B7877F84BF0FB6F894A8958091600075
:10090000886180936000109260000FBEE0E0F0EF1D
:10091000099517E0A0E0B1E0E6E4FFE800E00BBFD6
:1009200002C007900D92AA3CB107D9F72BE0AAECC0
:10093000B7E001C01D92A33FB207E1F70E94EE3B72
:100940000C9434470C940000FF93EF93E091CA0796
:10095000F091CB07309709F00995EF91FF91089539
:10096000FC018591803011F0EFDFFBCF0895FF2768
:10097000E0E230E247FF0CC0419597FF09C0EDE28D
:100980006095709580959095611D711D811D911DDB
:1009900027FF02C0219530E350E2AA27660F771F98
:1009A000881F991FAA1FA41710F0A41B63955A95BE
:1009B000A9F7AA3008F0A95FA05DAF93F395611580
:1009C00071058105910541F7ED3211F4EF93F3952F
:1009D000F21718F43F93F395FBCF8F91B5DFFA959B
:1009E000E1F70895E991F9918591803021F0853200
:1009F00019F0AADFF9CF089520E0E8945591553217
:100A0000C1F3503311F4689455915A3348F450535C
:100A100090F3220F022E220F220F200D250FF4CF6C
:100A20000EF4219589919991533619F3533729F191
:100A3000533559F1BC0188279927E8945C3621F495
:100A40008991999168945591543639F446EF7EF026
:100A500077FF0DC08FEF9FEF0AC055374AE039F09E
:100A6000583540E121F0523642E009F00895FF93F5
:100A7000EF937DDFEF91FF91B7CFFF93EF93FC01F1
:100A800081918030B9F360DFFBCFFF93EF9368DF94
:100A9000F1CFDF93CF93CDB7DEB72596A3DFCF910C
:100AA000DF910895E82FF0E0893020F5EA5CF84BFB
:100AB0000C94264681E008958091D3070895809193
:100AC000D007817008958091D00786958170089530
:100AD0008091D00782FB882780F908958091D00704
:100AE00083FB882780F908958091D207EACF80910F
:100AF000D207EBCF399741E050E060E070E004C0EE
:100B0000440F551F661F771FEA95D2F78091CC07D7
:100B10009091CD07A091CE07B091CF0748235923DC
:100B20006A237B2381E0452B462B472B09F480E089
:100B300008950F931F93CF93DF93C091D307C111F3
:100B40005FC0809104010E945205D82F8091050159
:100B50000E945205182F809106010E945205082F0D
:100B6000809107010E945205412F50E0440F551F0C
:100B700024E0029F80011124E8E08E9FC00111242F
:100B80009A01245F3E4F2D0F311D200F311F280F7A
:100B9000391FF90140818091D107811109C020914D
:100BA000D20730E02F5F3F4F237033272093D207C7
:100BB00090E0019663E070E00E9412468093D107B6
:100BC0008091D00790E001968F7099278093D0078D
:100BD0008091CC079091CD07A091CE07B091CF071F
:100BE000880F991FAA1FBB1F840F911DA11DB11D46
:100BF0008093CC079093CD07A093CE07B093CF07F7
:100C0000CF5FC170C093D307809108010E94520545
:100C1000C82F809109010E945205D82F80910A01A6
:100C20000E945205DD0F880F880FD80FCD0F8091DD
:100C30000B010E945205880F880F880F8C0FDF91DF
:100C4000CF911F910F910895569A5E9A0C94860C3D
:100C50000C9439060C949D0680E00E94A21B0C9413
:100C60006E340F9304E022E041E00E941D070F91D3
:100C70000895CF93FB01863E2CE5920799F138F455
:100C8000853E9C45C9F0C1E08C2FCF910895873EE9
:100C90002CE59207E9F0883E9C45A9F7C281CC2358
:100CA00099F340E066E070E08FE191E00E94BE12AF
:100CB00083E00E9405310AC0C281CC2329F388E376
:100CC00091E00E94B00480E00E94FD06C0E0DCCF0D
:100CD000C28185EECC2319F00E940E29F7CF0E9425
:100CE000112AD2CFC281CC2379F20E94B01340E006
:100CF00066E070E08FE491E00E94BE1282E00E9404
:100D0000053181E00E94053184E00E94053183E0D5
:100D10000E94E4300E944233811102C00E94BE331F
:100D20000E945A3390E09093F80A8093F70A806803
:100D30008093F70A0E945E33C9CF1F93CF93DF934E
:100D4000CDB7DEB7A3970FB6F894DEBF0FBECDBF09
:100D50008091D7078823E1F18091D4079091D5073E
:100D6000892B39F583E2E6E7F5E0DE011196019083
:100D70000D928A95E1F70E94990521E030E02C0F51
:100D80003D1F280F311DF901108180911E01180FA0
:100D90008091D607811769F00E94060E0E94011407
:100DA000812F0E94060E4FE050E00E94BB1410936A
:100DB000D6078091D4079091D507019660911C01C8
:100DC00070911D010E94FE459093D5078093D40732
:100DD000A3960FB6F894DEBF0FBECDBFDF91CF91C3
:100DE0001F9108959C012150314581E02230310549
:100DF00008F480E0089581E00895CF93DF93C82F31
:100E000020E8829FC001112440E060E170E0815839
:100E10009E4F0E94BE1261E070E0CB0102C0880FBD
:100E2000991FCA95E2F7EC010E945533BE0190E08C
:100E300080E0DF91CF910C9484308F929F92AF929B
:100E4000BF92CF92DF92EF92FF920F931F936B01AD
:100E50007C0181E090E0A0E0B0E04C015D0104C0C5
:100E6000880C991CAA1CBB1C4A95D2F7B501A40199
:100E70004C015D0104C0880C991CAA1CBB1C2A955E
:100E8000D2F7482959296A297B2904C0880F991F5C
:100E9000AA1FBB1F0A95D2F78A019B010C211D21B5
:100EA0002E213F21041715072607370789F48C29BF
:100EB0009D29AE29BF29BC01CD011F910F91FF9043
:100EC000EF90DF90CF90BF90AF909F908F9008955C
:100ED00080959095A095B0958C219D21AE21BF2144
:100EE000EACF0E944233811102C00E94BE330E94A9
:100EF0003F130E9429230C9424060E947D180E940F
:100F000086228091D807811102C00E94931B809194
:100F1000D80790E00196817099278093D8070C94A8
:100F20002A0608950C9491070C9492070895CF9384
:100F3000DF930E94C22C0E9411180E9442180E9446
:100F4000A734EC0140E063E070E08FE293E00E94A0
:100F5000BE120E949607CE010E94B3348A3F9105CB
:100F600030F00E94B013DF91CF910C9401358FE9DE
:100F70009FE00197F1F700C00000EDCFFF920F93C3
:100F80001F93CF93DF938C01FC01C081D1818091AD
:100F9000D508811157C08281882309F44EC0CE0143
:100FA0000E94D431F82E682FCE010E948031BE01FC
:100FB0008F2D0E94130AEC01B8010E942806882395
:100FC00009F4E0C0B801CE010E94230E882309F481
:100FD000D9C0B801CE010E94D918882309F4D2C023
:100FE000C93CFCE5DF0709F40DC108F072C0C23C42
:100FF0009CE5D90709F4E2C008F041C0C531FCE521
:10100000DF0728F5C2308CE5D80708F022C1C115EA
:101010009CE5D90709F4B1C0C130DC4509F4B9C079
:1010200081E08093DE078093DF07C801DF91CF91D5
:101030001F910F91FF900C94FB06CE010E94AC31E2
:10104000F82EB5CFCE010E94D431BE01B2CFC63149
:10105000DC4531F70E946932F8019281992309F445
:10106000D4C18A7A91E009F490E09093D907811174
:10107000CAC189E20E9444320E94B53283C0C53C95
:101080008CE5D80709F4ADC0A8F4C33CECE5DE0755
:1010900009F49BC0C43CDC4519F6F8018281882321
:1010A00009F470C00E946932827209F497C00E94EC
:1010B0007E2368C0F8018281C73CFCE5DF0709F4A4
:1010C0009CC008F495C0882309F45CC00E941F24CA
:1010D00059C0C63DECE5DE07E8F4CE3CFCE5DF0791
:1010E00008F050C0CB3C8CE5D80709F49BC008F44D
:1010F00091C0CC3CECE5DE0709F49CC0CD3CDC455E
:1011000009F08ECFF80182818823E1F181E00E940D
:10111000872438C0C83D8CE5D80709F459C1C0F40C
:10112000C63DECE5DE0709F417C1C73DDC4509F013
:1011300077CFF8018281882309F435C11092DF0747
:101140000E94A7349093DD078093DC0780E211C1F1
:10115000CC3D8CE5D80709F475C0CD3D9CE5D90799
:1011600031F1CB3DDC4509F05BCFF801828188236A
:1011700049F080E00E94863C05C0F801828181111F
:101180000E94970780E0DF91CF911F910F91FF9010
:101190000895F80182818823A9F38091590981601B
:1011A0008093590980E593E00E94B004EBCFF801E9
:1011B0008281882339F30E94BE33E4CFF801828113
:1011C000882301F30E947023DDCFF80182818823F8
:1011D000C9F20E946932827209F469CF0E94972392
:1011E000D1CFF8018281882369F20E94B323CACF4C
:1011F000882341F20E94DF23C5CF882319F20E9481
:101200000924C0CFF8018281882309F4BBCF0E9452
:101210003124B8CFF8018281882309F4B3CF0E942A
:101220004724B0CFF8018281882309F4ABCF0E9414
:101230005924A8CFF8018281882309F4A3CF0E9402
:101240006E24A0CFF8018281882309F49BCF82E02D
:1012500091CFF8018281882309F4E7CE0E944233BE
:10126000811102C00E94BE330E945A3390E09093D5
:10127000F80A8093F70AFE01E350FC45E231F105DC
:1012800020F4E15CF84B0C9426468091F70A8160CB
:101290008093F70A28C08091F70A8260F9CF809185
:1012A000F70A8460F5CF8091F70A8860F1CF8091CA
:1012B000F70A8061EDCF8091F70A8062E9CF8091D3
:1012C000F70A8064E5CF8091F70A8068E1CF8091CA
:1012D000F70A8C608093F70A40E064E070E08FEFDB
:1012E00092E00E94BE128091F70A0E945E330E9433
:1012F000C22C48CF8091F70A8E7FCACF8091F70A1F
:101300008D7FC6CF8091F70A8B7FC2CF8091F70A7D
:10131000877FBECF8091F70A8F7EBACF8091F70A80
:101320008F7DB6CF8091F70A8F7BB2CF8091F70A7D
:101330008F77AECF8091F70A837F8093F70A40E0E2
:1013400062E070E08FE193E0CCCF9091F70A892FB3
:1013500097FB87F980589CCFF8018281882361F040
:101360001092DE070E94A7349093DB078093DA0780
:1013700082E00E94602A06CF8091DE0781110FC0B3
:101380008091DA079091DB070E94B334883C910585
:1013900030F486E20E940E2986E20E94112A82E041
:1013A0000E94672AEFCE8091DF0781110FC08091E4
:1013B000DC079091DD070E94B334883C910530F43E
:1013C00087E20E940E2987E20E94112A80E2E8CF7C
:1013D000F80182818111B2CE8091DF078111F6CFB1
:1013E0008091DC079091DD070E94B334883C910521
:1013F00068F780E20E94672A88E20E940E2988E24C
:101400000E94112ABFCE85E335CE8091D907811184
:1014100004C089E20E944B322FCE85E3FBCF90E0DF
:1014200080E008950895972F70E02CE0929F600D62
:10143000711D1124FB0190E3899FE00DF11D112422
:10144000EE0FFF1FE059FE4F859194910895FC0126
:10145000EE0FFF1FEF59FC4F859194910895CF93A4
:10146000DF930E94130A0E94E80BEC01811520E52E
:10147000920708F042C0811530E4930708F014C1C8
:10148000883E910528F5803E910508F0A0C0883A75
:10149000910588F4853A910508F08FC08130910557
:1014A00009F495C0009709F492C0049708F08FC022
:1014B000D0E0C0E08CC08F3B910508F48CC0805C0C
:1014C0009109C03CD105A0F30E94270AEC017FC01E
:1014D0008115904250F4C11581E0D80708F077C01B
:1014E000C03FD10528F3D06572C0C11590E3D9077C
:1014F00008F0D0C0CE019F70E7CF811525E5920797
:1015000058F5811534E5930708F0FDC0811542E5D3
:10151000940750F4C11581E5D80708F4C8C0DC2F42
:10152000CC27C16FD06A53C0982F969596959E018F
:1015300023703327C115D34508F0D6C0C1E0D0E0F1
:1015400002C0CC0FDD1F2A95E2F720E2929FC00176
:101550001124C82BD92BC6C0C11589E5D807A8F41A
:10156000C11598E5D90708F0D3C0C11526E5D20703
:1015700008F09ECF8C2F0E94630CC82FD0E0DC2F88
:10158000CC27CC27DF71D06222C0C1153AE5D30742
:1015900008F4C3C0CE0190568115904208F088CF60
:1015A0008D2F8F710E94630C90E0982F88278827D9
:1015B0009F719C012C2BE901E6CF853A910509F436
:1015C000BCC0863A910509F0BBC0C2E8D0E4CE01A8
:1015D000DF91CF910895883A910509F4B4C0893A12
:1015E000910509F4B3C08A3A910509F4B2C08B3A67
:1015F000910509F4B1C08C3A910509F4B0C08B3B58
:10160000910509F4AFC08C3B910509F4AEC08D3A49
:10161000910509F4ADC0803B910509F4ACC08E3A48
:10162000910509F4ABC08F3A910509F4AAC0813B3A
:10163000910509F4A9C0823B910509F4A8C0833B38
:10164000910509F4A7C0843B910509F4A6C0853B28
:10165000910509F4A5C0863B910509F4A4C0873B18
:10166000910509F4A3C0883B910509F4A2C0893B08
:10167000910509F4A1C08D3B910509F4A0C08E3BF2
:10168000910509F49FC08A3B910509F49EC0C0E012
:10169000D4E49DCFCE019927D3FF03C0EC01D86CD1
:1016A00096CFEC01D06C93CFDF70D06A90CFCE0193
:1016B000E4E096958795EA95E1F783702C2F2695BF
:1016C0002695237090E2299F90011124382B8C2FAE
:1016D0008370C1E0D0E002C0CC0FDD1F8A95E2F735
:1016E000C22BD32BDC6873CFC1E0D0E002C0CC0F9B
:1016F000DD1F2A95E2F730E2939FC0011124C82B29
:10170000D92BDA6864CFD82FCC27C46FD06A5FCFCB
:10171000DC2FCC27C06FD06A5ACF8C2F8F700E94DD
:10172000630C34E0D695C7953A95E1F79C2F9F70EE
:10173000C82FCF70C06ED92FB8CFC1E8D0E447CF43
:10174000C3E8D0E444CFC2EED4E441CFC9EED4E440
:101750003ECFCAEED4E43BCFC5EBD4E438CFC6EBE2
:10176000D4E435CFC3EBD4E432CFC4EBD4E42FCFF1
:10177000C7EBD4E42CCFCCECD4E429CFCDECD4E42B
:1017800026CFC3E8D5E423CFCAE8D5E420CFC2E909
:10179000D5E41DCFC4E9D5E41ACFC1E2D6E417CF12
:1017A000C3E2D6E414CFC4E2D6E411CFC5E2D6E456
:1017B0000ECFC6E2D6E40BCFC7E2D6E408CFCFE621
:1017C000D4E405CFC0E7D4E402CFCAE2D6E4FFCE2A
:1017D0008238910549F1B0F48133910509F462C072
:1017E00048F48932910509F456C08A32910509F40A
:1017F00060C008958533910509F446C08933910589
:1018000099F00895833E910531F138F4803E9105B9
:1018100091F0823E9105B1F00895863E910521F147
:10182000873E910551F108952091F70A2370D9F070
:1018300080EE90E008952091F70A20FF14C089E31C
:1018400090E008952091F70A22FF0DC024FD09C001
:1018500083EE90E008952091F70A22FD31C024FF25
:1018600002C090E080E008952091F70A23FFFBCFAB
:1018700024FDF7CF87EE90E008952091F70A23FF2B
:10188000EECF86EE90E008952091F70A25FFEBCF8A
:1018900089E290E008952091F70A25FFE4CF85E3DF
:1018A00090E008952091F70A26FFDDCF8AE290E0CC
:1018B00008952091F70A26FFD6CF81E390E008959E
:1018C00082EE90E008959091F70A92FF06C0282FCB
:1018D0002871283069F4877F846093FF06C0282F21
:1018E0002871283161F4877E846194FD877E089594
:1018F000282F2471243089F78B7F8860EECF282F22
:101900002471243191F78B7E8861EFCF0895CF93B6
:10191000DF93A0E5B7E024E537E061E070E09D915A
:10192000E92FE295EF70F0E041A19F70EB0102C05A
:10193000CC0FDD1F9A95E2F7CE018095842381A319
:101940002A173B0761F7A4E4B7E040E557E0C1E0A0
:10195000D0E08D91E82FE295EF70F0E061A18F70FB
:101960009E0101C0220F8A95EAF7922F9095962347
:1019700091A382A1822B82A34A175B0751F7109291
:10198000E9071092E8071092E1071092E007109221
:10199000EB071092EA071092E3071092E207109209
:1019A000ED071092EC071092E5071092E4071092F1
:1019B000EF071092EE071092E7071092E60784E017
:1019C0000E94CF0DDF91CF910C9471074F925F92DF
:1019D0007F928F929F92AF92BF92CF92DF92EF92BF
:1019E000FF920F931F93CF93DF9398EE492E97E0CA
:1019F000592E20E5E22E27E0F22E20E0CC24C394DD
:101A0000D12CE201899099902E01DE011E921E9246
:101A1000F70181917F01E82FE295EF70F0E091A14D
:101A20008F70B60101C0660F8A95EAF7892F862B61
:101A300081A382A1362F3095832382A380EA8A95E1
:101A4000F1F784E4A82E87E0B82E50E040E0E501ED
:101A500079905E01872D82958F7090E0EC0188A1CE
:101A60000D911C91119790E0D72DDF7002C09595D4
:101A70008795DA95E2F780FD3FC0C601042E02C0CB
:101A8000880F991F0A94E2F7082B192B11961C93C3
:101A90000E934F5F5F4F4C305105C9F681A138233B
:101AA00031A382A1682B62A381E04D915C9148151E
:101AB000590509F480E0282BE0EF4E16E7E05E06BA
:101AC00009F09FCF44E060EE77E088EE97E00E9457
:101AD000D00D0E947D0781E0DF91CF911F910F9182
:101AE000FF90EF90DF90CF90BF90AF909F908F903E
:101AF0007F905F904F90089590E080E0C5CFE82FF1
:101B0000F0E0EE0FFF1FE052F84F808191810895C1
:101B1000CF92DF92EF92FF920F931F93CF93DF93B9
:101B200081E793E00E94B00480EEE82E87E0F82E73
:101B3000D0E0C0E09CE6C92E93E0D92E03E613E086
:101B4000DF93CF93DF92CF920E94490589E693E01D
:101B50000E94B004F701819191917F010E94353379
:101B60009F938F931F930F930E94490581E693E003
:101B70000E94B00421968DB79EB708960FB6F894D0
:101B80009EBF0FBE8DBFC430D105D1F6DF91CF917E
:101B90001F910F91FF90EF90DF90CF9008950895DF
:101BA000FF920F931F93CF93DF93F82E092F162FD9
:101BB000D72FC42F222349F081E08093F2070E949F
:101BC000A7349093F1078093F0078091F207882360
:101BD00089F08091F0079091F1070E94B334069745
:101BE00048F0EF2DF02FA12FBD2F80E08C1308C0FF
:101BF0001092F207DF91CF911F910F91FF900895FE
:101C0000219131912D933D938F5FF0CF8554990BA6
:101C1000BC01990F880B990B0E949C4220E030E098
:101C200040E451E40E94F2419B01AC0160E070E0AD
:101C300080E090E40E945F4420E030E04CED53E40B
:101C40000E94F2430895FB018D312CE5920739F48F
:101C500082818823A1F10E944C1580E008958E3185
:101C60002CE5920731F48281882349F10E945C15AA
:101C7000F4CF8F312CE5920741F482818823F9F06B
:101C80000E9448158111F2CFE6CF8A322CE59207E7
:101C900069F48281882399F00E94751540E064E020
:101CA00070E087E493E00E94BE12D7CF8B329C4550
:101CB00031F48281882319F00E947E15EFCF81E0F4
:101CC00008950E94060E4FE050E00C94BB140E9451
:101CD000060E0C9401140C94B01308951F920F92E9
:101CE0000FB60F9211240BB60F924F925F926F9224
:101CF0007F928F929F92AF92BF92CF92DF92EF929C
:101D0000FF922F933F934F935F936F937F938F93A4
:101D10009F93AF93BF93EF93FF938091060888231F
:101D200009F4B1C1E0904808F09049081E141F045E
:101D30000CF0A9C121E0E216F10409F4DEC020E0B4
:101D400030E0A9016091F6077091F7078091F807DC
:101D50009091F9070E94E8418111B8C2F701EE0F96
:101D6000FF1FEE0FFF1FEC5EF74F80809180A28077
:101D7000B3808091AF03882309F49FC2C0903E08CE
:101D8000D0903F08E0904008F090410820E030E01B
:101D9000A901C701B6010E94E841882309F48DC258
:101DA000A5019401C701B6010E94E84187FF4EC218
:101DB000A501940160E070E08CED93EC0E94F2418B
:101DC00020E030E040E451E40E94F24120E030E0C5
:101DD00040E05FE30E94F2439B01AC0160E070E0F1
:101DE00080E090E40E945F44A50194010E94F243C8
:101DF0009B01AC01C701B6010E94E84187FF26C2E2
:101E0000A701960160E070E08CED93E40E94F2413E
:101E100020E030E040E451E40E94F24120E030E074
:101E200040E05FE30E94F2439B01AC0160E070E0A0
:101E300080E090E40E945F449B01AC01C701B601C1
:101E40000E94F24360933E0870933F0880934008DD
:101E50009093410860913E0870913F08809140083E
:101E6000909141082091F3073091F4072F3F3207FA
:101E700031F02F5F3F4F3093F4072093F3070E9418
:101E800087156B017C0120E034E244EF51E40E94AD
:101E9000E84187FF08C046EFC42E48E2D42E44EF45
:101EA000E42E41E4F42E20E030E040E051E4C701AC
:101EB000B6010E94F2439B01AC0160E074E284E74A
:101EC0009BE40E94F2416B017C010E946B42709383
:101ED0008700609386002091B0033091B103409158
:101EE000B2035091B303C701B6010E94F2430E94AE
:101EF0006B4270938900609388004090F607509081
:101F0000F7076090F8077090F907E0904808F090A4
:101F1000490820E030E0A901C301B2010E94ED436D
:101F200018160CF0D7C182E0E816F1040CF452C088
:101F30008091460890914708B7010E9412466C01B3
:101F4000909347088093460880900808909009086D
:101F5000A0900A08B0900B0820E030E040E85FE372
:101F6000C501B4010E947C41609308087093090880
:101F700080930A0890930B08F601EE0FFF1FEE0FF7
:101F8000FF1FE45EF74FA30192016081718182819E
:101F900093810E94F24120E030E040E05EE30E9445
:101FA000F2439B01AC01C501B4010E94ED43181638
:101FB0008CF4C6010196B7010E941246909347081F
:101FC00080934608109208081092090810920A0897
:101FD00010920B08E0914608F0914708EE0FFF1FA2
:101FE000EE0FFF1FE45EF74F608171818281938164
:101FF0002091F3073091F4072F3F320731F02F5F24
:102000003F4F3093F4072093F3070E9487156B012D
:102010007C0120E034E244EF51E40E94E84187FF74
:1020200008C086EFC82E88E2D82E84EFE82E81E41F
:10203000F82E20E030E040E051E4C701B6010E94F4
:10204000F2439B01AC0160E074E284E79BE40E94F0
:10205000F2416B017C010E946B4270939700609388
:1020600096002091B0033091B1034091B20350919A
:10207000B303C701B6010E94F2430E946B42709302
:1020800099006093980080910708882309F4F8C1AB
:10209000C0900208D0900308E0900408F090050872
:1020A00020E030E0A901C701B6010E94ED431816F7
:1020B0000CF0D5C18091F3079091F4078F3F9807FA
:1020C00029F001969093F4078093F307C701B601B6
:1020D0000E94871520E030E040E051E40E94F24386
:1020E0009B01AC0160E074E284E79BE40E94F24152
:1020F0006B017C010E946B42709397006093960085
:102100002091B0033091B1034091B2035091B303D9
:10211000C701B6010E94F2430E946B42709399007E
:10212000609398006091FC077091FD076F5F7F4F8F
:102130007093FD076093FC07E0909600F090970085
:1021400090E080E00E949A424B015C014090FE07C3
:102150005090FF076090000870900108EF2809F484
:1021600087C18091FB07811183C1609196007091B6
:10217000970090E080E00E949A429B01AC01C3016D
:10218000B2010E94F24120E03FEF4FE757E40E9486
:10219000F24320E030E040E85FE30E947B41A5018C
:1021A00094010E94E84118160CF46AC18091FA0764
:1021B0008F5F8093FA0720918109309182098217FD
:1021C000130638F080918809882309F462C11092BF
:1021D000FA07E0918309F09184099091FA078091C0
:1021E000FB0781118AC181E08093FB079150909396
:1021F000FA0748E0949F90011124E20FF31FC0807A
:10220000D180E280F3802085318542855385C701E6
:10221000B6010E94E841811167C110920208109234
:102220000308109204081092050880E090E0A0E8EE
:10223000BFE38093FE079093FF07A0930008B0933D
:1022400001081092FD071092FC071AC1A501940124
:10225000C701B6010E94ED4318167CF5A501940153
:1022600060E070E08CED93E40E94F24120E030E009
:1022700040E451E40E94F24120E030E040E05FE3BE
:102280000E94F2439B01AC0160E070E080E090E4CA
:102290000E945F44A50194010E94F2439B01AC019E
:1022A000C701B6010E94ED4318163CF4A701960140
:1022B00060E070E08CED93ECA9CD80923E089092A6
:1022C0003F08A0924008B0924108C4CD60E070E0A1
:1022D000CB01C8CDF701EE0FFF1FEE0FFF1FE85E29
:1022E000F74F80809180A280B3808091AF038823D4
:1022F00009F4ACC0C0904208D0904308E090440874
:10230000F090450820E030E0A901C701B6010E9425
:10231000E841882309F49AC0A5019401C701B601D8
:102320000E94E84187FF5BC0A501940160E070E076
:102330008CED93EC0E94F24120E030E040E451E467
:102340000E94F24120E030E040E05FE30E94F2436F
:102350009B01AC0160E070E080E090E40E945F448B
:10236000A50194010E94F2439B01AC01C701B60193
:102370000E94E84187FF33C0A701960160E070E04A
:102380008CED93E40E94F24120E030E040E451E41F
:102390000E94F24120E030E040E05FE30E94F2431F
:1023A0009B01AC0160E070E080E090E40E945F443B
:1023B0009B01AC01C701B6010E94F2436093420841
:1023C00070934308809344089093450860914208B5
:1023D00070914308809144089091450809CEA50169
:1023E0009401C701B6010E94ED4318167CF5A501C2
:1023F000940160E070E08CED93E40E94F24120E0F3
:1024000030E040E451E40E94F24120E030E040E05E
:102410005FE30E94F2439B01AC0160E070E080E06A
:1024200090E40E945F44A50194010E94F2439B0145
:10243000AC01C701B6010E94ED4318163CF4A70198
:10244000960160E070E08CED93EC9CCF80924208A6
:1024500090924308A0924408B0924508B7CF1092DA
:1024600097001092960010929900109298005ACE00
:10247000A3019201C501B4010E94ED4387FF96CEEE
:102480008091850980FD11C01092070810920608FE
:102490000CC0809171008D7F8093710080919000BD
:1024A0008F738093900010920708FF91EF91BF9176
:1024B000AF919F918F917F916F915F914F913F91DC
:1024C0002F91FF90EF90DF90CF90BF90AF909F90B3
:1024D0008F907F906F905F904F900F900BBE0F90FA
:1024E0000FBE0F901F901895C0920208D09203085B
:1024F000E0920408F092050898CE1092FB07109223
:10250000F4071092F30728E0929FC0011124E80F0E
:10251000F91F80819181A281B381809302089093F9
:102520000308A0930408B093050820E030E040E8D9
:102530005EE364817581868197810E94F2436B011D
:102540007C016091B40370E090E080E00E949A42C8
:1025500020E030E048EC52E40E94F2419B01AC01E3
:10256000C701B6010E94F2436093FE077093FF0714
:10257000809300089093010864CE1895CF92DF9263
:10258000EF92FF92CF93DF93EC016B01F42E8091D9
:10259000F507811102C00E943F138091850980FFD9
:1025A00067C0809171008D7F8093710080916F0072
:1025B0008D7F80936F008091060881110E94B01377
:1025C00081E080930708D0938409C0938309D09257
:1025D0008209C0928109F09288091092080810922D
:1025E000090810920A0810920B081092FA078881C5
:1025F0009981AA81BB818093020890930308A093DC
:102600000408B093050820E030E040E85EE36C8108
:102610007D818E819F810E94F2436B017C016091DC
:10262000B40370E090E080E00E949A4220E030E045
:1026300048EC52E40E94F2419B01AC01C701B60193
:102640000E94F2436093FE077093FF078093000897
:10265000909301081092FD071092FC078091710081
:1026600082608093710080919000806880939000D8
:10267000DF91CF91FF90EF90DF90CF9008950F936F
:102680001F93CF93DF930E944233811102C00E94B7
:10269000BE330E946333809385098091F5078111D1
:1026A0004BC03E9A809171008D7F80937100259A76
:1026B00080916F008D7F80936F0002E00093900007
:1026C0001AE110939100C1ECD1E1D0939700C0932F
:1026D000960023EA3BE04EE855E46091B003709128
:1026E000B1038091B2039091B3030E94F2430E9420
:1026F0006B42709399006093980000938000109350
:102700008100D0938700C093860023EA3BE04EE827
:1027100055E46091B0037091B1038091B203909140
:10272000B3030E94F2430E946B427093890060934E
:10273000880081E08093F5078091850980FF0BC0B8
:1027400040E065E070E087E893E0DF91CF911F9172
:102750000F910C94BE12DF91CF911F910F910895AC
:102760008091590980FF08C08FEB93E09F938F936E
:102770000E9449050F900F908091F507811102C0CA
:102780000E943F13109249081092480880917100EE
:102790008D7F80937100809190008F738093900063
:1027A00080916F008D7F80936F00809180008F7388
:1027B0008093800010920708109206081092420839
:1027C00010924308109244081092450810923E0857
:1027D00010923F08109240081092410810923D0854
:1027E00010923C08ECE1F8E0ACE0B8E011921192F4
:1027F000119211921D921D9288E0EC33F807B1F707
:102800000895CF92DF92EF92FF920F931F93CF9391
:10281000DF936B017C018091590980FF0FC0C701D4
:102820000E9464427F936F9387EA93E09F938F9314
:102830000E9449050F900F900F900F90809106080D
:10284000882309F471C08091F507811102C00E94AC
:102850003F130CE118E0C7E0D0E0A7019601F801B2
:10286000648D758D868D978D0E94E841811176C0AB
:10287000FE01EE0FFF1FEE0FFF1FE45EF74F108209
:10288000118212821382CC0FDD1FC45FD74F1982D1
:10289000188288E0E833F80709F04FC080914808B3
:1028A00090914908019797FD61C0909349088093E2
:1028B0004808809148089091490820914608309135
:1028C00047082817390724F0109247081092460845
:1028D000892B51F5809171008D7F809371008091DB
:1028E00090008F738093900080916F008D7F809314
:1028F0006F00809180008F73809380001092420857
:1029000010924308109244081092450810923E0815
:1029100010923F08109240081092410810923D0812
:1029200010923C0810920608DF91CF911F910F91F1
:10293000FF90EF90DF90CF90089584819581A681DC
:10294000B78181939193A193B193108211821282E6
:1029500013828A819B818993999399CF21970450FF
:102960001109CF3FDC0709F078CF98CF10924908C2
:10297000109248089ECFCF92DF92EF92FF92CF93B2
:10298000DF936B017C01D42FC52F8091590980FF03
:1029900013C05F934F93C7010E9464427F936F936C
:1029A00088E893E09F938F930E9449050F900F90C2
:1029B0000F900F900F900F908091F507811102C03A
:1029C0000E943F138091850980FF5BC08091480879
:1029D0009091490808970CF054C0809171008D7F48
:1029E0008093710080916F008D7F80936F00809144
:1029F000070881110E94B01381E0809306081092AD
:102A0000F4071092F30720E030E0A901C701B601F6
:102A10000E94ED431816DCF4809148089091490813
:102A2000FC01EE0FFF1FEE0FFF1FE45EF74FC082A9
:102A3000D182E282F382FC01EE0FFF1FE45FF74FC9
:102A4000D083C18301969093490880934808809170
:102A50007100826080937100809190008068809303
:102A600090008091480890914908029754F0809115
:102A70006F00826080936F008091800080688093F7
:102A80008000DF91CF91FF90EF90DF90CF9008957D
:102A90008091850981700895809185098160809376
:102AA00085090E9467330E946D0E40E062E070E08D
:102AB00087E793E00C94BE1240E062E070E087E6A6
:102AC00093E00E94BE122FEF81EE94E021508040EF
:102AD0009040E1F700C000000E94B013809185098A
:102AE0008E7F809385090C94673380914A0890E02B
:102AF00001968770992780934A08089580914A0823
:102B000090E007968770992780934A0808958F92DE
:102B10009F92AF92BF92CF92DF92EF92FF92CF93AC
:102B2000DF936B017C01C091F307D091F407BE01E4
:102B300090E080E00E949A424B015C01A70196015F
:102B400060E070E08CE594E40E94F2419B01AC01EE
:102B5000C501B4010E94F2430E946B429B01E091C7
:102B60004A08E830D8F4F0E0EF5AF84B0C942646C7
:102B70001092AF0380E090E0A0E0BFE38093B00349
:102B80009093B103A093B203B093B3031092F607EE
:102B90001092F7071092F8071092F907C701B601D3
:102BA000DF91CF91FF90EF90DF90CF90BF90AF90EB
:102BB0009F908F9008951092AF031092F607109295
:102BC000F7071092F8071092F9076431710580F445
:102BD0006A30710580F080E090E0A0E8BEE3809369
:102BE000B0039093B103A093B203B093B303D6CFD5
:102BF000693C710580F380E090E0A0E0BEE3EFCF98
:102C00001092AF031092F6071092F7071092F80790
:102C10001092F90720E030E040EA52E4C701B60123
:102C20000E94E84187FDBACF20E030E040E253E463
:102C3000C701B6010E94E84187FF3EC00E947A4664
:102C400068E270E00E941246BC01645C7F4F072E70
:102C5000000C880B990B0E949C426B017C018091B7
:102C6000F3079091F4078B30910508F185319105B8
:102C700008F04AC065E170E0681B790B90E080E0E5
:102C80000E949A4220E030E040E05FE30E94F2437D
:102C900020E030E040E251E40E94F2416093B00352
:102CA0007093B1038093B2039093B30377CF80E026
:102CB00090E0A0E0BFE393CF20E030E040EA53E4AF
:102CC000C701B6010E94E84187FF27C00E947A46EB
:102CD00068EE73E00E941246BC0168517C4F072EDB
:102CE000000C880B990B0E949C426B017C01809127
:102CF000F3079091F40786309105C8F265E170E022
:102D00008531910508F46BC01092B0031092B103A5
:102D10001092B2031092B30341CF20E030E040E2C2
:102D200054E4C701B6010E94E84187FF2FC00E940A
:102D30007A4660ED77E00E941246BC016854744FF9
:102D4000072E000C880B990B0E949C426B017C01A2
:102D50008091F3079091F4078031910508F4A7CF93
:102D60008531910588F665E170E0681B790B90E08C
:102D700080E00E949A4220E030E040E05FE30E9461
:102D8000F24320E030E040EA50E486CF20E030E03B
:102D900040EA54E4C701B6010E94E84187FFFECE35
:102DA0000E947A4660ED77E00E941246BC016854AA
:102DB000744F072E000C880B990B0E949C426B01EC
:102DC0007C018091F3079091F4078432910508F417
:102DD0006ECF8333910508F097CF63E370E0681BF3
:102DE000790B90E080E00E949A4220E030E040E0E1
:102DF0005FE30E94F24320E030E040E751E44CCF33
:102E000041E04093AF031092F6071092F70710923B
:102E1000F8071092F9076431710540F46A307105C2
:102E200060F120E030E040E05FE32BC0693C7105D9
:102E300008F06ACF90E080E00E949A4220E030E003
:102E400040EA51E40E947B4120E030E044E353E457
:102E50000E94F2419B01AC010E94F24320E030E06D
:102E600040E05EE30E94F2439B01AC0160E070E051
:102E700080E09EE30E947B4111CF20E030E040E8FB
:102E80005EE3C701B6010E94F2436B017C01B3CE41
:102E900021E02093AF031092F6071092F7071092EB
:102EA000F8071092F9074AE0469F9001479F300DBE
:102EB0001124C90168EB7BE00E94FE45BC016C5DFA
:102EC000754077FF03C0719561957109072E000C5D
:102ED000880B990B0E949C422EE333EC4EE259E39F
:102EE0000E94F24320E030E040EC5EE30E947C412F
:102EF000D5CE81E08093AF031092F6071092F707CA
:102F00001092F8071092F907CE0183709927892B48
:102F100009F1BE016170772790E080E00E949A423B
:102F200020E030E040E05EE30E94F24320E030E049
:102F300040E45FE30E947C416093B0037093B1036F
:102F40008093B2039093B303C770DD27CD2B09F0B4
:102F500025CEDACE80E090E0A0E0BFE38093B0031E
:102F60009093B103A093B203B093B303EDCF41E0CC
:102F70004093AF031092F6071092F7071092F807EC
:102F80001092F907812C912CA12C9FE3B92E8092ED
:102F9000B0039092B103A092B203B092B303273969
:102FA000310508F4FBCD90E080E00E949A4220E0D9
:102FB00030E047E153E40E947B4120E030E04AE703
:102FC00054E40E94F24120E030E048E452E40E94E0
:102FD000F24320E030E040EA51E40E94E2420E94E5
:102FE0006442660F771F660F771F6C5A784FFB019C
:102FF0002081318142815381C701B6010E94F24391
:103000006B017C01CBCD20E8482F60E089EF9AE08E
:103010000C947B3520E0482F60E089EF9AE00C9417
:103020008B3520E04BE760E089EF9AE00C946B353C
:1030300089EF9AE00C947A37CF93C82F8091630878
:10304000882319F08C2F0E94610E809162088823DA
:1030500021F08C2FCF910C940318CF910895CF932A
:10306000C82F80916308882319F08C2F0E94670E67
:1030700080916208882321F08C2FCF910C940A183C
:10308000CF9108958091630881110E946B0E809109
:10309000620881110C94111808950C94F2060E9494
:1030A00042181092630840E068E070E085E394E025
:1030B0000C94BE120E9411181092620840E068E061
:1030C00070E085EB93E00C94BE120E9442182091B0
:1030D000570530E02F5F3F4F23703327209357056C
:1030E00048E2429FC001439F900D112440E065E0FB
:1030F00070E08B549B4F0C94BE12CF9380915F086D
:103100008823F1F080914B0890914C08009779F456
:103110000E94A73490934C0880934B0880914D08EF
:10312000282F30E0882371F0C90101970FC00E9459
:10313000B33420915505309156052817390740F3CF
:10314000CF91089580914E088150990B215B374FA4
:10315000F901C081815B974FFC0180810E942F188B
:103160008C2F0E941C1880914D0890E00196609170
:103170004E0870E00E94124680934D08E1CF0895FA
:1031800081E08093630840E068E070E085E794E0C8
:103190000E94BE120C94BF18089581E080936208CB
:1031A00040E068E070E085EF93E00E94BE120C946E
:1031B000CC18EF92FF921F93CF93DF93CDB7DEB77A
:1031C000A3970FB6F894DEBF0FBECDBF7C01863249
:1031D0003CE59307A9F4DB0112968C91882309F44E
:1031E00058C00E94C01880E0A3960FB6F894DEBFC6
:1031F0000FBECDBFDF91CF911F91FF90EF9008954B
:103200008732BCE59B0741F4FB018281882309F4E6
:1032100040C00E944F18E7CF8832FCE59F0751F469
:1032200080916308DB0112969C91992391F18111A1
:10323000F0CFD7CF8C32BCE59B0739F4FB018281FC
:10324000882339F10E94CD18CECF8D32FCE59F073F
:1032500041F4DB0112968C918823D9F00E945A1810
:10326000C2CF8E32BCE59B0749F4FB0182818823E3
:1032700081F0809162088111F1CFE4CF89329C45C1
:1032800041F4DB0112968C91882319F00E94651895
:10329000AACF80916308811105C0809162088823BC
:1032A00009F4D5C0FB012281222309F450C0F0EEBD
:1032B000EF16F10461F40E94421881E080936108E6
:1032C0001092600810925F0810924E088CCF32EE78
:1032D000E316F10471F40E9442188091610888237A
:1032E00019F081E0809360081092610810925F08E5
:1032F0007ACF83EEE816F10491F480916008882378
:1033000031F10E9442181092610881E080935F08B9
:1033100010924D0810924C0810924B0864CF92E521
:10332000E916F10451F480915505909156050A97DC
:10333000909356058093550556CFA1E5EA16F10402
:1033400031F480915505909156050A96F1CF809100
:10335000570510915A05811111C0135080915805DD
:10336000180FFB018081180F318184E090E0831BEE
:103370009109FCE08F9F100D112414C0813061F57C
:10338000105E80915805180FDB018C91180F119673
:103390003C9184E090E0831B9109982F990F990F3D
:1033A000890F180F812F222309F44EC00E941C1888
:1033B00080916108882351F080914E08E82FF0E059
:1033C000E15BF74F10838F5F80934E08C7010E9427
:1033D0004D1891E0892708CF823071F4105E8091FA
:1033E0005805180FFB018081180F318184E090E0AF
:1033F000831B9109F7E0BECF8330A1F683E2E9E9B0
:10340000F5E0DE01119601900D928A95E1F7DB015E
:10341000EC9181E090E08C0F9D1F8E0F911DFC01BF
:103420008091580590915905E80FF91F135080813C
:10343000180F11963C9184E090E0831B9109ACE059
:103440008A9F100D1124AECF0E942F18BFCF81E0AC
:10345000CBCECF92DF92EF92FF920F931F93CF9339
:10346000DF93E82FF82F71110BC0682F782FDF91B1
:10347000CF911F910F91FF90EF90DF90CF90089523
:10348000262F30E0C72FD0E0082F10E0C9016BE2F3
:1034900070E00E94FE454BE2469FC001479F900DA1
:1034A0001124281B390B86E0829F7001839FF00C4A
:1034B00011242FEF30E0C9018C1B9D0BD8018A9F8E
:1034C000A0018B9F500D9A9F500D1124952FCE9DDA
:1034D0008001CF9D100DDE9D100D1124012F1127AD
:1034E0006901C01AD10ACA9E8001CB9E100DDA9ED6
:1034F000100D1124812F6901CE18DF08CC9E7001B8
:10350000CD9EF00CDC9EF00C1124EF2CFF242E1924
:103510003F092A9FE0012B9FD00D3A9FD00D112427
:1035200062307105F9F0A8F461157105F9F06130A8
:103530007105F9F0F0E0EA5BFA4F6491E92FF0E0F1
:10354000EA5BFA4F7491E82FF0E0EA5BFA4F84915E
:103550008ECF6330710581F06430710559F78E2F7D
:10356000ED2FE8CF8D2FE52F9F2FE4CF852F9D2FB7
:10357000E1CFE12F852FF8CFE52F912F8F2FDACFD5
:1035800088E090E00C949146AB01BC0188E090E0AB
:103590000C94AF468091590980FF08C082E295E003
:1035A0009F938F930E9449050F900F908FE0809317
:1035B000890910928A098FEF80938B0980938C0977
:1035C00010928D096091890970918A0980918B0907
:1035D00090918C090C94C41A8091590980FF83C082
:1035E00089E095E09F938F930E9449058091590946
:1035F0000F900F9080FF77C08091890981701F9292
:103600008F938AEE94E09F938F930E944905809157
:1036100059090F900F900F900F9080FF64C0809118
:10362000890986958F731F928F938DEC94E09F93F9
:103630008F930E944905809159090F900F900F9028
:103640000F9080FF50C090918909292F221F2227B7
:10365000221F80918A09982F990F922B87FB882728
:1036600080F98F939F9381EB94E09F938F930E94B7
:103670004905809159090F900F900F900F9080FF8E
:1036800032C080918B091F928F9385E994E09F93BC
:103690008F930E944905809159090F900F900F90C8
:1036A0000F9080FF20C080918C091F928F9389E733
:1036B00094E09F938F930E944905809159090F9040
:1036C0000F900F900F9080FF0EC080918D091F9278
:1036D0008F938BE594E09F938F930E9449050F9001
:1036E0000F900F900F900895CF93DF93F901108200
:1036F000ACEBB5E090E02C91322F3F7038130CC04A
:1037000022952F70261308C0C081C40FD52FD11D5C
:10371000988320812F5F20839F5F1496913359F700
:10372000DF91CF910895E091AA07F091AB0709943A
:10373000E091A607F091A7070994E091A807F091FE
:10374000A907099480939F08089540E060E080E015
:103750000C949D1BE9E8F9E06081862F881F88277B
:10376000881F60918A09660F682B728183810E948D
:10377000291A962F672F482F892F0C949D1BAF92E3
:10378000BF92CF92DF92EF92FF920F931F93CF934E
:10379000DF9360918909862F881F8827881F609191
:1037A0008A09660F682B70918B0980918C090E94A1
:1037B000291AF62EE72ED82E20918909221F2227BA
:1037C000221F30918A09432F440F842F822B37FB0D
:1037D000992790F98C549F4F68E671E00E94124639
:1037E00070918B09682F80918C090E94291AC62E2E
:1037F000B72EA82E0CEB15E0D0E0C0E0F8018381D5
:103800000C5F1F4F90819F3F59F02A2D4B2D6C2D3F
:1038100080FD03C02D2D4E2D6F2DCE010E94981BD3
:103820002196C133D10551F7DF91CF911F910F91AF
:10383000FF90EF90DF90CF90BF90AF900895DF9210
:10384000EF92FF920F931F93CF93DF93809189099B
:10385000881F8827881F90918A09492F440F242F99
:10386000282B97FB332730F9C9018C549F4F68E60A
:1038700071E00E941246821B930B803891050CF474
:103880004BC09A9597FD0396959587959595879545
:10389000C82F80918B09281B310937FF02C02D5F8B
:1038A0003F4F3595279535952795D22FD0908C0988
:1038B0009CEBE92E95E0F92E10E000E0F701828103
:1038C00082958F7060918909962F991F9927991F6A
:1038D00060918A09660F692B8C9F600D112470918D
:1038E0008B098D9F700D11248D2D0E94291A472F51
:1038F000282FC8010E94981B0F5F1F4FF4E0EF0EA6
:10390000F11C01331105D1F6DF91CF911F910F9179
:10391000FF90EF90DF90089581384FEF94070CF0FF
:10392000B1CF9395AFCFBF92CF92DF92EF92FF923C
:103930000F931F93CF93DF93F82ED0918909DD1F4A
:10394000DD27DD1F80918A09982F990FD92B87FBDE
:10395000882780F92D2F382FC9018C549F4F68E696
:1039600071E00E941246821B930B97FD039695957A
:10397000879595958795C82FE0908B0960918D0963
:103980008AE090E0A0E0B0E0662349F070E08AE0D1
:1039900090E00E941246CB01770FAA0BBB0B40911F
:1039A0009B0850919C0860919D0870919E0884230B
:1039B0009523A623B723892B8A2B8B2BA1F50E9455
:1039C0007A4661E370E00E941246D12CC12C082F88
:1039D00010E0F11003C00C151D05A1F40E947A46F9
:1039E0008370BD2E8C9FB00C11240E947A466B2DE3
:1039F0007E2D80918C090E94291A472F282FC601FD
:103A00000E94981B8FEFC81AD80A81E3C816D10408
:103A100001F7DF91CF911F910F91FF90EF90DF9011
:103A2000CF90BF9008958FEFD0CFDF92EF92FF92AB
:103A30000F931F93CF93DF9320918D0980919B0863
:103A400090919C08A0919D08B0919E0804C0880F99
:103A5000991FAA1FBB1F2A95D2F7D82E8CEBE82EF0
:103A600085E0F82ED0E0C0E00FE310E0F7018081A0
:103A70008F3FD1F0FE01E257F64F8081F4E08F9F37
:103A8000C0011124B801681B790B803491050CF03A
:103A900060E06D0D7FEF80918C090E94291A472FFD
:103AA000282FCE010E94981B219624E0E20EF11CE3
:103AB000C133D105D9F6DF91CF911F910F91FF90BE
:103AC000EF90DF900895CF92DF92EF92FF920F93E5
:103AD0001F93CF93DF9320918D0980919B08909144
:103AE0009C08A0919D08B0919E0804C0880F991F62
:103AF000AA1FBB1F2A95D2F7D82EC0908C090CEBB9
:103B000015E0D0E0C0E08FE3E82EF12CF8018081D1
:103B10008F3FE1F0FE01E257F64F8081F4E08F9F86
:103B2000C00111248034910504F59701281B390B3D
:103B3000C901F80161816D0D680F7FEF8C2D0E9426
:103B4000291A472F282FCE010E94981B21960C5F1F
:103B50001F4FC133D105D1F6DF91CF911F910F9146
:103B6000FF90EF90DF90CF90089580E0E2CFCF926A
:103B7000DF92EF92FF920F931F93CF93DF932091E9
:103B80008D0980919B0890919C08A0919D08B0910F
:103B90009E0804C0880F991FAA1FBB1F2A95D2F741
:103BA000D82EC0908C090CEB15E0D0E0C0E08FE37C
:103BB000E82EF12CF80180818F3FE1F0FE01E25701
:103BC000F64F8081F4E08F9FC0011124803491056D
:103BD00004F59701281B390BC901F80162816D0DAD
:103BE000680F7FEF8C2D0E94291A472F282FCE01B6
:103BF0000E94981B21960C5F1F4FC133D105D1F64F
:103C0000DF91CF911F910F91FF90EF90DF90CF90B8
:103C1000089580E0E2CF2F923F924F925F926F9291
:103C20007F928F929F92AF92BF92CF92DF92EF924C
:103C3000FF920F931F93CF93DF9330908B092090C7
:103C40008C0960919B0870919C0880919D089091CF
:103C50009E080E949A422BED3FE049E450E40E9406
:103C6000F24320E030E040E05CE30E94F2436B016D
:103C70007C010E94ED4120E030E040E05DE30E94E5
:103C8000F2432B013C01C701B6010E94AF4420E082
:103C900030E040EE52E40E94F2414B015C01CCEB7B
:103CA000D5E010E000E06A8170E090E080E00E94E2
:103CB0009C4220E030E040E052E40E947B41A301BE
:103CC00092010E94F2436B017C01698170E090E0F7
:103CD00080E00E949C4220E030E040EE52E40E94EE
:103CE0007B41A50194010E94F2439B01AC01C701F5
:103CF000B6010E947C4120E030E044E353E40E949E
:103D0000F2436B017C0180918909881F8827881FF5
:103D100090918A09292F220F622F682B97FB772712
:103D200070F9072E000C880B990B0E949C429B0196
:103D3000AC01C701B6010E947C410E946B42732D09
:103D4000822D0E94291A472F282FC8010E94981BF4
:103D50000F5F1F4F24960133110509F0A4CFDF91A7
:103D6000CF911F910F91FF90EF90DF90CF90BF9078
:103D7000AF909F908F907F906F905F904F903F900B
:103D80002F9008952F923F924F925F926F927F9261
:103D90008F929F92AF92BF92CF92DF92EF92FF925B
:103DA0000F931F93CF93DF9300D000D000D00F92DA
:103DB000CDB7DEB720908B0980918C098D836091FF
:103DC0009B0870919C0880919D0890919E080E948C
:103DD0009A422BED3FE049E450E40E94F24320E098
:103DE00030E040E05CE30E94F2436B017C010E9402
:103DF000ED412B013C01C701B6010E94AF4469832C
:103E00007A838B839C83ECEBF5E0FF83EE8310E0F9
:103E100000E0EE81FF813180B28060918D09C12C7C
:103E2000D12C80ECE82E8FE3F82E662369F070E049
:103E300090E080E00E949C4220E030E040EC5FE3B4
:103E40000E94F2436B017C016B2D70E090E080E0FA
:103E50000E949C4220E030E040E052E40E947B411E
:103E6000A70196010E94F243A30192010E94F2432E
:103E70004B015C01632D70E090E080E00E949C4269
:103E800020E030E040EE52E40E947B41A701960121
:103E90000E94F24329813A814B815C810E94F24366
:103EA0009B01AC01C501B4010E947C416B017C0106
:103EB00080918909881F8827881F90918A09292F56
:103EC000220F622F682B97FB772770F9072E000CC3
:103ED000880B990B0E949C429B01AC01C701B60163
:103EE0000E947C410E946B42722D8D810E94291A92
:103EF000472F282FC8010E94981B0F5F1F4F8E81EC
:103F00009F8104969F838E830133110509F081CF31
:103F100027960FB6F894DEBF0FBECDBFDF91CF91CD
:103F20001F910F91FF90EF90DF90CF90BF90AF90D7
:103F30009F908F907F906F905F904F903F902F90C9
:103F400008952F923F924F925F926F927F928F923D
:103F50009F92AF92BF92CF92DF92EF92FF920F9318
:103F60001F93CF93DF9300D000D00F92CDB7DEB771
:103F700020918B092A8380918C098B8360919B0807
:103F800070919C0880919D0890919E080E949A4291
:103F90002BED3FE049E450E40E94F24320E030E0A2
:103FA00040E05CE30E94F2436B017C010E94ED4122
:103FB0002B013C01C701B6010E94AF444B015C01DB
:103FC000ECEBF5E0FD83EC8310E000E0EC81FD819B
:103FD000F181F983EC81FD81328020908D09C12C23
:103FE000D12CE12C20E4F22E222061F0622D70E031
:103FF000660F771F072E000C880B990B0E949C42BE
:104000006B017C01632D70E090E080E00E949C4297
:1040100020E030E040E052E40E947B41A70196019D
:104020000E94F243A30192010E94F2436B017C01C2
:10403000222009F47CC0312C220C331CF9816F2F13
:1040400070E090E080E00E949C4220E030E040EE92
:1040500052E40E947B410E9464429B0177FF04C0AE
:1040600022273327261B370B82E490E0821B930B19
:10407000829DB001839D700D929D700D1124072EBD
:10408000000C880B990B0E949C42A50194010E9490
:10409000F243A70196010E947C416B017C01809153
:1040A0008909881F8827881F90918A09292F220F44
:1040B000622F682B97FB772770F9072E000C880B6F
:1040C000990B0E949C429B01AC01C701B6010E9462
:1040D0007C410E946B427A818B810E94291A472F72
:1040E000282FC8010E94981B0F5F1F4F8C819D8154
:1040F00004969D838C830133110509F067CF0F90DF
:104100000F900F900F900F90DF91CF911F910F9113
:10411000FF90EF90DF90CF90BF90AF909F908F90E7
:104120007F906F905F904F903F902F90089582E026
:10413000282E312C83CF2F923F924F925F926F9215
:104140007F928F929F92AF92BF92CF92DF92EF9227
:10415000FF920F931F93CF93DF9300D00F92CDB7B1
:10416000DEB720908B0980918C09898360919B0830
:1041700070919C0880919D0890919E080E949A429F
:1041800020E030E040E85BE30E94F24320E030E0D2
:1041900040E653E40E94F2432B013C01ECEBF5E0D6
:1041A000FB83EA8310E000E0EA81FB813180B2808A
:1041B00060918D09C12CD12C80ECE82E8FE3F82E74
:1041C000662369F070E090E080E00E949C4220E06D
:1041D00030E040EC5FE30E94F2436B017C016B2D09
:1041E00070E090E080E00E949C4220E030E040E0FF
:1041F00052E40E947B410E9464429B0177FF04C00D
:1042000022273327261B370BB901330F880B990B55
:104210000E949C42A70196010E94F2432EE23DEBD0
:104220004BEB53EB0E94F2434B015C01632D70E0BA
:1042300090E080E00E949C42A30192010E947B4199
:10424000A70196010E94F2439B01AC01C501B40194
:104250000E947B416B017C0180918909881F88271E
:10426000881F90918A09292F220F622F682B97FBB4
:10427000772770F9072E000C880B990B0E949C423F
:104280009B01AC01C701B6010E947C410E946B42B8
:10429000722D89810E94291A472F282FC8010E9458
:1042A000981B0F5F1F4F8A819B8104969B838A8393
:1042B0000133110509F078CF0F900F900F90DF9127
:1042C000CF911F910F91FF90EF90DF90CF90BF9013
:1042D000AF909F908F907F906F905F904F903F90A6
:1042E0002F900895EF92FF920F931F93CF93DF9338
:1042F000F82E60918D098AE090E0A0E0B0E066239E
:1043000049F070E08AE090E00E941246CB01770FFE
:10431000AA0BBB0B40919B0850919C0860919D0893
:1043200070919E0884239523A623B723892B8A2B7B
:104330008B2B59F50E947A4661E370E00E94124689
:1043400010E000E0C82FD0E0F11003C0C017D10783
:1043500081F40E947A46E82E0E947A466E2D782FCC
:1043600080918C090E94291A472F282FC8010E948A
:10437000981B0F5F1F4F0133110531F7DF91CF916C
:104380001F910F91FF90EF9008958FEFD9CF6F920B
:104390007F928F929F92AF92BF92CF92DF92EF92D5
:1043A000FF920F931F93CF93DF9300D0CDB7DEB76B
:1043B000882371F040E060E080E00E949D1BE6E60B
:1043C000F8E080E3DF011D928A95E9F71092650815
:1043D00086E6E82E88E0F82E812C77247A9490EDFA
:1043E000C92ED12C20EC622E3FE2A32EB12C8701E6
:1043F000912C80916508892909F06DC00E947A4648
:10440000853595400CF067C0F70170829E012F5FE3
:104410003F4FAE014E5F5F4F682D892D0E94741B88
:10442000F80121918F01EA81213D08F45CC0205DF3
:10443000330B629EC001639E900D1124B5010E9452
:10444000FE45262F4FEF8E2F90E00E94981B9394ED
:10445000F4E09F12CECF839424E0E20EF11C8CE0B6
:104460008812C5CF809165088F5F8D3108F445C0F3
:104470001092650828E638E083E066E978E09EEF70
:10448000D901E6E6F8E0833021F443814F3F09F497
:1044900093834C914F3F21F49C9311964C93119729
:1044A000349614966E177F0771F7815021503109A9
:1044B0008111E6CF0F900F90DF91CF911F910F9157
:1044C000FF90EF90DF90CF90BF90AF909F908F9034
:1044D0007F906F900895D8018C9181508E3F08F0A5
:1044E00095CF8C9393CF279DC0011124B6010E94D4
:1044F000FE45462F20E060E0A6CF80936508DACF26
:10450000089508950E9480220C948122CF93DF9316
:10451000E0918909E0FD0CC00E94A51B0E94822247
:1045200080918909817080935C05DF91CF91089516
:1045300080916408843120F48F5F80936408F5CF04
:1045400080919B0890919C08A0919D08B0919E0835
:104550000196A11DB11D80939B0890939C08A09388
:104560009D08B0939E088091970890919808A0911B
:104570009908B0919A088F3F2FEF9207A207B207D0
:1045800059F00196A11DB11D80939708909398084A
:10459000A0939908B0939A0880919608AEE8B9E084
:1045A0009D919F3F51F09E3F21F4811101C081E018
:1045B0008150ED0121979F5F988399E0AF3BB90748
:1045C00079F780939608E695EF7380915B058E13DB
:1045D00014C081E090915C05913009F480E0817015
:1045E000E0935B0591E090935C05E150ED3048F479
:1045F000F0E0E75AF84B0C94264681E0F0CF0E9499
:10460000AA1BDF91CF910C9482220E94BF1BF9CF8D
:104610000E940B1EF6CF0E941F1CF3CF0E94931C1A
:10462000F0CF0E94151DEDCF0E94631DEACF0E94BE
:10463000B71DE7CF0E94C21EE4CF0E94A11FE1CFA9
:104640000E949B20DECF0E947221DBCF0E94C721F7
:10465000D8CFE091A407F091A5070995EEE8F9E01D
:104660008FEF819399E0EF3BF907D9F70E9442332E
:10467000811110C08091590980FF08C089E294E03F
:104680009F938F930E9449050F900F900E94BE3315
:104690000E94CA1A0E94C01A6093890970938A09FD
:1046A00080938B0990938C096E77C1F4809159099E
:1046B00080FF08C084ED93E09F938F930E9449058B
:1046C0000F900F900E94CA1A0E94C01A6093890925
:1046D00070938A0980938B0990938C090C94EC1A3F
:1046E000E9E8F9E09081892F8E7F90FF81608083D7
:1046F00060817181828193810C94C41A80918909AF
:10470000982F96959F5F9F7381789E3070F4990FD4
:10471000892B809389096091890970918A09809118
:104720008B0990918C090C94C41A8260F2CF9091FD
:104730008909892F8695815C8F73880F9178892BE1
:1047400080938909982F9E7721F481788A618093DC
:1047500089096091890970918A0980918B099091EA
:104760008C090C94C41A80918909982F991F992754
:10477000991F80918A09880F892B90E008968F3FB6
:10478000910519F014F08FEF90E02091890980FBDA
:1047900027F920938909282F269580918A09807806
:1047A000822B90FB87F980938A0960918909709127
:1047B0008A0980918B0990918C090C94C41A80917C
:1047C0008909982F991F9927991F80918A09880F25
:1047D000892B8850990B97FF02C090E080E02091D0
:1047E000890980FB27F920938909282F2695809134
:1047F0008A098078822B90FB87F980938A096091DF
:10480000890970918A0980918B0990918C090C9487
:10481000C41A80918B0990E008968F3F910519F09A
:1048200014F08FEF90E080938B096091890970916B
:104830008A0980918B0990918C090C94C41A8091FB
:104840008B098850990B97FD80E080938B096091CC
:10485000890970918A0980918B0990918C090C9437
:10486000C41A80918C0990E008968F3F910519F049
:1048700014F08FEF90E080938C096091890970911A
:104880008A0980918B0990918C090C94C41A8091AB
:104890008C098850990B97FD80E080938C0960917A
:1048A000890970918A0980918B0990918C090C94E7
:1048B000C41A80918D0990E001968430910514F01E
:1048C00083E090E080938D096091890970918A0955
:1048D00080918B0990918C090C94C41A80918D0958
:1048E0008150990B97FF02C090E080E084309105E1
:1048F00014F083E090E080938D09609189097091B4
:104900008A0980918B0990918C090C94C41AE9E86A
:10491000F9E08F73982F990F80818178892B80839C
:1049200060817181828193810C94C41A66E784E767
:104930000C943126CF930E94682684E70E94E324DA
:1049400086E70E94E324C0E021E041E061E08C2F93
:104950000E947525CF5FC133B9F766E784E7CF9131
:104960000C944426EFEDFAE06083418324E630E0C6
:1049700042E050E0BF01880F0C941C270F931F9357
:10498000CF93DF93082F000FEB0114E21093DF0A9F
:10499000E0EEFAE0DE018D9181938AE0E03FF807D6
:1049A000D1F724E630E041E150E06FED7AE0802F6E
:1049B0000E941C27105F6096143B41F7DF91CF9156
:1049C0001F910F910895CF93DF93C82F4BE06DEFA8
:1049D0000E94B22440E06AE08C2F0E94B2248FE350
:1049E0009CE90197F1F700C0000040E060E08C2FE7
:1049F0000E94B22440E061E08C2F0E94B22440E08B
:104A000066E08C2F0E94B22440E06DEF8C2F0E9454
:104A1000B224D0E040E06D2F8C2F0E94B224DF5FE3
:104A2000D231C1F740E06D2F8C2F0E94B224DF5F9E
:104A3000D432C1F740E06D2F8C2F0E94B224DF5F8B
:104A4000D43BC1F74BE06DEF8C2F0E94B22441E0C4
:104A50006AE08C2F0E94B22440E06DEF8C2FDF9132
:104A6000CF910C94B2248133910520F5880F991FC2
:104A7000880F991FFC01E058F94F528133818081E2
:104A80008370E18170E9879FC00111248154964FA2
:104A9000E80FF92FF11DB4976083FC01E50FF11DBC
:104AA000B4974083830F911DFC01B497208381E06C
:104AB0008093C5080895FF920F931F93CF93DF93C0
:104AC000182F062FF42ED0E0C0E02F2D402F612F9D
:104AD000CE010E9433252196C133D105B1F7DF9174
:104AE000CF911F910F91FF9008958F929F92AF9257
:104AF000BF92CF92DF92EF92FF920F931F93CF93CB
:104B0000DF93862E082F10E0F801EE0FFF1FEE0F47
:104B1000FF1FE058F94F8181682F6452770B6B01BA
:104B2000628170E0CB018497EC0197FD279673E0DA
:104B3000D595C7957A95E1F7638170E07B01A4E292
:104B4000EA1AF108F701F7FC379633E0F595E79597
:104B50003A95E1F758E0A52EB12CB5010E94124616
:104B6000982EC701B5010E941246382F000F111F61
:104B7000000F111FD801A058B94F8C918370E82EF7
:104B8000F12C8601D7FE02C0095F1F4F83E0159507
:104B900007958A95E1F752E15E9DC0015F9D900DFA
:104BA00011248F55974F080F192F111DD801BC9054
:104BB000C60168E070E00E94124661E070E0DB012F
:104BC00002C0AA0FBB1F8A95E2F7CD01882009F425
:104BD0003FC08B29D8018C9352E15E9DC0015F9D3F
:104BE000900D11248F55974FC80FD92FD11D588183
:104BF00081E090E001C0880F9A94EAF7442359F1CC
:104C0000852B888342E14E9DC0014F9D900D11245C
:104C10008F55974FE80FF92FF11D408181E090E00B
:104C200001C0880F3A95EAF72223C1F0842B8083D4
:104C300081E08093A008DF91CF911F910F91FF90A9
:104C4000EF90DF90CF90BF90AF909F908F9008959E
:104C500080958B21BFCF80958523D3CF80958423EA
:104C6000E6CFCF93C62F9091C508992349F06FEBFB
:104C700079E00E94BE246FE47AE08C2F0E94BE246B
:104C80001092C508CF910895FF920F931F93CF9371
:104C9000DF93F82ED62F8091A008882399F001EA9F
:104CA00018E0C0E0F80141918F016C2F8F2D0E9418
:104CB000B224F80141896C2F8D2F0E94B224CF5F5E
:104CC000C23181F7DF91CF911F910F91FF9008952D
:104CD0001092B9008CE08093B8000895EF92FF9293
:104CE0000F931F93CF93DF93182FEB011092BC000B
:104CF00084EA8093BC000E94A7347C018091BC00B0
:104D000087FF27C08091B900887F883029F0809183
:104D1000B900887F8031D9F51093BB0084E8809377
:104D2000BC000E94A7348C018091BC0087FF24C086
:104D30002091B900287F90E080E02831B1F081E037
:104D400090E0203411F490E080E0919581959109F4
:104D50000CC0CF3FDC0791F20E94A7348E199F0947
:104D60008C179D0758F28EEF9FEFDF91CF911F9127
:104D70000F91FF90EF900895CF3FDC07A9F20E94BA
:104D8000A734801B910B8C179D0770F2ECCF8FEF2F
:104D90009FEFEBCF0F931F93CF93DF93EB018093A4
:104DA000BB0084E88093BC000E94A7348C018091F2
:104DB000BC0087FF11C02091B900287F81E090E0FE
:104DC000283211F490E080E0919581959109DF916E
:104DD000CF911F910F910895CF3FDC0741F30E94BF
:104DE000A734801B910B8C179D0708F38EEF9FEF64
:104DF000EECF0F931F93CF93DF93EC0184E9809361
:104E0000BC000E94A7348C018091BC0084FD07C0C7
:104E100090E080E0DF91CF911F910F910895CF3FF7
:104E2000DC0791F30E94A734801B910B8C179D0720
:104E300058F38EEF9FEFEECFCF92DF92EF92FF927B
:104E40000F931F93CF93DF936B017A018901B9010F
:104E50000E946E26E601EC0CFD1C009779F0DF91B4
:104E6000CF911F910F91FF90EF90DF90CF90089519
:104E7000B80189910E94CA26009789F7EC16FD06B1
:104E8000B9F7C801DF91CF911F910F91FF90EF907B
:104E9000DF90CF900C94F9269093CB088093CA08AA
:104EA0000895E091CA08F091CB08309721F0019065
:104EB000F081E02D099480E00895EF92FF920F9326
:104EC0001F93CF93DF93EC01E091CA08F091CB08D8
:104ED000309709F446C080917505882341F0809190
:104EE000F70A87FF04C08881898385E08883028070
:104EF000F381E02DCE0109958091590982FF31C0DF
:104F000080FF04C08EE496E00E94B00410E000E050
:104F100088E4E82E86E0F82E8091590980FF0EC0C3
:104F2000FE01E00FF11F80811F928F93FF92EF929D
:104F30000E9449050F900F900F900F900F5F1F4F29
:104F40000830110549F78091590980FF0AC086E4AD
:104F500096E0DF91CF911F910F91FF90EF900C940D
:104F6000B004DF91CF911F910F91FF90EF900895C2
:104F70002091C8083091C9082817390771F090931B
:104F8000C9088093C808E091CA08F091CB0830970F
:104F900021F00680F781E02D099408952091C6083C
:104FA0003091C7082817390771F09093C70880938C
:104FB000C608E091CA08F091CB08309721F0008430
:104FC000F185E02D0994089585B7806885BF85B780
:104FD000806885BF089508950E94E4270C94EB270C
:104FE00081E008950E949E340E94870C0C94253520
:104FF000CF93C82F8091590982FF1EC080FF1CC02B
:1050000087E696E00E94B0048091590980FF14C0A1
:105010001F92CF9382E696E09F938F930E9449055B
:10502000809159090F900F900F900F9080FF04C04E
:1050300080E696E00E94B0048C2FCF910C949407E8
:105040005F926F927F928F929F92AF92BF92CF9218
:10505000DF92EF92FF920F931F93CF93DF93CDB721
:10506000DEB72A970FB6F894DEBF0FBECDBF0E9401
:10507000E60C0E94F027882309F47AC09DECA92E43
:1050800098E0B92E10E000E088248394912C502EF3
:10509000802F0E947F0D7C01F501C190D1905F01AE
:1050A000C816D90609F45EC08091590981FD0E9495
:1050B000880D90E080E0CE24DF243401082E02C069
:1050C000660C771C0A94E2F7960126213721232BE0
:1050D00009F443C08E835F82E620F72081E0EF2849
:1050E00009F480E088870E94A7348160782F9A872E
:1050F00089874E815F8168858A850E94DF28000F3D
:10510000111FF801E353F74F8081918168267926BA
:10511000718260820E9418180E9451279091CC08D9
:105120008917B9F10E9451278093CC082A960FB6AF
:10513000F894DEBF0FBECDBFDF91CF911F910F91CD
:10514000FF90EF90DF90CF90BF90AF909F908F90A7
:105150007F906F905F900C94F82701968C309105AA
:1051600009F0ABCF0F5F1F4F0430110509F08FCF4F
:105170008FEF89838A831B820E94A7348160782FF6
:105180009D838C8349815A816B818D810E94DF28A8
:10519000C1CF2A960FB6F894DEBF0FBECDBFDF9108
:1051A000CF911F910F91FF90EF90DF90CF90BF9024
:1051B000AF909F908F907F906F905F900895CF9366
:1051C000DF93CDB7DEB72B970FB6F894DEBF0FBED7
:1051D000CDBF4F83588769877A878B871E821D8250
:1051E00085E0FE013796DE01119601900D928A95B9
:1051F000E1F749815A816B817C818D819E812B965B
:105200000FB6F894DEBF0FBECDBFDF91CF910C94E7
:10521000622FFC01808191810C941632882309F45D
:10522000FFC08238B9F40E94512781FDF9C089E39B
:105230000E9444320E94B5322FEF81EE94E021505B
:1052400080409040E1F700C0000089E30E944B32AB
:105250000C94B5328338A1F40E94512780FDE0C040
:1052600083E50E9444320E94B5322FEF81EE94E034
:10527000215080409040E1F700C0000083E5E6CF78
:105280008438A1F40E94512782FDCAC087E40E949D
:1052900044320E94B5322FEF81EE94E021508040DD
:1052A0009040E1F700C0000087E4D0CF9CEF980F5A
:1052B000913A18F40E944432CBCF90E2980F983084
:1052C00050F4877091E001C0990F8A95EAF7892F11
:1052D0000E946C32BDCF9BE5980F933070F4853AF5
:1052E00031F0863A39F083E890E00C94B82781E8F1
:1052F00090E0FBCF82E890E0F8CF98E5980F9731E7
:1053000008F08EC0883A09F446C0893A09F446C0CC
:105310008A3A09F446C08B3A09F446C08C3A09F43B
:1053200046C08B3B09F446C08C3B09F446C08D3A1D
:1053300009F446C0803B09F446C08E3A09F446C0E1
:105340008F3A09F446C0813B09F446C0823B09F418
:1053500046C0833B09F446C0843B09F446C0853B04
:1053600009F446C0863B09F446C0873B09F446C0B1
:10537000883B09F446C0893B09F446C08D3B09F4DB
:1053800046C08E3B09F446C08A3B09F446C090E013
:1053900080E00C94CE2782EE90E0FBCF89EE90E087
:1053A000F8CF8AEE90E0F5CF85EB90E0F2CF86EB78
:1053B00090E0EFCF83EB90E0ECCF84EB90E0E9CF8F
:1053C00087EB90E0E6CF8CEC90E0E3CF8DEC90E0C3
:1053D000E0CF83E891E0DDCF8AE891E0DACF82E99F
:1053E00091E0D7CF84E991E0D4CF81E292E0D1CFB0
:1053F00083E292E0CECF84E292E0CBCF85E292E0EE
:10540000C8CF86E292E0C5CF87E292E0C2CF8FE6B6
:1054100090E0BFCF80E790E0BCCF8AE292E0B9CFC6
:105420000895882309F44BC0823871F40E945127F3
:1054300081FF45C089E30E9444320E94B53289E36E
:105440000E944B320C94B532833859F40E94512794
:1054500080FF35C083E50E9444320E94B53283E567
:10546000EFCF843859F40E94512782FF28C087E487
:105470000E9444320E94B53287E4E2CF9CEF980F3D
:10548000913AF0F290E2980F983050F4877091E0E2
:1054900001C0990F8A95EAF7892F0E947232D2CF04
:1054A0009BE5980F933020F490E080E00C94B827AF
:1054B000885A873120F490E080E00C94CE2708953C
:1054C000882321F00E946C320C94B5320895882311
:1054D00021F00E9472320C94B53208958F929F92FF
:1054E000AF92BF92CF92DF92EF92FF920F931F93F2
:1054F000CF93DF937C01D62FC72FFC010581029546
:105500000F70128111110E9489320E946232C82EDE
:10551000882371F01123B1F080E28D0F883090F074
:1055200082E00E9400330E94623291E0C82EC926B8
:10553000DC2ED2949FE0D922ED2DF0E0EA59F84B11
:105540000C942646C12CF4CF0C2F0F70C07F11F0A5
:105550000295007F1123A9F0002359F080E28D0FFE
:10556000883010F0D11109C0802F0E946C320E9447
:10557000B5328D2F0E940E2914C0802F0E947C32DC
:10558000F6CF8D2F0E94112A002359F080E28D0F53
:10559000883010F0D11133C0802F0E9472320E94E7
:1055A000B53298E0D91639F0D91648F086EF8D0D4E
:1055B0008F70823020F40E9451270E949407CC20E3
:1055C00009F497C10E945E3280FD93C1F7011282F7
:1055D0000E9458320E94E430C7010E94862C0E942B
:1055E0005832DF91CF911F910F91FF90EF90DF9094
:1055F000CF90BF90AF909F908F900C940531802FEB
:105600000E948232CCCFFC2FFF70BF2EC07FC032F1
:1056100019F0B29480EFB822DD2369F0D13049F15E
:10562000112391F1002351F1F701858180FFA1CF72
:105630008F70858323C0112381F0011106C00E9461
:105640009C328B290E94602AACCF0130C1F70E94A6
:105650009C328B290E94A232A4CF011106C00E9465
:10566000AB328B2D0E94672A9CCF013009F499CF71
:10567000F6CF112329F0063008F093CF8B2DE2CF1F
:10568000053008F08ECFEDCF002359F38D2F0E9407
:10569000112A87CF8C2F86958695837069F081308B
:1056A00009F07FCF8D2F9C2F9370111102C090E0D5
:1056B00080E00E94CE2775CF8D2F9C2F9370111103
:1056C00002C090E080E00E94B8276BCF8C2F8370DF
:1056D00009F047C0111165CF2D2F2295269527700F
:1056E000220F220F6D2F6F70862E912CB12CA12CC2
:1056F000022E04C0880C991CAA1CBB1C0A94D2F769
:1057000060E070E0CB01D4FF0FC06FE070E080E09C
:1057100090E004C0660F771F881F991F2A95D2F763
:105720006095709580959095C695C695C370C2306A
:1057300051F080F4682979298A299B29C13071F0B8
:105740000E9498302ECF682979298A299B290E94A6
:10575000AA3027CF0E949830C501B4010E9486303C
:1057600020CF8695112311F08C2F8170882309F4A6
:1057700018CF2D2F229526952770220F220F6D2FDF
:105780006F70862E912CB12CA12C022E04C0880C97
:10579000991CAA1CBB1C0A94D2F760E070E0CB01F4
:1057A000D4FF0FC06FE070E080E090E004C0660FAF
:1057B000771F881F991F2A95D2F76095709580955D
:1057C0009095C695C695C370C23051F080F4682993
:1057D00079298A299B29C13071F00E945B31E1CE81
:1057E000682979298A299B290E946D31DACE0E9485
:1057F0005B31C501B4010E944931D3CEE0E2ED0F27
:10580000E53108F04DC0F0E0EA58F84B0C9426461C
:10581000DF708C2F8F71112321F00E94E4308D2FC7
:1058200011CF0E9405318D2F1DCF112341F005307E
:1058300008F0B7CE8C2F8F710E942831B2CE06307F
:1058400008F0AFCEF7CF8C2F8F71112339F00E9463
:10585000E430A7CE8C2F8F711123C9F30E9405313C
:10586000A0CE112329F08C2F8F710E94CF3099CEBA
:105870000E94CA3096CE112349F0CF718C2F0E941E
:10588000E43063E08C2F0E94EB328BCE81E00E94EB
:105890000033023008F485CE82E00E94003381CECE
:1058A000112329F0011165CE8C2F8F71D0CF0023E9
:1058B00069F0D93309F0EACEFFEF27EE83E0F1502B
:1058C00020408040E1F700C00000E0CE8C2F8F71B7
:1058D000C5CF4C2F4F706D2FC7010E940F0A0E9439
:1058E000FC2F5FCE4C2F4F706D2FC7010E94120A04
:1058F00058CEDF91CF911F910F91FF90EF90DF90E5
:10590000CF90BF90AF909F908F9008950F931F936B
:10591000CF93DF93EC018B819C81892B29F08881C7
:10592000998189238F3F29F4DF91CF911F910F91A6
:105930000895CE010E94BE078823B1F36881798162
:105940008A810E9420328C010E947F310E94833024
:10595000B801CE01DF91CF911F910F910C946E2A67
:105960000E9489320E9499320E94B53290E080E014
:105970000E94B82790E080E00C94CE270E9452321B
:105980000C94B02C0E9479320C94BE2CE92FE29535
:10599000EF70E250EE3070F4F0E0E557F84B0C9405
:1059A0002646803F19F020F4803E20F481E00895DF
:1059B000843FE1F380E00895803EC0F3813FD1F75A
:1059C000F5CF93FB882780F908950E9416320C9436
:1059D000C62CCF93DF9300D000D00F92CDB7DEB7A7
:1059E0000F900F900F900F900F90DF91CF9108952F
:1059F000CF93DF9300D000D000D0CDB7DEB726968E
:105A00000FB6F894DEBF0FBECDBFDF91CF910895E2
:105A10001F93CF93DF93C091D60816E08091D708EB
:105A20008C1304C0DF91CF911F910895D0E01C9F8B
:105A3000F0011D9FF00D1124E852F74F4081518174
:105A400062817381848195810E94F82C2196C770B0
:105A5000E5CF409108095091090960910A097091B8
:105A60000B0980910C0990910D090C94F82C1F934F
:105A7000CF93DF9380910D09807FC1F480910A0953
:105A80008823A1F08091D608C091D70860910809B9
:105A90007091090940910B0950910C09D62FD72319
:105AA000DA01A095B09516E0C81304C0DF91CF913C
:105AB0001F91089590E04115510511F0DF3F31F439
:105AC00001968770F1CF2A0F3B1F17C0189FF00176
:105AD000199FF00D1124E852F74F21812713F0CFC1
