:100000000C94E5020C942C030C942C030C942C03FC
:100010000C942C030C942C030C942C030C942C03A4
:100020000C942C030C942C030C94AE240C9481257A
:100030000C94EB1E0C942C030C942C030C942C03AA
:100040000C942C030C942C030C942C030C942C0374
:100050000C942C030C94361F0C942C030C942C033E
:100060000C942C030C942C030C942C030C942C0354
:100070000C942C030C942C030C942C030C942C0344
:100080000C942C030C942C030C942C030C942C0334
:100090000C942C030C942C030C942C030C942C0324
:1000A0000C942C030C942C030C942C032B001400A4
:1000B0001A000800150017001C0018000C001200A0
:1000C00013002A00296104001600070009000A0035
:1000D0000B000D000E000F0000003300E1000000D7
:1000E0001D001B000600190005001100100036005D
:1000F00037003872E000E200E30000002C002842E4
:1001000000000000000003510451E4002B00140023
:100110001A000800150017001C0018000C0012003F
:1001200013002A00E00004001600070009000A007E
:100130000B000D000E000F0000003300E100000076
:100140001D001B00060019000500110010003600FC
:1001500037003872E000E200E30000002C00284283
:1001600000000000000003510451E40035001E00AF
:100170001F0020002100220023002400250026006B
:1001800027003100E0000000000000000000000037
:100190005000510052004F0000003400E100000008
:1001A0000000000000000000000000000000AC00A3
:1001B000AB00AE00E000E200E30000002C00010014
:1001C00000000000000001000100E0001114000028
:1001D00000000000000000000C142D002E002F0075
:1001E00030000000000000000000000000000000DF
:1001F00000000000000000000000081400000000E3
:1002000000000000061400000000000000000000D4
:1002100000000000000000000000000000000100DD
:10022000000000000000010001000000005C3A0036
:100230003B003C003D003E003F00400041004200CA
:100240004300015300000000000000000000000017
:10025000000000000000000000000000000000009E
:10026000000000000000000000000000000000008E
:10027000000000000000000000000000000001007D
:1002800000000000000001000100000000047F3FAA
:100290001F643214643214783C1E1E140A05222393
:1002A000252628292A2C2D2F3032333536383A3B53
:1002B0003D3E4042434547494A4C4E5051535557A5
:1002C000595A5C5E6062646668696B6D6F717375C4
:1002D00077797B7D7F81838587898A8C8E909294C4
:1002E00096989A9C9E9FA1A3A5A7A8AAACAEAFB1D1
:1002F000B3B4B6B8B9BBBCBEBFC1C2C3C5C6C7C91B
:10030000CACBCCCDCED0D1D2D2D3D4D5D6D7D7D8D4
:10031000D9D9DADADBDBDBDCDCDCDCDCDDDDDDDD26
:10032000DCDCDCDCDCDBDBDBDADAD9D9D8D7D7D62E
:10033000D5D4D3D2D2D1D0CECDCCCBCAC9C7C6C5E5
:10034000C3C2C1BFBEBCBBB9B8B6B4B3B1AFAEAC2B
:10035000AAA8A7A5A3A19F9E9C9A98969492908ED6
:100360008C8A89878583817F7D7B79777573716FAF
:100370006D6B6968666462605E5C5A59575553518B
:10038000504E4C4A4947454342403E3D3B3A383641
:10039000353332302F2D2C2A292826252322FFAA57
:1003A0007F5540000101010101010101010202022A
:1003B0000202020202020303030303030303040411
:1003C00004040404040505050505060606060607DB
:1003D0000707070708080808090909090A0A0A0B94
:1003E0000B0B0C0C0C0D0D0D0E0E0E0F0F0F101035
:1003F00011111112121313141415151616171718BC
:100400001819191A1A1B1B1C1D1D1E1E1F20202126
:100410002222232424252626272829292A2B2C2D6D
:100420002D2E2F30313232333435363738393A3B8E
:100430003C3D3E3F404142434445464748494A4C83
:100440004D4E4F50515354555658595A5B5D5E5F4F
:10045000616264656668696B6C6D6F7072737577E5
:10046000787A7B7D7E8082838587888A8C8E8F9147
:10047000939596989A9C9EA0A2A3A5A7A9ABADAF71
:10048000B1B3B5B7BABCBEC0C2C4C6C9CBCDCFD15B
:10049000D4D6D8DBDDDFE2E4E7E9EBEEF0F3F5F804
:1004A000FAFDFF0403300000000C0341004D004A38
:1004B000003400300000001203480061006E00208C
:1004C000004300680065006E000000040309040991
:1004D000023B00020100A0FA09040000010301012F
:1004E00000092111010001224000070581030800D5
:1004F0000A090401000103000000092111010001A3
:10050000226D000705820320000A1201100100007D
:100510000008EDFE7260020001020301050109807E
:10052000A101850319012AB700150126B70095011D
:1005300075108100C0050C0901A101850419012A6B
:10054000A002150126A002950175108100C00501C9
:100550000906A1018505050719E029E71500250110
:100560009508750181020507190029EF150025017D
:1005700095F0750181020508190129059505750198
:100580009102950175039101C005010906A10105BC
:100590000719E029E71500250195087501810295E5
:1005A00001750881010507190029FF150026FF00C4
:1005B000950675088100050819012905950575013D
:1005C0009102950175039101C00011241FBECFEF68
:1005D000DAE0DEBFCDBF04B603FE27C08091B102D2
:1005E0009091B202A091B302B091B4028730904BC7
:1005F000A740B04BD1F41092B1021092B202109207
:10060000B3021092B40214BE84B7877F84BF0FB6C2
:10061000F894A895809160008861809360001092A2
:1006200060000FBEE0E0F8E3099511E0A0E0B1E062
:10063000EAE1F1E502C005900D92AE3AB107D9F7B3
:1006400022E0AEEAB1E001C01D92A13BB207E1F7A2
:100650000E94E4210C9402280C9400000C940506DE
:10066000229A08950E9404060C94300381FF02C070
:100670002A9808952A9A089581E0089581E00895BE
:100680000C943E0308950C9442031F93CF93DF9381
:1006900000D000D00F92CDB7DEB749835A836B8369
:1006A0003091D20189819A8131111DC06623B9F040
:1006B0002223A9F00E94D51B182F682F89819A81C7
:1006C0000E947E1B69817A81812F0F900F900F907D
:1006D0000F900F90DF91CF911F910C9402040E9414
:1006E000AC1B182FEFCF0E94D51B69817A81EDCF0B
:1006F000FC01262F408151816281738184810C9499
:100700004503CF93DF93D82FC92F60E00E94780371
:100710006D2F7C2FDF91CF910C9443030E94241DF9
:10072000811102C00E94CA1D0E944F0F0C94320317
:100730000C942E0381E008950C949A03CF93C82F54
:100740000E9436038C2FCF910C949C0308950E9435
:100750002B160E94A6032FEF84E39CE021508040DB
:100760009040E1F700C000000C945A1F0F931F93B4
:10077000CF93DF93EC0161E00E9478038C01BE010E
:100780000E944003882389F1BE01C8010E94A60E81
:10079000882359F1BE01C8010E940D10882329F158
:1007A000BE01C8010E9451108823F9F0BE01C801A2
:1007B0000E9424118823C9F0BE01C8010E946D0D5A
:1007C000882399F08A81882339F001158CE5180770
:1007D00051F00E3D1C4579F0CE01DF91CF911F9174
:1007E0000F910C943C030E94A70380E0DF91CF910E
:1007F0001F910F9108950E94CA1DF7CF90E080E0ED
:1008000008950895972F70E02CE0929F600D711D60
:100810001124FB0190E3899FE00DF11D1124EE0FDF
:10082000FF1FE455FF4F859194910895FC01EE0F51
:10083000FF1FE457FD4F859194910895CF93DF9367
:100840000E9402040E942905EC01811521E592070E
:1008500008F048C0811530E5930708F0AFC0803E2E
:10086000910518F5803C910508F096C0883A9105ED
:1008700070F4853A910508F08CC08130910531F112
:100880000497813A910510F1D0E0C0E01FC08F3B82
:100890009105D1F3C85AD0E0CC0FDD1FC35EDE4F07
:1008A0000990D881C02DD46411C0811540E394070C
:1008B00088F4C11580E2D80708F074C0C83ED1059D
:1008C00028F0CE019A9581159F41F0F6CE01DF9177
:1008D000CF910895811530E4930708F466C0DF7066
:1008E000D06AF4CF8115964560F5C11585E5D80726
:1008F00008F096C0C11594E5D907F0F4C11523E5B9
:10090000D20708F079C0C11532E5D30708F46FC0EB
:10091000CE018370992721E030E002C0220F331FFF
:100920008A95E2F7C695C69540E2C49FE00111247E
:10093000C22BD32BDC68CACFDC2FCC27C46FD06A84
:10094000C5CFC1158AE5D80788F4C11599E5D9073F
:1009500008F071C0CE0198558F3F910511F008F055
:1009600093CFDC2FCC27C06FD06AB0CFCE0190568A
:100970008115904208F088CF8D2F8F710E94C1059C
:1009800090E0982F882788279F719C012C2BE901E4
:1009900050C0A497D0649ACF805C91090E9416043D
:1009A000EC0194CFCE019F70F9CF9927D3FF03C0FC
:1009B000EC01D86C8BCFEC01D06C88CF74E09695AD
:1009C00087957A95E1F783702C2F269526952370CD
:1009D00040E2249F90011124382B8C2F8370C1E0BA
:1009E000D0E002C0CC0FDD1F8A95E2F7A1CFDC2F4B
:1009F000CC27C16FD06A6ACFCE018370992721E0DE
:100A000030E002C0220F331F8A95E2F7C695C695E3
:100A100080E2C89FE0011124C22BD32BDA6856CFA5
:100A20008C2F0E94C105C82FD0E0DC2FCC27CC270B
:100A3000DF71D0624BCF8C2F8F700E94C10534E0E4
:100A4000D695C7953A95E1F7CF70DC2FC82FD069BE
:100A50003DCF803E910599F1C8F48133910509F4A9
:100A600076C048F48932910509F46AC08A3291054A
:100A700009F474C0089589339105D1F08238910545
:100A8000B9F08533910509F454C00895843E910569
:100A900099F138F4823E9105F9F0833E910509F110
:100AA0000895863E910599F1873E9105B9F1089523
:100AB0002091A2022370A1F080EE90E00895209191
:100AC000A20220FD52C03091A30230FF09C024FFD2
:100AD0004FC090E080E004C02091A20222FDF7CF39
:100AE00008952091A20222FD46C03091A30230FD5C
:100AF000E3CF24FFF5CFEDCF2091A30221FFF0CF6C
:100B00008091A20284FDE5CF87EE90E008952091C8
:100B1000A20223FFE5CF24FDDCCFF6CF2091A20275
:100B200023FD2CC03091A30231FFE3CF84EE90E08F
:100B300008952091A20225FFD3CF89E290E0089585
:100B40002091A20225FFCCCF85E390E0089520916B
:100B5000A20226FFC5CF8AE290E008952091A2026A
:100B600026FFBECF81E390E0089589E390E00895E9
:100B700083EE90E0089582EE90E0089586EE90E096
:100B800008959091A20292FF06C0282F2871283064
:100B9000F9F4877F846093FF06C0282F28712831DD
:100BA000F1F4877E84612091A30220FF06C0382FD4
:100BB00038713830D9F4877F816021FF06C0282F33
:100BC00028712831D1F4877E816194FD877E089554
:100BD000282F24712430F9F68B7F8860DCCF282FF2
:100BE0002471243101F78B7E8861DDCF382F31717C
:100BF000313019F78E7F8860E0CF282F21712131A5
:100C000021F78E7E8861E1CF08950895E82FF0E006
:100C1000EE0FFF1FEC57FD4F8081918108950895DD
:100C200080EA8A95F1F70895CF93DF93A7E5B1E0C5
:100C30004BE551E0C1E0D0E08D91E82FE295EF70F7
:100C4000F0E061A18F709E0101C0220F8A95EAF742
:100C5000922F9095962391A382A1822B82A34A176B
:100C60005B0751F7ABE4B1E047E551E0C1E0D0E00C
:100C70008D91E82FE295EF70F0E061A18F709E01F9
:100C800001C0220F8A95EAF7922F9095962391A39F
:100C900082A1822B82A34A175B0751F710927D0233
:100CA00010927C02109285021092840210927F02B0
:100CB00010927E0210928702109286021092810298
:100CC0001092800210928902109288021092830280
:100CD0001092820210928B0210928A0284E00E948B
:100CE0000D07DF91CF910C948E034F925F926F921C
:100CF0007F928F929F92AF92BF92CF92DF92EF92AC
:100D0000FF920F931F93CF93DF938CE7E82E82E03F
:100D1000F82E97E5A92E91E0B92E512C88248394C2
:100D2000912CD7016D907D907D01FD011292129260
:100D30008F01D5018D915D01C82FC295CF70D0E094
:100D400099A18F70640101C0CC0C8A95EAF7892FB4
:100D50008C2989A38AA14C2C409484218AA30E94C7
:100D60001006EBE4F1E030E020E06191A62FA295BF
:100D7000AF70B0E090968C91D8014D915C9190E06D
:100D80006F7002C0959587956A95E2F780FD42C025
:100D9000C401022E02C0880F991F0A94E2F7482B63
:100DA000592BD80111965C934E932F5F3F4F2C30F7
:100DB0003105D9F689A1482249A28AA1C82ACAA226
:100DC00081E02D913C912615370509F480E0582AE1
:100DD000B4E8EB16B2E0FB0609F0A3CF252D44E002
:100DE00064E872E08CE792E00E940E070E9498038C
:100DF000852DDF91CF911F910F91FF90EF90DF90A4
:100E0000CF90BF90AF909F908F907F906F905F90AA
:100E10004F90089590E080E0C2CF0895FF920F9325
:100E20001F93CF93DF93F82E092F162FD72FC42FA0
:100E3000222349F081E08093B0010E941B1F909310
:100E4000AF018093AE018091B0018823A1F0809121
:100E5000AE019091AF010E94271F069760F0EF2D21
:100E6000F02FA12FBD2F90E080E0D0E08C179D07E0
:100E700044F01092B001DF91CF911F910F91FF903C
:100E80000895219131912D933D930196EFCFAF922B
:100E9000BF92CF92DF92EF92FF920F931F93CF9367
:100EA000DF93362F472FE82FF0E0ED55FC4F7111FF
:100EB0000EC06491762F862FDF91CF911F910F91F5
:100EC000FF90EF90DF90CF90BF90AF900895C72F25
:100ED000D0E0249186E0689F700111240FEF10E0AC
:100EE000C701B8010E944327832F90E0880F991F04
:100EF00035E5369FF001379FF00D11248E1B9F0BB7
:100F0000982F990F980FF801EC1BFD0B2E9FD00125
:100F10002F9FB00D1124EB2F949FA0011124452F7A
:100F200055276801C41AD50AA601249F6001259F90
:100F3000D00C11248D2D5801A91AB108AC9EA00126
:100F4000AD9E500DBC9E500D1124452F5527041BFE
:100F5000150B209FA001219F500D112463307105B6
:100F6000D9F09CEFE91693E0F90668F46130710559
:100F7000B9F062307105C1F09FEFE916F10448F451
:100F80008B2FE52F06C06430710589F0663071053E
:100F9000B9F36E2F722F90CFED2D822F2B2FF9CF1B
:100FA000E22F2D2D8B2FF5CF852FE22FF7CF822F1C
:100FB000252FEFCF0895CF93DF93982F762F842F8F
:100FC000E901692F0E944707798368838A83DF914B
:100FD000CF91089580918C02982F9E7F29F4817083
:100FE000826080938C0208958A34E8F3817088646B
:100FF000F8CF88E090E00C94C2270F931F93CF9313
:10100000DF938B01D82FC92F0E94EA07A8016D2F0B
:101010007C2F88E090E0DF91CF911F910F910C948D
:10102000E027CF93DF9300D000D0CDB7DEB7ECE858
:10103000F2E083E0808311828FEF828383831482C6
:1010400080819181A281B38189839A83AB83BC83A0
:10105000BC01CD010F900F900F900F90DF91CF91B9
:101060000C94FD0780918C0280FF02C08695089544
:1010700080E00895CF93DF9300D000D0CDB7DEB7E6
:1010800080919002833018F48F5F8093900280915A
:101090008C0290918D02A0918E02B0918F02898373
:1010A0009A83AB83BC83BC01CD010F900F900F904E
:1010B0000F90DF91CF910C94FD07CF93DF9300D079
:1010C00000D0CDB7DEB780919002882319F081500F
:1010D0008093900280918C0290918D02A0918E025B
:1010E000B0918F0289839A83AB83BC83BC01CD010D
:1010F0000F900F900F900F90DF91CF910C94FD0700
:101100006091040170E080918C0280FF0AC08091A0
:10111000B50123E0829FC00111248F569D4F0C948E
:101120009D0F8091B4019091030123E0829FF00113
:101130001124EF56FD4F891750F711821082128249
:101140008F5F3396F8CF90918C0290FF14C09091EE
:10115000B4012091030133E0939FF0011124EF5675
:10116000FD4F921710F00C948008818360834283B6
:101170009F5F3396F6CF0895CF93DF9300D00F9201
:10118000CDB7DEB790918C0290FF0AC09E012F5F11
:101190003F4F0E94DB074B8169818A810E94A3082F
:1011A0000F900F900F90DF91CF910895CF93DF9321
:1011B000EC01EC81F0E0E256FD4F4491ECE8F2E006
:1011C000628181810E94BC088C818F5F8C83DF915A
:1011D000CF910895CF93DF93EC01ECE8F2E04381E7
:1011E00062818C810E94BC088C818F5F8C83DF912F
:1011F000CF9108950F931F93CF93DF9300D00F9259
:10120000CDB7DEB78C018091B10181110AC09E017A
:101210002F5F3F4F4FEF6FEF0E94DB078A81809374
:10122000B101F8016481613049F06230F1F08091E0
:10123000B10140E0662331F040E019C06091B10196
:1012400040E080E00E94A308F801848190E00196CC
:1012500063E070E00E94572784830F900F900F90F7
:10126000DF91CF911F910F9108954091B10180E0DE
:1012700060E0E8CFAF92BF92CF92DF92EF92FF9201
:101280000F931F93CF93DF9300D000D000D00F9225
:10129000CDB7DEB7182FF62E042FD22E90918C02E8
:1012A00090FF2BC0E92FE695AE2FB0E0A55ABE4FB8
:1012B0008C918093BD019E7F923081F59E012F5FBE
:1012C0003F4F812F0E94DB074B8169818A810E94F9
:1012D000A30810938D02F0928E0200938F02DD20FE
:1012E00061F080918C0290918D02A0918E02B0915C
:1012F0008F02BC01CD010E94FD0727960FB6F8941E
:10130000DEBF0FBECDBFDF91CF911F910F91FF9038
:10131000EF90DF90CF90BF90AF900895823019F496
:1013200000918F02D6CF863019F410918D02D1CF63
:101330008930D9F3893169F6E9518E2F8170C82E31
:10134000E695F0E0E256FC4FA590B490E12CBB246A
:1013500060910201E61618F00E948008BACF2E2D87
:1013600030E0EA9CC001EB9C900D112470E00E94DB
:101370004327812FC11013C0860F4091B401420F43
:10138000532F511D9A01220F331F240F351F2F5643
:101390003D4F402F6F2D0E94DB07E394D9CF861B72
:1013A000ECCF282FECE8F2E0818143816281865FF7
:1013B0000C943A0981E00C94D109282FECE8F2E072
:1013C0008181438162818A500C943A0981E00C94B6
:1013D000DD09282FECE8F2E0628131E1630F08F4C7
:1013E0006FEF438181810C943A0981E00C94E90903
:1013F000282FECE8F2E0628131E1631B08F460E041
:10140000438181810C943A0981E00C94F809282FDA
:10141000ECE8F2E0438131E1430F08F44FEF6281E1
:1014200081810C943A0981E00C94070A282FECE89A
:10143000F2E0438131E1431B08F440E062818181A5
:101440000C943A0981E00C94160A20E00C943A09B5
:10145000EF92FF921F93CF93DF93EC0110E0EE2405
:10146000EA94F12C60910201161770F00E94800836
:101470009A818C8190FF27C08F5F8C83DF91CF9101
:101480001F91FF90EF9008952091B401422F410FDA
:101490005527551FCA019A01220F331F280F391FE4
:1014A0002F563D4F70E0C7010E945727962F8C8121
:1014B00040918F0260918E02199F800D11240E942D
:1014C000DB071F5FCFCF8150D8CFBF92CF92DF9283
:1014D000EF92FF920F931F93CF93DF93FC018281D2
:1014E0000FEF80FF01E010E0809102011817C0F0BB
:1014F0000E9480088091B301013009F051C0811130
:1015000002C08091020181508093B301DF91CF919D
:101510001F910F91FF90EF90DF90CF90BF900895B3
:10152000C091B401C12ED12CCC0DDD2DD11DCE0129
:10153000880F991FC80FD91FCF56DD4F1982188207
:101540001A8234E0E32EF12CB12C8091B3018B0D83
:10155000853004F18370082E000C990BC816D9064B
:1015600091F480918F028E9DA0018F9D500D1124CA
:1015700055954795559547959E0160918E028091AE
:101580008D020E94DB07B00EF1E0EF1AF108E9F6D8
:101590001F5FAACF87FFDFCF90910201890FDBCFBA
:1015A00090E001966091020170E00E945727ACCF55
:1015B0000F931F93CF93DF938091B4019091030118
:1015C00023E0829FF0011124EF56FD4F891740F16F
:1015D000C0E0D3E060910201C61740F10E9480088C
:1015E000209100018091B201820F8093B20190910D
:1015F0000101920F90930101191654F4082E000C6A
:10160000990B409102014150550B841795071CF02E
:10161000219520930001DF91CF911F910F910895A3
:101620001182108212828F5F3396D0CF0C2F10E080
:1016300070E0C8010E9457272091B401820F482F03
:1016400050E02091B201022E000C330B0217130759
:10165000BCF020910101022E000C330B2017310742
:101660007CF08D9F900111242F563D4F40918F02A9
:1016700060918E0280918D020E94DB07CF5FAACF1E
:10168000FA01EE0FFF1FE40FF51FEF56FD4F118219
:1016900010821282F3CF0F931F93CF93DF938C01AD
:1016A000FC018481958101968170992795838483BB
:1016B000C0E0D5E580910201C81730F0DF91CF91ED
:1016C0001F910F910C9480082091B401422F4C0F70
:1016D0005527551FCA019A01220F331F280F391FA2
:1016E0002F563D4F8C2F8695F80144815581840FEC
:1016F000952F911D817040918F0260918E028D9F78
:10170000802D11240E94DB07CF5FD4CF0F931F934E
:10171000CF93DF93EC0110E000E09091020190176D
:10172000110609F06CF40E9480088C8190E001960B
:10173000817099278C83DF91CF911F910F9108952C
:101740002091B401A801420F511D9A01220F331FAD
:10175000240F351F2F563D4F4C8160918E02809192
:101760008D0296959017110651F04CF0442349F0E4
:1017700040918F020E94DB070F5F1F4FCECF4423A3
:10178000B9F340E0F7CFCF93DF9300D000D0CDB7CF
:10179000DEB7ECE8F2E080818E7F808380819181EA
:1017A000A281B38189839A83AB83BC83BC01CD01C1
:1017B0000E94FD071092BE019FEFA0E7B2E091509A
:1017C000A040B040E1F700C000000F900F900F90D4
:1017D0000F90DF91CF910C94800860918C026695F8
:1017E00070E04BE050E085E091E00E94AD27892B4E
:1017F00019F481E08093BE010E941B1F9093B701F2
:101800008093B6010895CF93DF9300D000D0CDB779
:10181000DEB790918C0290FF41C09170811134C06D
:10182000926090938C02662381F080918C0290915B
:101830008D02A0918E02B0918F0289839A83AB832F
:10184000BC83BC01CD010E94FD0760918C026695AE
:1018500070E04BE050E085E091E00E94AD27892BDD
:10186000D1F01092BE0181E08093B90140918F02C6
:1018700060918E0280918D020F900F900F900F90CB
:10188000DF91CF910C94250A853210F09864C9CF6E
:10189000880F982BC6CF0E94ED0BE5CF0F900F90CD
:1018A0000F900F90DF91CF910895682F80918C0257
:1018B00086958F5F853208F081E00C94030C81E0FF
:1018C0000C94550C682F90918C0296958FEF890F90
:1018D000913009F484E20C94030C81E00C94620CC6
:1018E00061E00C94030CECE8F2E08081816080837D
:1018F00086950C94700C80918C0280FD0C94C30B27
:101900000C94730C60E00C94030C8091BC01811169
:101910002EC00E94241D811104C00E94CA1D0E9475
:1019200011080E94F90760938C0270938D028093D6
:101930008E0290938F026E7F61F40E9411080E94C4
:10194000F90760938C0270938D0280938E029093BE
:101950008F020E94EA071092BE0180918C0280FFE4
:1019600003C086950E94820C81E08093BC0108959B
:101970000F931F93CF93DF938091BE01882309F4C7
:101980008DC08091BD01E0918C02E695E81BE0934B
:10199000B8018230C9F5F0E0E656FD4FE491CE2F54
:1019A000D0E006ED18E08091B901882389F010920B
:1019B000B9010E941B1F9E0120953095280F391FE9
:1019C0003093B7012093B6011092BB011092BA0177
:1019D0008091B6019091B7010E94271F8C179D0737
:1019E00008F45CC0E091B601F091B701CE0FDF1FA3
:1019F000D093B701C093B60186EB91E0F801DF9177
:101A0000CF911F910F910994863049F4F0E0E95687
:101A1000FD4FE491CE2FD0E00AEE18E0C4CF89301C
:101A200051F4E695F0E0EC56FD4FE491CE2FD0E076
:101A300008E21AE0B8CF8F3051F4E695F0E0EF56A7
:101A4000FD4FE491CE2FD0E005E61AE0ACCF853112
:101A500049F4F0E0E257FD4FE491CE2FD0E008EDDD
:101A60001AE0A1CFC8EED3E00BE41BE0883109F403
:101A70009ACF833239F4ECE8F2E0C591D4910AEFC1
:101A800018E091CFC4EFD1E006E81BE0843209F4FE
:101A90008ACFC0EDD7E00AED17E085CFDF91CF9177
:101AA0001F910F910895FA0181110994FB01FDCF57
:101AB000CF93DF93C82FD62F0E9432088C1740F0A7
:101AC0000E9432088D1720F4DF91CF910C945F0CA7
:101AD0008C2FDF91CF910C94700C0F931F93CF93A9
:101AE0008C01FB01C281CC2309F465C00E94721CE9
:101AF0008272F801E25CFC45E431F10538F4EC5FF8
:101B0000F74D0C948D270E947B0CC0E08C2FCF9159
:101B10001F910F9108954DE65CE06FE57CE00E9417
:101B2000530DF3CF4FE55CE06DE67CE0F8CF46EE79
:101B300059E06AED79E0F3CF4AED59E066EE79E0DD
:101B4000EECF44E05AE065EF79E0E9CF45EF59E0A8
:101B500064E07AE0E4CF42E25AE063E17AE0DFCF8A
:101B600043E15AE062E27AE0DACF4DE558E06AE319
:101B700078E0D5CF4AE358E06DE578E0D0CF81E05A
:101B80000E94700CC2CF65E082E00E94580DBDCF6C
:101B900068E086E0FACF6EE089E0F7CF64E18FE09D
:101BA000F4CF67E185E1F1CF88E1EACF62E289E134
:101BB000ECCF83E2E5CFC1E0A9CF0E94241D8111C3
:101BC00002C00E94CA1D0E94521D80939D0288324D
:101BD00020F08770806280939D0290919D02892FF2
:101BE000817090FF04C0892F8695869586950C9408
:101BF000DE0E80919D02982F96959695969580324F
:101C000040F49F5F990F990F990F8770892B8093EC
:101C10009D0280919D02816080939D020E94561DCD
:101C200080919D028695869586950C94DE0E809116
:101C30009D02982F987F79F0885080939D02887F2D
:101C400091E009F490E080919D0290FB80F98093EF
:101C50009D020E94561D80919D02869586958695CF
:101C60000C94DE0E80919D0280FD13C081608093F4
:101C70009D02813019F489E080939D0280919D023C
:101C80000E94561D80919D028695869586950C949E
:101C9000DE0E089580919D0280FF08C08E7F8093A4
:101CA0009D020E94561D80E00C94DE0E08958091E6
:101CB0009D0280FD0C944A0E0C94320E90919D0270
:101CC000892F8695869586958F5F8F719770853061
:101CD000D8F4880F880F880F892B80939D028091FC
:101CE0009D02887F91E009F490E080919D0290FB35
:101CF00080F980939D020E94561D80919D028695D9
:101D0000869586950C94DE0E90939D02E8CF8530E3
:101D100008F084E090919D029770282F220F220FE7
:101D2000220F922B90939D02987F21E009F420E0EE
:101D300090919D0220FB90F990939D020C94DE0EF1
:101D40000E94870E80919D020C94561D9C01FB0100
:101D50008281882361F12E3BFCE53F07F9F060F4B6
:101D60002C3BECE53E07A9F02D3BFCE53F0799F045
:101D70002B3B3C4549F008952F3BECE53E0789F0AD
:101D8000203C3C4589F0089584E00E94A00E80E04C
:101D9000089580E0FACF0E94170EF9CF0E94F90D46
:101DA000F6CF0E94570EF3CF0E945E0EF0CF81E077
:101DB0000895269A2E9808952E980895CF93DF932C
:101DC000CDB7DEB728970FB6F894DEBF0FBECDBFF4
:101DD0008983853078F581112FC0809180008F7DB7
:101DE000809380000E94DC0E4981242F30E0AFEF09
:101DF000BFEF0E949327AB01BC0132E07695679557
:101E0000579547953A95D1F7CA014C37A4E15A073F
:101E1000C8F469E070E00E94432770938B006093E0
:101E20008A0028960FB6F894DEBF0FBECDBFDF91B3
:101E3000CF91089524E0298380918000806280936F
:101E40008000D2CF4A50574D6F4F7F4FB62FA52FEE
:101E5000942F8827BC01CD0125EF38E241E050E006
:101E60000E946B2729833A834B835C83CA01B901A3
:101E70000E9433279B01AC0169817A818B819C810F
:101E80000E943327BB27A92F982F872FBC010097CB
:101E9000A140B10511F66FEF7FEFBFCF08950E940B
:101EA000D90E82E28093800089E1809381008FEFD8
:101EB0009FEF90938700809386000C94DD0D9C012A
:101EC000DB018AB1942F9F7061E070E001C0660F62
:101ED0009A95EAF7862B8AB942954F70E42FF0E085
:101EE00082A1462F4095482382A1682B5FB7F894C2
:101EF000CD01880F991F8A0F9B1F820F931F821796
:101F0000930741F45FBF87EC90E00197F1F700C0C1
:101F100000000895F90171919F01E8E06BB900009C
:101F200000C077FF4BB9770F000000C000C000C0B1
:101F30004BB900C0EA9591F7E2CF43E90C945F0FEB
:101F40000F931F93CF93DF93C62FD42F022FFC0143
:101F500082818823C9F06093C1010E941B1F909366
:101F6000C0018093BF0180E28C0F883008F050C020
:101F7000C77081E001C0880FCA95EAF7DF91CF9161
:101F80001F910F910C9490131091C101161335C03D
:101F90008091BF019091C0010E94271F883C91054C
:101FA00060F5C0E2CD0F1D17B9F080E2810F8830D7
:101FB00040F4177081E001C0880F1A95EAF70E947B
:101FC0009713C83048F481E09D2F977001C0880FA7
:101FD0009A95EAF70E949013802F0E947D13C830D3
:101FE000B8F4D77081E001C0880FDA95EAF7DF9185
:101FF000CF911F910F910C94971380E28C0F883032
:1020000038F4C77081E001C0880FCA95EAF7EFCFB6
:10201000DF91CF911F910F9108959C01CB01233F38
:102020004CE5340769F190F4283DFCE53F0721F1C8
:10203000293D4CE5340781F1273D3C45B1F0FC01D9
:102040008281882361F11092C1010895253FFCE54A
:102050003F07D1F0263F4CE53407D1F0243F3C4503
:1020600071F727E245EE64EE03C026E241EE61EE31
:102070000E94A00F80E0089527E245EE65EEF8CFBC
:1020800026E241EE60EEF4CF26E241EE62EEF0CFC2
:1020900027E245EE66EEECCF28E241E0EFCF81E0AB
:1020A0000895CF93DF93EC01FB018281882309F42B
:1020B000C9C0C631FCE5DF07E0F4C2309CE5D907B2
:1020C000F0F00E94371D9093A3028093A202C631C4
:1020D000ECE5DE0720F5C230FCE5DF0798F48091DF
:1020E000A2029091A3020E94451D0E942B1680E03F
:1020F00006C09E012A5F3C452930310510F3DF916F
:10210000CF910895FE01E350FC458091A2028160C9
:10211000E331F10588F4E85EF74D0C948D27CA5F32
:10212000DC45C930D105D8F6C55DD74DFE010C940C
:102130008D278091A20282608093A202D0CF8091ED
:10214000A2028460F9CF8091A2028860F5CF8091CD
:10215000A30281608093A302C2CF8091A302826018
:10216000F9CF8091A2028061E7CF8091A2028062C4
:10217000E3CF8091A2028064DFCF0E942B16809172
:10218000A2028068D9CF8091A2028C60D5CF8091C5
:10219000A3028360DFCF8091A2028E7FCDCF80919A
:1021A000A2028D7FC9CF8091A2028B7FC5CF809183
:1021B000A202877FC1CF8091A3028E7FCBCF809177
:1021C000A3028D7FC7CF8091A2028F7EB5CF809171
:1021D000A2028F7DB1CF8091A2028F7BADCF0E94F2
:1021E0002B168091A2028F77A7CF8091A202837FC6
:1021F000A3CF8091A3028C7FADCF8091A20282FBFE
:10220000992790F921E0922790FB82F990FB83F9BE
:1022100093CF8091A302982F909591708E7F892BF8
:1022200090FB81F997CF0E942B169091A202892FE3
:1022300097FB87F9805880CF81E00E94CC1D4FCF5B
:1022400080E0FBCF81E05BCFCF93DF93EB01863162
:102250009C4511F50E94721C9A81992399F08A7A03
:1022600091E009F490E09093C201811109C089E2E4
:102270000E944D1C0E94C11C80E0DF91CF91089507
:1022800085E3F6CF8091C201811104C089E20E94EA
:10229000541CF0CF85E3FBCF81E0EFCF9093C801D2
:1022A0008093C7010895E091C701F091C80130976C
:1022B00021F00190F081E02D099480E00895DC0187
:1022C000E091C701F091C801309799F080911C010D
:1022D000882351F08091A20287FF06C08C9111964D
:1022E0008C93119785E08C930280F381E02DCD01D2
:1022F000099408952091C5013091C6012817390726
:1023000071F09093C6018093C501E091C701F091EF
:10231000C801309721F00680F781E02D09940895D7
:102320002091C3013091C4012817390771F09093AF
:10233000C4018093C301E091C701F091C8013097B7
:1023400021F00084F185E02D0994089585B7806817
:1023500085BF85B7806885BF0895089508950C945A
:10236000AD1108950C94B1110E94A6110E94AE11F6
:102370000C94AF1181E008950E94121F0E94140670
:102380000E947E1F0E94DD0D0E94850C0C94B211EC
:102390009F92AF92BF92CF92DF92EF92FF920F93F4
:1023A0001F93CF93DF9300D000D00F92CDB7DEB74D
:1023B0000E9475060E94BA11882309F471C05AEC74
:1023C000A52E51E0B52E10E000E0902E802F0E9447
:1023D00006067C01F501C190D1905F01C816D906AF
:1023E00009F458C08091560281FD0E940F069601A3
:1023F0002E253F2580E0CC24C394D12CA9014C216B
:102400005D21452B09F440C089839A82EC20FD2090
:1024100081E0EF2809F480E08B830E941B1F81601C
:10242000782F9D838C8349815A816B818D810E9495
:102430007212000F111FF801E653FE4F8081918147
:10244000C826D926D182C0820E94B80C0E944E0FA5
:102450000E9453119091C901891799F10E9453115B
:102460008093C9010F900F900F900F900F90DF9104
:10247000CF911F910F91FF90EF90DF90CF90BF9081
:10248000AF909F900C949E038F5FCC0CDD1C8C3022
:1024900009F0B4CF0F5F1F4F0430110509F095CF3D
:1024A0008FEF89838A831B820E941B1F8160782F94
:1024B0009D838C8349815A816B818D810E94721228
:1024C000C3CF0F900F900F900F900F90DF91CF918F
:1024D0001F910F91FF90EF90DF90CF90BF90AF9042
:1024E0009F900895CF93DF93CDB7DEB72B970FB6AC
:1024F000F894DEBF0FBECDBF4F83588769877A87B8
:102500008B871E8285E0FE013796DE0111960190D1
:102510000D928A95E1F749815A816B817C818D8189
:102520009E812B960FB6F894DEBF0FBECDBFDF9114
:10253000CF910C948E18FC01808191810C94171C12
:10254000CF93C82F882309F487C08238C1F40E9432
:10255000531181FD81C089E30E944D1C0E94C11C62
:102560002FEF31EE84E0215030408040E1F700C091
:10257000000089E30E94541CCF910C94C11C833845
:10258000A1F40E94531180FD67C083E50E944D1C99
:102590000E94C11C9FEF21EE34E09150204030405A
:1025A000E1F700C0000083E5E5CF8438A1F40E9484
:1025B000531182FD51C087E40E944D1C0E94C11C32
:1025C0008FEF91EE24E0815090402040E1F700C071
:1025D000000087E4CFCF8CEF8C0F813AB8F48C2FBA
:1025E0000E943F20811138C06C2F80911001909182
:1025F00011010E94E51D882329F08C2F0E94541C94
:102600000E94C11C8C2F0E944D1CB6CF80E28C0F03
:10261000883048F4C77081E001C0880FCA95EAF796
:102620000E94751CA9CF8BE58C0F833038F42C2FBA
:102630002452330BC901CF910C947A11C85AC73177
:1026400058F4EC2FF0E0EE0FFF1FE058FE4F8081B2
:102650009181CF910C949011CF910895882309F422
:102660004BC0823871F40E94531181FF45C089E349
:102670000E944D1C0E94C11C89E30E94541C0C94B2
:10268000C11C833859F40E94531180FF35C083E583
:102690000E944D1C0E94C11C83E5EFCF843859F481
:1026A0000E94531182FF28C087E40E944D1C0E94A3
:1026B000C11C87E4E2CF9CEF980F913AF0F290E2D0
:1026C000980F983050F4877091E001C0990F8A9567
:1026D000EAF7892F0E947B1CD2CF9BE5980F93309D
:1026E00020F490E080E00C947A11885A873120F42D
:1026F00090E080E00C9490110895CF93C82F0E9431
:10270000A012C93349F42FEF87EE93E021508040A7
:102710009040E1F700C000008C2FCF910C942E1355
:10272000882321F00E94751C0C94C11C08958823F5
:1027300021F00E947B1C0C94C11C0895AF92BF92A3
:10274000CF92DF92EF92FF920F931F93CF93DF937D
:1027500000D000D00F92CDB7DEB76C016D837983C6
:10276000FC01058102950F70128111110E94941CC9
:102770000E946B1CE82E882371F01123B1F08D812B
:10278000805E883090F082E00E940C1D0E946B1CDD
:1027900091E0E82EE926A980A2949FE0A922B12C1D
:1027A000F501EC5CF74D0C948D27E12CF4CF0981F9
:1027B0000F70F981F07F11F00295007F1123B1F0C5
:1027C000002361F08D81805E883018F02D81211109
:1027D00009C0802F0E94751C0E94C11C8D810E941F
:1027E000A01215C0802F0E94861CF6CF8D810E94FA
:1027F0002E13002361F08D81805E883018F04D81AA
:10280000411133C0802F0E947B1C0E94C11C58E0E4
:10281000A51AB10864E0A616B10420F40E94531171
:102820000E949E03EE2009F4C1C10E94671C80FD36
:10283000BDC1F60112820E94611C0E946E1AC6017F
:102840000E94FD150E94611C0F900F900F900F9039
:102850000F90DF91CF911F910F91FF90EF90DF903C
:10286000CF90BF90AF900C949F1A802F0E948C1C29
:10287000CCCF59815F70F52E6981607F603219F08D
:10288000F29480EFF8227D81772369F0713049F16D
:10289000112391F1002351F1F601858180FF9ECF34
:1028A0008F70858323C0112381F0011106C00E941F
:1028B000A81C8F290E949013AACF0130C1F70E9453
:1028C000A81C8F290E94AE1CA2CF011106C00E9435
:1028D000B71C8F2D0E9497139ACF013009F497CF20
:1028E000F6CF112329F0063008F091CF8F2DE2CFDB
:1028F000053008F08CCFEDCF002359F3FD81F9337B
:1029000049F42FEF47EE53E0215040405040E1F7AB
:1029100000C000008D810E942E1379CF8981869599
:102920008695837069F0813009F071CF8D8199812E
:102930009370111102C090E080E00E94901167CF67
:102940008D8199819370111102C090E080E00E9406
:102950007A115DCF8981837009F050C0111157CF72
:102960004D81429546954770440F440F8D818F707D
:1029700090E0B0E0A0E0042E04C0880F991FAA1FC9
:10298000BB1F0A94D2F76D8100E010E0980164FF4C
:102990000FC00FE010E020E030E004C0000F111F76
:1029A000221F331F4A95D2F7009510952095309538
:1029B00079817695769573707D83B901A801482B4E
:1029C000592B6A2B7B2B49835A836B837C835D81D4
:1029D00069817A818B819C81523051F0533059F05A
:1029E000513019F00E94E41912CF0E94BC190FCF88
:1029F0000E940C1A0CCF0E94BA1909CF8695112398
:102A000011F089818170882309F401CF4D814295AD
:102A100046954770440F440F8D818F7090E0B0E071
:102A2000A0E0042E04C0880F991FAA1FBB1F0A94A0
:102A3000D2F76D8100E010E0980164FF0FC00FE055
:102A400010E020E030E004C0000F111F221F331FF0
:102A50004A95D2F700951095209530957981769515
:102A6000769573707D83B901A801482B592B6A2B89
:102A70007B2B49835A836B837C835D8169817A8157
:102A80008B819C81523051F0533059F0513019F004
:102A90000E942D1BBCCE0E94051BB9CE0E94551B67
:102AA000B6CE0E94381AB3CE69816F706983112344
:102AB00029F0862F0E946E1A8D81FCCE8D810E9496
:102AC000971389810E949F1AA2CE7D81723FA1F146
:102AD00060F4703FE1F0713F41F1112309F445C00A
:102AE00001117CCE89818F7124C08D81833F49F192
:102AF000843F99F7112379F199819F719983892FE7
:102B00000E946E1A63E089810E94F71C80CE112317
:102B100041F0053008F07BCE89818F710E94D41A74
:102B200076CE063008F073CEF7CF89818F711123EE
:102B300049F20E946E1A6BCE89818F711123C9F3FD
:102B4000C1CF112329F089818F710E94491A5FCE6C
:102B50000E94441A5CCE81E00E940C1D023008F4F1
:102B600056CE82E00E940C1D52CE002361F0ED8112
:102B7000E93309F0CFCEFFEF27EE43E0F1502040DC
:102B80004040E1F7C5CE89818F719CCF49814F705C
:102B90006D81C6010E94FE030E942E1938CE498124
:102BA0004F706D81C6010E94010431CE0F900F90CD
:102BB0000F900F900F90DF91CF911F910F91FF9089
:102BC000EF90DF90CF90BF90AF9008950F931F9339
:102BD000CF93DF93EC01688179818A810E94231C65
:102BE0008C010E947D1B0E94B919B801CE01DF91B2
:102BF000CF911F910F910C949E13CF93DF93EC0113
:102C00008B819C81892B29F08881998189238F3F31
:102C100019F4DF91CF910895CE010E94B603882365
:102C2000C1F3CE010E94E615CE01DF91CF910C9445
:102C300081030E94941C0E94A51C0E94C11C90E06C
:102C400080E00E947A1190E080E00C9490110E9444
:102C50005B1C0C9419160E94831C0C942716282FB9
:102C6000892F82958F70903C80F48A30B0F4843044
:102C700020F4823090F480E008958630E1F781E01E
:102C8000283E88F0213FB9F70EC08C3011F08F300C
:102C900091F793FB882780F9089581E0203F39F070
:102CA00018F4283E40F70895243F29F7FCCF0895F3
:102CB0000E94171C0C942F16CF93DF9300D000D0E6
:102CC0000F92CDB7DEB70F900F900F900F900F902F
:102CD000DF91CF910895CF93DF9300D000D000D043
:102CE000CDB7DEB726960FB6F894DEBF0FBECDBFC8
:102CF000DF91CF9108951F93CF93DF93E091D3019C
:102D000016E08091D4018E1304C0DF91CF911F9102
:102D10000895CE2FD0E01E9FF0011124EB52FE4FFC
:102D20004081518162817381848195810E946B16FB
:102D3000FE013196E770E5CF409105025091060201
:102D400060910702709108028091090290910A0235
:102D50000C946B161F93CF93DF9380910A02807FB0
:102D6000A9F480910702882389F08091D301C09152
:102D7000D4016091050270910602A0910802B09101
:102D80000902D62FD72316E0C81304C0DF91CF91D4
:102D90001F91089590E0109711F0DF3F19F401960C
:102DA0008770F2CF189F9001199F300D1124F901FF
:102DB000EB52FE4F41814713F2CF40814613EFCFD4
:102DC00042814111ECCF438154814A1B5B0B483C4B
:102DD000510528F780910A028F70806180930A0262
:102DE000F901E652FE4F80818F708061808385E01B
:102DF00092E00E94FD15DF91CF911F910C947B16FC
:102E0000AF92BF92CF92DF92EF92FF920F931F93F8
:102E1000CF93DF93CDB7DEB72B970FB6F894DEBF15
:102E20000FBECDBF8C0185E0F801DE011796019041
:102E30000D928A95E1F7F80140815181E28085E0A9
:102E4000C82E82E0D82E60910802709109026115A7
:102E5000710509F444C19091050220910602822F68
:102E600089238F3F09F43BC1A380B480F09007020F
:102E7000F501E61BF70BFF2009F4E0C080910A0280
:102E8000382F307FE83CF10508F0B2C0311179C02D
:102E9000FE2C251323C0941321C0E1101FC08F7096
:102EA000806180930A020E949C16C6010E94FD1553
:102EB00080910A02F80185838F2D2B960FB6F89426
:102EC000DEBF0FBECDBFDF91CF911F910F91FF905D
:102ED000EF90DF90CF90BF90AF900895AB2829F08E
:102EE000842F85238F3F09F016C180E0F82FF17001
:102EF000DF2EE091D3012091D40136E080FD1CC08B
:102F0000EE20D1F280910A02816080930A02F12CB6
:102F1000D3CF8E2F90E03E9FF0011124EB52FE4F55
:102F20006181651306C06081641303C06281E6128B
:102F3000E7CFFC013196E770E213EBCF4F83588760
:102F40008F8198850E94171C292F22952F7090320F
:102F500060F0225F2F70223078F49F7051F0F801FA
:102F60009581907F31F4D12C0AC09F7011F0882395
:102F7000D1F3805E8830B8F3C8010E94FD15FD2CA6
:102F80009BCF251306C0941304C0F801EE2009F46A
:102F900070C04F8358878F8198850E945816882368
:102FA00019F1EE2009F180910A02803270F020912F
:102FB0000502309106023A8329831B82BD82AC82CE
:102FC0008E83CE0101960E94FD1586E0F801A5E0F2
:102FD000B2E001900D928A95E1F70E94AA160E9434
:102FE0009C16FF24F39468CFC8010E94FD15F9CF09
:102FF000311113C07A2DBB86AA866E2D8B850E9457
:103000005C1685E092E00E94FD1586E0F6011192C3
:103010008A95E9F70E949C167ACF2513BACF9413AC
:10302000B8CFE110B6CFF8018583C8010E94FD1525
:1030300086E0F60111928A95E9F73ECFE83CF1056A
:1030400008F040C0FE2CEE2079F225132AC094131C
:1030500028C080910A0280FD1BC0982F907FC1F08C
:10306000F8018583903F31F0982F907F905F8F70AB
:10307000892B8583C8010E94FD1586E0F801A5E033
:10308000B2E001900D928A95E1F70E949C1614CF50
:1030900086E0F801A5E0B2E001900D928A95E1F793
:1030A0000BCF4F8358878F8198850E9458168111C6
:1030B0008CCF80910A02816080930A02C8010E942D
:1030C000FD15FACE7A2DBB86AA866E2D8B850E94C1
:1030D0005C1686E0F60111928A95E9F7D6CFEE20CC
:1030E00009F482CF4F8358878F8198850E945816A4
:1030F000F82E882309F478CF86E0F801A5E0B2E045
:1031000001900D928A95E1F785E092E00E949B1272
:103110000E94AA16BACF81E08E25E8CE1F93CF93E6
:10312000DF93CDB7DEB72C970FB6F894DEBF0FBE96
:10313000CDBF4F83588769877A878B879C87CE015D
:1031400007960E940017882369F08A859B85892B42
:1031500039F04F815885842F85238F3F09F077C040
:1031600016E065C086E0FE013796DE0111960190FB
:103170000D928A95E1F76A857B856115710581F36A
:103180005F814885842F85238F3F51F32091D4019F
:1031900030E0C901019687709927E091D301E817C3
:1031A000190671F40E942B161092D4011092D301CB
:1031B00086E0E5E0F2E0DF011D928A95E9F7D0CFE5
:1031C00059834A837D836C8396E0929FD001939FBD
:1031D000B00D1124AB52BE4FFE01319601900D92FD
:1031E0009A95E1F78093D4010E947B16B9CF819F15
:1031F000C00111248B529E4F0E9400178823E9F0D2
:10320000E091D3011E9FF0011124EB52FE4F40814B
:10321000518162817381848195810E946B168091B6
:10322000D30190E00196877099278093D301809114
:10323000D3019091D4018913DACF2C960FB6F8946C
:10324000DEBF0FBECDBFDF91CF911F91089569857D
:103250007A858B859C850E946B1682CFEF92FF92B8
:103260000F931F93CF93DF938C01892B89F0F12C5F
:10327000EE24E394E8012196F8018491843709F45F
:1032800057C0A0F4823009F43EC048F48130D1F038
:10329000DF91CF911F910F91FF90EF9008959CEFD8
:1032A000980F9037A8F70E94A0120AC0853709F43A
:1032B0004CC09CE7980F903758F78F770E942E13D9
:1032C0008E0116C00E5F1F4FFE01849190E2980F91
:1032D000983060F48770FE2D01C0FF0F8A95EAF7E1
:1032E0008F2F0E94971C0E94C11C02C00E94A01236
:1032F0008F2D815008F4BECFEFE9FFE03197F1F751
:1033000000C00000F6CF0E5F1F4FFE01849190E2D7
:10331000980F983050F48770FE2D01C0FF0F8A95EA
:10332000EAF78F2F0E949D1CDECF0E942E13E0CF64
:103330000E5F1F4FFE01C491C150D0F28FE99FE094
:103340000197F1F700C00000F7CF0E5F1F4FFE019D
:10335000F490CECF08950C94AA190E94AB196093F3
:103360002D0270932E0280932F02909330020C94C2
:10337000191608950C94AD19CF93DF9300D000D0A7
:10338000CDB7DEB769837A838B839C8380912D02CE
:1033900090912E02A0912F02B091300229813A81A2
:1033A0004B815C81282B392B4A2B5B2B29833A8359
:1033B0004B835C83CA01B9010F900F900F900F905F
:1033C000DF91CF910C94AD19CF93DF9300D000D053
:1033D000CDB7DEB769837A838B839C8380912D027E
:1033E00090912E02A0912F02B091300229813A8152
:1033F0004B815C81282339234A235B2329833A8329
:103400004B835C83CA01B9010F900F900F900F900E
:10341000DF91CF910C94AD19CF93DF9300D000D002
:10342000CDB7DEB769837A838B839C8380912D022D
:1034300090912E02A0912F02B091300229813A8101
:103440004B815C81282739274A275B2729833A83C8
:103450004B835C83CA01B9010F900F900F900F90BE
:10346000DF91CF910C94AD190C94AA190C94341AD5
:103470000E94361A6093290270932A0280932B02CD
:1034800090932C020C94191660E070E0CB010C9420
:10349000381A0F931F93CF93DF9300D000D0CDB78E
:1034A000DEB741E050E060E070E08A019B0104C0BB
:1034B000000F111F221F331F8A95D2F709831A8329
:1034C0002B833C83C901B8010F900F900F900F9090
:1034D000DF91CF911F910F910C94381A0F931F9386
:1034E000CF93DF9300D000D0CDB7DEB741E050E0FE
:1034F00060E070E004C0440F551F661F771F8A9577
:10350000D2F78091290290912A02A0912B02B091CA
:103510002C028A019B01082B192B2A2B3B2B098398
:103520001A832B833C83C901B8010F900F900F9031
:103530000F90DF91CF911F910F910C94381A0F9338
:103540001F93CF93DF9300D000D0CDB7DEB741E01B
:1035500050E060E070E004C0440F551F661F771F05
:103560008A95D2F740955095609570958091290283
:1035700090912A02A0912B02B0912C028A019B010A
:10358000082319232A233B2309831A832B833C8393
:10359000C901B8010F900F900F900F90DF91CF915C
:1035A0001F910F910C94381A0F931F93CF93DF93B1
:1035B00000D000D0CDB7DEB741E050E060E070E071
:1035C00004C0440F551F661F771F8A95D2F780915C
:1035D000290290912A02A0912B02B0912C028A011B
:1035E0009B01082719272A273B2709831A832B8346
:1035F0003C83C901B8010F900F900F900F90DF919D
:10360000CF911F910F910C94381ACF93DF9300D074
:1036100000D0CDB7DEB769837A838B839C8380919A
:10362000290290912A02A0912B02B0912C022981AB
:103630003A814B815C81282B392B4A2B5B2B2983C8
:103640003A834B835C83CA01B9010F900F900F90AE
:103650000F90DF91CF910C94381ACF93DF9300D065
:1036600000D0CDB7DEB769837A838B839C8380914A
:10367000290290912A02A0912B02B0912C0229815B
:103680003A814B815C81282339234A235B23298398
:103690003A834B835C83CA01B9010F900F900F905E
:1036A0000F90DF91CF910C94381ACF93DF9300D015
:1036B00000D0CDB7DEB769837A838B839C838091FA
:1036C000290290912A02A0912B02B0912C0229810B
:1036D0003A814B815C81282739274A275B27298338
:1036E0003A834B835C83CA01B9010F900F900F900E
:1036F0000F90DF91CF910C94381A0895E82F2CE0A9
:10370000929FE00D11248E2F877041E001C0440F7D
:103710008A95EAF7E695E695E69585E0E89FF0015B
:103720001124E55FFD4F30E020E070E05191DF01B2
:103730001197CB01022E02C0969587950A94E2F765
:10374000817081958527842385278C932F5F3F4F38
:103750002530310559F70895E82F2CE0929FE00DB0
:1037600011249E2F9770E695E695E69585E0E89FF3
:10377000F0011124E55FFD4F50E040E080E0219131
:1037800030E0092E02C0369527950A94E2F72170A1
:103790003327042E01C0220F0A94EAF7822B4F5FD1
:1037A0005F4F4530510559F70895BF92CF92DF9290
:1037B000EF92FF920F931F93CF93DF938C01C090F2
:1037C0002902D0902A02E0902B02F0902C028091E6
:1037D0002D0290912E02A0912F02B0913002C82AA2
:1037E000D92AEA2AFB2ACFE1D0E0BC2ED701C601B4
:1037F0000C2E04C0B695A795979587950A94D2F795
:1038000080FD0EC0219788F7B12C8B2DDF91CF91D1
:103810001F910F91FF90EF90DF90CF90BF90089590
:10382000B8018C2F0E941E04019761F3EECFCF9355
:10383000DF93D82FC92F0E94D51B6D2F7C2FDF91CE
:10384000CF910C941E041F93CF93DF93162FD72F85
:103850009091D201992339F0862F972FDF91CF9144
:103860001F910C94171C882391F0862F972F0E948C
:10387000D51BC82F682F812F9D2F0E947E1B612F83
:103880007D2F8C2FDF91CF911F910C941E04862FDA
:10389000972F0E94AC1BC82FF2CF682F8091100188
:1038A000909111010C94691E682F809110019091E4
:1038B00011010C94741E80911001909111010C94CF
:1038C0007F1E80913102859585958595089580911B
:1038D00031028770089590913102977081E009F468
:1038E00080E0089580915502089590915502982B9B
:1038F000909355020895982F9095809155028923B1
:1039000080935502089510925502089590915402A3
:10391000982B909354020895982F9095809154027B
:10392000892380935402089510925402089590912F
:103930005302982B909353020895982F909580915D
:1039400053028923809353020895109253020895DD
:1039500080913202089508950C94AB1C909132022C
:10396000981721F0809332020C94AC1C089580913A
:103970003202882329F01092320280E00C94AC1CB1
:103980000895E0911001F09111018091550280831A
:10399000E0911001F0911101808190915402892BE6
:1039A0008083E0911001F091110180819091530288
:1039B000892B808390913202992381F0E09110014C
:1039C000F09111018081892B808380911001909169
:1039D00011010E94D11D81110E94B71C809110011C
:1039E000909111010C945F1108950C94F41C98E0CF
:1039F000899F90011124622B609331020E946E1AFC
:103A0000809131028595859585950C94F51C1092D1
:103A1000310280E00C94F51C90913102809589234D
:103A200080933102282F277071F4282F082E000C64
:103A3000330B9217130639F08595859585950E946D
:103A40009F1A0C94071D089590E080E00E94C827FB
:103A50009C0181E02C3E3E4F09F080E0089582E019
:103A600090E00C94BA2783E090E00C94BA27CF93AF
:103A700084E090E00E94BA27C82F81E290E00E9483
:103A8000BA27982F8C2FCF910895CF93682FC92FE5
:103A900084E090E00E94CE276C2F81E290E0CF91ED
:103AA0000C94CE2786E090E00C94BA27682F86E02D
:103AB00090E00C94CE27AB01BC018FE090E00C9419
:103AC000E027AB01BC0183E190E00C94E02760E0CB
:103AD00070E0CB010C94611D60E070E0CB010E94AE
:103AE0005B1D0C94671D6CEE7EEF90E080E00E9401
:103AF000EC2760E082E090E00E94CE2760E083E067
:103B000090E00E94CE2710922D0210922E02109269
:103B10002F021092300260E084E090E00E94CE27F5
:103B200060E081E290E00E94CE2760E085E090E0D6
:103B30000E94CE2760E086E090E00E94CE276FEFE3
:103B400087E090E00E94CE2740E050E0BA0188E094
:103B500090E00E94E02760E08DE090E00E94CE2798
:103B600040E050E0BA0188E190E00E94E02760E088
:103B700087E190E00E94CE2740E050E0BA018CE15E
:103B800090E00E94E02760E080E290E00E94CE2773
:103B90000C946C1D0C94731D682F8EE090E00C94B7
:103BA000CE27FC01329680911C01882321F0809160
:103BB000A2029EE187FF96E080E0915008F408950C
:103BC00021912223D1F38F5FF8CF9C01662301F16D
:103BD00080911C018823F1F08091A20287FF1AC016
:103BE000462F469546954695603F90F4677081E074
:103BF00090E002C0880F991F6A95E2F7240F311DEB
:103C0000F901228130E02823392381E0232B71F44C
:103C100080E00895F9013296285F3F4F8191861721
:103C200021F0E217F307D1F7F3CF81E008959C016B
:103C3000FC0132968FEF90E04191461751F08F3F93
:103C400019F4411101C0892F9F5F9630A9F78F3F6A
:103C500009F40895280F311D87FD3A95F901628313
:103C600008959C01FC013296285F3F4F8191861395
:103C700003C0DF0111971C92E217F307B9F708950B
:103C8000E62FE695E695E695603F68F4E80FF92F94
:103C9000F11D677021E030E001C0220F6A95EAF75C
:103CA0008281822B82830895E62FE695E695E6953C
:103CB000603F70F4E80FF92FF11D677081E090E02C
:103CC00001C0880F6A95EAF78095928189238283E3
:103CD000089520911C01222329F02091A20227FDA2
:103CE0000C94401E0C94171E20911C01222329F0D5
:103CF0002091A20227FD0C94541E0C94311EFC014D
:103D0000329680911C01882351F08091A20287FF96
:103D100006C08EE1DF011D928A95E9F7089586E0DD
:103D2000F9CF089508950C94921E0E94931E8091DD
:103D3000A802843061F11092570288E190E020E4FB
:103D40000FB6F894A895809360000FBE2093600092
:103D500080E00E94DE0E80E00E949E030E94931E7F
:103D600083B7817F846083BF83B7816083BF78948A
:103D7000889583B78E7F83BF0FB6F894A8958091FE
:103D80006000886180936000109260000FBE08950B
:103D90000895CF930E94911E0E9475060E94C81E2E
:103DA000C0E08C2F0E940606892B31F4CF5FC4300F
:103DB000C1F780E0CF91089581E0FCCF08950C9485
:103DC000DE1E0E942B160E94DD0D0E9453110E94E0
:103DD0009E030C94DF1E1F921FB61F9211248F9317
:103DE0009F93AF93BF9380915702811113C080912D
:103DF0009E0290919F02A091A002B091A1024196D3
:103E0000A11DB11D80939E0290939F02A093A002DA
:103E1000B093A102BF91AF919F918F911F901FBE50
:103E20001F90189582E084BD93E095BD9AEF97BDF1
:103E300080936E0008952FB7F89480919E02909120
:103E40009F02A091A002B091A1022FBF08959C01F2
:103E50004FB7F89480919E0290919F02A091A0028A
:103E6000B091A1024FBF821B930B089578941F92CB
:103E70001FB61F9211248F939F93AF93BF9380918E
:103E80009E0290919F02A091A002B091A102019682
:103E9000A11DB11D80939E0290939F02A093A0024A
:103EA000B093A102BF91AF919F918F911F901FBEC0
:103EB0001F90189581E08093E00080E28093D80005
:103EC0001092C9008FE19EE40197F1F700C0000055
:103ED00087E090EBDC018093B1029093B202A09353
:103EE000B302B093B40288E19CE00FB6F894A895B1
:103EF000809360000FBE90936000FFCFCF93DF935D
:103F000000D000D0CDB7DEB70E94241D811102C0C1
:103F10000E94CA1D0E942F1D809356020E94371DC9
:103F20009093A3028093A2020E94331D282F30E0B9
:103F300050E040E029833A834B835C83CA01B90196
:103F40000F900F900F900F90DF91CF910C94BA19B2
:103F50000F931F93CF93DF9300D000D0CDB7DEB780
:103F600041E050E060E070E08A019B0104C0000F76
:103F7000111F221F331F8A95D2F709831A832B83BF
:103F80003C83C901B8010E94BA190F900F900F909D
:103F90000F90DF91CF911F910F910C942B16EBEFA7
:103FA000E80FEF3308F065C0F0E0EC5BF74D0C94E0
:103FB0008D270E94CA1D81E0089580915602807F5E
:103FC0008093560281E08093580208950E942B1638
:103FD0002FEF83ED90E3215080409040E1F700C047
:103FE00000000E945A1FE7CF90915602892F8E7FC2
:103FF00090FF81608093560280FDDDCF817F8093AA
:104000005602D9CF90915602892F8D7F91FF826001
:104010008093560281FFCFCF809156028160EFCF0F
:1040200090915602892F8B7F92FF84608093560275
:1040300082FDF2CFC0CF90915602892F877F93FFE8
:1040400088608093560283FDE7CFB5CF0E942B1680
:104050009091A202892F97FB87F980588093A20242
:10406000AACF80E00E94A81FA6CF8953FBCF8D5115
:10407000F9CF80E0089580E008950C943B20CF9321
:10408000C82F80915802882331F0813099F0109226
:10409000580280E00DC00E94721C8232D1F78C2F32
:1040A0000E943B20811119C08C2F0E94CF1F81706C
:1040B000CF9108950E94721C823289F38C2F0E9446
:1040C0003D20811112C0C93229F050F4CB3069F083
:1040D000C43169F71092580206C081E090E0E7CF42
:1040E00081E0C83321F380E0E2CF81E0E0CF80912E
:1040F000790208950895CF93DF9300D00F92CDB742
:10410000DEB79091A802943019F589836A837B8386
:1041100082E08093E9008FEF9091E800815095FD57
:1041200006C095ED9A95F1F700008111F5CF8091C9
:10413000E80085FF0DC050E040E063E070E0CE0194
:1041400001960E94AB228091E8008E778093E80070
:104150000F900F900F90DF91CF910895CF93DF9341
:10416000D82FC92F0E948E22823011F0843039F46A
:104170006D2F7C2F84E0DF91CF910C947B20DF9119
:10418000CF910895BC0183E00C947B20CF93DF9303
:10419000D82FC92F0E948E22823011F08430C9F5A9
:1041A00080911C018823C1F18091A20287FF34C055
:1041B00060E282E08093E9008FEF9091E800815007
:1041C00095FD06C095ED9A95F1F700008111F5CFA8
:1041D0008091E80085FF1DC080911C0170E050E0D7
:1041E00040E0811104C050E040E068E070E08D2FB5
:1041F0009C2F0E94AB228091E8008E778093E8008C
:1042000080E2ED2FFC2FA9E5B2E001900D928A9596
:10421000E1F7DF91CF91089568E081E0CBCF809105
:10422000A702811109C00E9433240E94902480912A
:10423000E20084608093E20008951092A70208953E
:10424000089508950C94E11E42E061EC81E00E9423
:10425000AF2342E261EC82E00C94AF238091AA028A
:10426000893089F148F4823009F49DC0833009F423
:1042700058C0813041F008958A3009F484C08B30F1
:1042800009F46AC008958091A902813A09F048C0F2
:104290008091E800877F8093E8008091AD02909143
:1042A000AE02892B61F460E289E592E070E00E9441
:1042B000FA228091E8008B778093E800089560E00F
:1042C00090E080E0F3CF8091A902813249F580919E
:1042D000AD029091AE02029718F58091E800877FB9
:1042E0008093E8008091E80082FF16C09091F3006F
:1042F0008091F200029729F48091F1008B7F813048
:1043000021F48091F100809379028091E8008B770D
:104310008093E8000C94E3238091A8028111E2CFFE
:1043200008958091A902813AD9F78091AD029091C8
:10433000AE02892BA9F78091E800877F8093E8007F
:104340008091E80080FFFCCF80911C018093F100F8
:104350008091E8008E77DCCF8091A902813201F74D
:104360008091AD029091AE02892BD1F68091E80048
:10437000877F8093E8000E94E3238091AB028093C3
:104380001C010C942B168091A902813249F6809170
:10439000E800877F8093E8000E94E3238091AC02CD
:1043A00080937A0208958091A902813A09F0B8CFEA
:1043B0008091E800877F8093E8008091E80080FF8B
:1043C000FCCF80917A02C2CF84B7877F84BF0FB6BB
:1043D000F894A895809160008861809360001092A5
:1043E00060000FBE80E890E00FB6F8948093610003
:1043F000909361000FBE0E94B4110E9433240E946A
:1044000090248091E20084608093E20078940E947E
:1044100018270E94BC1182E191E00E944E11809108
:10442000A802853019F00E94C811F9CF0E94951E8C
:104430008091A602882399F30E94C91E882379F3EC
:104440000E949522ECCF0C942522FC01CB01DA01CD
:104450002F2F332723303105D1F070F4213031056F
:1044600009F445C02230310569F48BE390E02FEC6C
:1044700034E02D933C9308952132310521F122320D
:10448000310559F190E080E030E020E0F2CFCF013B
:104490009927E230A9F08330910550F4009769F034
:1044A000E7EBF4E0019771F7849190E09F01E1CF91
:1044B000E3EAF4E00397C1F3E5CFEBECF4E0F4CFEB
:1044C000E9EAF4E0F1CF892BB9F061307105D1F65A
:1044D00089E090E02AEF34E0CCCF892B91F0613075
:1044E000710581F68DE690E02CE135E0C2CF82E1E6
:1044F00090E02AE035E0BDCF89E090E021EE34E0A5
:10450000B8CF80E490E029E835E0B3CF8091A802ED
:10451000843011F482E0089581E0089580917B0257
:10452000811102C00C948622089580E189BD82E148
:1045300089BD09B400FEFDCF8091D8008F7D8093A6
:10454000D8008091E00082608093E0008091E000DC
:1045500081FDFCCF0895AF92BF92CF92DF92FF9280
:104560000F931F93CF93DF936C01EB018A010E949D
:104570000224F82E811123C00115110539F0F8012C
:1045800080819181C81BD90BC80ED91EB12CA12CDA
:104590002097A9F08091E80085FD22C08091E80075
:1045A0008E778093E80001151105A1F0F801808154
:1045B0009181A80EB91EB182A08285E0F82E8F2DC0
:1045C000DF91CF911F910F91FF90DF90CF90BF901F
:1045D000AF9008950E9402248823D1F2F82EEFCFE5
:1045E000F60181916F018093F1002197FFEFAF1ADF
:1045F000BF0ACECFFC01CB012091AF023091B002B7
:104600002617370790F0009729F42091E8002E77BD
:104610002093E80040E0009751F4411108C08091D8
:10462000E80082FF31C080E00895C901F3CF2091F6
:10463000A8022223A9F12530A9F12091E80023FD49
:104640002DC02091E80022FDEACF2091E80020FF54
:10465000E2CF3091F3002091F200009719F028305A
:10466000310558F041E02830310509F040E0209153
:10467000E8002E772093E800CECF41914093F100DF
:1046800001972F5F3F4FE9CF8091A802882341F027
:10469000853041F08091E80083FFC1CF81E008952B
:1046A00082E0089583E00895FC01CB012091AF02E0
:1046B0003091B0022617370790F0009729F4209127
:1046C000E8002E772093E80040E0009751F4411174
:1046D00008C08091E80082FF32C080E00895C901DF
:1046E000F3CF2091A8022223B1F12530B1F120911E
:1046F000E80023FD2EC02091E80022FDEACF2091A2
:10470000E80020FFE2CF3091F3002091F200009703
:1047100019F02830310558F041E02830310509F012
:1047200040E02091E8002E772093E800CECF44911E
:104730004093F100319601972F5F3F4FE8CF809172
:10474000A802882341F0853041F08091E80083FF82
:10475000C0CF81E0089582E0089583E00895982F06
:10476000973028F08F708093E90081E0089590934E
:10477000E900242F762F50E0981731F07091EC006B
:104780002091ED005091F00021FD02C09F5FE8CF25
:104790003091EB003E7F3093EB003091ED003D7F98
:1047A0003093ED003091EB0031603093EB0070936B
:1047B000EC002093ED005093F0002091EE0027FDD7
:1047C000E5CF80E008958091A90287FF13C0809112
:1047D000E80082FF06C08091E8008B778093E800B4
:1047E00004C08091A8028111F2CF08958091A8029F
:1047F0008823D9F38091E80080FFF8CF8091E8000A
:104800008E77ECCF2091E4003091E50095E6A90188
:104810002091EC00822F817020FF06C08091E8007B
:1048200080FF06C080E008952091E80022FD1AC0B4
:104830008091A802882389F0853089F08091EB006F
:1048400085FD0FC02091E4003091E5004217530729
:10485000F9F29150E1F684E0089582E0089583E052
:10486000089581E008950E94A1240E94A924E0EE09
:10487000F0E0808181608083E8EDF0E080818F77D7
:10488000808319BCA7EDB0E08C918E7F8C938081E2
:104890008F7E80831092A70208950F931F93CF936A
:1048A000DF930E94A1240E94A924C8EDD0E0888152
:1048B0008F77888388818068888388818F7D8883CB
:1048C00019BC1092A8021092A4021092A602109293
:1048D000A50200EE10E0F80180818B7F8083888143
:1048E0008160888342E060E080E00E94AF23E1EED7
:1048F000F0E080818E7F8083E2EEF0E08081816055
:104900008083808188608083F80180818E7F8083AE
:10491000888180618883DF91CF911F910F910895E5
:10492000E8EDF0E080818F7E8083E7EDF0E080812C
:104930008160808384E082BF81E08093A7020C9431
:104940004D24E8EDF0E080818E7F80831092E200BC
:1049500008951092DA001092E10008951F920F92CC
:104960000FB60F9211242F933F934F935F936F9342
:104970007F938F939F93AF93BF93EF93FF93809118
:10498000E10082FF0BC08091E20082FF07C08091AE
:10499000E1008B7F8093E1000E9417278091DA006D
:1049A00080FF19C08091D80080FF15C08091DA0087
:1049B0008E7F8093DA008091D90080FF94C080E1DF
:1049C00089BD82E189BD09B400FEFDCF81E08093FD
:1049D000A8020E940F218091E10080FF19C0809100
:1049E000E20080FF15C08091E2008E7F8093E2009C
:1049F0008091E20080618093E2008091D800806223
:104A00008093D80019BC85E08093A8020E942121E0
:104A10008091E10084FF29C08091E20084FF25C0DD
:104A200080E189BD82E189BD09B400FEFDCF80919E
:104A3000D8008F7D8093D8008091E1008F7E809395
:104A4000E1008091E2008F7E8093E2008091E2009D
:104A500081608093E2008091A402882309F449C018
:104A600084E08093A8020E9422218091E10083FFCC
:104A700029C08091E20083FF25C08091E100877FFB
:104A80008093E10082E08093A8021092A4028091BA
:104A9000E1008E7F8093E1008091E2008E7F809321
:104AA000E2008091E20080618093E20042E060E0F9
:104AB00080E00E94AF238091F00088608093F00036
:104AC0000E942021FF91EF91BF91AF919F918F9113
:104AD0007F916F915F914F913F912F910F900FBEFA
:104AE0000F901F90189519BC1092A8020E941D21CA
:104AF00072CF8091E30087FD02C081E0B2CF83E0F6
:104B0000B0CF1F920F920FB60F9211242F933F93A5
:104B10004F935F936F937F938F939F93AF93BF93C5
:104B2000CF93DF93EF93FF93D091E900DF708091F3
:104B3000EC00C82FC17080FDC0E81092E9008091A0
:104B4000F000877F8093F00078940E94C525109232
:104B5000E9008091F00088608093F000CD2BCF7049
:104B6000C093E900FF91EF91DF91CF91BF91AF9199
:104B70009F918F917F916F915F914F913F912F9175
:104B80000F900FBE0F901F9018951F93CF93DF9338
:104B9000CDB7DEB7AA970FB6F894DEBF0FBECDBF74
:104BA00089EA92E0FC0101962091F100208322E045
:104BB000813B9207B9F70E942E218091E80083FF84
:104BC0001EC18091A9029091AA029A3008F017C1E3
:104BD000E92FF0E0ED57F74D0C948D27803899F0D0
:104BE000823809F00CC18091AD028F70873008F0D7
:104BF00006C18093E9008091EB0085FB882780F94E
:104C00001092E90006C08091A5029091A602911130
:104C100082609091E800977F9093E8008093F10084
:104C20001092F1008091E8008E77E5C0882309F4A6
:104C3000D3C0823009F0E3C08091AB028111D6C0AD
:104C40008091AD028F702FEF280F263008F0D7C06B
:104C50008093E9002091EB0020FFC8C0933031F42D
:104C60008091EB0080628093EB00C0C09091EB00DC
:104C700090619093EB0021E030E001C0220F8A9513
:104C8000EAF72093EA001092EA008091EB00886036
:104C9000EACF8111B4C01091AB021F778091E3007D
:104CA0008078812B8093E3008091E800877F809358
:104CB000E8000E94E3238091E80080FFFCCF809110
:104CC000E30080688093E30082E0111183E0809329
:104CD000A80295C08058823008F091C08091AB0244
:104CE0009091AC028C3D23E09207A1F583E08A838A
:104CF0008AE289834FB7F894DE01139620E03EE004
:104D000051E2E32FF0E050935700E49120FF03C0FD
:104D1000E295EF703F5FEF708E2F90E0EA30C0F0C9
:104D2000C7968D939D932F5F243159F74FBF809184
:104D3000E800877F8093E8006AE270E0CE01019688
:104D40000E94FA228091E8008B778093E80057C098
:104D5000C096E7CF6091AD027091AE02AE014F5F99
:104D60005F4F0E942322BC01892B09F448C0809127
:104D7000E800877F8093E80089819A810E9454230C
:104D8000E1CF8038E1F58091E800877F8093E800EB
:104D90008091A4028093F10045CF811130C09091A1
:104DA000AB02923060F58091E800877F8093E80045
:104DB0009093A4020E94E3238091A402882311F01F
:104DC00084E005C08091E30087FDFACF81E0809305
:104DD000A8020E94242113C08091AB02813079F493
:104DE00081E0933009F080E08093A6021092E90000
:104DF0008091E800877F8093E8000E94E323809100
:104E0000E80083FF0AC08091E800877F8093E80074
:104E10008091EB0080628093EB00AA960FB6F89425
:104E2000DEBF0FBECDBFDF91CF911F9108950895D2
:104E3000CF938091A8028823A1F0C091E900CF70A0
:104E40009091EC00892F817090FD80E8C82B109222
:104E5000E9008091E80083FD0E94C525CF70C093D2
:104E6000E900CF910895DB018F939F930E94A227C1
:104E7000BF91AF91A29F800D911DA39F900DB29FF6
:104E8000900D11240895AA1BBB1B51E107C0AA1F56
:104E9000BB1FA617B70710F0A61BB70B881F991FDB
:104EA0005A95A9F780959095BC01CD01089597FB7F
:104EB000072E16F4009407D077FD09D00E944327EF
:104EC00007FC05D03EF4909581959F4F089570950D
:104ED00061957F4F0895A1E21A2EAA1BBB1BFD010D
:104EE0000DC0AA1FBB1FEE1FFF1FA217B307E407C9
:104EF000F50720F0A21BB30BE40BF50B661F771F21
:104F0000881F991F1A9469F7609570958095909500
:104F10009B01AC01BD01CF010895EE0FFF1F05906D
:104F2000F491E02D0994A29FB001B39FC001A39F0B
:104F3000700D811D1124911DB29F700D811D1124D2
:104F4000911D08950E949327A59F900DB49F900DE9
:104F5000A49F800D911D11240895FC0141505040E3
:104F600030F001900616D1F73197CF0108958827C8
:104F700099270895F999FECF92BD81BDF89A992796
:104F800080B50895A6E1B0E044E050E00C94F42729
:104F9000A8E1B0E042E050E00C94F427262FF99904
:104FA000FECF92BD81BDF89A019700B4021639F088
:104FB0001FBA20BD0FB6F894FA9AF99A0FBE089559
:104FC0000396272F0E94CF270E94CE27252F0E94CD
:104FD000CF27242F0C94CF270196272F0E94CF276D
:104FE0000C94CE27DC01CB01FC01F999FECF06C061
:104FF000F2BDE1BDF89A319600B40D924150504097
:10500000B8F70895F894FFCF830D8B0D920D970D8F
:105010009C0DA10DA60DAB0DB00DB50DBA0DBF0DBC
:10502000C30DC80DCB0DCE0DD10DD40DD60DD90DA0
:1050300099109F10A310B110B510B910BD10C31076
:10504000CB10CF10D310D710E310E710EB10EF10F8
:10505000F5101311FD10A710AD10DB10DF10C710F5
:10506000F91009111C112011D713D7133914391451
:105070008E14071407140714AA1454156515651522
:10508000C61507140714CF15E61FDD1FF41FDB1F1D
:1050900039203920DB1F39203920102039201B20EE
:1050A00026203920392039203920DB1F39203920AA
:1050B000DB1F3920022039203920372037203720C4
:1050C000372037203720372037203720312039202C
:1050D000E61FD91F392039203920392039203920BD
:1050E0003920392039203920312039203920DB1F5F
:1050F0003920352035203520352035203520352004
:10510000352035203120EE251626FF261626FF26CF
:0A51100049266A26FF26C126CD2697
:10511A00010204040401191A1B1C1D1E1F2021224E
:10512A0033027720C6207A20C220AE2001E200E9AD
:10513A0000EA00B500B600B700CD008301CC008AB2
:10514A000192019401210223022402250226022748
:10515A00022A02B300B4006F007000F1F0C667665D
:10516A0030943137353497F4F5F6F700010202022C
:10517A00020606060909090909090F0F0F0F0F0F81
:10518A00151515181919191919191919191923247D
:10519A00E200E900EA00B500B600B700CD008301DD
:1051AA00CC008A01920194012102230224022502E1
:0E51BA00260227022A02B300B4006F00700024
:00000001FF
