:100000000C946A030C94AE030C94C9030C94AE03D5
:100010000C94AE030C94AE030C94AE030C94AE039C
:100020000C94AE030C94AE030C946D210C94AE03AF
:100030000C94AE030C94AE030C94AE030C94AE037C
:100040000C94AE030C94AE030C94AE030C94AE036C
:100050000C94AE0335001E001F002000210022007A
:10006000230024002500260027002D002E0031004B
:1000700029002B0014001A000800150017001C00AE
:1000800018000C00120013002F0030002A0000009E
:10009000296104001600070009000A000B000D008A
:1000A0000E000F0033003400280000000000E100C3
:1000B0001D001B00060019000500050011001000BE
:1000C000360037003800E50000000000E000E200E4
:1000D0002C00E300000000002842035104510000FE
:1000E0000000000000000000000046004B004E0031
:1000F0000000000000000000000000000000000000
:10010000000000000000000035001E001F0020005D
:1001100021002200230024002500260027002D00B6
:100120002E00310029002B0014001A0008001500D1
:1001300017001C0018000C00120013002F003000E4
:100140002A000000E00004001600070009000A0071
:100150000B000D000E000F003300340028000000DB
:100160000000E1001D001B0006001900050005004D
:1001700011001000360037003800E50000000000D4
:10018000E000E2002C00E3000000000028420351E0
:1001900004510000000000000000000000004600C4
:1001A0004B004E00000000000000000000000000B6
:1001B00000000000000000000000000000003A0005
:1001C0003B003C003D003E003F004000410042003B
:1001D0004300440045000000000000000000520001
:1001E000000000000000000000000000000000000F
:1001F000000000004C000000E000500051004F00E3
:10020000000000005000510052004F0000000000AC
:10021000000000000000E1000000000000000000FD
:100220000000000000000000AC00AB00AE000000C9
:1002300000000000E000E2002C00E30000000000ED
:1002400001000000000000000000000000000000AD
:10025000000000000000000000000000000000009E
:10026000000000000000000000000000000000008E
:100270001114000000000000000000000C14000039
:10028000000000000000000000000000000000006E
:10029000000000000000000000000000000000005E
:1002A000000000000000000000000000E00000006E
:1002B000000000000000000000000000000000003E
:1002C00000000814000000000000E1000000000031
:1002D0000614000000000000000000000000000004
:1002E0000000000000000000E000E2002C00E3003D
:1002F00000000000000001000000000000000000FD
:1003000000000000000000000000000000000000ED
:1003100000000000000000000000000000000000DD
:1003200000000000000000000000000000000000CD
:1003300000000000000000000000000000000000BD
:100340000153000000000000000000000000000059
:10035000000000000000000000000000000000009D
:10036000000000000000000000000000000000008D
:10037000000000000000000000000000000000007D
:10038000000000000000000000000000000000006D
:10039000000000000000000000000000000000005D
:1003A000000000000000000000000000010000004C
:1003B00000000000000000000000005C00000000E1
:1003C000000000000000000000000000000000002D
:1003D000000000000000000032190A00047F3F1FE7
:1003E000643214643214783C1E1E140A052223253C
:1003F0002628292A2C2D2F3032333536383A3B3DEA
:100400003E4042434547494A4C4E50515355575937
:100410005A5C5E6062646668696B6D6F7173757754
:10042000797B7D7F81838587898A8C8E9092949653
:10043000989A9C9E9FA1A3A5A7A8AAACAEAFB1B362
:10044000B4B6B8B9BBBCBEBFC1C2C3C5C6C7C9CAB2
:10045000CBCCCDCED0D1D2D2D3D4D5D6D7D7D8D974
:10046000D9DADADBDBDBDCDCDCDCDCDDDDDDDDDCD2
:10047000DCDCDCDCDBDBDBDADAD9D9D8D7D7D6D5E4
:10048000D4D3D2D2D1D0CECDCCCBCAC9C7C6C5C3A6
:10049000C2C1BFBEBCBBB9B8B6B4B3B1AFAEACAAF3
:1004A000A8A7A5A3A19F9E9C9A98969492908E8CA3
:1004B0008A89878583817F7D7B79777573716F6D7D
:1004C0006B6968666462605E5C5A59575553515057
:1004D0004E4C4A4947454342403E3D3B3A3836350B
:1004E0003332302F2D2C2A292826252322FFAA7FBC
:1004F0005540000101010101010101010202020256
:1005000002020202020303030303030303040404BD
:100510000404040405050505050606060606070786
:1005200007070708080808090909090A0A0A0B0B3E
:100530000B0C0C0C0D0D0D0E0E0E0F0F0F101011DD
:100540001111121213131414151516161717181863
:1005500019191A1A1B1B1C1D1D1E1E1F20202122CB
:1005600022232424252626272829292A2B2C2D2D11
:100570002E2F30313232333435363738393A3B3C2E
:100580003D3E3F404142434445464748494A4C4D21
:100590004E4F50515354555658595A5B5D5E5F61EA
:1005A0006264656668696B6C6D6F7072737577787D
:1005B0007A7B7D7E8082838587888A8C8E8F9193DB
:1005C0009596989A9C9EA0A2A3A5A7A9ABADAFB102
:1005D000B3B5B7BABCBEC0C2C4C6C9CBCDCFD1D4E7
:1005E000D6D8DBDDDFE2E4E7E9EBEEF0F3F5F8FA8D
:1005F000FDFF09023B00020100A0FA09040000010E
:1006000003010100092101010001224000070581C9
:100610000308000109040100010300000009210191
:1006200001000122320007058303080001120110B6
:100630000100000008A0202E420002010203010474
:1006400003300000000C0341006C0069006300658A
:100650000000000803540047005200000004030992
:100660000405010980A101850319012AB7001501BC
:1006700026B700950175108100C0050C0901A10184
:10068000850419012AA002150126A0029501751002
:100690008100C005010906A101050719E029E71538
:1006A00000250195087501810295017508810305F2
:1006B00007190029FF150026FF009506750881001F
:1006C0000508190129059505750191029501750324
:1006D0009103C00011241FBECFE5D8E0DEBFCDBF1F
:1006E00004B603FE24C080915D0390915E03A09147
:1006F0005F03B09160038730904BA740B04BB9F4D3
:1007000010925D0310925E0310925F0310926003DB
:1007100014BE84B7877F84BF0FB6F894A89581B5BF
:10072000886181BD11BC0FBEE0E0F8E3099511E0DE
:10073000A0E6B0E0E6ECF1E502C005900D92A03233
:10074000B107D9F723E0A0E2B1E001C01D92AD35B9
:10075000B207E1F70E9409240C947B280C94000056
:10076000A82FB92F80E090E041E050EA609530E09A
:1007700009C02D9182279795879510F0842795279A
:10078000305EC8F36F5FA8F30895EADF8D939D9301
:100790000895CF93CFB7CF93C395839BE9F7839BFE
:1007A0000EC0839B0CC0839B0AC0839B08C0839BA5
:1007B00006C0C0913403C395C0933403A6C0DF9331
:1007C000C0914603DD27C95BDC4F839B02C0DF91EC
:1007D000E6CF2F930F931F9300B32FEF03FB20F966
:1007E0004F933F9310B34FEF012703FB21F93BE0F9
:1007F00031C04E7F012F10B3216028C0102F4D7FD4
:100800002260000000B329C04B7F2460012F00004C
:1008100010B32BC010B3477F28602AC04F7E00B3AF
:1008200020612CC04F7D10B320622FC04F7B00B3DE
:10083000206432C0422700B349934FEF00001027D5
:1008400013FB20F910B31C70C9F1297F91F2012725
:1008500003FB21F900B3237F89F2315058F11027AF
:1008600013FB22F910B3277E79F2012703FB23F94A
:100870002F7C81F200B3102713FB24F92F7971F23A
:1008800000C010B3012703FB25F92F7359F200C0F4
:1008900000B3102713FB26F9223040F200C010B33A
:1008A000012703FB27F9243028F64F77206810B37F
:1008B0000000F9CF10E81ABF00271CC03B5031954B
:1008C000C31BD04010E81ABF0881033C11F10B3460
:1008D00001F1209145031981110F1213EDCF4A81C7
:1008E000441F093659F10D3211F0013E29F74F70BE
:1008F00009F0042F009341033F914F911F910F91F5
:100900002F91DF91CAB7C7FD47CFCF91CFBFCF910E
:10091000189520914103222379F31091420311236A
:10092000C1F53430C2F1309342032093400310915B
:1009300046033BE0311B309346032DC00091420338
:1009400001303CF50AE54F7049F43091830034FDE5
:1009500024C000938300C5E3D3E023C0433049F0B3
:100960003091280334FD19C000932803C9E2D3E075
:1009700018C030911C0334FD10C000931C03CDE15E
:10098000D3E00FC02795A8F45150A9F4220F00001E
:10099000F9CF4AE503C042ED01C0432FC4E1D0E0E6
:1009A00032E011B31C60939A11BB02B320E41CE047
:1009B0005F93012756E002BB279520F4515021F4A4
:1009C000220FF9CF012756E000003B5A02BBD0F2BC
:1009D000279528F4515029F4220F0000F9CF012760
:1009E00056E0279502BB20F4515021F4220FF9CF95
:1009F000012756E02991332302BB21F6037F109192
:100A00004403110FC651D04002BB11F010934503AF
:100A100010E81ABF086011B3137F402F437F5F9126
:100A200000C000C002BB11BB42BB66CF889A899A46
:100A30008E9A08950E9416050C940415CF93C82F22
:100A40000E949705882349F0C0FF0AC0909AC1FF11
:100A500009C0919AC2FF08C0969A81E0CF9108958B
:100A60009098F5CF9198F6CF9698F7CF81E00895BA
:100A700081E008950C94380508950C943C051F936B
:100A8000CF93DF9300D000D00F92CDB7DEB749836C
:100A90005A836B833091F50189819A8131111DC090
:100AA0006623B9F02223A9F00E94D61E182F682FC2
:100AB00089819A810E947F1E69817A81812F0F909E
:100AC0000F900F900F900F90DF91CF911F910C948A
:100AD000FD050E94AD1E182FEFCF0E94D61E698122
:100AE0007A81EDCFFC01262F408151816281738193
:100AF00084810C943F05CF93DF93D82FC92F60E0FA
:100B00000E9472056D2F7C2FDF91CF910C943D05D3
:100B10000E942520811102C00E94D5200E9423122C
:100B20000C9400080C94030808950C94940581E03B
:100B30000895CF93C82F0E9495058C2FCF910C94C8
:100B40001E0508950E9431190E94A1052FEB87E22E
:100B500099E0215080409040E1F700C000000C94E3
:100B600091210F931F93CF93DF93EC0161E00E94DB
:100B700072058C01BE010E943A05882389F1BE01ED
:100B8000C8010E948311882359F1BE01C8010E9447
:100B9000BA12882329F1BE01C8010E94FE128823DF
:100BA000F9F0BE01C8010E94D1138823C9F0BE012B
:100BB000C8010E944A10882399F08A81882339F05D
:100BC00001158CE5180751F00E3D1C4579F0CE015A
:100BD000DF91CF911F910F910C9436050E94A205D1
:100BE00080E0DF91CF911F910F9108950E94D52051
:100BF000F7CF90E080E008950895972F70E02FE000
:100C0000929F600D711D1124FB019AE5899FE00DF3
:100C1000F11D1124EE0FFF1FEC5AFF4F85919491A7
:100C20000895FC01EE0FFF1FE852FC4F859194914F
:100C30000895CF93DF930E94FD050E942407EC01E5
:100C4000811521E5920708F048C0811530E593072A
:100C500008F0AFC0803E910518F5803C910508F082
:100C600096C0883A910570F4853A910508F08CC0D9
:100C70008130910531F10497813A910510F1D0E06E
:100C8000C0E01FC08F3B9105D1F3C85AD0E0CC0F14
:100C9000DD1FCC57DF4F0990D881C02DD46411C01F
:100CA000811540E3940788F4C11580E2D80708F065
:100CB00074C0C83ED10528F0CE019A9581159F4198
:100CC000F0F6CE01DF91CF910895811530E49307BE
:100CD00008F466C0DF70D06AF4CF8115964560F5E0
:100CE000C11585E5D80708F096C0C11594E5D90768
:100CF000F0F4C11523E5D20708F079C0C11532E53B
:100D0000D30708F46FC0CE018370992721E030E04B
:100D100002C0220F331F8A95E2F7C695C69540E2BE
:100D2000C49FE0011124C22BD32BDC68CACFDC2F77
:100D3000CC27C46FD06AC5CFC1158AE5D80788F41F
:100D4000C11599E5D90708F071C0CE0198558F3FBC
:100D5000910511F008F093CFDC2FCC27C06FD06A3B
:100D6000B0CFCE0190568115904208F088CF8D2FDC
:100D70008F710E94BC0790E0982F882788279F7169
:100D80009C012C2BE90150C0A497D0649ACF805CC1
:100D900091090E941106EC0194CFCE019F70F9CF0A
:100DA0009927D3FF03C0EC01D86C8BCFEC01D06C3A
:100DB00088CF74E0969587957A95E1F783702C2F0C
:100DC00026952695237040E2249F90011124382B0C
:100DD0008C2F8370C1E0D0E002C0CC0FDD1F8A955C
:100DE000E2F7A1CFDC2FCC27C16FD06A6ACFCE014A
:100DF0008370992721E030E002C0220F331F8A95CB
:100E0000E2F7C695C69580E2C89FE0011124C22B87
:100E1000D32BDA6856CF8C2F0E94BC07C82FD0E0A6
:100E2000DC2FCC27CC27DF71D0624BCF8C2F8F707B
:100E30000E94BC0734E0D695C7953A95E1F7CF708C
:100E4000DC2FC82FD0693DCF803E910599F1C8F4C1
:100E50008133910509F476C048F48932910509F48B
:100E60006AC08A32910509F474C0089589339105E6
:100E7000D1F082389105B9F08533910509F454C059
:100E80000895843E910599F138F4823E9105F9F078
:100E9000833E910509F10895863E910599F1873EBB
:100EA0009105B9F10895209184022370A1F080EE9C
:100EB00090E008952091840220FD52C03091850277
:100EC00030FF09C024FF4FC090E080E004C02091B3
:100ED000840222FDF7CF08952091840222FD46C0AE
:100EE0003091850230FDE3CF24FFF5CFEDCF209187
:100EF000850221FFF0CF8091840284FDE5CF87EE4B
:100F000090E008952091840223FFE5CF24FDDCCFFB
:100F1000F6CF2091840223FD2CC03091850231FF51
:100F2000E3CF84EE90E008952091840225FFD3CF93
:100F300089E290E008952091840225FFCCCF85E3DB
:100F400090E008952091840226FFC5CF8AE290E0C8
:100F500008952091840226FFBECF81E390E008959A
:100F600089E390E0089583EE90E0089582EE90E0AA
:100F7000089586EE90E008959091840292FF06C055
:100F8000282F28712830F9F4877F846093FF06C0EA
:100F9000282F28712831F1F4877E84612091850201
:100FA00020FF06C0382F38713830D9F4877F816030
:100FB00021FF06C0282F28712831D1F4877E816156
:100FC00094FD877E0895282F24712430F9F68B7FB5
:100FD0008860DCCF282F2471243101F78B7E886153
:100FE000DDCF382F3171313019F78E7F8860E0CF37
:100FF000282F2171213121F78E7E8861E1CF08955C
:101000000C94FF0708950C940208E82FF0E0EE0F0F
:10101000FF1FE05EFE4F808191810895089588E76B
:101020008A95F1F70895CF93DF93C1ECD0E027ECD8
:1010300030E041E050E08991E82FE295EF70A1E3C4
:10104000AE0FB0E0FC918F70BA0101C0660F8A95B7
:10105000EAF7962F90959F239C93EE5CF0E08081B9
:10106000862B80832C173D0731F7C2EBD0E021ECB3
:1010700030E041E050E08991E82FE295EF70A1E384
:10108000AE0FB0E0FC918F70BA0101C0660F8A9577
:10109000EAF7962F90959F239C93EE5CF0E0808179
:1010A000862B80832C173D0731F78CE0ECE2F1E0D2
:1010B000DF01982F1D929A95E9F7E0E2F1E0DF0158
:1010C0001D928A95E9F786E00E94FE08DF91CF9194
:1010D0000C9488056F927F928F929F92AF92BF92ED
:1010E000CF92DF92EF92FF920F931F93CF93DF93F4
:1010F00081ECC82E80E0D82E9CE2E92E91E0F92EFA
:10110000712C88248394912CF60181916F01C82F52
:10111000C295CF7001E30C0F10E0F80190818F7041
:10112000540101C0AA0C8A95EAF7892F8A29808385
:10113000CE5CD0E088816A2C6094862188830E94EE
:101140000F08E2EBF0E050E040E030E020E0619199
:10115000A62FA295AF70A05DB0E08C9190E06F706B
:1011600002C0959587956A95E2F780FD42C0C4015B
:10117000042E02C0880F991F0A94E2F7282B392BFE
:101180004F5F5F4F4F30510511F7F80180816822A2
:1011900060828881A82AA882F7018081918128171E
:1011A000390751F13183208381E0782AF2E0EF0E94
:1011B000F11C87ECC81680E0D80609F0A5CF272DD2
:1011C00046E060E271E08CE291E00E94FF080E943C
:1011D0009205872DDF91CF911F910F91FF90EF9096
:1011E000DF90CF90BF90AF909F908F907F906F9047
:1011F000089580E090E0C2CF80E0D7CF0895FF92BD
:101200000F931F93CF93DF93F82E092F162FD72F0D
:10121000C42F222349F081E080933A010E94522199
:10122000909339018093380180913A018823A1F08D
:1012300080913801909139010E945E21069760F0FB
:10124000EF2DF02FA12FBD2F90E080E0D0E08C1784
:101250009D0744F010923A01DF91CF911F910F91B9
:10126000FF900895219131912D933D930196EFCFF9
:10127000AF92BF92CF92DF92EF92FF920F931F93A4
:10128000CF93DF93362F472FE82FF0E0EE50FB4F40
:1012900071110EC06491762F862FDF91CF911F912F
:1012A0000F91FF90EF90DF90CF90BF90AF90089597
:1012B000C72FD0E0249186E0689F700111240FEFC2
:1012C00010E0C701B8010E941127832F90E0880F1A
:1012D000991F35E5369FF001379FF00D11248E1BC5
:1012E0009F0B982F990F980FF801EC1BFD0B2E9F69
:1012F000D0012F9FB00D1124EB2F949FA00111243A
:10130000452F55276801C41AD50AA601249F6001FC
:10131000259FD00C11248D2D5801A91AB108AC9E1F
:10132000A001AD9E500DBC9E500D1124452F552798
:10133000041B150B209FA001219F500D1124633029
:101340007105D9F09CEFE91693E0F90668F4613075
:101350007105B9F062307105C1F09FEFE916F10433
:1013600048F48B2FE52F06C06430710589F0663094
:101370007105B9F36E2F722F90CFED2D822F2B2F89
:10138000F9CFE22F2D2D8B2FF5CF852FE22FF7CF21
:10139000822F252FEFCF0895CF93DF93982F762FAD
:1013A000842FE901692F0E943809798368838A8331
:1013B000DF91CF9108958091D701982F9E7F29F4D6
:1013C000817082608093D70108958635E8F381703B
:1013D0008465F8CF88E090E00C9408280F931F9361
:1013E000CF93DF938B01D82FC92F0E94DB09A8016F
:1013F0006D2F7C2F88E090E0DF91CF911F910F91AE
:101400000C942528E7EDF1E083E0808311828FEFD3
:1014100082838383148263E070E08FEF9FEF0C94EC
:10142000EE098091D70180FF02C08695089580E083
:101430000895CF93DF9300D000D0CDB7DEB7909161
:10144000DB01933018F49F5F9093DB018823B1F0A8
:101450008091D7019091D801A091D901B091DA0182
:1014600089839A83AB83BC83BC01CD010F900F901D
:101470000F900F90DF91CF910C94EE090F900F9089
:101480000F900F90DF91CF91089581E00C94190A8D
:10149000CF93DF9300D000D0CDB7DEB79091DB01C2
:1014A000992319F091509093DB018823B1F080913A
:1014B000D7019091D801A091D901B091DA01898327
:1014C0009A83AB83BC83BC01CD010F900F900F902A
:1014D0000F90DF91CF910C94EE090F900F900F9029
:1014E0000F90DF91CF91089581E00C94480A70E04D
:1014F0000C942F12609167008091D70180FF0AC081
:101500008091660023E0829FC001112488569E4F7F
:101510000C94770A809168009091690023E0829F83
:10152000F0011124E856FE4F891750F711821082FE
:1015300012828F5F3396F8CF9091D70190FF14C03D
:10154000909168002091690033E0939FF00111248D
:10155000E856FE4F921710F00C947A0A818360834C
:1015600042839F5F3396F6CF0895CF93DF9300D0E9
:101570000F92CDB7DEB79091D70190FF0AC09E01C0
:101580002F5F3F4F0E94CC094B8169818A810E9465
:101590009C0A0F900F900F90DF91CF910895CF93F9
:1015A000DF93EC01EC81F0E0E351FC4F4491E7ED77
:1015B000F1E0628181810E94B50A8C818F5F8C830A
:1015C000DF91CF910895CF93DF93EC01E7EDF1E048
:1015D000438162818C810E94B50A8C818F5F8C83EC
:1015E000DF91CF9108950F931F93CF93DF9300D096
:1015F0000F92CDB7DEB78C0180913B0181110AC0FB
:101600009E012F5F3F4F4FEF6FEF0E94CC098A8101
:1016100080933B01F8016481613049F06230F1F060
:1016200080913B0140E0662331F040E019C06091B9
:101630003B0140E080E00E949C0AF801848190E038
:10164000019663E070E00E94252784830F900F903D
:101650000F90DF91CF911F910F91089540913B0121
:1016600080E060E0E8CFAF92BF92CF92DF92EF923E
:10167000FF920F931F93CF93DF9300D000D000D041
:101680000F92CDB7DEB7182FF62E042FD22E9091E1
:10169000D70190FF83C0E92FE695AE2FB0E0A953A4
:1016A000BF4F8C918093D5019E7F9230A1F59E0112
:1016B0002F5F3F4F812F0E94CC094B8169818A8126
:1016C0000E949C0A1093D801F092D9010093DA018C
:1016D000DD2009F463C08091D7019091D801A091D9
:1016E000D901B091DA018C839D83AE83BF83BC01A5
:1016F000CD0127960FB6F894DEBF0FBECDBFDF91A8
:10170000CF911F910F91FF90EF90DF90CF90BF90FE
:10171000AF900C94EE09823019F40091DA01D2CF27
:10172000863019F41091D801CDCF8930D9F38931A1
:1017300049F6E9518E2F8170C82EE695F0E0E3510D
:10174000FB4FA590B490E12CBB2460916A00E61693
:1017500018F00E947A0AB6CF2E2D30E0EA9CC00124
:10176000EB9C900D112470E00E941127812FC11075
:1017700013C0860F90916800A901490F511D9A016D
:10178000220F331F240F351F28563E4F402F6F2D39
:101790000E94CC09E394D9CF861BECCF27960FB6D5
:1017A000F894DEBF0FBECDBFDF91CF911F910F9197
:1017B000FF90EF90DF90CF90BF90AF900895282FCB
:1017C000E7EDF1E0818143816281885F0C94330B06
:1017D00081E00C94DF0B282FE7EDF1E0818143815C
:1017E000628188500C94330B81E00C94EB0B282F12
:1017F000E7EDF1E0628131E1630F08F46FEF4381BF
:1018000081810C94330B81E00C94F70B282FE7EDCA
:10181000F1E0628131E1631B08F460E04381818182
:101820000C94330B81E00C94060C282FE7EDF1E0CB
:10183000438131E1430F08F44FEF628181810C94C1
:10184000330B81E00C94150C282FE7EDF1E0438178
:1018500031E1431B08F440E0628181810C94330B39
:1018600081E00C94240C20E00C94330BEF92FF9257
:101870001F93CF93DF93EC0110E0EE24EA94F12C58
:1018800060916A00161770F00E947A0A9A818C8122
:1018900090FF27C08F5F8C83DF91CF911F91FF90C6
:1018A000EF90089520916800422F410F5527551F52
:1018B000CA019A01220F331F280F391F28563E4FA5
:1018C00070E0C7010E942527962F8C814091DA0194
:1018D0006091D901199F800D11240E94CC091F5FCE
:1018E000CFCF8150D8CFBF92CF92DF92EF92FF92AD
:1018F0000F931F93CF93DF93FC0182810FEF80FF43
:1019000001E010E080916A001817C0F00E947A0A86
:1019100080913D01013009F054C0811102C08091D5
:101920006A00815080933D01DF91CF911F910F910B
:10193000FF90EF90DF90CF90BF9008958091680066
:10194000C12ED12C8C0D9D2D911DEC01CC0FDD1FD6
:10195000C80FD91FC856DE4F198218821A8234E088
:10196000E32EF12CB12C80913D018B0D83311CF1C4
:1019700062E10E940327892F082E000C990BC816DC
:10198000D90691F48091DA018E9DA0018F9D500DB2
:10199000112455954795559547959E016091D9011C
:1019A0008091D8010E94CC09B00EF1E0EF1AF10845
:1019B000D1F61F5FA7CF87FFDFCF90916A00890F15
:1019C000DBCF90E0019660916A0070E00E942527CD
:1019D000A9CF0F931F93CF93DF93809168009091CD
:1019E000690023E0829FF0011124E856FE4F891719
:1019F00040F1C0E0D3E060916A00C61740F10E9458
:101A00007A0A2091640080913C01820F80933C010E
:101A100090916500920F90936500191654F4082E6A
:101A2000000C990B40916A004150550B84179507A3
:101A30001CF0219520936400DF91CF911F910F91AD
:101A400008951182108212828F5F3396D0CF0C2FAF
:101A500010E070E0C8010E94252720916800820FE5
:101A6000482F50E020913C01022E000C330B02174E
:101A70001307BCF020916500022E000C330B2017D9
:101A800031077CF08D9F9001112428563E4F4091E4
:101A9000DA016091D9018091D8010E94CC09CF5F11
:101AA000AACFFA01EE0FFF1FE40FF51FE856FE4F15
:101AB000118210821282F3CF0F931F93CF93DF9383
:101AC0008C01FC0184819581019681709927958311
:101AD0008483C0E0D5E580916A00C81730F0DF91BB
:101AE000CF911F910F910C947A0A20916800422F98
:101AF0004C0F5527551FCA019A01220F331F280F7B
:101B0000391F28563E4F4C2F4695F8018481958108
:101B1000840F911D81704091DA016091D9018D9FF0
:101B2000802D11240E94CC09CF5FD5CF0F931F9336
:101B3000CF93DF93EC0110E000E090916A009017E2
:101B4000110609F06CF40E947A0A8C8190E00196EB
:101B5000817099278C83DF91CF911F910F91089508
:101B600080916800A801480F511D9A01220F331F70
:101B7000240F351F28563E4F4C816091D90180912A
:101B8000D80196959017110651F04CF0442349F076
:101B90004091DA010E94CC090F5F1F4FCECF442342
:101BA000B9F340E0F7CF8F929F92AF92BF92CF925E
:101BB000DF92EF92FF920F931F93CF93DF93FC017D
:101BC000B280948081E0848300E015E05BE4A52E80
:101BD00088248394EE24EA94F12C7BE4C72ED12C44
:101BE00080916A00081770F0DF91CF911F910F91DB
:101BF000FF90EF90DF90CF90BF90AF909F908F902D
:101C00000C947A0AC02FD0E01C9FF0011D9FF00DAC
:101C10001124E25CFE4F91101CC01382128280914D
:101C200068008C0F9D2F911D9C01220F331F280FE0
:101C3000391F28563E4F1C9FF0011D9FF00D1124A7
:101C4000E25CFE4F4281618180810E94CC090F5F7E
:101C5000C7CF2381222379F12150238334818A2D18
:101C6000821B311101C0822F1C9FF0011D9FF00DBE
:101C70001124E25CFE4F9091DA01899FC00111248A
:101C8000B6010E9411276283211104C0332311F091
:101C90001482A38222E02B1510F21C9FF0011D9FDD
:101CA000F00D1124E25CFE4F8091D8018083809179
:101CB000D9018183B4CF0E94E327823091400CF098
:101CC000AECF82E08B1530F50E94E327B7010E946A
:101CD00025271C9FF0011D9FF00D1124E25CFE4F93
:101CE000808322E02B15C8F40E94E3272091D901BC
:101CF0002695622F70E00E942527280F1C9FF00177
:101D00001D9FF00D1124E25CFE4F21831282A382FD
:101D1000848285CF8091D801DCCF2091D901EECF8C
:101D2000CF93DF9300D000D0CDB7DEB7E7EDF1E081
:101D300080818E7F808380819181A281B38189831C
:101D40009A83AB83BC83BC01CD010E94EE09109243
:101D5000D6019FEBA4EDB1E09150A040B040E1F777
:101D600000C000000F900F900F900F90DF91CF9167
:101D70000C947A0A6091D701669570E04BE050E0D0
:101D80008BE690E00E94F327892B19F481E0809381
:101D9000D6010E9452219093CF018093CE010895E5
:101DA000CF93DF9300D000D0CDB7DEB79091D701AD
:101DB00090FF41C09170811134C092609093D7011F
:101DC000662381F08091D7019091D801A091D9012B
:101DD000B091DA0189839A83AB83BC83BC01CD01C6
:101DE0000E94EE096091D701669570E04BE050E0EB
:101DF0008BE690E00E94F327892BD1F01092D60158
:101E000081E08093D1014091DA016091D901809104
:101E1000D8010F900F900F900F90DF91CF910C94FD
:101E2000330C8B3210F09465C9CF880F982BC6CF36
:101E30000E94BA0EE5CF0F900F900F900F90DF9198
:101E4000CF910895682F8091D70186958F5F8B324F
:101E500008F081E00C94D00E81E00C94220F682FE2
:101E60009091D70196958FEF890F913009F48AE20E
:101E70000C94D00E81E00C942F0F61E00C94D00EE6
:101E8000E7EDF1E080818160808386950C943D0FC1
:101E90008091D70180FD0C94900E0C94400F60E06F
:101EA0000C94D00E8091D40181112EC00E94252067
:101EB000811104C00E94D5200E94020A0E94EA09F2
:101EC0006093D7017093D8018093D9019093DA0180
:101ED0006E7F61F40E94020A0E94EA096093D701B2
:101EE0007093D8018093D9019093DA010E94DB09A5
:101EF0001092D6018091D70180FF03C086950E9481
:101F00004F0F81E08093D40108950F931F93CF93D7
:101F1000DF938091D601882309F49DC08091D5017B
:101F2000E091D701E695E81BE093D0018230C9F536
:101F3000F0E0E751FC4FE491CE2FD0E00FEC1AE037
:101F40008091D101882389F01092D1010E94522101
:101F50009E0120953095280F391F3093CF01209393
:101F6000CE011092D3011092D2018091CE019091B6
:101F7000CF010E945E218C179D0708F46CC0E09190
:101F8000CE01F091CF01CE0FDF1FD093CF01C093D0
:101F9000CE018EEC91E0F801DF91CF911F910F916E
:101FA0000994863049F4F0E0EA51FC4FE491CE2FD9
:101FB000D0E003EE1AE0C4CF893051F4E695F0E0AA
:101FC000ED51FC4FE491CE2FD0E006E31CE0B8CFFA
:101FD0008F3051F4E695F0E0E052FC4FE491CE2FC3
:101FE000D0E003E71CE0ACCF853149F4F0E0E352E8
:101FF000FC4FE491CE2FD0E009EE1CE0A1CFC8EE5B
:10200000D3E00CE51DE0883109F49ACF833239F42E
:10201000EBEDF3E0C591D49103EF1AE091CFC4EF5B
:10202000D1E006E91DE0843209F48ACFC0EDD7E0A3
:102030000BEC19E0853209F083CF8E2F63E00E940C
:10204000F726E92FF0E0E852FC4FE491CE2FD0E0E4
:1020500003ED1DE075CFDF91CF911F910F91089592
:10206000FA0181110994FB01FDCFCF93DF93C82FB3
:10207000D62F0E94110A8C1740F00E94110A8D176A
:1020800020F4DF91CF910C942C0F8C2FDF91CF9106
:102090000C943D0F0F931F93CF938C01FB01C281D2
:1020A000CC2309F465C00E94731F8272F801E25CC0
:1020B000FC45E431F10538F4E358F74D0C945B2707
:1020C0000E94480FC0E08C2FCF911F910F9108956F
:1020D0004AE35FE06CE27FE00E943010F3CF4CE215
:1020E0005FE06AE37FE0F8CF44EF5BE068EE7BE01F
:1020F000F3CF48EE5BE064EF7BE0EECF42E15CE0E3
:1021000063E07CE0E9CF43E05CE062E17CE0E4CFC7
:1021100040E35CE061E27CE0DFCF41E25CE060E371
:102120007CE0DACF44E75AE065E47AE0D5CF45E4D5
:102130005AE064E77AE0D0CF81E00E943D0FC2CF41
:1021400065E082E00E943510BDCF68E086E0FACFFE
:102150006EE089E0F7CF64E18FE0F4CF67E185E1DD
:10216000F1CF88E1EACF62E289E1ECCF83E2E5CF0B
:10217000C1E0A9CF0E942520811102C00E94D52074
:102180000E945D208093DC01803220F0877088619E
:102190008093DC019091DC01892F817090FF04C055
:1021A000892F8695869586950C94BB118091DC01CC
:1021B000982F969596959695883140F49F5F990F44
:1021C000990F990F8770892B8093DC018091DC0136
:1021D00081608093DC010E9461208091DC01869502
:1021E000869586950C94BB118091DC01982F987F81
:1021F00079F088508093DC01887F91E009F490E0C9
:102200008091DC0190FB80F98093DC010E946120C9
:102210008091DC018695869586950C94BB11809102
:10222000DC0180FD13C081608093DC01813019F4F2
:1022300089E08093DC018091DC010E946120809123
:10224000DC018695869586950C94BB110895809146
:10225000DC0180FF08C08E7F8093DC010E9461203A
:1022600080E00C94BB1108958091DC0180FD0C94FA
:1022700027110C940F119091DC01892F869586957A
:1022800086958F5F8F7197708430D8F4880F880F90
:10229000880F892B8093DC018091DC01887F91E09D
:1022A00009F490E08091DC0190FB80F98093DC01DF
:1022B0000E9461208091DC018695869586950C941C
:1022C000BB119093DC01E8CF843008F083E090915B
:1022D000DC019770282F220F220F220F922B909350
:1022E000DC01987F21E009F420E09091DC0120FBE3
:1022F00090F99093DC010C94BB110E9464118091C1
:10230000DC010C9461209C01FB018281882361F136
:102310002E3BFCE53F07F9F060F42C3BECE53E0773
:10232000A9F02D3BFCE53F0799F02B3B3C4549F0DC
:1023300008952F3BECE53E0789F0203C3C4589F0B1
:10234000089583E00E947D1180E0089580E0FACF37
:102350000E94F410F9CF0E94D610F6CF0E943411DB
:10236000F3CF0E943B11F0CF81E008958C9A9498AE
:10237000089594980895CF93DF93CDB7DEB728974B
:102380000FB6F894DEBF0FBECDBF8983843040F511
:10239000811128C08FB58F7D8FBD0E94B9114981F1
:1023A000242F30E0AFEFBFEF0E94612723E030E041
:1023B00040E050E00E943927C9012C3764E136071C
:1023C000A8F469E070E00E94112779BD68BD2896E5
:1023D0000FB6F894DEBF0FBECDBFDF91CF91089549
:1023E00023E029838FB580628FBDD9CF2A50374D26
:1023F0004F4F5F4FB42FA32F922F8827BC01CD01E1
:1024000025EF38E241E050E00E94392729833A83E2
:102410004B835C83CA01B9010E94E7269B01AC0192
:1024200069817A818B819C810E94E726BB27A92F35
:10243000982F872FBC010097A140B10531F66FEFAF
:102440007FEFC3CF08950E94B61182E28FBD89E16C
:102450008EBD8FEF9FEF97BD86BD0C94BA100F9382
:102460001F93CF93DF938C01EB018091DD018111EC
:1024700005C00E94FB1381E08093DD01AE01440F93
:10248000551F4C0F5D1F24E630E0B80180EBDF9153
:10249000CF911F910F910C9489140F931F93CF9399
:1024A000DF93C62FD42F022FFC0182818823C9F02D
:1024B0006093E0010E9452219093DF018093DE013E
:1024C00080E28C0F883008F050C0C77081E001C0F6
:1024D000880FCA95EAF7DF91CF911F910F910C9465
:1024E0007C161091E001161335C08091DE019091A9
:1024F000DF010E945E21883C910560F5C0E2CD0FAE
:102500001D17B9F080E2810F883040F4177081E028
:1025100001C0880F1A95EAF70E948316C83048F464
:1025200081E09D2F977001C0880F9A95EAF70E946D
:102530007C16802F0E946916C830B8F4D77081E0ED
:1025400001C0880FDA95EAF7DF91CF911F910F91C3
:102550000C94831680E28C0F883038F4C77081E0C9
:1025600001C0880FCA95EAF7EFCFDF91CF911F9195
:102570000F9108959C01CB01233F4CE5340769F18D
:1025800090F4283DFCE53F0721F1293D4CE5340757
:1025900081F1273D3C45B1F0FC018281882361F146
:1025A0001092E0010895253FFCE53F07D1F0263F5A
:1025B0004CE53407D1F0243F3C4571F727E245EE66
:1025C00064EE03C026E241EE61EE0E944D1280E00F
:1025D000089527E245EE65EEF8CF26E241EE60EE83
:1025E000F4CF26E241EE62EEF0CF27E245EE66EE52
:1025F000ECCF28E241E0EFCF81E00895CF93DF9365
:10260000EC01FB018281882309F4C9C0C631FCE5D5
:10261000DF07E0F4C2309CE5D907F0F00E944220C9
:102620009093850280938402C631ECE5DE0720F5A5
:10263000C230FCE5DF0798F4809184029091850216
:102640000E9450200E94311980E006C09E012A5F3E
:102650003C452930310510F3DF91CF910895FE01FB
:10266000E350FC45809184028160E331F10588F4F8
:10267000EF56F74D0C945B27CA5FDC45C930D10596
:10268000D8F6CC55D74DFE010C945B27809184027F
:10269000826080938402D0CF809184028460F9CFDD
:1026A000809184028860F5CF80918502816080935B
:1026B0008502C2CF809185028260F9CF8091840229
:1026C0008061E7CF809184028062E3CF80918402B1
:1026D0008064DFCF0E943119809184028068D9CF55
:1026E000809184028C60D5CF809185028360DFCF9A
:1026F000809184028E7FCDCF809184028D7FC9CF5F
:10270000809184028B7FC5CF80918402877FC1CF67
:10271000809185028E7FCBCF809185028D7FC7CF40
:10272000809184028F7EB5CF809184028F7DB1CF5E
:10273000809184028F7BADCF0E94311980918402F9
:102740008F77A7CF80918402837FA3CF809185026A
:102750008C7FADCF8091840282FB992790F921E094
:10276000922790FB82F990FB83F993CF80918502A9
:10277000982F909591708E7F892B90FB81F997CF40
:102780000E94311990918402892F97FB87F9805814
:1027900080CF81E00E94D7204FCF80E0FBCF81E047
:1027A0005BCFCF93DF93EB0186319C4511F50E94FF
:1027B000731F9A81992399F08A7A91E009F490E045
:1027C0009093E101811109C089E20E944E1F0E948D
:1027D000C21F80E0DF91CF91089585E3F6CF80910D
:1027E000E101811104C089E20E94551FF0CF85E309
:1027F000FBCF81E0EFCF11B887E080B985B383606C
:1028000085BB86B7846086BF86B7816086BF86B782
:10281000806486BF0895EF92FF920F931F93CF932A
:10282000DF93182FEB0116BE84EA86BF0E94522167
:102830007C0106B607FE21C081B1887F883021F077
:1028400081B1887F8031B9F513B984E886BF0E94D1
:1028500052218C0106B607FE23C021B1287F90E0EB
:1028600080E02831B1F081E090E0203411F490E074
:1028700080E09195819591090CC0CF3FDC07C9F2AA
:102880000E9452218E199F098C179D0790F28EEF9E
:102890009FEFDF91CF911F910F91FF90EF900895DF
:1028A000CF3FDC07B9F20E945221801B910B8C179D
:1028B0009D0780F2ECCF8FEF9FEFEBCF0F931F932D
:1028C000CF93DF93EB0183B984E886BF0E94522146
:1028D0008C0106B607FE10C021B1287F81E090E090
:1028E000283211F490E080E0919581959109DF9173
:1028F000CF911F910F910895CF3FDC0751F30E94B4
:102900005221801B910B8C179D0718F38EEF9FEFC0
:10291000EECFCF92DF92EF92FF920F931F93CF9360
:10292000DF936B018A01F22EE32E622F732F0E9438
:102930000B14AC01E6010C0D1D1DC017D10711F0E1
:1029400057FF0CC084E986BFCA01DF91CF911F9168
:102950000F91FF90EF90DF90CF9008956F2D7E2D17
:1029600089910E945E14AC01E8CF9093E7018093B7
:10297000E6010895E091E601F091E701309721F03A
:102980000190F081E02D099480E00895E091E60146
:10299000F091E701309721F00280F381E02D099456
:1029A00008952091E4013091E5012817390771F06D
:1029B0009093E5018093E401E091E601F091E70155
:1029C000309721F00680F781E02D09940895209139
:1029D000E2013091E3012817390771F09093E30188
:1029E0008093E201E091E601F091E701309721F058
:1029F0000084F185E02D0994089584B7806884BF30
:102A000084B7806884BF08950895089508950C944C
:102A100006150E94FD140E9405150C941A0581E00C
:102A200008950C940F150E944B210E9413080E94D8
:102A3000F5210E94BA100E94520F0C9407159F9224
:102A4000AF92BF92CF92DF92EF92FF920F931F93BC
:102A5000CF93DF9300D000D00F92CDB7DEB70E94A6
:102A60006A080E941115882309F471C059EEA52E39
:102A700051E0B52E10E000E0902E802F0E94050856
:102A80007C01F501C190D1905F01C816D90609F407
:102A900058C080917F0281FD0E940E0896012E256C
:102AA0003F2580E0CC24C394D12CA9014C215D2189
:102AB000452B09F440C089839A82EC20FD2081E0F7
:102AC000EF2809F480E08B830E9452218160782FE7
:102AD0009D838C8349815A816B818D810E94C915A8
:102AE000000F111FF801E751FE4F80819181C82628
:102AF000D926D182C0820E94850F0E9422120E9494
:102B0000BA149091E801891799F10E94BA14809340
:102B1000E8010F900F900F900F900F90DF91CF91E1
:102B20001F910F91FF90EF90DF90CF90BF90AF90EB
:102B30009F900C9499058F5FCC0CDD1C8F3009F0B1
:102B4000B4CF0F5F1F4F0630110509F095CF8FEFFF
:102B500089838A831B820E9452218160782F9D8302
:102B60008C8349815A816B818D810E94C915C3CFA5
:102B70000F900F900F900F900F90DF91CF911F91BA
:102B80000F91FF90EF90DF90CF90BF90AF909F900C
:102B90000895CF93DF93CDB7DEB72B970FB6F89498
:102BA000DEBF0FBECDBF4F83588769877A878B877B
:102BB0001E8285E0FE013796DE01119601900D928E
:102BC0008A95E1F749815A816B817C818D819E8153
:102BD0002B960FB6F894DEBF0FBECDBFDF91CF911D
:102BE0000C94931BFC01808191810C94181FCF934E
:102BF000C82F882309F443C08CEF8C0F813AC8F4A6
:102C00008C2F0E94D12381113AC06C2F80917600C5
:102C1000909177000E94EE20882329F08C2F0E944B
:102C2000551F0E94C21F8C2F0E944E1FCF910C94E3
:102C3000C21F80E28C0F883048F4C77081E001C069
:102C4000880FCA95EAF70E94761FF0CF8BE58C0FAC
:102C5000833038F42C2F2452330BC901CF910C94BC
:102C6000D114C85AC73158F4EC2FF0E0EE0FFF1F13
:102C7000EE50FF4F80819181CF910C94E714CF915A
:102C80000895882329F19CEF980F913A20F40E942F
:102C9000551F0C94C21F90E2980F983050F4877023
:102CA00091E001C0990F8A95EAF7892F0E947C1F55
:102CB000F0CF9BE5980F933020F490E080E00C94E7
:102CC000D114885A873120F490E080E00C94E71406
:102CD0000895CF93C82F0E94F715C93349F42FEFF9
:102CE0008DEE92E0215080409040E1F700C000005E
:102CF0008C2FCF910C944116882321F00E94761FCF
:102D00000C94C21F0895882321F00E947C1F0C940C
:102D1000C21F0895AF92BF92CF92DF92EF92FF92BF
:102D20000F931F93CF93DF9300D000D00F92CDB7B6
:102D3000DEB76C016D837983FC01058102950F700C
:102D4000128111110E94951F0E946C1FE82E88238A
:102D500091F01123D1F08981807F803421F08D8121
:102D6000805E883090F082E00E940D200E946C1FEF
:102D700091E0E82EE926A980A2949FE0A922B12C37
:102D8000F501E355F74D0C945B27E12CF4CF098155
:102D90000F70F981F07F11F00295007F1123B1F0DF
:102DA000002361F08D81805E883018F02D81211123
:102DB00009C0802F0E94761F0E94C21F8D810E9431
:102DC000F71515C0802F0E94871FF6CF8D810E94B6
:102DD0004116002361F08D81805E883018F04D81AE
:102DE000411133C0802F0E947C1F0E94C21F48E007
:102DF000A41AB10854E0A516B10420F40E94BA1434
:102E00000E949905EE2009F4CBC10E94681F80FD45
:102E1000C7C1F60112820E94621F0E946F1DC60187
:102E20000E94F7180E94621F0F900F900F900F9052
:102E30000F90DF91CF911F910F91FF90EF90DF9056
:102E4000CF90BF90AF900C94A01D802F0E948D1F3B
:102E5000CCCF59815F70F52E6981607F603219F0A7
:102E6000F29480EFF8227D81772369F0713049F187
:102E7000112391F1002351F1F601858180FF9ECF4E
:102E80008F70858323C0112381F0011106C00E9439
:102E9000A91F8F290E947C16AACF0130C1F70E947A
:102EA000A91F8F290E94AF1FA2CF011106C00E9447
:102EB000B81F8F2D0E9483169ACF013009F497CF47
:102EC000F6CF112329F0063008F091CF8F2DE2CFF5
:102ED000053008F08CCFEDCF002359F3FD81F93395
:102EE00049F42FEF4DEE52E0215040405040E1F7C1
:102EF00000C000008D810E94411679CF898186959E
:102F00008695837069F0813009F071CF8D81998148
:102F10009370111102C090E080E00E94E71467CF27
:102F20008D8199819370111102C090E080E00E9420
:102F3000D1145DCF8981837009F050C0111157CF32
:102F40004D81429546954770440F440F8D818F7097
:102F500090E0B0E0A0E0042E04C0880F991FAA1FE3
:102F6000BB1F0A94D2F76D8100E010E0980164FF66
:102F70000FC00FE010E020E030E004C0000F111F90
:102F8000221F331F4A95D2F7009510952095309552
:102F900079817695769573707D83B901A801482B68
:102FA000592B6A2B7B2B49835A836B837C835D81EE
:102FB00069817A818B819C81523051F0533059F074
:102FC000513019F00E94E51C12CF0E94BD1C0FCF9A
:102FD0000E940D1D0CCF0E94BB1C09CF112309F4C8
:102FE00045C0698160FF03CF4D814295469547708A
:102FF000440F440F8D818F7090E0B0E0A0E0042E6C
:1030000004C0880F991FAA1FBB1F0A94D2F7ED8135
:1030100000E010E09801E4FF0FC00FE010E020E0B6
:1030200030E004C0000F111F221F331F4A95D2F752
:103030000095109520953095F981F695F695F370E9
:10304000FD83B901A801482B592B6A2B7B2B49839F
:103050005A836B837C83F230A1F0F330C9F0F130F6
:1030600049F0CB01BA010E942E1EC1CE798171FFB9
:10307000BECEBACF69817A818B819C810E94061E67
:10308000B6CE69817A818B819C810E94561EAFCE1B
:1030900069817A818B819C810E94391DA8CE5981DA
:1030A0005F705983112329F0852F0E946F1D8D8138
:1030B000F1CE8D810E94831689810E94A01D97CE3A
:1030C0006D81623F99F160F4603FD9F0613F39F161
:1030D000112309F444C0011171CE89818F7123C07D
:1030E0007D81733F41F1743F99F7112371F189811B
:1030F0008F7189830E946F1D63E089810E94F81F90
:1031000076CE112341F0053008F071CE89818F71A0
:103110000E94D51D6CCE063008F069CEF7CF8981AC
:103120008F71112351F20E946F1D61CE89818F71C1
:103130001123C9F3C2CF112329F089818F710E9415
:103140004A1D55CE0E94451D52CE81E00E940D20A1
:10315000023008F44CCE82E00E940D2048CE0023BD
:1031600061F09D81993309F0C5CEEFEFFDEE22E0CD
:10317000E150F0402040E1F7BBCE89818F719DCFB7
:1031800049814F706D81C6010E94F9050E942D1C76
:103190002ECE49814F706D81C6010E94FC0527CE5D
:1031A0000F900F900F900F900F90DF91CF911F9184
:1031B0000F91FF90EF90DF90CF90BF90AF90089568
:1031C0000F931F93CF93DF93EC01688179818A81FC
:1031D0000E94241F8C010E947E1E0E94BA1CB8010E
:1031E000CE01DF91CF911F910F910C948A16CF934E
:1031F000DF93EC018B819C81892B29F08981988157
:1032000089238F3F59F4DF91CF910895CE010E9419
:10321000E018CE01DF91CF910C947B05CE010E9486
:10322000B1058111F3CF0E946C1F882361F38A815D
:10323000882349F382E0DF91CF910C940D200E9406
:10324000951F0E94A61F0E94C21F90E080E00E946E
:10325000D11490E080E00C94E7140E945C1F0C9461
:103260001F190E94841F0C942D19282F892F8295D5
:103270008F70903C80F48A30B0F4843020F4823037
:1032800090F480E008958630E1F781E0283E88F0F0
:10329000213FB9F70EC08C3011F08F3091F793FBBE
:1032A000882780F9089581E0203F39F018F4283EFE
:1032B00040F70895243F29F7FCCF08950E94181F76
:1032C0000C943519CF93DF9300D000D00F92CDB777
:1032D000DEB70F900F900F900F900F90DF91CF916E
:1032E0000895CF93DF9300D000D000D0CDB7DEB7E4
:1032F00026960FB6F894DEBF0FBECDBFDF91CF91FB
:1033000008951F93CF93DF93E091F60116E080912B
:10331000F7018E1304C0DF91CF911F910895CE2F36
:10332000D0E01E9FF0011124E850FE4F40815181F2
:1033300062817381848195810E947119FE013196A9
:10334000E770E5CF409128025091290260912A024E
:1033500070912B0280912C0290912D020C94711986
:103360001F93CF93DF9380912D02807FA9F48091EA
:103370002A02882389F08091F601C091F7017091AB
:10338000280260912902A0912B02B0912C02D62F25
:10339000D72316E0C81304C0DF91CF911F91089581
:1033A00090E0109711F0DF3F19F401968770F2CF8B
:1033B000189F9001199F300D1124F901E850FE4F1C
:1033C00041816413F2CF40814713EFCF4281411115
:1033D000ECCF438154814A1B5B0B483C510528F7D5
:1033E00080912D028F70806180932D02F901E3504E
:1033F000FE4F80818F708061808388E292E00E941E
:10340000F718DF91CF911F910C948119AF92BF9261
:10341000CF92DF92EF92FF920F931F93CF93DF93A0
:10342000CDB7DEB72B970FB6F894DEBF0FBECDBF7A
:103430008C0185E0F801DE01179601900D928A95C6
:10344000E1F7F80140815181E28088E2A82E82E014
:10345000B82E60912B0270912C026115710549F014
:103460009091280220912902892F82238F3F09F011
:1034700045C1EE2009F453C14F8358878F81988549
:103480000E945E19F82E882309F449C186E0F801EC
:10349000A8E2B2E001900D928A95E1F788E292E00D
:1034A0000E94F2150E94B01926C180912D02382F7A
:1034B000307F683C710508F07CC03111B5C0FE2C2E
:1034C000251324C0941322C0E11020C08F708061A6
:1034D00080932D020E94A21988E292E00E94F718C0
:1034E00080912D02F80185838F2D2B960FB6F894CD
:1034F000DEBF0FBECDBFDF91CF911F910F91FF9027
:10350000EF90DF90CF90BF90AF900895CD2829F035
:10351000842F85238F3F09F084C080E0F82FF1705D
:10352000DF2EE091F6012091F70136E080FD1CC00E
:10353000EE20D1F280912D02816080932D02F12C3A
:10354000D3CF8E2F90E03E9FF0011124E850FE4F24
:103550006181651306C06081641303C062816E11CE
:10356000E7CFFC013196E770E213EBCF4F8358872A
:103570008F8198850E94181F292F22952F709032D5
:1035800060F0225F2F70223078F49F7051F0F801C4
:103590009581907F31F4D12C0AC09F7011F088235F
:1035A000D1F3805E8830B8F3C8010E94F718FD2C73
:1035B0009BCF31116EC06E2D7A858B850E9462196A
:1035C00088E292E00E94F71886E0F50111928A9550
:1035D000E9F70E94A219B3CF86E0F801A8E2B2E0B1
:1035E00001900D928A95E1F77FCF4F8358878F81A5
:1035F00098850E945E1981113DC080912D028160E5
:1036000080932D02C8010E94F7186ECF6E2D7A8527
:103610008B850E94621986E0F50111928A95E9F77F
:103620006AC081E08E257ACF251306C0941304C0AA
:10363000F801EE2009F453C04F8358878F81988595
:103640000E945E19882309F46AC0EE2009F467C05D
:1036500080912D02803270F0209128023091290251
:103660003A8329831B82DD82CC828E83CE01019630
:103670000E94F71886E0F801A8E2B2E001900D92EE
:103680008A95E1F70E94B0190E94A219FF24F394D1
:103690002BCF2513D1CF9413CFCFE110CDCFF8018D
:1036A0008583C8010E94F71886E0F50111928A957A
:1036B000E9F71ACF251399CF941397CF80912D0254
:1036C00080FD8ACF982F907F09F486CFF8018583FB
:1036D000903F31F0982F907F905F8F70892B85837A
:1036E000C8010E94F71886E0F801A8E2B2E0019054
:1036F0000D928A95E1F70E94A219F6CEC380D4807C
:10370000F0902A02F601E61BF70BBF01F110CDCEB7
:10371000683C710508F07ACFFE2CE110CBCFC801D0
:103720000E94F718B3CF1F93CF93DF93CDB7DEB7C7
:103730002C970FB6F894DEBF0FBECDBF4F835887CE
:1037400069877A878B879C87CE0107960E94061A25
:10375000882369F08A859B85892B39F058854F81AC
:10376000852F84238F3F09F071C016E05FC086E08B
:10377000FE013796DE01119601900D928A95E1F7D0
:103780008A859B85892B89F38F81988589238F3F33
:1037900061F32091F70130E0C90101968770992704
:1037A0004091F6014817190671F40E9431191092E0
:1037B000F7011092F60186E0E8E2F2E0DF011D92E7
:1037C0008A95E9F7D2CF96E0929FD001939FB00DF2
:1037D0001124A850BE4FFE01319601900D929A958A
:1037E000E1F78093F7010E948119BFCF819FC0014B
:1037F000112488509E4F0E94061A8823E9F0E09118
:10380000F6011E9FF0011124E850FE4F40815181C6
:1038100062817381848195810E9471198091F60182
:1038200090E00196877099278093F6018091F601C8
:103830009091F7018913DACF2C960FB6F894DEBF7A
:103840000FBECDBFDF91CF911F91089569857A8515
:103850008B859C850E94711988CFEF92FF920F9300
:103860001F93CF93DF938C01892B89F0F12CEE24E9
:10387000E394E8012196F8018491843709F458C053
:10388000A0F4823009F43FC048F48130D1F0DF91D8
:10389000CF911F910F91FF90EF9008959CEF980F9B
:1038A0009037A8F70E94F7150AC0853709F44EC073
:1038B0009CE7980F903758F78F770E9441168E013A
:1038C00016C00E5F1F4FFE01849190E2980F983052
:1038D00060F48770FE2D01C0FF0F8A95EAF78F2FE5
:1038E0000E94981F0E94C21F02C00E94F7158F2DD0
:1038F000882309F4BECFE7EBFBE03197F1F700C076
:1039000000008150F5CF0E5F1F4FFE01849190E2C1
:10391000980F983050F48770FE2D01C0FF0F8A95E4
:10392000EAF78F2F0E949E1FDDCF0E944116DFCF46
:103930000E5F1F4FFE01C491CC23C9F287EB9BE0C1
:103940000197F1F700C00000C150F6CF0E5F1F4F86
:10395000FE01F490CCCF08950C94AB1C0E94AC1CDB
:1039600060936E0270936F02809370029093710265
:103970000C941F1908950C94AE1CCF93DF9300D0C4
:1039800000D0CDB7DEB769837A838B839C83809127
:103990006E0290916F02A0917002B0917102298124
:1039A0003A814B815C81282B392B4A2B5B2B298355
:1039B0003A834B835C83CA01B9010F900F900F903B
:1039C0000F90DF91CF910C94AE1CCF93DF9300D07A
:1039D00000D0CDB7DEB769837A838B839C838091D7
:1039E0006E0290916F02A0917002B09171022981D4
:1039F0003A814B815C81282339234A235B23298325
:103A00003A834B835C83CA01B9010F900F900F90EA
:103A10000F90DF91CF910C94AE1CCF93DF9300D029
:103A200000D0CDB7DEB769837A838B839C83809186
:103A30006E0290916F02A0917002B0917102298183
:103A40003A814B815C81282739274A275B272983C4
:103A50003A834B835C83CA01B9010F900F900F909A
:103A60000F90DF91CF910C94AE1C0C94AB1C0C9476
:103A7000351D0E94371D60936A0270936B0280931C
:103A80006C0290936D020C941F1960E070E0CB0102
:103A90000C94391D0F931F93CF93DF9300D000D068
:103AA000CDB7DEB741E050E060E070E08A019B01F5
:103AB00004C0000F111F221F331F8A95D2F70983FC
:103AC0001A832B833C83C901B8010F900F900F908C
:103AD0000F90DF91CF911F910F910C94391D0F938F
:103AE0001F93CF93DF9300D000D0CDB7DEB741E076
:103AF00050E060E070E004C0440F551F661F771F60
:103B00008A95D2F780916A0290916B02A0916C0223
:103B1000B0916D028A019B01082B192B2A2B3B2B9C
:103B200009831A832B833C83C901B8010F900F903E
:103B30000F900F90DF91CF911F910F910C94391D31
:103B40000F931F93CF93DF9300D000D0CDB7DEB794
:103B500041E050E060E070E004C0440F551F661F74
:103B6000771F8A95D2F74095509560957095809112
:103B70006A0290916B02A0916C02B0916D028A0171
:103B80009B01082319232A233B2309831A832B83B0
:103B90003C83C901B8010F900F900F900F90DF91F7
:103BA000CF911F910F910C94391D0F931F93CF93B9
:103BB000DF9300D000D0CDB7DEB741E050E060E049
:103BC00070E004C0440F551F661F771F8A95D2F717
:103BD00080916A0290916B02A0916C02B0916D028B
:103BE0008A019B01082719272A273B2709831A8363
:103BF0002B833C83C901B8010F900F900F900F9059
:103C0000DF91CF911F910F910C94391DCF93DF93CA
:103C100000D000D0CDB7DEB769837A838B839C83D5
:103C200080916A0290916B02A0916C02B0916D023A
:103C300029813A814B815C81282B392B4A2B5B2BC4
:103C400029833A834B835C83CA01B9010F900F909B
:103C50000F900F90DF91CF910C94391DCF93DF938C
:103C600000D000D0CDB7DEB769837A838B839C8385
:103C700080916A0290916B02A0916C02B0916D02EA
:103C800029813A814B815C81282339234A235B2394
:103C900029833A834B835C83CA01B9010F900F904B
:103CA0000F900F90DF91CF910C94391DCF93DF933C
:103CB00000D000D0CDB7DEB769837A838B839C8335
:103CC00080916A0290916B02A0916C02B0916D029A
:103CD00029813A814B815C81282739274A275B2734
:103CE00029833A834B835C83CA01B9010F900F90FB
:103CF0000F900F90DF91CF910C94391D0895E82F0C
:103D00002FE0929FE00D11248E2F877041E001C0BB
:103D1000440F8A95EAF7E695E695E69585E0E89FF3
:103D2000F0011124E25DFD4F30E020E070E05191A0
:103D3000DF011197CB01022E02C0969587950A9458
:103D4000E2F7817081958527842385278C932F5FE7
:103D50003F4F2530310559F70895E82F2FE0929F06
:103D6000E00D11249E2F9770E695E695E69585E087
:103D7000E89FF0011124E25DFD4F50E040E080E05B
:103D8000219130E0092E02C0369527950A94E2F77A
:103D900021703327042E01C0220F0A94EAF7822BE8
:103DA0004F5F5F4F4530510559F70895BF92CF924D
:103DB000DF92EF92FF920F931F93CF93DF938C01CB
:103DC000C0906A02D0906B02E0906C02F0906D029D
:103DD00080916E0290916F02A0917002B091710279
:103DE000C82AD92AEA2AFB2ACFE1D0E0BC2ED70183
:103DF000C6010C2E04C0B695A795979587950A9491
:103E0000D2F780FD0EC0219788F7B12C8B2DDF9162
:103E1000CF911F910F91FF90EF90DF90CF90BF90C7
:103E20000895B8018C2F0E941906019761F3EECF17
:103E3000CF93DF93D82FC92F0E94D61E6D2F7C2FD2
:103E4000DF91CF910C9419061F93CF93DF93162F18
:103E5000D72F9091F501992339F0862F972FDF9175
:103E6000CF911F910C94181F882391F0862F972FC4
:103E70000E94D61EC82F682F812F9D2F0E947F1E63
:103E8000612F7D2F8C2FDF91CF911F910C941906FC
:103E9000862F972F0E94AD1EC82FF2CF682F8091DA
:103EA0007600909177000C942821682F80917600FD
:103EB000909177000C942A21809176009091770060
:103EC0000C942C2180917202859585958595089595
:103ED000809172028770089590917202977081E0CC
:103EE00009F480E0089580917E02089590917E0209
:103EF000982B90937E020895982F909580917E0242
:103F0000892380937E02089510927E0208959091F5
:103F10007D02982B90937D020895982F9095809123
:103F20007D02892380937D02089510927D02089579
:103F300090917C02982B90937C020895982F9095F5
:103F400080917C02892380937C02089510927C02E8
:103F5000089580917302089508950C94AC1F909178
:103F60007302981721F0809373020C94AD1F08958B
:103F700080917302882329F01092730280E00C94E0
:103F8000AD1F0895E0917600F091770080917E0258
:103F90008083E0917600F0917700808190917D029E
:103FA000892B8083E0917600F09177008081909159
:103FB0007C02892B808390917302992381F0E09198
:103FC0007600F09177008081892B80838091760044
:103FD000909177000E94DC2081110E94B81F80918F
:103FE0007600909177000C94C61408950C94F51FF8
:103FF00098E0899F90011124622B609372020E94C5
:104000006F1D809172028595859585950C94F61F9C
:104010001092720280E00C94F61F909172028095CB
:10402000892380937202282F277071F4282F082E7D
:10403000000C330B9217130639F0859585958595FD
:104040000E94A01D0C940820089590E080E00E943A
:104050000E289C0181E02C3E3E4F09F080E008953F
:1040600082E090E00C940028682F82E090E00C94AD
:10407000142883E090E00C940028682F83E090E0FF
:104080000C941428CF9384E090E00E940028C82F5D
:1040900081E290E00E940028982F8C2FCF91089504
:1040A000CF93682FC92F84E090E00E9414286C2FD2
:1040B00081E290E0CF910C94142886E090E00C947B
:1040C0000028682F86E090E00C941428AB01BC0116
:1040D0008FE090E00C942528AB01BC0183E190E0D7
:1040E0000C94252860E070E0CB010C946C2060E01B
:1040F00070E0CB010E9466200C9472206CEE7EEF83
:1041000090E080E00E94312860E082E090E00E9430
:10411000142860E083E090E00E94142810926E0260
:1041200010926F02109270021092710260E084E0AF
:1041300090E00E94142860E081E290E00E94142840
:1041400060E085E090E00E94142860E086E090E066
:104150000E9414286FEF87E090E00E94142840E04E
:1041600050E0BA0188E090E00E94252860E08DE0F0
:1041700090E00E94142840E050E0BA0188E190E00D
:104180000E94252860E087E190E00E94142840E02A
:1041900050E0BA018CE190E00E94252860E080E2C6
:1041A00090E00E9414280C9477200C947E20682FB5
:1041B0008EE090E00C941428AC019C012E5F3F4FE0
:1041C000485F5F4F80E02417350709F40895F9012F
:1041D00091919F019923B9F38F5FF5CF9C016623DD
:1041E00051F0FC013296285F3F4F8191861729F0EC
:1041F000E217F307D1F780E0089581E008959C016C
:10420000FC0132968FEF90E04191461751F08F3FBD
:1042100019F4411101C0892F9F5F9630A9F78F3F94
:1042200009F40895280F311D87FD3A95F90162833D
:1042300008959C01FC013296285F3F4F81918613BF
:1042400003C0DF0111971C92E217F307B9F7089535
:104250000C94FF200C941921FC01329686E0DF01BA
:104260001D928A95E9F7089508950895CF930E94C5
:1042700034210E946A080E943521C0E08C2F0E94E0
:104280000508892B31F4CF5FC630C1F780E0CF91AC
:10429000089581E0FCCF8BE083BF8BEB8CBF82E085
:1042A00089BF08952FB7F894809180029091810280
:1042B000A0918202B09183022FBF08959C014FB755
:1042C000F8948091800290918102A0918202B09135
:1042D00083024FBF821B930B089578941F921FB6E1
:1042E0001F9211248F939F93AF93BF93809180026D
:1042F00090918102A0918202B09183020196A11D4A
:10430000B11D8093800290938102A0938202B093AA
:104310008302BF91AF919F918F911F901FBE1F90FD
:10432000189560E081E090E00E94372887E090EBEC
:10433000DC0180935D0390935E03A0935F03B093D1
:10434000600388E19CE00FB6F894A89581BD0FBE8C
:1043500091BDFFCFAF92BF92CF92DF92EF92FF92CB
:104360000F931F93CF93C0E0AA24A394B12CE82EFF
:10437000F12C8C2F0E9405086C0110E000E0C501B3
:10438000002E02C0880F991F0A94E2F78C219D210C
:10439000892B99F0602F7C2F80E00E94FD05E816A4
:1043A000F90659F481E0CF911F910F91FF90EF90A2
:1043B000DF90CF90BF90AF9008950F5F1F4F0F30E9
:1043C0001105E9F6CF5FC630A1F680E0ECCFCF93C0
:1043D000C82F8CE20E94AA21882321F08C2FCF9134
:1043E0000C94AA2180E0CF910895CF93DF9300D061
:1043F00000D0CDB7DEB70E942520811102C00E94F7
:10440000D52095E6998308C00E946A088FE295E757
:104410000197F1F700C00000A981A150A983A11163
:10442000F3CF89E20E94E721811122C18AE20E9432
:10443000E72181110E94D52085E00E94E7218111AA
:104440000E9491210E94302080937F0287E00E9489
:10445000E721882371F08BE10E94E721882309F48A
:10446000E3C090917F02892F8D7F91FF82608093BE
:104470007F0280917F020E9434200E94422090930C
:1044800085028093840280EE0E94E721882341F018
:1044900090918402892F8E7F90FF816080938402A7
:1044A00089E30E94E721882341F090918402892FBB
:1044B0008D7F91FF82608093840282EE0E94E721CB
:1044C000882341F090918402892F8B7F92FF846032
:1044D0008093840286EE0E94E721882341F0909128
:1044E0008402892F877F93FF88608093840283EE04
:1044F0000E94E721882341F090918402892F8F7ECA
:1045000094FF80618093840285E30E94E7218823E1
:1045100041F090918402892F8F7D95FF8062809376
:10452000840281E30E94E721882341F09091840274
:10453000892F8F7B96FF80648093840281E10E94A3
:10454000E721882341F090918402892F97FB87F916
:1045500080588093840280918402909185020E9409
:10456000502087E20E94E72189838EE10E94E721A3
:10457000882319F0B981B260B9838FE10E94E721E5
:10458000882319F029812460298380E20E94E72191
:10459000882319F039813860398381E20E94E7214C
:1045A000882319F049814061498382E20E94E72112
:1045B000882319F059815062598383E20E94E721D0
:1045C000882319F089818064898384E20E94E7212D
:1045D000882309F446C099819068998389810E9453
:1045E0003D203981232F30E050E040E029833A8399
:1045F0004B835C83CA01B9010E94BB1C8FE00E94FF
:10460000E721882319F081E00E94D72085E10E94EC
:10461000E721882369F180E00F900F900F900F90B1
:10462000DF91CF910C94D7208EE00E94E721882360
:1046300039F090917F02892F8B7F92FF846017CF92
:1046400080E10E94E72190917F02882329F0892F41
:10465000877F93FF88600BCF892F8E7F90FF8160CB
:1046600006CFA981A111BACF0E943920282FBBCF34
:104670000F900F900F900F90DF91CF9108950F93AF
:104680001F93CF93DF9300D000D0CDB7DEB741E0CA
:1046900050E060E070E08A019B0104C0000F111F30
:1046A000221F331F8A95D2F709831A832B833C83F9
:1046B000C901B8010E94BB1C0F900F900F900F9082
:1046C000DF91CF911F910F910C9431198B3258F4D7
:1046D0008530C0F0EBEFE80FE632A0F4F0E0E354F1
:1046E000F74D0C945B27833450F48A3308F051C0A3
:1046F000853309F44AC0883329F481E0089583346E
:1047000009F443C080E008950E94D520F6CF80913F
:104710007F02807F80937F0281E0809386020895EC
:104720000E94A205EACF90917F02892F8E7F90FF91
:10473000816080937F0280FDE0CF817F80937F0244
:10474000DCCF90917F02892F8D7F91FF82608093D3
:104750007F0281FFD2CF80917F028160EFCF909165
:104760007F02892F8B7F92FF846080937F0282FD7E
:10477000F2CFC3CF90917F02892F877F93FF88600C
:1047800080937F0283FDE7CFB8CF80E00E943F2374
:10479000B4CF8953FBCF8D51F9CF80E008950C94AD
:1047A000CD23CF93C82F80918602882331F08130AA
:1047B00099F01092860280E00DC00E94731F823231
:1047C000D1F78C2F0E94CD23811119C08C2F0E940C
:1047D00066238170CF9108950E94731F823289F3FE
:1047E0008C2F0E94CF23811112C0C93229F050F4BE
:1047F000CB3069F0C43169F71092860206C081E0BF
:1048000090E0E7CF81E0C83321F380E0E2CF81E0A0
:10481000E0CF0E945221D82F192F0E9409150E9423
:10482000F3240E94B5140E94D4268B9A80E0815014
:1048300041F58B987894FFEB24ED31E0F150204066
:104840003040E1F700C000000E941315C0E00CE00A
:10485000809134038823F9F0109234030E9452218E
:10486000D82F192F0E94E02580914303882329F037
:104870008091280384FD0E941F150E94A724C0E098
:10488000E7CFA895E7EBFBE03197F1F700C0000018
:10489000CECFC1E0DDCF8D2F912F0E945E210697F4
:1048A00010F4CC23F9F20E943621C82F882389F313
:1048B000F89491B3939A892F8C6081BB82B380273F
:1048C00082BB8FE5EAEEF0E08150E040F040E1F796
:1048D00000C0000082B3802782BB91BB939878947C
:1048E000B7CF8091180308950895CF93DF9300D038
:1048F0000F92CDB7DEB79B0190918902981307C044
:1049000040918702509188024617570791F0809393
:104910008902309388022093870289833B832A830C
:1049200080911C0384FF05C063E0CE0101960E94C4
:10493000DC250F900F900F90DF91CF910895BC016F
:1049400084E00C947524BC0183E00C947524CF930F
:10495000DF93CAE0D0E08091280384FF1AC08091E1
:10496000950290919602981789F028E0829FC001E5
:10497000112468E089569D4F0E94D82580919502A8
:1049800090E001968F70992780939502DF91CF91E7
:1049900008950E94E02587EB9BE00197F1F700C0A6
:1049A00000002197C1F6F2CFFC01A0919602B0E081
:1049B0009D012F5F3F4F2F70332780919502821703
:1049C00071F083E0AA0FBB1F8A95E1F7A956BD4F8E
:1049D00088E001900D928A95E1F7209396020E945B
:1049E000E0250C94A72488E790E00895FC018081DD
:1049F00080768032D1F48181813041F48DE892E07B
:104A000090931B0380931A0388E00895823041F449
:104A100087E193E090931B0380931A0381E008954C
:104A20008A3029F483818093170380E008958930C8
:104A3000E1F7828193818115924069F484819581A7
:104A4000892B49F481E080938C0286819781909331
:104A50008B0280938A028FEF0895FC0180918A0275
:104A600090918B02892B61F080918C02813041F40E
:104A700090819093180310928B0210928A020895ED
:104A80008FEF08950895FC018381833059F130F44C
:104A90008130C1F08230F1F080E00895813209F474
:104AA00044C08232C9F784819581009709F44EC0D1
:104AB000019791F781E696E090931B0380931A0388
:104AC00082E308958DE296E090931B0380931A038E
:104AD00082E1089582EF95E090931B0380931A037F
:104AE0008BE3089582818230C1F050F481110DC0B2
:104AF0008DE596E090931B0380931A0384E008955C
:104B0000833051F68FE396E0F5CF83E596E09093FE
:104B10001B0380931A0388E0089585E496E0909340
:104B20001B0380931A038CE008958281882331F05F
:104B3000813009F0B1CF8DE196E002C084E096E0CB
:104B400090931B0380931A0389E0089583E996E00C
:104B500090931B0380931A0380E408951F93CF93CF
:104B6000DF93782F162FEA01888184FF1EC0898188
:104B700028E882278983AE014E5F5F4FFA01272F15
:104B8000392F710FD9012F5F3F4F8C918193872F60
:104B9000821B1816BCF3612FCA010E94C5031C5F5B
:104BA0001883DF91CF911F9108958AE58883E3CF21
:104BB00048E253E00C94AE254CE153E00C94AE2552
:104BC000CF93DF9360914203635067FD12C08091E1
:104BD0004603CCE0D0E0C81BD109C95BDC4F809113
:104BE0004003803108F057C0CE010E944225109248
:104BF00042038091830084FF41C0809182008F3FF7
:104C000009F43CC0C82F893008F0C8E0982F9C1BDD
:104C1000909382009091350328E892279093350372
:104C20008823F1F080911A0390911B0320911903BE
:104C300026FFAEC0FC0126E333E04C2F480F549111
:104C4000D9015C932F5F3F4F31964E13F8CF0196F9
:104C50002FEF2C0F820F911D90931B0380931A034B
:104C60006C2F86E393E00E94C50384E08C0FC8306C
:104C700019F09FEF909382008093830084E190B3BA
:104C80009C7031F48150D9F710924403109245037F
:104C9000DF91CF9108958D3209F067C0683009F037
:104CA000A6CF83EC809335038AE58093830010922E
:104CB00019038881807671F0CE010E94F6248F3F1F
:104CC000C1F4988197FD8E8190E8909319038093A9
:104CD00082008DCF2A8110923E039981911111C0DB
:104CE00010923F032EE333E082E030931B032093C6
:104CF0001A039F819111EBCF9E81981740F7892F5E
:104D0000E6CF953029F4209344032EE333E0EDCF32
:104D1000963099F49B81913021F4CE010E94432575
:104D200008C09230D1F39330C1F39132B1F3923293
:104D3000A1F390E490931903C2CF983079F09930A1
:104D400019F420934303E1CF9A3061F09B30E9F6E8
:104D50009BE49093290390931D03D7CF23E433E082
:104D600081E0C3CF2EE333E0FBCF8091190387FFAF
:104D70003ECFCE010E942D258F3F21F48EE18093FE
:104D8000830035CF882309F432CF109282002FCFD1
:104D9000DC012C2F46E353E0FA013D9130834F5F55
:104DA0005F4F2150C9F753CF85B7886085BF8BB758
:104DB00080688BBFA8E2B3E08BE411968C931197C7
:104DC000ECE1F3E081838AE58C9380830895DB0135
:104DD0008F939F930E947027BF91AF91A29F800DE8
:104DE000911DA39F900DB29F900D11240895991BC2
:104DF00079E004C0991F961708F0961B881F7A95D2
:104E0000C9F78095089587FB082E062687FD8195B2
:104E100067FD61950E94F7260EF4919507FC819538
:104E20000895AA1BBB1B51E107C0AA1FBB1FA617F1
:104E3000B70710F0A61BB70B881F991F5A95A9F743
:104E400080959095BC01CD01089597FB072E16F42F
:104E5000009407D077FD09D00E94112707FC05D0E8
:104E60003EF4909581959F4F0895709561957F4F81
:104E70000895A1E21A2EAA1BBB1BFD010DC0AA1F9B
:104E8000BB1FEE1FFF1FA217B307E407F50720F0B3
:104E9000A21BB30BE40BF50B661F771F881F991F2E
:104EA0001A9469F760957095809590959B01AC0177
:104EB000BD01CF010895EE0FFF1F0590F491E02D85
:104EC0000994A29FB001B39FC001A39F700D811DE3
:104ED0001124911DB29F700D811D1124911D089503
:104EE0000E946127A59F900DB49F900DA49F800DF7
:104EF000911D11240895CF92DF92EF92FF92CF93EC
:104F0000DF93CDB7DEB72A970FB6F894DEBF0FBE9A
:104F1000CDBF89879A87A985BA852D913D914D91FD
:104F20005C9129833A834B835C83232B242B252B91
:104F300041F424E239ED4BE557E029833A834B8372
:104F40005C8369817A818B819C812DE133EF41E023
:104F500050E00E94542869017A01A7EAB1E49B015C
:104F6000AC010E94702769837A838B839C83ACEEAB
:104F7000B4EFA70196010E9476289B01AC018981BC
:104F80009A81AB81BC81820F931FA41FB51FB7FF0D
:104F900003C00197A109B048E985FA858083918310
:104FA000A283B3839F772A960FB6F894DEBF0FBE15
:104FB000CDBFDF91CF91FF90EF90DF90CF9008951C
:104FC0000E947B27089580E690E00E947B27089549
:104FD000B0E0A0E08093600090936100A093620035
:104FE000B09363000895FC014150504030F00190AF
:104FF0000616D1F73197CF0108958827992708958C
:10500000E199FECF9FBB8EBBE09A99278DB308959F
:10501000A6E1B0E044E050E00C944628A8E1B0E0FE
:1050200042E050E00C944628262FE199FECF9FBB2A
:105030008EBBE09A01970DB2021631F02DBB0FB670
:10504000F894E29AE19A0FBE08950396272F0E94E2
:1050500015280E941428252F0E941528242F0C940F
:1050600015280196272F0E9415280C941428262F06
:10507000E199FECF9FBB8EBB2DBB0FB6F894E29A91
:10508000E19A0FBE01960895DC01CB01FC01E19984
:10509000FECF06C0FFBBEEBBE09A31960DB20D927B
:1050A00041505040B8F70895052E97FB1EF4009428
:1050B0000E946B2857FD07D00E94392707FC03D0B8
:1050C0004EF40C946B2850954095309521953F4FA8
:1050D0004F4F5F4F089590958095709561957F4FE4
:1050E0008F4F9F4F0895B7FF0C9470270E94702731
:1050F000821B930B0895F894FFCF601068106F1017
:10510000741079107E10831088108D1092109710F3
:105110009C10A010A510A810AB10AE10B110B310C9
:10512000B61046134C1350135E13621366136A13C2
:10513000701378137C1380138413901394139813B3
:105140009C13A213C013AA1354135A1388138C135D
:105150007413A613B613C913CD13C716C716291790
:1051600029177E17F716F716F7169A174F186018B3
:105170006018C018F716F716C918902387239323D1
:105180007D23822382237D2382238223AF238223D4
:10519000BA23822382238223822382237D238223B4
:1051A00082237D238223A12382238223CB23CB232B
:1051B000CB23CB23CB23CB23CB23CB23CB23C52385
:0651C000822390238423EA
:1051C600010000000102001200121201191A1B1C34
:1051D6001D1E1F20212274027124D4247424A324AA
:1051E6009F24FF5AE200E900EA00B500B600B700C6
:1051F600CD008301CC008A01920194012102230291
:1052060024022502260227022A02B300B4006F00F8
:105216007000909192939495969737363534333241
:105226000760616263646500010202020206060607
:105236000909090909090F0F0F0F0F0F1515151881
:105246001919191919191919191923242525252583
:105256002525E200E900EA00B500B600B700CD005A
:105266008301CC008A0192019401210223022402C7
:105276002502260227022A02B300B4006F0070003E
:00000001FF
