:100000000C94EE070C9432080C94FB080C94320804
:100010000C9432080C9432080C9432080C94320878
:100020000C9432080C9432080C9456270C94320825
:100030000C9432080C9432080C9432080C94320858
:100040000C9432080C9432080C9432080C94320848
:100050000C94320835001E001F00200021002200F1
:10006000230024002500260027002D002E0031004B
:100070002B0014001A000800150017001C001800BF
:100080000C00120013002F0030002A002961040028
:100090001600070009000A000B000D000E000F00FB
:1000A0003300340000002800E10000001D001B00A8
:1000B0000600190005001100100036003700380056
:1000C000E5005200E000E200E300000000002C42E6
:1000D0000000E600E70002510000500051004F0010
:1000E0004D004E004B004A000000000000000000E0
:1000F0000000000000000000000000000000000000
:1001000000000000000000000000000000000000EF
:10011000000000000000290035001E001F00200024
:1001200021002200230024002500260027002D00A6
:100130002E0031002B0014001A00080015001700D3
:100140001C0018000C00120013002F0030002A00C1
:10015000E00004001600070009000A000B000D0073
:100160000E000F003300340000002800E100000002
:100170001D001B00060019000500110010003600CC
:1001800037003800E5005200E000E200E300000024
:1001900000002C000000E600E700025100005000C3
:1001A00051004F004D004E004B00000000000000C9
:1001B000000000000000000000000000000000003F
:1001C000000000000000000000000000000000002F
:1001D00000000000000000000000290035003A0087
:1001E0003B003C003D003E003F004000410042001B
:1001F00043004400450000002B00000052000000B6
:1002000000000000000000000000000013000000DB
:1002100000000000E000500051004F00000000000E
:100220005000510052004F00000000000000280064
:10023000E1000000000000000000000000000000DD
:100240000000AC00AB00AE00E5005200E000E200B0
:10025000E300000000002C000000E600E70002516F
:100260000000500051004F004D004E0000000153AF
:10027000000000000000000000000000000000007E
:10028000000000000000000000000000000000006E
:10029000000000000000000000000000000000005E
:1002A00035003A003B003C003D003E003F0040006E
:1002B000410042004300440045004C00BF5CC05C6C
:1002C000BE5CBD5C005C000000000000000000009F
:1002D0000000000000000000C25CC35CC55CC75C9D
:1002E000C95CCB5C000000000000000000000000C2
:1002F0000000000000000000C45CC65CC85CCA5C72
:10030000CC5C0000000000000000000000000000C5
:1003100000000000000000000000000000000000DD
:1003200000000000000000000000000000000000CD
:1003300000000000000000000000000000000000BD
:1003400000000000000000000000000000000000AD
:10035000000000000000000000000000000000009D
:100360000000000044454255473A206469736162C9
:100370006C65642E0A0044454255473A20656E611B
:10038000626C65642E0A000A002530313662003A3C
:10039000200025303258000A722F6320303132336A
:1003A0003435363738394142434445460A0072678E
:1003B000626C696768742074696D65722064697322
:1003C00061626C652E0A007267626C6967687420EE
:1003D00074696D657220656E61626C65642E0A00D9
:1003E0007267626C696768742073657420687376DD
:1003F000205B4E4F454550524F4D5D3A2025752CA0
:1004000025752C25750A007267626C69676874200F
:1004100073657420687376205B454550524F4D5D7F
:100420003A2025752C25752C25750A007267626C9B
:1004300069676874207261696E626F772073657492
:10044000206873763A2025642C25642C25642C259D
:10045000750A007267626C69676874206469736109
:10046000626C65205B454550524F4D5D3A20726786
:10047000626C696768745F636F6E6669672E656E2C
:1004800061626C65203D2025750A007267626C69A7
:1004900067687420656E61626C65205B45455052EB
:1004A0004F4D5D3A207267626C696768745F636F75
:1004B0006E6669672E656E61626C65203D202575EC
:1004C0000A007267626C6967687420746F67676C92
:1004D00065205B454550524F4D5D3A207267626C16
:1004E000696768745F636F6E6669672E656E6162C7
:1004F0006C65203D2025750A007267626C6967682B
:1005000074206D6F6465205B4E4F454550524F4DD2
:100510005D3A2025750A007267626C69676874200D
:100520006D6F6465205B454550524F4D5D3A202507
:10053000750A007267626C696768745F696E6974D6
:10054000207267626C696768745F636F6E66696763
:100550002E6D6F6465203D20302E205772697465C2
:100560002064656661756C742076616C75657320B6
:10057000746F20454550524F4D2E0A007267626CD1
:10058000696768745F696E6974206565636F6E661C
:100590006967206973206E6F7420656E61626C6597
:1005A000642E0A007267626C696768745F696E69BD
:1005B00074207374617274210A007267626C6967D7
:1005C00068745F696E69742063616C6C65642E0A7F
:1005D000007267626C696768745F636F6E666967F3
:1005E0002E7370656564203D2025640A0072676281
:1005F0006C696768745F636F6E6669672E76616C9D
:10060000203D2025640A007267626C696768745F28
:10061000636F6E6669672E736174203D2025640ADE
:10062000007267626C696768745F636F6E666967A2
:100630002E687565203D2025640A007267686C6924
:100640006768745F636F6E6669672E6D6F6465209F
:100650003D2025640A007267626C696768745F6395
:100660006F6E6669672E656E61626C65203D202540
:10067000640A007267626C696768745F636F6E66B4
:10068000696720454550524F4D3A0A0000047F3FAC
:100690001F643214643214783C1E1E140A0522238F
:1006A000252628292A2C2D2F3032333536383A3B4F
:1006B0003D3E4042434547494A4C4E5051535557A1
:1006C000595A5C5E6062646668696B6D6F717375C0
:1006D00077797B7D7F81838587898A8C8E909294C0
:1006E00096989A9C9E9FA1A3A5A7A8AAACAEAFB1CD
:1006F000B3B4B6B8B9BBBCBEBFC1C2C3C5C6C7C917
:10070000CACBCCCDCED0D1D2D2D3D4D5D6D7D7D8D0
:10071000D9D9DADADBDBDBDCDCDCDCDCDDDDDDDD22
:10072000DCDCDCDCDCDBDBDBDADAD9D9D8D7D7D62A
:10073000D5D4D3D2D2D1D0CECDCCCBCAC9C7C6C5E1
:10074000C3C2C1BFBEBCBBB9B8B6B4B3B1AFAEAC27
:10075000AAA8A7A5A3A19F9E9C9A98969492908ED2
:100760008C8A89878583817F7D7B79777573716FAB
:100770006D6B6968666462605E5C5A595755535187
:10078000504E4C4A4947454342403E3D3B3A38363D
:10079000353332302F2D2C2A292826252322FFAA53
:1007A0007F55400001010101010101010102020226
:1007B000020202020202030303030303030304040D
:1007C00004040404040505050505060606060607D7
:1007D0000707070708080808090909090A0A0A0B90
:1007E0000B0B0C0C0C0D0D0D0E0E0E0F0F0F101031
:1007F00011111112121313141415151616171718B8
:100800001819191A1A1B1B1C1D1D1E1E1F20202122
:100810002222232424252626272829292A2B2C2D69
:100820002D2E2F30313232333435363738393A3B8A
:100830003C3D3E3F404142434445464748494A4C7F
:100840004D4E4F50515354555658595A5B5D5E5F4B
:10085000616264656668696B6C6D6F7072737577E1
:10086000787A7B7D7E8082838587888A8C8E8F9143
:10087000939596989A9C9EA0A2A3A5A7A9ABADAF6D
:10088000B1B3B5B7BABCBEC0C2C4C6C9CBCDCFD157
:10089000D4D6D8DBDDDFE2E4E7E9EBEEF0F3F5F800
:1008A000FAFDFF0A002530325820006B6579626F2F
:1008B0006172645F7265706F72743A20000A00257D
:1008C000303258006B6579626F6172645F73657472
:1008D0005F6C65643A20003F00433E20004C256475
:1008E0000A0074696D65725F72656164333228292C
:1008F0003A202530346C580A00686F73745F6B655A
:1009000079626F6172645F6C65647328293A20258F
:10091000580A000A092D20537461747573202D0A3A
:10092000004743433A20392E322E30204156522D73
:100930004C4942433A20322E302E30204156525FED
:10094000415243483A20617672350A004F5054496B
:100950004F4E533A20565553422045585452414B1E
:10096000455920434F4E534F4C4520434F4D4D4129
:100970004E4420343039360A004255494C443A201E
:1009800022302E372E3130322D352D673465626599
:1009900063632D646972747922202832333A3136C8
:1009A0003A343220466562202035203230323029F8
:1009B0000A005649443A2030783230413028517587
:1009C00061646375626529205049443A2030783467
:1009D000323244284578656E7429205645523A20B3
:1009E0003078303030310A00444553433A203635B0
:1009F00025204B6579626F6172640A000A092D2017
:100A000056657273696F6E202D0A000A092D204306
:100A10006F6E736F6C65202D0A4553432F713A0931
:100A2000717569740A000A092D204D616769632098
:100A30002D0A443A094465627567204D65737361F8
:100A4000676520546F67676C650A583A094D617491
:100A5000726978204465627567204D6F6465205423
:100A60006F67676C65202D2053686F77206B657901
:100A70007072657373657320696E206D617472693D
:100A80007820677269640A4B3A094B6579626F6135
:100A9000726420446562756720546F67676C6520D7
:100AA0002D2053686F77206B6579707265737320A2
:100AB0007265706F72740A4D3A09446562756720F9
:100AC0004D6F75736520546F67676C650A563A09F8
:100AD00056657273696F6E0A533A0953746174757F
:100AE000730A433A09416374697661746520436F00
:100AF0006E736F6C65204D6F64650A46312D46310B
:100B0000303A0953776974636820746F204C6179B7
:100B1000657220302D392028463130203D204C3060
:100B2000290A302D393A0953776974636820746F44
:100B3000204C6179657220302D390A475241564563
:100B40003A0953776974636820746F204C61796542
:100B50007220302028616C7465726E617465290A98
:100B6000423A094A756D7020746F20426F6F746C41
:100B70006F616465720A4553433A094A756D702086
:100B8000746F20426F6F746C6F61646572202861AE
:100B90006C7465726E617465290A453A0950726910
:100BA0006E7420454550524F4D2053657474696EE4
:100BB00067730A4253504143453A09436C65617279
:100BC00020454550524F4D0A000A002575002E6EF3
:100BD0006B726F3A20000A002575002E73776170E2
:100BE0005F6261636B736C6173685F6261636B7397
:100BF000706163653A20000A002575002E737761E5
:100C0000705F67726176655F6573633A20000A0002
:100C10002575002E6E6F5F6775693A20000A002502
:100C200075002E737761705F72616C745F726775A7
:100C3000693A20000A002575002E737761705F6C99
:100C4000616C745F6C6775693A20000A0025750055
:100C50002E737761705F7263746C5F726775693A47
:100C600020000A002575002E737761705F6C637435
:100C70006C5F6C6775693A20000A002575002E6369
:100C80006170736C6F636B5F746F5F636F6E7472B0
:100C90006F6C3A20000A002575002E737761705F33
:100CA000636F6E74726F6C5F636170736C6F636B94
:100CB0003A20000A0025303258006B65796D61706A
:100CC0005F636F6E6669672E7261773A20000A0073
:100CD0002575002E6D6F7573653A20000A00257525
:100CE000002E6B6579626F6172643A20000A0025FC
:100CF00075002E6D61747269783A20000A002575BE
:100D0000002E656E61626C653A20000A0025303263
:100D1000580064656275675F636F6E6669672E72FF
:100D200061773A20000A0025750064656661756C7C
:100D3000745F6C617965723A20003F000A6D6F75CF
:100D400073653A206F66660A000A6D6F7573653ABF
:100D5000206F6E0A000A6B6579626F6172643A20D7
:100D60006F66660A000A6B6579626F6172643A2089
:100D70006F6E0A000A6D61747269783A206F666658
:100D80000A000A6D61747269783A206F6E0A000A6F
:100D900064656275673A206F66660A000A64656278
:100DA00075673A206F6E0A000A0A4A756D70696E9F
:100DB0006720746F20626F6F746C6F616465722E50
:100DC0002E2E2000433E2000436C656172696E67E1
:100DD00020454550524F4D0A006565636F6E666948
:100DE000673A0A006D61696E206C6F6F700A006966
:100DF0006E6974466F72557362436F6E6E6563748D
:100E0000697669747928290A000A00253032580069
:100E10005345545F4C45443A20000A0056454E4421
:100E20004F523A00554E4B4E4F574E3A0053455491
:100E30005F4C45443A20005345545F5245504F5251
:100E4000543A200025303258005345545F49444CF1
:100E5000453A20004745545F49444C453A200047F5
:100E600045545F5245504F52543A006B6275663A92
:100E70002066756C6C0A00290A0025303258005D26
:100E800028002575002D3E00257500562D5553422E
:100E90003A206B6275665B0009023B00020100802C
:100EA000FA09040000010301010009210101000108
:100EB0002240000705810308000109040100010325
:100EC00000000009210101000122840007058303BD
:100ED00008000105010902A10185020901A100051F
:100EE000091901290515002501750195058102756E
:100EF00003950181030501093009311581257F75AD
:100F0000089502810609381581257F350045007551
:100F10000895018106050C0A38021581257F7508A0
:100F200095018106C0C005010980A1018503150155
:100F300026B700190129B7751095018100C0050C6D
:100F40000901A10185041501269C0219012A9C02B0
:100F5000751095018100C005010906A10175019573
:100F600008050719E029E71500250181029501759B
:100F70000881039505750105081901290591029558
:100F8000017503910395067508150026FF000507F6
:100F9000190029FF8100C01201100100000008A003
:100FA000202D420100010200011203700073003283
:100FB00000610076007200470042001C0377006960
:100FC000006E006B00650079006C006500730073B3
:100FD000002E006B007200040309040011241FBEE0
:100FE000CFE5D8E0DEBFCDBF04B603FE24C08091BC
:100FF000AA029091AB02A091AC02B091AD028730F1
:10100000904BA740B04BB9F41092AA021092AB02D9
:101010001092AC021092AD0214BE84B7877F84BFD9
:101020000FB6F894A89581B5886181BD11BC0FBE3B
:10103000E0E0F8E3099510E0A0E6B0E0E6E6FEE5C2
:1010400002C005900D92A83BB107D9F722E0A8EBAA
:10105000B0E001C01D92AA3AB207E1F70E946D2AE2
:101060000C94CB2E0C940000FF93EF93E091B8000A
:10107000F091B900309709F00995EF91FF9108952B
:10108000FC018591803011F0EFDFFBCF0895FF2741
:10109000E0E230E247FF0CC0419597FF09C0EDE266
:1010A0006095709580959095611D711D811D911DB4
:1010B00027FF02C0219530E350E2AA27660F771F71
:1010C000881F991FAA1FA41710F0A41B63955A9597
:1010D000A9F7AA3008F0A95FA05DAF93F395611559
:1010E00071058105910541F7ED3211F4EF93F39508
:1010F000F21718F43F93F395FBCF8F91B5DFFA9574
:10110000E1F70895E991F9918591803021F08532D8
:1011100019F0AADFF9CF089520E0E89455915532EF
:10112000C1F3503311F4689455915A3348F4505335
:1011300090F3220F022E220F220F200D250FF4CF45
:101140000EF4219589919991533619F3533729F16A
:10115000533559F1BC0188279927E8945C3621F46E
:101160008991999168945591543639F446EF7EF0FF
:1011700077FF0DC08FEF9FEF0AC055374AE039F077
:10118000583540E121F0523642E009F00895FF93CE
:10119000EF937DDFEF91FF91B7CFFF93EF93FC01CA
:1011A00081918030B9F360DFFBCFFF93EF9368DF6D
:1011B000F1CFDF93CF93CDB7DEB72596A3DFCF91E5
:1011C000DF910895A82FB92F80E090E041E050EA28
:1011D000609530E009C02D9182279795879510F092
:1011E00084279527305EC8F36F5FA8F30895EADF80
:1011F0008D939D930895CF93CFB7CF93C395839B42
:10120000E9F7839B0EC0839B0CC0839B0AC0839B22
:1012100008C0839B06C0C0918102C395C093810220
:10122000A3C0DF93C0918002DD27C857DD4F839BA9
:1012300002C0DF91E6CF2F930F931F9300B32FEFE0
:1012400003FB20F94F933F9310B34FEF012703FBAC
:1012500021F93BE031C04E7F012F10B3216028C03F
:10126000102F4D7F2260000000B329C04B7F246007
:10127000012F000010B32BC010B3477F28602AC095
:101280004F7E00B320612CC04F7D10B320622FC071
:101290004F7B00B3206432C0422700B349934FEF25
:1012A0000000102713FB20F910B31C70C9F1297F2F
:1012B00091F2012703FB21F900B3237F89F231501A
:1012C00058F1102713FB22F910B3277E79F201277A
:1012D00003FB23F92F7C81F200B3102713FB24F9C1
:1012E0002F7971F200C010B3012703FB25F92F738A
:1012F00059F200C000B3102713FB26F9223040F248
:1013000000C010B3012703FB27F9243028F64F77DC
:10131000206810B30000F9CF10E81ABF002719C0E9
:101320003B503195C31BD04010E81ABF0881033CE5
:10133000F9F00B34E9F020917E021981110F12139C
:10134000EDCF4A81441F093641F10D3211F0013EC3
:1013500029F7009386023F914F911F910F912F9192
:10136000DF91CAB7C7FD4ACFCF91CFBFCF911895B4
:1013700020918602222379F3109184021123C1F572
:101380003430C2F13093840220937F0210918002A6
:101390003BE0311B309380022DC00091840201306C
:1013A0003CF50AE54F7049F430917D0034FD24C0CE
:1013B00000937D00C7E6D2E023C0433049F030916E
:1013C000720234FD19C000937202C3E7D2E018C064
:1013D00030919E0234FD10C000939E02CFE9D2E00E
:1013E0000FC02795A8F45150A9F4220F0000F9CF9F
:1013F0004AE503C042ED01C0432FC4E1D0E032E032
:1014000011B31C60939A11BB02B320E41CE05F93FC
:10141000012756E002BB279520F4515021F4220FFA
:10142000F9CF012756E000003B5A02BBD0F22795C6
:1014300028F4515029F4220F0000F9CF012756E07B
:10144000279502BB20F4515021F4220FF9CF012738
:1014500056E02991332302BB21F6037F10918502C8
:10146000110FC651D04002BB11F010937E0210E85C
:101470001ABF086011B3137F402F437F5F9100C0F4
:1014800000C002BB11BB42BB66CF81E0089581E082
:1014900008950C94470A1F93CF93DF9300D000D098
:1014A0000F92CDB7DEB749835A836B832091010138
:1014B00089819A8121111BC06623A9F00E94A3246F
:1014C000182F682F89819A810E944C2469817A8122
:1014D000812F0F900F900F900F900F90DF91CF9171
:1014E0001F910C94250B0E947A24182FEFCF0E9495
:1014F000A32469817A81EDCFFC0140815181628111
:10150000738184810C944B0A0E941326811102C0BE
:101510000E94B0260C94D30D0C94D60D08950C9413
:101520008E0A81E008950C94910ACF93C82F0E94EF
:101530008F0A8C2FCF910C94930A08950E94C91E94
:101540000E949D0A2FEB87E299E021508040904055
:10155000E1F700C000000C947A270F931F93CF93FC
:10156000DF93EC010E947C0A8C01BE010E94490AB3
:10157000882319F1BE01C8010E94E1178823E9F010
:10158000BE01C8010E9425188823B9F0BE01C80118
:101590000E94E616882389F08A81882349F1013068
:1015A0008CE5180781F00E3D8CE51807F1F0011568
:1015B0008CE51807E9F40E949E0A80E0DF91CF9144
:1015C0001F910F91089590919001892F8E7F90FF28
:1015D00081608093900180FF05C086E793E00E94C0
:1015E0004008EBCF84E693E0FACF0E94B026E5CF27
:1015F00006311C45F9F40E9440259A81992381F017
:101600008A7A91E009F490E09093BA00811106C0C3
:1016100089E20E941B250E948F25CFCF85E3F9CF59
:101620008091BA00811104C089E20E942225F3CF83
:1016300085E3FBCFCE01DF91CF911F910F910C94E9
:10164000450A90E080E008950895972F70E02EE01D
:10165000929F600D711D1124FB0192E6899FE00DA0
:10166000F11D1124EE0FFF1FEC5AFF4F859194914D
:101670000895FC01EE0FFF1FE957FC4F85919491EF
:101680000895CF93DF930E94250B0E94F70CEC0185
:10169000811521E5920708F0A0C0811530E5930778
:1016A00008F00FC1803E910508F079C0803C91059B
:1016B00008F0F5C0883A910580F4853A910508F064
:1016C000E3C08130910509F47CC00497813A91050B
:1016D00008F477C0D0E0C0E074C08F3B9105D1F32F
:1016E000883A910509F43EC1893A910509F43DC152
:1016F0008A3A910509F43CC18B3A910509F43BC142
:101700008C3A910509F43AC18B3B910509F439C132
:101710008C3B910509F438C18D3A910509F437C124
:10172000803B910509F436C18E3A910509F435C123
:101730008F3A910509F434C1813B910509F433C115
:10174000823B910509F432C1833B910509F431C113
:10175000843B910509F430C1853B910509F42FC103
:10176000863B910509F42EC1873B910509F42DC1F3
:10177000883B910509F42CC1893B910509F42BC1E3
:101780008D3B910509F42AC18E3B910509F429C1CD
:101790008A3B910509F428C1C0E0D4E412C0811548
:1017A00040E3940790F4C11580E2D80708F07DC0AB
:1017B000C83ED10530F0CE019A9581159F4108F0C1
:1017C00089CFCE01DF91CF910895811530E4930741
:1017D00008F46EC0DF70D06AF4CF8115964560F5CD
:1017E000C11585E5D80708F09EC0C11594E5D90755
:1017F000F0F4C11523E5D20708F081C0C11532E528
:10180000D30708F477C0CE018370992721E030E038
:1018100002C0220F331F8A95E2F7C695C69540E2B3
:10182000C49FE0011124C22BD32BDC68CACFDC2F6C
:10183000CC27C46FD06AC5CFC1158AE5D80788F414
:10184000C11599E5D90708F079C0CE0198558F3FA9
:10185000910511F008F03ECFDC2FCC27C06FD06A85
:10186000B0CFCE0190568115904208F033CF8D2F26
:101870008F710E948F0D90E0982F882788279F7185
:101880009C012C2BE90158C0853A910509F464C0EC
:10189000863A910509F063C0C2E8D0E492CF805C3B
:1018A00091090E94390BEC018CCFCE019F70F9CFCA
:1018B0009927D3FF03C0EC01D86C83CFEC01D06C27
:1018C00080CF74E0969587957A95E1F783702C2FF9
:1018D00026952695237040E2249F90011124382BF1
:1018E0008C2F8370C1E0D0E002C0CC0FDD1F8A9541
:1018F000E2F799CFDC2FCC27C16FD06A62CFCE013F
:101900008370992721E030E002C0220F331F8A95AF
:10191000E2F7C695C69580E2C89FE0011124C22B6C
:10192000D32BDA684ECF8C2F0E948F0DC82FD0E0BA
:10193000DC2FCC27CC27DF71D06243CF8C2F8F7068
:101940000E948F0D34E0D695C7953A95E1F7CF7098
:10195000DC2FC82FD06935CFC1E8D0E432CFC3E83F
:10196000D0E42FCFC2EED4E42CCFC9EED4E429CFFB
:10197000CAEED4E426CFC5EBD4E423CFC6EBD4E43F
:1019800020CFC3EBD4E41DCFC4EBD4E41ACFC7EB14
:10199000D4E417CFCCECD4E414CFCDECD4E411CF05
:1019A000C3E8D5E40ECFCAE8D5E40BCFC2E9D5E44D
:1019B00008CFC4E9D5E405CFC1E2D6E402CFC3E243
:1019C000D6E4FFCEC4E2D6E4FCCEC5E2D6E4F9CE3E
:1019D000C6E2D6E4F6CEC7E2D6E4F3CECFE6D4E450
:1019E000F0CEC0E7D4E4EDCECAE2D6E4EACE803E43
:1019F000910599F1C8F48133910509F476C048F452
:101A00008932910509F46AC08A32910509F474C0DB
:101A1000089589339105D1F082389105B9F0853365
:101A2000910509F454C00895843E910599F138F464
:101A3000823E9105F9F0833E910509F10895863EB5
:101A4000910599F1873E9105B9F1089520916502BC
:101A50002370A1F080EE90E008952091650220FDB2
:101A600052C03091660230FF09C024FF4FC090E0A1
:101A700080E004C02091650222FDF7CF08952091F7
:101A8000650222FD46C03091660230FDE3CF24FF9F
:101A9000F5CFEDCF2091660221FFF0CF8091650256
:101AA00084FDE5CF87EE90E008952091650223FF45
:101AB000E5CF24FDDCCFF6CF2091650223FD2CC0BD
:101AC0003091660231FFE3CF84EE90E008952091DB
:101AD000650225FFD3CF89E290E008952091650249
:101AE00025FFCCCF85E390E008952091650226FF85
:101AF000C5CF8AE290E008952091650226FFBECF0F
:101B000081E390E0089589E390E0089583EE90E00A
:101B1000089582EE90E0089586EE90E00895909109
:101B2000650292FF06C0282F28712830F9F4877FBC
:101B3000846093FF06C0282F28712831F1F4877E36
:101B400084612091660220FF06C0382F387138303A
:101B5000D9F4877F816021FF06C0282F28712831A2
:101B6000D1F4877E816194FD877E0895282F2471AA
:101B70002430F9F68B7F8860DCCF282F2471243144
:101B800001F78B7E8861DDCF382F3171313019F745
:101B90008E7F8860E0CF282F2171213121F78E7E42
:101BA0008861E1CF08950C94D20D08950C94D50D61
:101BB000E82FF0E0EE0FFF1FE554FF4F8081918189
:101BC0000895CF92DF92EF92FF920F931F93CF93DE
:101BD000DF9387E993E00E9440088BEBE82E80E0DA
:101BE000F82ED0E0C0E092E9C92E93E0D92E09E8A2
:101BF00013E0DF93CF93DF92CF920E94D9088FE852
:101C000093E00E944008F701819191917F010E9429
:101C100006269F938F931F930F930E94D90887E8FE
:101C200093E00E94400821968DB79EB708960FB6A4
:101C3000F8949EBF0FBE8DBFC730D105D1F6DF919E
:101C4000CF911F910F91FF90EF90DF90CF9008956B
:101C5000ACE8B0E061E070E08D91E82FE295EF70C4
:101C6000F0E041A98F709B0101C0220F8A95EAF72D
:101C7000922F9095942391AB82A9822B82AB80E026
:101C8000A339B80749F7AEE7B0E061E070E08D91A5
:101C9000E82FE295EF70F0E041A98F709B0101C041
:101CA000220F8A95EAF7922F9095942391AB82A9FF
:101CB000822B82AB80E0AC38B80749F7E9ECF0E062
:101CC000ABEBB0E087ED90E0119211921D921D9266
:101CD0008E179F07C9F787E00E94060F0C94840AAD
:101CE0005F926F927F928F929F92AF92BF92CF92AC
:101CF000DF92EF92FF920F931F93CF93DF9329EC24
:101D000030E00CE810E0612CEE24E394F12CE901C2
:101D1000899099909E01DE011E921E92F801819198
:101D20008F01E82FE295EF70F0E091A98F70B70175
:101D300001C0660F8A95EAF7892F862B81AB82A9AD
:101D4000562E5094852182AB88E78A95F1F78EE76D
:101D5000C82E80E0D82E50E040E0E60179906E0178
:101D6000872D82958F7090E0EC0188A9AD90BC9092
:101D7000119790E0D72DDF7002C095958795DA9581
:101D8000E2F780FD40C0C701042E02C0880F991FF2
:101D90000A94E2F78A299B2911969C938E934F5FB0
:101DA0005F4F4E305105C9F681A9D52DD823D1AB4F
:101DB00082A9682B62AB81E04D915C914815590571
:101DC00009F480E0682AE0E0273D3E0709F09FCF54
:101DD000262D47E06BEB70E089EC90E00E94070F46
:101DE0000E948C0A862DDF91CF911F910F91FF9059
:101DF000EF90DF90CF90BF90AF909F908F907F90AB
:101E00006F905F90089590E080E0C4CF0895FF92B6
:101E10000F931F93CF93DF93F82E092F162FD72FF1
:101E2000C42F222349F081E08093D9000E94052726
:101E30009093D8008093D7008091D9008823A1F097
:101E40008091D7009091D8000E943127069760F0CA
:101E5000EF2DF02FA12FBD2F90E080E0D0E08C1768
:101E60009D0744F01092D900DF91CF911F910F91FF
:101E7000FF900895219131912D933D930196EFCFDD
:101E8000AF92BF92CF92DF92EF92FF920F931F9388
:101E9000CF93DF93362F472FE82FF0E0ED55F84F23
:101EA00071110EC06491762F862FDF91CF911F9113
:101EB0000F91FF90EF90DF90CF90BF90AF9008957B
:101EC000C72FD0E0249186E0689F700111240FEFA6
:101ED00010E0C701B8010E94302E832F90E0880FD8
:101EE000991F35E5369FF001379FF00D11248E1BA9
:101EF0009F0B982F990F980FF801EC1BFD0B2E9F4D
:101F0000D0012F9FB00D1124EB2F949FA00111241D
:101F1000452F55276801C41AD50AA601249F6001E0
:101F2000259FD00C11248D2D5801A91AB108AC9E03
:101F3000A001AD9E500DBC9E500D1124452F55277C
:101F4000041B150B209FA001219F500D112463300D
:101F50007105D9F09CEFE91693E0F90668F4613059
:101F60007105B9F062307105C1F09FEFE916F10417
:101F700048F48B2FE52F06C06430710589F0663078
:101F80007105B9F36E2F722F90CFED2D822F2B2F6D
:101F9000F9CFE22F2D2D8B2FF5CF852FE22FF7CF05
:101FA000822F252FEFCF0895CF93DF93982F762F91
:101FB000842FE901692F0E94400F798368838A8307
:101FC000DF91CF91089580912602982F9E7F29F46A
:101FD000817082608093260208958A34E8F38170CC
:101FE0008864F8CF88E090E00C947F2E0F931F93C5
:101FF000CF93DF938B01D82FC92F0E94E30FA80145
:102000006D2F7C2F88E090E0DF91CF911F910F9191
:102010000C949C2ECF93DF9300D000D0CDB7DEB7C9
:10202000E6E2F2E083E0808311828FEF8283838394
:10203000148280819181A281B38189839A83AB8349
:10204000BC83BC01CD010F900F900F900F90DF91DA
:10205000CF910C94F60F8091900180FF76C083E7BA
:1020600096E09F938F930E94D908809190010F90E2
:102070000F9080FF6AC08091260281701F928F931B
:1020800086E596E09F938F930E94D90880919001F6
:102090000F900F900F900F9080FF57C080912602F5
:1020A00086951F928F938BE396E09F938F930E9468
:1020B000D908809190010F900F900F900F9080FFA2
:1020C00044C0809127021F928F9381E296E09F93F4
:1020D0008F930E94D908809190010F900F900F90DC
:1020E0000F9080FF32C0809128021F928F9387E06B
:1020F00096E09F938F930E94D908809190010F9052
:102100000F900F900F9080FF20C0809129021F92A6
:102110008F938DEE95E09F938F930E94D9088091C5
:1021200090010F900F900F900F9080FF0EC0809144
:102130002A021F928F9381ED95E09F938F930E94C7
:10214000D9080F900F900F900F900895809126025C
:1021500080FF02C08695089580E00895CF93DF93B5
:1021600000D000D0CDB7DEB780912A02833018F4BA
:102170008F5F80932A028091260290912702A0917E
:102180002802B091290289839A83AB83BC83BC0166
:10219000CD010F900F900F900F90DF91CF910C9485
:1021A000F60FCF93DF9300D000D0CDB7DEB780918C
:1021B0002A02882319F0815080932A0280912602F6
:1021C00090912702A0912802B091290289839A83D5
:1021D000AB83BC83BC01CD010F900F900F900F908B
:1021E000DF91CF910C94F60F6091640070E08091C4
:1021F000260280FF0AC08091DE0023E0829FC0019A
:102200001124855D9D4F0C9456178091DD009091AF
:10221000630023E0829FF0011124E55DFD4F8917E3
:1022200050F71182108212828F5F3396F8CF90910F
:10223000260290FF14C09091DD002091630033E0EE
:10224000939FF0011124E55DFD4F921710F00C945F
:10225000F4108183608342839F5F3396F6CF0895A5
:10226000CF93DF9300D00F92CDB7DEB790912602C7
:1022700090FF0AC09E012F5F3F4F0E94D40F4B81F9
:1022800069818A810E9417110F900F900F90DF9142
:10229000CF910895CF93DF93EC01EC81F0E0E2560B
:1022A000F94F4491E6E2F2E0628181810E943011AF
:1022B0008C818F5F8C83DF91CF910895CF93DF93D3
:1022C000EC01E6E2F2E0438162818C810E943011F0
:1022D0008C818F5F8C83DF91CF9108950F931F9333
:1022E000CF93DF9300D00F92CDB7DEB78C018091F2
:1022F000DA0081110AC09E012F5F3F4F4FEF6FEF51
:102300000E94D40F8A818093DA00F80164816130E1
:1023100049F06230F1F08091DA0040E0662331F05C
:1023200040E019C06091DA0040E080E00E9417119F
:10233000F801848190E0019663E070E00E94442EF1
:1023400084830F900F900F90DF91CF911F910F9189
:1023500008954091DA0080E060E0E8CF4F925F920C
:102360006F927F928F929F92AF92BF92CF92DF92A5
:10237000EF92FF920F931F93CF93DF9300D000D083
:1023800000D00F92CDB7DEB7182FF62E042FE22E15
:102390009091260290FF4CC0E92FE695AE2FB0E059
:1023A000AD56BF4F8C918093E6009E7F923009F02E
:1023B00056C09E012F5F3F4F812F0E94D40F4B814B
:1023C00069818A810E94171110932702F0922802D6
:1023D00000932902EE2009F4A2C080912602909178
:1023E0002702A0912802B09129028C839D83AE839D
:1023F000BF83BC01CD010E94F60F8091900180FF48
:1024000017C0809129021F928F93809128021F92FA
:102410008F93809127021F928F9387E094E09F9380
:102420008F930E94D9080FB6F894DEBF0FBECDBFC0
:1024300027960FB6F894DEBF0FBECDBFDF91CF91C8
:102440001F910F91FF90EF90DF90CF90BF90AF90D2
:102450009F908F907F906F905F904F900895823003
:1024600019F400912902B0CF863019F41091270297
:10247000ABCF8930D9F3893109F0A6CFE9518E2F3E
:102480008170682E81E0762C7826E695F0E0E256A1
:10249000F84FC590D490512CDD249CE2892E94E015
:1024A000992E60916200561618F00E94F4108CCF9D
:1024B000A52CB12C5C9CC0015D9C900D112470E09A
:1024C0000E94302E412E611028C0460E809190014E
:1024D00080FF11C0DF92CF921F927F921F924F9286
:1024E0001F925F929F928F920E94D9080FB6F89424
:1024F000DEBF0FBECDBF2091DD00A20EB11C950145
:10250000220F331F2A0D3B1D255D3D4F402F6F2DA0
:10251000842D0E94D40F5394C4CF461AD7CF8091F4
:10252000900180FF85CF1F920F931F92FF921F9201
:102530001F9380EE93E073CF282FE6E2F2E08181D3
:1025400043816281885F0C94AE1181E00C949C12EF
:10255000282FE6E2F2E081814381628188500C9469
:10256000AE1181E00C94A812282FE6E2F2E062811D
:1025700031E1630F08F46FEF438181810C94AE1158
:1025800081E00C94B412282FE6E2F2E0628131E19E
:10259000631B08F460E0438181810C94AE1181E0FB
:1025A0000C94C312282FE6E2F2E0438131E1430F9D
:1025B00008F44FEF628181810C94AE1181E00C949C
:1025C000D212282FE6E2F2E0438131E1431B08F406
:1025D00040E0628181810C94AE1181E00C94E112A3
:1025E00020E00C94AE11EF92FF921F93CF93DF93F4
:1025F000EC0110E0EE24EA94F12C609162001617D1
:1026000070F00E94F4109A818C8190FF27C08F5F38
:102610008C83DF91CF911F91FF90EF9008952091CF
:10262000DD00422F410F5527551FCA019A01220F85
:10263000331F280F391F255D3D4F70E0C7010E94F1
:10264000442E962F8C814091290260912802199F77
:10265000800D11240E94D40F1F5FCFCF8150D8CF9F
:10266000BF92CF92DF92EF92FF920F931F93CF937F
:10267000DF93FC0182810FEF80FF01E010E0809189
:1026800062001817C0F00E94F4108091DC00013045
:1026900009F054C0811102C0809162008150809382
:1026A000DC00DF91CF911F910F91FF90EF90DF90B1
:1026B000CF90BF900895C091DD00C12ED12CCC0DDC
:1026C000DD2DD11DCE01880F991FC80FD91FC55D03
:1026D000DD4F198218821A8234E0E32EF12CB12CDE
:1026E0008091DC008B0D83311CF162E10E94222E6F
:1026F000892F082E000C990BC816D90691F48091E9
:1027000029028E9DA0018F9D500D1124559547954E
:10271000559547959E0160912802809127020E945D
:10272000D40FB00EF1E0EF1AF108D1F61F5FA7CF7A
:1027300087FFDFCF90916200890FDBCF90E0019699
:102740006091620070E00E94442EA9CF0F931F9306
:10275000CF93DF938091DD009091630023E0829F0F
:10276000F0011124E55DFD4F891740F1C0E0D3E091
:1027700060916200C61740F10E94F4102091600041
:102780008091DB00820F8093DB0090916100920FBB
:1027900090936100191654F4082E000C990B409187
:1027A00062004150550B841795071CF0219520932A
:1027B0006000DF91CF911F910F91089511821082D7
:1027C00012828F5F3396D0CF0C2F10E070E0C801DB
:1027D0000E94442E2091DD00820F482F50E020916E
:1027E000DB00022E000C330B02171307BCF0209104
:1027F0006100022E000C330B201731077CF08D9FF7
:1028000090011124255D3D4F4091290260912802DD
:10281000809127020E94D40FCF5FAACFFA01EE0F5A
:10282000FF1FE40FF51FE55DFD4F1182108212823C
:10283000F3CF0F931F93CF93DF938C01FC0184811F
:10284000958101968170992795838483C0E0D5E5B1
:1028500080916200C81730F0DF91CF911F910F91E6
:102860000C94F4102091DD00422F4C0F5527551F7A
:10287000CA019A01220F331F280F391F255D3D4FD2
:102880008C2F8695F80144815581840F952F911DD9
:10289000817040912902609128028D9F802D112422
:1028A0000E94D40FCF5FD4CF0F931F93CF93DF93AA
:1028B000EC0110E000E0909162009017110609F021
:1028C0006CF40E94F4108C8190E00196817099273D
:1028D0008C83DF91CF911F910F9108952091DD009E
:1028E000A801420F511D9A01220F331F240F351FDB
:1028F000255D3D4F4C81609128028091270296957D
:102900009017110651F04CF0442349F040912902F0
:102910000E94D40F0F5F1F4FCECF4423B9F340E086
:10292000F7CF60912602669570E04BE050E085E6B7
:1029300090E00E946A2E892B19F481E08093E700D1
:102940000E9405279093E0008093DF008091900122
:1029500080FF08C087EC93E09F938F930E94D90873
:102960000F900F9008951092E7008091900180FFE2
:1029700008C08EEA93E09F938F930E94D9080F902E
:102980000F900895CF93DF9300D000D0CDB7DEB77E
:102990009091260290FF61C09170811148C09260B1
:1029A00090932602662309F449C0809126029091F3
:1029B0002702A0912802B091290289839A83AB83D0
:1029C000BC83BC01CD010E94F60F8091900180FF75
:1029D0000FC08091260286951F928F9387E195E024
:1029E0009F938F930E94D9080F900F900F900F9094
:1029F00060912602669570E04BE050E085E690E03D
:102A00000E946A2E892B31F10E94B31481E08093D9
:102A1000E2004091290260912802809127020F90E4
:102A20000F900F900F90DF91CF910C94F0128532A0
:102A300010F09864B5CF880F982BB2CF8091900199
:102A400080FFD6CF8091260286951F928F9389EFC3
:102A500094E0C6CF0E949114D9CF0F900F900F90A1
:102A60000F90DF91CF910895682F8091260286956F
:102A70008F5F853208F081E00C94C21481E00C94E1
:102A80003415682F9091260296958FEF890F91301B
:102A900009F484E20C94C21481E00C94411561E0C5
:102AA0000C94C2148091260281608093260280914A
:102AB000900180FF0DC01F9281E08F938BE894E01E
:102AC0009F938F930E94D9080F900F900F900F90B3
:102AD0008091260286950C944F1560E00C94C214E8
:102AE0008091E500811160C08091900180FF14C049
:102AF0008AEB95E09F938F930E94D9088091900173
:102B00000F900F9080FF08C084EA95E09F938F9309
:102B10000E94D9080F900F900E941326811110C0B7
:102B20008091900180FF08C08CE795E09F938F9380
:102B30000E94D9080F900F900E94B0260E940A10A0
:102B40000E94F20F6093260270932702809328025E
:102B5000909329026E7FC1F48091900180FF08C09C
:102B600083E395E09F938F930E94D9080F900F9075
:102B70000E940A100E94F20F6093260270932702AF
:102B800080932802909329020E94E30F0E942B1049
:102B90001092E7008091260280FF03C086950E9474
:102BA0006D1581E08093E5000895CF93DF9300D009
:102BB00000D0CDB7DEB7809126028E7F80932602AB
:102BC0008091260290912702A0912802B0912902BB
:102BD00089839A83AB83BC83BC01CD010E94F60F2D
:102BE0008091900180FF0FC08091260281701F921A
:102BF0008F9383E594E09F938F930E94D9080F9061
:102C00000F900F900F900E94B3149FEBA4EDB1E0D2
:102C10009150A040B040E1F700C000000F900F902D
:102C20000F900F90DF91CF910C94F4108091900150
:102C300080FF10C080912602809581701F928F9333
:102C400082EC94E09F938F930E94D9080F900F908D
:102C50000F900F908091260280FD0C94D5150C9456
:102C600052150F931F93CF93DF938091E700882332
:102C700009F48DC08091E600E0912602E695E81BFC
:102C8000E093E1008230C9F5F0E0E656F94FE491B7
:102C9000CE2FD0E00AE411E18091E200882389F090
:102CA0001092E2000E9405279E0120953095280F82
:102CB000391F3093E0002093DF001092E40010925F
:102CC000E3008091DF009091E0000E9431278C1793
:102CD0009D0708F45CC0E091DF00F091E000CE0FAA
:102CE000DF1FD093E000C093DF008FED90E0F8018C
:102CF000DF91CF911F910F910994863049F4F0E054
:102D0000E956F94FE491CE2FD0E00EE511E1C4CFA2
:102D1000893051F4E695F0E0EC56F94FE491CE2F6E
:102D2000D0E003EF12E1B8CF8F3051F4E695F0E038
:102D3000EF56F94FE491CE2FD0E000E313E1ACCF92
:102D4000853149F4F0E0E257F94FE491CE2FD0E01D
:102D500006EA13E1A1CFC8EED3E009E114E188311E
:102D600009F49ACF833239F4ECE8F6E0C591D491B6
:102D70000EE611E191CFC4EFD1E004E514E1843215
:102D800009F48ACFC0EDD7E003ED1FE085CFDF91D6
:102D9000CF911F910F910895FA0181110994FB01C0
:102DA000FDCFCF93DF93C82FD62F0E94A6108C178C
:102DB00040F00E94A6108D1720F4DF91CF910C9463
:102DC0003E158C2FDF91CF910C944F150F931F93CD
:102DD000CF938C01FB01C281CC2309F465C00E9412
:102DE00040258272F801E25CFC45E431F10538F4DB
:102DF000E353F14D0C94582E0E941616C0E08C2F10
:102E0000CF911F910F9108954CE455E16EE375E168
:102E10000E94CC16F3CF4EE355E16CE475E1F8CF98
:102E200041EB52E165EA72E1F3CF45EA52E161EB31
:102E300072E1EECF4FEC52E160EC72E1E9CF40EC91
:102E400052E16FEC72E1E4CF4DEE52E16EED72E1D2
:102E5000DFCF4EED52E16DEE72E1DACF41ED50E1A0
:102E60006EEA70E1D5CF4EEA50E161ED70E1D0CF6E
:102E700081E00E944F15C2CF65E082E00E94D1162A
:102E8000BDCF68E086E0FACF6EE089E0F7CF64E17D
:102E90008FE0F4CF67E185E1F1CF88E1EACF62E22C
:102EA00089E1ECCF83E2E5CFC1E0A9CF0F931F9377
:102EB000CF93DF938C01EB018091E800811105C075
:102EC0000E94F81881E08093E800AE01440F551F7E
:102ED0004C0F5D1F24E630E0B80180EBDF91CF910D
:102EE0001F910F910C9486190F931F93CF93DF932B
:102EF000C62FD42F022FFC0182818823C9F0609352
:102F0000EB000E9405279093EA008093E90080E29D
:102F10008C0F883008F050C0C77081E001C0880F66
:102F2000CA95EAF7DF91CF911F910F910C94371C4E
:102F30001091EB00161335C08091E9009091EA00E2
:102F40000E943127883C910560F5C0E2CD0F1D1726
:102F5000B9F080E2810F883040F4177081E001C041
:102F6000880F1A95EAF70E943E1CC83048F481E0A9
:102F70009D2F977001C0880F9A95EAF70E94371C21
:102F8000802F0E94241CC830B8F4D77081E001C0A3
:102F9000880FDA95EAF7DF91CF911F910F910C948A
:102FA0003E1C80E28C0F883038F4C77081E001C08D
:102FB000880FCA95EAF7EFCFDF91CF911F910F915C
:102FC00008959C01CB01233F4CE5340769F190F44F
:102FD000283DFCE53F0721F1293D4CE5340781F10F
:102FE000273D3C45B1F0FC018281882361F11092BC
:102FF000EB000895253FFCE53F07D1F0263F4CE567
:103000003407D1F0243F3C4571F727E245EE64EEEA
:1030100003C026E241EE61EE0E94741780E008953D
:1030200027E245EE65EEF8CF26E241EE60EEF4CF02
:1030300026E241EE62EEF0CF27E245EE66EEECCFFF
:1030400028E241E0EFCF81E00895CF93DF93EC01D8
:10305000FB018281882309F4C9C0C631FCE5DF0782
:10306000E0F4C2309CE5D907F0F00E942626909348
:10307000660280936502C631ECE5DE0720F5C230BA
:10308000FCE5DF0798F480916502909166020E944A
:1030900034260E94C91E80E006C09E012A5F3C457E
:1030A0002930310510F3DF91CF910895FE01E350EF
:1030B000FC45809165028160E331F10588F4EF51B0
:1030C000F14D0C94582ECA5FDC45C930D105D8F6B5
:1030D000CC50D14DFE010C94582E80916502826037
:1030E00080936502D0CF809165028460F9CF809192
:1030F00065028860F5CF80916602816080936602E8
:10310000C2CF809166028260F9CF809165028061B2
:10311000E7CF809165028062E3CF80916502806491
:10312000DFCF0E94C91E809165028068D9CF80914F
:1031300065028C60D5CF809166028360DFCF80917D
:1031400065028E7FCDCF809165028D7FC9CF809142
:1031500065028B7FC5CF80916502877FC1CF80914B
:1031600066028E7FCBCF809166028D7FC7CF809124
:1031700065028F7EB5CF809165028F7DB1CF809142
:1031800065028F7BADCF0E94C91E809165028F774B
:10319000A7CF80916502837FA3CF809166028C7F49
:1031A000ADCF8091650282FB992790F921E09227AB
:1031B00090FB82F990FB83F993CF80916602982F60
:1031C000909591708E7F892B90FB81F997CF0E940B
:1031D000C91E90916502892F97FB87F9805880CF8F
:1031E00081E00E94B2264FCF80E0FBCF81E05BCF31
:1031F00011B887E080B985B3836085BB86B78460EA
:1032000086BF86B7816086BF86B7806486BF089513
:10321000EF92FF920F931F93CF93DF93182FEB0141
:1032200016BE84EA86BF0E9405277C0106B607FE0B
:1032300021C081B1887F883021F081B1887F8031C1
:10324000B9F513B984E886BF0E9405278C0106B63C
:1032500007FE23C021B1287F90E080E02831B1F043
:1032600081E090E0203411F490E080E09195819528
:1032700091090CC0CF3FDC07C9F20E9405278E19C7
:103280009F098C179D0790F28EEF9FEFDF91CF91F2
:103290001F910F91FF90EF900895CF3FDC07B9F297
:1032A0000E940527801B910B8C179D0780F2ECCFA5
:1032B0008FEF9FEFEBCF0F931F93CF93DF93EB0134
:1032C00083B984E886BF0E9405278C0106B607FEF5
:1032D00010C021B1287F81E090E0283211F490E005
:1032E00080E0919581959109DF91CF911F910F9188
:1032F0000895CF3FDC0751F30E940527801B910BF7
:103300008C179D0718F38EEF9FEFEECFCF92DF92D1
:10331000EF92FF920F931F93CF93DF936B018A017C
:10332000F22EE32E622F732F0E940819AC01E601E2
:103330000C0D1D1DC017D10711F057FF0CC084E9FB
:1033400086BFCA01DF91CF911F910F91FF90EF903F
:10335000DF90CF9008956F2D7E2D89910E945B198B
:10336000AC01E8CF9093F1008093F0000895E091D4
:10337000F000F091F100309721F00190F081E02D04
:10338000099480E00895EF92FF920F931F93CF93DB
:10339000DF938C01E091F000F091F1003097C1F1E2
:1033A0000280F381E02D09958091900182FF30C069
:1033B00080FF04C08BEA98E00E944008D0E0C0E0A3
:1033C00085EAE82E88E0F82E8091900180FF0EC0FB
:1033D000F801EC0FFD1F80811F928F93FF92EF92F7
:1033E0000E94D9080F900F900F900F902196C8302F
:1033F000D10551F78091900180FF0AC083EA98E0DF
:10340000DF91CF911F910F91FF90EF900C944008A6
:10341000DF91CF911F910F91FF90EF900895209130
:10342000EE003091EF002817390771F09093EF000C
:103430008093EE00E091F000F091F100309721F0E0
:103440000680F781E02D099408952091EC003091D9
:10345000ED002817390771F09093ED008093EC0090
:10346000E091F000F091F100309721F00084F185B7
:10347000E02D0994089584B7806884BF84B780687C
:1034800084BF0895089508950C94421A08950C94E9
:10349000461A0E943B1A0E94431A0C94441A81E077
:1034A00008950E94FE260E94280E0E9493270E94E3
:1034B00070150C94471ACF93C82F8091900182FF0A
:1034C0001EC080FF1CC084EC98E00E9440088091E0
:1034D000900180FF14C01F92CF938FEB98E09F93D1
:1034E0008F930E94D908809190010F900F900F90B8
:1034F0000F9080FF04C08DEB98E00E9440088C2F55
:10350000CF910C94950A7F928F929F92AF92BF9227
:10351000CF92DF92EF92FF920F931F93CF93DF939F
:1035200000D000D00F92CDB7DEB70E94700E0E947F
:103530004F1A882309F46DC043EFA42E40E0B42E47
:1035400010E000E0702E802F0E94D80D7C01F50164
:10355000819091905F018816990609F454C080917A
:10356000900181FD0E94E10D80E0CC24C394D12C18
:103570008E249F2494012C213D21232BF1F189835A
:103580007A82EC20FD2081E0EF2809F480E08B8333
:103590000E9405278160782F9D838C8349815A8101
:1035A0006B818D810E942D1B000F111FF801ED50C2
:1035B000FF4F80819181C826D926D182C0820E9486
:1035C000B7199091F2008917A9F10E94B719809359
:1035D000F2000F900F900F900F900F90DF91CF910E
:1035E0001F910F91FF90EF90DF90CF90BF90AF9021
:1035F0009F908F907F900C945B1A8F5FCC0CDD1C9A
:103600008E3009F0B7CF0F5F1F4F0730110509F05B
:1036100099CF8FEF89838A831B820E94052781605F
:10362000782F9D838C8349815A816B818D810E9483
:103630002D1BC5CF0F900F900F900F900F90DF9123
:10364000CF911F910F91FF90EF90DF90CF90BF909F
:10365000AF909F908F907F900895CF93DF93CDB7D9
:10366000DEB72B970FB6F894DEBF0FBECDBF4F83EA
:10367000588769877A878B871E8285E0FE01379697
:10368000DE01119601900D928A95E1F749815A81E8
:103690006B817C818D819E812B960FB6F894DEBF65
:1036A0000FBECDBFDF91CF910C946221FC018081D0
:1036B00091810C94E524CF93C82F882309F49AC0F4
:1036C0008CEF8C0F813A58F48C2F0E942A2A81119A
:1036D00091C08C2F0E941B25CF910C948F2580E2E6
:1036E0008C0F883048F4C77081E001C0880FCA95FC
:1036F000EAF70E944325F0CF8BE58C0F833068F406
:1037000081E890E0C53A31F083E890E0C63A11F4E0
:1037100082E890E0CF910C940F1A88E58C0F8731E6
:1037200008F068C082EE90E0C83A09F460C089EE03
:1037300090E0C93A09F45BC08AEE90E0CA3A09F415
:1037400056C085EB90E0CB3A09F451C086EB90E08F
:10375000CC3A09F44CC083EB90E0CB3B09F447C072
:1037600084EB90E0CC3B09F442C087EB90E0CD3A8B
:10377000F1F18CEC90E0C03BD1F18DEC90E0CE3AD1
:10378000B1F183E891E0CF3A91F18AE891E0C13B51
:1037900071F182E991E0C23B51F184E991E0C33BD0
:1037A00031F181E292E0C43B11F183E292E0C53B4A
:1037B000F1F084E292E0C63BD1F085E292E0C73BB3
:1037C000B1F086E292E0C83B91F087E292E0C93B1B
:1037D00071F08FE690E0CD3B51F080E790E0CE3B7A
:1037E00031F090E080E0CA3B11F48AE292E0CF91A0
:1037F0000C94251ACF910895882329F19CEF980FF6
:10380000913A20F40E9422250C948F2590E2980F83
:10381000983050F4877091E001C0990F8A95EAF7CB
:10382000892F0E944925F0CF9BE5980F933020F413
:1038300090E080E00C940F1A885A873120F490E0D1
:1038400080E00C94251A0895CF93C82F0E945B1B2B
:10385000C93349F42FEF8DEE92E021508040904023
:10386000E1F700C000008C2FCF910C94FC1B882343
:1038700021F00E9443250C948F250895882321F080
:103880000E9449250C948F250895AF92BF92CF9244
:10389000DF92EF92FF920F931F93CF93DF9300D0AD
:1038A00000D00F92CDB7DEB76C016D837983FC0138
:1038B000058102950F70128111110E9462250E94EC
:1038C0003925E82E882371F01123B1F08D81805EB7
:1038D000883090F082E00E94DA250E94392591E03C
:1038E000E82EE926A980A2949FE0A922B12CF50137
:1038F000E350F14D0C94582EE12CF4CF09810F7058
:10390000F981F07F11F00295007F1123B1F00023BF
:1039100061F08D81805E883018F02D81211109C001
:10392000802F0E9443250E948F258D810E945B1B62
:1039300015C0802F0E945425F6CF8D810E94FC1B5C
:10394000002361F08D81805E883018F04D81411137
:1039500033C0802F0E9449250E948F2558E0A51A68
:10396000B10864E0A616B10420F40E94B7190E94C1
:10397000950AEE2009F4C1C10E94352580FDBDC124
:10398000F60112820E942F250E943C23C6010E944C
:103990008D1E0E942F250F900F900F900F900F906B
:1039A000DF91CF911F910F91FF90EF90DF90CF901B
:1039B000BF90AF900C946D23802F0E945A25CCCFDE
:1039C00059815F70F52E6981607F603219F0F29441
:1039D00080EFF8227D81772369F0713049F111235E
:1039E00091F1002351F1F601858180FF9ECF8F7008
:1039F000858323C0112381F0011106C00E94762522
:103A00008F290E94371CAACF0130C1F70E9476256A
:103A10008F290E947C25A2CF011106C00E94852516
:103A20008F2D0E943E1C9ACF013009F497CFF6CF1C
:103A3000112329F0063008F091CF8F2DE2CF053009
:103A400008F08CCFEDCF002359F3FD81F93349F411
:103A50002FEF4DEE52E0215040405040E1F700C0C2
:103A600000008D810E94FC1B79CF89818695869507
:103A7000837069F0813009F071CF8D8199819370E5
:103A8000111102C090E080E00E94251A67CF8D815D
:103A900099819370111102C090E080E00E940F1A8A
:103AA0005DCF8981837009F050C0111157CF4D81CE
:103AB000429546954770440F440F8D818F7090E07A
:103AC000B0E0A0E0042E04C0880F991FAA1FBB1FFE
:103AD0000A94D2F76D8100E010E0980164FF0FC0F6
:103AE0000FE010E020E030E004C0000F111F221FA3
:103AF000331F4A95D2F7009510952095309579811E
:103B00007695769573707D83B901A801482B592B62
:103B10006A2B7B2B49835A836B837C835D8169810C
:103B20007A818B819C81523051F0533059F0513061
:103B300019F00E94B22212CF0E948A220FCF0E9457
:103B4000DA220CCF0E94882209CF8695112311F02A
:103B500089818170882309F401CF4D814295469572
:103B60004770440F440F8D818F7090E0B0E0A0E06B
:103B7000042E04C0880F991FAA1FBB1F0A94D2F7F6
:103B80006D8100E010E0980164FF0FC00FE010E0CD
:103B900020E030E004C0000F111F221F331F4A95A0
:103BA000D2F7009510952095309579817695769588
:103BB00073707D83B901A801482B592B6A2B7B2B8D
:103BC00049835A836B837C835D8169817A818B8190
:103BD0009C81523051F0533059F0513019F00E940D
:103BE000FB23BCCE0E94D323B9CE0E942324B6CEA1
:103BF0000E940623B3CE69816F706983112329F077
:103C0000862F0E943C238D81FCCE8D810E943E1C1C
:103C100089810E946D23A2CE7D81723FA1F160F463
:103C2000703FE1F0713F41F1112309F445C00111EA
:103C30007CCE89818F7124C08D81833F49F1843F7F
:103C400099F7112379F199819F719983892F0E94A6
:103C50003C2363E089810E94C52580CE112341F079
:103C6000053008F07BCE89818F710E94A22376CE29
:103C7000063008F073CEF7CF89818F71112349F296
:103C80000E943C236BCE89818F711123C9F3C1CF70
:103C9000112329F089818F710E9417235FCE0E9422
:103CA00012235CCE81E00E94DA25023008F456CE61
:103CB00082E00E94DA2552CE002361F0ED81E933E3
:103CC00009F0CFCEFFEF2DEE42E0F1502040404012
:103CD000E1F7C5CE89818F719CCF49814F706D818D
:103CE000C6010E94210B0E94FC2138CE49814F70F1
:103CF0006D81C6010E94240B31CE0F900F900F9062
:103D00000F900F90DF91CF911F910F91FF90EF9047
:103D1000DF90CF90BF90AF9008950F931F93CF93F4
:103D2000DF93EC018B819C81892B29F0888199811B
:103D300089238F3F29F4DF91CF911F910F9108952F
:103D4000CE010E94AD0A8823B1F3688179818A810E
:103D50000E94F1248C010E944B240E948722B8010A
:103D6000CE01DF91CF911F910F910C94451C0E94C1
:103D700062250E9473250E948F2590E080E00E94BA
:103D80000F1A90E080E00C94251A0E9429250C94CB
:103D9000B71E0E9451250C94C51E282F892F82958D
:103DA0008F70903C80F48A30B0F4843020F48230FC
:103DB00090F480E008958630E1F781E0283E88F0B5
:103DC000213FB9F70EC08C3011F08F3091F793FB83
:103DD000882780F9089581E0203F39F018F4283EC3
:103DE00040F70895243F29F7FCCF08950E94E52469
:103DF0000C94CD1ECF93DF9300D000D00F92CDB79F
:103E0000DEB70F900F900F900F900F90DF91CF9132
:103E10000895CF93DF9300D000D000D0CDB7DEB7A8
:103E200026960FB6F894DEBF0FBECDBFDF91CF91BF
:103E300008951F93CF93DF93E091020116E08091E4
:103E400003018E1304C0DF91CF911F910895CE2FEF
:103E5000D0E01E9FF0011124EC5FFE4F40815181A4
:103E600062817381848195810E94091FFE013196D0
:103E7000E770E5CF409134015091350160913601F2
:103E80007091370180913801909139010C94091F8C
:103E90001F93CF93DF9380913901807FC1F480918C
:103EA00036018823A1F080910201C0910301609145
:103EB0003401709135014091370150913801D62F6E
:103EC000D723DA01A095B09516E0C81304C0DF919E
:103ED000CF911F91089590E04115510511F0DF3FFA
:103EE00031F401968770F1CF2A0F3B1F17C0189F3E
:103EF000F001199FF00D1124EC5FFE4F2181271373
:103F0000F0CF20812613EDCF22812111EACF23812A
:103F100034812417350740F3241B350B283C310529
:103F200000F7209139012F7020612093390126E09C
:103F3000289FF001299FF00D1124E75FFE4F80813B
:103F40008F708061808384E391E00E948D1EDF91F9
:103F5000CF911F910C94191F9F92AF92BF92CF9255
:103F6000DF92EF92FF920F931F93CF93DF93CDB722
:103F7000DEB72B970FB6F894DEBF0FBECDBF8C0116
:103F800085E0F801DE01179601900D928A95E1F720
:103F9000D8014C9111965C9111971296EC90129762
:103FA0008091370190913801009709F46CC12091FC
:103FB000340130913501632F62236F3F09F463C1EF
:103FC0001396CD90DC9090903601992009F4FAC0B8
:103FD000C816D90608F43FC0F601E81BF90BCF015B
:103FE000FF24F394883C910508F0F12C84E3A82E7B
:103FF00081E0B82E80913901982F907FFF2009F43D
:10400000B9C0911180C0FE2C35132AC0241328C0DA
:10401000E11026C08F708061809339010E943A1FA1
:10402000C5010E948D1E80913901D80115968C938F
:104030008F2D2B960FB6F894DEBF0FBECDBFDF914C
:10404000CF911F910F91FF90EF90DF90CF90BF9095
:10405000AF909F900895809590958C0D9D1DC0CF39
:10406000CD2829F0842F85238F3F09F028C180E0D7
:10407000B82FB170DB2EE09102012091030136E0F0
:1040800080FD1CC0EE20A1F28091390181608093F7
:104090003901F12CCDCF8E2F90E03E9FF0011124FD
:1040A000EC5FFE4F6181651306C06081641303C03D
:1040B00062816E11E7CFFC013196E770E213EBCF1E
:1040C0004F8358878F8198850E94E524292F229558
:1040D0002F70903260F0225F2F70223078F49F7042
:1040E00051F0F8019581907F31F4D12C0AC09F7076
:1040F00011F08823D1F3805E8830B8F3C8010E94A4
:104100008D1EFD2C95CF351306C0241304C0D80195
:10411000EE2009F47CC04F8358878F8198850E94D8
:10412000F61E882319F1EE2009F1809139018032C1
:1041300070F020913401309135013A8329831B823C
:10414000DD82CC828E83CE0101960E948D1E86E098
:10415000F801A4E3B1E001900D928A95E1F70E9485
:10416000481F0E943A1FFF24F39462CFC8010E94A7
:104170008D1EF9CF911113C07C2DDB86CA866E2D62
:104180008B850E94FA1E84E391E00E948D1E86E0DA
:10419000F50111928A95E9F70E943A1F49CF35132C
:1041A000BACF2413B8CFE110B6CFD80115968C93AF
:1041B000C8010E948D1E86E0F50111928A95E9F7EB
:1041C000F92C36CFC816D90680F1B601681B790BD9
:1041D000CB01F12C883C910508F046C0FE2CEE2066
:1041E00029F2351330C024132EC08091390180FD8F
:1041F00021C0982F907FF1F0D80115968C931597D8
:10420000903F39F0982F907F905F8F70892B159693
:104210008C93C8010E948D1E86E0F801A4E3B1E0F2
:1042200001900D928A95E1F7B7CF809590958C0D0E
:104230009D1DCFCF86E0F801A4E3B1E001900D927F
:104240008A95E1F7F5CE4F8358878F8198850E9434
:10425000F61E81117CCF80913901816080933901F4
:10426000C8010E948D1EE4CE7C2DDB86CA866E2D91
:104270008B850E94FA1E86E0E4E3F1E0DF011D92E7
:104280008A95E9F789CFEE2009F470CF4F835887DC
:104290008F8198850E94F61EF82E882309F466CF38
:1042A00086E0F801A4E3B1E001900D928A95E1F770
:1042B00084E391E00E94561B0E94481F6DCF81E06D
:1042C0008E25D6CE1F93CF93DF93CDB7DEB72C9735
:1042D0000FB6F894DEBF0FBECDBF4F8358876987F6
:1042E0007A878B879C87CE0107960E94AC1F882314
:1042F00069F08A859B85892B39F04F815885842FF9
:1043000085238F3F09F071C016E05FC086E0FE0193
:104310003796DE01119601900D928A95E1F78A8514
:104320009B85892B89F388859F8189238F3F61F342
:104330002091030130E0C9010196877099274091CF
:1043400002014817190671F40E94C91E1092030158
:104350001092020186E0E4E3F1E0DF011D928A950C
:10436000E9F7D2CF96E0929FD001939FB00D112430
:10437000AC5FBE4FFE01319601900D929A95E1F728
:10438000809303010E94191FBFCF819FC001112498
:104390008C5F9E4F0E94AC1F8823E9F0E0910201E0
:1043A0001E9FF0011124EC5FFE4F4081518162811C
:1043B0007381848195810E94091F8091020190E0A0
:1043C0000196877099278093020180910201909154
:1043D00003018913DACF2C960FB6F894DEBF0FBE17
:1043E000CDBFDF91CF911F91089569857A858B8527
:1043F0009C850E94091F88CFEF92FF920F931F9315
:10440000CF93DF938C01892B89F0F12CEE24E39478
:10441000E8012196F8018491843709F457C0A0F48B
:10442000823009F43EC048F48130D1F0DF91CF9161
:104430001F910F91FF90EF9008959CEF980F903788
:10444000A8F70E945B1B0AC0853709F44CC09CE7A3
:10445000980F903758F78F770E94FC1B8E0116C07B
:104460000E5F1F4FFE01849190E2980F983060F428
:104470008770FE2D01C0FF0F8A95EAF78F2F0E94EB
:1044800065250E948F2502C00E945B1B8F2D8150E5
:1044900008F4BECFE7EBFBE03197F1F700C0000076
:1044A000F6CF0E5F1F4FFE01849190E2980F983077
:1044B00050F48770FE2D01C0FF0F8A95EAF78F2F09
:1044C0000E946B25DECF0E94FC1BE0CF0E5F1F4FCA
:1044D000FE01C491C150D0F287EB9BE00197F1F748
:1044E00000C00000F7CF0E5F1F4FFE01F490CECF4B
:1044F00008950C9478220E94792260937F01709332
:10450000800180938101909382010C94B71E0895DD
:104510000C947B22CF93DF9300D000D0CDB7DEB7D1
:1045200069837A838B839C8380917F019091800142
:10453000A0918101B091820129813A814B815C81F6
:10454000282B392B4A2B5B2B29833A834B835C83A3
:10455000CA01B9010F900F900F900F90DF91CF918A
:104560000C947B22CF93DF9300D000D0CDB7DEB781
:1045700069837A838B839C8380917F0190918001F2
:10458000A0918101B091820129813A814B815C81A6
:10459000282339234A235B2329833A834B835C8373
:1045A000CA01B9010F900F900F900F90DF91CF913A
:1045B0000C947B22CF93DF9300D000D0CDB7DEB731
:1045C00069837A838B839C8380917F0190918001A2
:1045D000A0918101B091820129813A814B815C8156
:1045E000282739274A275B2729833A834B835C8313
:1045F000CA01B9010F900F900F900F90DF91CF91EA
:104600000C947B220C9478220C9402230E940423A5
:1046100060937B0170937C0180937D0190937E0178
:104620000C94B71E60E070E0CB010C9406230F934E
:104630001F93CF93DF9300D000D0CDB7DEB741E01A
:1046400050E060E070E08A019B0104C0000F111F80
:10465000221F331F8A95D2F709831A832B833C8349
:10466000C901B8010F900F900F900F90DF91CF917B
:104670001F910F910C9406230F931F93CF93DF93F9
:1046800000D000D0CDB7DEB741E050E060E070E090
:1046900004C0440F551F661F771F8A95D2F780917B
:1046A0007B0190917C01A0917D01B0917E018A01F6
:1046B0009B01082B192B2A2B3B2B09831A832B8355
:1046C0003C83C901B8010F900F900F900F90DF91BC
:1046D000CF911F910F910C9406230F931F93CF93AB
:1046E000DF9300D000D0CDB7DEB741E050E060E00E
:1046F00070E004C0440F551F661F771F8A95D2F7DC
:10470000409550956095709580917B0190917C01CA
:10471000A0917D01B0917E018A019B01082319239C
:104720002A233B2309831A832B833C83C901B801C5
:104730000F900F900F900F90DF91CF911F910F91DD
:104740000C9406230F931F93CF93DF9300D000D0D8
:10475000CDB7DEB741E050E060E070E004C0440F48
:10476000551F661F771F8A95D2F780917B01909124
:104770007C01A0917D01B0917E018A019B010827F7
:1047800019272A273B2709831A832B833C83C901D6
:10479000B8010F900F900F900F90DF91CF911F9164
:1047A0000F910C940623CF93DF9300D000D0CDB7A8
:1047B000DEB769837A838B839C8380917B019091A0
:1047C0007C01A0917D01B0917E0129813A814B81CC
:1047D0005C81282B392B4A2B5B2B29833A834B8313
:1047E0005C83CA01B9010F900F900F900F90DF9179
:1047F000CF910C940623CF93DF9300D000D0CDB798
:10480000DEB769837A838B839C8380917B0190914F
:104810007C01A0917D01B0917E0129813A814B817B
:104820005C81282339234A235B2329833A834B83E2
:104830005C83CA01B9010F900F900F900F90DF9128
:10484000CF910C940623CF93DF9300D000D0CDB747
:10485000DEB769837A838B839C8380917B019091FF
:104860007C01A0917D01B0917E0129813A814B812B
:104870005C81282739274A275B2729833A834B8382
:104880005C83CA01B9010F900F900F900F90DF91D8
:10489000CF910C9406230895E82F2EE0929FE00D0F
:1048A00011248E2F877041E001C0440F8A95EAF7EA
:1048B000E695E695E69585E0E89FF0011124E65C33
:1048C000FE4F30E020E070E05191DF011197CB0105
:1048D000022E02C0969587950A94E2F78170819521
:1048E0008527842385278C932F5F3F4F2530310503
:1048F00059F70895E82F2EE0929FE00D11249E2F86
:104900009770E695E695E69585E0E89FF00111241D
:10491000E65CFE4F50E040E080E0219130E0092E5F
:1049200002C0369527950A94E2F721703327042EAA
:1049300001C0220F0A94EAF7822B4F5F5F4F453088
:10494000510559F70895BF92CF92DF92EF92FF92EF
:104950000F931F93CF93DF938C01C0907B01D09076
:104960007C01E0907D01F0907E0180917F0190912B
:104970008001A0918101B0918201C82AD92AEA2A36
:10498000FB2ACFE1D0E0BC2ED701C6010C2E04C01B
:10499000B695A795979587950A94D2F780FD0EC096
:1049A000219788F7B12C8B2DDF91CF911F910F911B
:1049B000FF90EF90DF90CF90BF900895B8018C2FBB
:1049C0000E94410B019761F3EECFCF93DF93D82F75
:1049D000C92F0E94A3246D2F7C2FDF91CF910C94BF
:1049E000410B1F93CF93DF93162FD72F9091010187
:1049F000992339F0862F972FDF91CF911F910C9437
:104A0000E524882391F0862F972F0E94A324C82F96
:104A1000682F812F9D2F0E944C24612F7D2F8C2F7A
:104A2000DF91CF911F910C94410B862F972F0E94FD
:104A30007A24C82FF2CF682F809170009091710076
:104A40000C94F226682F80917000909171000C9464
:104A5000F42680917000909171000C94F62680915C
:104A6000830185958595859508958091830187704B
:104A7000089590918301977081E009F480E0089592
:104A800080918F01089590918F01982B90938F01C1
:104A90000895982F909580918F01892380938F019D
:104AA000089510928F01089590918E01982B909304
:104AB0008E010895982F909580918E01892380937F
:104AC0008E01089510928E01089590918D01982B7A
:104AD00090938D010895982F909580918D01892351
:104AE00080938D01089510928D0108958091840125
:104AF000089508950C94792590918401981721F0D8
:104B0000809384010C947A250895809184018823F0
:104B100029F01092840180E00C947A250895E091A8
:104B20007000F091710080918F018083E09170009E
:104B3000F0917100808190918E01892B8083E091AA
:104B40007000F0917100808190918D01892B80839C
:104B500090918401992381F0E0917000F0917100AF
:104B60008081892B808380917000909171000E94D8
:104B7000B72681110E948525809170009091710067
:104B80000C94C31908950C94C22598E0899F900154
:104B90001124622B609383010E943C238091830146
:104BA0008595859585950C94C3251092830180E0A9
:104BB0000C94C32590918301809589238093830170
:104BC000282F277071F4282F082E000C330B921712
:104BD000130639F08595859585950E946D230C9473
:104BE000D5250895829594E0899F900111242C7C0D
:104BF000869586958373282B30E0C901880F991F0D
:104C00008A7A359527952575822B0895CF93DF9362
:104C1000D92F0E94F225C82F8D2F0E94F2259C2F9C
:104C2000DF91CF91089590E080E00E94852E9C0155
:104C300081E02C3E3E4F09F080E0089582E090E054
:104C40000C94772E83E090E00C94772ECF9384E041
:104C500090E00E94772EC82F81E290E00E94772E8C
:104C6000982F8C2FCF910895CF93682FC92F84E070
:104C700090E00E948B2E6C2F81E290E0CF910C94FB
:104C80008B2EAB01BC018FE090E00C949C2EAB010D
:104C9000BC0183E190E00C949C2E60E070E0CB01BD
:104CA0000C94472660E070E0CB010E9441260C94F2
:104CB0004D266CEE7EEF90E080E00E94A82E60E032
:104CC00082E090E00E948B2E60E083E090E00E9402
:104CD0008B2E10927F011092800110928101109210
:104CE000820160E084E090E00E948B2E60E081E22F
:104CF00090E00E948B2E60E085E090E00E948B2E79
:104D000060E086E090E00E948B2E6FEF87E090E0FD
:104D10000E948B2E40E050E0BA0188E090E00E94B3
:104D20009C2E60E08DE090E00E948B2E40E050E0F1
:104D3000BA0188E190E00E949C2E60E087E190E05B
:104D40000E948B2E40E050E0BA018CE190E00E947E
:104D50009C2E60E080E290E00E948B2E0C94522604
:104D60000C945926682F8EE090E00C948B2EAC01A9
:104D70009C012E5F3F4F485F5F4F80E0241735074F
:104D800009F40895F90191919F019923B9F38F5F77
:104D9000F5CF9C01FC0132968FEF90E041914617D0
:104DA00051F08F3F19F4411101C0892F9F5F963058
:104DB000A9F78F3F09F40895280F311D87FD3A9513
:104DC000F901628308959C01FC013296285F3F4FF0
:104DD0008191861303C0DF0111971C92E217F3073C
:104DE000B9F708950C94C9260C94E326FC01329679
:104DF00086E0DF011D928A95E9F708958BE083BF75
:104E00008BEB8CBF82E089BF08952FB7F894809117
:104E1000610290916202A0916302B09164022FBF7F
:104E20000895CF93DF9300D000D0CDB7DEB78FB712
:104E3000F894209161023091620240916302509196
:104E4000640229833A834B835C838FBF69817A81B3
:104E50008B819C810F900F900F900F90DF91CF91DD
:104E60000895CF92DF92EF92FF929C014FB7F89492
:104E70008091610290916202A0916302B0916402FC
:104E80004FBF6C017D01EE24FF24A90170E060E0BA
:104E9000C416D506E606F70638F0821B930BFF9082
:104EA000EF90DF90CF9008950197F7CF78941F92FD
:104EB0001FB61F9211248F939F93AF93BF9380913E
:104EC000610290916202A0916302B0916402019626
:104ED000A11DB11D8093610290936202A0936302B1
:104EE000B0936402BF91AF919F918F911F901FBEAD
:104EF0001F90189560E081E090E00E94AE2E87E060
:104F000090EBDC018093AA029093AB02A093AC02D9
:104F1000B093AD0288E19CE00FB6F894A89581BDEE
:104F20000FBE91BDFFCFCF93DF9300D000D0CDB7A0
:104F3000DEB70E941326811102C00E94B0260E9493
:104F40001E26809390010E942626909366028093ED
:104F500065020E942226282F30E050E040E029839D
:104F60003A834B835C83CA01B9010F900F900F9075
:104F70000F90DF91CF910C948822CF93DF9300D0D4
:104F800000D0CDB7DEB789831F928F938DED98E067
:104F90009F938F930E94D90881E090E0A0E0B0E059
:104FA0009C01AD01098004C0220F331F441F551F0F
:104FB0000A94D2F729833A834B835C83CA01B901EF
:104FC0000E9488220F900F900F900F900F900F90DB
:104FD0000F900F90DF91CF910C94C91ECF93DF9368
:104FE0008B3258F4853098F0EBEFE80FE63278F426
:104FF000F0E0E35FF04D0C94582E833470F48A3364
:1050000008F020C2853359F0883309F46BC18AE374
:105010009DE00E94400880E07AC18334C1F780E0BF
:105020000E94BD2756C189ED9DE00E9440088AE29A
:105030009DE00E9440080E9422261F928F9387E2E3
:105040009DE09F938F930E94D90885E29DE00E9486
:1050500040080E941E26C82F82E19DE00E94400861
:105060001F92CF938DE09DE09F938F930E94D9086C
:105070008BE09DE00E94400881E09DE00E94400896
:105080008C2F81701F928F938EEF9CE09F938F9354
:105090000E94D9088CEF9CE00E94400882EF9CE0BF
:1050A0000E944008C1FB882780F91F928F938FEEE2
:1050B0009CE09F938F930E94D9088DEE9CE00E9404
:1050C000400881EE9CE00E944008C2FB882780F9DE
:1050D0001F928F938EED9CE09F938F930E94D9082F
:1050E0008CED9CE00E94400883ED9CE00E9440080B
:1050F000C3FBCC27C0F91F92CF9380ED9CE09F9318
:105100008F930E94D9088EEC9CE00E9440080E9478
:105110002626EC018AEB9CE00E944008DF93CF93A7
:1051200085EB9CE09F938F930E94D90883EB9CE0D2
:105130000E9440088AE99CE00E9440088C2F817000
:105140001F928F9387E99CE09F938F930E94D908C9
:105150008DB79EB780960FB6F8949EBF0FBE8DBFD9
:1051600085E99CE00E9440088EE79CE00E94400890
:10517000C1FB882780F91F928F938BE79CE09F9358
:105180008F930E94D90889E79CE00E94400887E637
:105190009CE00E9440088D2F81701F928F9384E6BF
:1051A0009CE09F938F930E94D90882E69CE00E9426
:1051B000400880E59CE00E944008D695D1701F927F
:1051C000DF938DE49CE09F938F930E94D9088BE43A
:1051D0009CE00E94400889E39CE00E944008C2FBDA
:1051E000882780F91F928F9386E39CE09F938F938B
:1051F0000E94D90884E39CE00E94400882E29CE07F
:105200000E944008C3FB882780F91F928F938FE18B
:105210009CE09F938F930E94D9088DE19CE00E94AF
:10522000400883E19CE00E944008C4FB882780F985
:105230001F928F9380E19CE09F938F930E94D908E7
:105240008EE09CE00E9440088CEF9BE00E944008AA
:10525000C5FB882780F91F928F9389EF9BE09F936E
:105260008F930E94D90887EF9BE00E9440088BED46
:105270009BE00E944008C6FB882780F91F928F930D
:1052800088ED9BE09F938F930E94D9088DB79EB7BE
:1052900080960FB6F8949EBF0FBE8DBF86ED9BE043
:1052A0000E9440088EEC9BE00E944008C7FBCC2780
:1052B000C0F91F92CF938BEC9BE09F938F930E943A
:1052C000D90889EC9BE00E9440080F900F900F9046
:1052D0000F9081E01CC088EC9DE00E9440080E9475
:1052E000B026F7CF86E29AE00E944008F2CF809184
:1052F0009001807F809390018BE09AE00E944008AB
:1053000084EC9DE00E94400881E080939101DF9150
:10531000CF9108950E94C91E88EA9DE00E9440082E
:105320009FEF2EE984E2915020408040E1F700C0D9
:1053300000000E947A27CDCF90919001892F8E7F17
:1053400090FF81608093900180FF03C08CE99DE015
:10535000CBCF8FE89DE00E94400880919001817F33
:1053600080939001B6CF90919001892F8D7F91FF0E
:1053700082608093900181FF08C082E89DE00E94D6
:105380004008809190018160EBCF84E79DE0ACCF35
:1053900090919001892F8B7F92FF84608093900180
:1053A00082FF03C085E69DE0EACF85E59DE09CCFC6
:1053B00090919001892F877F93FF8860809390015F
:1053C00083FF03C089E49DE0DACF8CE39DE08CCFBE
:1053D0008CEF99E00E94400888EE99E00E94400816
:1053E00082EB99E00E94400889E799E00E9440081A
:1053F0008CE499E00E94400881E299E075CF83E156
:1054000099E00E9440080E94B7191F928F9389EF7C
:1054100098E09F938F930E94D9080E9411279F9331
:105420008F937F936F9382EE98E09F938F930E9468
:10543000D9088DB79EB70A960FB6F8949EBF0FBED7
:105440008DBF47CF8953ECCD8D51EACD80E00895D3
:105450000C94262ACF93C82F80919101882331F094
:10546000813099F01092910180E00DC00E9440259A
:105470008232D1F78C2F0E94262A81111BC08C2FDB
:105480000E94EE278170CF9108950E9440258232BC
:1054900089F38C2F0E94282A811119C0C932C9F0C2
:1054A00060F4CB3061F0C431A1F087ED98E00E9448
:1054B000400811C081E090E0E5CFC833B1F78BE040
:1054C0009AE00E94400889ED98E00E94400881E03F
:1054D000D9CF1092910180E0D5CF0E940527EC0131
:1054E0000E94491A0E94511A0E94CE2B0E94B219A2
:1054F0008091900180FF04C08FEE9DE00E944008E3
:105500000E940F2E8B9A80E0815061F48B987894E2
:105510008091900180FF04C084EE9DE00E944008CD
:1055200010E009C0A895E7EBFBE03197F1F700C068
:105530000000EACF11E0809181028823B1F010923F
:1055400081020E940527EC010E94FD2C80918702B8
:10555000882341F08091720284FF04C00E94831A64
:105560000E9431160E942D2BDBCFCE010E943127E5
:10557000069700F7112341F3DECF809124020895AE
:10558000CF93DF9300D00F92CDB7DEB79C0180910F
:105590009401909195018217930789F030939501BA
:1055A0002093940184E089833B832A8380919E0227
:1055B00084FF05C063E0CE0101960E94F92C0F9094
:1055C0000F900F90DF91CF910895CF93DF9300D08C
:1055D0000F92CDB7DEB79C0180919201909193011B
:1055E0008217930789F0309393012093920183E00F
:1055F00089833B832A8380919E0284FF05C063E0F8
:10560000CE0101960E94F92C0F900F900F90DF9120
:10561000CF910895CF93DF9300D000D000D0CDB7C5
:10562000DEB7FC0182E0898385E0DE0112960190FD
:105630000D928A95E1F780919E0284FF05C066E095
:10564000CE0101960E94F92C26960FB6F894DEBF83
:105650000FBECDBFDF91CF910895CF93DF93CAE006
:10566000D0E08091720284FF63C08091A10190918B
:10567000A201981709F467C028E0829FC001112495
:1056800068E08D559E4F0E94F52C8091A10190E01D
:1056900001968F7099278093A1018091900182FFDC
:1056A00052C08BE89EE00E9440088091A1011F92A9
:1056B0008F9388E89EE09F938F930E94D90885E896
:1056C0009EE00E9440088091A2011F928F9382E881
:1056D0009EE09F938F930E94D9088FE79EE00E94DF
:1056E00040085091A2014091A1018DB79EB7089644
:1056F0000FB6F8949EBF0FBE8DBF242F30E0852FCC
:1057000090E0821B930B541708F440969F938F935D
:105710008AE79EE09F938F930E94D9080F900F9085
:105720000F900F9087E79EE0DF91CF910C94400897
:105730000E94FD2C87EB9BE00197F1F700C0000071
:10574000219709F08ECFDF91CF910895FC01A091B0
:10575000A201B0E09D012F5F3F4F2F703327809152
:10576000A101821791F083E0AA0FBB1F8A95E1F790
:10577000AD55BE4F88E001900D928A95E1F72093D8
:10578000A2010E94FD2C0C942D2B8091900180FF92
:10579000F8CF8BE69EE00E944008F3CF82E790E0CE
:1057A0000895CF93DF93EC018091900181709881EF
:1057B0009076903209F075C09981913081F48823F8
:1057C00021F08FE59EE00E94400889E991E09093E6
:1057D00083028093820288E0DF91CF910895923016
:1057E00071F4882321F084E59EE00E94400883E262
:1057F00092E0909383028093820281E0EDCF9A3011
:1058000029F59B81909323028823F1F089E49EE09F
:105810000E9440088091900180FF16C08091230271
:105820001F928F9384E49EE09F938F930E94D908E8
:105830000F900F900F900F908091900180FF04C007
:105840008AE19EE00E94400880E0C6CF993011F5C1
:10585000882321F087E39EE00E9440088A819B8193
:1058600081159240A9F48C819D81892B89F48091C6
:10587000900180FF04C08DE29EE00E94400881E01C
:10588000809398018E819F819093970180939601D8
:105890008FEFA2CF8823C1F284E29EE00E944008ED
:1058A000CBCF882389F28CE19EE0F8CF0F931F9332
:1058B000CF938C018091960190919701892B99F15A
:1058C000C0919801C13079F58091900180FF1EC090
:1058D00080E19EE00E9440088091900180FF16C008
:1058E000F80180811F928F938BE09EE09F938F93AE
:1058F0000E94D908809190010F900F900F900F9007
:1059000080FF04C089E09EE00E944008F801808189
:105910008093240210929701109296018C2FCF91C0
:105920001F910F910895CFEFF9CFFC018381813250
:1059300061F08232E1F0823069F488E99EE0909370
:105940008302809382028BE308958281882321F071
:10595000813051F080E008958AEA9EE090938302BE
:105960008093820289E0089583EC9EE0F7CF8481E2
:105970009581009751F0019769F783ED9EE0909330
:1059800083028093820284E8089587E59FE09093E4
:1059900083028093820280E408951F93CF93DF9364
:1059A000782F162FEA01888184FF1CC0898128E89E
:1059B00082278983AE014E5F5F4FFA01272F392F6F
:1059C000710FD9012F5F3F4F8C9181937213F9CFE3
:1059D000612FCA010E94F7081C5F1883DF91CF91E5
:1059E0001F9108958AE58883E5CF42E752E00C9441
:1059F000CD2C4EE952E00C94CD2CCF93DF936091E7
:105A00008402635067FD2BC080918002CCE0D0E01F
:105A1000C81BD109C857DD4F80917F028D3209F034
:105A2000E0C06830D1F483EC809367028AE580930C
:105A30007D00109225028881807609F464C0CE0131
:105A40000E94D12B8F3F09F06DC0988197FD8E8108
:105A500090E89093250280937C00109284028091BC
:105A60007D0084FF43C080917C008F3F09F43EC0DD
:105A7000C82F893008F0C8E0982F9C1B90937C00B9
:105A80009091670228E8922790936702882301F19A
:105A90008091820290918302209125024C2F480F21
:105AA00026FFB2C0FC0128E632E05491D9015C9394
:105AB0002F5F3F4F31964E13F8CF2FEF2C0F30E072
:105AC0002F5F3F4F820F931F909383028093820238
:105AD0006C2F88E692E00E94F70884E08C0FC830B3
